:0410000094EF0CF06D
:10100800D9CF64F0DACF65F0F6CF66F0E8EF2FF0CD
:10101800D8CF19F0E8CF1AF0E0CF1BF0D9CF1CF0E9
:10102800DACF1DF0F6CF1EF0F7CF1FF0F8CF20F083
:10103800F5CF21F09E90010E0201D427000ED52392
:10104800000ED623000ED72300013DB601D001D0F3
:1010580008D0D4C2D8F2D5C2D9F2D6C2DAF2D7C2F1
:10106800DBF200013EA801D001D00FD00201D4511B
:10107800DC5DD551DD59D651DE59D751DF59D8B08D
:1010880001D001D002D000013E9850504F10D8B482
:1010980001D001D008D04F06D8A0500600013EA2CA
:1010A80001D001D003D000013B9A02D000013B8A55
:1010B800D8905A36D8905A368138E8461F0B030B19
:1010C8005A120F0E5A16BC0E5A24F66EF76A190EEB
:1010D800F722F86A000EF8220800F550585E5B2ADD
:1010E8005B28D8A401D001D004D05B6A586A0001FB
:1010F8003C845850800A7D0FD8A001D001D00FD071
:10110800040E576E00013B82E7C34FF0E8C350F06E
:1011180000013B805BC053F0546A5B6A586A5850C0
:10112800800A820FD8B001D001D00FD0050E576EBB
:1011380000013B82E7C34FF0E8C350F000013B8059
:101148005BC053F0546A5B6A586A81B401D001D01D
:1011580007D0554A562AE7C34FF0E8C350F016D0D7
:10116800020E555C000E5658D8A001D001D00CD004
:10117800C80E555C000E5658D8B001D001D004D026
:10118800010E576E00013B82556A566AB10E555CD6
:10119800040E5658D8A001D001D001D0FF00560443
:1011A800900ED8B45518D8A401D001D004D0030E9D
:1011B800576E00013B825550C80A5610D8A401D07A
:1011C80001D004D0020E576E00013B8200013BA6FD
:1011D80001D001D009D000013B92576A0001EE6BA3
:1011E80000013B9600013D9800013DB801D001D0B7
:1011F80012D000013BA201D001D004D057C0EEF0BC
:1012080000013B9200013EAA01D001D004D00001A8
:101218003E9A5CC0EEF000013DB401D001D017D079
:1012280000013BA001D001D012D00501F00E5924D5
:10123800D96EDA6A050EDA2253C0DFFF592A0F0E7B
:10124800596401D001D001D0596A00013B900001D6
:101258003D80EBC133F0ECC134F0EDC135F0EEC1A7
:1012680036F000013D9000013DAE01D001D0DED046
:1012780000013C9A4B500301C85D4C50C9594D5070
:10128800CA594E50CB59D8B001D001D024D03F50C4
:101298000101EF5F4050F05B4150F15B4250F25B5F
:1012A8003F50EF5D4050F0594150F1594250F259CA
:1012B800D8B001D001D060D0CCC3D0F2CDC3D1F228
:1012C800CEC3D2F2CFC3D3F2EF6BF06BF16BF26BFC
:1012D80000013D9E51D043500101EF5D4450F0594B
:1012E8004550F1594650F259D8B001D001D01CD020
:1012F8003F50EF274050F0234150F1234250F22352
:10130800EF51435CF0514458F1514558F251465859
:10131800D8B001D001D008D043C0EFF144C0F0F1FB
:1013280045C0F1F146C0F2F1EF51435CF051445829
:10133800F1514558F2514658D8B001D001D01CD0CF
:101348003F50EF5F4050F05B4150F15B4250F25B21
:101358004350EF5D4450F0594550F1594650F25909
:10136800D8B001D001D008D043C0EFF144C0F0F1AB
:1013780045C0F1F146C0F2F10101EF510201C82761
:101388000101F0510201C9230101F1510201CA23EF
:101398000101F2510201CB230101EF510201C85DA5
:1013A8000101F0510201C9590101F1510201CA5963
:1013B8000101F2510201CB59D8B001D001D008D0B7
:1013C800010ECC27000ECD23000ECE23000ECF2316
:1013D800CBC24BF0CCC24CF0CDC24DF0CEC24EF0D9
:1013E80000013DAE01D001D0E1D000013EA001D006
:1013F80001D00ED04B50475C0201D06F4C5048587A
:10140800D16F4D504958D26F4E504A58D36FCED0F5
:1014180047504B240201D06F48504C20D16F49509F
:101428004D20D26F4A504E20D36FC0D000013CAA45
:1014380001D001D009D033C0D0F234C0D1F235C0C8
:10144800D2F236C0D3F2B2D000013EA401D001D00E
:10145800ADD000013CA201D001D00AD000013C92DD
:10146800D0C343F0D1C344F0D2C345F0D3C346F050
:1014780043500101EF5D4450F0594550F159465031
:10148800F259D8B001D001D020D000013C803F50A3
:101498000101EF274050F0234150F1234250F2233D
:1014A800EF51435CF0514458F1514558F2514658B8
:1014B800D8B001D001D040D043C0EFF144C0F0F122
:1014C80045C0F1F146C0F2F137D0EF51435CF0511D
:1014D8004458F1514558F2514658D8B001D001D07E
:1014E80029D000013C803F500101EF5D4050F05988
:1014F8004150F1594250F259D8B001D001D005D02D
:10150800EF6BF06BF16BF26B08D03F50EF5F405020
:10151800F05B4150F15B4250F25B4350EF5D445049
:10152800F0594550F1594650F259D8B001D001D080
:1015380003D0C2D700013C900101EF510201C82736
:101548000101F0510201C9230101F1510201CA232D
:101558000101F2510201CB230101EF510201C85DE3
:101568000101F0510201C9590101F1510201CA59A1
:101578000101F2510201CB59D8B001D001D008D0F5
:10158800010ECC27000ECD23000ECE23000ECF2354
:10159800CBC24BF0CCC24CF0CDC24DF0CEC24EF017
:1015A80000013EA001D001D033D724D7C4CF37F0F3
:1015B800386A3750386E376AC3503726000E3822DB
:1015C800C2825D50375C266E5E503858276E040E16
:1015D800126E273427322632122EFBD726505D266C
:1015E80027505E2237505D5C38505E58D8B001D025
:1015F80001D002D05D4A5E2A5D50375C5E50385893
:10160800D8B001D001D003D05D06D8A05E06000195
:101618003CBE01D001D004D05DC0F3F15EC0F4F14E
:101628000301D8515D5CD9515E58D8B001D001D0C2
:1016380002D000013D8A33500401005D296E345008
:1016480001592A6E33C000F434C001F435C002F4E5
:1016580036C003F42AAE01D001D004D0296C2A1E6A
:10166800D8B02A2A0301DCC301F0026A29C003F0BA
:101678002AC004F0A5EC3FF001C037F002C038F0F2
:10168800DD513726000E3822000E375C010E38581F
:10169800D8A001D001D004D0000E386EFF0E376EEE
:1016A8005DC012F05EC013F0040E146ED8901332B1
:1016B8001232142EFBD71250286EDAC301F0DBC3A6
:1016C80002F028C003F0046A7EEC3DF001C024F06B
:1016D80002C025F037C02BF038C02CF02D6A2E6AD6
:1016E80024C00DF025C00EF00F6A106A2B0E0FEC07
:1016F8003DF0060E126ED8902E322D322C322B323F
:10170800122EF9D7000E2B5C040E2C58000E2D5803
:10171800000E2E58D8A001D001D008D0FF0E2B6E95
:10172800030E2C6E000E2D6E000E2E6E335002012D
:10173800D05D2F6E3450D159306E3550D259316E3C
:101748003650D359326E0301F1C312F0F2C313F0CD
:10175800000E13BEFF0E146E156E1550800A166E1D
:101768002F50125C30501358315014583250800AA0
:101778001658D8B001D001D00ED023EEF1F0DECF4C
:101788002FF0DDCF30F0000E30BEFF0E316E326E1E
:1017980000013D8C37D023EEF1F0DECF12F0DDCF23
:1017A80013F0121E131E124A132A12C014F013C08B
:1017B80015F0000E15BEFF0E166E176E3250800A19
:1017C800186E14502F5C1550305816503158175059
:1017D800800A1858D8B001D001D014D023EEF1F007
:1017E800DECF12F0DDCF13F0121E131E124A132A99
:1017F80012C02FF013C030F0000E30BEFF0E316E55
:10180800326EC6D751502F5C226E52503058236E1C
:101818002FC051F030C052F0F3C301F0F4C302F00E
:101828002FC003F030C004F0A5EC3FF001C039F040
:1018380002C03AF0F5C301F0F6C302F022C003F08B
:1018480023C004F0A5EC3FF00150392602503A229B
:101858003AAE01D001D007D08B908A80396C3A1EFD
:10186800D8B03A2A02D08B808A9039C012F03AC098
:1018780013F0000E13BEFF0E146E156E12502B5C83
:1018880013502C5814502D5815502E58D8B001D03C
:1018980001D004D02BC039F02CC03AF000013EA290
:1018A80001D001D00CD08B908A90396A3A6A33C043
:1018B800D0F234C0D1F235C0D2F236C0D3F23A50A9
:1018C800800A7D0F850ED8B4395CD8A001D001D02C
:1018D80004D0030E3A6EFF0E396E3950FF08396E88
:1018E8003A50D8A0E82A03083A6E3A343A323932E4
:1018F8003A343A32393239C0BCFF21C0F5FF20C032
:10190800F8FF1FC0F7FF1EC0F6FF1DC0DAFF1CC09E
:10191800D9FF1BC0E0FF1AC0E8FF19C0D8FF1000AC
:1019280052EF35F000000000000000000000000049
:10193800000000000000000000000000000000009F
:10194800000000000000000000000000000000008F
:101958000000000000010203040506070809000052
:1019680000000000000A0B0C0D0E0F000000000024
:1019780000000000000A0B0C0D0E0F000000000014
:10198800000000000000000000000000000000004F
:10199800000000000000000000000000000000003F
:1019A800000000003031323334353637383941429F
:1019B8004344454600FF0100010000FFFF0000010D
:1019C8000001FF004D4F564520544F205A45524FB5
:1019D8002044454752454553000020202020202020
:1019E80020202020202020202020202020000052FD
:1019F8004F544154494F4E20444952454354494F4E
:101A08004E3A000052554E4E494E473A20542D4802
:101A1800483A4D4D3A5353000054494D4520464FDE
:101A28005220414C4C204F524249545300004359D4
:101A3800434C4520434F554E543A303D494E462E6F
:101A480000004457454C4C204F4E20504F494E54AF
:101A58002023303000004D415820574159504F49FC
:101A68004E5453204841564500004D4F564520548A
:101A78004F204E45585420504F494E540000455869
:101A88005445524E414C204354524C204D4F4445EE
:101A980000004D4F56494E4720544F20504F494E55
:101AA80054202300002B58585858DF205448454EDE
:101AB80020434C49434B000041444420414E4F547D
:101AC80048455220504F494E543F005350454544D5
:101AD8003A2058582E5858DF2F536563000050524B
:101AE8004F4752414D20454E44204D4F44453A0002
:101AF80000434F554E54455220434C4F434B574992
:101B0800534500004457454C4C204F4E20504F49F8
:101B18004E54202300004D4F56494E4720544F2025
:101B28004F524947494E00004241545445525920AA
:101B3800564F4C544147453A00004D4F56452054A6
:101B48004F2053544152542E2E2E0000494E4649E0
:101B58004E4954452052554E54494D450000494E72
:101B680046494E495445204359434C455300005477
:101B7800494D4520504552204F524249543A0000A1
:101B88004D4F56494E4720544F205354415254000C
:101B9800004241545445525920564F4C54414745F0
:101BA80000004457454C4C204F4E2053544152544A
:101BB8000000544F54414C2052554E54494D453A1B
:101BC800000054494D4520504552204F5242495437
:101BD80000004259204F5242495420434F554E5419
:101BE800000043494E45464C5558204F52424954EF
:101BF8000000425920544F54414C2054494D45004F
:101C0800004F524249542052554E4E494E4700000B
:101C18005448454E20434C49434B2E2E2E0000522B
:101C280045414C54494D45204D4F444500005741CE
:101C380059504F494E54204D4F444500005452418D
:101C480056454C2054494D453A000050524553459D
:101C58005420534C4F543A00004F52424954205399
:101C6800504545443A00004F52424954204C494D92
:101C780049543A00004E4556455220454E44494E77
:101C880047000045585445524E414C204D4F44455D
:101C9800004457454C4C2054494D453A0000535494
:101CA8004F5050494E472E2E2E00005448454E2086
:101CB800434C49434B2E000052554E2050524F473B
:101CC80052414D0000205245562052454D41494E43
:101CD80000005341564520505245534554000031A9
:101CE8002E302E31343030392E370000474F2054F3
:101CF8004F20534C45455000004C4F4F50204D4FFE
:101D080044453F00004245454E2041444445440077
:101D1800002D4F524249542020202000002D454DCF
:101D28005054592020202000002D574159504F4928
:101D38004E542000004F52424954204D4F44450014
:101D48000052554E205052455345540000505245BC
:101D580053455420303100004F4E452D574159000E
:101D680000414354494F4E3A00004359434C4520E3
:101D78000000424F554E4345000020564F4C5453E7
:101D880000004D414E55414C00003C4E4F3E200056
:101D9800003C5945533E000053504545440000203F
:101DA8004F462000003C6D733E003C483E003C4DD1
:101DB8003E003C533E000000020EF76F1B0EA36F5F
:101DC800010EA26F1A0EA56FF90EA46FA4C1BCF183
:101DD800A5C1BDF1A2C1BEF1A3C1BFF11D0EA76F80
:101DE8008A0EA66F1B0EA96FCF0EA86F1A0EAB6FC7
:101DF800260EAA6FA6C1C4F1A7C1C5F1A8C1C6F134
:101E0800A9C1C7F1AAC1C8F1ABC1C9F11B0EAD6F19
:101E1800DA0EAC6F1B0EAF6FFA0EAE6F1C0EB16F01
:101E28007D0EB06FACC1B6F1ADC1B7F1AEC1B8F1BE
:101E3800AFC1B9F1B0C1BAF1B1C1BBF11C0EB36FFA
:101E4800C00EB26F1C0EB56FDA0EB46FB2C1C0F11E
:101E5800B3C1C1F1B4C1C2F1B5C1C3F12AEC3AF0C2
:101E68001B0E776F420E766F44EC3FF0756B010ED8
:101E780058EC3BF01C0E776FB30E766F44EC3FF0D6
:101E880000013C8AA1EC40F00101CA6F3C9ACAAF3C
:101E980002D0CA511200C8EC35F0A6C0AEF0A7C0F7
:101EA800AFF0A8C0B0F0A9C0B1F08BEC38F0AEC06C
:101EB8007EF4AFC07FF4010E0001926FBC0E916FEB
:101EC800010E936F190E956FF70E946F81C496F0FB
:101ED800DAEC38F00101CA6FCA29C0E0CA51FE0A1B
:101EE80001E1FE0CCABFD5D7CAC181F4010E0001B9
:101EF800926FB60E916F020E936F1A0E956FE60EE3
:101F0800946F80C496F0DAEC38F00101CA6FCA29E0
:101F1800D2E0CA51FE0AE5E0CABFBBD7CAC180F405
:101F280018D286C489F087C48AF088C48BF089C423
:101F38008CF000018D6B8E6B800E8F6F3F0E906F53
:101F4800C4EC3CF007E20401866B876B800E886F57
:101F58003F0E896F0001896BC00E8A6F790E8B6FF7
:101F6800440E8C6F86C48DF087C48EF088C48FF0C1
:101F780089C490F0C4EC3CF008E20401866BC00E02
:101F8800876F790E886F440E896F1C0E0101816F6F
:101F98006F0E806F190E836FF60E826F040E856FB9
:101FA800860E846F866B876B800E886F3F0E896FF5
:101FB8008A6BC00E8B6F790E8C6F440E8D6F8E6B93
:101FC8008F6B800E906F3F0E916F6BEC26F00101C6
:101FD800CA6FCA298BE0CA51FE0A83E0CABF59D723
:101FE8000001896B8A6B800E8B6F3F0E8C6F86C4E5
:101FF8008DF087C48EF088C48FF089C490F0C4EC4B
:102008003CF010E2010E0001926FC40E916F020EB7
:10201800936F1C0E956F610E946F92C496F0DAEC74
:1020280038F004D0010E49DADAEC38F00101CA6F51
:10203800CA2901E176D7CA51FE0A01E152D7CABFBF
:1020480028D7A5D0FFD9C4EC3CF001E243DAC1D9C6
:102058006BEC26F00101CA6FCA29C2E0CA51FE0A18
:1020680001E13FD77FD10ADAC4EC3CF001E24BDA58
:102078001B0E0101816FCA0ED0D96AEC1EF0010156
:10208800CA6FCA29ADE0CA51FE0A01E12AD7000188
:1020980005DA30EC38F04FD18AC489F08BC48AF065
:1020A8008CC48BF08DC48CF000017E6B7F6B800E2E
:1020B800806F400E816F86C47AF087C47BF088C435
:1020C8007CF089C47DF0AEEC36F07AC08DF07BC030
:1020D8008EF07CC08FF07DC090F0C4EC3CF00BE239
:1020E80003DAAEEC36F07AC08AF47BC08BF47CC09D
:1020F8008CF47DC08DF4F8D9AEEC36F07AC09EF140
:102108007BC09FF17CC0A0F17DC0A1F11A0E010136
:10211800816F210E806F040E836F8A0E826F9EC1BD
:1021280084F19FC185F1A0C186F1A1C187F19CD935
:102138006AEC1EF00101CA6FCA2901E151D7CA51E0
:10214800FE0A01E1CED600017E6B7F6BB40E806F74
:10215800430E816F86C47AF087C47BF088C47CF014
:1021680089C47DF0AEEC36F07AC089F07BC08AF085
:102178007CC08BF07DC08CF08AC48DF08BC48EF04F
:102188008CC48FF08DC490F030EC38F0D4D0CA51A4
:1021980001E158D7010A01E166D7030A01E17CD7BA
:1021A800E1D01B0E0101816FBA0E806F040E836FA0
:1021B800820E826F846B856B800E866F3F0E876FF1
:1021C80053D96AEC1EF00101CA6FCA2901E18ED603
:1021D800CA51FE0A01E185D6CABF5BD6010E6DD988
:1021E800DAEC38F00101CA6FCA29DBE0CA51FE0AED
:1021F80001E177D6CABF4DD632D024D9C4EC3CF021
:1022080001E268D9E6D86BEC26F00101CA6FCA2949
:10221800E5E0CA51FE0A01E164D625D02FD9C4EC05
:102228003CF001E270D91B0E0101816F770EF5D8E1
:102238006AEC1EF00101CA6FCA29D0E0CA51FE0A31
:1022480001E14FD600012AD930EC38F089C08EF46C
:102258008AC08FF48BC090F48CC091F404D0CA511A
:10226800CCE0010ADBE082C47EF083C47FF084C442
:1022780080F085C481F08EC47AF08FC47BF090C45E
:102288007CF091C47DF0AEEC36F07AC089F07BC06A
:102298008AF07CC08BF07DC08CF08D6B8E6BB40E99
:1022A8008F6F430E906F30EC38F089C086F48AC087
:1022B80087F48BC088F48CC089F454D0010EFDD803
:1022C800DAEC38F00101CA6FCA2901E10FD6CA5108
:1022D800FE0A01E106D6CABFDCD536D0B3D8C4ECB5
:1022E8003CF001E2F7D875D86BEC26F00101CA6F13
:1022F800CA29E4E0CA51FE0A01E1F3D5CABFC9D52B
:1023080031D0BCD8C4EC3CF001E2FDD81B0E010171
:10231800816F770E82D86AEC1EF00101CA6FCA2954
:10232800CDE0CA51FE0A01E1DCD5CABFB2D5000131
:10233800B5D830EC38F089C08EF48AC08FF48BC0E1
:1023480090F48CC091F40ED0CA51C8E0010AD9E0CB
:1023580009D00401805101E1E4D5010A01E121D746
:10236800030AACE0010E0001926FC00E916F010EDE
:10237800936F1D0E956F690E946F000E966BDAECD5
:1023880038F00101CA6FCA2901E1CBD5CA51FE0A4A
:1023980001E1A7D5CABF7DD5CA6702D099EF24F05D
:1023A80015EC37F00101CA6FCA29DCE0CA51FE0AF0
:1023B80001E197D5CABF6DD5020E04017D6F040EE9
:1023C8000001736F7D0E726F0101CA517AEC40F003
:1023D800C9D71D0E0101816FA00E806F1A0E836F81
:1023E800DF0E826F040E856F8E0E846F0A0E866F65
:1023F800D70E876F230E886F3C0E896F8A6B8B6BA5
:10240800B40E8C6F420E8D6F0A0E8E6FD70E8F6FC3
:10241800230E906F3C0E916F3C0C806F040E836FFF
:102428008A0E826F846B856B800E866F400E876F75
:10243800886BC00E896FA80E8A6F470E8B6F0E0EC1
:102448008C6F0E0C8EC489F08FC48AF090C48BF008
:1024580091C48CF00A0E00018D6FD70E8E6F230E7B
:102468008F6F3C0E906F3C0C886BC00E896FA80E66
:102478008A6F470E8B6F0E0E8C6F0E0C8AC489F014
:102488008BC48AF08CC48BF08DC48CF000018D6BEA
:102498008E6B800E8F6F400E906F400C896B8A6B2D
:1024A800B40E8B6F430E8C6F8AC48DF08BC48EF084
:1024B8008CC48FF08DC490F0430C0001926FC40E51
:1024C800916F010E936F1C0E956F610E946F92C4FD
:1024D80096F012000A0E04018E6FD70E8F6F230E2E
:1024E800906F3C0E916F3C0C86C47AF087C47BF0E9
:1024F80088C47CF089C47DF07E6B7F6B800E806F12
:10250800400E816F400C04018A6B8B6B800E8C6FC0
:10251800400E8D6F400C080EF76F536B526B3B8863
:102528000101546B516B2AEC3AF01C0E776F8B0E3D
:10253800766F44EC3FF0B3EC40F0D76FD751030A05
:1025480001E1A5D250D03D9E3C9A3E9457D007DB7E
:102558003CB2FED73CB002D00101546B3DBE03D063
:10256800010E0101546F3DBE49D001015351020DC6
:102578000EDB0001DECF71F0DDCF72F066EC40F0CB
:102588000101532B040E2DD03EB838D00101525111
:10259800536302D0010E25D05351020DF1DA000128
:1025A800DECF75F0DDCF76F0B7EC3EF075C04DF1BB
:1025B80076C04EF177C04FF178C050F10101535108
:1025C800020DECDA0001DECF75F0DDCF76F0FDEC20
:1025D8003FF06ADA78EC2CF080DA2AEC3FF0030E50
:1025E8000101546F0BD001015451ADE0010AAFE075
:1025F800030AB4E0010AB7E0070AC6E000013BAEEF
:102608009AD70101F56B010E0001EC6F00013B9EAA
:1026180011EC3EF00101F8198EE111EC3EF00101D8
:10262800556F1DD211EC3EF00101566F11EC3EF0D2
:102638000101576F11EC3EF00101586F11EC3EF0AB
:102648000101596F56C138F157C139F158C13AF1F2
:1026580059C13BF16DDA11EC3EF00101566F11ECF6
:102668003EF00101576F11EC3EF00101586F11EC7B
:102678003EF00101596F56C13CF157C13DF158C1B7
:102688003EF159C13FF154DA11EC3EF00101566FA9
:1026980011EC3EF00101576F11EC3EF00101586F4B
:1026A80011EC3EF00101596F56C140F157C141F19B
:1026B80058C142F159C143F13BDA11EC3EF0010136
:1026C800F51906E1010E516F5551BBEC3FF033D7B8
:1026D80050DA10EC3FF02FD7516708D0010E0001F7
:1026E8006D6F0101555110EC3FF025D7545108E0AA
:1026F800020E00016D6F0101555110EC3FF01BD720
:1027080038C1B8F039C1B9F03AC1BAF03BC1BBF031
:102718003CC1BCF03DC1BDF03EC1BEF03FC1BFF001
:1027280040C1C0F041C1C1F042C1C2F043C1C3F0D1
:1027380088EC20F00101516B020E546F5551BBEC2F
:102748003FF0F9D6545102E0010E546F5551BBECDD
:102758003FF0F1D6F66BEFEC1DF0240EDF6EF62B92
:10276800555176EC3EF0545176EC3EF05451F52735
:10277800515176EC3EF05151F52719EC3CF0EAEC5A
:102788003CF075C056F176C057F177C058F178C063
:1027980059F13D90D6D9C8EC3DF00101565176EC7F
:1027A8003EF0575176EC3EF0585176EC3EF05951D8
:1027B80076EC3EF0ABD9566B576B586B596B12D011
:1027C800EFC175F0F0C176F0F1C177F0F2C178F0A1
:1027D80076EC3FF075C056F176C057F177C058F1E6
:1027E80078C059F1EFC175F0F0C176F0F1C177F01A
:1027F800F2C178F076EC3FF00101595100017819E7
:102808000EE1010158510001771909E10101575101
:102818000001761904E10101565100017519D0E152
:10282800010E00018A6F560E2DEC1EF0C8EC3DF02B
:1028380088D9C8EC3DF00101565176EC3EF057516D
:1028480076EC3EF0585176EC3EF0595176EC3EF07D
:102858005DD900013D86D8C275F0D9C276F0DAC2DA
:1028680077F0DBC278F076EC3FF075C056F176C0B1
:1028780057F177C058F178C059F13D96010E000123
:102888008A6F560E896F6F0E8B6F120E8C6F030E48
:102898008D6F3B0E8E6FC8EC3DF00101565176EC02
:1028A8003EF0575176EC3EF0585176EC3EF05951D7
:1028B80076EC3EF02BD900013C8EF3C175F0F4C1E3
:1028C80076F0FDEC3FF075C056F176C057F177C051
:1028D80058F178C059F13C9E010E00018A6F560EDE
:1028E800896FE2C38BF0E3C38CF0E4C38DF0E5C3DA
:1028F8008EF0C8EC3DF00101565176EC3EF0575190
:1029080076EC3EF0585176EC3EF0595176EC3EF0BC
:10291800FDD8F55176EC3EF0EFEC1DF0230EDF6E9E
:10292800F62BF6C14CF1F66B4CC1EDF004D65451C0
:10293800030A03E05451040A08E1010E00016D6F17
:102948000101555110EC3FF0F6D5536B526B5551C0
:10295800BBEC3FF0F0D55451030A03E05451040A8C
:1029680008E1010E00016D6F0101555110EC3FF0B7
:10297800E2D5630E526508D0020E00016D6F0101A9
:10298800555110EC3FF0D7D511EC3EF00101566FD0
:1029980011EC3EF0C4D8F4D856C1DEFF57C1DDFFB4
:1029A80011EC3EF00101566F11EC3EF0B8D8F6D8A4
:1029B80056C1DEFF57C1DDFF11EC3EF00101566F35
:1029C80011EC3EF0ACD8E3D856C1DEFF57C1DDFFAD
:1029D80011EC3EF00101F51906E15551BBEC3FF051
:1029E8000101522BA8D5C5D810EC3FF0A4D55451FD
:1029F80008E0010E00016D6F0101555110EC3FF028
:102A08009AD5536B00C375F001C376F0B7EC3EF06E
:102A180075C04DF176C04EF177C04FF178C050F1D6
:102A280000C575F001C576F0FDEC3FF03DD878ECB7
:102A38002CF053D82AEC3FF0030E0101546F555186
:102A4800BBEC3FF078D55551BBEC3FF020D0FE0EE3
:102A580000016D6F0101555110EC3FF06CD55551D7
:102A6800600A01E1DFD5010A01E136D6030A01E176
:102A780069D6010A01E16ED6070A01E158D7010AB1
:102A880001E169D7030AB3E0E60ADDE0E0D767D8D9
:102A980006D001014C694C0701014C29FCE13CB00E
:102AA800F8D700013B98000C75C048F176C049F191
:102AB80077C04AF178C04BF14DC1B7F04EC1B8F0BC
:102AC8004FC1B9F050C1BAF048C1BBF049C1BCF020
:102AD8004AC1BDF04BC1BEF01200B7C044F1B8C046
:102AE80045F1B9C046F1BAC047F14DC130F14EC108
:102AF80031F14FC132F150C133F144C134F145C114
:102B080035F146C136F147C137F112005651F52764
:102B18005751F5275851F5275951F527120001014A
:102B2800576F5651F5275751F5275251020D12008C
:102B38005951F5275851F5275751F5275651F5277B
:102B48001200010E00018A6F560E896FFBC38BF0CD
:102B5800FCC38CF0FDC38DF0FEC38EF012003D9EC9
:102B68003C9A3E840301D06BD16BD26BD36B3C8211
:102B78001200516BFA0E00016D6F010155511200E0
:102B8800000EF324D96EDA6A030EDA221200000E60
:102B9800F324D96EDA6A020EDA221200000EF32448
:102BA800D96EDA6A050EDA221200040EF76FB56BD9
:102BB800B66BB76BB86BAA6B0401076B1D0E0101EE
:102BC800976F600E966F1D0E996F7A0E986F96C16B
:102BD8009EF197C19FF198C1A0F199C1A1F11C0E76
:102BE8009B6FC00E9A6F1C0E9D6FDA0E9C6F9AC178
:102BF800A2F19BC1A3F19CC1A4F19DC1A5F1B96B40
:102C0800BA6BBB6BBC6BC36BC46BC56BC66BB36B6E
:102C1800B46BAF6BB06BB16BB26BAB6BAC6BAD6BDA
:102C2800AE6BBF6BC06BC16BC26BC76B2AEC3AF063
:102C38001B0E776F420E766F44EC3FF0756B010EFA
:102C480058EC3BF01C0E776FB30E766F44EC3FF0F8
:102C580000013C8AA1EC40F00101C86FC8AF02D066
:102C6800C851120000013C9AC8EC35F0A6C0AEF07D
:102C7800A7C0AFF0A8C0B0F0A9C0B1F08BEC38F095
:102C8800AEC005F4AFC006F4F5EC3BF08FC0A6F17A
:102C980090C0A7F191C0A8F192C0A9F178DA6AECC6
:102CA8001EF00101C86FC851FE0A01E1FE0CC829D7
:102CB800A6E0C8BFD5D7BFC1AEF0C0C1AFF0C1C193
:102CC800B0F0C2C1B1F08BEC38F0AEC053F4AFC075
:102CD80054F4CED12AEC3AF01A0E776F720E766F52
:102CE80044EC3FF0756B010E58EC3BF01A0E776F11
:102CF800AD0E766F44EC3FF03C8A3B8602D0EFEC99
:102D08001BF000013BB6FBD70101C86B96D0EFEC76
:102D18001BF0F5EC3BF08FC0ABF190C0ACF191C06B
:102D2800ADF192C0AEF1ABC198F0ACC199F0ADC1B4
:102D38009AF0AEC19BF0A6C19CF0A7C19DF0A8C1B6
:102D48009EF0A9C19FF0F3EC3EF098C0AFF199C096
:102D5800B0F19AC0B1F19BC0B2F1AFC1AEF0B0C151
:102D6800AFF0B1C1B0F0B2C1B1F08BEC38F0AEC089
:102D7800B3F1AFC0B4F1756B010E58EC3BF0B3C1C1
:102D880079F00001B4C17AF0000E7ABFFF0E7B6FB4
:102D98007C6F040E7D6F010E7E6F38EC28F03D8845
:102DA800EEC0C8F13D980101C851030A03E10001D2
:102DB8003C9AFE0CC851020A07E13C9A0101C76718
:102DC80001D01DD7C70786D7C851050A18E13B8629
:102DD8003C9A0101306B316B800E326FBF0EEDD91A
:102DE8002AEC3FF002D0EFEC1BF000013DBEFBD710
:102DF8003C8A02D0EFEC1BF000013BB6FBD7010187
:102E0800C851040A17E13B863C9A306B316B800E3F
:102E1800326F3F0ED2D92AEC3FF002D0EFEC1BF014
:102E280000013DBEFBD73C8A02D0EFEC1BF000014D
:102E38003BB6FBD70101C8BF13D7C80501E067D768
:102E48003C9A0101C751020D0B0EF324D96EDA6AC0
:102E5800040EDA22B3C1DEFFB4C1DDFFAFC1B7F0A3
:102E6800B0C1B8F0B1C1B9F0B2C1BAF0B1EC29F053
:102E7800B7C0C3F1B8C0C4F1B9C0C5F1BAC0C6F192
:102E8800C3C1AEF0C4C1AFF0C5C1B0F0C6C1B1F0A6
:102E98008BEC38F0AEC0BDF1AFC0BEF1010E000141
:102EA800A16FC30EA06FBDC175F0BEC176F0FDEC79
:102EB8003FF075C0A2F076C0A3F077C0A4F078C048
:102EC800A5F0A3EC3DF0000E896B8A6B8B6B8C6BC5
:102ED800C3C18DF0C4C18EF0C5C18FF0C6C190F0DA
:102EE800C4EC3CF00DE2010E0101BD250001756F37
:102EF800000E0101BE210001766FFDEC3FF006D007
:102F0800BDC175F0BEC176F0FDEC3FF075C0C3F1F0
:102F180076C0C4F177C0C5F178C0C6F11C0E0101B6
:102F2800816F450E806F010E836FB90E826FC3C12A
:102F380084F1C4C185F1C5C186F1C6C187F1886B2A
:102F480089697F0E8A6F470E8B6F0E0E8C6F6AEC45
:102F58001EF00101C86FC851FE0A01E1A7D6C829B1
:102F680001E1B8D6C8BF7CD6B9C1AEF0BAC1AFF0DE
:102F7800BBC1B0F0BCC1B1F08BEC38F00101C75156
:102F8800020D2F0EF324D96EDA6A040EDA22AEC0CF
:102F9800DEFFAFC0DDFFFBD86AEC1EF00101C86F91
:102FA800C851FE0A01E182D6C829B8E0C8BF58D680
:102FB800BFC1AEF0C0C1AFF0C1C1B0F0C2C1B1F085
:102FC8008BEC38F00101D890C7350001E56F550E3C
:102FD800E525D96EDA6A040EDA22AEC0DEFFAFC08C
:102FE800DDFF0101C751800A6F0F24E21A0E0001AC
:102FF800926FC00E916F010E936F1FEC39F00101B3
:10300800C86FC851FE0A01E151D6C829C4E0C86793
:1030180002D0010EAA6FC8050AE1C72BABC1A6F101
:10302800ACC1A7F1ADC1A8F1AEC1A9F153D6C8BFD3
:1030380017D61ED02AEC3AF01A0E776F5E0E766F0E
:1030480044EC3FF0756B010E58EC3BF01D0E776FAA
:103058000D0E766F44EC3FF0A1EC40F00101C86F13
:10306800C851FE0A01E122D6C82995E0010EAA6FCF
:103078000101AA5101E12ED6C7C107F4010E0001D2
:10308800926F9E0E916F010E936F1D0E956F010E3C
:10309800946F08C496F0DAEC38F00101C86FC829BB
:1030A80001E179D7C851FE0A01E100D6C8BFD8D5D9
:1030B800C8C108F41A0E816F360E806F1B0E836F1D
:1030C8006E0E826F010E856FB50E846F866B876BEF
:1030D800886B896B8A6BC00E8B6F790E8C6F440E70
:1030E8008D6F8E6B8F6B800E906F3F0E916F6BECB8
:1030F80026F00101C86FC829C1E0C851FE0A01E1E4
:10310800D5D5C8BFADD5B5C1AEF0B6C1AFF0B7C162
:10311800B0F0B8C1B1F08BEC38F0AEC009F4AFC074
:103128000AF4010E0001926FA20E916F010E936FC7
:103138001D0E956F690E946F000E966BDAEC38F0E1
:103148000101C86FC829B6E0C851FE0A01E1AED531
:10315800C8BF86D5C86702D0E9EF18F015EC37F07C
:103168000101C86FC829DDE0C851FE0A01E19ED5FA
:10317800C8BF76D5010E0401046F040E0001736FF9
:10318800040E726F0101C8517AEC40F0CAD71C0EC8
:103198000101816F990E806F010E836FBF0E826FE0
:1031A800846B856B866B876B886B89697F0E8A6FEA
:1031B800470E8B6F0E0E8C6F0E0C336F346B356BA6
:1031C800B40E366F420E376F420C0101916B050E3B
:1031D800F76F906B936B010E926F2AEC3AF01B0E0F
:1031E800776F880E766F44EC3FF005C475F006C41F
:1031F80076F0FDEC3FF0D1DA21EC2BF011D0EFECBA
:103208001BF0B3EC40F00101956F9551030A03E1FF
:10321800FE0E916F7DD295AF03D095C191F178D212
:1032280000013DBEECD72AEC3AF01B0E776FAA0ED0
:10323800766F44EC3FF053C471F054C472F066ECFE
:1032480040F00BD0EFEC1BF0B3EC40F00101956FB0
:103258009551030ADDE095BFE0D700013EB8F2D7EB
:103268000101905103E007C494F1A3D1946BA1D15B
:103278009451020D0B0EF324D96EDA6A040EDA2289
:103288000001DECF75F0DDCF76F0B7EC3EF075C00B
:103298008CF176C08DF177C08EF178C08FF1010185
:1032A8009451020D2F0EF324D96EDA6A040EDA2235
:1032B8000001DECF75F0DDCF76F0FDEC3FF075C094
:1032C80080F176C081F177C082F178C083F18CC13A
:1032D800B7F08DC1B8F08EC1B9F08FC1BAF080C116
:1032E800BBF081C1BCF082C1BDF083C1BEF078ECF7
:1032F8002CF0B7C088F1B8C089F1B9C08AF1BAC05A
:103308008BF10101905101E1B3D02AEC3AF01A0E89
:10331800776F9A0E766F44EC3FF04FDA38EC28F06E
:10332800756B010E58EC3BF004010A51091108E1D4
:103338001B0E0001776F660E766F44EC3FF013D0DA
:103348001D0E0001776F720E766F44EC3FF005DAC0
:1033580038EC28F01D0E776FA70E766F44EC3FF01F
:10336800F1D938EC28F08CC16BF08DC16CF08EC1AE
:103378006DF08FC16EF08EEC40F06BC084F16CC0C4
:1033880085F16DC086F16EC087F184C130F185C1C9
:1033980031F186C132F187C133F188C134F189C175
:1033A80035F18AC136F18BC137F12AEC3FF00CD0E8
:1033B800EFEC1BF0B3EC40F00101956F9551030A57
:1033C80001E126D795BF29D700013DBEF1D72AECE8
:1033D8003AF01B0E776F0C0E766F44EC3FF0EDD988
:1033E80038EC28F0756B010E58EC3BF004010A51DB
:1033F800091108E11B0E0001776F660E766F44EC29
:103408003FF013D01D0E0001776F720E766F44ECFB
:103418003FF0A3D938EC28F01D0E776FA70E766F12
:1034280044EC3FF08FD938EC28F001019451020D9B
:10343800530EF324D96EDA6A040EDA220001DECFC5
:1034480071F0DDCF72F066EC40F00CD0EFEC1BF0C1
:10345800B3EC40F00101956F9551030A01E1D8D60C
:1034680095BFDBD600013EB8F1D701019407A1D082
:103478002AEC3AF01A0E776F9A0E766F44EC3FF00A
:1034880077D938EC28F0756B010E58EC3BF0040145
:103498000A51091108E11B0E0001776F660E766F5D
:1034A80044EC3FF013D01D0E0001776F720E766F5B
:1034B80044EC3FF052D938EC28F01D0E776FA70E78
:1034C800766F44EC3FF03ED938EC28F08CC130F1EF
:1034D8008DC131F18EC132F18FC133F188C134F120
:1034E80089C135F18AC136F18BC137F12AEC3FF039
:1034F8000CD0EFEC1BF0B3EC40F00101956F955147
:10350800030A01E185D695BF88D600013DBEF1D7F3
:103518002AEC3AF01B0E776F0C0E766F44EC3FF0F6
:1035280027D938EC28F0756B010E58EC3BF00401F4
:103538000A51091108E11B0E0001776F660E766FBC
:1035480044EC3FF013D01D0E0001776F720E766FBA
:1035580044EC3FF002D938EC28F01D0E776FA70E27
:10356800766F44EC3FF0EED838EC28F00101D890A3
:1035780094350001E06F550EE025D96EDA6A040E25
:10358800DA22DECF71F0DDCF72F066EC40F00CD0BD
:10359800EFEC1BF0B3EC40F00101956F9551030A75
:1035A80001E136D695BF39D600013EB8F1D7010101
:1035B800942B94BF0BD004010751D880D884010103
:1035C80094AF945DD8A0D88401E152D60401085183
:1035D80007E001019051010ED8A4000E906F87D02A
:1035E8000101906B2AEC3AF01B0E776F1E0E766F76
:1035F80044EC3FF0756B010E58EC3BF004010A51A6
:10360800091108E11B0E0001776F660E766F44EC16
:103618003FF013D01D0E0001776F720E766F44ECE9
:103628003FF09BD838EC28F01D0E776FA70E766F09
:1036380044EC3FF087D838EC28F005C475F006C490
:1036480076F0FDEC3FF0A9D821EC2BF00CD0EFEC94
:103658001BF0B3EC40F00101956F9551030A01E1AD
:10366800D7D595BFDAD500013DBEF1D72AEC3AF09F
:103678001A0E776F4A0E766F44EC3FF0756B010EA9
:1036880058EC3BF004010A51091108E11B0E000136
:10369800776F660E766F44EC3FF013D01D0E000175
:1036A800776F720E766F44EC3FF057D838EC28F0FD
:1036B8001D0E776FA70E766F44EC3FF043D838ECB9
:1036C80028F053C471F054C472F066EC40F00CD08A
:1036D800EFEC1BF0B3EC40F00101956F9551030A34
:1036E80001E196D595BF99D500013EB8F1D70401FF
:1036F8000A51091101E1B4D50101924B932B925162
:103708000401095D0101935104010A5901E3A8D597
:103718003D9E00013C8A2AEC3AF01C0E776FA60EFB
:10372800766F44EC3FF0EFEC1BF03D9E3C8A010EB7
:103738000001916FF40E906FC2EC40F03C9A0101C9
:103748009151120009C479F000010AC47AF07B6B28
:103758007C6B030E7D6F7E6B000C92C179F00001CB
:1037680093C17AF07B6B7C6B030E7D6F7E6B000CD4
:1037780094C1E0F00001E16BE0BFE107E02B000E2F
:10378800E123E0C079F0E1C07AF07ABFFF0E7B6FE9
:103798007C6F020E7D6F7E6B000C75C038F176C0B1
:1037A80039F177C03AF178C03BF101013C6B3D6BD0
:1037B800B40E3E6F420E3F6F420C0101945100015E
:1037C800796F000E79BFFF0E7A6F7B6F7C6F020EE8
:1037D8007D6F7E6B000C3BA808D001017B697B07DD
:1037E80001017B29D8B41200FAD73BBE08D00101E9
:1037F8007B697B0701017B29D8B41200FAD7010144
:10380800F56B010E0001EC6F00013B9E11EC3EF0E0
:103818000101F819D8A4120011EC3EF001017A6FE9
:10382800B0D1F66BD8D9240EDF6EF62B7A5176EC30
:103838003EF07B6BDC0E2BDA76EC3EF012DA7B6521
:10384800F9D77B6BC80E010134DA76EC3EF014DA56
:103858007B65F8D700013D80EBC175F0ECC176F0CF
:10386800EDC177F0EEC178F0EAEC3CF075C07CF180
:1038780076C07DF177C07EF178C07FF13D90B3D9F5
:10388800C8EC3DF001017C5176EC3EF07D5176ECC0
:103898003EF07E5176EC3EF07F5176EC3EF0C9D991
:1038A80010DA0BD0EFC175F0F0C176F0F1C177F006
:1038B800F2C178F076EC3FF0F3D9EFC175F0F0C1C2
:1038C80076F0F1C177F0F2C178F076EC3FF00101C3
:1038D8007F51000178190EE101017E51000177192D
:1038E80009E101017D510001761904E101017C51D2
:1038F80000017519D7E1010E00018A6F7C0EA9D964
:10390800C8EC3DF070D9C8EC3DF001017C5176EC73
:103918003EF07D5176EC3EF07E5176EC3EF07F51E4
:1039280076EC3EF086D900013C8EF3C175F0F4C107
:1039380076F0FDEC3FF072D964D9C8EC3DF0010196
:103948007C5176EC3EF07D5176EC3EF07E5176EC83
:103958003EF07F5176EC3EF06CD9F55176EC3EF0B6
:103968003AD9230EDF6EF62BF6C17BF1F66B7BC1DD
:10397800EDF01200F66B2FD9240EDF6EF62B7A517C
:1039880076EC3EF07B6BDC0E82D976EC3EF069D9A2
:103998007B65F9D77B6BC80E01018BD976EC3EF0BD
:1039A8006BD97B65F8D7F55176EC3EF0D9D73E9ABE
:1039B800010E11D03E9A030E0ED03E9A020E0BD085
:1039C8003E9A040E08D03E9A050E05D000013E9A94
:1039D80011EC3EF000085C6E3E8AC5D0F66BFBD851
:1039E800240EDF6EF62B7A5176EC3EF0F75176EC2A
:1039F8003EF0F75176EC3EF0B3D719EC3CF0EAEC28
:103A08003CF075C07CF176C07DF177C07EF178C05E
:103A18007FF13D90E8D8C8EC3DF07CC16DF07DC1E8
:103A28006EF07EC16FF07FC170F07AC171F0A7EFC0
:103A38003AF047D90BD0EFC175F0F0C176F0F1C17B
:103A480077F0F2C178F076EC3FF02AD9EFC175F043
:103A5800F0C176F0F1C177F0F2C178F076EC3FF082
:103A680001017F51000178190EE101017E51000129
:103A7800771909E101017D510001761904E101017D
:103A88007C5100017519D7E1010E00018A6F7C0E87
:103A9800E0D8C8EC3DF0A7D8C8EC3DF0BED700018F
:103AA8003C8EF3C175F0F4C176F0FDEC3FF0B6D86A
:103AB800A8D8C8EC3DF0B1D711EC3EF00101006F79
:103AC800040E006501D02ED0010E0001726F010EA8
:103AD800716F0101005152EC40F00101F66B000ECC
:103AE800F625D96EDA6A060EDA22240EDF6EF62B78
:103AF8007A5176EC3EF07B6BA5D8DF5076EC3EF041
:103B0800A1D8DF50F5277B2B780E7B65F5D7F551CB
:103B180076EC3EF025D711EC3EF00101006F040E63
:103B2800006502D0010E24D00051F5277B6B11EC03
:103B38003EF08F6F010186D88FC0DFFF83D8DF503A
:103B4800F5277B2B780E7B65F2D711EC3EF001014F
:103B5800F5190DE1010E0001736F010E726F01017D
:103B680000517AEC40F001017A51BBEF3FF0FA0EB8
:103B780000016D6F02D000016D6901017A5110EFEB
:103B88003FF07A51010AC7E0030A96E0120A01E100
:103B9800F1D6010A01E10BD7030A01E10ED7010AA8
:103BA80001E108D7070A01E10BD7010A01E10BD7A8
:103BB800030A01E122D7010A01E13BD70F0A01E11B
:103BC8006ED7010A01E102D7030A01E107D7010A0A
:103BD80001E127D6D0D7000E0101F625D96EDA6AA1
:103BE800060EDA221200010E00018A6F7C0E896F20
:103BF800FBC38BF0FCC38CF0FDC38DF0FEC38EF0CD
:103C0800120000018A6F7C0E896FE2C38BF0E3C358
:103C18008CF0E4C38DF0E5C38EF0120075C07CF122
:103C280076C07DF177C07EF178C07FF13C9E010EB1
:103C380012007C51F5277D51F5277E51F5277F51DC
:103C4800F5271200010E7B25D96EDA6A010EDA22F9
:103C58001200896F8B6B8C6BFA0E8D6F370E8E6F1F
:103C6800370CDC0E01017B25D96EDA6A050EDA22E3
:103C7800DF50F5277B2B130CC80E01017B25D96E6D
:103C8800DA6A050EDA22DF50F5277B2B130C0101C7
:103C98007B25D96EDA6A0501050EDA22DF5012009B
:103CA80075C07CF176C07DF177C07EF178C07FF178
:103CB80012007B25D96EDA6A0501050EDA22DF507B
:103CC80012007C6B7D6B7E6B7F6B120082C1D9FF0B
:103CD80083C1DAFF0001DECFE1F0DECFE2F0DECF14
:103CE800E3F0DECFE4F0E1C0B8F0E2C0B9F0E3C041
:103CF800BAF0E4C0BBF0000EBD6FDF0EBC6F000E63
:103D0800BF6FDE0EBE6F000EC16FDD0EC06F000EFE
:103D1800C36FDB0EC26FE1EC30F001018CB702D04B
:103D28000001DF6B01018CB502D00001DE6B0101DF
:103D38008CB302D00001DD6B01018CB103D000010E
:103D4800DB6BDC6BDEC08FF0DDC090F0DBC091F088
:103D5800DCC092F00001DF51B5EC33F08FC0E1F028
:103D680090C0E2F091C0E3F092C0E4F0A3D9C4ECB3
:103D78003CF001E2B0D98DD9C4EC3CF001E2B4D9F1
:103D880001018CA75BD02AEC3AF080C176F081C1A2
:103D980077F044EC3FF01D0E776FB20E766F44EC6F
:103DA8003FF0756B010E58EC3BF0190E776FE20E81
:103DB800766F44EC3FF0756B010E58EC3BF0E1C0B8
:103DC800D0F0E2C0D1F0E3C0D2F0E4C0D3F08CC1AF
:103DD800D4F0080ED56F44EC34F0D1EC3FF0E06F2E
:103DE800E0AF20D0E0511200FF0CFE0C896B8A6B0B
:103DF800610E8B6F450E8C6FE10E59EC3DF049D981
:103E0800C4EC3CF0D8E270D9D6D777D9610EA46F4C
:103E1800450EA56FA3EC3DF04DD9C4EC3CF0CBE2C8
:103E28005AD9C9D7E051010A09E0030ADDE0010ABD
:103E3800DCE0070ADBE0010AE8E0BDD701018CA558
:103E480059D02AEC3AF080C176F081C177F044EC81
:103E58003FF01D0E776FB60E766F44EC3FF0756B32
:103E6800010E58EC3BF0190E776FE20E766F44ECBA
:103E78003FF0756B010E58EC3BF0E1C0D0F0E2C0AA
:103E8800D1F0E3C0D2F0E4C0D3F08CC1D4F0040E7A
:103E9800D56F44EC34F0D1EC3FF0E06FE0BFA2D72F
:103EA8001CD0896B8A6B700E8B6F420E8C6FE10E83
:103EB80059EC3DF0EED8C4EC3CF0DBE215D9D9D78B
:103EC8001CD9700EA46F420EA56FA3EC3DF0F2D87A
:103ED800C4EC3CF0CEE2FFD8CCD7E051010A0AE0AE
:103EE800030A01E14DD7010A80E0070ADAE0010A76
:103EF800E7E0BFD701018CA35AD02AEC3AF080C181
:103F080076F081C177F044EC3FF01D0E776FBA0E62
:103F1800766F44EC3FF0756B010E58EC3BF0190ED0
:103F2800776FE20E766F44EC3FF0756B010E58EC3C
:103F38003BF0E1C0D0F0E2C0D1F0E3C0D2F0E4C081
:103F4800D3F08CC1D4F0020ED56F44EC34F0D1EC30
:103F58003FF0E06FE0BF46D71CD0896B8A6B800EBC
:103F68008B6F3F0E8C6FE10E59EC3DF092D8C4EC8C
:103F78003CF0DBE2B9D8D9D7C0D8800EA46F3F0E89
:103F8800A56FA3EC3DF096D8C4EC3CF0CEE2A3D8E4
:103F9800CCD7E051010A0BE0030A01E14FD7010A2F
:103FA80001E123D7070AD9E0010AE6E0BED70101FB
:103FB8008CA161D02AEC3AF080C176F081C177F00B
:103FC80044EC3FF01D0E776FAD0E766F44EC3FF07A
:103FD800756B010E58EC3BF0190E776FE20E766F99
:103FE80044EC3FF0756B010E58EC3BF0E1C0D0F0AB
:103FF800E2C0D1F0E3C0D2F0E4C0D3F08CC1D4F079
:10400800010ED56F44EC34F0D1EC3FF0E06FE0BF27
:10401800E9D623D0CD0E896FCC0E8A6F8B6F3D0EFB
:104028008C6FE10E59EC3DF034D8C4EC3CF0DAE288
:104038005BD8D8D7000EA16FE10EA06FCD0EA26F8E
:10404800CC0EA36FA46F3D0EA56FA3EC3DF032D844
:10405800C4EC3CF0C7E23FD8C5D7E051010A0BE0F9
:10406800030A01E147D7010A01E1BFD6070AD2E0F6
:10407800010AE0E0B7D782C1D9FF83C1DAFF0001A6
:10408800E1C0DEFFE2C0DEFFE3C0DEFFE4C0DEFF2A
:10409800000C88C189F089C18AF08AC18BF08BC174
:1040A8008CF0E1C08DF0E2C08EF0E3C08FF0E4C088
:1040B80090F01200E1C089F0E2C08AF0E3C08BF012
:1040C800E4C08CF084C18DF085C18EF086C18FF07C
:1040D80087C190F0120084C1E1F085C1E2F086C189
:1040E800E3F087C1E4F0120088C1E1F089C1E2F091
:1040F8008AC1E3F08BC1E4F01200000EA16FE10E5B
:10410800A06FA26BA36B120000013DBEFF0C000163
:10411800BFAF13D0BCC06BF0BDC06CF0BEC06DF0BB
:10412800BFC06EF08EEC40F06BC01CF16CC01DF18E
:104138006DC01EF16EC01FF108D0BCC01CF1BDC01F
:104148001DF1BEC01EF1BFC01FF1C3AF13D0C0C068
:104158006BF0C1C06CF0C2C06DF0C3C06EF08EECE5
:1041680040F06BC024F16CC025F16DC026F16EC023
:1041780027F108D0C0C024F1C1C025F1C2C026F182
:10418800C3C027F1B8C07EF0B9C07FF0BAC080F0D4
:10419800BBC081F0F7C37AF0F8C37BF0F9C37CF0B9
:1041A800FAC37DF0AEEC36F07AC0AEF07BC0AFF06B
:1041B8007CC0B0F07DC0B1F08BEC38F0AEC014F12B
:1041C800AFC015F1B0C016F1B1C017F10101175118
:1041D80014111511161101E1000C3D80EBC110F10D
:1041E800ECC111F1EDC112F1EEC113F13D900101E5
:1041F800145110250301CC6F010115511121030140
:10420800CD6F0101165112210301CE6F0101175123
:1042180013210301CF6F10C147F011C148F012C13B
:1042280049F013C14AF00001BBAF15D0B8C06BF01C
:10423800B9C06CF0BAC06DF0BBC06EF08EEC40F047
:104248006BC028F16CC029F16DC02AF16EC02BF14A
:1042580000013E800AD0B8C028F1B9C029F1BAC01F
:104268002AF1BBC02BF100013E901CC189F01DC191
:104278008AF01EC18BF01FC18CF024C18DF025C1BE
:104288008EF026C18FF027C190F030EC38F089C04D
:1042980018F18AC019F18BC01AF18CC01BF118C132
:1042A8007EF019C17FF01AC180F01BC181F024C1D2
:1042B8007AF025C17BF026C17CF027C17DF0AEECF9
:1042C80036F07AC02CF17BC02DF17CC02EF17DC078
:1042D8002FF118C17EF019C17FF01AC180F01BC1FF
:1042E80081F02CC17AF02DC17BF02EC17CF02FC15A
:1042F8007DF0AEEC36F07AC00CF17BC00DF17CC0DD
:104308000EF17DC00FF10CC17AF00DC17BF00EC12A
:104318007CF00FC17DF07E6B7F6B806B3F0E816FF1
:10432800AEEC36F07AC020F17BC021F17CC022F1DE
:104338007DC023F128C189F029C18AF02AC18BF0F8
:104348002BC18CF07E6B7F6B806B400E816F20C120
:104358007AF021C17BF022C17CF023C17DF0AEEC64
:1043680036F07AC08DF07BC08EF07CC08FF07DC0B7
:1043780090F0C4EC3CF017E228C189F029C18AF01A
:104388002AC18BF02BC18CF08D6B8E6B8F6B400E1E
:10439800906F30EC38F089C020F18AC021F18BC0D1
:1043A80022F18CC023F120C19CF021C19DF022C1D3
:1043B8009EF023C19FF028C198F029C199F02AC125
:1043C8009AF02BC19BF0F3EC3EF098C07AF099C0BC
:1043D8007BF09AC07CF09BC07DF0F7C37EF0F8C3F9
:1043E8007FF0F9C380F0FAC381F0AEEC36F07AC002
:1043F80000F17BC001F17CC002F17DC003F100C176
:10440800AEF001C1AFF002C1B0F003C1B1F08BEC66
:1044180038F0AEC0C8F3AFC0C9F3B0C0CAF3B1C07A
:10442800CBF324C17EF025C17FF026C180F027C1DF
:1044380081F0F7C37AF0F8C37BF0F9C37CF0FAC3D4
:104448007DF0AEEC36F060D8BD0E7E6F370E7F6F14
:10445800860E806F420E816FAEEC36F07AC004F1A2
:104468007BC005F17CC006F17DC007F104C1AEF048
:1044780005C1AFF006C1B0F007C1B1F08BEC38F060
:10448800AEC03FF0AFC040F0B0C041F0B1C042F0A4
:104498001CC17EF01DC17FF01EC180F01FC181F0DC
:1044A800F7C37AF0F8C37BF0F9C37CF0FAC37DF068
:1044B800AEEC36F029D86F0E7E6F120E7F6F030EAA
:1044C800806F470E816FAEEC36F07AC008F17BC082
:1044D80009F17CC00AF17DC00BF108C1AEF009C139
:1044E800AFF00AC1B0F00BC1B1F08BEC38F0AEC040
:1044F80043F0AFC044F0B0C045F0B1C046F03BEC6B
:1045080024F000013D8E000C7AC02CF17BC02DF107
:104518007CC02EF17DC02FF12CC17AF02DC17BF02B
:104528002EC17CF02FC17DF01200060E0101F76F3D
:104538000001CD6BCE6BCF6BD06BD9D9620E7E6F7D
:10454800BE0E7F6F3C0E806F460E816FF7C37AF008
:10455800F8C37BF0F9C37CF0FAC37DF0AEEC36F01B
:104568007AC0AEF07BC0AFF07CC0B0F07DC0B1F0D7
:104578008BEC38F0AEC03FF0AFC040F0B0C041F0B7
:10458800B1C042F074D93C9A3D9E3E8400013E84FD
:10459800B3EC40F02AEC3AF01C0E776F270E766FDA
:1045A80044EC3FF0756B010E58EC3BF01A0E776F38
:1045B800D30E766F44EC3FF0B3EC40F0CC6FCC51A7
:1045C800030A03E1FE0EC76F31D1CC51020A02E1A2
:1045D800C7692CD1CC0504E1CD6BCE6BCF6BD06B0A
:1045E800CC51040A31E198D9E8EC39F08EEC3FF06F
:1045F80075C07AF076C07BF077C07CF078C07DF02B
:10460800AEEC36F07AC089F07BC08AF07CC08BF0C3
:104618007DC08CF0CD0E59EC3DF0896B8A6BB40EE1
:104628008B6F420E8C6FCDC08DF0CEC08EF0CFC098
:104638008FF0D0C090F0C4EC3CF006E2CD6BCE6BAE
:10464800B40ECF6F420ED06FCC51050A34E1000E84
:10465800A16FCD0EA06F60D9E8EC39F08EEC3FF079
:1046680075C07AF076C07BF077C07CF078C07DF0BA
:10467800AEEC36F07AC0A2F07BC0A3F07CC0A4F008
:104688007DC0A5F0A3EC3DF0CDC089F0CEC08AF086
:10469800CFC08BF0D0C08CF08D6B8E6BB40E8F6F4B
:1046A800C20E906FC4EC3CF006E2CD6BCE6BB40E3C
:1046B800CF6FC20ED06FCCAF03D0CCC0C7F0B6D08E
:1046C800060E756F010E58EC3BF0CDC0B8F0CEC0A9
:1046D800B9F0CFC0BAF0D0C0BBF0020EBC6FBD6F4E
:1046E800010EBE6FDCEC2EF03EA052D00001D0AF20
:1046F80031D0F7C37EF0F8C37FF0F9C380F0FAC376
:1047080081F0CDC06BF0CEC06CF0CFC06DF0D0C0E2
:104718006EF08EEC40F06BC07AF06CC07BF06DC030
:104728007CF06EC07DF0AEEC36F0B4D8AEEC36F06E
:104738007AC0AEF07BC0AFF07CC0B0F07DC0B1F005
:104748008BEC38F0DFD802D0EFEC1BF000013CA274
:104758006AD0FAD7000EBED8C4EC3CF010E2010EC5
:10476800B2D802D0EFEC1BF000013CB2FBD700013D
:104778003CB059D03E943E947AD83E9047D0010E32
:10478800A2D802D0EFEC1BF000013CA24CD0FAD723
:10479800000E00019FD8C4EC3CF027E2CDC07EF0AB
:1047A800CEC07FF0CFC080F0D0C081F0F7C37AF0E0
:1047B800F8C37BF0F9C37CF0FAC37DF0AEEC36F0B9
:1047C80069D8AEEC36F07AC0AEF07BC0AFF07CC0F2
:1047D800B0F07DC0B1F08BEC38F094D802D0EFEC9B
:1047E8001BF000013CA21FD0FAD7D0AF14D0010EA5
:1047F8006AD802D0EFEC1BF000013CB2FBD70001F5
:104808003CB011D03E943E9432D83E8070D83E845D
:1048180000013E8408D0010E56D802D0EFEC1BF000
:1048280000013CB2FBD7EFEC1BF0C6D62AEC3AF0FD
:104838001C0E776FA60E766F44EC3FF0010E030155
:10484800D06F000ED16FD26FD36F3C8202D0EFECE5
:104858001BF000013CB2FBD700013CB005D03E94F0
:104868003E940001C7511200EFEC1BF0E7D74B6AEA
:104878004C6A4D6A4E6A0101EF6BF06BF16BF26B9B
:104888000201C86BC96BCA6BCB6BCC6BCD6BCE6BA3
:10489800CF6B12007AC0C8F07BC0C9F07CC0CAF0E8
:1048A8007DC0CBF06F0E7E6F120E7F6F030E806F90
:1048B800470E816FC8C07AF0C9C07BF0CAC07CF0CF
:1048C800CBC07DF0470C0301D06FD16BD26BD36B9B
:1048D8003C82000C896B8A6B8B6B8C6BCDC08DF026
:1048E800CEC08EF0CFC08FF0D0C090F012003D80C7
:1048F800EBC147F0ECC148F0EDC149F0EEC14AF018
:104908003D901200AEC0D0F3AFC0D1F3B0C0D2F327
:10491800B1C0D3F33C821200CD0E7E6FCC0E7F6FF8
:104928004C0E806F3D0E816F3D0C01018C6B030EA8
:10493800F76F3C8A3D9E00013E94EFEC1BF00001AE
:104948003C9A2AEC3AF01B0E776F880E766F44EC8F
:104958003FF07EC475F07FC476F0FDEC3FF075C083
:1049680095F176C096F177C097F178C098F195C126
:1049780038F196C139F197C13AF198C13BF101017B
:104988003C6B3D6BB40E3E6F420E3F6F21EC2BF03B
:1049980011D0EFEC1BF0B3EC40F001019D6F9D517D
:1049A800030A03E1FE0E8C6F78D19DAF03D09DC141
:1049B8008CF173D100013DBEECD786C47AF087C470
:1049C8007BF088C47CF089C47DF000017E6B7F6B2E
:1049D800B40E806F430E816FAEEC36F07AC091F161
:1049E8007BC092F17CC093F17DC094F104018051A9
:1049F800020A08E10101916B4E0E926FED0E936F62
:104A08004A0E946F0401816712D091C16BF092C174
:104A18006CF093C16DF094C16EF08EEC40F06BC0F9
:104A280091F16CC092F16DC093F16EC094F119ECE4
:104A38003CF0EAEC3CF075C095F176C096F177C091
:104A480097F178C098F13D90010E00018A6F950E9C
:104A5800896FFBC38BF0FCC38CF0FDC38DF0FEC3E4
:104A68008EF0C8EC3DF095C175F096C176F097C10F
:104A780077F098C178F091C179F092C17AF093C13A
:104A88007BF094C17CF06CEC32F075C080F176C09C
:104A980081F177C082F178C083F12AEC3AF01A0EDE
:104AA800776F0C0E766F44EC3FF004018051020AD8
:104AB80012E12AEC3AF01C0E776F090E766F44EC7F
:104AC8003FF0756B010E58EC3BF01B0E776F540EE0
:104AD800766F44EC3FF00001896B8A6B800E8B6F18
:104AE8003F0E8C6F8EC48DF08FC48EF090C48FF003
:104AF80091C490F030EC38F089C088F18AC089F10F
:104B08008BC08AF18CC08BF1B3EC40F091C130F1CD
:104B180092C131F193C132F194C133F18EC434F1B1
:104B28008FC435F190C436F191C437F12AEC3FF0C7
:104B3800B2D019EC3CF0EAEC3CF075C08DF176C0CF
:104B48008EF177C08FF178C090F13D90010E000191
:104B58008A6F8D0E896FFBC38BF0FCC38CF0FDC38D
:104B68008DF0FEC38EF0C8EC3DF080C198F081C195
:104B780099F082C19AF083C19BF08DC19CF08EC1DF
:104B88009DF08FC19EF090C19FF0F3EC3EF098C06D
:104B980099F199C09AF19AC09BF19BC09CF10101CF
:104BA8009CAF12D099C16BF09AC16CF09BC16DF0AB
:104BB8009CC16EF08EEC40F06BC099F16CC09AF11C
:104BC8006DC09BF16EC09CF199C17AF09AC17BF0DF
:104BD8009BC17CF09CC17DF088C17EF089C17FF0CB
:104BE8008AC180F08BC181F0AEEC36F07AC084F1D6
:104BF8007BC085F17CC086F17DC087F1010E000184
:104C08008A6F990E896F1B0E8B6F0F0E8C6F360E85
:104C18008D6F3B0E8E6FC8EC3DF004018051020A87
:104C28002EE00B0E0001756F000E58EC3BF084C1AE
:104C3800D0F085C1D1F086C1D2F087C1D3F00E0E75
:104C4800D46F000ED56B44EC34F0756B010E58EC44
:104C58003BF099C1B8F09AC1B9F09BC1BAF09CC1B8
:104C6800BBF0050EBC6F020EBD6F000EBE6BDCEC18
:104C78002EF01C0E776FCD0E766F44EC3FF0B3EC40
:104C880040F001019D6F9D51030A01E18BD69DBF44
:104C98008ED6EFEC1BF03DBE4CD73D9E00013C8A02
:104CA8002AEC3AF01C0E776FA60E766F44EC3FF0B4
:104CB800EFEC1BF03D9E3C8A010E0001916FF40E53
:104CC800906FC2EC40F03C9A01018C511200000137
:104CD800756B766B010EC1EC3BF08AC189F08BC114
:104CE8008AF08CC18BF08DC18CF08D6B400E8E6F6D
:104CF8001C0E8F6F460E906FC4EC3CF012E2896B6D
:104D0800400E8A6F1C0E8B6FC60E8C6F86C18DF09D
:104D180087C18EF088C18FF089C190F0C4EC3CF057
:104D280002E3050E4FD086D97A0E8F6F440E906F2E
:104D3800C4EC3CF011E2896B8A6B7A0E8B6FC40E5F
:104D48008C6F86C18DF087C18EF088C18FF089C1C4
:104D580090F0C4EC3CF002E3040E34D06BD9C80EDA
:104D68008F6F420E906FC4EC3CF011E2896B8A6B36
:104D7800C80E8B6FC20E8C6F86C18DF087C18EF006
:104D880088C18FF089C190F0C4EC3CF002E3030EB7
:104D980019D050D9200E8F6F410E906FC4EC3CF0A3
:104DA80010E2896B8A6B200E8B6FC10E8C6F86C1E7
:104DB8008DF087C18EF088C18FF089C190F0C4EC66
:104DC8003CF0020EC76F8EC189F08FC18AF090C186
:104DD8008BF091C18CF08D6B8E6B800E8F6F3F0EB8
:104DE800906FC4EC3CF002E3C86B53D08EC189F0DD
:104DF8008FC18AF090C18BF091C18CF0CD0E8D6F70
:104E0800CC0E8E6F8F6F3D0E906FC4EC3CF002E3BA
:104E1800010E3ED08EC189F08FC18AF090C18BF00F
:104E280091C18CF00A0E8D6FD70E8E6F230E8F6F87
:104E38003C0E906FC4EC3CF002E3020E29D08EC108
:104E480089F08FC18AF090C18BF091C18CF06F0E00
:104E58008D6F120E8E6F830E8F6F3A0E906FC4ECAB
:104E68003CF002E3030E14D08EC189F08FC18AF0A2
:104E780090C18BF091C18CF0170E8D6FB70E8E6FAD
:104E8800D10E8F6F380E906FC4EC3CF002E3040E25
:104E9800C86F84C1D9FF85C1DAFFDECFCAF0DECF83
:104EA800CBF0DECFCCF0DECFCDF02AEC3AF080C1EB
:104EB80076F081C177F044EC3FF0756B010E58EC49
:104EC8003BF0C3D8DCEC2EF082C176F083C177F0DA
:104ED80044EC3FF0756B010E58EC3BF0B6D8DCECB7
:104EE8002EF0D1EC3FF0C96FC9AF94D0C951120070
:104EF80084C1D9FF85C1DAFFCAC0DEFFCBC0DEFF9F
:104F0800CCC0DEFFCDC0DEFF756B766B010EC1EC49
:104F18003BF0000CFE0CFF0C8EC17EF08FC17FF0C1
:104F280090C180F091C181F0E8EC39F08EEC3FF04F
:104F380075C07AF076C07BF077C07CF078C07DF0E1
:104F4800AEEC36F07AC089F07BC08AF07CC08BF07A
:104F58007DC08CF0CA0E59EC3DF08AC189F08BC136
:104F68008AF08CC18BF08DC18CF0CAC08DF0CBC09B
:104F78008EF0CCC08FF0CDC090F0C4EC3CF0AAE22B
:104F88008AC1CAF08BC1CBF08CC1CCF08DC1CDF0F9
:104F9800A1D7000EA16FCA0EA06F8EC17EF08FC17F
:104FA8007FF090C180F091C181F0E8EC39F08EEC8F
:104FB8003FF075C07AF076C07BF077C07CF078C09F
:104FC8007DF0AEEC36F07AC0A2F07BC0A3F07CC0D6
:104FD800A4F07DC0A5F0A3EC3DF0CAC089F0CBC019
:104FE8008AF0CCC08BF0CDC08CF086C18DF087C123
:104FF8008EF088C18FF089C190F0C4EC3CF001E3D9
:1050080069D786C1CAF087C1CBF088C1CCF089C105
:10501800CDF060D7C951010A01E16AD7030A01E15D
:105028007AD7010A01E176D7070A01E175D7010AA3
:10503800B0E050D78AC189F08BC18AF08CC18BF05F
:105048008DC18CF08D6B8E6B1200CAC0B8F0CBC0CE
:10505800B9F0CCC0BAF0CDC0BBF0C7C0BCF0C8C076
:10506800BDF0010EBE6F010C7CAF0DD02D0EA6EC6D
:1050780039F0796D7A1FD8B07A2B7B1FD8B07B2B8B
:10508800000E7C5705D07E5103E02B0EA6EC39F0BC
:1050980079C06BF07AC06CF07BC06DF07CC06EF0AC
:1050A8006F6BCA0E706F9A0E716F3B0E726F74EC55
:1050B80037F033D96F6BCA0E706F9A0E716F3B0E53
:1050C800726F9EEC3CF03AD9090E7D6503D07F5192
:1050D800A6EC39F079C06BF07AC06CF07BC06DF04B
:1050E8007CC06EF06F6BE10E706FF50E716F050E80
:1050F800726F74EC37F011D96F6BE10E706FF50EAB
:10510800716F050E726F9EEC3CF018D9080E7D6524
:1051180003D07F51A6EC39F079C06BF07AC06CF0FF
:105128007BC06DF07CC06EF0800E6F6F960E706F56
:10513800980E716F000E726B74EC37F0EED8800E1B
:105148006F6F960E706F980E716F000E726B9EECFB
:105158003CF0F4D8070E7D6503D07F51A6EC39F0FA
:1051680079C06BF07AC06CF07BC06DF07CC06EF0DB
:10517800400E6F6F420E706F0F0E716F000E726BE4
:1051880074EC37F0CAD8400E6F6F420E706F0F0E76
:10519800716F000E726B9EEC3CF0D0D8060E7D65E8
:1051A80003D07F51A6EC39F079C06BF07AC06CF06F
:1051B8007BC06DF07CC06EF0A00E6F6F860E706FB6
:1051C800010E716F000E726B74EC37F0A6D8A00E4A
:1051D8006F6F860E706F010E716F000E726B9EEC12
:1051E8003CF0ACD8050E7D6503D07F51A6EC39F0B4
:1051F80079C06BF07AC06CF07BC06DF07CC06EF04B
:10520800100E6F6F270E706F000E716B726B74EC5F
:1052180037F083D8100E6F6F270E706F000E716B0A
:10522800726B9EEC3CF08AD8040E7D6503D07F51EA
:10523800A6EC39F079C06BF07AC06CF07BC06DF0E9
:105248007CC06EF0E80E6F6F030E706F000E716B0E
:10525800726B74EC37F061D8E80E6F6F030E706FE5
:10526800000E716B726B9EEC3CF068D8030E7D6586
:1052780003D07F51A6EC39F079C06BF07AC06CF09E
:105288007BC06DF07CC06EF0640E6F6F000E706BAB
:10529800716B726B74EC37F040D8640E6F6F000E50
:1052A800706B716B726B9EEC3CF048D8020E7D659A
:1052B80003D07F51A6EC39F079C06BF07AC06CF05E
:1052C8007BC06DF07CC06EF00A0E6F6F000E706BC5
:1052D800716B726B74EC37F020D80A0E6F6F000E8A
:1052E800706B716B726B9EEC3CF028D8010E7D657B
:1052F80003D07F51A6EC39F079C07FF07AC080F0F6
:105308007BC081F07CC082F0300E7F27000E8023A6
:10531800812382237F51A6EF39F06BC07FF06CC0E8
:1053280080F06DC081F06EC082F07FC06BF080C0ED
:105338006CF081C06DF082C06EF012006B51795F25
:105348006C517A5B6D517B5B6E517C5B300E7F27B5
:10535800000E802381238223000C0001BAAF13D0F2
:10536800B7C06BF0B8C06CF0B9C06DF0BAC06EF0E1
:105378008EEC40F06BC0DBF06CC0DCF06DC0DDF093
:105388006EC0DEF008D0B7C0DBF0B8C0DCF0B9C042
:10539800DDF0BAC0DEF0DBC07AF0DCC07BF0DDC047
:1053A8007CF0DEC07DF07E6B7F6B806B3F0E816F83
:1053B800AEEC36F07AC0BBF07BC0BCF07CC0BDF070
:1053C8007DC0BEF0EDC389F0EEC38AF0EFC38BF069
:1053D800F0C38CF0E9C38DF0EAC38EF0EBC38FF015
:1053E800ECC390F030EC38F089C0DFF08AC0E0F010
:1053F8008BC0E1F08CC0E2F00FD9AEEC36F0DDD80E
:10540800AEEC36F0F3D8AEEC36F07AC0CBF07BC019
:10541800CCF07CC0CDF07DC0CEF0BBC089F0BCC064
:105428008AF0BDC08BF0BEC08CF0CBC08DF0CCC074
:105438008EF0CDC08FF0CEC090F0C4EC3CF035E2D9
:10544800DBC089F0DCC08AF0DDC08BF0DEC08CF0F8
:10545800E9C38DF0EAC38EF0EBC38FF0ECC390F094
:1054680030EC38F089C0A6F08AC0A7F08BC0A8F04D
:105478008CC0A9F01AEC33F0A6C0DFF0A7C0E0F0AA
:10548800A8C0E1F0A9C0E2F0C7D8AEEC36F095D8D4
:10549800AEEC36F0ABD8AEEC36F07AC0CBF07BC0D1
:1054A800CCF07CC0CDF07DC0CEF0E9C37AF0EAC381
:1054B8007BF0EBC37CF0ECC37DF0DFC07EF0E0C096
:1054C8007FF0E1C080F0E2C081F0AEEC36F07AC047
:1054D800BFF07BC0C0F07CC0C1F07DC0C2F0DBC0B3
:1054E80098F0DCC099F0DDC09AF0DEC09BF07E6BCE
:1054F8007F6B806B400E816FCBC07AF0CCC07BF0A5
:10550800CDC07CF0CEC07DF0AEEC36F07AC09CF019
:105518007BC09DF07CC09EF07DC09FF0F3EC3EF018
:1055280098C0C3F099C0C4F09AC0C5F09BC0C6F03B
:10553800C3C089F0C4C08AF0C5C08BF0C6C08CF067
:10554800BFC08DF0C0C08EF0C1C08FF0C2C090F057
:1055580030EC38F089C0C7F08AC0C8F08BC0C9F0F9
:105568008CC0CAF0DFC07AF0E0C07BF0E1C07CF00C
:10557800E2C07DF07E6B7F6B806B400E816FAEEC7E
:1055880036F07AC0D7F07BC0D8F07CC0D9F07DC0A7
:10559800DAF0C7C089F0C8C08AF0C9C08BF0CAC0A9
:1055A8008CF0D70E59EC3DF0D7C0B7F0D8C0B8F0A2
:1055B800D9C0B9F0DAC0BAF012007AC0CFF07BC017
:1055C800D0F07CC0D1F07DC0D2F0DFC07EF0E0C06A
:1055D8007FF0E1C080F0E2C081F0CFC07AF0D0C0A7
:1055E8007BF0D1C07CF0D2C07DF012007AC0D3F03D
:1055F8007BC0D4F07CC0D5F07DC0D6F0D3C07AF0A3
:10560800D4C07BF0D5C07CF0D6C07DF07E6B7F6BBC
:10561800806B3F0E816F3F0CDFC07EF0E0C07FF0F3
:10562800E1C080F0E2C081F0E9C37AF0EAC37BF020
:10563800EBC37CF0ECC37DF012003FAF13D03CC14C
:105648006BF03DC16CF03EC16DF03FC16EF08EEC69
:1056580040F06BC0C8F06CC0C9F06DC0CAF06EC035
:10566800CBF008D03CC1C8F03DC1C9F03EC1CAF07A
:105678003FC1CBF001013BAF22D038C1DCF039C1CA
:10568800DDF03AC1DEF03BC1DFF003D01ED959ECA2
:105698003DF0DCC089F0DDC08AF0DEC08BF0DFC0F1
:1056A8008CF000018D6B8E6BB40E8F6FC30E906FF4
:1056B800C4EC3CF0EBE309D959EC3DF027D038C1F4
:1056C800DCF039C1DDF03AC1DEF03BC1DFF00CD0CF
:1056D800000EA16FDC0EA06FA26BA36BB40EA46FBB
:1056E800430EA56FA3EC3DF00001896B8A6BB40EE5
:1056F8008B6F430E8C6FDCC08DF0DDC08EF0DEC08A
:105708008FF0DFC090F0C4EC3CF0E2E3C8EC35F079
:10571800A6C0D8F0A7C0D9F0A8C0DAF0A9C0DBF0BD
:10572800D8C089F0D9C08AF0DAC08BF0DBC08CF021
:10573800DCC08DF0DDC08EF0DEC08FF0DFC090F0F1
:10574800C4EC3CF039E2DCC098F0DDC099F0DEC072
:105758009AF0DFC09BF0D8C09CF0D9C09DF0DAC0A9
:105768009EF0DBC09FF0F3EC3EF098C0CCF099C0FF
:10577800CDF09AC0CEF09BC0CFF0DCC09CF0DDC06D
:105788009DF0DEC09EF0DFC09FF0A7D8F3EC3EF09E
:105798008BD8D8C079F0D9C07AF0DAC07BF0DBC0FA
:1057A8007CF06CEC32F075C0D0F076C0D1F077C0E8
:1057B800D2F078C0D3F038D0D8C09CF0D9C09DF0D2
:1057C800DAC09EF0DBC09FF088D8F3EC3EF06CD8CE
:1057D800DCC079F0DDC07AF0DEC07BF0DFC07CF0A1
:1057E8006CEC32F075C0CCF076C0CDF077C0CEF05E
:1057F80078C0CFF0D8C098F0D9C099F0DAC09AF044
:10580800DBC09BF0DCC09CF0DDC09DF0DEC09EF0EC
:10581800DFC09FF0F3EC3EF098C0D0F099C0D1F013
:105828009AC0D2F09BC0D3F0CCC089F0CDC08AF02A
:10583800CEC08BF0CFC08CF0D0C08DF0D1C08EF030
:10584800D2C08FF0D3C090F0C4EC3CF009E2CCC0D9
:1058580030F1CDC031F1CEC032F1CFC033F11AD022
:10586800D0C06BF0D1C06CF0D2C06DF0D3C06EF078
:105878008EEC40F06BC0C4F06CC0C5F06DC0C6F0D3
:105888006EC0C7F0C4C030F1C5C031F1C6C032F136
:10589800C7C033F1C8C034F1C9C035F1CAC036F148
:1058A800CBC037F12AEF3FF098C0D4F099C0D5F0BB
:1058B8009AC0D6F09BC0D7F0D4C075F0D5C076F0AA
:1058C800D6C077F0D7C078F01200896B8A6BB40E17
:1058D8008B6F430E8C6FDC0E1200986B996BB40EB5
:1058E8009A6F430E9B6F430CBAAF08D0B7C07AF0DB
:1058F80023D9BF0E816FAEEC36F007D0B7C07AF06F
:105908001BD93F0E816FAEEC36F07AC0CFF07BC06A
:10591800D0F07CC0D1F07DC0D2F0BEAF08D0BBC003
:105928007AF000D9BF0E816FAEEC36F007D0BBC05D
:105938007AF0F8D83F0E816FAEEC36F07AC0D3F02B
:105948007BC0D4F07CC0D5F07DC0D6F0896B8A6B63
:10595800800E8B6F450E8C6FD3C08DF0D4C08EF047
:10596800D5C08FF0D6C090F0C4EC3CF01BE2CFC09D
:1059780089F0D0C08AF0D1C08BF0D2C08CF0D3C0EF
:105988008DF0D4C08EF0D5C08FF0D6C090F030EC3A
:1059980038F089C0B7F08AC0B8F08BC0B9F08CC0B5
:1059A800BAF01200D3C07EF0D4C07FF0D5C080F02A
:1059B800D6C081F0D3C07AF0D4C07BF0D5C07CF0DB
:1059C800D6C07DF0AEEC36F07AC098F07BC099F086
:1059D8007CC09AF07DC09BF0E9C38DF0EAC38EF0DD
:1059E800EBC38FF0ECC390F07E6B7F6B806B400E47
:1059F800816FCFC07AF0D0C07BF0D1C07CF0D2C02C
:105A08007DF0AEEC36F07AC089F07BC08AF07CC0BD
:105A18008BF07DC08CF030EC38F089C09CF08AC0E7
:105A28009DF08BC09EF08CC09FF0F3EC3EF098C0C8
:105A3800C7F099C0C8F09AC0C9F09BC0CAF0CAAFF5
:105A480008D0000EB76FB86F800EB96FBF0EBA6F6F
:105A5800BF0CC7C0A6F0C8C0A7F0C9C0A8F0CAC08C
:105A6800A9F01AEC33F0A6C0C3F0A7C0C4F0A8C0D0
:105A7800C5F0A9C0C6F0D3C098F0D4C099F0D5C07D
:105A88009AF0D6C09BF0C3C09CF0C4C09DF0C5C0BE
:105A98009EF0C6C09FF0F3EC3EF098C0BFF099C0EE
:105AA800C0F09AC0C1F09BC0C2F0E9C37AF0EAC363
:105AB8007BF0EBC37CF0ECC37DF0BFC07EF0C0C0D0
:105AC8007FF0C1C080F0C2C081F0AEEC36F07AC081
:105AD800CBF07BC0CCF07CC0CDF07DC0CEF0EDC368
:105AE80089F0EEC38AF0EFC38BF0F0C38CF0CBC023
:105AF8008DF0CCC08EF0CDC08FF0CEC090F0C4EC4D
:105B08003CF007E2000EB76FB86FB96FC00EBA6FFE
:105B1800C00CCBC0B7F0CCC0B8F0CDC0B9F0CEC087
:105B2800BAF01200BCC07BF0BDC07CF0BEC07DF0F6
:105B38007E6B7F6B806B1200B8C07BF0B9C07CF0C5
:105B4800BAC07DF07E6B7F6B806B12000101E86B41
:105B5800E76BD5EC3EF08B908A904B6A4C6A4D6AA5
:105B68004E6A0201C86BC96BCA6BCB6BCC6BCD6B31
:105B7800CE6BCF6B0101E96BF00E0101E925D96EFF
:105B8800DA6A050EDA22DF68E92B0F0EE965F4D729
:105B98005EEC3FF020EC3BF078EC3CF02AEC3AF07D
:105BA8001B0E776FEA0E766F44EC3FF0756B010EB3
:105BB80058EC3BF01C0E776FE70E766F44EC3FF025
:105BC800070E916FD00E906FC2EC40F01D0E0101D0
:105BD800CC6F3D0ECB6F1C0ECE6F360ECD6F1D0EEB
:105BE800D06F490ECF6F1C0ED26F270ED16F1B0ED0
:105BF800D46F990ED36F1C0ED66FF40ED56F1A0E94
:105C0800D86F860ED76FCBC1D9F1CCC1DAF1CDC12F
:105C1800DBF1CEC1DCF1D1C1DDF1D2C1DEF1CFC102
:105C2800DFF1D0C1E0F1D3C1E1F1D4C1E2F1D5C1D6
:105C3800E3F1D6C1E4F1D7C1E5F1D8C1E6F100013D
:105C48003C8A2AEC3AF0190E776FCC0E766F44EC4A
:105C58003FF0756B010E58EC3BF01C0E776F180E79
:105C6800766F44EC3FF0A1EC40F03C8602D0EFECBC
:105C78001BF000013CB6FBD70001916B0A0E906F38
:105C8800C2EC40F000013C9A2AEC3AF0010E010106
:105C9800F76F010E0001926FD90E916F060E936F88
:105CA800E8C194F0B1EC31F00101EA6F5ED0E86B25
:105CB800E0EC0EF0EA6FEA51FE0AD8B499EC22F053
:105CC8000101EA29D8B499EC22F00101EA51800ACD
:105CD800820F4BE3DBD7010EE86FD9EC15F0010119
:105CE800EA6FEA51800A820F40E3EAAFCFD799EC16
:105CF80022F038D0030EE86F15EC37F00101EA6F97
:105D0800EA29C4E0EA51FE0AC1E0EA51800A820F9A
:105D18002CE3EAC1E7F1E7516AEC3AF023D0E86BEB
:105D280099EC22F01FD0E86B63EC39F01BD0E86BDC
:105D3800CDEC34F0ABD7E86B8FEC12F013D0010E3A
:105D48006AEC3AF00FD0020E6AEC3AF00BD0030E70
:105D58006AEC3AF007D0040E6AEC3AF003D0050E6C
:105D68006AEC3AF00101EA6FB1D7EA51A0E0010A02
:105D7800B2E0030AD4E0010ABDE0070AD4E0010A50
:105D8800D6E0030AD8E0C30AD2E0030AD4E0010A45
:105D9800C6E00F0AA0E0010A8AE0030AE0E0010A6F
:105DA800DAE0070AD4E0010ACEE0030AC8E06ED7B9
:105DB800B8C0AEF0B9C0AFF0BAC0B0F0BBC0B1F077
:105DC8008BEC38F0AEC0BFF0AFC0C0F0B0C0C1F0CF
:105DD800B1C0C2F0BE5119E0C251BF11C011C1110A
:105DE80014E1BBAF04D02D0EA6EC39F003D02B0E76
:105DF800A6EC39F0000E796B7A6B7B6B7C6BBCC0C0
:105E08007DF07E6B38EC28F00ED0BFC079F0C0C0B2
:105E18007AF0C1C07BF0C2C07CF0BCC07DF0BEC0CF
:105E28007EF038EC28F0000EA16FB80EA06FBFC04E
:105E380075F0C0C076F0C1C077F0C2C078F0EAEC67
:105E48003CF075C0A2F076C0A3F077C0A4F078C08B
:105E5800A5F0A3EC3DF0BBAF17D0000E986B996B83
:105E68009A6B9B6BB8C09CF0B9C09DF0BAC09EF00D
:105E7800BBC09FF0F3EC3EF098C0B8F099C0B9F001
:105E88009AC0BAF09BC0BBF0000E8A6FB80E896F3B
:105E98008B6B500E8C6FC30E8D6F470E8E6FC8ECD8
:105EA8003DF0B8C0AEF0B9C0AFF0BAC0B0F0BBC0FA
:105EB800B1F08BEC38F0AEC0C3F0AFC0C4F0B0C0E6
:105EC800C5F0B1C0C6F0BD51D8B412002E0EA6EC74
:105ED80039F0BD0514E1C3C06BF0C4C06CF0C5C097
:105EE8006DF0C6C06EF0100E6F6F270E706F000E4B
:105EF800716B726B74EC37F056D8010E50D0BD51EF
:105F0800020A14E1C3C06BF0C4C06CF0C5C06DF0E8
:105F1800C6C06EF0E80E6F6F030E706F000E716BE7
:105F2800726B74EC37F03FD8020E39D0BD51030ABA
:105F380013E1C3C06BF0C4C06CF0C5C06DF0C6C03F
:105F48006EF0640E6F6F000E706B716B726B74EC99
:105F580037F029D8030E23D0BD51040A13E1C3C07A
:105F68006BF0C4C06CF0C5C06DF0C6C06EF00A0E10
:105F78006F6F000E706B716B726B74EC37F013D827
:105F8800040E0DD0BD51050AD8A41200C3C079F083
:105F9800C4C07AF0C5C07BF0C6C07CF0050E7D6F2A
:105FA8007E6B38EF28F06BC0C3F06CC0C4F06DC0D6
:105FB800C5F06EC0C6F0C3C079F0C4C07AF0C5C0E1
:105FC8007BF0C6C07CF01200F7CF67F0F8CF68F01E
:105FD800F5CF69F0FE0ED76E830ED66EF294ACA2A2
:105FE80001D001D015D00001ED51D8B401D001D0B5
:105FF8000FD00601000E0101F625D96EDA6A0601F6
:10600800060EDA22DF50AD6E0101F62B0001ED0716
:10601800AB30E832010B0001606FAB30010B60114F
:106028000009D8B401D001D00DD0AB9800F0AB88EE
:10603800AECF6AF0AECF6AF00001EB6B00013B9E79
:1060480000013B9C9EAA01D001D032D0AECF6AF0AD
:1060580000016A51400AD8A401D001D005D0EB6BE9
:1060680000013B9E00013B8C00016A51230AD8A421
:1060780001D001D004D000013B8E00013B9C0001FF
:10608800EB29D8A401D001D001D0EB6B00013BACC7
:1060980001D001D00DD00701000E0001EB25D96E0B
:1060A800DA6A0701070EDA2200016AC0DFFFEB2B6C
:1060B8000001EF51D8B401D001D002D0EF0702D0CF
:1060C800070EEF6F00013BAA01D001D009D00301F0
:1060D800E6510001EF6101D001D002D08A8201D0DF
:1060E8008A920001F007000100013E760001F06786
:1060F80001D001D012D0E64BE72BE705910ED8B4BA
:10610800E619D8A401D001D005D04F0EF06FE66B88
:10611800E76B02D0500EF06F9E80D890E837D89089
:10612800E8378050030BE8130F0EE817BC0EE8257C
:10613800F66EF76A190EF722F86A000EF8220800C0
:10614800F550606F000E60BFFF0E616F626F636F86
:1061580060510401F55F000161510401F65B000123
:1061680062510401F75B000163510401F85B00010F
:106178003CA601D001D007D000013C960401F56B84
:10618800F66BF76BF86B00013DB001D001D008D079
:10619800F5C4EBF1F6C4ECF1F7C4EDF1F8C4EEF197
:1061A80069C0F5FF68C0F8FF67C0F7FF66C0F6FF73
:1061B80065C0DAFF64C0D9FF1100B8C0CCF0B9C01F
:1061C800CDF0BAC0CEF0BBC0CFF0CCC07AF0CDC015
:1061D8007BF0CEC07CF0CFC07DF0BB0E7E6FA20EF0
:1061E8007F6F910E806F390E816FAEEC36F088D8D4
:1061F8008BEC38F0AE51BCC0D9FFBDC0DAFFDF6E02
:10620800BCC0D9FFBDC0DAFFDF508EEC3FF089D8A3
:10621800610E8D6F450E8E6FC8EC3DF091D8A3ECE2
:106228003DF0CCC07AF0CDC07BF0CEC07CF0CFC0C2
:106238007DF0890E7E6F880E7F6F806F3C0E816FB8
:10624800AEEC36F05DD88BEC38F0AE51BEC0D9FF5D
:10625800BFC0DAFFDF6EBEC0D9FFBFC0DAFFDF50B4
:106268008EEC3FF05ED8700E8D6F420E8E6FC8ECCC
:106278003DF066D8A3EC3DF0CCC0AEF0CDC0AFF099
:10628800CEC0B0F0CFC0B1F08BEC38F0AE51C0C08A
:10629800D9FFC1C0DAFFDF6E000EA16FCC0EA06F70
:1062A800C0C0D9FFC1C0DAFFDF508EEC3FF075C027
:1062B800A2F076C0A3F077C0A4F078C0A5F0A3EC54
:1062C8003DF0000E8A6FCC0E896F8B6B8C6B7A0E4B
:1062D8008D6F440E8E6FC8EC3DF0CCC0AEF0CDC0D3
:1062E800AFF0CEC0B0F0CFC0B1F08BEC38F0C2C088
:1062F800D9FFC3C0DAFFAEC0DEFFAFC0DDFF1200BA
:106308007AC0C4F07BC0C5F07CC0C6F07DC0C7F0C1
:10631800C4C0AEF0C5C0AFF0C6C0B0F0C7C0B1F0E1
:10632800120075C0C8F076C0C9F077C0CAF078C04E
:10633800CBF0000E8A6FC80E896F8B6B8C6B1200C6
:10634800000EA16FCC0EA06FC8C0A2F0C9C0A3F008
:10635800CAC0A4F0CBC0A5F01200986B9A6B94C089
:106368009AF0756B010E766FC1EC3BF02AEC3AF0AF
:1063780098512DE0010E756F000E58EC3BF09A67AE
:106388000FD09351020DF3509125D96E000E922132
:10639800DA6EDECF76F0DDCF77F044EC3FF008D050
:1063A8009A51020DF3CF95F0FE0E77D844EC3FF0EA
:1063B800756B010E58EC3BF02A0EA6EC39F05AD852
:1063C80044EC3FF0756B010E58EC3BF023D02A0EDD
:1063D800A6EC39F04FD844EC3FF0010E756F58EC3D
:1063E8003BF06DD80BE191C0D9FF92C0DAFFDECF48
:1063F80076F0DDCF77F044EC3FF008D09A51020DEB
:10640800F3CF95F0020E49D844EC3FF0000E756BBF
:1064180058EC3BF0D1EC3FF0996F99AF18D099C088
:106428009AF021D09A691FD0FE0E9A6F1CD0010EE7
:10643800986F45D803E193C09AF098D79A2B96D7CE
:10644800986B9A6702D09A6B91D79A078FD7995110
:10645800010A09E0030AE6E0010AE6E0070AE7E0C4
:10646800010AEEE083D7756B766B010EC1EC3BF049
:106478009A5112009A51020DF3509125956FE86ACE
:10648800F3BEE8689221966F95C0D9FF96C0DAFFEF
:10649800DECF76F0DDCF77F0120095279551912564
:1064A800966FE86A95BFE8689221976F96C0D9FF02
:1064B80097C0DAFFDECF76F0DDCF77F01200935188
:1064C8009AC095F0966B95BF96079519961112008C
:1064D800000177357835806F7B357C357F6F80514B
:1064E80009E07F5180610FD080517F5D7D6F210E63
:1064F8007D5D09E379C075F07AC076F07BC077F0EE
:106508007CC078F012007F5109E080517F610FD084
:106518007F51805D7D6F210E7D5D09E375C075F04B
:1065280076C076F077C077F078C078F01200060E63
:106538007E6F78BF7E8F7CBF7E8D778F786B7B8FE9
:106548007C6B7F51806119D0D89079377A377B3747
:106558007C377F077F5180190CE07E0700017E5150
:10656800070B07E0F1D7D890783377337633753354
:10657800802B7F518063F7D71BD080517F6118D063
:10658800D890753776377737783780077F518019F5
:106598000CE07E0700017E51070B07E0F1D7D89089
:1065A8007C337B337A3379337F2B7F518063F7D702
:1065B8007EAF09D0751F761F771F781F752B000EC9
:1065C8007623772378237EAD02D0791F26D87E6B79
:1065D8007551792776517A2377517B2378517C231B
:1065E8007CAF04D0791F19D8010E7E6F79C06BF08B
:1065F8007AC06CF07BC06DF07CC06EF080C06FF02C
:106608007EC070F0D2EC37F06BC075F06CC076F0DD
:106618006DC077F06EC078F012007A1F7B1F7C1F68
:10662800792B000E7A237B237C23000C000E896BC8
:106638008A6B8B6B8C6BA6C08DF0A7C08EF0A8C040
:106648008FF0A9C090F0C4EC3CF005E3A66BA76BF3
:10665800A86BA96B1200A6C0AAF0A7C0ABF0A8C08F
:10666800ACF0A9C0ADF0A6515E08B36FC80EA7552F
:10667800B46F6E0EA855B56FBE0EA955B66FD890FB
:10668800B633B533B433B333D880000EAB5B800E6A
:10669800AC5B000EAD5B040EAE6FB3C07AF0B4C055
:1066A8007BF0B5C07CF0B6C07DF0AAC07EF0ABC070
:1066B8007FF0ACC080F0ADC081F0AEEC36F07AC0AF
:1066C800AFF07BC0B0F07CC0B1F07DC0B2F03CD878
:1066D800C8EC3DF039D8C8EC3DF0000E8A6FB30E17
:1066E800896F8B6B8C6BC00E8D6F3F0E8E6FC8ECF5
:1066F8003DF0000EA16FB30EA06FAFC0A2F0B0C006
:10670800A3F0B1C0A4F0B2C0A5F0A3EC3DF0AE2F49
:10671800C4D7B3C07AF0B4C07BF0B5C07CF0B6C0C3
:106728007DF0A6C07EF0A7C07FF0A8C080F0A9C009
:1067380081F0AEEC36F07AC0A6F07BC0A7F07CC042
:10674800A8F07DC0A9F01200000E8A6FAF0E896F05
:10675800B3C08BF0B4C08CF0B5C08DF0B6C08EF06D
:106768001200E8CF93F093517ED8100E6F6F0E0E83
:10677800706F000E716B726B9EEC3CF063D8EAECA4
:106788003CF075C089F076C08AF077C08BF078C08D
:106798008CF09C0E59EC3DF08F5165D83C0E6F6F14
:1067A800000E706B716B726B9EEC3CF04BD8EAEC90
:1067B8003CF075C089F076C08AF077C08BF078C05D
:1067C8008CF09C0E59EC3DF090518EEC3FF075C06A
:1067D80089F076C08AF077C08BF078C08CF09C0E78
:1067E80059EC3DF091C075F092C076F0B7EC3EF0F0
:1067F80075C094F076C095F077C096F078C097F0A1
:10680800000E8A6F940E896F6F0E8B6F120E8C6F4D
:10681800830E8D6F3A0E8E6FC8EC3DF094C089F0F0
:1068280095C08AF096C08BF097C08CF09C0E59ECFE
:106838003DF09CC08FF09DC090F09EC091F09FC02D
:1068480092F012006BC098F06CC099F06DC09AF08D
:106858006EC09BF098C075F099C076F09AC077F03A
:106868009BC078F01200986F996B9A6B9B6B98C0DD
:106878006BF099C06CF09AC06DF09BC06EF012007E
:10688800D0C0B8F0D1C0B9F0D2C0BAF0D3C0BBF014
:10689800000EBD6FD60EBC6F000EBF6FD70EBE6F59
:1068A800000EC16FD80EC06F000EC36FD90EC26F35
:1068B800E1EC30F0D9C06BF0DAC06CF06E6B640EAE
:1068C8006D6FE4EC3AF06BC0D9F06CC0DAF0D4A785
:1068D8000ED0D5A703D03C0EA6EC39F0D65151D82E
:1068E80038EC28F0D5A703D03E0EA6EC39F0D4A595
:1068F80013D0D4A703D03A0EA6EC39F0D5A503D00F
:106908003C0EA6EC39F0D7513CD838EC28F0D5A588
:1069180003D03E0EA6EC39F0D4A313D0D4A503D0EF
:106928003A0EA6EC39F0D5A303D03C0EA6EC39F00C
:10693800D85127D838EC28F0D5A303D03E0EA6ECC2
:1069480039F0D4A11200D4A303D02E0EA6EC39F04E
:10695800D5A103D03C0EA6EC39F0D9C079F0DAC045
:106968007AF0000E7ABFFF0E7B6F7C6F010E7D6F91
:10697800000E7E6B38EC28F0D5A112003E0EA6EF73
:1069880039F0796F7A6B7B6B7C6B020E7D6F7E6B57
:10699800000C070EF76F2AEC3AF01C0E776FFA0E10
:1069A800766F44EC3FF0000E756B766BC1EC3BF0F4
:1069B8003E823B8600013BB6FDD7EFEC1BF0B3EC03
:1069C80040F09D6F9D51800A820F18E25FD024EC41
:1069D8003CF089C099F08AC09AF08BC09BF08CC0BB
:1069E8009CF0896B400E8A6F9C0E8B6F450E8C6FE6
:1069F800990E59EC3DF0966B976B09D09D51030A9F
:106A0800E6E09869980700019829D7E0FBD7EFECF2
:106A18001BF0B3EC40F09D6F9D51800A820F36E366
:106A280024EC3CF089C091F08AC092F08BC093F0BE
:106A38008CC094F099C089F09AC08AF09BC08BF002
:106A48009CC08CF091C08DF092C08EF093C08FF0F6
:106A580094C090F0C4EC3CF0ACE30DD0964B972B6F
:106A68009751800A800F090ED8B4965D0FE208D0BE
:106A7800966B976B05D09D51040AF0E0010AF8E087
:106A88009869980700019829C2E0FBD7756B766B67
:106A9800010EC1EC3BF000013E92120007EE00F03F
:106AA80010EEFFF0EE6AE550E150FCE1E250FAE149
:106AB80006EE00F010EEFFF0EE6AE550E150FCE162
:106AC800E250FAE105EEC8F0380EEE6AE806FDE19C
:106AD80004EE00F0F50EEE6AE806FDE103EEC8F0FC
