:04100000C6EF0CF03B
:10100800D9CF64F0DACF65F0F6CF66F0A4EF30F010
:10101800D8CF19F0E8CF1AF0E0CF1BF0D9CF1CF0E9
:10102800DACF1DF0F6CF1EF0F7CF1FF0F8CF20F083
:10103800F5CF21F0830ECF6E1A0ECE6E9E90010E64
:101048000301CC27000ECD23000ECE23000ECF23A4
:1010580000013DB801D001D008D0CCC3F8F2CDC30F
:10106800F9F2CEC3FAF2CFC3FBF200013EAE01D0D3
:1010780001D00FD00301CC51D05DCD51D159CE5103
:10108800D259CF51D359D8B001D001D002D00001E4
:101098003E9E51505010D8B401D001D008D050060F
:1010A800D8A0510600013EA601D001D003D000010E
:1010B8003B9A02D000013B8AD8905736D8905736D1
:1010C8008138E8461F0B030B57120F0E5716200ED8
:1010D8005724F66EF76A1A0EF722F86A000EF822FD
:1010E8000800F550555E582A5828D8A401D001D0D8
:1010F80004D0586A556A00013C845550800A7D0F17
:10110800D8A001D001D010D0040E546E00013B824B
:10111800E7C350F0E8C351F000013B80020158C01A
:10112800FCF2FD6B586A556A5550800A820FD8B098
:1011380001D001D010D0050E546E00013B82E7C3E8
:1011480050F0E8C351F000013B80020158C0FCF2A6
:10115800FD6B586A556A81B401D001D007D0524A54
:10116800532AE7C350F0E8C351F016D0020E525C80
:10117800000E5358D8A001D001D00CD0C80E525C34
:10118800000E5358D8B001D001D004D0010E546ECF
:1011980000013B82526A536AB10E525C040E5358E6
:1011A800D8A001D001D001D0FF005304900ED8B4CC
:1011B8005218D8A401D001D004D0030E546E0001F7
:1011C8003B825250C80A5310D8A401D001D004D091
:1011D800020E546E00013B8200013BA601D001D0F3
:1011E80009D000013B92546A0001F16B00013B9663
:1011F80000013D9A00013DBA01D001D012D0000192
:101208003BA201D001D004D054C0F1F000013B92C0
:1012180000013FA001D001D004D000013F9059C087
:10122800F1F000013DB601D001D018D000013BA07B
:1012380001D001D013D00401280E5624D96EDA6AE1
:10124800040EDA220201FCC2DFFF562A0F0E566492
:1012580001D001D001D0566A00013B9000013D82C7
:10126800F0C22FF0F1C230F0F2C231F0F3C232F026
:1012780000013D9200013EA001D001D0CFD0000175
:101288003C9A4C5004013C5D4D503D594E503E59DE
:101298004F503F59D8B001D001D024D0405002015E
:1012A800F45F4150F55B4250F65B4350F75B4050AA
:1012B800F45D4150F5594250F6594350F759D8B0AA
:1012C80001D001D060D040C4C8F341C4C9F342C4BE
:1012D800CAF343C4CBF3F46BF56BF66BF76B000101
:1012E8003E9051D044500201F45D4550F5594650A6
:1012F800F6594750F759D8B001D001D01CD040500A
:10130800F4274150F5234250F6234350F723F45174
:10131800445CF5514558F6514658F7514758D8B0EE
:1013280001D001D008D044C0F4F245C0F5F246C05F
:10133800F6F247C0F7F2F451445CF5514558F651BE
:101348004658F7514758D8B001D001D01CD040506A
:10135800F45F4150F55B4250F65B4350F75B4450F5
:10136800F45D4550F5594650F6594750F759D8B0ED
:1013780001D001D008D044C0F4F245C0F5F246C00F
:10138800F6F247C0F7F20201F451E827F551E923D4
:10139800F651EA23F751EB23F451E85DF551E95989
:1013A800F651EA59F751EB59D8B001D001D008D01D
:1013B800010EEC27000EED23000EEE23000EEF23A6
:1013C800EBC24CF0ECC24DF0EDC24EF0EEC24FF065
:1013D80000013EA001D001D0D2D000013EA201D030
:1013E80001D00ED04C50485C0301C86F4D5049588D
:1013F800C96F4E504A58CA6F4F504B58CB6FBFD029
:1014080048504C240301C86F49504D20C96F4A50B9
:101418004E20CA6F4B504F20CB6FB1D000013CAA71
:1014280001D001D009D02FC0C8F330C0C9F331C0F2
:10143800CAF332C0CBF3A3D000013EAA01D001D039
:101448009ED000013CA201D001D00AD000013C92FC
:1014580044C444F045C445F046C446F047C447F088
:1014680044500201F45D4550F5594650F65947502D
:10147800F759D8B001D001D020D000013C804050AD
:101488000201F4274150F5234250F6234350F72335
:10149800F451445CF5514558F6514658F7514758B0
:1014A800D8B001D001D040D044C0F4F245C0F5F224
:1014B80046C0F6F247C0F7F237D0F451445CF55114
:1014C8004558F6514658F7514758D8B001D001D081
:1014D80029D000013C8040500201F45D4150F5598B
:1014E8004250F6594350F759D8B001D001D005D031
:1014F800F46BF56BF66BF76B08D04050F45F415016
:10150800F55B4250F65B4350F75B4450F45D455041
:10151800F5594650F6594750F759D8B001D001D07F
:1015280003D0C2D700013C900201F451E827F551DD
:10153800E923F651EA23F751EB23F451E85DF5511D
:10154800E959F651EA59F751EB59D8B001D001D011
:1015580008D0010EEC27000EED23000EEE23000E3E
:10156800EF23EBC24CF0ECC24DF0EDC24EF0EEC2F0
:101578004FF000013EA201D001D042D733D7C4CFEB
:1015880033F0346A3350346E336AC3503326000E56
:101598003422C2825E50335C266E5F503458276E08
:1015A800040E126E273427322632122EFBD726500D
:1015B8005E2627505F2233505E5C34505F58D8B0A7
:1015C80001D001D002D05E4A5F2A5E50335C5F5082
:1015D8003458D8B001D001D003D05E06D8A05F0639
:1015E80000013DB001D001D004D05EC0FEF25FC062
:1015F800FFF20301D8515E5CD9515F58D8B001D0D1
:1016080001D002D000013D8C2F500401385D296EB5
:10161800305039592A6E2FC038F430C039F431C0EF
:101628003AF432C03BF42AAE01D001D004D0296C80
:101638002A1ED8B02A2A0301DCC301F0026A29C095
:1016480003F02AC004F083EC40F001C033F002C07C
:1016580034F0DD513326000E3422000E335C010EC7
:101668003458D8A001D001D004D0000E346EFF0E3B
:10167800336E5EC012F05FC013F0040E146ED89083
:1016880013321232142EFBD71250286EDAC301F02F
:10169800DBC302F028C003F0046A0AEC3EF001C084
:1016A80024F002C025F033C035F034C036F0376A74
:1016B800386A24C00DF025C00EF00F6A106A350E86
:1016C8002FEC3EF0060E126ED89038323732363292
:1016D8003532122EF9D7000E355C040E3658000E3E
:1016E8003758000E3858D8A001D001D008D0FF0EC6
:1016F800356E030E366E000E376E000E386E35509E
:101708005A5C36505B5837505C5838505D58D8B0E2
:1017180001D001D008D0010E5A26000E5B22000E1F
:101728005C22000E5D2235505A5C36505B583750AB
:101738005C5838505D58D8B001D001D008D0010E9F
:101748005A26000E5B22000E5C22000E5D225A50C3
:10175800355C5B5036585C5037585D503858D8B0B7
:1017680001D001D005D05A06000E5B5A5C5A5D5A6A
:101778005A50355C5B5036585C5037585D50385875
:10178800D8B001D001D005D05A06000E5B5A5C5A79
:101798005D5A2F50C85D2B6E3050C9592C6E315090
:1017A800CA592D6E3250CB592E6EF1C312F0F2C3C6
:1017B80013F0000E13BEFF0E146E156E1550800A3E
:1017C800166E2B50125C2C5013582D5014582E5056
:1017D800800A1658D8B001D001D00ED023EEF1F00F
:1017E800DECF2BF0DDCF2CF0000E2CBEFF0E2D6EC1
:1017F8002E6E00013D8E37D023EEF1F0DECF12F0D1
:10180800DDCF13F0121E131E124A132A12C014F051
:1018180013C015F0000E15BEFF0E166E176E2E5073
:10182800800A186E14502B5C15502C5816502D58E1
:101838001750800A1858D8B001D001D014D023EE20
:10184800F1F0DECF12F0DDCF13F0121E131E124A94
:10185800132A12C02BF013C02CF0000E2CBEFF0E62
:101868002D6E2E6EC6D70001E9512B5C226EEA510F
:101878002C58236E2BC0E9F02CC0EAF0F3C301F01A
:10188800F4C302F02BC003F02CC004F083EC40F04A
:1018980001C039F002C03AF0F5C301F0F6C302F016
:1018A80022C003F023C004F083EC40F00150392635
:1018B80002503A223AAE01D001D007D08B908A80EC
:1018C800396C3A1ED8B03A2A02D08B808A9039C037
:1018D80012F03AC013F0000E13BEFF0E146E156E10
:1018E80012505A5C13505B5814505C5815505D5890
:1018F800D8B001D001D004D05AC039F05BC03AF05A
:1019080000013EA601D001D00CD08B908A90396A94
:101918003A6A2FC0C8F330C0C9F331C0CAF332C025
:10192800CBF33A50800A7D0F850ED8B4395CD8A025
:1019380001D001D004D0030E3A6EFF0E396E395033
:10194800FF08396E3A50D8A0E82A03083A6E3A34AC
:101958003A3239323A343A32393239C0BCFF21C0CE
:10196800F5FF20C0F8FF1FC0F7FF1EC0F6FF1DC01F
:10197800DAFF1CC0D9FF1BC0E0FF1AC0E8FF19C07E
:10198800D8FF10007CEF36F00000000000000000D7
:10199800000000000000000000000000000000003F
:1019A800000000000000000000000000000000002F
:1019B8000000000000000000000102030405060703
:1019C8000809000000000000000A0B0C0D0E0F00B3
:1019D8000000000000000000000A0B0C0D0E0F00B4
:1019E80000000000000000000000000000000000EF
:1019F80000000000000000000000000000000000DF
:101A08000000000000000000303132333435363732
:101A1800383941424344454600FF0100010000FFB8
:101A2800FF0000010001FF004D4F564520544F2094
:101A38005A45524F204445475245455300002020FF
:101A4800202020202020202020202020202020208E
:101A5800200000524F544154494F4E2044495245AA
:101A68004354494F4E3A000052554E4E494E473A5C
:101A780020542D48483A4D4D3A5353000054494D8F
:101A88004520464F5220414C4C204F524249545316
:101A980000004359434C4520434F554E543A303D7E
:101AA800494E462E00004457454C4C204F4E20507E
:101AB8004F494E542023303000004D4158205741A3
:101AC80059504F494E5453204841564500004D4FF8
:101AD800564520544F204E45585420504F494E5497
:101AE800000045585445524E414C204354524C2016
:101AF8004D4F444500004D4F56494E4720544F2006
:101B0800504F494E54202300002B58585858DF2076
:101B18005448454E20434C49434B0000414444201F
:101B2800414E4F5448455220504F494E543F005360
:101B3800504545443A2058582E5858DF2F5365636E
:101B4800000050524F4752414D20454E44204D4FC2
:101B580044453A0000434F554E54455220434C4F9C
:101B6800434B5749534500004457454C4C204F4E72
:101B780020504F494E54202300004D4F56494E47A0
:101B880020544F204F524947494E00004241545477
:101B980045525920564F4C544147453A00004D4F45
:101BA800564520544F2053544152542E2E2E000097
:101BB800494E46494E4954452052554E54494D4583
:101BC8000000494E46494E495445204359434C4527
:101BD80053000054494D4520504552204F52424928
:101BE800543A00004D4F56494E4720544F20535405
:101BF80041525400004241545445525920564F4CCA
:101C08005441474500004457454C4C204F4E205303
:101C1800544152540000544F54414C2052554E5494
:101C2800494D453A000054494D4520504552204FF2
:101C38005242495400004259204F524249542043CD
:101C48004F554E54000043494E45464C5558204F79
:101C5800524249540000425920544F54414C205498
:101C6800494D4500004F524249542052554E4E4965
:101C78004E4700005448454E20434C49434B2E2EB6
:101C88002E00005245414C54494D45204D4F444586
:101C98000000574159504F494E54204D4F4445007C
:101CA8000054524156454C2054494D453A00005085
:101CB800524553455420534C4F543A00004F52421A
:101CC80049542053504545443A00004F5242495424
:101CD800204C494D49543A00004E4556455220453E
:101CE8004E44494E47000045585445524E414C20F9
:101CF8004D4F4445004457454C4C2054494D453AB6
:101D0800000053544F5050494E472E2E2E00005479
:101D180048454E20434C49434B2E000052554E2017
:101D280050524F4752414D000020524556205245CF
:101D38004D41494E000053415645205052455345A8
:101D4800540000312E302E31343031392E3200001B
:101D5800474F20544F20534C45455000004C4F4F9F
:101D680050204D4F44453F00004245454E204144D8
:101D780044454400002D4F52424954202020200061
:101D8800002D454D5054592020202000002D57414A
:101D980059504F494E542000004F52424954204D4B
:101DA8004F4445000052554E20505245534554006B
:101DB8000050524553455420303100004F4E452DB8
:101DC8005741590000414354494F4E3A0000435986
:101DD800434C45200000424F554E434500002056D5
:101DE8004F4C545300004D414E55414C00003C4E61
:101DF8004F3E2000003C5945533E00005350454596
:101E0800440000204F462000003C6D733E003C48D3
:101E18003E003C4D3E003C533E000000020E0101D6
:101E2800FD6F1B0ED36F650ED26F1B0ED56F5D0E47
:101E3800D46FD4C1ECF1D5C1EDF1D2C1EEF1D3C16B
:101E4800EFF11D0ED76FEE0ED66F1C0ED96F330E45
:101E5800D86F1A0EDB6F8A0EDA6FD6C1F4F1D7C1CC
:101E6800F5F1D8C1F6F1D9C1F7F1DAC1F8F1DBC162
:101E7800F9F11C0EDD6F3E0EDC6F1C0EDF6F5E0E7F
:101E8800DE6F1C0EE16FE10EE06FDCC1E6F1DDC133
:101E9800E7F1DEC1E8F1DFC1E9F1E0C1EAF1E1C152
:101EA800EBF11D0EE36F240EE26F1D0EE56F3E0E83
:101EB800E46FE2C1F0F1E3C1F1F1E4C1F2F1E5C18F
:101EC800F3F1E0EC3AF01B0E776FA60E766FDBECC1
:101ED8003FF0756B010E09EC3CF01D0E776F170E85
:101EE800766FDBEC3FF000013C8A55EC41F00101D4
:101EF800FA6F3C9AFAAF02D0FA51120003EC36F0AE
:101F0800A6C0AEF0A7C0AFF0A8C0B0F0A9C0B1F0AD
:101F180041EC39F0AEC049F4AFC04AF4010E0001FB
:101F2800926FEC0E916F010E936F1A0E956F5B0E08
:101F3800946F4CC496F090EC39F00101FA6FFA29CD
:101F4800C0E0FA51FE0A01E1FE0CFABFD5D7FAC18A
:101F58004CF4010E0001926FE60E916F020E936F22
:101F68001B0E956F4A0E946F4BC496F090EC39F0A7
:101F78000101FA6FFA29D2E0FA51FE0AE5E0FABF48
:101F8800BBD7FAC14BF413D251C489F052C48AF0BA
:101F980053C48BF054C48CF000018D6B8E6B800E93
:101FA8008F6F3F0E906F03EC3DF007E20401516B19
:101FB800526B800E536F3F0E546F0001896BC00E39
:101FC8008A6F790E8B6F440E8C6F51C48DF052C49A
:101FD8008EF053C48FF054C490F003EC3DF008E247
:101FE8000401516BC00E526F790E536F440E546F3B
:101FF8001C0E0001C86FD30EC76F1A0ECA6F5A0E97
:10200800C96F040ECC6F510ECB6FCD6BCE6B800EAB
:10201800CF6F3F0ED06FD16BC00ED26F790ED36FDA
:10202800440ED46FD56BD66B800ED76F3F0ED86F2A
:102038005BEC25F00101FA6FFA298BE0FA51FE0AF0
:1020480083E0FABF59D70001896B8A6B800E8B6FCA
:102058003F0E8C6F51C48DF052C48EF053C48FF074
:1020680054C490F003EC3DF010E2010E0001926FB1
:10207800F40E916F020E936F1C0E956FC50E946F40
:102088005DC496F090EC39F004D0010E44DA90EC7F
:1020980039F00101FA6FFA2901E176D7FA51FE0AFF
:1020A80001E152D7FABF28D7A3D0FAD903EC3DF003
:1020B80001E23EDABCD95BEC25F00101FA6FFA299E
:1020C800C2E0FA51FE0A01E13FD77AD105DA03EC02
:1020D8003DF001E246DA1C0E0001DC6F2E0ECBD972
:1020E8001BEC1FF0FA6FFA29AEE0FA51FE0A01E183
:1020F8002BD7000101DAE6EC38F04BD155C489F052
:1021080056C48AF057C48BF058C48CF000017E6B1B
:102118007F6B800E806F400E816F51C47AF052C47D
:102128007BF053C47CF054C47DF064EC37F07AC083
:102138008DF07BC08EF07CC08FF07DC090F003ECFA
:102148003DF00BE2FFD964EC37F07AC055F47BC060
:1021580056F47CC057F47DC058F4F4D964EC37F0D9
:102168007AC0CEF17BC0CFF17CC0D0F17DC0D1F177
:102178001A0EDC6F850EDB6F040E0001DE6F550E44
:10218800DD6FCEC1DFF0CFC1E0F0D0C1E1F0D1C149
:10219800E2F098D91BEC1FF0FA6FFA2901E153D746
:1021A800FA51FE0A01E1D0D600017E6B7F6BB40EB6
:1021B800806F430E816F51C47AF052C47BF053C4D0
:1021C8007CF054C47DF064EC37F07AC089F07BC0B1
:1021D8008AF07CC08BF07DC08CF055C48DF056C45D
:1021E8008EF057C48FF058C490F0E6EC38F0D1D098
:1021F800FA5101E15AD7010A01E168D7030A01E15E
:102208007DD7DED01C0E0001DC6F1E0EDB6F040EC6
:10221800DE6F4D0EDD6FDF6BE06B800EE16F3F0E02
:10222800E26F50D91BEC1FF0FA6FFA2901E191D641
:10223800FA51FE0A01E188D6FABF5ED6010E6BD9C3
:1022480090EC39F00101FA6FFA29DCE0FA51FE0A44
:1022580001E17AD6FABF50D631D022D903EC3DF04D
:1022680001E266D9E4D85BEC25F00101FA6FFA299E
:10227800E5E0FA51FE0A01E167D624D02DD903EC36
:102288003DF001E26ED91B0E0001DC6FDB0EF3D8C6
:102298001BEC1FF0FA6FFA29D1E0FA51FE0A01E1AE
:1022A80053D6000129D9E6EC38F089C059F48AC020
:1022B8005AF48BC05BF48CC05CF404D0FA51CDE0C6
:1022C800010ADCE04DC47EF04EC47FF04FC480F0BC
:1022D80050C481F059C47AF05AC47BF05BC47CF0D6
:1022E8005CC47DF064EC37F07AC089F07BC08AF07A
:1022F8007CC08BF07DC08CF08D6B8E6BB40E8F6FB5
:10230800430E906FE6EC38F089C051F48AC052F45D
:102318008BC053F48CC054F453D0010EFCD890EC0D
:1023280039F00101FA6FFA2901E113D6FA51FE0AD0
:1023380001E10AD6FABFE0D535D0B2D803EC3DF0BA
:1023480001E2F6D874D85BEC25F00101FA6FFA299E
:10235800E4E0FA51FE0A01E1F7D5FABFCDD530D055
:10236800BBD803EC3DF001E2FCD81B0E0001DC6F8A
:10237800DB0E81D81BEC1FF0FA6FFA29CEE0FA5178
:10238800FE0A01E1E1D5FABFB7D50001B5D8E6EC00
:1023980038F089C059F48AC05AF48BC05BF48CC0F9
:1023A8005CF40ED0FA51C9E0010ADAE009D0040160
:1023B8004B5101E1E9D5010A01E124D7030AADE057
:1023C800010E0001926FF00E916F010E936F1D0EBA
:1023D800956FCD0E946F000E966B90EC39F001015D
:1023E800FA6FFA2901E1D0D5FA51FE0A01E1ACD51C
:1023F800FABF82D5FA6702D02AEF27F0CBEC37F084
:102408000101FA6FFA29DCE0FA51FE0A01E19CD5D4
:10241800FABF72D5020E0401486F040E0001746FF2
:10242800480E736F0101FA5156EC40F0C9D71E0EE1
:102438000001C86F040EC76F1B0ECA6F430EC96F29
:10244800040ECC6F590ECB6F0A0ECD6FD70ECE6F20
:10245800230ECF6F3C0ED06FD16BD26BB40ED36FFF
:10246800420ED46F0A0ED56FD70ED66F230ED76FD4
:102478003C0ED86F3C0CDB6F040EDE6F550EDD6F23
:10248800DF6BE06B800EE16F400EE26FE36BC00E16
:10249800E46FA80EE56F470EE66F0E0EE76F0E0CA1
:1024A80059C489F05AC48AF05BC48BF05CC48CF0C0
:1024B8000A0E00018D6FD70E8E6F230E8F6F3C0EA4
:1024C800906F3C0CE36BC00EE46FA80EE56F470EEF
:1024D800E66F0E0EE76F0E0C55C489F056C48AF0ED
:1024E80057C48BF058C48CF000018D6B8E6B800E36
:1024F8008F6F400E906F400C896B8A6BB40E8B6F98
:10250800430E8C6F55C48DF056C48EF057C48FF0AF
:1025180058C490F0430C0001926FF40E916F010EB5
:10252800936F1C0E956FC50E946F5DC496F01200E4
:102538000A0E0401596FD70E5A6F230E5B6F3C0EBB
:102548005C6F3C0C51C47AF052C47BF053C47CF0ED
:1025580054C47DF07E6B7F6B800E806F400E816F60
:10256800400C0401556B566B800E576F400E586F28
:10257800400C080E0101FD6F536B526B3B88546B86
:10258800516BE0EC3AF01C0E776FEF0E766FDBECD8
:102598003FF076EC41F0D76FD751030A01E1A4D29E
:1025A8004FD03E903C9A3E9A56D006DB3CB2FED7BE
:1025B8003CB051D00101546B4ED03EB04CD0010E0E
:1025C8003CD03EB048D001015351020D14DB00014C
:1025D800DECF71F0DDCF72F01AEC41F00101532B20
:1025E800040E2CD03EBE37D001015251536301D0A6
:1025F800E6D75351020DF8DA0001DECF75F0DDCFD2
:1026080076F086EC3FF075C04DF176C04EF177C09C
:102618004FF178C050F101015351020DD7DA000192
:10262800DECF75F0DDCF76F06DEC40F083DA34EC78
:102638002DF067DAC1EC3FF0030E0101546F0BD0A7
:1026480001015451AEE0010AB0E0030AB6E0010A04
:10265800B8E0070AC7E000013BAE9BD70101FB6B5E
:10266800010E0001EF6F00013B9EC2EC3EF001013C
:10267800FE198FE1C2EC3EF00101556F1DD2C2EC8C
:102688003EF00101566FC2EC3EF00101576FC2ECFB
:102698003EF00101586FC2EC3EF00101596F56C17E
:1026A80038F157C139F158C13AF159C13BF16DDAE6
:1026B800C2EC3EF00101566FC2EC3EF00101576FCB
:1026C800C2EC3EF00101586FC2EC3EF00101596FB7
:1026D80056C13CF157C13DF158C13EF159C13FF1D6
:1026E80054DAC2EC3EF00101566FC2EC3EF0010133
:1026F800576FC2EC3EF00101586FC2EC3EF0010189
:10270800596F56C140F157C141F158C142F159C101
:1027180043F13BDAC2EC3EF00101FB1906E1010E80
:10272800516F5551AFEC40F034D757DAF5EC3FF024
:1027380030D7516708D0010E00016D6F0101555166
:10274800F5EC3FF026D7545108E0020E00016D6FFA
:1027580001015551F5EC3FF01CD738C1B8F039C12B
:10276800B9F03AC1BAF03BC1BBF03CC1BCF03DC1C5
:10277800BDF03EC1BEF03FC1BFF040C1C0F041C195
:10278800C1F042C1C2F043C1C3F048EC21F00101DD
:10279800516B020E546F5551AFEC40F0FAD65451BC
:1027A80002E0010E546F5551AFEC40F0F2D6FC6BCD
:1027B80092EC1EF0240EDF6EFC2B555106EC3FF018
:1027C800545106EC3FF05451FB27515106EC3FF0B1
:1027D8005151FB27CAEC3CF079EC3EF075C056F13C
:1027E80076C057F177C058F178C059F13D92D6D9E3
:1027F8009BEC3DF00101565106EC3FF0575106ECB9
:102808003FF0585106EC3FF0595106EC3FF0ABD978
:10281800566B576B586B596B12D0F4C275F0F5C2F2
:1028280076F0F6C277F0F7C278F00FEC40F075C09A
:1028380056F176C057F177C058F178C059F1F4C213
:1028480075F0F5C276F0F6C277F0F7C278F00FECC3
:1028580040F001015951000178190EE10101585168
:102868000001771909E1010157510001761904E1C6
:102878000101565100017519D0E1010E00018A6F5E
:10288800560ED9EC1EF09BEC3DF088D99BEC3DF040
:102898000101565106EC3FF0575106EC3FF05851F4
:1028A80006EC3FF0595106EC3FF05DD900013D8838
:1028B800F8C275F0F9C276F0FAC277F0FBC278F088
:1028C8000FEC40F075C056F176C057F177C058F15B
:1028D80078C059F13D98010E00018A6F560E896F34
:1028E8006F0E8B6F120E8C6F030E8D6F3B0E8E6FFB
:1028F8009BEC3DF00101565106EC3FF0575106ECB8
:102908003FF0585106EC3FF0595106EC3FF02BD9F7
:1029180000013D80FEC275F0FFC276F06DEC40F01C
:1029280075C056F176C057F177C058F178C059F1A3
:102938003D90010E00018A6F560E896FE2C38BF03D
:10294800E3C38CF0E4C38DF0E5C38EF09BEC3DF05F
:102958000101565106EC3FF0575106EC3FF0585133
:1029680006EC3FF0595106EC3FF0FDD8FB5106EC60
:102978003FF092EC1EF0230EDF6EFC2BFCC14CF1F5
:10298800FC6B4CC1F0F005D65451030A03E05451D6
:10299800040A08E1010E00016D6F01015551F5ECC3
:1029A8003FF0F7D5536B526B5551AFEC40F0F1D572
:1029B8005451030A03E05451040A08E1010E0001CE
:1029C8006D6F01015551F5EC3FF0E3D5630E52658B
:1029D80008D0020E00016D6F01015551F5EC3FF072
:1029E800D8D5C2EC3EF00101566FC2EC3EF0C4D817
:1029F800FBD856C1DEFF57C1DDFFC2EC3EF0010136
:102A0800566FC2EC3EF0B8D8E1D856C1DEFF57C1C8
:102A1800DDFFC2EC3EF00101566FC2EC3EF0ACD8CF
:102A2800EAD856C1DEFF57C1DDFFC2EC3EF0010116
:102A3800FB1906E15551AFEC40F00101522BA9D525
:102A4800CCD8F5EC3FF0A5D5545108E0010E0001B3
:102A58006D6F01015551F5EC3FF09BD5536B00C3E9
:102A680075F001C376F086EC3FF075C04DF176C085
:102A78004EF177C04FF178C050F100C875F001C829
:102A880076F06DEC40F056D834EC2DF03AD8C1EC25
:102A98003FF0030E0101546F5551AFEC40F079D56A
:102AA8005551AFEC40F020D0FE0E00016D6F0101D2
:102AB8005551F5EC3FF06DD55551600A01E1DFD570
:102AC800010A01E136D6030A01E169D6010A01E1EA
:102AD8006ED6070A01E158D7010A01E169D7030A4E
:102AE800B3E0E60ADDE0E0D767D806D001014C691B
:102AF8004C0701014C29FCE13CB0F8D700013B9898
:102B0800000CB7C044F1B8C045F1B9C046F1BAC02D
:102B180047F14DC130F14EC131F14FC132F150C1D1
:102B280033F144C134F145C135F146C136F147C1ED
:102B380037F1120075C048F176C049F177C04AF103
:102B480078C04BF14DC1B7F04EC1B8F04FC1B9F0E4
:102B580050C1BAF048C1BBF049C1BCF04AC1BDF090
:102B68004BC1BEF012005651FB275751FB27585155
:102B7800FB275951FB2712000101576F5651FB27BC
:102B88005751FB275251020D12005951FB2758513A
:102B9800FB275751FB275651FB271200010E000156
:102BA8008A6F560E896FFBC38BF0FCC38CF0FDC394
:102BB8008DF0FEC38EF012003E903C9A3E8A0401CE
:102BC800446B456B466B476B3C821200000EF32446
:102BD800D96EDA6A080EDA221200516BFA0E000179
:102BE8006D6F010155511200000EF324D96EDA6A97
:102BF800030EDA221200000EF324D96EDA6A020EEE
:102C0800DA221200040E0101FD6FE56BE66BE76B3B
:102C1800E86BDA6B0501036B1D0E0101C76FC40E6B
:102C2800C66F1D0EC96FDE0EC86FC6C1CEF1C7C113
:102C3800CFF1C8C1D0F1C9C1D1F11D0ECB6F240E9F
:102C4800CA6F1D0ECD6F3E0ECC6FCAC1D2F1CBC17B
:102C5800D3F1CCC1D4F1CDC1D5F1E96BEA6BEB6B03
:102C6800EC6BF36BF46BF56BF66BE36BE46BDF6BA0
:102C7800E06BE16BE26BDB6BDC6BDD6BDE6BEF6BF0
:102C8800F06BF16BF26BF76BE0EC3AF01B0E776FC1
:102C9800A60E766FDBEC3FF0756B010E09EC3CF08D
:102CA8001D0E776F170E766FDBEC3FF000013C8A44
:102CB80055EC41F00101F86FF8AF02D0F85112005D
:102CC80000013C9A03EC36F0A6C0AEF0A7C0AFF006
:102CD800A8C0B0F0A9C0B1F041EC39F0AEC001F520
:102CE800AFC002F5A6EC3CF08FC0D6F190C0D7F18A
:102CF80091C0D8F192C0D9F11C0EDC6FFD0EDB6FCC
:102D0800010E00017CDA1BEC1FF0F86FF851FE0A87
:102D180001E1FE0CF829A1E0F8BFD0D7EFC1AEF071
:102D2800F0C1AFF0F1C1B0F0F2C1B1F041EC39F04F
:102D3800AEC04FF5AFC050F5D2D1E0EC3AF01A0E64
:102D4800776FD60E766FDBEC3FF0756B010E09ECF2
:102D58003CF01B0E776F110E766FDBEC3FF03C8A70
:102D68003B8602D021EC1CF000013BB6FBD70101E9
:102D7800F86B96D021EC1CF0A6EC3CF08FC0DBF190
:102D880090C0DCF191C0DDF192C0DEF1DBC198F0BA
:102D9800DCC199F0DDC19AF0DEC19BF0D6C19CF090
:102DA800D7C19DF0D8C19EF0D9C19FF0A4EC3FF0E7
:102DB80098C0DFF199C0E0F19AC0E1F19BC0E2F15F
:102DC800DFC1AEF0E0C1AFF0E1C1B0F0E2C1B1F0F7
:102DD80041EC39F0AEC0E3F1AFC0E4F1756B010E20
:102DE80009EC3CF0E3C179F00001E4C17AF0000E8F
:102DF8007ABFFF0E7B6F7C6F040E7D6F010E7E6FB6
:102E0800F4EC28F03D8AF1C0F8F13D9A0101F8513F
:102E1800030A03E100013C9AFE0CF851020A07E19B
:102E28003C9A0101F76701D018D7F70786D7F85100
:102E3800050A18E13B863C9A0101306B316B800E24
:102E4800326FBF0EECD9C1EC3FF002D021EC1CF080
:102E580000013EB0FBD73C8A02D021EC1CF00001F7
:102E68003BB6FBD70101F851040A17E13B863C9AAF
:102E7800306B316B800E326F3F0ED1D9C1EC3FF011
:102E880002D021EC1CF000013EB0FBD73C8A02D0F6
:102E980021EC1CF000013BB6FBD70101F8BF0ED7AF
:102EA800F80501E067D73C9A0101F751020D070EBA
:102EB800F324D96EDA6A050EDA22E3C1DEFFE4C133
:102EC800DDFFDFC1B7F0E0C1B8F0E1C1B9F0E2C1A0
:102ED800BAF06DEC2AF0B7C0F3F1B8C0F4F1B9C09C
:102EE800F5F1BAC0F6F1F3C1AEF0F4C1AFF0F5C137
:102EF800B0F0F6C1B1F041EC39F0AEC0EDF1AFC0C1
:102F0800EEF1010E0001A16FF30EA06FEDC175F097
:102F1800EEC176F06DEC40F075C0A2F076C0A3F07B
:102F280077C0A4F078C0A5F0E5EC3DF0000E896B01
:102F38008A6B8B6B8C6BF3C18DF0F4C18EF0F5C18D
:102F48008FF0F6C190F003EC3DF00DE2010E0101A7
:102F5800ED250001756F000E0101EE210001766F6D
:102F68006DEC40F006D0EDC175F0EEC176F06DEC79
:102F780040F075C0F3F176C0F4F177C0F5F178C090
:102F8800F6F11C0E0001DC6FA90EDB6F010EDE6F7F
:102F9800E90EDD6FF3C1DFF0F4C1E0F0F5C1E1F057
:102FA800F6C1E2F0E36BE4697F0EE56F470EE66F6A
:102FB8000E0EE76F1BEC1FF0F86FF851FE0A01E1E7
:102FC800A8D6F82901E1B9D6F8BF78D6E9C1AEF09C
:102FD800EAC1AFF0EBC1B0F0ECC1B1F041EC39F0AF
:102FE8000101F751020D2B0EF324D96EDA6A050E92
:102FF800DA22AEC0DEFFAFC0DDFF1C0E0001DC6FC1
:10300800FD0EDB6F010EFBD81BEC1FF0F86FF851BB
:10301800FE0A01E17ED6F829B4E0F8BF4FD6EFC129
:10302800AEF0F0C1AFF0F1C1B0F0F2C1B1F041ECD7
:1030380039F00101D890F7350001E86F510EE82505
:10304800D96EDA6A050EDA22AEC0DEFFAFC0DDFF48
:103058000101F751800A6F0F24E21B0E0001926FE5
:10306800240E916F010E936FD5EC39F00101F86FC2
:10307800F851FE0A01E14DD6F829BFE0F86702D001
:10308800010EDA6FF8050AE1F72BDBC1D6F1DCC1D6
:10309800D7F1DDC1D8F1DEC1D9F14FD6F8BF0ED6D0
:1030A8001ED0E0EC3AF01A0E776FC20E766FDBECAA
:1030B8003FF0756B010E09EC3CF01D0E776F710E39
:1030C800766FDBEC3FF055EC41F00101F86FF851F9
:1030D800FE0A01E11ED6F82990E0010EDA6F01011F
:1030E800DA5101E12AD6F7C103F5010E0001926F0A
:1030F800CE0E916F010E936F1D0E956F650E946F36
:1031080004C596F090EC39F00101F86FF82901E157
:1031180074D7F851FE0A01E1FCD5F8BFCFD5F8C144
:1031280004F51A0E0001C86F9A0EC76F1B0ECA6FFE
:10313800D20EC96F010ECC6FE50ECB6FCD6BCE6B87
:10314800CF6BD06BD16BC00ED26F790ED36F440E9C
:10315800D46FD56BD66B800ED76F3F0ED86F5BECF4
:1031680025F00101F86FF829C0E0F851FE0A01E1E5
:10317800D0D5F8BFA3D5E5C1AEF0E6C1AFF0E7C141
:10318800B0F0E8C1B1F041EC39F0AEC005F5AFC020
:1031980006F5010E0001926FD20E916F010E936F2A
:1031A8001D0E956FCD0E946F000E966B90EC39F056
:1031B8000101F86FF829B5E0F851FE0A01E1A9D537
:1031C800F8BF7CD5F86702D01BEF19F0CBEC37F0CD
:1031D8000101F86FF829DDE0F851FE0A01E199D5FF
:1031E800F8BF6CD5010E0501006F050E0001746F64
:1031F800000E736F0101F85156EC40F0CAD7DE6F2C
:10320800EF0EDD6FDF6BE06BE16BE26BE36BE469A4
:103218007F0EE56F470EE66F0E0EE76F0E0C336FED
:10322800346B356BB40E366F420E376F420C0101AA
:10323800C16B050EFD6FC06BC36B010EC26FE0EC76
:103248003AF01B0E776FEC0E766FDBEC3FF001C5A2
:1032580075F002C576F06DEC40F0D1DAE0EC2BF0B9
:1032680011D021EC1CF076EC41F00101C56FC5517D
:10327800030A03E1FE0EC16F7DD2C5AF03D0C5C1FD
:10328800C1F178D200013EB0ECD7E0EC3AF01C0E68
:10329800776F0E0E766FDBEC3FF04FC571F050C5BF
:1032A80072F01AEC41F00BD021EC1CF076EC41F0F6
:1032B8000101C56FC551030ADDE0C5BFE0D70001B4
:1032C8003EBEF2D70101C05103E003C5C4F1A3D14A
:1032D800C46BA1D1C451020D070EF324D96EDA6A6A
:1032E800050EDA220001DECF75F0DDCF76F086EC30
:1032F8003FF075C0BCF176C0BDF177C0BEF178C0B3
:10330800BFF10101C451020D2B0EF324D96EDA6A04
:10331800050EDA220001DECF75F0DDCF76F06DEC18
:1033280040F075C0B0F176C0B1F177C0B2F178C0A5
:10333800B3F1BCC1B7F0BDC1B8F0BEC1B9F0BFC1EF
:10334800BAF0B0C1BBF0B1C1BCF0B2C1BDF0B3C1FD
:10335800BEF034EC2DF0B7C0B8F1B8C0B9F1B9C0BF
:10336800BAF1BAC0BBF10101C05101E1B3D0E0EC40
:103378003AF01A0E776FFE0E766FDBEC3FF04FDAFD
:10338800F4EC28F0756B010E09EC3CF005010651D0
:10339800051108E11B0E0001776FCA0E766FDBEC92
:1033A8003FF013D01D0E0001776FD60E766FDBEC61
:1033B8003FF005DAF4EC28F01E0E776F0B0E766FEF
:1033C800DBEC3FF0F1D9F4EC28F0BCC16BF0BDC1E7
:1033D8006CF0BEC16DF0BFC16EF042EC41F06BC045
:1033E800B4F16CC0B5F16DC0B6F16EC0B7F1B4C13F
:1033F80030F1B5C131F1B6C132F1B7C133F1B8C15D
:1034080034F1B9C135F1BAC136F1BBC137F1C1ECFC
:103418003FF00CD021EC1CF076EC41F00101C56FB7
:10342800C551030A01E126D7C5BF29D700013EB01F
:10343800F1D7E0EC3AF01B0E776F700E766FDBEC8D
:103448003FF0EDD9F4EC28F0756B010E09EC3CF077
:1034580005010651051108E11B0E0001776FCA0E20
:10346800766FDBEC3FF013D01D0E0001776FD60EA0
:10347800766FDBEC3FF0A3D9F4EC28F01E0E776FE3
:103488000B0E766FDBEC3FF08FD9F4EC28F00101DE
:10349800C451020D4F0EF324D96EDA6A050EDA22F2
:1034A8000001DECF71F0DDCF72F01AEC41F00CD0E4
:1034B80021EC1CF076EC41F00101C56FC551030AFF
:1034C80001E1D8D6C5BFDBD600013EBEF1D7010168
:1034D800C407A1D0E0EC3AF01A0E776FFE0E766FB3
:1034E800DBEC3FF077D9F4EC28F0756B010E09ECB2
:1034F8003CF005010651051108E11B0E0001776F2C
:10350800CA0E766FDBEC3FF013D01D0E0001776F0B
:10351800D60E766FDBEC3FF052D9F4EC28F01E0E95
:10352800776F0B0E766FDBEC3FF03ED9F4EC28F0AA
:10353800BCC130F1BDC131F1BEC132F1BFC133F1FF
:10354800B8C134F1B9C135F1BAC136F1BBC137F1EF
:10355800C1EC3FF00CD021EC1CF076EC41F00101FD
:10356800C56FC551030A01E185D6C5BF88D60001DC
:103578003EB0F1D7E0EC3AF01B0E776F700E766F25
:10358800DBEC3FF027D9F4EC28F0756B010E09EC61
:103598003CF005010651051108E11B0E0001776F8B
:1035A800CA0E766FDBEC3FF013D01D0E0001776F6B
:1035B800D60E766FDBEC3FF002D9F4EC28F01E0E45
:1035C800776F0B0E766FDBEC3FF0EED8F4EC28F05B
:1035D8000101D890C4350001E06F510EE025D96E85
:1035E800DA6A050EDA22DECF71F0DDCF72F01AEC5E
:1035F80041F00CD021EC1CF076EC41F00101C56FD4
:10360800C551030A01E136D6C5BF39D600013EBE11
:10361800F1D70101C42BC4BF0BD005010351D880D9
:10362800D8840101C4AFC45DD8A0D88401E152D6C2
:103638000501045107E00101C051010ED8A4000E94
:10364800C06F87D00101C06BE0EC3AF01B0E776FBA
:10365800820E766FDBEC3FF0756B010E09EC3CF0E7
:1036680005010651051108E11B0E0001776FCA0E0E
:10367800766FDBEC3FF013D01D0E0001776FD60E8E
:10368800766FDBEC3FF09BD8F4EC28F01E0E776FDA
:103698000B0E766FDBEC3FF087D8F4EC28F001C511
:1036A80075F002C576F06DEC40F0A9D8E0EC2BF08F
:1036B8000CD021EC1CF076EC41F00101C56FC5512E
:1036C800030A01E1D7D5C5BFDAD500013EB0F1D76D
:1036D800E0EC3AF01A0E776FAE0E766FDBEC3FF047
:1036E800756B010E09EC3CF005010651051108E166
:1036F8001B0E0001776FCA0E766FDBEC3FF013D01C
:103708001D0E0001776FD60E766FDBEC3FF057D8B1
:10371800F4EC28F01E0E776F0B0E766FDBEC3FF0A3
:1037280043D8F4EC28F04FC571F050C572F01AEC8C
:1037380041F00CD021EC1CF076EC41F00101C56F92
:10374800C551030A01E196D5C5BF99D500013EBE12
:10375800F1D705010651051101E1B4D50101C24BAC
:10376800C32BC2510501055D0101C351050106596D
:1037780001E3A8D53E9000013C8AE0EC3AF01D0E2A
:10378800776F0A0E766FDBEC3FF021EC1CF03E9071
:103798003C8A010E0001916FF40E906F85EC41F0A8
:1037A8003C9A0101C151120005C579F0000106C516
:1037B8007AF07B6B7C6B030E7D6F7E6B000CC2C155
:1037C80079F00001C3C17AF07B6B7C6B030E7D6FCF
:1037D8007E6B000CC4C1E0F00001E16BE0BFE107C3
:1037E800E02B000EE123E0C079F0E1C07AF07ABF67
:1037F800FF0E7B6F7C6F020E7D6F7E6B000C75C0B9
:1038080038F176C039F177C03AF178C03BF101015F
:103818003C6B3D6BB40E3E6F420E3F6F420C010194
:10382800C4510001796F000E79BFFF0E7A6F7B6F6C
:103838007C6F020E7D6F7E6B000C0101026B306B9A
:103848003BA807D0AB69AB070101AB29D8B412007C
:10385800FAD73BBE08D00101AB69AB070101AB2920
:10386800D8B41200FAD70101FB6B010E0001EF6F0B
:1038780000013B9EC2EC3EF00101026F02291FE1EC
:10388800FC6B000E6EDAFE5106EC3FF04F0E06ECB4
:103898003FF0520E06EC3FF0420E06EC3FF0490EA8
:1038A80006EC3FF0540E06EC3FF038DA230EDF6EDC
:1038B800FC2BFCC1ABF1FC6BABC1F0F01200FE516C
:1038C80002631200C2EC3EF00101AA6FF7D1FC6B53
:1038D80025DA240EDF6EFC2BAA5106EC3FF0AB6B09
:1038E800140E81DA06EC3FF073DAAB65F9D7AB6BEF
:1038F800000E01018ADA06EC3FF05FDAAB65F8D713
:1039080000013D82F0C275F0F1C276F0F2C277F0A4
:10391800F3C278F079EC3EF075C0ACF176C0ADF149
:1039280077C0AEF178C0AFF13D9200DA9BEC3DF084
:103938000101AC5106EC3FF0AD5106EC3FF0AE5141
:1039480006EC3FF0AF5106EC3FF01FDA6BDA0BD014
:10395800F4C275F0F5C276F0F6C277F0F7C278F0E7
:103968000FEC40F049DAF4C275F0F5C276F0F6C211
:1039780077F0F7C278F00FEC40F00101AF51000189
:1039880078190EE10101AE510001771909E1010131
:10399800AD510001761904E10101AC51000175191E
:1039A800D7E1010E00018A6FAC0EFFD99BEC3DF008
:1039B800BDD99BEC3DF00101AC5106EC3FF0AD5197
:1039C80006EC3FF0AE5106EC3FF0AF5106EC3FF08D
:1039D800DCD900013D80FEC275F0FFC276F06DECC7
:1039E80040F0C8D9B1D99BEC3DF00101AC5106ECCF
:1039F8003FF0AD5106EC3FF0AE5106EC3FF0AF5151
:103A080006EC3FF0C2D9FD5106EC3FF0FD51FB2713
:103A1800FB5106EC3FF049D7FC6B80D9240EDF6ED2
:103A2800FC2BAA5106EC3FF0AB6B140EDCD906EC6C
:103A38003FF0CED9AB65F9D7AB6B000E0101E5D9E4
:103A480006EC3FF0BAD9AB65F8D7FB5106EC3FF06E
:103A58002CD73F90010E11D03F90030E0ED03F900F
:103A6800020E0BD03F90040E08D03F90050E05D0F3
:103A780000013F90C2EC3EF00008596E3F8013D120
:103A8800FC6B4CD9240EDF6EFC2BAA5106EC3FF0E0
:103A9800FD5106EC3FF0FD5106EC3FF006D7CAECAD
:103AA8003CF079EC3EF075C0ACF176C0ADF177C072
:103AB800AEF178C0AFF13D9239D99BEC3DF0ACC185
:103AC8006DF0ADC16EF0AEC16FF0AFC170F0AAC1BC
:103AD80071F0D2EF3BF0A6D90BD0F4C275F0F5C265
:103AE80076F0F6C277F0F7C278F00FEC40F084D9A0
:103AF800F4C275F0F5C276F0F6C277F0F7C278F046
:103B08000FEC40F00101AF51000178190EE10101FD
:103B1800AE510001771909E10101AD510001761993
:103B280004E10101AC5100017519D7E1010E000152
:103B38008A6FAC0E3AD99BEC3DF0F8D89BEC3DF07F
:103B4800BED700013D80FEC275F0FFC276F06DEC75
:103B580040F010D9F9D89BEC3DF0B1D7C2EC3EF05B
:103B68000101306F050E306501D02DD0306701D0CE
:103B78002AD0010E0001726F310E716F01013051B0
:103B88002EEC41F00101FC6B000EEBD8AA5106ECBB
:103B98003FF0AB6B03D9DF5006EC3FF0FFD8DF50A6
:103BA800FB27AB2B780EAB65F5D7FB5106EC3FF046
:103BB8007CD6C2EC3EF00101306F050E306501D0B5
:103BC80002D0306704D0010E00016D6F75D03051FE
:103BD800FB27AB6BC2EC3EF08F6F0101DFD88FC0C3
:103BE800DFFFDCD8DF50FB27AB2B770EAB65F2D7B6
:103BF800C2EC3EF00101FB190AE1010E0001746FED
:103C0800310E736F0101305156EC40F04CD04FD05B
:103C1800AA51F5EF3FF0030E01012F6FD40E2E6F5E
:103C2800FC6B000E9ED8AA5106EC3FF0AB6B2EC180
:103C3800D9FF2FC1DAFFDF5006EC3FF02EC1D9FFC4
:103C48002FC1DAFFDF50E9D8AB65F1D7FB5106EC9D
:103C58003FF02BD6010E2F6F030E2E6FAB6BC2EC0D
:103C68003EF02EC1D9FF2FC1DAFFDF6E2EC1D9FF7A
:103C78002FC1DAFFDF500101D0D8AB65F0D7C2EC15
:103C88003EF00101FB1913E1006B016B010E00010D
:103C98006F6F000E6E6F010E716F030E706F2B0E3B
:103CA800726FE4EC3EF00101AA51AFEF40F0FBC1A6
:103CB8006DF0AED700016D690101AAD7AA51010ABA
:103CC80001E177D7030A01E149D7120A01E1A4D635
:103CD800010A01E1BED6030A01E1C1D6010A01E1E8
:103CE800BBD6070A01E1BED6010A01E1BED6030A26
:103CF80001E1D5D6010A01E1EED60F0A01E121D78B
:103D0800010A01E1B5D6030A01E1BAD6010A01E1C7
:103D1800DED5070A80E0010A9DE0CCD7000E01013C
:103D2800FC25D96EDA6A060EDA221200010E0001AD
:103D38008A6FAC0E896FFBC38BF0FCC38CF0FDC39C
:103D48008DF0FEC38EF0120000018A6FAC0E896FF1
:103D5800E2C38BF0E3C38CF0E4C38DF0E5C38EF0CF
:103D68001200FC25D96EDA6A060EDA22240EDF6EFE
:103D7800FC2B240C75C0ACF176C0ADF177C0AEF168
:103D880078C0AFF13D90010E1200AC51FB27AD5148
:103D9800FB27AE51FB27AF51FB271200310EAB2595
:103DA800D96EDA6A010EDA221200896F8B6B8C6B7E
:103DB800FA0E8D6F370E8E6F370C000E0101AB2592
:103DC800D96EDA6A040EDA22DF50FB27AB2B130C0C
:103DD800140E0101AB25D96EDA6A040EDA22DF501F
:103DE800FB27AB2B130C0101AB25D96EDA6A040152
:103DF800040EDA22DF50120075C0ACF176C0ADF1C6
:103E080077C0AEF178C0AFF11200AB25D96EDA6A8F
:103E18000401040EDA22DF501200FB272E4B2F2B51
:103E2800AB2B2A0CAC6BAD6BAE6BAF6B1200DDC06D
:103E3800D9FFDEC0DAFFDECFB6F1DECFB7F1DECFD5
:103E4800B8F1DECFB9F1B6C1B8F0B7C1B9F0B8C1B1
:103E5800BAF0B9C1BBF0010E0001BD6FB40EBC6F62
:103E6800010EBF6FB30EBE6F010EC16FB20EC06FF1
:103E7800010EC36FB00EC26F85EC31F0E7B702D008
:103E88000101B46B0001E7B502D00101B36B000179
:103E9800E7B302D00101B26B0001E7B103D0010121
:103EA800B06BB16BB3C18FF0B2C190F0B0C191F0FB
:103EB800B1C192F00101B45159EC34F08FC0B6F1A0
:103EC80090C0B7F191C0B8F192C0B9F1AAD903EC8A
:103ED8003DF001E2C0D994D903EC3DF001E2B2D93A
:103EE8000001E7A75BD0E0EC3AF0DBC076F0DCC07D
:103EF80077F0DBEC3FF01E0E776F160E766FDBEC7B
:103F08003FF0756B010E09EC3CF01A0E776F460E08
:103F1800766FDBEC3FF00001756B010E09EC3CF0AD
:103F2800B6C1D0F0B7C1D1F0B8C1D2F0B9C1D3F0A1
:103F3800E7C0D4F0080ED56F7AEC35F099EC40F074
:103F48000101B56FB5AF1ED0B5511200FF0CFE0CC4
:103F580093D9610E8D6F450E8E6FC0EC3DF050D930
:103F680003EC3DF0D8E26ED9D6D77ED9610EA46FA6
:103F7800450EA56FE5EC3DF054D903EC3DF0CBE2DE
:103F88006AD9C9D7B551010A09E0030ADFE0010A75
:103F9800DEE0070ADDE0010AE8E0BDD70001E7A599
:103FA80059D0E0EC3AF0DBC076F0DCC077F0DBEC1F
:103FB8003FF01E0E776F1A0E766FDBEC3FF0756BD5
:103FC800010E09EC3CF01A0E776F460E766FDBECAB
:103FD8003FF00001756B010E09EC3CF0B6C1D0F062
:103FE800B7C1D1F0B8C1D2F0B9C1D3F0E7C0D4F0AD
:103FF800040ED56F7AEC35F099EC40F00101B56FFD
:10400800B5BFA2D71AD038D9700E8D6F420E8E6FF9
:10401800C0EC3DF0F5D803EC3DF0DBE213D9D9D77D
:1040280023D9700EA46F420EA56FE5EC3DF0F9D8C8
:1040380003EC3DF0CEE20FD9CCD7B551010A0AE026
:10404800030A01E14DD7010A82E0070ADCE0010A10
:10405800E7E0BFD70001E7A35AD0E0EC3AF0DBC0B5
:1040680076F0DCC077F0DBEC3FF01E0E776F1E0EAB
:10407800766FDBEC3FF0756B010E09EC3CF01A0E25
:10408800776F460E766FDBEC3FF00001756B010E23
:1040980009EC3CF0B6C1D0F0B7C1D1F0B8C1D2F04C
:1040A800B9C1D3F0E7C0D4F0020ED56F7AEC35F081
:1040B80099EC40F00101B56FB5BF46D71AD0DCD8EE
:1040C800800E8D6F3F0E8E6FC0EC3DF099D803ECDB
:1040D8003DF0DBE2B7D8D9D7C7D8800EA46F3F0E22
:1040E800A56FE5EC3DF09DD803EC3DF0CEE2B3D8EA
:1040F800CCD7B551010A0BE0030A01E14FD7010AF9
:1041080001E125D7070ADBE0010AE6E0BED7000196
:10411800E7A168D0E0EC3AF0DBC076F0DCC077F0DD
:10412800DBEC3FF01E0E776F110E766FDBEC3FF085
:10413800756B010E09EC3CF01A0E776F460E766F20
:10414800DBEC3FF00001756B010E09EC3CF0B6C1E9
:10415800D0F0B7C1D1F0B8C1D2F0B9C1D3F0E7C03F
:10416800D4F0010ED56F7AEC35F099EC40F00101EE
:10417800B56FB5BFE9D628D0010E00018A6FB60E1B
:10418800896FCD0E8B6FCC0E8C6F8D6F3D0E8E6F41
:10419800C0EC3DF035D803EC3DF0D4E253D8D2D78B
:1041A800010E0001A16FB60EA06FCD0EA26FCC0E4E
:1041B800A36FA46F3D0EA56FE5EC3DF032D803EC7C
:1041C8003DF0C0E248D8BED7B551010A0BE0030A5A
:1041D80001E140D7010A01E1BAD6070ACDE0010A98
:1041E800DFE0B0D7DDC0D9FFDEC0DAFF0101B6C11C
:1041F800DEFFB7C1DEFFB8C1DEFFB9C1DEFF000CCC
:10420800E3C089F0E4C08AF0E5C08BF0E6C08CF02A
:10421800B6C18DF0B7C18EF0B8C18FF0B9C190F0BA
:104228001200B6C189F0B7C18AF0B8C18BF0B9C124
:104238008CF0DFC08DF0E0C08EF0E1C08FF0E2C0FE
:1042480090F01200E3C0B6F1E4C0B7F1E5C0B8F1F0
:10425800E6C0B9F11200DFC0B6F1E0C0B7F1E1C0C5
:10426800B8F1E2C0B9F11200010E0001A16FB60E5B
:10427800A06FA26BA36B1200010E00018A6FB60E2D
:10428800896F8B6B8C6B120000013EB0FF0C000134
:10429800BFAF13D0BCC06BF0BDC06CF0BEC06DF03A
:1042A800BFC06EF042EC41F06BC01CF16CC01DF158
:1042B8006DC01EF16EC01FF108D0BCC01CF1BDC09E
:1042C8001DF1BEC01EF1BFC01FF1C3AF13D0C0C0E7
:1042D8006BF0C1C06CF0C2C06DF0C3C06EF042ECB0
:1042E80041F06BC024F16CC025F16DC026F16EC0A1
:1042F80027F108D0C0C024F1C1C025F1C2C026F101
:10430800C3C027F1B8C07EF0B9C07FF0BAC080F052
:10431800BBC081F0F7C37AF0F8C37BF0F9C37CF037
:10432800FAC37DF064EC37F07AC0AEF07BC0AFF032
:104338007CC0B0F07DC0B1F041EC39F0AEC014F1F2
:10434800AFC015F1B0C016F1B1C017F10101175196
:1043580014111511161101E1000C3D82F0C210F183
:10436800F1C211F1F2C212F1F3C213F13D9201014F
:10437800145110250401406F010115511121040148
:10438800416F0101165112210401426F01011751B9
:1043980013210401436F10C148F011C149F012C143
:1043A8004AF013C14BF00001BBAF15D0B8C06BF099
:1043B800B9C06CF0BAC06DF0BBC06EF042EC41F011
:1043C8006BC028F16CC029F16DC02AF16EC02BF1C9
:1043D80000013E820AD0B8C028F1B9C029F1BAC09C
:1043E8002AF1BBC02BF100013E921CC189F01DC10E
:1043F8008AF01EC18BF01FC18CF024C18DF025C13D
:104408008EF026C18FF027C190F0E6EC38F089C015
:1044180018F18AC019F18BC01AF18CC01BF118C1B0
:104428007EF019C17FF01AC180F01BC181F024C150
:104438007AF025C17BF026C17CF027C17DF064ECC1
:1044480037F07AC02CF17BC02DF17CC02EF17DC0F5
:104458002FF118C17EF019C17FF01AC180F01BC17D
:1044680081F02CC17AF02DC17BF02EC17CF02FC1D8
:104478007DF064EC37F07AC00CF17BC00DF17CC0A4
:104488000EF17DC00FF10CC17AF00DC17BF00EC1A9
:104498007CF00FC17DF07E6B7F6B806B3F0E816F70
:1044A80064EC37F07AC020F17BC021F17CC022F1A6
:1044B8007DC023F128C189F029C18AF02AC18BF077
:1044C8002BC18CF07E6B7F6B806B400E816F20C19F
:1044D8007AF021C17BF022C17CF023C17DF064EC2D
:1044E80037F07AC08DF07BC08EF07CC08FF07DC035
:1044F80090F003EC3DF017E228C189F029C18AF059
:104508002AC18BF02BC18CF08D6B8E6B8F6B400E9C
:10451800906FE6EC38F089C020F18AC021F18BC099
:1045280022F18CC023F120C19CF021C19DF022C151
:104538009EF023C19FF028C198F029C199F02AC1A3
:104548009AF02BC19BF0A4EC3FF098C07AF099C088
:104558007BF09AC07CF09BC07DF0F7C37EF0F8C377
:104568007FF0F9C380F0FAC381F064EC37F07AC0C9
:1045780000F17BC001F17CC002F17DC003F100C1F4
:10458800AEF001C1AFF002C1B0F003C1B1F041EC2F
:1045980039F0AEC03CF4AFC03DF4B0C03EF4B1C099
:1045A8003FF424C17EF025C17FF026C180F027C1E9
:1045B80081F0F7C37AF0F8C37BF0F9C37CF0FAC353
:1045C8007DF064EC37F060D8BD0E7E6F370E7F6FDC
:1045D800860E806F420E816F64EC37F07AC004F16A
:1045E8007BC005F17CC006F17DC007F104C1AEF0C7
:1045F80005C1AFF006C1B0F007C1B1F041EC39F028
:10460800AEC040F0AFC041F0B0C042F0B1C043F01E
:104618001CC17EF01DC17FF01EC180F01FC181F05A
:10462800F7C37AF0F8C37BF0F9C37CF0FAC37DF0E6
:1046380064EC37F029D86F0E7E6F120E7F6F030E71
:10464800806F470E816F64EC37F07AC008F17BC049
:1046580009F17CC00AF17DC00BF108C1AEF009C1B7
:10466800AFF00AC1B0F00BC1B1F041EC39F0AEC007
:1046780044F0AFC045F0B0C046F0B1C047F0FEEC22
:1046880024F000013E80000C7AC02CF17BC02DF193
:104698007CC02EF17DC02FF12CC17AF02DC17BF0AA
:1046A8002EC17CF02FC17DF01200060E0101FD6FB6
:1046B8000001CD6BCE6BCF6BD06BDBD9620E7E6FFA
:1046C800BE0E7F6F3C0E806F460E816FF7C37AF087
:1046D800F8C37BF0F9C37CF0FAC37DF064EC37F0E3
:1046E8007AC0AEF07BC0AFF07CC0B0F07DC0B1F056
:1046F80041EC39F0AEC040F0AFC041F0B0C042F07C
:10470800B1C043F077D93C9A3E903E8A00013E8A78
:1047180076EC41F0E0EC3AF01C0E776F8B0E766F7A
:10472800DBEC3FF0756B010E09EC3CF01B0E776F6C
:10473800370E766FDBEC3FF076EC41F0CC6FCC5166
:10474800030A03E1FE0EC76F34D1CC51020A02E11D
:10475800C7692FD1CC0504E1CD6BCE6BCF6BD06B85
:10476800CC51040A34E1000E8A6FCD0E896F96D9B8
:104778005CEC3AF03FEC40F075C07AF076C07BF024
:1047880077C07CF078C07DF064EC37F07AC08BF0AD
:104798007BC08CF07CC08DF07DC08EF0C0EC3DF00D
:1047A800896B8A6BB40E8B6F420E8C6FCDC08DF007
:1047B800CEC08EF0CFC08FF0D0C090F003EC3DF0AB
:1047C80006E2CD6BCE6BB40ECF6F420ED06FCC51DC
:1047D800050A34E1000EA16FCD0EA06F5FD95CEC25
:1047E8003AF03FEC40F075C07AF076C07BF077C0C5
:1047F8007CF078C07DF064EC37F07AC0A2F07BC022
:10480800A3F07CC0A4F07DC0A5F0E5EC3DF0CDC0E0
:1048180089F0CEC08AF0CFC08BF0D0C08CF08D6B01
:104828008E6BB40E8F6FC20E906F03EC3DF006E2F4
:10483800CD6BCE6BB40ECF6FC20ED06FCCAF03D0A2
:10484800CCC0C7F0B6D0060E756F010E09EC3CF06F
:10485800CDC0B8F0CEC0B9F0CFC0BAF0D0C0BBF070
:10486800020EBC6FBD6F010EBE6F98EC2FF03EA21A
:1048780052D00001D0AF31D0F7C37EF0F8C37FF03B
:10488800F9C380F0FAC381F0CDC06BF0CEC06CF0F4
:10489800CFC06DF0D0C06EF042EC41F06BC07AF042
:1048A8006CC07BF06DC07CF06EC07DF064EC37F0BE
:1048B800B3D864EC37F07AC0AEF07BC0AFF07CC000
:1048C800B0F07DC0B1F041EC39F0DED802D021EC77
:1048D8001CF000013CA26AD0FAD7000EBDD803EC48
:1048E8003DF010E2010EB1D802D021EC1CF000011D
:1048F8003CB2FBD700013CB059D03E9A3E9A7AD8D8
:104908003E9247D0010EA1D802D021EC1CF0000144
:104918003CA24CD0FAD7000E00019ED803EC3DF023
:1049280027E2CDC07EF0CEC07FF0CFC080F0D0C0EF
:1049380081F0F7C37AF0F8C37BF0F9C37CF0FAC3CF
:104948007DF064EC37F068D864EC37F07AC0AEF0EC
:104958007BC0AFF07CC0B0F07DC0B1F041EC39F065
:1049680093D802D021EC1CF000013CA21FD0FAD74A
:10497800D0AF14D0010E69D802D021EC1CF0000190
:104988003CB2FBD700013CB011D03E9A3E9A32D8D7
:104998003E826FD83E8A00013E8A08D0010E55D863
:1049A80002D021EC1CF000013CB2FBD721EC1CF03A
:1049B800C3D6E0EC3AF01D0E776F0A0E766FDBEC8B
:1049C8003FF0010E0401446F000E456F466F476FBC
:1049D8003C8202D021EC1CF000013CB2FBD7000164
:1049E8003CB005D03E9A3E9A0001C751120021EC16
:1049F8001CF0E7D74C6A4D6A4E6A4F6A0201F46BA5
:104A0800F56BF66BF76BE86BE96BEA6BEB6BEC6BD2
:104A1800ED6BEE6BEF6B12007AC0C8F07BC0C9F08B
:104A28007CC0CAF07DC0CBF06F0E7E6F120E7F6F18
:104A3800030E806F470E816FC8C07AF0C9C07BF043
:104A4800CAC07CF0CBC07DF0470C0401446F456BB5
:104A5800466B476B3C82000C896B8A6B8B6B8C6B4B
:104A6800CDC08DF0CEC08EF0CFC08FF0D0C090F00A
:104A780012003D82F0C248F0F1C249F0F2C24AF099
:104A8800F3C24BF03D921200AEC044F4AFC045F4FF
:104A9800B0C046F4B1C047F43C821200CD0E7E6F20
:104AA800CC0E7F6F4C0E806F3D0E816F3D0C756B89
:104AB800766B010E72EC3CF0D1C089F0D2C08AF05E
:104AC800D3C08BF0D4C08CF08D6B400E8E6F1C0E53
:104AD8008F6F460E906F03EC3DF012E2896B400E2B
:104AE8008A6F1C0E8B6FC60E8C6FCDC08DF0CEC03A
:104AF8008EF0CFC08FF0D0C090F003EC3DF002E311
:104B0800050E4FD089D97A0E8F6F440E906F03EC43
:104B18003DF011E2896B8A6B7A0E8B6FC40E8C6F35
:104B2800CDC08DF0CEC08EF0CFC08FF0D0C090F049
:104B380003EC3DF002E3040E34D06ED9C80E8F6F3B
:104B4800420E906F03EC3DF011E2896B8A6BC80E40
:104B58008B6FC20E8C6FCDC08DF0CEC08EF0CFC0E3
:104B68008FF0D0C090F003EC3DF002E3030E19D0B3
:104B780053D9200E8F6F410E906F03EC3DF010E279
:104B8800896B8A6B200E8B6FC10E8C6FCDC08DF038
:104B9800CEC08EF0CFC08FF0D0C090F003EC3DF0C7
:104BA800020ED96FD5C089F0D6C08AF0D7C08BF075
:104BB800D8C08CF08D6B8E6B800E8F6F3F0E906F10
:104BC80003EC3DF002E3DA6B53D0D5C089F0D6C0D0
:104BD8008AF0D7C08BF0D8C08CF0CD0E8D6FCC0E7C
:104BE8008E6F8F6F3D0E906F03EC3DF002E3010E68
:104BF8003ED0D5C089F0D6C08AF0D7C08BF0D8C0D7
:104C08008CF00A0E8D6FD70E8E6F230E8F6F3C0EB1
:104C1800906F03EC3DF002E3020E29D0D5C089F075
:104C2800D6C08AF0D7C08BF0D8C08CF06F0E8D6FCD
:104C3800120E8E6F830E8F6F3A0E906F03EC3DF05D
:104C480002E3030E14D0D5C089F0D6C08AF0D7C0CD
:104C58008BF0D8C08CF0170E8D6FB70E8E6FD10EFB
:104C68008F6F380E906F03EC3DF002E3040EDA6F9D
:104C7800CBC0D9FFCCC0DAFFDECFDCF0DECFDDF071
:104C8800DECFDEF0DECFDFF0E0EC3AF0C7C076F042
:104C9800C8C077F0DBEC3FF0756B010E09EC3CF017
:104CA800C6D898EC2FF0C9C076F0CAC077F0DBEC14
:104CB8003FF0756B010E09EC3CF0B9D898EC2FF079
:104CC80099EC40F0DB6FDBAF97D0DB511200CBC023
:104CD800D9FFCCC0DAFFDCC0DEFFDDC0DEFFDEC0FE
:104CE800DEFFDFC0DEFF756B766B010E72EC3CF009
:104CF800000CFE0CFF0C000E8A6FDC0E896FD5C00D
:104D08007EF0D6C07FF0D7C080F0D8C081F05CECD0
:104D18003AF03FEC40F075C07AF076C07BF077C08F
:104D28007CF078C07DF064EC37F07AC08BF07BC003
:104D38008CF07CC08DF07DC08EF0C0EC3DF0D1C011
:104D480089F0D2C08AF0D3C08BF0D4C08CF0DCC01C
:104D58008DF0DDC08EF0DEC08FF0DFC090F003EC88
:104D68003DF0A7E2D1C0DCF0D2C0DDF0D3C0DEF068
:104D7800D4C0DFF09ED7000EA16FDC0EA06FD5C0A7
:104D88007EF0D6C07FF0D7C080F0D8C081F05CEC50
:104D98003AF03FEC40F075C07AF076C07BF077C00F
:104DA8007CF078C07DF064EC37F07AC0A2F07BC06C
:104DB800A3F07CC0A4F07DC0A5F0E5EC3DF0DCC01C
:104DC80089F0DDC08AF0DEC08BF0DFC08CF0CDC08A
:104DD8008DF0CEC08EF0CFC08FF0D0C090F003EC35
:104DE8003DF001E366D7CDC0DCF0CEC0DDF0CFC02A
:104DF800DEF0D0C0DFF05DD7DB51010A01E167D7F3
:104E0800030A01E177D7010A01E173D7070A01E133
:104E180072D7010AB0E04DD7D1C089F0D2C08AF06C
:104E2800D3C08BF0D4C08CF08D6B8E6B1200DCC0BD
:104E3800B8F0DDC0B9F0DEC0BAF0DFC0BBF0D9C051
:104E4800BCF0DAC0BDF0010EBE6F010C0101BC6BF5
:104E5800030EFD6FE0EC3AF01B0E776FEC0E766FE9
:104E6800DBEC3FF049C475F04AC476F06DEC40F0D5
:104E780075C0C5F176C0C6F177C0C7F178C0C8F172
:104E8800C5C138F1C6C139F1C7C13AF1C8C13BF152
:104E980001013C6B3D6BB40E3E6F420E3F6FE0EC80
:104EA8002BF011D021EC1CF076EC41F00101CD6F14
:104EB800CD51030A03E1FE0EBC6F78D1CDAF03D00C
:104EC800CDC1BCF173D100013EB0ECD751C47AF02A
:104ED80052C47BF053C47CF054C47DF000017E6B57
:104EE8007F6BB40E806F430E816F64EC37F07AC02D
:104EF800C1F17BC0C2F17CC0C3F17DC0C4F1040123
:104F08004B51020A08E10101C16B4E0EC26FED0E52
:104F1800C36F4A0EC46F04014C6712D0C1C16BF055
:104F2800C2C16CF0C3C16DF0C4C16EF042EC41F077
:104F38006BC0C1F16CC0C2F16DC0C3F16EC0C4F1E9
:104F4800CAEC3CF079EC3EF075C0C5F176C0C6F10C
:104F580077C0C7F178C0C8F13D92010E00018A6F91
:104F6800C50E896FFBC38BF0FCC38CF0FDC38DF0BD
:104F7800FEC38EF09BEC3DF0C5C175F0C6C176F05E
:104F8800C7C177F0C8C178F0C1C179F0C2C17AF061
:104F9800C3C17BF0C4C17CF010EC33F075C0B0F134
:104FA80076C0B1F177C0B2F178C0B3F1E0EC3AF075
:104FB8001A0E776F700E766FDBEC3FF004014B51E1
:104FC800020A12E1E0EC3AF01C0E776F6D0E766F74
:104FD800DBEC3FF0756B010E09EC3CF01B0E776FB4
:104FE800B80E766FDBEC3FF00001896B8A6B800EA0
:104FF8008B6F3F0E8C6F59C48DF05AC48EF05BC412
:105008008FF05CC490F0E6EC38F089C0B8F18AC043
:10501800B9F18BC0BAF18CC0BBF176EC41F0C1C1DB
:1050280030F1C2C131F1C3C132F1C4C133F159C445
:1050380034F15AC435F15BC436F15CC437F1C1ECC4
:105048003FF0B2D0CAEC3CF079EC3EF075C0BDF14F
:1050580076C0BEF177C0BFF178C0C0F13D92010EB5
:1050680000018A6FBD0E896FFBC38BF0FCC38CF007
:10507800FDC38DF0FEC38EF09BEC3DF0B0C198F0FF
:10508800B1C199F0B2C19AF0B3C19BF0BDC19CF017
:10509800BEC19DF0BFC19EF0C0C19FF0A4EC3FF01F
:1050A80098C0C9F199C0CAF19AC0CBF19BC0CCF1A4
:1050B8000101CCAF12D0C9C16BF0CAC16CF0CBC131
:1050C8006DF0CCC16EF042EC41F06BC0C9F16CC020
:1050D800CAF16DC0CBF16EC0CCF1C9C17AF0CAC1BA
:1050E8007BF0CBC17CF0CCC17DF0B8C17EF0B9C1FA
:1050F8007FF0BAC180F0BBC181F064EC37F07AC0B0
:10510800B4F17BC0B5F17CC0B6F17DC0B7F1010E3A
:1051180000018A6FC90E896F1B0E8B6F0F0E8C6F83
:10512800360E8D6F3B0E8E6F9BEC3DF004014B519C
:10513800020A2EE00B0E0001756F000E09EC3CF020
:10514800B4C1D0F0B5C1D1F0B6C1D2F0B7C1D3F077
:105158000E0ED46F000ED56B7AEC35F0756B010E20
:1051680009EC3CF0C9C1B8F0CAC1B9F0CBC1BAF07A
:10517800CCC1BBF0050EBC6F020EBD6F000EBE6B3E
:1051880098EC2FF01D0E776F310E766FDBEC3FF049
:1051980076EC41F00101CD6FCD51030A01E18BD6C8
:1051A800CDBF8ED621EC1CF03EB04CD73E9000010E
:1051B8003C8AE0EC3AF01D0E776F0A0E766FDBEC56
:1051C8003FF021EC1CF03E903C8A010E0001916FEB
:1051D800F40E906F85EC41F03C9A0101BC5112002D
:1051E8007CAF0DD02D0E9EEC3AF0796D7A1FD8B0B9
:1051F8007A2B7B1FD8B07B2B000E7C5705D07E51B5
:1052080003E02B0E9EEC3AF079C06BF07AC06CF09C
:105218007BC06DF07CC06EF06F6BCA0E706F9A0E1B
:10522800716F3B0E726F88EC38F033D96F6BCA0E12
:10523800706F9A0E716F3B0E726F4FEC3DF03AD95A
:10524800090E7D6503D07F519EEC3AF079C06BF072
:105258007AC06CF07BC06DF07CC06EF06F6BE10EB5
:10526800706FF50E716F050E726F88EC38F011D9FA
:105278006F6BE10E706FF50E716F050E726F4FEC6C
:105288003DF018D9080E7D6503D07F519EEC3AF0A9
:1052980079C06BF07AC06CF07BC06DF07CC06EF0AA
:1052A800800E6F6F960E706F980E716F000E726B96
:1052B80088EC38F0EED8800E6F6F960E706F980EEF
:1052C800716F000E726B4FEC3DF0F4D8070E7D65E0
:1052D80003D07F519EEC3AF079C06BF07AC06CF045
:1052E8007BC06DF07CC06EF0400E6F6F420E706F29
:1052F8000F0E716F000E726B88EC38F0CAD8400E32
:105308006F6F420E706F0F0E716F000E726B4FEC65
:105318003DF0D0D8060E7D6503D07F519EEC3AF063
:1053280079C06BF07AC06CF07BC06DF07CC06EF019
:10533800A00E6F6F860E706F010E716F000E726B8C
:1053480088EC38F0A6D8A00E6F6F860E706F010E2D
:10535800716F000E726B4FEC3DF0ACD8050E7D6599
:1053680003D07F519EEC3AF079C06BF07AC06CF0B4
:105378007BC06DF07CC06EF0100E6F6F270E706FE3
:10538800000E716B726B88EC38F083D8100E6F6F5B
:10539800270E706F000E716B726B4FEC3DF08AD860
:1053A800040E7D6503D07F519EEC3AF079C06BF016
:1053B8007AC06CF07BC06DF07CC06EF0E80E6F6F49
:1053C800030E706F000E716B726B88EC38F061D849
:1053D800E80E6F6F030E706F000E716B726B4FECFF
:1053E8003DF068D8030E7D6503D07F519EEC3AF0FE
:1053F80079C06BF07AC06CF07BC06DF07CC06EF049
:10540800640E6F6F000E706B716B726B88EC38F006
:1054180040D8640E6F6F000E706B716B726B4FEC3F
:105428003DF048D8020E7D6503D07F519EEC3AF0DE
:1054380079C06BF07AC06CF07BC06DF07CC06EF008
:105448000A0E6F6F000E706B716B726B88EC38F020
:1054580020D80A0E6F6F000E706B716B726B4FEC79
:105468003DF028D8010E7D6503D07F519EEC3AF0BF
:1054780079C07FF07AC080F07BC081F07CC082F078
:10548800300E7F27000E8023812382237F519EEFD9
:105498003AF06BC07FF06CC080F06DC081F06EC0D8
:1054A80082F07FC06BF080C06CF081C06DF082C06C
:1054B8006EF012006B51795F6C517A5B6D517B5BBA
:1054C8006E517C5B300E7F27000E80238123822360
:1054D800000C0001BAAF13D0B7C06BF0B8C06CF0C5
:1054E800B9C06DF0BAC06EF042EC41F06BC0DBF0B1
:1054F8006CC0DCF06DC0DDF06EC0DEF008D0B7C067
:10550800DBF0B8C0DCF0B9C0DDF0BAC0DEF0DBC05B
:105518007AF0DCC07BF0DDC07CF0DEC07DF07E6B15
:105528007F6B806B3F0E816F64EC37F07AC0BBF005
:105538007BC0BCF07CC0BDF07DC0BEF0EDC389F07F
:10554800EEC38AF0EFC38BF0F0C38CF0E9C38DF0A3
:10555800EAC38EF0EBC38FF0ECC390F0E6EC38F0C2
:1055680089C0DFF08AC0E0F08BC0E1F08CC0E2F0C7
:1055780012D964EC37F0E0D864EC37F0F6D864EC74
:1055880037F07AC0CBF07BC0CCF07CC0CDF07DC0CA
:10559800CEF0BBC089F0BCC08AF0BDC08BF0BEC0E5
:1055A8008CF0CBC08DF0CCC08EF0CDC08FF0CEC0CB
:1055B80090F003EC3DF035E2DBC089F0DCC08AF006
:1055C800DDC08BF0DEC08CF0E9C38DF0EAC38EF04D
:1055D800EBC38FF0ECC390F0E6EC38F089C0A6F08E
:1055E8008AC0A7F08BC0A8F08CC0A9F0BEEC33F03D
:1055F800A6C0DFF0A7C0E0F0A8C0E1F0A9C0E2F0C3
:10560800CAD864EC37F098D864EC37F0AED864ECBC
:1056180037F07AC0CBF07BC0CCF07CC0CDF07DC039
:10562800CEF0E9C37AF0EAC37BF0EBC37CF0ECC3BD
:105638007DF0DFC07EF0E0C07FF0E1C080F0E2C026
:1056480081F064EC37F07AC0BFF07BC0C0F07CC05A
:10565800C1F07DC0C2F0DBC098F0DCC099F0DDC0BD
:105668009AF0DEC09BF07E6B7F6B806B400E816F83
:10567800CBC07AF0CCC07BF0CDC07CF0CEC07DF042
:1056880064EC37F07AC09CF07BC09DF07CC09EF043
:105698007DC09FF0A4EC3FF098C0C3F099C0C4F05F
:1056A8009AC0C5F09BC0C6F0C3C089F0C4C08AF0D8
:1056B800C5C08BF0C6C08CF0BFC08DF0C0C08EF0E6
:1056C800C1C08FF0C2C090F0E6EC38F089C0C7F0D6
:1056D8008AC0C8F08BC0C9F08CC0CAF0DFC07AF0AD
:1056E800E0C07BF0E1C07CF0E2C07DF07E6B7F6BB8
:1056F800806B400E816F64EC37F07AC0D7F07BC0C6
:10570800D8F07CC0D9F07DC0DAF0000E8A6FD70ED1
:10571800896FC7C08BF0C8C08CF0C9C08DF0CAC0F3
:105728008EF0C0EC3DF0D7C0B7F0D8C0B8F0D9C003
:10573800B9F0DAC0BAF012007AC0CFF07BC0D0F06E
:105748007CC0D1F07DC0D2F0DFC07EF0E0C07FF039
:10575800E1C080F0E2C081F0CFC07AF0D0C07BF029
:10576800D1C07CF0D2C07DF012007AC0D3F07BC0EB
:10577800D4F07CC0D5F07DC0D6F0D3C07AF0D4C0C8
:105788007BF0D5C07CF0D6C07DF07E6B7F6B806BE4
:105798003F0E816F3F0CDFC07EF0E0C07FF0E1C0BC
:1057A80080F0E2C081F0E9C37AF0EAC37BF0EBC392
:1057B8007CF0ECC37DF012003FAF13D03CC16BF01E
:1057C8003DC16CF03EC16DF03FC16EF042EC41F05E
:1057D8006BC0C8F06CC0C9F06DC0CAF06EC0CBF029
:1057E80008D03CC1C8F03DC1C9F03EC1CAF03FC1B4
:1057F800CBF001013BAF25D038C1DCF02AD907D066
:10580800000E8A6FDC0E74EC36F0C0EC3DF0DCC0A4
:1058180089F0DDC08AF0DEC08BF0DFC08CF00001BB
:105828008D6B8E6BB40E8F6FC30E906F03EC3DF0D3
:10583800E7E3000E8A6FDC0E74EC36F0C0EC3DF046
:1058480022D038C1DCF005D90CD0000EA16FDC0ED7
:10585800A06FA26BA36BB40EA46F430EA56FE5EC0B
:105868003DF00001896B8A6BB40E8B6F430E8C6F11
:10587800DCC08DF0DDC08EF0DEC08FF0DFC090F0B0
:1058880003EC3DF0E2E303EC36F0A6C0D8F0A7C085
:10589800D9F0A8C0DAF0A9C0DBF0D8C089F0D9C027
:1058A8008AF0DAC08BF0DBC08CF0DCC08DF0DDC094
:1058B8008EF0DEC08FF0DFC090F003EC3DF039E2EF
:1058C800DCC098F0DDC099F0DEC09AF0DFC09BF034
:1058D800D8C09CF0D9C09DF0DAC09EF0DBC09FF024
:1058E800A4EC3FF098C0CCF099C0CDF09AC0CEF0AF
:1058F8009BC0CFF0DCC09CF0DDC09DF0DEC09EF008
:10590800DFC09FF09FD8A4EC3FF08BD8D8C079F0C7
:10591800D9C07AF0DAC07BF0DBC07CF010EC33F051
:1059280075C0D0F076C0D1F077C0D2F078C0D3F08F
:1059380038D0D8C09CF0D9C09DF0DAC09EF0DBC04A
:105948009FF080D8A4EC3FF06CD8DCC079F0DDC0C3
:105958007AF0DEC07BF0DFC07CF010EC33F075C06D
:10596800CCF076C0CDF077C0CEF078C0CFF0D8C0FC
:1059780098F0D9C099F0DAC09AF0DBC09BF0DCC08F
:105988009CF0DDC09DF0DEC09EF0DFC09FF0A4EC6F
:105998003FF098C0D0F099C0D1F09AC0D2F09BC027
:1059A800D3F0CCC089F0CDC08AF0CEC08BF0CFC088
:1059B8008CF0D0C08DF0D1C08EF0D2C08FF0D3C0A3
:1059C80090F003EC3DF009E2CCC030F1CDC031F1EC
:1059D800CEC032F1CFC033F11AD0D0C06BF0D1C0F5
:1059E8006CF0D2C06DF0D3C06EF042EC41F06BC0E9
:1059F800C4F06CC0C5F06DC0C6F06EC0C7F0C4C0BE
:105A080030F1C5C031F1C6C032F1C7C033F1C8C0EA
:105A180034F1C9C035F1CAC036F1CBC037F1C1EF96
:105A28003FF098C0D4F099C0D5F09AC0D6F09BC08A
:105A3800D7F0D4C075F0D5C076F0D6C077F0D7C00F
:105A480078F01200986B996BB40E9A6F430E9B6FA7
:105A5800430C39C1DDF03AC1DEF03BC1DFF0120082
:105A6800BAAF08D0B7C07AF019D9BF0E816F64EC0D
:105A780037F007D0B7C07AF011D93F0E816F64ECC8
:105A880037F07AC0CFF07BC0D0F07CC0D1F07DC0B9
:105A9800D2F0BEAF08D0BBC07AF00AD9BF0E816F72
:105AA80064EC37F007D0BBC07AF002D93F0E816FA3
:105AB80064EC37F07AC0D3F07BC0D4F07CC0D5F06A
:105AC8007DC0D6F0896B8A6B800E8B6F450E8C6F0C
:105AD800D3C08DF0D4C08EF0D5C08FF0D6C090F072
:105AE80003EC3DF01BE2CFC089F0D0C08AF0D1C0F2
:105AF8008BF0D2C08CF0D3C08DF0D4C08EF0D5C05E
:105B08008FF0D6C090F0E6EC38F089C0B7F08AC0C4
:105B1800B8F08BC0B9F08CC0BAF01200D3C07EF0D8
:105B2800D4C07FF0D5C080F0D6C081F0D3C07AF061
:105B3800D4C07BF0D5C07CF0D6C07DF064EC37F0E3
:105B48007AC098F07BC099F07CC09AF07DC09BF039
:105B5800E9C38DF0EAC38EF0EBC38FF0ECC390F08D
:105B68007E6B7F6B806B400E816FCFC07AF0D0C0A8
:105B78007BF0D1C07CF0D2C07DF064EC37F07AC005
:105B880089F07BC08AF07CC08BF07DC08CF0E6EC9D
:105B980038F089C09CF08AC09DF08BC09EF08CC004
:105BA8009FF0A4EC3FF098C0C7F099C0C8F09AC025
:105BB800C9F09BC0CAF0CAAF08D0000EB76FB86F63
:105BC800800EB96FBF0EBA6FBF0CC7C0A6F0C8C0B1
:105BD800A7F0C9C0A8F0CAC0A9F0BEEC33F0A6C0AF
:105BE800C3F0A7C0C4F0A8C0C5F0A9C0C6F0D3C010
:105BF80098F0D4C099F0D5C09AF0D6C09BF0C3C035
:105C08009CF0C4C09DF0C5C09EF0C6C09FF0A4EC37
:105C18003FF098C0BFF099C0C0F09AC0C1F09BC0D7
:105C2800C2F0E9C37AF0EAC37BF0EBC37CF0ECC3C3
:105C38007DF0BFC07EF0C0C07FF0C1C080F0C2C0A0
:105C480081F064EC37F07AC0CBF07BC0CCF07CC03C
:105C5800CDF07DC0CEF0EDC389F0EEC38AF0EFC37E
:105C68008BF0F0C38CF0CBC08DF0CCC08EF0CDC0E3
:105C78008FF0CEC090F003EC3DF007E2000EB76F56
:105C8800B86FB96FC00EBA6FC00CCBC0B7F0CCC03C
:105C9800B8F0CDC0B9F0CEC0BAF01200B8C07BF0F1
:105CA800B9C07CF0BAC07DF07E6B7F6B806B120050
:105CB800BCC07BF0BDC07CF0BEC07DF07E6B7F6B4E
:105CC800806B12000201E56BE46B68EC3FF08B908F
:105CD8008A904C6A4D6A4E6A4F6A0201E86BE96B1A
:105CE800EA6BEB6BEC6BED6BEE6BEF6BE66B280E18
:105CF8000201E625D96EDA6A040EDA22DF68E62B9D
:105D08000F0EE665F4D727EC40F099EC3BF075EC04
:105D18003DF0E0EC3AF01C0E776F4E0E766FDBEC40
:105D28003FF0756B010E09EC3CF01D0E776F4B0EC2
:105D3800766FDBEC3FF0070E916FD00E906F85EC1D
:105D480041F01D0E0201C96FA10EC86F1C0ECB6F6A
:105D58009A0ECA6F1D0ECD6FAD0ECC6F1C0ECF6F95
:105D68008B0ECE6F1B0ED16FFD0ED06F1D0ED36F35
:105D7800580ED26F1A0ED56FEA0ED46FC8C2D6F27B
:105D8800C9C2D7F2CAC2D8F2CBC2D9F2CEC2DAF2AD
:105D9800CFC2DBF2CCC2DCF2CDC2DDF2D0C2DEF281
:105DA800D1C2DFF2D2C2E0F2D3C2E1F2D4C2E2F24F
:105DB800D5C2E3F200013C8AE0EC3AF01A0E776FA4
:105DC800300E766FDBEC3FF0756B010E09EC3CF0A2
:105DD8001C0E776F7C0E766FDBEC3FF055EC41F0D4
:105DE8003C8602D021EC1CF000013CB6FBD7000138
:105DF800916B0A0E906F85EC41F000013C9AE0EC43
:105E08003AF0010E0101FD6F020E0001926FD60EED
:105E1800916F060E936FE5C294F055EC32F00201D3
:105E2800E76F5FD0E56B12EC0FF00201E76FE75107
:105E3800FE0AD8B459EC23F00201E729D8B459EC8A
:105E480023F00201E751800A820F4BE3DAD7010EF3
:105E5800E56F06EC16F00201E76FE751800A820F42
:105E680040E3E7AFCED759EC23F038D0030EE56F07
:105E7800CBEC37F00201E76FE729C3E0E751FE0AF0
:105E8800C0E0E751800A820F2CE3E7C2E4F2E45154
:105E980020EC3BF023D0E56B59EC23F01FD0E56BE9
:105EA80019EC3AF01BD0E56BF1EC34F0AAD7E56BAE
:105EB800BDEC12F013D0010E20EC3BF00FD0020E17
:105EC80020EC3BF00BD0030E20EC3BF007D0040E87
:105ED80020EC3BF003D0050E20EC3BF00201E76F0D
:105EE800B1D7E7519FE0010AB2E0030AD4E0010A02
:105EF800BDE0070AD4E0010AD6E0030AD8E0C30AE5
:105F0800D2E0030AD4E0010AC6E00F0AA0E0010AC1
:105F180089E0030AE0E0010ADAE0070AD4E0010AAE
:105F2800CEE0030AC8E06DD7B8C0AEF0B9C0AFF094
:105F3800BAC0B0F0BBC0B1F041EC39F0AEC0BFF0B0
:105F4800AFC0C0F0B0C0C1F0B1C0C2F0BE5119E0DE
:105F5800C251BF11C011C11114E1BBAF04D02D0E45
:105F68009EEC3AF003D02B0E9EEC3AF0000E796BC3
:105F78007A6B7B6B7C6BBCC07DF07E6BF4EC28F09D
:105F88000ED0BFC079F0C0C07AF0C1C07BF0C2C0EB
:105F98007CF0BCC07DF0BEC07EF0F4EC28F0000EB2
:105FA800A16FB80EA06FBFC075F0C0C076F0C1C0B9
:105FB80077F0C2C078F079EC3EF075C0A2F076C0F8
:105FC800A3F077C0A4F078C0A5F0E5EC3DF0BBAF36
:105FD80017D0000E986B996B9A6B9B6BB8C09CF0AE
:105FE800B9C09DF0BAC09EF0BBC09FF0A4EC3FF0D2
:105FF80098C0B8F099C0B9F09AC0BAF09BC0BBF08D
:10600800000E8A6FB80E896F8B6B500E8C6FC30EA3
:106018008D6F470E8E6F9BEC3DF0B8C0AEF0B9C0E7
:10602800AFF0BAC0B0F0BBC0B1F041EC39F0AEC0CF
:10603800C3F0AFC0C4F0B0C0C5F0B1C0C6F0BD5128
:10604800D8B412002E0E9EEC3AF0BD0514E1C3C080
:106058006BF0C4C06CF0C5C06DF0C6C06EF0100E19
:106068006F6F270E706F000E716B726B88EC38F0D3
:1060780056D8010E50D0BD51020A14E1C3C06BF0CE
:10608800C4C06CF0C5C06DF0C6C06EF0E80E6F6F8E
:10609800030E706F000E716B726B88EC38F03FD88E
:1060A800020E39D0BD51030A13E1C3C06BF0C4C05E
:1060B8006CF0C5C06DF0C6C06EF0640E6F6F000E58
:1060C800706B716B726B88EC38F029D8030E23D093
:1060D800BD51040A13E1C3C06BF0C4C06CF0C5C065
:1060E8006DF0C6C06EF00A0E6F6F000E706B716BAC
:1060F800726B88EC38F013D8040E0DD0BD51050A28
:10610800D8A41200C3C079F0C4C07AF0C5C07BF02F
:10611800C6C07CF0050E7D6F7E6BF4EF28F06BC077
:10612800C3F06CC0C4F06DC0C5F06EC0C6F0C3C08B
:1061380079F0C4C07AF0C5C07BF0C6C07CF012000C
:10614800F7CF67F0F8CF68F0F5CF69F0FE0ED76E9D
:10615800830ED66EF294ACA201D001D015D0000106
:10616800F051D8B401D001D00FD00601000E0101C2
:10617800FC25D96EDA6A0601060EDA22DF50AD6E0A
:106188000101FC2B0001F007AB30E832010B0001E4
:10619800606FAB30010B60110009D8B401D001D099
:1061A8000DD0AB9800F0AB88AECF6AF0AECF6AF0F6
:1061B8000001EE6B00013B9E00013B9C9EAA01D0B2
:1061C80001D032D0AECF6AF000016A51400AD8A49B
:1061D80001D001D005D0EE6B00013B9E00013B8C45
:1061E80000016A51230AD8A401D001D004D00001CB
:1061F8003B8E00013B9C0001EE29D8A401D001D0C0
:1062080001D0EE6B00013BAC01D001D00DD00701ED
:10621800000E0001EE25D96EDA6A0701070EDA22B0
:1062280000016AC0DFFFEE2B0001F251D8B401D0A3
:1062380001D002D0F20702D0070EF26F00013BAA8C
:1062480001D001D009D00301E6510001F26101D06B
:1062580001D002D08A8201D08A92000100013E7CDE
:106268000001D890EB37D890EB378050030BEB1335
:106278000F0EEB17200EEB25F66EF76A1A0EF722B3
:10628800F86A000EF8220800F550606F000E60BF33
:10629800FF0E616F626F636F60510401C05F0001A0
:1062A80061510401C15B000162510401C25B00013C
:1062B80063510401C35B00013CA601D001D007D0A3
:1062C80000013C960401C06BC16BC26BC36B00013B
:1062D8003DB201D001D008D0C0C4F0F2C1C4F1F27F
:1062E800C2C4F2F2C3C4F3F269C0F5FF68C0F8FF94
:1062F80067C0F7FF66C0F6FF65C0DAFF64C0D9FF64
:106308001100B8C0CCF0B9C0CDF0BAC0CEF0BBC057
:10631800CFF0CCC07AF0CDC07BF0CEC07CF0CFC03F
:106328007DF0BB0E7E6FA20E7F6F910E806F390ECF
:10633800816F64EC37F088D841EC39F0AE51BCC0BD
:10634800D9FFBDC0DAFFDF6EBCC0D9FFBDC0DAFF20
:10635800DF503FEC40F089D8610E8D6F450E8E6F8F
:106368009BEC3DF091D8E5EC3DF0CCC07AF0CDC087
:106378007BF0CEC07CF0CFC07DF0890E7E6F880E9A
:106388007F6F806F3C0E816F64EC37F05DD841EC15
:1063980039F0AE51BEC0D9FFBFC0DAFFDF6EBEC054
:1063A800D9FFBFC0DAFFDF503FEC40F05ED8700E77
:1063B8008D6F420E8E6F9BEC3DF066D8E5EC3DF09C
:1063C800CCC0AEF0CDC0AFF0CEC0B0F0CFC0B1F011
:1063D80041EC39F0AE51C0C0D9FFC1C0DAFFDF6E61
:1063E800000EA16FCC0EA06FC0C0D9FFC1C0DAFFEC
:1063F800DF503FEC40F075C0A2F076C0A3F077C044
:10640800A4F078C0A5F0E5EC3DF0000E8A6FCC0E44
:10641800896F8B6B8C6B7A0E8D6F440E8E6F9BEC35
:106428003DF0CCC0AEF0CDC0AFF0CEC0B0F0CFC024
:10643800B1F041EC39F0C2C0D9FFC3C0DAFFAEC039
:10644800DEFFAFC0DDFF12007AC0C4F07BC0C5F02C
:106458007CC0C6F07DC0C7F0C4C0AEF0C5C0AFF008
:10646800C6C0B0F0C7C0B1F0120075C0C8F076C0A1
:10647800C9F077C0CAF078C0CBF0000E8A6FC80E9A
:10648800896F8B6B8C6B1200000EA16FCC0EA06F06
:10649800C8C0A2F0C9C0A3F0CAC0A4F0CBC0A5F080
:1064A8001200986B9A6B94C09AF0756B010E766F18
:1064B80072EC3CF0E0EC3AF098512DE0010E756F6B
:1064C800000E09EC3CF09A670FD09351020DF3507F
:1064D8009125D96E000E9221DA6EDECF76F0DDCFEF
:1064E80077F0DBEC3FF008D09A51020DF3CF95F02E
:1064F800FE0E77D8DBEC3FF0756B010E09EC3CF033
:106508002A0E9EEC3AF05AD8DBEC3FF0756B010E80
:1065180009EC3CF023D02A0E9EEC3AF04FD8DBEC85
:106528003FF0010E756F09EC3CF06DD80BE191C09E
:10653800D9FF92C0DAFFDECF76F0DDCF77F0DBEC63
:106548003FF008D09A51020DF3CF95F0020E49D8CA
:10655800DBEC3FF0000E756B09EC3CF099EC40F079
:10656800996F99AF18D099C09AF021D09A691FD025
:10657800FE0E9A6F1CD0010E986F45D803E193C0A8
:106588009AF098D79A2B96D7986B9A6702D09A6BFD
:1065980091D79A078FD79951010A09E0030AE6E0D3
:1065A800010AE6E0070AE7E0010AEEE083D7756B27
:1065B800766B010E72EC3CF09A5112009A51020D62
:1065C800F3509125956FE86AF3BEE8689221966FBB
:1065D80095C0D9FF96C0DAFFDECF76F0DDCF77F031
:1065E8001200952795519125966FE86A95BFE8683E
:1065F8009221976F96C0D9FF97C0DAFFDECF76F069
:10660800DDCF77F0120093519AC095F0966B95BF45
:106618009607951996111200000177357835806F25
:106628007B357C357F6F805109E07F5180610FD0C9
:1066380080517F5D7D6F210E7D5D09E379C075F026
:106648007AC076F07BC077F07CC078F012007F517A
:1066580009E080517F610FD07F51805D7D6F210EF1
:106668007D5D09E375C075F076C076F077C077F088
:1066780078C078F01200060E7E6F78BF7E8F7CBFE0
:106688007E8D778F786B7B8F7C6B7F51806119D083
:10669800D89079377A377B377C377F077F518019D5
:1066A8000CE07E0700017E51070B07E0F1D7D89078
:1066B8007833773376337533802B7F518063F7D700
:1066C8001BD080517F6118D0D890753776377737CF
:1066D800783780077F5180190CE07E0700017E51D2
:1066E800070B07E0F1D7D8907C337B337A337933C3
:1066F8007F2B7F518063F7D77EAF09D0751F761F38
:10670800771F781F752B000E7623772378237EADAD
:1067180002D0791F26D87E6B7551792776517A2356
:1067280077517B2378517C237CAF04D0791F19D80B
:10673800010E7E6F79C06BF07AC06CF07BC06DF093
:106748007CC06EF080C06FF07EC070F02AEC38F02C
:106758006BC075F06CC076F06DC077F06EC078F0E5
:1067680012007A1F7B1F7C1F792B000E7A237B2354
:106778007C23000C000E896B8A6B8B6B8C6BA6C01C
:106788008DF0A7C08EF0A8C08FF0A9C090F003ECE0
:106798003DF005E3A66BA76BA86BA96B1200A6C01A
:1067A800AAF0A7C0ABF0A8C0ACF0A9C0ADF0A65144
:1067B8005E08B36FC80EA755B46F6E0EA855B56FB7
:1067C800BE0EA955B66FD890B633B533B433B333CC
:1067D800D880000EAB5B800EAC5B000EAD5B040E88
:1067E800AE6FB3C07AF0B4C07BF0B5C07CF0B6C071
:1067F8007DF0AAC07EF0ABC07FF0ACC080F0ADC029
:1068080081F064EC37F07AC0AFF07BC0B0F07CC0A8
:10681800B1F07DC0B2F03CD89BEC3DF039D89BEC90
:106828003DF0000E8A6FB30E896F8B6B8C6BC00EB8
:106838008D6F3F0E8E6F9BEC3DF0000EA16FB30E77
:10684800A06FAFC0A2F0B0C0A3F0B1C0A4F0B2C0B6
:10685800A5F0E5EC3DF0AE2FC4D7B3C07AF0B4C0D4
:106868007BF0B5C07CF0B6C07DF0A6C07EF0A7C0B6
:106878007FF0A8C080F0A9C081F064EC37F07AC03E
:10688800A6F07BC0A7F07CC0A8F07DC0A9F01200DC
:10689800000E8A6FAF0E896FB3C08BF0B4C08CF056
:1068A800B5C08DF0B6C08EF01200E8CF93F00001AD
:1068B800935186D8100E6F6F0E0E706F000E716BAD
:1068C800726B4FEC3DF067D879EC3EF075C08BF0F9
:1068D80076C08CF077C08DF078C08EF0C0EC3DF0BB
:1068E8008F516ED83C0E6F6F000E706B716B726BB0
:1068F8004FEC3DF050D879EC3EF075C08BF076C087
:106908008CF077C08DF078C08EF0C0EC3DF0000EB2
:106918008A6F9C0E896F90513FEC40F075C08BF0E8
:1069280076C08CF077C08DF078C08EF0C0EC3DF06A
:1069380091C075F092C076F086EC3FF075C094F087
:1069480076C095F077C096F078C097F0000E8A6F01
:10695800940E896F6F0E8B6F120E8C6F830E8D6F76
:106968003A0E8E6F9BEC3DF0000E8A6F9C0E896F7D
:1069780094C08BF095C08CF096C08DF097C08EF0C7
:10698800C0EC3DF09CC08FF09DC090F09EC091F08F
:106998009FC092F012006BC098F06CC099F06DC067
:1069A8009AF06EC09BF0000E8A6F9C0E896F98C09B
:1069B80075F099C076F09AC077F09BC078F0120015
:1069C800986F996B9A6B9B6B98C06BF099C06CF041
:1069D8009AC06DF09BC06EF01200070E0101FD6FAA
:1069E800E0EC3AF01D0E776F5E0E766FDBEC3FF051
:1069F800000E756B766B72EC3CF03E863B860001B0
:106A08003BB6FDD721EC1CF076EC41F09D6F9D5113
:106A1800800A820F1BE262D0D5EC3CF089C099F065
:106A28008AC09AF08BC09BF08CC09CF0000E8A6FD5
:106A3800990E896F8B6B400E8C6F9C0E8D6F450E77
:106A48008E6FC0EC3DF0966B976B09D09D51030A91
:106A5800E3E09869980700019829D4E0FBD721EC76
:106A68001CF076EC41F09D6F9D51800A820F36E351
:106A7800D5EC3CF089C091F08AC092F08BC093F0BD
:106A88008CC094F099C089F09AC08AF09BC08BF0B2
:106A98009CC08CF091C08DF092C08EF093C08FF0A6
:106AA80094C090F003EC3DF0A9E30DD0964B972BE2
:106AB8009751800A800F090ED8B4965D0FE208D06E
:106AC800966B976B05D09D51040AF0E0010AF8E037
:106AD8009869980700019829C2E0FBD7756B766B17
