:0410000078EF0CF089
:10100800D9CF64F0DACF65F0F6CF66F051EF30F063
:10101800D8CF19F0E8CF1AF0E0CF1BF0D9CF1CF0E9
:10102800DACF1DF0F6CF1EF0F7CF1FF0F8CF20F083
:10103800F5CF21F0830ECF6E1A0ECE6E9E90010E64
:101048000301CC27000ECD23000ECE23000ECF23A4
:1010580000013DB801D001D008D0CCC3F8F2CDC30F
:10106800F9F2CEC3FAF2CFC3FBF200013EAE01D0D3
:1010780001D00FD00301CC51D05DCD51D159CE5103
:10108800D259CF51D359D8B001D001D002D00001E4
:101098003E9E51505010D8B401D001D008D050060F
:1010A800D8A0510600013EA601D001D003D000010E
:1010B8003B9A02D000013B8AD8905B36D8905B36C9
:1010C8008138E8461F0B030B5B120F0E5B16840E6C
:1010D8005B24F66EF76A190EF722F86A000EF822FA
:1010E8000800F550595E5C2A5C28D8A401D001D0CC
:1010F80004D05C6A596A00013C845950800A7D0F0B
:10110800D8A001D001D00FD0040E586E00013B8248
:10111800E7C350F0E8C351F000013B805CC054F0D5
:10112800556A5C6A596A5950800A820FD8B001D052
:1011380001D00FD0050E586E00013B82E7C350F076
:10114800E8C351F000013B805CC054F0556A5C6A0A
:10115800596A81B401D001D007D0564A572AE7C34B
:1011680050F0E8C351F016D0020E565C000E5758E6
:10117800D8A001D001D00CD0C80E565C000E57582C
:10118800D8B001D001D004D0010E586E00013B82C6
:10119800566A576AB10E565C040E5758D8A001D04B
:1011A80001D001D0FF005704900ED8B45618D8A427
:1011B80001D001D004D0030E586E00013B82565076
:1011C800C80A5710D8A401D001D004D0020E586E16
:1011D80000013B8200013BA601D001D009D00001EB
:1011E8003B92586A0001EF6B00013B9600013D9A63
:1011F80000013DBA01D001D012D000013BA201D0BC
:1012080001D004D058C0EFF000013B9200013FA08C
:1012180001D001D004D000013F905DC0EFF0000183
:101228003DB601D001D017D000013BA001D001D0BC
:1012380012D00401280E5A24D96EDA6A040EDA2272
:1012480054C0DFFF5A2A0F0E5A6401D001D001D0D2
:101258005A6A00013B9000013D82F0C233F0F1C2AE
:1012680034F0F2C235F0F3C236F000013D920001CD
:101278003EA001D001D0CFD000013C9A4C500401CF
:101288003C5D4D503D594E503E594F503F59D8B096
:1012980001D001D024D040500201F45F4150F55BE9
:1012A8004250F65B4350F75B4050F45D4150F559AE
:1012B8004250F6594350F759D8B001D001D060D008
:1012C80040C4C8F341C4C9F342C4CAF343C4CBF30E
:1012D800F46BF56BF66BF76B00013E9051D0445000
:1012E8000201F45D4550F5594650F6594750F759F3
:1012F800D8B001D001D01CD04050F4274150F5237C
:101308004250F6234350F723F451445CF5514558B5
:10131800F6514658F7514758D8B001D001D008D0F7
:1013280044C0F4F245C0F5F246C0F6F247C0F7F201
:10133800F451445CF5514558F6514658F751475811
:10134800D8B001D001D01CD04050F45F4150F55BBB
:101358004250F65B4350F75B4450F45D4550F559F5
:101368004650F6594750F759D8B001D001D008D0A7
:1013780044C0F4F245C0F5F246C0F6F247C0F7F2B1
:101388000201F451E827F551E923F651EA23F75110
:10139800EB23F451E85DF551E959F651EA59F75153
:1013A800EB59D8B001D001D008D0010EEC27000EBF
:1013B800ED23000EEE23000EEF23EBC24CF0ECC23F
:1013C8004DF0EDC24EF0EEC24FF000013EA001D04C
:1013D80001D0D2D000013EA201D001D00ED04C5095
:1013E800485C0301C86F4D504958C96F4E504A5860
:1013F800CA6F4F504B58CB6FBFD048504C24030195
:10140800C86F49504D20C96F4A504E20CA6F4B5083
:101418004F20CB6FB1D000013CAA01D001D009D038
:1014280033C0C8F334C0C9F335C0CAF336C0CBF3F0
:10143800A3D000013EAA01D001D09ED000013CA259
:1014480001D001D00AD000013C9244C444F045C404
:1014580045F046C446F047C447F044500201F45DE5
:101468004550F5594650F6594750F759D8B001D06C
:1014780001D020D000013C8040500201F4274150A7
:10148800F5234250F6234350F723F451445CF551B9
:101498004558F6514658F7514758D8B001D001D0B1
:1014A80040D044C0F4F245C0F5F246C0F6F247C059
:1014B800F7F237D0F451445CF5514558F651465887
:1014C800F7514758D8B001D001D029D000013C804D
:1014D80040500201F45D4150F5594250F6594350CD
:1014E800F759D8B001D001D005D0F46BF56BF66B85
:1014F800F76B08D04050F45F4150F55B4250F65B03
:101508004350F75B4450F45D4550F5594650F65941
:101518004750F759D8B001D001D003D0C2D7000145
:101528003C900201F451E827F551E923F651EA23EA
:10153800F751EB23F451E85DF551E959F651EA59B1
:10154800F751EB59D8B001D001D008D0010EEC27E3
:10155800000EED23000EEE23000EEF23EBC24CF03D
:10156800ECC24DF0EDC24EF0EEC24FF000013EA2CB
:1015780001D001D042D733D7C4CF37F0386A3750BB
:10158800386E376AC3503726000E3822C2825E5042
:10159800375C266E5F503858276E040E126E27345B
:1015A80027322632122EFBD726505E2627505F227E
:1015B80037505E5C38505F58D8B001D001D002D0A7
:1015C8005E4A5F2A5E50375C5F503858D8B001D009
:1015D80001D003D05E06D8A05F0600013DB001D05F
:1015E80001D004D05EC0FCF25FC0FDF20301D85107
:1015F8005E5CD9515F58D8B001D001D002D000014B
:101608003D8C33500401385D296E345039592A6EA7
:1016180033C038F434C039F435C03AF436C03BF43A
:101628002AAE01D001D004D0296C2A1ED8B02A2AAB
:101638000301DCC301F0026A29C003F02AC004F0E8
:101648002CEC40F001C037F002C038F0DD513726ED
:10165800000E3822000E375C010E3858D8A001D091
:1016680001D004D0000E386EFF0E376E5EC012F047
:101678005FC013F0040E146ED89013321232142E79
:10168800FBD71250286EDAC301F0DBC302F028C082
:1016980003F0046AB3EC3DF001C024F002C025F069
:1016A80037C02FF038C030F0316A326A24C00DF0EC
:1016B80025C00EF00F6A106A2F0ED8EC3DF0060E0A
:1016C800126ED8903232313230322F32122EF9D790
:1016D800000E2F5C040E3058000E3158000E3258A0
:1016E800D8A001D001D000D0FF0E2F6E030E306EAF
:1016F800000E316E000E326E3350C85D2B6E3450C2
:10170800C9592C6E3550CA592D6E3650CB592E6E8C
:10171800F1C312F0F2C313F0000E13BEFF0E146EE5
:10172800156E1550800A166E2B50125C2C501358EB
:101738002D5014582E50800A1658D8B001D001D018
:101748000ED023EEF1F0DECF2BF0DDCF2CF0000E23
:101758002CBEFF0E2D6E2E6E00013D8E37D023EE6F
:10176800F1F0DECF12F0DDCF13F0121E131E124A75
:10177800132A12C014F013C015F0000E15BEFF0E88
:10178800166E176E2E50800A186E14502B5C15506A
:101798002C5816502D581750800A1858D8B001D018
:1017A80001D014D023EEF1F0DECF12F0DDCF13F02C
:1017B800121E131E124A132A12C02BF013C02CF04B
:1017C800000E2CBEFF0E2D6E2E6EC6D752502B5C0F
:1017D800226E53502C58236E2BC052F02CC053F05D
:1017E800F3C301F0F4C302F02BC003F02CC004F0E3
:1017F8002CEC40F001C039F002C03AF0F5C301F01A
:10180800F6C302F022C003F023C004F02CEC40F031
:101818000150392602503A223AAE01D001D007D001
:101828008B908A80396C3A1ED8B03A2A02D08B80C5
:101838008A9039C012F03AC013F0000E13BEFF0EA2
:10184800146E156E12502F5C1350305814503158C6
:1018580015503258D8B001D001D004D02FC039F07B
:1018680030C03AF000013EA601D001D00CD08B90D8
:101878008A90396A3A6A33C0C8F334C0C9F335C0AC
:10188800CAF336C0CBF33A50800A7D0F850ED8B420
:10189800395CD8A001D001D004D0030E3A6EFF0EF7
:1018A800396E3950FF08396E3A50D8A0E82A030833
:1018B8003A6E3A343A3239323A343A32393239C0F5
:1018C800BCFF21C0F5FF20C0F8FF1FC0F7FF1EC0F6
:1018D800F6FF1DC0DAFF1CC0D9FF1BC0E0FF1AC00D
:1018E800E8FF19C0D8FF100029EF36F0000000000B
:1018F80000000000000000000000000000000000E0
:1019080000000000000000000000000000000000CF
:1019180000000000000000000000000000010203B9
:10192800040506070809000000000000000A0B0C67
:101938000D0E0F000000000000000000000A0B0C54
:101948000D0E0F0000000000000000000000000065
:10195800000000000000000000000000000000007F
:1019680000000000000000000000000030313233A9
:1019780034353637383941424344454600FF010083
:10198800010000FFFF0000010001FF004D4F564518
:1019980020544F205A45524F2044454752454553FD
:1019A800000020202020202020202020202020206F
:1019B80020202020200000524F544154494F4E20EF
:1019C800444952454354494F4E3A000052554E4EF1
:1019D800494E473A20542D48483A4D4D3A53530002
:1019E8000054494D4520464F5220414C4C204F52FF
:1019F8004249545300004359434C4520434F554EE8
:101A0800543A303D494E462E00004457454C4C2030
:101A18004F4E20504F494E542023303000004D4146
:101A28005820574159504F494E5453204841564524
:101A380000004D4F564520544F204E4558542050D5
:101A48004F494E54000045585445524E414C20438E
:101A580054524C204D4F444500004D4F56494E4777
:101A680020544F20504F494E54202300002B5858E3
:101A78005858DF205448454E20434C49434B0000FA
:101A880041444420414E4F5448455220504F494EFE
:101A9800543F0053504545443A2058582E5858DF73
:101AA8002F536563000050524F4752414D20454E19
:101AB80044204D4F44453A0000434F554E5445523B
:101AC80020434C4F434B5749534500004457454C1E
:101AD8004C204F4E20504F494E54202300004D4F6C
:101AE80056494E4720544F204F524947494E00000F
:101AF8004241545445525920564F4C544147453A57
:101B080000004D4F564520544F2053544152542EF7
:101B18002E2E0000494E46494E4954452052554EF6
:101B280054494D450000494E46494E4954452043C5
:101B380059434C4553000054494D452050455220C7
:101B48004F524249543A00004D4F56494E4720548F
:101B58004F20535441525400004241545445525965
:101B680020564F4C5441474500004457454C4C20A3
:101B78004F4E2053544152540000544F54414C206E
:101B880052554E54494D453A000054494D45205050
:101B98004552204F5242495400004259204F524268
:101BA800495420434F554E54000043494E45464C36
:101BB8005558204F524249540000425920544F541E
:101BC800414C2054494D4500004F5242495420523F
:101BD800554E4E494E4700005448454E20434C4907
:101BE800434B2E2E2E00005245414C54494D452062
:101BF8004D4F44450000574159504F494E54204DD0
:101C08004F4445000054524156454C2054494D45D7
:101C18003A000050524553455420534C4F543A0013
:101C2800004F524249542053504545443A00004F12
:101C380052424954204C494D49543A00004E4556A9
:101C4800455220454E44494E470000455854455298
:101C58004E414C204D4F4445004457454C4C205470
:101C6800494D453A000053544F5050494E472E2E87
:101C78002E00005448454E20434C49434B2E00004B
:101C880052554E2050524F4752414D000020524568
:101C9800562052454D41494E00005341564520506B
:101CA80052455345540000312E302E3134303134F2
:101CB8002E360000474F20544F20534C45455000C6
:101CC800004C4F4F50204D4F44453F000042454582
:101CD8004E20414444454400002D4F52424954206F
:101CE80020202000002D454D505459202020200050
:101CF800002D574159504F494E542000004F524231
:101D08004954204D4F4445000052554E20505245ED
:101D1800534554000050524553455420303100007B
:101D28004F4E452D5741590000414354494F4E3AB3
:101D380000004359434C45200000424F554E43454F
:101D4800000020564F4C545300004D414E55414C15
:101D580000003C4E4F3E2000003C5945533E0000D9
:101D680053504545440000204F462000003C6D7309
:101D78003E003C483E003C4D3E003C533E000000C7
:101D8800020E0101FD6F1A0ED36FC90ED26F1A0E23
:101D9800D56FC10ED46FD4C1ECF1D5C1EDF1D2C16C
:101DA800EEF1D3C1EFF11D0ED76F520ED66F1B0E99
:101DB800D96F970ED86F190EDB6FEE0EDA6FD6C19A
:101DC800F4F1D7C1F5F1D8C1F6F1D9C1F7F1DAC10B
:101DD800F8F1DBC1F9F11B0EDD6FA20EDC6F1B0EF3
:101DE800DF6FC20EDE6F1C0EE16F450EE06FDCC1C7
:101DF800E6F1DDC1E7F1DEC1E8F1DFC1E9F1E0C1FB
:101E0800EAF1E1C1EBF11C0EE36F880EE26F1C0EE4
:101E1800E56FA20EE46FE2C1F0F1E3C1F1F1E4C1B4
:101E2800F2F1E5C1F3F189EC3AF01B0E776F0A0E77
:101E3800766F84EC3FF0756B010EB2EC3BF01C0E34
:101E4800776F7B0E766F84EC3FF000013C8AFEECE6
:101E580040F00101FA6F3C9AFAAF02D0FA51120031
:101E6800B0EC35F0A6C0AEF0A7C0AFF0A8C0B0F097
:101E7800A9C0B1F0EAEC38F0AEC049F4AFC04AF4FA
:101E8800010E0001926FEC0E916F010E936F190E07
:101E9800956FBF0E946F4CC496F039EC39F0010180
:101EA800FA6FFA29C0E0FA51FE0A01E1FE0CFABF06
:101EB800D5D7FAC14CF4010E0001926FE60E916F6E
:101EC800020E936F1A0E956FAE0E946F4BC496F078
:101ED80039EC39F00101FA6FFA29D2E0FA51FE0A19
:101EE800E5E0FABFBBD7FAC14BF413D251C489F06D
:101EF80052C48AF053C48BF054C48CF000018D6B2B
:101F08008E6B800E8F6F3F0E906FACEC3CF007E24B
:101F18000401516B526B800E536F3F0E546F0001DA
:101F2800896BC00E8A6F790E8B6F440E8C6F51C40B
:101F38008DF052C48EF053C48FF054C490F0ACECC2
:101F48003CF008E20401516BC00E526F790E536FDA
:101F5800440E546F1C0E0001C86F370EC76F190E60
:101F6800CA6FBE0EC96F040ECC6F510ECB6FCD6B0E
:101F7800CE6B800ECF6F3F0ED06FD16BC00ED26F7D
:101F8800790ED36F440ED46FD56BD66B800ED76F96
:101F98003F0ED86F08EC25F00101FA6FFA298BE0A3
:101FA800FA51FE0A83E0FABF59D70001896B8A6BA0
:101FB800800E8B6F3F0E8C6F51C48DF052C48EF023
:101FC80053C48FF054C490F0ACEC3CF010E2010E16
:101FD8000001926FF40E916F020E936F1C0E956FB5
:101FE800290E946F5DC496F039EC39F004D0010ED7
:101FF80044DA39EC39F00101FA6FFA2901E176D7B0
:10200800FA51FE0A01E152D7FABF28D7A3D0FAD96C
:10201800ACEC3CF001E23EDABCD908EC25F0010159
:10202800FA6FFA29C2E0FA51FE0A01E13FD77AD1E4
:1020380005DAACEC3CF001E246DA1B0E0001DC6F7D
:10204800920ECBD9C8EC1EF0FA6FFA29AEE0FA511D
:10205800FE0A01E12BD7000101DA8FEC38F04BD1F1
:1020680055C489F056C48AF057C48BF058C48CF014
:1020780000017E6B7F6B800E806F400E816F51C4B4
:102088007AF052C47BF053C47CF054C47DF00DEC5C
:1020980037F07AC08DF07BC08EF07CC08FF07DC0A9
:1020A80090F0ACEC3CF00BE2FFD90DEC37F07AC0C5
:1020B80055F47BC056F47CC057F47DC058F4F4D96D
:1020C8000DEC37F07AC0CEF17BC0CFF17CC0D0F1F7
:1020D8007DC0D1F1190EDC6FE90EDB6F040E000133
:1020E800DE6F550EDD6FCEC1DFF0CFC1E0F0D0C19D
:1020F800E1F0D1C1E2F098D9C8EC1EF0FA6FFA29E4
:1021080001E153D7FA51FE0A01E1D0D600017E6BF6
:102118007F6BB40E806F430E816F51C47AF052C446
:102128007BF053C47CF054C47DF00DEC37F07AC0DA
:1021380089F07BC08AF07CC08BF07DC08CF055C4E0
:102148008DF056C48EF057C48FF058C490F08FECC1
:1021580038F0D1D0FA5101E15AD7010A01E168D724
:10216800030A01E17DD7DED01B0E0001DC6F820E71
:10217800DB6F040EDE6F4D0EDD6FDF6BE06B800EE4
:10218800E16F3F0EE26F50D9C8EC1EF0FA6FFA29E2
:1021980001E191D6FA51FE0A01E188D6FABF5ED66E
:1021A800010E6BD939EC39F00101FA6FFA29DCE03C
:1021B800FA51FE0A01E17AD6FABF50D631D022D9B7
:1021C800ACEC3CF001E266D9E4D808EC25F001015A
:1021D800FA6FFA29E5E0FA51FE0A01E167D624D040
:1021E8002DD9ACEC3CF001E26ED91B0E0001DC6F7E
:1021F8003F0EF3D8C8EC1EF0FA6FFA29D1E0FA5175
:10220800FE0A01E153D6000129D98FEC38F089C0C4
:1022180059F48AC05AF48BC05BF48CC05CF404D0C7
:10222800FA51CDE0010ADCE04DC47EF04EC47FF0E7
:102238004FC480F050C481F059C47AF05AC47BF07E
:102248005BC47CF05CC47DF00DEC37F07AC089F09B
:102258007BC08AF07CC08BF07DC08CF08D6B8E6B60
:10226800B40E8F6F430E906F8FEC38F089C051F425
:102278008AC052F48BC053F48CC054F453D0010E6E
:10228800FCD839EC39F00101FA6FFA2901E113D6CB
:10229800FA51FE0A01E10AD6FABFE0D535D0B2D824
:1022A800ACEC3CF001E2F6D874D808EC25F001015A
:1022B800FA6FFA29E4E0FA51FE0A01E1F7D5FABF0C
:1022C800CDD530D0BBD8ACEC3CF001E2FCD81B0E2D
:1022D8000001DC6F3F0E81D8C8EC1EF0FA6FFA29B6
:1022E800CEE0FA51FE0A01E1E1D5FABFB7D5000107
:1022F800B5D88FEC38F089C059F48AC05AF48BC02D
:102308005BF48CC05CF40ED0FA51C9E0010ADAE043
:1023180009D004014B5101E1E9D5010A01E124D7B3
:10232800030AADE0010E0001926FF00E916F010EED
:10233800936F1D0E956F310E946F000E966B39ECEE
:1023480039F00101FA6FFA2901E1D0D5FA51FE0AF4
:1023580001E1ACD5FABF82D5FA6702D0D7EF26F0F3
:1023680074EC37F00101FA6FFA29DCE0FA51FE0A41
:1023780001E19CD5FABF72D5020E0401486F040E24
:102388000001746F480E736F0101FA51FFEC3FF0C2
:10239800C9D71D0E0001C86F680EC76F1A0ECA6F25
:1023A800A70EC96F040ECC6F590ECB6F0A0ECD6FF6
:1023B800D70ECE6F230ECF6F3C0ED06FD16BD26B82
:1023C800B40ED36F420ED46F0A0ED56FD70ED66FE8
:1023D800230ED76F3C0ED86F3C0CDB6F040EDE6FFC
:1023E800550EDD6FDF6BE06B800EE16F400EE26F24
:1023F800E36BC00EE46FA80EE56F470EE66F0E0E96
:10240800E76F0E0C59C489F05AC48AF05BC48BF08C
:102418005CC48CF00A0E00018D6FD70E8E6F230EF0
:102428008F6F3C0E906F3C0CE36BC00EE46FA80EF0
:10243800E56F470EE66F0E0EE76F0E0C55C489F078
:1024480056C48AF057C48BF058C48CF000018D6BC9
:102458008E6B800E8F6F400E906F400C896B8A6B6D
:10246800B40E8B6F430E8C6F55C48DF056C48EF02E
:1024780057C48FF058C490F0430C0001926FF40ECB
:10248800916F010E936F1C0E956F290E946F5DC4AA
:1024980096F012000A0E0401596FD70E5A6F230ED8
:1024A8005B6F3C0E5C6F3C0C51C47AF052C47BF0FD
:1024B80053C47CF054C47DF07E6B7F6B800E806FBC
:1024C800400E816F400C0401556B566B800E576FA0
:1024D800400E586F400C080E0101FD6F536B526B94
:1024E8003B88546B516B89EC3AF01C0E776F530E96
:1024F800766F84EC3FF01FEC41F0D76FD751030A99
:1025080001E1A4D24FD03E903C9A3E9A56D006DBC9
:102518003CB2FED73CB051D00101546B4ED03EB016
:102528004CD0010E3CD03EB048D001015351020DB1
:1025380014DB0001DECF71F0DDCF72F0C3EC40F0A8
:102548000101532B040E2CD03EBE37D0010152514D
:10255800536301D0E6D75351020DF8DA0001DECFFC
:1025680075F0DDCF76F02FEC3FF075C04DF176C0F9
:102578004EF177C04FF178C050F101015351020D6F
:10258800D7DA0001DECF75F0DDCF76F016EC40F03B
:102598006ADAE1EC2CF080DA6AEC3FF0030E010114
:1025A800546F0BD001015451AEE0010AB0E0030AA8
:1025B800B6E0010AB8E0070AC7E000013BAE9BD7C6
:1025C8000101FB6B010E0001ED6F00013B9E6BECFE
:1025D8003EF00101FE198FE16BEC3EF00101556FF1
:1025E8001DD26BEC3EF00101566F6BEC3EF0010121
:1025F800576F6BEC3EF00101586F6BEC3EF0010138
:10260800596F56C138F157C139F158C13AF159C11A
:102618003BF16DDA6BEC3EF00101566F6BEC3EF06E
:102628000101576F6BEC3EF00101586F6BEC3EF007
:102638000101596F56C13CF157C13DF158C13EF1F6
:1026480059C13FF154DA6BEC3EF00101566F6BEC67
:102658003EF00101576F6BEC3EF00101586F6BECD7
:102668003EF00101596F56C140F157C141F158C1BF
:1026780042F159C143F13BDA6BEC3EF00101FB1921
:1026880006E1010E516F555158EC40F034D757DA36
:102698009EEC3FF030D7516708D0010E00016D6FF6
:1026A800010155519EEC3FF026D7545108E0020E27
:1026B80000016D6F010155519EEC3FF01CD738C1E8
:1026C800B8F039C1B9F03AC1BAF03BC1BBF03CC16E
:1026D800BCF03DC1BDF03EC1BEF03FC1BFF040C13E
:1026E800C0F041C1C1F042C1C2F043C1C3F0F5EC32
:1026F80020F00101516B020E546F555158EC40F017
:10270800FAD6545102E0010E546F555158EC40F07E
:10271800F2D6FC6B3FEC1EF0240EDF6EFC2B5551FD
:10272800AFEC3EF05451AFEC3EF05451FB27515101
:10273800AFEC3EF05151FB2773EC3CF022EC3EF03D
:1027480075C056F176C057F177C058F178C059F185
:102758003D92D6D944EC3DF001015651AFEC3EF024
:102768005751AFEC3EF05851AFEC3EF05951AFEC39
:102778003EF0ABD9566B576B586B596B12D0F4C2FD
:1027880075F0F5C276F0F6C277F0F7C278F0B8ECDB
:102798003FF075C056F176C057F177C058F178C050
:1027A80059F1F4C275F0F5C276F0F6C277F0F7C2C7
:1027B80078F0B8EC3FF001015951000178190EE1A9
:1027C800010158510001771909E101015751000130
:1027D800761904E10101565100017519D0E1010E85
:1027E80000018A6F560E86EC1EF044EC3DF088D945
:1027F80044EC3DF001015651AFEC3EF05751AFECBF
:102808003EF05851AFEC3EF05951AFEC3EF05DD977
:1028180000013D88F8C275F0F9C276F0FAC277F087
:10282800FBC278F0B8EC3FF075C056F176C057F1AE
:1028380077C058F178C059F13D98010E00018A6FB0
:10284800560E896F6F0E8B6F120E8C6F030E8D6F85
:102858003B0E8E6F44EC3DF001015651AFEC3EF05B
:102868005751AFEC3EF05851AFEC3EF05951AFEC38
:102878003EF02BD900013D80FCC275F0FDC276F018
:1028880016EC40F075C056F176C057F177C058F194
:1028980078C059F13D90010E00018A6F560E896F7C
:1028A800E2C38BF0E3C38CF0E4C38DF0E5C38EF094
:1028B80044EC3DF001015651AFEC3EF05751AFECFE
:1028C8003EF05851AFEC3EF05951AFEC3EF0FDD818
:1028D800FB51AFEC3EF03FEC1EF0230EDF6EFC2BFD
:1028E800FCC14CF1FC6B4CC1EEF005D65451030A07
:1028F80003E05451040A08E1010E00016D6F010163
:1029080055519EEC3FF0F7D5536B526B555158EC2F
:1029180040F0F1D55451030A03E05451040A08E188
:10292800010E00016D6F010155519EEC3FF0E3D59A
:10293800630E526508D0020E00016D6F01015551FA
:102948009EEC3FF0D8D56BEC3EF00101566F6BEC76
:102958003EF0C4D8FBD856C1DEFF57C1DDFF6BEC93
:102968003EF00101566F6BEC3EF0B8D8E1D856C185
:10297800DEFF57C1DDFF6BEC3EF00101566F6BECDB
:102988003EF0ACD8EAD856C1DEFF57C1DDFF6BEC8C
:102998003EF00101FB1906E1555158EC40F00101E8
:1029A800522BA9D5CCD89EEC3FF0A5D5545108E0C0
:1029B800010E00016D6F010155519EEC3FF09BD552
:1029C800536B00C375F001C376F02FEC3FF075C070
:1029D8004DF176C04EF177C04FF178C050F100C884
:1029E80075F001C876F016EC40F03DD8E1EC2CF01B
:1029F80053D86AEC3FF0030E0101546F555158EC5F
:102A080040F079D5555158EC40F020D0FE0E000129
:102A18006D6F010155519EEC3FF06DD55551600A1F
:102A280001E1DFD5010A01E136D6030A01E169D6E1
:102A3800010A01E16ED6070A01E158D7010A01E14E
:102A480069D7030AB3E0E60ADDE0E0D767D806D025
:102A580001014C694C0701014C29FCE13CB0F8D755
:102A680000013B98000C75C048F176C049F177C069
:102A78004AF178C04BF14DC1B7F04EC1B8F04FC123
:102A8800B9F050C1BAF048C1BBF049C1BCF04AC165
:102A9800BDF04BC1BEF01200B7C044F1B8C045F15B
:102AA800B9C046F1BAC047F14DC130F14EC131F15C
:102AB8004FC132F150C133F144C134F145C135F150
:102AC80046C136F147C137F112005651FB2757511D
:102AD800FB275851FB275951FB2712000101576F5B
:102AE8005651FB275751FB275251020D12005951DD
:102AF800FB275851FB275751FB275651FB2712003C
:102B0800010E00018A6F560E896FFBC38BF0FCC360
:102B18008CF0FDC38DF0FEC38EF012003E903C9AFF
:102B28003E8A0401446B456B466B476B3C8212003E
:102B3800000EF324D96EDA6A080EDA221200516BFD
:102B4800FA0E00016D6F010155511200000EF324B9
:102B5800D96EDA6A030EDA221200000EF324D96E57
:102B6800DA6A020EDA221200040E0101FD6FE56B2B
:102B7800E66BE76BE86BDA6B0501036B1D0E010171
:102B8800C76F280EC66F1D0EC96F420EC86FC6C12B
:102B9800CEF1C7C1CFF1C8C1D0F1C9C1D1F11C0E66
:102BA800CB6F880ECA6F1C0ECD6FA20ECC6FCAC138
:102BB800D2F1CBC1D3F1CCC1D4F1CDC1D5F1E96B00
:102BC800EA6BEB6BEC6BF36BF46BF56BF66BE36B2F
:102BD800E46BDF6BE06BE16BE26BDB6BDC6BDD6B9B
:102BE800DE6BEF6BF06BF16BF26BF76B89EC3AF025
:102BF8001B0E776F0A0E766F84EC3FF0756B010E33
:102C0800B2EC3BF01C0E776F7B0E766F84EC3FF0D6
:102C180000013C8AFEEC40F00101F86FF8AF02D0E9
:102C2800F851120000013C9AB0EC35F0A6C0AEF0A5
:102C3800A7C0AFF0A8C0B0F0A9C0B1F0EAEC38F076
:102C4800AEC001F5AFC002F54FEC3CF08FC0D6F135
:102C580090C0D7F191C0D8F192C0D9F11C0EDC6FA9
:102C6800610EDB6F010E00017CDAC8EC1EF0F86F14
:102C7800F851FE0A01E1FE0CF829A1E0F8BFD0D70F
:102C8800EFC1AEF0F0C1AFF0F1C1B0F0F2C1B1F0F8
:102C9800EAEC38F0AEC04FF5AFC050F5D2D189ECB0
:102CA8003AF01A0E776F3A0E766F84EC3FF0756B38
:102CB800010EB2EC3BF01A0E776F750E766F84EC4E
:102CC8003FF03C8A3B8602D0D3EC1BF000013BB6B8
:102CD800FBD70101F86B96D0D3EC1BF04FEC3CF01E
:102CE8008FC0DBF190C0DCF191C0DDF192C0DEF164
:102CF800DBC198F0DCC199F0DDC19AF0DEC19BF030
:102D0800D6C19CF0D7C19DF0D8C19EF0D9C19FF023
:102D18004DEC3FF098C0DFF199C0E0F19AC0E1F1C5
:102D28009BC0E2F1DFC1AEF0E0C1AFF0E1C1B0F0AD
:102D3800E2C1B1F0EAEC38F0AEC0E3F1AFC0E4F1C3
:102D4800756B010EB2EC3BF0E3C179F00001E4C110
:102D58007AF0000E7ABFFF0E7B6F7C6F040E7D6FDA
:102D6800010E7E6FA1EC28F03D8AEFC0F8F13D9A84
:102D78000101F851030A03E100013C9AFE0CF851E5
:102D8800020A07E13C9A0101F76701D018D7F70753
:102D980086D7F851050A18E13B863C9A0101306B49
:102DA800316B800E326FBF0EECD96AEC3FF002D067
:102DB800D3EC1BF000013EB0FBD73C8A02D0D3EC29
:102DC8001BF000013BB6FBD70101F851040A17E1DB
:102DD8003B863C9A306B316B800E326F3F0ED1D9F7
:102DE8006AEC3FF002D0D3EC1BF000013EB0FBD7F9
:102DF8003C8A02D0D3EC1BF000013BB6FBD70101A3
:102E0800F8BF0ED7F80501E067D73C9A0101F751E2
:102E1800020D070EF324D96EDA6A050EDA22E3C131
:102E2800DEFFE4C1DDFFDFC1B7F0E0C1B8F0E1C10A
:102E3800B9F0E2C1BAF01AEC2AF0B7C0F3F1B8C0A1
:102E4800F4F1B9C0F5F1BAC0F6F1F3C1AEF0F4C1CE
:102E5800AFF0F5C1B0F0F6C1B1F0EAEC38F0AEC0B1
:102E6800EDF1AFC0EEF1010E0001A16FF30EA06FFE
:102E7800EDC175F0EEC176F016EC40F075C0A2F029
:102E880076C0A3F077C0A4F078C0A5F08EEC3DF032
:102E9800000E896B8A6B8B6B8C6BF3C18DF0F4C160
:102EA8008EF0F5C18FF0F6C190F0ACEC3CF00DE27D
:102EB800010E0101ED250001756F000E0101EE21E3
:102EC8000001766F16EC40F006D0EDC175F0EEC14A
:102ED80076F016EC40F075C0F3F176C0F4F177C0E7
:102EE800F5F178C0F6F11C0E0001DC6F0D0EDB6FFA
:102EF800010EDE6FE90EDD6FF3C1DFF0F4C1E0F023
:102F0800F5C1E1F0F6C1E2F0E36BE4697F0EE56F2D
:102F1800470EE66F0E0EE76FC8EC1EF0F86FF8511B
:102F2800FE0A01E1A8D6F82901E1B9D6F8BF78D69A
:102F3800E9C1AEF0EAC1AFF0EBC1B0F0ECC1B1F05D
:102F4800EAEC38F00101F751020D2B0EF324D96E8B
:102F5800DA6A050EDA22AEC0DEFFAFC0DDFF1C0E56
:102F68000001DC6F610EDB6F010EFBD8C8EC1EF0B0
:102F7800F86FF851FE0A01E17ED6F829B4E0F8BFEF
:102F88004FD6EFC1AEF0F0C1AFF0F1C1B0F0F2C171
:102F9800B1F0EAEC38F00101D890F7350001E86F9C
:102FA800510EE825D96EDA6A050EDA22AEC0DEFFC8
:102FB800AFC0DDFF0101F751800A6F0F24E21A0E3E
:102FC8000001926F880E916F010E936F7EEC39F0BD
:102FD8000101F86FF851FE0A01E14DD6F829BFE06A
:102FE800F86702D0010EDA6FF8050AE1F72BDBC1AA
:102FF800D6F1DCC1D7F1DDC1D8F1DEC1D9F14FD6A8
:10300800F8BF0ED61ED089EC3AF01A0E776F260E4E
:10301800766F84EC3FF0756B010EB2EC3BF01C0E42
:10302800776FD50E766F84EC3FF0FEEC40F001012F
:10303800F86FF851FE0A01E11ED6F82990E0010E5A
:10304800DA6F0101DA5101E12AD6F7C103F5010E61
:103058000001926FCE0E916F010E936F1C0E956F4B
:10306800C90E946F04C596F039EC39F00101F86F78
:10307800F82901E174D7F851FE0A01E1FCD5F8BF3F
:10308800CFD5F8C104F5190E0001C86FFE0EC76F41
:103098001B0ECA6F360EC96F010ECC6FE50ECB6FD3
:1030A800CD6BCE6BCF6BD06BD16BC00ED26F790E60
:1030B800D36F440ED46FD56BD66B800ED76F3F0E8F
:1030C800D86F08EC25F00101F86FF829C0E0F85135
:1030D800FE0A01E1D0D5F8BFA3D5E5C1AEF0E6C13F
:1030E800AFF0E7C1B0F0E8C1B1F0EAEC38F0AEC03B
:1030F80005F5AFC006F5010E0001926FD20E916F73
:10310800010E936F1D0E956F310E946F000E966B26
:1031180039EC39F00101F86FF829B5E0F851FE0AE9
:1031280001E1A9D5F8BF7CD5F86702D0CDEF18F03A
:1031380074EC37F00101F86FF829DDE0F851FE0A68
:1031480001E199D5F8BF6CD5010E0501006F050E98
:103158000001746F000E736F0101F851FFEC3FF02E
:10316800CAD7DE6FEF0EDD6FDF6BE06BE16BE26BF2
:10317800E36BE4697F0EE56F470EE66F0E0EE76FAF
:103188000E0C336F346B356BB40E366F420E376FDF
:10319800420C0101C16B050EFD6FC06BC36B010EC4
:1031A800C26F89EC3AF01B0E776F500E766F84EC85
:1031B8003FF001C575F002C576F016EC40F0D1DAA3
:1031C8008DEC2BF011D0D3EC1BF01FEC41F001017A
:1031D800C56FC551030A03E1FE0EC16F7DD2C5AFAD
:1031E80003D0C5C1C1F178D200013EB0ECD789EC5B
:1031F8003AF01B0E776F720E766F84EC3FF04FC576
:1032080071F050C572F0C3EC40F00BD0D3EC1BF05A
:103218001FEC41F00101C56FC551030ADDE0C5BFD0
:10322800E0D700013EBEF2D70101C05103E003C55B
:10323800C4F1A3D1C46BA1D1C451020D070EF3246C
:10324800D96EDA6A050EDA220001DECF75F0DDCF1D
:1032580076F02FEC3FF075C0BCF176C0BDF177C0B9
:10326800BEF178C0BFF10101C451020D2B0EF32449
:10327800D96EDA6A050EDA220001DECF75F0DDCFED
:1032880076F016EC40F075C0B0F176C0B1F177C0B9
:10329800B2F178C0B3F1BCC1B7F0BDC1B8F0BEC1DE
:1032A800B9F0BFC1BAF0B0C1BBF0B1C1BCF0B2C196
:1032B800BDF0B3C1BEF0E1EC2CF0B7C0B8F1B8C0B6
:1032C800B9F1B9C0BAF1BAC0BBF10101C05101E10D
:1032D800B3D089EC3AF01A0E776F620E766F84ECF1
:1032E8003FF04FDAA1EC28F0756B010EB2EC3BF021
:1032F80005010651051108E11B0E0001776F2E0E1E
:10330800766F84EC3FF013D01D0E0001776F3A0EF4
:10331800766F84EC3FF005DAA1EC28F01D0E776F8C
:103328006F0E766F84EC3FF0F1D9A1EC28F0BCC1A8
:103338006BF0BDC16CF0BEC16DF0BFC16EF0EBECBF
:1033480040F06BC0B4F16CC0B5F16DC0B6F16EC0A1
:10335800B7F1B4C130F1B5C131F1B6C132F1B7C17D
:1033680033F1B8C134F1B9C135F1BAC136F1BBC1D5
:1033780037F16AEC3FF00CD0D3EC1BF01FEC41F0B6
:103388000101C56FC551030A01E126D7C5BF29D779
:1033980000013EB0F1D789EC3AF01A0E776FD40EDF
:1033A800766F84EC3FF0EDD9A1EC28F0756B010E37
:1033B800B2EC3BF005010651051108E11B0E0001B6
:1033C800776F2E0E766F84EC3FF013D01D0E000140
:1033D800776F3A0E766F84EC3FF0A3D9A1EC28F012
:1033E8001D0E776F6F0E766F84EC3FF08FD9A1ECCE
:1033F80028F00101C451020D4F0EF324D96EDA6A88
:10340800050EDA220001DECF71F0DDCF72F0C3ECD9
:1034180040F00CD0D3EC1BF01FEC41F00101C56F5C
:10342800C551030A01E1D8D6C5BFDBD600013EBEAF
:10343800F1D70101C407A1D089EC3AF01A0E776FD1
:10344800620E766F84EC3FF077D9A1EC28F0756BAB
:10345800010EB2EC3BF005010651051108E11B0E07
:103468000001776F2E0E766F84EC3FF013D01D0E9F
:103478000001776F3A0E766F84EC3FF052D9A1ECD9
:1034880028F01D0E776F6F0E766F84EC3FF03ED9F3
:10349800A1EC28F0BCC130F1BDC131F1BEC132F19F
:1034A800BFC133F1B8C134F1B9C135F1BAC136F190
:1034B800BBC137F16AEC3FF00CD0D3EC1BF01FEC2A
:1034C80041F00101C56FC551030A01E185D6C5BFA9
:1034D80088D600013EB0F1D789EC3AF01A0E776F22
:1034E800D40E766F84EC3FF027D9A1EC28F0756BE9
:1034F800010EB2EC3BF005010651051108E11B0E67
:103508000001776F2E0E766F84EC3FF013D01D0EFE
:103518000001776F3A0E766F84EC3FF002D9A1EC88
:1035280028F01D0E776F6F0E766F84EC3FF0EED8A3
:10353800A1EC28F00101D890C4350001E06F510ECC
:10354800E025D96EDA6A050EDA22DECF71F0DDCF1A
:1035580072F0C3EC40F00CD0D3EC1BF01FEC41F040
:103568000101C56FC551030A01E136D6C5BF39D679
:1035780000013EBEF1D70101C42BC4BF0BD0050129
:103588000351D880D8840101C4AFC45DD8A0D884C1
:1035980001E152D60501045107E00101C051010EB5
:1035A800D8A4000EC06F87D00101C06B89EC3AF037
:1035B8001A0E776FE60E766F84EC3FF0756B010E8E
:1035C800B2EC3BF005010651051108E11B0E0001A4
:1035D800776F2E0E766F84EC3FF013D01D0E00012E
:1035E800776F3A0E766F84EC3FF09BD8A1EC28F009
:1035F8001D0E776F6F0E766F84EC3FF087D8A1ECC5
:1036080028F001C575F002C576F016EC40F0A9D88F
:103618008DEC2BF00CD0D3EC1BF01FEC41F001012A
:10362800C56FC551030A01E1D7D5C5BFDAD5000179
:103638003EB0F1D789EC3AF01A0E776F120E766F1A
:1036480084EC3FF0756B010EB2EC3BF005010651BE
:10365800051108E11B0E0001776F2E0E766F84ECC2
:103668003FF013D01D0E0001776F3A0E766F84EC91
:103678003FF057D8A1EC28F01D0E776F6F0E766FCC
:1036880084EC3FF043D8A1EC28F04FC571F050C549
:1036980072F0C3EC40F00CD0D3EC1BF01FEC41F0FF
:1036A8000101C56FC551030A01E196D5C5BF99D57A
:1036B80000013EBEF1D705010651051101E1B4D55F
:1036C8000101C24BC32BC2510501055D0101C35164
:1036D8000501065901E3A8D53E9000013C8A89EC12
:1036E8003AF01C0E776F6E0E766F84EC3FF0D3ECD9
:1036F8001BF03E903C8A010E0001916FF40E906F12
:103708002EEC41F03C9A0101C151120005C579F037
:10371800000106C57AF07B6B7C6B030E7D6F7E6BB8
:10372800000CC2C179F00001C3C17AF07B6B7C6BDD
:10373800030E7D6F7E6B000CC4C1E0F00001E16BED
:10374800E0BFE107E02B000EE123E0C079F0E1C023
:103758007AF07ABFFF0E7B6F7C6F020E7D6F7E6BF7
:10376800000C75C038F176C039F177C03AF178C0ED
:103778003BF101013C6B3D6BB40E3E6F420E3F6F57
:10378800420C0101C4510001796F000E79BFFF0E90
:103798007A6F7B6F7C6F020E7D6F7E6B000C010170
:1037A800026B306B3BA807D0AB69AB070101AB29B3
:1037B800D8B41200FAD73BBE08D00101AB69AB07F9
:1037C8000101AB29D8B41200FAD70101FB6B010E35
:1037D8000001ED6F00013B9E6BEC3EF00101026FB2
:1037E80002291FE1FC6B000E69DAFE51AFEC3EF0D6
:1037F8004F0EAFEC3EF0520EAFEC3EF0420EAFEC87
:103808003EF0490EAFEC3EF0540EAFEC3EF033DA2A
:10381800230EDF6EFC2BFCC1ABF1FC6BABC1EEF0F1
:103828001200FE51026312006BEC3EF00101AA6F18
:10383800F2D1FC6B20DA240EDF6EFC2BAA51AFEC20
:103848003EF0AB6B140E7CDAAFEC3EF063DAAB659E
:10385800F9D7AB6B000E010185DAAFEC3EF065DA03
:10386800AB65F8D700013D82F0C275F0F1C276F081
:10387800F2C277F0F3C278F022EC3EF075C0ACF1FA
:1038880076C0ADF177C0AEF178C0AFF13D92FBD90B
:1038980044EC3DF00101AC51AFEC3EF0AD51AFEC62
:1038A8003EF0AE51AFEC3EF0AF51AFEC3EF01ADA5D
:1038B80066DA0BD0F4C275F0F5C276F0F6C277F08E
:1038C800F7C278F0B8EC3FF044DAF4C275F0F5C20C
:1038D80076F0F6C277F0F7C278F0B8EC3FF0010165
:1038E800AF51000178190EE10101AE5100017719BD
:1038F80009E10101AD510001761904E10101AC5162
:1039080000017519D7E1010E00018A6FAC0EFAD9D2
:1039180044EC3DF0B8D944EC3DF00101AC51AFECBA
:103928003EF0AD51AFEC3EF0AE51AFEC3EF0AF51D2
:10393800AFEC3EF0D7D900013D80FCC275F0FDC266
:1039480076F016EC40F0C3D9ACD944EC3DF0010157
:10395800AC51AFEC3EF0AD51AFEC3EF0AE51AFEC38
:103968003EF0AF51AFEC3EF0BDD9FB51AFEC3EF0AD
:103978004ED7FC6B80D9240EDF6EFC2BAA51AFEC1E
:103988003EF0AB6B140EDCD9AFEC3EF0C3D9AB659F
:10399800F9D7AB6B000E0101E5D9AFEC3EF0C5D904
:1039A800AB65F8D7FB51AFEC3EF031D73F90010E35
:1039B80011D03F90030E0ED03F90020E0BD03F90D7
:1039C800040E08D03F90050E05D000013F906BEC27
:1039D8003EF000085D6E3F8013D1FC6B4CD9240E7D
:1039E800DF6EFC2BAA51AFEC3EF0FD51AFEC3EF080
:1039F800FD51AFEC3EF00BD773EC3CF022EC3EF0FF
:103A080075C0ACF176C0ADF177C0AEF178C0AFF15A
:103A18003D9239D944EC3DF0ACC16DF0ADC16EF0CA
:103A2800AEC16FF0AFC170F0AAC171F07BEF3BF08F
:103A3800A6D90BD0F4C275F0F5C276F0F6C277F0CD
:103A4800F7C278F0B8EC3FF084D9F4C275F0F5C24B
:103A580076F0F6C277F0F7C278F0B8EC3FF00101E3
:103A6800AF51000178190EE10101AE51000177193B
:103A780009E10101AD510001761904E10101AC51E0
:103A880000017519D7E1010E00018A6FAC0E3AD911
:103A980044EC3DF0F8D844EC3DF0BED700013D8041
:103AA800FCC275F0FDC276F016EC40F010D9F9D8DA
:103AB80044EC3DF0B1D76BEC3EF00101306F050EE0
:103AC800306501D02DD0306701D02AD0010E000119
:103AD800726F310E716F01013051D7EC40F0010166
:103AE800FC6B000EEBD8AA51AFEC3EF0AB6B03D9E0
:103AF800DF50AFEC3EF0FFD8DF50FB27AB2B780E42
:103B0800AB65F5D7FB51AFEC3EF081D66BEC3EF0E0
:103B18000101306F050E306501D002D0306704D046
:103B2800010E00016D6F75D03051FB27AB6B6BEC4C
:103B38003EF08F6F0101DFD88FC0DFFFDCD8DF5088
:103B4800FB27AB2B770EAB65F2D76BEC3EF0010190
:103B5800FB190AE1010E0001746F310E736F010148
:103B68003051FFEC3FF04CD04FD0AA519EEF3FF0C0
:103B7800030E01012F6FD40E2E6FFC6B000E9ED822
:103B8800AA51AFEC3EF0AB6B2EC1D9FF2FC1DAFFC3
:103B9800DF50AFEC3EF02EC1D9FF2FC1DAFFDF5066
:103BA800E9D8AB65F1D7FB51AFEC3EF030D6010E4A
:103BB8002F6F030E2E6FAB6B6BEC3EF02EC1D9FF4F
:103BC8002FC1DAFFDF6E2EC1D9FF2FC1DAFFDF5018
:103BD8000101D0D8AB65F0D76BEC3EF00101FB19C1
:103BE80013E1006B016B010E00016F6F000E6E6F29
:103BF800010E716F030E706F2B0E726F8DEC3EF01D
:103C08000101AA5158EF40F0FBC16DF0AED7000199
:103C18006D690101AAD7AA51010A01E177D7030A00
:103C280001E149D7120A01E1A4D6010A01E1BED691
:103C3800030A01E1C1D6010A01E1BBD6070A01E185
:103C4800BED6010A01E1BED6030A01E1D5D6010AB2
:103C580001E1EED60F0A01E121D7010A01E1B5D64B
:103C6800030A01E1BAD6010A01E1E3D5070A80E0B7
:103C7800010A9DE0CCD7000E0101FC25D96EDA6A55
:103C8800060EDA221200010E00018A6FAC0E896F4F
:103C9800FBC38BF0FCC38CF0FDC38DF0FEC38EF02C
:103CA800120000018A6FAC0E896FE2C38BF0E3C388
:103CB8008CF0E4C38DF0E5C38EF01200FC25D96EBC
:103CC800DA6A060EDA22240EDF6EFC2B240C75C08D
:103CD800ACF176C0ADF177C0AEF178C0AFF13D90F0
:103CE800010E1200AC51FB27AD51FB27AE51FB274B
:103CF800AF51FB271200310EAB25D96EDA6A010EDF
:103D0800DA221200896F8B6B8C6BFA0E8D6F370E6F
:103D18008E6F370C140E0101AB25D96EDA6A040ECA
:103D2800DA22DF50FB27AB2B130C000E0101AB2569
:103D3800D96EDA6A040EDA22DF50FB27AB2B130C9C
:103D48000101AB25D96EDA6A0401040EDA22DF50CC
:103D5800120075C0ACF176C0ADF177C0AEF178C095
:103D6800AFF11200AB25D96EDA6A0401040EDA222B
:103D7800DF501200FB272E4B2F2BAB2B2A0CAC6BE2
:103D8800AD6BAE6BAF6B1200DDC0D9FFDEC0DAFFE2
:103D9800DECFB6F1DECFB7F1DECFB8F1DECFB9F1C5
:103DA800B6C1B8F0B7C1B9F0B8C1BAF0B9C1BBF083
:103DB800010E0001BD6FB40EBC6F010EBF6FB30ED4
:103DC800BE6F010EC16FB20EC06F010EC36FB00E91
:103DD800C26F32EC31F0E7B702D00101B46B0001D9
:103DE800E7B502D00101B36B0001E7B302D00101CE
:103DF800B26B0001E7B103D00101B06BB16BB3C185
:103E08008FF0B2C190F0B0C191F0B1C192F0010150
:103E1800B45106EC34F08FC0B6F190C0B7F191C040
:103E2800B8F192C0B9F1AAD9ACEC3CF001E2B7D92B
:103E380094D9ACEC3CF001E2BBD90001E7A75BD018
:103E480089EC3AF0DBC076F0DCC077F084EC3FF028
:103E58001D0E776F7A0E766F84EC3FF0756B010E4E
:103E6800B2EC3BF0190E776FAA0E766F84EC3FF038
:103E78000001756B010EB2EC3BF0B6C1D0F0B7C1D2
:103E8800D1F0B8C1D2F0B9C1D3F0E7C0D4F0080E70
:103E9800D56F27EC35F042EC40F00101B56FB5AFB6
:103EA8001ED0B5511200FF0CFE0C93D9610E8D6F18
:103EB800450E8E6F69EC3DF050D9ACEC3CF0D8E281
:103EC80077D9D6D77ED9610EA46F450EA56F8EEC33
:103ED8003DF054D9ACEC3CF0CBE261D9C9D7B5512F
:103EE800010A09E0030ADFE0010ADEE0070ADDE073
:103EF800010AE8E0BDD70001E7A559D089EC3AF0FE
:103F0800DBC076F0DCC077F084EC3FF01D0E776FF5
:103F18007E0E766F84EC3FF0756B010EB2EC3BF0D1
:103F2800190E776FAA0E766F84EC3FF00001756B5F
:103F3800010EB2EC3BF0B6C1D0F0B7C1D1F0B8C1B8
:103F4800D2F0B9C1D3F0E7C0D4F0040ED56F27EC96
:103F580035F042EC40F00101B56FB5BFA2D71AD0D9
:103F680038D9700E8D6F420E8E6F69EC3DF0F5D822
:103F7800ACEC3CF0DBE21CD9D9D723D9700EA46F86
:103F8800420EA56F8EEC3DF0F9D8ACEC3CF0CEE2D9
:103F980006D9CCD7B551010A0AE0030A01E14DD789
:103FA800010A82E0070ADCE0010AE7E0BFD7000166
:103FB800E7A35AD089EC3AF0DBC076F0DCC077F0A2
:103FC80084EC3FF01D0E776F820E766F84EC3FF025
:103FD800756B010EB2EC3BF0190E776FAA0E766F77
:103FE80084EC3FF00001756B010EB2EC3BF0B6C1FA
:103FF800D0F0B7C1D1F0B8C1D2F0B9C1D3F0E7C0A1
:10400800D4F0020ED56F27EC35F042EC40F00101F8
:10401800B56FB5BF46D71AD0DCD8800E8D6F3F0E6E
:104028008E6F69EC3DF099D8ACEC3CF0DBE2C0D87F
:10403800D9D7C7D8800EA46F3F0EA56F8EEC3DF080
:104048009DD8ACEC3CF0CEE2AAD8CCD7B551010A49
:104058000BE0030A01E14FD7010A01E125D7070A5E
:10406800DBE0010AE6E0BED70001E7A168D089ECF1
:104078003AF0DBC076F0DCC077F084EC3FF01D0E40
:10408800776F750E766F84EC3FF0756B010EB2ECAE
:104098003BF0190E776FAA0E766F84EC3FF00001A3
:1040A800756B010EB2EC3BF0B6C1D0F0B7C1D1F0E0
:1040B800B8C1D2F0B9C1D3F0E7C0D4F0010ED56FC2
:1040C80027EC35F042EC40F00101B56FB5BFE9D6F9
:1040D80028D0010E00018A6FB60E896FCD0E8B6F46
:1040E800CC0E8C6F8D6F3D0E8E6F69EC3DF035D820
:1040F800ACEC3CF0D4E25CD8D2D7010E0001A16F41
:10410800B60EA06FCD0EA26FCC0EA36FA46F3D0E9E
:10411800A56F8EEC3DF032D8ACEC3CF0C0E23FD855
:10412800BED7B551010A0BE0030A01E140D7010AE5
:1041380001E1BAD6070ACDE0010ADFE0B0D7DDC059
:10414800D9FFDEC0DAFF0101B6C1DEFFB7C1DEFF6D
:10415800B8C1DEFFB9C1DEFF000CE3C089F0E4C0DE
:104168008AF0E5C08BF0E6C08CF0B6C18DF0B7C11F
:104178008EF0B8C18FF0B9C190F01200B6C189F0C5
:10418800B7C18AF0B8C18BF0B9C18CF0DFC08DF02F
:10419800E0C08EF0E1C08FF0E2C090F01200DFC006
:1041A800B6F1E0C0B7F1E1C0B8F1E2C0B9F1120070
:1041B800E3C0B6F1E4C0B7F1E5C0B8F1E6C0B9F1C3
:1041C8001200010E0001A16FB60EA06FA26BA36BC7
:1041D8001200010E00018A6FB60E896F8B6B8C6B13
:1041E800120000013EB0FF0C0001BFAF13D0BCC0ED
:1041F8006BF0BDC06CF0BEC06DF0BFC06EF0EBECF4
:1042080040F06BC01CF16CC01DF16DC01EF16EC09A
:104218001FF108D0BCC01CF1BDC01DF1BEC01EF10D
:10422800BFC01FF1C3AF13D0C0C06BF0C1C06CF0EA
:10423800C2C06DF0C3C06EF0EBEC40F06BC024F16F
:104248006CC025F16DC026F16EC027F108D0C0C042
:1042580024F1C1C025F1C2C026F1C3C027F1B8C0FE
:104268007EF0B9C07FF0BAC080F0BBC081F0F7C360
:104278007AF0F8C37BF0F9C37CF0FAC37DF00DEC5B
:1042880037F07AC0AEF07BC0AFF07CC0B0F07DC034
:10429800B1F0EAEC38F0AEC014F1AFC015F1B0C01F
:1042A80016F1B1C017F101011751141115111611AA
:1042B80001E1000C3D82F0C210F1F1C211F1F2C22D
:1042C80012F1F3C213F13D920101145110250401BA
:1042D800406F0101155111210401416F010116516F
:1042E80012210401426F0101175113210401436F88
:1042F80010C148F011C149F012C14AF013C14BF086
:104308000001BBAF15D0B8C06BF0B9C06CF0BAC033
:104318006DF0BBC06EF0EBEC40F06BC028F16CC0E8
:1043280029F16DC02AF16EC02BF100013E820AD03E
:10433800B8C028F1B9C029F1BAC02AF1BBC02BF125
:1043480000013E921CC189F01DC18AF01EC18BF08C
:104358001FC18CF024C18DF025C18EF026C18FF0CD
:1043680027C190F08FEC38F089C018F18AC019F194
:104378008BC01AF18CC01BF118C17EF019C17FF0F7
:104388001AC180F01BC181F024C17AF025C17BF0ED
:1043980026C17CF027C17DF00DEC37F07AC02CF1F6
:1043A8007BC02DF17CC02EF17DC02FF118C17EF0AD
:1043B80019C17FF01AC180F01BC181F02CC17AF0BD
:1043C8002DC17BF02EC17CF02FC17DF00DEC37F0B4
:1043D8007AC00CF17BC00DF17CC00EF17DC00FF1ED
:1043E8000CC17AF00DC17BF00EC17CF00FC17DF0DD
:1043F8007E6B7F6B806B3F0E816F0DEC37F07AC060
:1044080020F17BC021F17CC022F17DC023F128C1BD
:1044180089F029C18AF02AC18BF02BC18CF07E6B00
:104428007F6B806B400E816F20C17AF021C17BF0D9
:1044380022C17CF023C17DF00DEC37F07AC08DF0FD
:104448007BC08EF07CC08FF07DC090F0ACEC3CF06F
:1044580017E228C189F029C18AF02AC18BF02BC143
:104468008CF08D6B8E6B8F6B400E906F8FEC38F0ED
:1044780089C020F18AC021F18BC022F18CC023F1C0
:1044880020C19CF021C19DF022C19EF023C19FF064
:1044980028C198F029C199F02AC19AF02BC19BF044
:1044A8004DEC3FF098C07AF099C07BF09AC07CF050
:1044B8009BC07DF0F7C37EF0F8C37FF0F9C380F0AE
:1044C800FAC381F00DEC37F07AC000F17BC001F13E
:1044D8007CC002F17DC003F100C1AEF001C1AFF0B4
:1044E80002C1B0F003C1B1F0EAEC38F0AEC03CF460
:1044F800AFC03DF4B0C03EF4B1C03FF424C17EF07B
:1045080025C17FF026C180F027C181F0F7C37AF07A
:10451800F8C37BF0F9C37CF0FAC37DF00DEC37F0FB
:1045280060D8BD0E7E6F370E7F6F860E806F420E8D
:10453800816F0DEC37F07AC004F17BC005F17CC0C7
:1045480006F17DC007F104C1AEF005C1AFF006C1A8
:10455800B0F007C1B1F0EAEC38F0AEC040F0AFC03F
:1045680041F0B0C042F0B1C043F01CC17EF01DC1A3
:104578007FF01EC180F01FC181F0F7C37AF0F8C345
:104588007BF0F9C37CF0FAC37DF00DEC37F029D845
:104598006F0E7E6F120E7F6F030E806F470E816F56
:1045A8000DEC37F07AC008F17BC009F17CC00AF144
:1045B8007DC00BF108C1AEF009C1AFF00AC1B0F07F
:1045C8000BC1B1F0EAEC38F0AEC044F0AFC045F032
:1045D800B0C046F0B1C047F0ABEC24F000013E801B
:1045E800000C7AC02CF17BC02DF17CC02EF17DC06F
:1045F8002FF12CC17AF02DC17BF02EC17CF02FC198
:104608007DF01200060E0101FD6F0001CD6BCE6B2F
:10461800CF6BD06BDBD9620E7E6FBE0E7F6F3C0E08
:10462800806F460E816FF7C37AF0F8C37BF0F9C349
:104638007CF0FAC37DF00DEC37F07AC0AEF07BC0A9
:10464800AFF07CC0B0F07DC0B1F0EAEC38F0AEC09D
:1046580040F0AFC041F0B0C042F0B1C043F077D9EC
:104668003C9A3E903E8A00013E8A1FEC41F089EC5C
:104678003AF01B0E776FEF0E766F84EC3FF0756B98
:10468800010EB2EC3BF01A0E776F9B0E766F84EC3E
:104698003FF01FEC41F0CC6FCC51030A03E1FE0E52
:1046A800C76F34D1CC51020A02E1C7692FD1CC05BA
:1046B80004E1CD6BCE6BCF6BD06BCC51040A34E1E7
:1046C800000E8A6FCD0E896F96D905EC3AF0E8ECAA
:1046D8003FF075C07AF076C07BF077C07CF078C088
:1046E8007DF00DEC37F07AC08BF07BC08CF07CC08D
:1046F8008DF07DC08EF069EC3DF0896B8A6BB40E4D
:104708008B6F420E8C6FCDC08DF0CEC08EF0CFC0B7
:104718008FF0D0C090F0ACEC3CF006E2CD6BCE6BE5
:10472800B40ECF6F420ED06FCC51050A34E1000EA3
:10473800A16FCD0EA06F5FD905EC3AF0E8EC3FF021
:1047480075C07AF076C07BF077C07CF078C07DF0D9
:104758000DEC37F07AC0A2F07BC0A3F07CC0A4F0C7
:104768007DC0A5F08EEC3DF0CDC089F0CEC08AF0BA
:10477800CFC08BF0D0C08CF08D6B8E6BB40E8F6F6A
:10478800C20E906FACEC3CF006E2CD6BCE6BB40E73
:10479800CF6FC20ED06FCCAF03D0CCC0C7F0B6D0AD
:1047A800060E756F010EB2EC3BF0CDC0B8F0CEC06E
:1047B800B9F0CFC0BAF0D0C0BBF0020EBC6FBD6F6D
:1047C800010EBE6F45EC2FF03EA252D00001D0AFD3
:1047D80031D0F7C37EF0F8C37FF0F9C380F0FAC395
:1047E80081F0CDC06BF0CEC06CF0CFC06DF0D0C002
:1047F8006EF0EBEC40F06BC07AF06CC07BF06DC0F3
:104808007CF06EC07DF00DEC37F0B3D80DEC37F0CE
:104818007AC0AEF07BC0AFF07CC0B0F07DC0B1F024
:10482800EAEC38F0DED802D0D3EC1BF000013CA251
:104838006AD0FAD7000EBDD8ACEC3CF010E2010EFD
:10484800B1D802D0D3EC1BF000013CB2FBD7000179
:104858003CB059D03E9A3E9A7AD83E9247D0010E43
:10486800A1D802D0D3EC1BF000013CA24CD0FAD75F
:10487800000E00019ED8ACEC3CF027E2CDC07EF0E3
:10488800CEC07FF0CFC080F0D0C081F0F7C37AF0FF
:10489800F8C37BF0F9C37CF0FAC37DF00DEC37F078
:1048A80068D80DEC37F07AC0AEF07BC0AFF07CC0B2
:1048B800B0F07DC0B1F0EAEC38F093D802D0D3EC78
:1048C8001BF000013CA21FD0FAD7D0AF14D0010EC4
:1048D80069D802D0D3EC1BF000013CB2FBD7000131
:1048E8003CB011D03E9A3E9A32D83E826FD83E8A6A
:1048F80000013E8A08D0010E55D802D0D3EC1BF037
:1049080000013CB2FBD7D3EC1BF0C3D689EC3AF0DC
:104918001C0E776F6E0E766F84EC3FF0010E04016B
:10492800446F000E456F466F476F3C8202D0D3EC50
:104938001BF000013CB2FBD700013CB005D03E9A09
:104948003E9A0001C7511200D3EC1BF0E7D74C6A1E
:104958004D6A4E6A4F6A0201F46BF56BF66BF76BA2
:10496800E86BE96BEA6BEB6BEC6BED6BEE6BEF6B8B
:1049780012007AC0C8F07BC0C9F07CC0CAF07DC004
:10498800CBF06F0E7E6F120E7F6F030E806F470E97
:10499800816FC8C07AF0C9C07BF0CAC07CF0CBC0B8
:1049A8007DF0470C0401446F456B466B476B3C82B6
:1049B800000C896B8A6B8B6B8C6BCDC08DF0CEC075
:1049C8008EF0CFC08FF0D0C090F012003D82F0C2C0
:1049D80048F0F1C249F0F2C24AF0F3C24BF03D92FE
:1049E8001200AEC044F4AFC045F4B0C046F4B1C044
:1049F80047F43C821200CD0E7E6FCC0E7F6F4C0EBA
:104A0800806F3D0E816F3D0C756B766B010E1BEC54
:104A18003CF0D1C089F0D2C08AF0D3C08BF0D4C0AA
:104A28008CF08D6B400E8E6F1C0E8F6F460E906F44
:104A3800ACEC3CF012E2896B400E8A6F1C0E8B6F57
:104A4800C60E8C6FCDC08DF0CEC08EF0CFC08FF06B
:104A5800D0C090F0ACEC3CF002E3050E4FD089D901
:104A68007A0E8F6F440E906FACEC3CF011E2896BBC
:104A78008A6B7A0E8B6FC40E8C6FCDC08DF0CEC052
:104A88008EF0CFC08FF0D0C090F0ACEC3CF002E3D9
:104A9800040E34D06ED9C80E8F6F420E906FACECF6
:104AA8003CF011E2896B8A6BC80E8B6FC20E8C6F5B
:104AB800CDC08DF0CEC08EF0CFC08FF0D0C090F0BA
:104AC800ACEC3CF002E3030E19D053D9200E8F6FE3
:104AD800410E906FACEC3CF010E2896B8A6B200EB3
:104AE8008B6FC10E8C6FCDC08DF0CEC08EF0CFC055
:104AF8008FF0D0C090F0ACEC3CF0020ED96FD5C06E
:104B080089F0D6C08AF0D7C08BF0D8C08CF08D6BF6
:104B18008E6B800E8F6F3F0E906FACEC3CF002E313
:104B2800DA6B53D0D5C089F0D6C08AF0D7C08BF0E5
:104B3800D8C08CF0CD0E8D6FCC0E8E6F8F6F3D0E62
:104B4800906FACEC3CF002E3010E3ED0D5C089F08A
:104B5800D6C08AF0D7C08BF0D8C08CF00A0E8D6F03
:104B6800D70E8E6F230E8F6F3C0E906FACEC3CF01F
:104B780002E3020E29D0D5C089F0D6C08AF0D7C08A
:104B88008BF0D8C08CF06F0E8D6F120E8E6F830E67
:104B98008F6F3A0E906FACEC3CF002E3030E14D02A
:104BA800D5C089F0D6C08AF0D7C08BF0D8C08CF0B9
:104BB800170E8D6FB70E8E6FD10E8F6F380E906FE8
:104BC800ACEC3CF002E3040EDA6FCBC0D9FFCCC0EA
:104BD800DAFFDECFDCF0DECFDDF0DECFDEF0DECFD9
:104BE800DFF089EC3AF0C7C076F0C8C077F084EC03
:104BF8003FF0756B010EB2EC3BF0C6D845EC2FF0D8
:104C0800C9C076F0CAC077F084EC3FF0756B010E2E
:104C1800B2EC3BF0B9D845EC2FF042EC40F0DB6F3A
:104C2800DBAF97D0DB511200CBC0D9FFCCC0DAFF85
:104C3800DCC0DEFFDDC0DEFFDEC0DEFFDFC0DEFF82
:104C4800756B766B010E1BEC3CF0000CFE0CFF0C38
:104C5800000E8A6FDC0E896FD5C07EF0D6C07FF05B
:104C6800D7C080F0D8C081F005EC3AF0E8EC3FF00E
:104C780075C07AF076C07BF077C07CF078C07DF0A4
:104C88000DEC37F07AC08BF07BC08CF07CC08DF0D7
:104C98007DC08EF069EC3DF0D1C089F0D2C08AF0B9
:104CA800D3C08BF0D4C08CF0DCC08DF0DDC08EF0AA
:104CB800DEC08FF0DFC090F0ACEC3CF0A7E2D1C0D2
:104CC800DCF0D2C0DDF0D3C0DEF0D4C0DFF09ED778
:104CD800000EA16FDC0EA06FD5C07EF0D6C07FF0AD
:104CE800D7C080F0D8C081F005EC3AF0E8EC3FF08E
:104CF80075C07AF076C07BF077C07CF078C07DF024
:104D08000DEC37F07AC0A2F07BC0A3F07CC0A4F011
:104D18007DC0A5F08EEC3DF0DCC089F0DDC08AF0E6
:104D2800DEC08BF0DFC08CF0CDC08DF0CEC08EF031
:104D3800CFC08FF0D0C090F0ACEC3CF001E366D768
:104D4800CDC0DCF0CEC0DDF0CFC0DEF0D0C0DFF0EB
:104D58005DD7DB51010A01E167D7030A01E177D783
:104D6800010A01E173D7070A01E172D7010AB0E02D
:104D78004DD7D1C089F0D2C08AF0D3C08BF0D4C04F
:104D88008CF08D6B8E6B1200DCC0B8F0DDC0B9F012
:104D9800DEC0BAF0DFC0BBF0D9C0BCF0DAC0BDF0ED
:104DA800010EBE6F010C0101BC6B030EFD6F89EC97
:104DB8003AF01B0E776F500E766F84EC3FF049C4C3
:104DC80075F04AC476F016EC40F075C0C5F176C0AF
:104DD800C6F177C0C7F178C0C8F1C5C138F1C6C1FE
:104DE80039F1C7C13AF1C8C13BF101013C6B3D6BD8
:104DF800B40E3E6F420E3F6F8DEC2BF011D0D3EC0A
:104E08001BF01FEC41F00101CD6FCD51030A03E106
:104E1800FE0EBC6F78D1CDAF03D0CDC1BCF173D13C
:104E280000013EB0ECD751C47AF052C47BF053C4B1
:104E38007CF054C47DF000017E6B7F6BB40E806FF4
:104E4800430E816F0DEC37F07AC0C1F17BC0C2F11F
:104E58007CC0C3F17DC0C4F104014B51020A08E1D2
:104E68000101C16B4E0EC26FED0EC36F4A0EC46FC7
:104E780004014C6712D0C1C16BF0C2C16CF0C3C150
:104E88006DF0C4C16EF0EBEC40F06BC0C1F16CC0CA
:104E9800C2F16DC0C3F16EC0C4F173EC3CF022ECFA
:104EA8003EF075C0C5F176C0C6F177C0C7F178C0CD
:104EB800C8F13D92010E00018A6FC50E896FFBC3D0
:104EC8008BF0FCC38CF0FDC38DF0FEC38EF044EC78
:104ED8003DF0C5C175F0C6C176F0C7C177F0C8C14D
:104EE80078F0C1C179F0C2C17AF0C3C17BF0C4C106
:104EF8007CF0BDEC32F075C0B0F176C0B1F177C08E
:104F0800B2F178C0B3F189EC3AF0190E776FD40E8C
:104F1800766F84EC3FF004014B51020A12E189ECF0
:104F28003AF01B0E776FD10E766F84EC3FF0756BFD
:104F3800010EB2EC3BF01B0E776F1C0E766F84EC03
:104F48003FF00001896B8A6B800E8B6F3F0E8C6F70
:104F580059C48DF05AC48EF05BC48FF05CC490F0D5
:104F68008FEC38F089C0B8F18AC0B9F18BC0BAF1BA
:104F78008CC0BBF11FEC41F0C1C130F1C2C131F1AD
:104F8800C3C132F1C4C133F159C434F15AC435F143
:104F98005BC436F15CC437F16AEC3FF0B2D073EC15
:104FA8003CF022EC3EF075C0BDF176C0BEF177C092
:104FB800BFF178C0C0F13D92010E00018A6FBD0EAD
:104FC800896FFBC38BF0FCC38CF0FDC38DF0FEC36F
:104FD8008EF044EC3DF0B0C198F0B1C199F0B2C187
:104FE8009AF0B3C19BF0BDC19CF0BEC19DF0BFC19A
:104FF8009EF0C0C19FF04DEC3FF098C0C9F199C038
:10500800CAF19AC0CBF19BC0CCF10101CCAF12D050
:10501800C9C16BF0CAC16CF0CBC16DF0CCC16EF0E8
:10502800EBEC40F06BC0C9F16CC0CAF16DC0CBF1BC
:105038006EC0CCF1C9C17AF0CAC17BF0CBC17CF09B
:10504800CCC17DF0B8C17EF0B9C17FF0BAC180F0A3
:10505800BBC181F00DEC37F07AC0B4F17BC0B5F17B
:105068007CC0B6F17DC0B7F1010E00018A6FC90E90
:10507800896F1B0E8B6F0F0E8C6F360E8D6F3B0E6C
:105088008E6F44EC3DF004014B51020A2EE00B0EEA
:105098000001756F000EB2EC3BF0B4C1D0F0B5C1A1
:1050A800D1F0B6C1D2F0B7C1D3F00E0ED46F000E56
:1050B800D56B27EC35F0756B010EB2EC3BF0C9C12E
:1050C800B8F0CAC1B9F0CBC1BAF0CCC1BBF0050E7B
:1050D800BC6F020EBD6F000EBE6B45EC2FF01C0EB0
:1050E800776F950E766F84EC3FF01FEC41F001016D
:1050F800CD6FCD51030A01E18BD6CDBF8ED6D3EC4F
:105108001BF03EB04CD73E9000013C8A89EC3AF047
:105118001C0E776F6E0E766F84EC3FF0D3EC1BF0AD
:105128003E903C8A010E0001916FF40E906F2EECB8
:1051380041F03C9A0101BC5112007CAF0DD02D0EFC
:1051480047EC3AF0796D7A1FD8B07A2B7B1FD8B02C
:105158007B2B000E7C5705D07E5103E02B0E47ECCD
:105168003AF079C06BF07AC06CF07BC06DF07CC00F
:105178006EF06F6BCA0E706F9A0E716F3B0E726F86
:1051880031EC38F033D96F6BCA0E706F9A0E716FAD
:105198003B0E726FF8EC3CF03AD9090E7D6503D0EE
:1051A8007F5147EC3AF079C06BF07AC06CF07BC065
:1051B8006DF07CC06EF06F6BE10E706FF50E716F65
:1051C800050E726F31EC38F011D96F6BE10E706F0C
:1051D800F50E716F050E726FF8EC3CF018D9080ED9
:1051E8007D6503D07F5147EC3AF079C06BF07AC007
:1051F8006CF07BC06DF07CC06EF0800E6F6F960E09
:10520800706F980E716F000E726B31EC38F0EED83B
:10521800800E6F6F960E706F980E716F000E726B26
:10522800F8EC3CF0F4D8070E7D6503D07F5147ECCD
:105238003AF079C06BF07AC06CF07BC06DF07CC03E
:105248006EF0400E6F6F420E706F0F0E716F000E92
:10525800726B31EC38F0CAD8400E6F6F420E706F27
:105268000F0E716F000E726BF8EC3CF0D0D8060E82
:105278007D6503D07F5147EC3AF079C06BF07AC076
:105288006CF07BC06DF07CC06EF0A00E6F6F860E68
:10529800706F010E716F000E726B31EC38F0A6D88A
:1052A800A00E6F6F860E706F010E716F000E726B1D
:1052B800F8EC3CF0ACD8050E7D6503D07F5147EC87
:1052C8003AF079C06BF07AC06CF07BC06DF07CC0AE
:1052D8006EF0100E6F6F270E706F000E716B726B91
:1052E80031EC38F083D8100E6F6F270E706F000EF8
:1052F800716B726BF8EC3CF08AD8040E7D6503D0B4
:105308007F5147EC3AF079C06BF07AC06CF07BC003
:105318006DF07CC06EF0E80E6F6F030E706F000EBC
:10532800716B726B31EC38F061D8E80E6F6F030E59
:10533800706F000E716B726BF8EC3CF068D8030E5E
:105348007D6503D07F5147EC3AF079C06BF07AC0A5
:105358006CF07BC06DF07CC06EF0640E6F6F000E59
:10536800706B716B726B31EC38F040D8640E6F6FF4
:10537800000E706B716B726BF8EC3CF048D8020E43
:105388007D6503D07F5147EC3AF079C06BF07AC065
:105398006CF07BC06DF07CC06EF00A0E6F6F000E73
:1053A800706B716B726B31EC38F020D80A0E6F6F2E
:1053B800000E706B716B726BF8EC3CF028D8010E24
:1053C8007D6503D07F5147EC3AF079C07FF07AC011
:1053D80080F07BC081F07CC082F0300E7F27000E09
:1053E8008023812382237F5147EF3AF06BC07FF0FF
:1053F8006CC080F06DC081F06EC082F07FC06BF031
:1054080080C06CF081C06DF082C06EF012006B51EC
:10541800795F6C517A5B6D517B5B6E517C5B300EB2
:105428007F27000E802381238223000C0001BAAF5E
:1054380013D0B7C06BF0B8C06CF0B9C06DF0BAC08B
:105448006EF0EBEC40F06BC0DBF06CC0DCF06DC0D4
:10545800DDF06EC0DEF008D0B7C0DBF0B8C0DCF01D
:10546800B9C0DDF0BAC0DEF0DBC07AF0DCC07BF09A
:10547800DDC07CF0DEC07DF07E6B7F6B806B3F0E05
:10548800816F0DEC37F07AC0BBF07BC0BCF07CC0FC
:10549800BDF07DC0BEF0EDC389F0EEC38AF0EFC366
:1054A8008BF0F0C38CF0E9C38DF0EAC38EF0EBC348
:1054B8008FF0ECC390F08FEC38F089C0DFF08AC031
:1054C800E0F08BC0E1F08CC0E2F012D90DEC37F0BF
:1054D800E0D80DEC37F0F6D80DEC37F07AC0CBF009
:1054E8007BC0CCF07CC0CDF07DC0CEF0BBC089F0D5
:1054F800BCC08AF0BDC08BF0BEC08CF0CBC08DF0B4
:10550800CCC08EF0CDC08FF0CEC090F0ACEC3CF0AB
:1055180035E2DBC089F0DCC08AF0DDC08BF0DEC08C
:105528008CF0E9C38DF0EAC38EF0EBC38FF0ECC3C7
:1055380090F08FEC38F089C0A6F08AC0A7F08BC035
:10554800A8F08CC0A9F06BEC33F0A6C0DFF0A7C0C0
:10555800E0F0A8C0E1F0A9C0E2F0CAD80DEC37F03D
:1055680098D80DEC37F0AED80DEC37F07AC0CBF008
:105578007BC0CCF07CC0CDF07DC0CEF0E9C37AF022
:10558800EAC37BF0EBC37CF0ECC37DF0DFC07EF0B8
:10559800E0C07FF0E1C080F0E2C081F00DEC37F0B0
:1055A8007AC0BFF07BC0C0F07CC0C1F07DC0C2F043
:1055B800DBC098F0DCC099F0DDC09AF0DEC09BF04B
:1055C8007E6B7F6B806B400E816FCBC07AF0CCC056
:1055D8007BF0CDC07CF0CEC07DF00DEC37F07AC00A
:1055E8009CF07BC09DF07CC09EF07DC09FF04DEC90
:1055F8003FF098C0C3F099C0C4F09AC0C5F09BC0F2
:10560800C6F0C3C089F0C4C08AF0C5C08BF0C6C05C
:105618008CF0BFC08DF0C0C08EF0C1C08FF0C2C08A
:1056280090F08FEC38F089C0C7F08AC0C8F08BC002
:10563800C9F08CC0CAF0DFC07AF0E0C07BF0E1C0EE
:105648007CF0E2C07DF07E6B7F6B806B400E816FDB
:105658000DEC37F07AC0D7F07BC0D8F07CC0D9F019
:105668007DC0DAF0000E8A6FD70E896FC7C08BF045
:10567800C8C08CF0C9C08DF0CAC08EF069EC3DF08E
:10568800D7C0B7F0D8C0B8F0D9C0B9F0DAC0BAF00E
:1056980012007AC0CFF07BC0D0F07CC0D1F07DC0C2
:1056A800D2F0DFC07EF0E0C07FF0E1C080F0E2C061
:1056B80081F0CFC07AF0D0C07BF0D1C07CF0D2C0EE
:1056C8007DF012007AC0D3F07BC0D4F07CC0D5F056
:1056D8007DC0D6F0D3C07AF0D4C07BF0D5C07CF0C2
:1056E800D6C07DF07E6B7F6B806B3F0E816F3F0C69
:1056F800DFC07EF0E0C07FF0E1C080F0E2C081F062
:10570800E9C37AF0EAC37BF0EBC37CF0ECC37DF02D
:1057180012003FAF13D03CC16BF03DC16CF03EC1ED
:105728006DF03FC16EF0EBEC40F06BC0C8F06CC0A0
:10573800C9F06DC0CAF06EC0CBF008D03CC1C8F04B
:105748003DC1C9F03EC1CAF03FC1CBF001013BAF3A
:1057580025D038C1DCF023D907D0000E8A6FDC0EC3
:1057680021EC36F069EC3DF0DCC089F0DDC08AF050
:10577800DEC08BF0DFC08CF000018D6B8E6BB40E39
:105788008F6FC30E906FACEC3CF0E7E3000E8A6FAE
:10579800DC0E21EC36F069EC3DF022D038C1DCF0AB
:1057A800FED80CD0000EA16FDC0EA06FA26BA36B0D
:1057B800B40EA46F430EA56F8EEC3DF00001896B0B
:1057C8008A6BB40E8B6F430E8C6FDCC08DF0DDC01E
:1057D8008EF0DEC08FF0DFC090F0ACEC3CF0E2E37E
:1057E800B0EC35F0A6C0D8F0A7C0D9F0A8C0DAF060
:1057F800A9C0DBF0D8C089F0D9C08AF0DAC08BF034
:10580800DBC08CF0DCC08DF0DDC08EF0DEC08FF028
:10581800DFC090F0ACEC3CF039E2DCC098F0DDC0C1
:1058280099F0DEC09AF0DFC09BF0D8C09CF0D9C0D8
:105838009DF0DAC09EF0DBC09FF04DEC3FF098C0C1
:10584800CCF099C0CDF09AC0CEF09BC0CFF0DCC0B0
:105858009CF0DDC09DF0DEC09EF0DFC09FF0A6D8B2
:105868004DEC3FF08BD8D8C079F0D9C07AF0DAC0C7
:105878007BF0DBC07CF0BDEC32F075C0D0F076C0B8
:10588800D1F077C0D2F078C0D3F038D0D8C09CF02F
:10589800D9C09DF0DAC09EF0DBC09FF087D84DECF0
:1058A8003FF06CD8DCC079F0DDC07AF0DEC07BF068
:1058B800DFC07CF0BDEC32F075C0CCF076C0CDF026
:1058C80077C0CEF078C0CFF0D8C098F0D9C099F0A2
:1058D800DAC09AF0DBC09BF0DCC09CF0DDC09DF024
:1058E800DEC09EF0DFC09FF04DEC3FF098C0D0F0D6
:1058F80099C0D1F09AC0D2F09BC0D3F0CCC089F047
:10590800CDC08AF0CEC08BF0CFC08CF0D0C08DF067
:10591800D1C08EF0D2C08FF0D3C090F0ACEC3CF088
:1059280009E2CCC030F1CDC031F1CEC032F1CFC0E8
:1059380033F11AD0D0C06BF0D1C06CF0D2C06DF08A
:10594800D3C06EF0EBEC40F06BC0C4F06CC0C5F097
:105958006DC0C6F06EC0C7F0C4C030F1C5C031F12B
:10596800C6C032F1C7C033F1C8C034F1C9C035F17F
:10597800CAC036F1CBC037F16AEF3FF098C0D4F017
:1059880099C0D5F09AC0D6F09BC0D7F0D4C075F0B6
:10599800D5C076F0D6C077F0D7C078F0120039C1FC
:1059A800DDF03AC1DEF03BC1DFF01200986B996B75
:1059B800B40E9A6F430E9B6F430CBAAF08D0B7C0B2
:1059C8007AF023D9BF0E816F0DEC37F007D0B7C03E
:1059D8007AF01BD93F0E816F0DEC37F07AC0CFF00B
:1059E8007BC0D0F07CC0D1F07DC0D2F0BEAF08D073
:1059F800BBC07AF000D9BF0E816F0DEC37F007D02D
:105A0800BBC07AF0F8D83F0E816F0DEC37F07AC042
:105A1800D3F07BC0D4F07CC0D5F07DC0D6F0896BC4
:105A28008A6B800E8B6F450E8C6FD3C08DF0D4C0FF
:105A38008EF0D5C08FF0D6C090F0ACEC3CF01BE2F5
:105A4800CFC089F0D0C08AF0D1C08BF0D2C08CF022
:105A5800D3C08DF0D4C08EF0D5C08FF0D6C090F0F2
:105A68008FEC38F089C0B7F08AC0B8F08BC0B9F0B5
:105A78008CC0BAF01200D3C07EF0D4C07FF0D5C07D
:105A880080F0D6C081F0D3C07AF0D4C07BF0D5C006
:105A98007CF0D6C07DF00DEC37F07AC098F07BC072
:105AA80099F07CC09AF07DC09BF0E9C38DF0EAC301
:105AB8008EF0EBC38FF0ECC390F07E6B7F6B806B46
:105AC800400E816FCFC07AF0D0C07BF0D1C07CF09F
:105AD800D2C07DF00DEC37F07AC089F07BC08AF037
:105AE8007CC08BF07DC08CF08FEC38F089C09CF0C6
:105AF8008AC09DF08BC09EF08CC09FF04DEC3FF0AB
:105B080098C0C7F099C0C8F09AC0C9F09BC0CAF045
:105B1800CAAF08D0000EB76FB86F800EB96FBF0E4E
:105B2800BA6FBF0CC7C0A6F0C8C0A7F0C9C0A8F01C
:105B3800CAC0A9F06BEC33F0A6C0C3F0A7C0C4F08C
:105B4800A8C0C5F0A9C0C6F0D3C098F0D4C099F0D9
:105B5800D5C09AF0D6C09BF0C3C09CF0C4C09DF0DD
:105B6800C5C09EF0C6C09FF04DEC3FF098C0BFF096
:105B780099C0C0F09AC0C1F09BC0C2F0E9C37AF0E6
:105B8800EAC37BF0EBC37CF0ECC37DF0BFC07EF0D2
:105B9800C0C07FF0C1C080F0C2C081F00DEC37F00A
:105BA8007AC0CBF07BC0CCF07CC0CDF07DC0CEF00D
:105BB800EDC389F0EEC38AF0EFC38BF0F0C38CF02D
:105BC800CBC08DF0CCC08EF0CDC08FF0CEC090F0A1
:105BD800ACEC3CF007E2000EB76FB86FB96FC00EBF
:105BE800BA6FC00CCBC0B7F0CCC0B8F0CDC0B9F01C
:105BF800CEC0BAF01200BCC07BF0BDC07CF0BEC005
:105C08007DF07E6B7F6B806B1200B8C07BF0B9C0F3
:105C18007CF0BAC07DF07E6B7F6B806B1200020156
:105C2800E56BE46B11EC3FF08B908A904C6A4D6AFF
:105C38004E6A4F6A0201E86BE96BEA6BEB6BEC6B3F
:105C4800ED6BEE6BEF6BE66B280E0201E625D96E65
:105C5800DA6A040EDA22DF68E62B0F0EE665F4D75F
:105C6800D0EC3FF042EC3BF01EEC3DF089EC3AF012
:105C78001B0E776FB20E766F84EC3FF0756B010EDA
:105C8800B2EC3BF01C0E776FAF0E766F84EC3FF0F2
:105C9800070E916FD00E906F2EEC41F01D0E020191
:105CA800C96F050EC86F1B0ECB6FFE0ECA6F1D0E97
:105CB800CD6F110ECC6F1B0ECF6FEF0ECE6F1B0E7C
:105CC800D16F610ED06F1C0ED36FBC0ED26F1A0E3F
:105CD800D56F4E0ED46FC8C2D6F2C9C2D7F2CAC2A7
:105CE800D8F2CBC2D9F2CEC2DAF2CFC2DBF2CCC242
:105CF800DCF2CDC2DDF2D0C2DEF2D1C2DFF2D2C216
:105D0800E0F2D3C2E1F2D4C2E2F2D5C2E3F200017A
:105D18003C8A89EC3AF0190E776F940E766F84EC12
:105D28003FF0756B010EB2EC3BF01B0E776FE00E87
:105D3800766F84EC3FF0FEEC40F03C8602D0D3EC6A
:105D48001BF000013CB6FBD70001916B0A0E906F67
:105D58002EEC41F000013C9A89EC3AF0010E010169
:105D6800FD6F020E0001926FD60E916F060E936FB3
:105D7800E5C294F002EC32F00201E76F5FD0E56B08
:105D8800C4EC0EF00201E76FE751FE0AD8B406EC46
:105D980023F00201E729D8B406EC23F00201E75109
:105DA800800A820F4BE3DAD7010EE56FB8EC15F0E5
:105DB8000201E76FE751800A820F40E3E7AFCED7D1
:105DC80006EC23F038D0030EE56F74EC37F00201CF
:105DD800E76FE729C3E0E751FE0AC0E0E751800A10
:105DE800820F2CE3E7C2E4F2E451C9EC3AF023D085
:105DF800E56B06EC23F01FD0E56BC2EC39F01BD045
:105E0800E56B9EEC34F0AAD7E56B6FEC12F013D07B
:105E1800010EC9EC3AF00FD0020EC9EC3AF00BD0E3
:105E2800030EC9EC3AF007D0040EC9EC3AF003D0DF
:105E3800050EC9EC3AF00201E76FB1D7E7519FE0D0
:105E4800010AB2E0030AD4E0010ABDE0070AD4E07F
:105E5800010AD6E0030AD8E0C30AD2E0030AD4E074
:105E6800010AC6E00F0AA0E0010A89E0030AE0E09F
:105E7800010ADAE0070AD4E0010ACEE0030AC8E022
:105E88006DD7B8C0AEF0B9C0AFF0BAC0B0F0BBC003
:105E9800B1F0EAEC38F0AEC0BFF0AFC0C0F0B0C0AF
:105EA800C1F0B1C0C2F0BE5119E0C251BF11C0115A
:105EB800C11114E1BBAF04D02D0E47EC3AF003D06A
:105EC8002B0E47EC3AF0000E796B7A6B7B6B7C6B90
:105ED800BCC07DF07E6BA1EC28F00ED0BFC079F07D
:105EE800C0C07AF0C1C07BF0C2C07CF0BCC07DF0FD
:105EF800BEC07EF0A1EC28F0000EA16FB80EA06F16
:105F0800BFC075F0C0C076F0C1C077F0C2C078F0ED
:105F180022EC3EF075C0A2F076C0A3F077C0A4F0E2
:105F280078C0A5F08EEC3DF0BBAF17D0000E986B93
:105F3800996B9A6B9B6BB8C09CF0B9C09DF0BAC0C6
:105F48009EF0BBC09FF04DEC3FF098C0B8F099C0F0
:105F5800B9F09AC0BAF09BC0BBF0000E8A6FB80EB9
:105F6800896F8B6B500E8C6FC30E8D6F470E8E6FC3
:105F780044EC3DF0B8C0AEF0B9C0AFF0BAC0B0F074
:105F8800BBC0B1F0EAEC38F0AEC0C3F0AFC0C4F0AB
:105F9800B0C0C5F0B1C0C6F0BD51D8B412002E0EC5
:105FA80047EC3AF0BD0514E1C3C06BF0C4C06CF017
:105FB800C5C06DF0C6C06EF0100E6F6F270E706F03
:105FC800000E716B726B31EC38F056D8010E50D060
:105FD800BD51020A14E1C3C06BF0C4C06CF0C5C067
:105FE8006DF0C6C06EF0E80E6F6F030E706F000E96
:105FF800716B726B31EC38F03FD8020E39D0BD515D
:10600800030A13E1C3C06BF0C4C06CF0C5C06DF0E7
:10601800C6C06EF0640E6F6F000E706B716B726BA2
:1060280031EC38F029D8030E23D0BD51040A13E10E
:10603800C3C06BF0C4C06CF0C5C06DF0C6C06EF0D4
:106048000A0E6F6F000E706B716B726B31EC38F06B
:1060580013D8040E0DD0BD51050AD8A41200C3C030
:1060680079F0C4C07AF0C5C07BF0C6C07CF0050EDC
:106078007D6F7E6BA1EF28F06BC0C3F06CC0C4F0DD
:106088006DC0C5F06EC0C6F0C3C079F0C4C07AF068
:10609800C5C07BF0C6C07CF01200F7CF67F0F8CF20
:1060A80068F0F5CF69F0FE0ED76E830ED66EF294C7
:1060B800ACA201D001D015D00001EE51D8B401D066
:1060C80001D00FD00601000E0101FC25D96EDA6A55
:1060D8000601060EDA22DF50AD6E0101FC2B00012D
:1060E800EE07AB30E832010B0001606FAB30010BFB
:1060F80060110009D8B401D001D00DD0AB9800F0E0
:10610800AB88AECF6AF0AECF6AF00001EC6B00014D
:106118003B9E00013B9C9EAA01D001D032D0AECF5D
:106128006AF000016A51400AD8A401D001D005D014
:10613800EC6B00013B9E00013B8C00016A51230A75
:10614800D8A401D001D004D000013B8E00013B9CB3
:106158000001EC29D8A401D001D001D0EC6B0001DA
:106168003BAC01D001D00DD00701000E0001EC2599
:10617800D96EDA6A0701070EDA2200016AC0DFFF6A
:10618800EC2B0001F051D8B401D001D002D0F007B7
:1061980002D0070EF06F00013BAA01D001D009D050
:1061A8000301E6510001F06101D001D002D08A82DA
:1061B80001D08A92000100013E7C0001D890E937A5
:1061C800D890E9378050030BE9130F0EE917840EB6
:1061D800E925F66EF76A190EF722F86A000EF8221A
:1061E8000800F550606F000E60BFFF0E616F626FB0
:1061F800636F60510401C05F000161510401C15B1C
:10620800000162510401C25B000163510401C35BD8
:1062180000013CA601D001D007D000013C96040142
:10622800C06BC16BC26BC36B00013DB201D001D022
:1062380008D0C0C4F0F2C1C4F1F2C2C4F2F2C3C4BF
:10624800F3F269C0F5FF68C0F8FF67C0F7FF66C0E2
:10625800F6FF65C0DAFF64C0D9FF1100B8C0CCF002
:10626800B9C0CDF0BAC0CEF0BBC0CFF0CCC07AF088
:10627800CDC07BF0CEC07CF0CFC07DF0BB0E7E6F72
:10628800A20E7F6F910E806F390E816F0DEC37F083
:1062980088D8EAEC38F0AE51BCC0D9FFBDC0DAFFEF
:1062A800DF6EBCC0D9FFBDC0DAFFDF50E8EC3FF0BD
:1062B80089D8610E8D6F450E8E6F44EC3DF091D8F4
:1062C8008EEC3DF0CCC07AF0CDC07BF0CEC07CF037
:1062D800CFC07DF0890E7E6F880E7F6F806F3C0E79
:1062E800816F0DEC37F05DD8EAEC38F0AE51BEC0E6
:1062F800D9FFBFC0DAFFDF6EBEC0D9FFBFC0DAFF6B
:10630800DF50E8EC3FF05ED8700E8D6F420E8E6F56
:1063180044EC3DF066D88EEC3DF0CCC0AEF0CDC07C
:10632800AFF0CEC0B0F0CFC0B1F0EAEC38F0AE516B
:10633800C0C0D9FFC1C0DAFFDF6E000EA16FCC0E5E
:10634800A06FC0C0D9FFC1C0DAFFDF50E8EC3FF052
:1063580075C0A2F076C0A3F077C0A4F078C0A5F00D
:106368008EEC3DF0000E8A6FCC0E896F8B6B8C6BB8
:106378007A0E8D6F440E8E6F44EC3DF0CCC0AEF0BB
:10638800CDC0AFF0CEC0B0F0CFC0B1F0EAEC38F07D
:10639800C2C0D9FFC3C0DAFFAEC0DEFFAFC0DDFFA9
:1063A80012007AC0C4F07BC0C5F07CC0C6F07DC0C6
:1063B800C7F0C4C0AEF0C5C0AFF0C6C0B0F0C7C02B
:1063C800B1F0120075C0C8F076C0C9F077C0CAF045
:1063D80078C0CBF0000E8A6FC80E896F8B6B8C6B00
:1063E8001200000EA16FCC0EA06FC8C0A2F0C9C0E9
:1063F800A3F0CAC0A4F0CBC0A5F01200986B9A6BAA
:1064080094C09AF0756B010E766F1BEC3CF089EC2A
:106418003AF098512DE0010E756F000EB2EC3BF08A
:106428009A670FD09351020DF3509125D96E000E43
:106438009221DA6EDECF76F0DDCF77F084EC3FF094
:1064480008D09A51020DF3CF95F0FE0E77D884EC60
:106458003FF0756B010EB2EC3BF02A0E47EC3AF0B8
:106468005AD884EC3FF0756B010EB2EC3BF023D0A8
:106478002A0E47EC3AF04FD884EC3FF0010E756FC6
:10648800B2EC3BF06DD80BE191C0D9FF92C0DAFFB6
:10649800DECF76F0DDCF77F084EC3FF008D09A516C
:1064A800020DF3CF95F0020E49D884EC3FF0000EB0
:1064B800756BB2EC3BF042EC40F0996F99AF18D095
:1064C80099C09AF021D09A691FD0FE0E9A6F1CD0FD
:1064D800010E986F45D803E193C09AF098D79A2B8C
:1064E80096D7986B9A6702D09A6B91D79A078FD7ED
:1064F8009951010A09E0030AE6E0010AE6E0070A01
:10650800E7E0010AEEE083D7756B766B010E1BECB2
:106518003CF09A5112009A51020DF3509125956F53
:10652800E86AF3BEE8689221966F95C0D9FF96C0D5
:10653800DAFFDECF76F0DDCF77F0120095279551A0
:106548009125966FE86A95BFE8689221976F96C083
:10655800D9FF97C0DAFFDECF76F0DDCF77F01200F3
:1065680093519AC095F0966B95BF96079519961119
:106578001200000177357835806F7B357C357F6F69
:10658800805109E07F5180610FD080517F5D7D6F20
:10659800210E7D5D09E379C075F07AC076F07BC085
:1065A80077F07CC078F012007F5109E080517F615C
:1065B8000FD07F51805D7D6F210E7D5D09E375C031
:1065C80075F076C076F077C077F078C078F0120072
:1065D800060E7E6F78BF7E8F7CBF7E8D778F786B3F
:1065E8007B8F7C6B7F51806119D0D89079377A374F
:1065F8007B377C377F077F5180190CE07E070001CD
:106608007E51070B07E0F1D7D8907833773376338C
:106618007533802B7F518063F7D71BD080517F6102
:1066280018D0D890753776377737783780077F5105
:1066380080190CE07E0700017E51070B07E0F1D7B7
:10664800D8907C337B337A3379337F2B7F518063C7
:10665800F7D77EAF09D0751F761F771F781F752B68
:10666800000E7623772378237EAD02D0791F26D8B3
:106678007E6B7551792776517A2377517B23785130
:106688007C237CAF04D0791F19D8010E7E6F79C0A6
:106698006BF07AC06CF07BC06DF07CC06EF080C08F
:1066A8006FF07EC070F0D3EC37F06BC075F06CC043
:1066B80076F06DC077F06EC078F012007A1F7B1FFD
:1066C8007C1F792B000E7A237B237C23000C000E81
:1066D800896B8A6B8B6B8C6BA6C08DF0A7C08EF014
:1066E800A8C08FF0A9C090F0ACEC3CF005E3A66B15
:1066F800A76BA86BA96B1200A6C0AAF0A7C0ABF045
:10670800A8C0ACF0A9C0ADF0A6515E08B36FC80E22
:10671800A755B46F6E0EA855B56FBE0EA955B66FC6
:10672800D890B633B533B433B333D880000EAB5BEF
:10673800800EAC5B000EAD5B040EAE6FB3C07AF09A
:10674800B4C07BF0B5C07CF0B6C07DF0AAC07EF0C6
:10675800ABC07FF0ACC080F0ADC081F00DEC37F07D
:106768007AC0AFF07BC0B0F07CC0B1F07DC0B2F0B1
:106778003CD844EC3DF039D844EC3DF0000E8A6F2B
:10678800B30E896F8B6B8C6BC00E8D6F3F0E8E6F47
:1067980044EC3DF0000EA16FB30EA06FAFC0A2F0A5
:1067A800B0C0A3F0B1C0A4F0B2C0A5F08EEC3DF02B
:1067B800AE2FC4D7B3C07AF0B4C07BF0B5C07CF0BC
:1067C800B6C07DF0A6C07EF0A7C07FF0A8C080F05C
:1067D800A9C081F00DEC37F07AC0A6F07BC0A7F015
:1067E8007CC0A8F07DC0A9F01200000E8A6FAF0E21
:1067F800896FB3C08BF0B4C08CF0B5C08DF0B6C053
:106808008EF01200E8CF93F00001935186D8100E55
:106818006F6F0E0E706F000E716B726BF8EC3CF0C0
:1068280067D822EC3EF075C08BF076C08CF077C04C
:106838008DF078C08EF069EC3DF08F516ED83C0E2B
:106848006F6F000E706B716B726BF8EC3CF050D888
:1068580022EC3EF075C08BF076C08CF077C08DF0DE
:1068680078C08EF069EC3DF0000E8A6F9C0E896F3F
:106878009051E8EC3FF075C08BF076C08CF077C093
:106888008DF078C08EF069EC3DF091C075F092C043
:1068980076F02FEC3FF075C094F076C095F077C095
:1068A80096F078C097F0000E8A6F940E896F6F0E7D
:1068B8008B6F120E8C6F830E8D6F3A0E8E6F44ECB9
:1068C8003DF0000E8A6F9C0E896F94C08BF095C0C6
:1068D8008CF096C08DF097C08EF069EC3DF09CC0AE
:1068E8008FF09DC090F09EC091F09FC092F0120072
:1068F8006BC098F06CC099F06DC09AF06EC09BF0B8
:10690800000E8A6F9C0E896F98C075F099C076F05A
:106918009AC077F09BC078F01200986F996B9A6BC9
:106928009B6B98C06BF099C06CF09AC06DF09BC0DF
:106938006EF01200070E0101FD6F89EC3AF01C0E93
:10694800776FC20E766F84EC3FF0000E756B766B36
:106958001BEC3CF03E863B8600013BB6FDD7D3ECF2
:106968001BF01FEC41F09D6F9D51800A820F1BE2C6
:1069780062D07EEC3CF089C099F08AC09AF08BC056
:106988009BF08CC09CF0000E8A6F990E896F8B6B00
:10699800400E8C6F9C0E8D6F450E8E6F69EC3DF02E
:1069A800966B976B09D09D51030AE3E098699807A5
:1069B80000019829D4E0FBD7D3EC1BF01FEC41F081
:1069C8009D6F9D51800A820F36E37EEC3CF089C0B2
:1069D80091F08AC092F08BC093F08CC094F099C06B
:1069E80089F09AC08AF09BC08BF09CC08CF091C053
:1069F8008DF092C08EF093C08FF094C090F0ACEC04
:106A08003CF0A9E30DD0964B972B9751800A800F45
:106A1800090ED8B4965D0FE208D0966B976B05D037
:106A28009D51040AF0E0010AF8E09869980700010E
:106A38009829C2E0FBD7756B766B010E1BEC3CF016
:106A480000013E961200D0C0B8F0D1C0B9F0D2C053
:106A5800BAF0D3C0BBF0000EBD6FD60EBC6F000EEF
:106A6800BF6FD70EBE6F000EC16FD80EC06F000E7D
:106A7800C36FD90EC26F32EC31F0D9C06BF0DAC0F7
:106A88006CF06E6B640E6D6F06EC3BF06BC0D9F06A
:106A98006CC0DAF0D4A70ED0D5A703D03C0E47ECD3
:106AA8003AF0D65151D8A1EC28F0D5A703D03E0E24
:106AB80047EC3AF0D4A513D0D4A703D03A0E47EC4C
:106AC8003AF0D5A503D03C0E47EC3AF0D7513CD864
:106AD800A1EC28F0D5A503D03E0E47EC3AF0D4A39C
