:04100000C8EF0CF039
:10100800D9CF64F0DACF65F0F6CF66F0E4EF30F0D0
:10101800D8CF19F0E8CF1AF0E0CF1BF0D9CF1CF0E9
:10102800DACF1DF0F6CF1EF0F7CF1FF0F8CF20F083
:10103800F5CF21F0830ECF6E1A0ECE6E9E90010E64
:101048000301C827000EC923000ECA23000ECB23B4
:1010580000013DB801D001D008D0C8C3F8F2C9C317
:10106800F9F2CAC3FAF2CBC3FBF200013EAE01D0DB
:1010780001D00FD00301C851CC5DC951CD59CA5117
:10108800CE59CB51CF59D8B001D001D002D00001F0
:101098003E9E51505010D8B401D001D008D050060F
:1010A800D8A0510600013EA601D001D003D000010E
:1010B8003B9A02D000013B8AD8905736D8905736D1
:1010C8008138E8461F0B030B57120F0E5716240ED4
:1010D8005724F66EF76A1A0EF722F86A000EF822FD
:1010E8000800F550555E582A5828D8A401D001D0D8
:1010F80004D0586A556A00013C845550800A7D0F17
:10110800D8A001D001D010D0040E546E00013B824B
:10111800E5C350F0E6C351F000013B80030158C01D
:10112800D0F3D16B586A556A5550800A820FD8B0EF
:1011380001D001D010D0050E546E00013B82E5C3EA
:1011480050F0E6C351F000013B80030158C0D0F3D2
:10115800D16B586A556A81B401D001D007D0524A80
:10116800532AE5C350F0E6C351F016D0020E525C84
:10117800000E5358D8A001D001D00CD0C80E525C34
:10118800000E5358D8B001D001D004D0010E546ECF
:1011980000013B82526A536AB10E525C040E5358E6
:1011A800D8A001D001D001D0FF005304900ED8B4CC
:1011B8005218D8A401D001D004D0030E546E0001F7
:1011C8003B825250C80A5310D8A401D001D004D091
:1011D800020E546E00013B8200013BA601D001D0F3
:1011E80009D000013B92546A0001F16B00013B9663
:1011F80000013D9A00013DBA01D001D012D0000192
:101208003BA201D001D004D054C0F1F000013B92C0
:1012180000013FA001D001D004D000013F9059C087
:10122800F1F000013DB601D001D018D000013BA07B
:1012380001D001D013D00401280E5624D96EDA6AE1
:10124800040EDA220301D0C3DFFF562A0F0E5664BC
:1012580001D001D001D0566A00013B9000013D82C7
:10126800F0C22FF0F1C230F0F2C231F0F3C232F026
:1012780000013D9200013EA001D001D0CFD0000175
:101288003C9A4C500401405D4D5041594E504259D2
:101298004F504359D8B001D001D024D0405002015A
:1012A800F45F4150F55B4250F65B4350F75B4050AA
:1012B800F45D4150F5594250F6594350F759D8B0AA
:1012C80001D001D060D044C43CF445C43DF446C4C8
:1012D8003EF447C43FF4F46BF56BF66BF76B000113
:1012E8003E9051D044500201F45D4550F5594650A6
:1012F800F6594750F759D8B001D001D01CD040500A
:10130800F4274150F5234250F6234350F723F45174
:10131800445CF5514558F6514658F7514758D8B0EE
:1013280001D001D008D044C0F4F245C0F5F246C05F
:10133800F6F247C0F7F2F451445CF5514558F651BE
:101348004658F7514758D8B001D001D01CD040506A
:10135800F45F4150F55B4250F65B4350F75B4450F5
:10136800F45D4550F5594650F6594750F759D8B0ED
:1013780001D001D008D044C0F4F245C0F5F246C00F
:10138800F6F247C0F7F20201F451E827F551E923D4
:10139800F651EA23F751EB23F451E85DF551E95989
:1013A800F651EA59F751EB59D8B001D001D008D01D
:1013B800010EEC27000EED23000EEE23000EEF23A6
:1013C800EBC24CF0ECC24DF0EDC24EF0EEC24FF065
:1013D80000013EA001D001D0D2D000013EA201D030
:1013E80001D00ED04C50485C04013C6F4D50495818
:1013F8003D6F4E504A583E6F4F504B583F6FBFD0CD
:1014080048504C2404013C6F49504D203D6F4A50D0
:101418004E203E6F4B504F203F6FB1D000013CAA89
:1014280001D001D009D02FC03CF430C03DF431C008
:101438003EF432C03FF4A3D000013EAA01D001D04F
:101448009ED000013CA201D001D00AD000013C92FC
:1014580048C444F049C445F04AC446F04BC447F078
:1014680044500201F45D4550F5594650F65947502D
:10147800F759D8B001D001D020D000013C804050AD
:101488000201F4274150F5234250F6234350F72335
:10149800F451445CF5514558F6514658F7514758B0
:1014A800D8B001D001D040D044C0F4F245C0F5F224
:1014B80046C0F6F247C0F7F237D0F451445CF55114
:1014C8004558F6514658F7514758D8B001D001D081
:1014D80029D000013C8040500201F45D4150F5598B
:1014E8004250F6594350F759D8B001D001D005D031
:1014F800F46BF56BF66BF76B08D04050F45F415016
:10150800F55B4250F65B4350F75B4450F45D455041
:10151800F5594650F6594750F759D8B001D001D07F
:1015280003D0C2D700013C900201F451E827F551DD
:10153800E923F651EA23F751EB23F451E85DF5511D
:10154800E959F651EA59F751EB59D8B001D001D011
:1015580008D0010EEC27000EED23000EEE23000E3E
:10156800EF23EBC24CF0ECC24DF0EDC24EF0EEC2F0
:101578004FF000013EA201D001D042D733D7C4CFEB
:1015880033F0346A3350346E336AC3503326000E56
:101598003422C2825E50335C266E5F503458276E08
:1015A800040E126E273427322632122EFBD726500D
:1015B8005E2627505F2233505E5C34505F58D8B0A7
:1015C80001D001D002D05E4A5F2A5E50335C5F5082
:1015D8003458D8B001D001D003D05E06D8A05F0639
:1015E80000013DB001D001D004D05EC0FCF25FC064
:1015F800FDF20301D6515E5CD7515F58D8B001D0D7
:1016080001D002D000013D8C2F500401385D296EB5
:10161800305039592A6E2FC038F430C039F431C0EF
:101628003AF432C03BF42AAE01D001D004D0296C80
:101638002A1ED8B02A2A0301DAC301F0026A29C097
:1016480003F02AC004F0C4EC40F001C033F002C03B
:1016580034F0DB513326000E3422000E335C010EC9
:101668003458D8A001D001D004D0000E346EFF0E3B
:10167800336E5EC012F05FC013F0040E146ED89083
:1016880013321232142EFBD71250286ED8C301F031
:10169800D9C302F028C003F0046A01EC3EF001C08F
:1016A80024F002C025F033C035F034C036F0376A74
:1016B800386A24C00DF025C00EF00F6A106A350E86
:1016C800DCEC3DF0060E126ED890383237323632E6
:1016D8003532122EF9D7000E355C040E3658000E3E
:1016E8003758000E3858D8A001D001D008D0FF0EC6
:1016F800356E030E366E000E376E000E386E35509E
:101708005A5C36505B5837505C5838505D58D8B0E2
:1017180001D001D008D0010E5A26000E5B22000E1F
:101728005C22000E5D2235505A5C36505B583750AB
:101738005C5838505D58D8B001D001D008D0010E9F
:101748005A26000E5B22000E5C22000E5D225A50C3
:10175800355C5B5036585C5037585D503858D8B0B7
:1017680001D001D005D05A06000E5B5A5C5A5D5A6A
:101778005A50355C5B5036585C5037585D50385875
:10178800D8B001D001D005D05A06000E5B5A5C5A79
:101798005D5A2F5004013C5D2B6E30503D592C6E24
:1017A80031503E592D6E32503F592E6E0301EFC312
:1017B80012F0F0C313F0000E13BEFF0E146E156E78
:1017C8001550800A166E2B50125C2C5013582D5051
:1017D80014582E50800A1658D8B001D001D00ED017
:1017E80023EEEFF0DECF2BF0DDCF2CF0000E2CBE79
:1017F800FF0E2D6E2E6E00013D8E37D023EEEFF0DA
:10180800DECF12F0DDCF13F0121E131E124A132A78
:1018180012C014F013C015F0000E15BEFF0E166EA0
:10182800176E2E50800A186E14502B5C15502C58C9
:1018380016502D581750800A1858D8B001D001D02A
:1018480014D023EEEFF0DECF12F0DDCF13F0121E2E
:10185800131E124A132A12C02BF013C02CF0000ECC
:101868002CBEFF0E2D6E2E6EC6D70001E9512B5CE3
:10187800226EEA512C58236E2BC0E9F02CC0EAF0F6
:10188800F1C301F0F2C302F02BC003F02CC004F046
:10189800C4EC40F001C039F002C03AF0F3C301F0E3
:1018A800F4C302F022C003F023C004F0C4EC40F0FB
:1018B8000150392602503A223AAE01D001D007D061
:1018C8008B908A80396C3A1ED8B03A2A02D08B8025
:1018D8008A9039C012F03AC013F0000E13BEFF0E02
:1018E800146E156E12505A5C13505B5814505C58A5
:1018F80015505D58D8B001D001D004D05AC039F085
:101908005BC03AF000013EA601D001D00CD08B900C
:101918008A90396A3A6A2FC03CF430C03DF431C02D
:101928003EF432C03FF43A50800A7D0F850ED8B499
:10193800395CD8A001D001D004D0030E3A6EFF0E56
:10194800396E3950FF08396E3A50D8A0E82A030892
:101958003A6E3A343A3239323A343A32393239C054
:10196800BCFF21C0F5FF20C0F8FF1FC0F7FF1EC055
:10197800F6FF1DC0DAFF1CC0D9FF1BC0E0FF1AC06C
:10198800E8FF19C0D8FF1000BCEF36F000000000D7
:10199800000000000000000000000000000000003F
:1019A800000000000000000000000000000000002F
:1019B8000000000000000000000000000001020319
:1019C800040506070809000000000000000A0B0CC7
:1019D8000D0E0F000000000000000000000A0B0CB4
:1019E8000D0E0F00000000000000000000000000C5
:1019F80000000000000000000000000000000000DF
:101A08000000000000000000000000003031323308
:101A180034353637383941424344454600FF0100E2
:101A2800010000FFFF0000010001FF004D4F564577
:101A380020544F205A45524F20444547524545535C
:101A480000002020202020202020202020202020CE
:101A580020202020200000524F544154494F4E204E
:101A6800444952454354494F4E3A000052554E4E50
:101A7800494E473A20542D48483A4D4D3A53530061
:101A88000054494D4520464F5220414C4C204F525E
:101A98004249545300004359434C4520434F554E47
:101AA800543A303D494E462E00004457454C4C2090
:101AB8004F4E20504F494E542023303000004D41A6
:101AC8005820574159504F494E5453204841564584
:101AD80000004D4F564520544F204E455854205035
:101AE8004F494E54000045585445524E414C2043EE
:101AF80054524C204D4F444500004D4F56494E47D7
:101B080020544F20504F494E54202300002B585842
:101B18005858DF205448454E20434C49434B000059
:101B280041444420414E4F5448455220504F494E5D
:101B3800543F0053504545443A2058582E5858DFD2
:101B48002F536563000050524F4752414D20454E78
:101B580044204D4F44453A0000434F554E5445529A
:101B680020434C4F434B5749534500004457454C7D
:101B78004C204F4E20504F494E54202300004D4FCB
:101B880056494E4720544F204F524947494E00006E
:101B98004241545445525920564F4C544147453AB6
:101BA80000004D4F564520544F2053544152542E57
:101BB8002E2E0000494E46494E4954452052554E56
:101BC80054494D450000494E46494E495445204325
:101BD80059434C4553000054494D45205045522027
:101BE8004F524249543A00004D4F56494E472054EF
:101BF8004F205354415254000042415454455259C5
:101C080020564F4C5441474500004457454C4C2002
:101C18004F4E2053544152540000544F54414C20CD
:101C280052554E54494D453A000054494D452050AF
:101C38004552204F5242495400004259204F5242C7
:101C4800495420434F554E54000043494E45464C95
:101C58005558204F524249540000425920544F547D
:101C6800414C2054494D4500004F5242495420529E
:101C7800554E4E494E4700005448454E20434C4966
:101C8800434B2E2E2E00005245414C54494D4520C1
:101C98004D4F44450000574159504F494E54204D2F
:101CA8004F4445000054524156454C2054494D4537
:101CB8003A000050524553455420534C4F543A0073
:101CC800004F524249542053504545443A00004F72
:101CD80052424954204C494D49543A00004E455609
:101CE800455220454E44494E4700004558544552F8
:101CF8004E414C204D4F4445004457454C4C2054D0
:101D0800494D453A000053544F5050494E472E2EE6
:101D18002E00005448454E20434C49434B2E0000AA
:101D280052554E2050524F4752414D0000205245C7
:101D3800562052454D41494E0000534156452050CA
:101D480052455345540000312E302E313430323450
:101D58002E340000474F20544F20534C4545500027
:101D6800004C4F4F50204D4F44453F0000424545E1
:101D78004E20414444454400002D4F5242495420CE
:101D880020202000002D454D5054592020202000AF
:101D9800002D574159504F494E542000004F524290
:101DA8004954204D4F4445000052554E205052454D
:101DB80053455400005052455345542030310000DB
:101DC8004F4E452D5741590000414354494F4E3A13
:101DD80000004359434C45200000424F554E4345AF
:101DE800000020564F4C545300004D414E55414C75
:101DF80000003C4E4F3E2000003C5945533E000039
:101E080053504545440000204F462000003C6D7368
:101E18003E003C483E003C4D3E003C533E00000026
:101E2800020E0101FF6F1B0ED56F690ED46F1B0EDA
:101E3800D76F610ED66FD6C1EEF1D7C1EFF1D4C11D
:101E4800F0F1D5C1F1F11D0ED96FF20ED86F1C0E4D
:101E5800DB6F370EDA6F1A0EDD6F8E0EDC6FD8C1AE
:101E6800F6F1D9C1F7F1DAC1F8F1DBC1F9F1DCC15A
:101E7800FAF1DDC1FBF11C0EDF6F420EDE6F1C0EA6
:101E8800E16F620EE06F1C0EE36FE50EE26FDEC1DC
:101E9800E8F1DFC1E9F1E0C1EAF1E1C1EBF1E2C14A
:101EA800ECF1E3C1EDF11D0EE56F280EE46F1D0E98
:101EB800E76F420EE66FE4C1F2F1E5C1F3F1E6C166
:101EC800F4F1E7C1F5F121EC3BF01B0E776FAA0E98
:101ED800766F02EC40F0756B010E4AEC3CF01D0E7B
:101EE800776F1B0E766F02EC40F000013C8A96EC8F
:101EF80041F00101FC6F3C9AFCAF02D0FC5112008A
:101F080043EC36F0A6C0AEF0A7C0AFF0A8C0B0F062
:101F1800A9C0B1F082EC39F0AEC04DF4AFC04EF4B8
:101F2800010E0001926FEE0E916F010E936F1A0E63
:101F3800956F5F0E946F50C496F0D1EC39F00101A3
:101F4800FC6FFC29C0E0FC51FE0A01E1FE0CFCBF5D
:101F5800D5D7FCC150F4010E0001926FE80E916FC5
:101F6800020E936F1B0E956F4E0E946F4FC496F032
:101F7800D1EC39F00101FC6FFC29D2E0FC51FE0ADA
:101F8800E5E0FCBFBBD7FCC14FF413D255C489F0C0
:101F980056C48AF057C48BF058C48CF000018D6B7E
:101FA8008E6B800E8F6F3F0E906F44EC3DF007E212
:101FB8000401556B566B800E576F3F0E586F00012A
:101FC800896BC00E8A6F790E8B6F440E8C6F55C467
:101FD8008DF056C48EF057C48FF058C490F044EC7E
:101FE8003DF008E20401556BC00E566F790E576F2D
:101FF800440E586F1C0E0001C86FD70EC76F1A0E1B
:10200800CA6F5E0EC96F040ECC6F550ECB6FCD6BC9
:10201800CE6B800ECF6F3F0ED06FD16BC00ED26FDC
:10202800790ED36F440ED46FD56BD66B800ED76FF5
:102038003F0ED86F65EC27F00101FC6FFC298BE09F
:10204800FC51FE0A83E0FCBF59D70001896B8A6BFB
:10205800800E8B6F3F0E8C6F55C48DF056C48EF07A
:1020680057C48FF058C490F044EC3DF010E2010ED4
:102078000001926FF60E916F020E936F1C0E956F12
:10208800C90E946F61C496F0D1EC39F004D0010EFA
:1020980044DAD1EC39F00101FC6FFC2901E176D773
:1020A800FC51FE0A01E152D7FCBF28D7A3D0FAD9C8
:1020B80044EC3DF001E23EDABCD965EC27F00101C1
:1020C800FC6FFC29C2E0FC51FE0A01E13FD77AD13E
:1020D80005DA44EC3DF001E246DA1C0E0001DC6F43
:1020E800320ECBD955EC1FF0FC6FFC29AEE0FC5149
:1020F800FE0A01E12BD7000101DA27EC39F04BD1B8
:1021080059C489F05AC48AF05BC48BF05CC48CF063
:1021180000017E6B7F6B800E806F400E816F55C40F
:102128007AF056C47BF057C47CF058C47DF0A5EC17
:1021380037F07AC08DF07BC08EF07CC08FF07DC008
:1021480090F044EC3DF00BE2FFD9A5EC37F07AC0F3
:1021580059F47BC05AF47CC05BF47DC05CF4F4D9BC
:10216800A5EC37F07AC0D0F17BC0D1F17CC0D2F1B8
:102178007DC0D3F11A0EDC6F890EDB6F040E0001EF
:10218800DE6F590EDD6FD0C1DFF0D1C1E0F0D2C1F2
:10219800E1F0D3C1E2F098D955EC1FF0FC6FFC29AF
:1021A80001E153D7FC51FE0A01E1D0D600017E6B54
:1021B8007F6BB40E806F430E816F55C47AF056C49E
:1021C8007BF057C47CF058C47DF0A5EC37F07AC09A
:1021D80089F07BC08AF07CC08BF07DC08CF059C43C
:1021E8008DF05AC48EF05BC48FF05CC490F027EC7D
:1021F80039F0D1D0FC5101E15AD7010A01E168D781
:10220800030A01E17DD7DED01C0E0001DC6F220E2F
:10221800DB6F040EDE6F510EDD6FDF6BE06B800E3F
:10222800E16F3F0EE26F50D955EC1FF0FC6FFC29AF
:1022380001E191D6FC51FE0A01E188D6FCBF5ED6C9
:10224800010E6BD9D1EC39F00101FC6FFC29DCE0FF
:10225800FC51FE0A01E17AD6FCBF50D631D022D912
:1022680044EC3DF001E266D9E4D865EC27F00101C1
:10227800FC6FFC29E5E0FC51FE0A01E167D624D099
:102288002DD944EC3DF001E26ED91B0E0001DC6F44
:10229800DF0EF3D855EC1FF0FC6FFC29D1E0FC51A0
:1022A800FE0A01E153D6000129D927EC39F089C08B
:1022B8005DF48AC05EF48BC05FF48CC060F404D017
:1022C800FC51CDE0010ADCE051C47EF052C47FF03D
:1022D80053C480F054C481F05DC47AF05EC47BF0CE
:1022E8005FC47CF060C47DF0A5EC37F07AC089F05B
:1022F8007BC08AF07CC08BF07DC08CF08D6B8E6BC0
:10230800B40E8F6F430E906F27EC39F089C055F4E7
:102318008AC056F48BC057F48CC058F453D0010EC1
:10232800FCD8D1EC39F00101FC6FFC2901E113D68E
:10233800FC51FE0A01E10AD6FCBFE0D535D0B2D87F
:1023480044EC3DF001E2F6D874D865EC27F00101C1
:10235800FC6FFC29E4E0FC51FE0A01E1F7D5FCBF63
:10236800CDD530D0BBD844EC3DF001E2FCD81B0EF3
:102378000001DC6FDF0E81D855EC1FF0FC6FFC29E3
:10238800CEE0FC51FE0A01E1E1D5FCBFB7D5000162
:10239800B5D827EC39F089C05DF48AC05EF48BC0EB
:1023A8005FF48CC060F40ED0FC51C9E0010ADAE099
:1023B80009D004014F5101E1E9D5010A01E124D70F
:1023C800030AADE0010E0001926FF20E916F010E4B
:1023D800936F1D0E956FD10E946F000E966BD1EC16
:1023E80039F00101FC6FFC2901E1D0D5FC51FE0A4E
:1023F80001E1ACD5FCBF82D5FC6702D095EF25F092
:102408000CEC38F00101FC6FFC29DCE0FC51FE0A01
:1024180001E19CD5FCBF72D5020E04014C6F040E7D
:102428000001746F4C0E736F0101FC5197EC40F082
:10243800C9D71E0E0001C86F080EC76F1B0ECA6FE2
:10244800470EC96F040ECC6F5D0ECB6F0A0ECD6FB1
:10245800D70ECE6F230ECF6F3C0ED06FD16BD26BE1
:10246800B40ED36F420ED46F0A0ED56FD70ED66F47
:10247800230ED76F3C0ED86F3C0CDB6F040EDE6F5B
:10248800590EDD6FDF6BE06B800EE16F400EE26F7F
:10249800E36BC00EE46FA80EE56F470EE66F0E0EF5
:1024A800E76F0E0C5DC489F05EC48AF05FC48BF0E0
:1024B80060C48CF00A0E00018D6FD70E8E6F230E4C
:1024C8008F6F3C0E906F3C0CE36BC00EE46FA80E50
:1024D800E56F470EE66F0E0EE76F0E0C59C489F0D4
:1024E8005AC48AF05BC48BF05CC48CF000018D6B1D
:1024F8008E6B800E8F6F400E906F400C896B8A6BCD
:10250800B40E8B6F430E8C6F59C48DF05AC48EF085
:102518005BC48FF05CC490F0430C0001926FF60E20
:10252800916F010E936F1C0E956FC90E946F61C465
:1025380096F012000A0E04015D6FD70E5E6F230E2F
:102548005F6F3C0E606F3C0C55C47AF056C47BF04C
:1025580057C47CF058C47DF07E6B7F6B800E806F13
:10256800400E816F400C0401596B5A6B800E5B6FF3
:10257800400E5C6F400C080E0101FF6F536B526BED
:102588003B88546B516B21EC3BF01C0E776FF30EBC
:10259800766F02EC40F0A8EC41F0D76FD751030AF0
:1025A80001E1A4D24FD03E903C9A3E9A56D006DB29
:1025B8003CB2FED73CB051D00101546B4ED03EB076
:1025C8004CD0010E3CD03EB048D001015351020D11
:1025D80014DB0001DECF71F0DDCF72F06FEC41F05B
:1025E8000101532B040E2CD03EBE37D001015251AD
:1025F800536301D0E6D75351020DF8DA0001DECF5C
:1026080075F0DDCF76F0C7EC3FF075C04DF176C0C0
:102618004EF177C04FF178C050F101015351020DCE
:10262800D7DA0001DECF75F0DDCF76F0AEEC40F002
:102638006ADA74EC2DF080DA1CEC40F0030E01012C
:10264800546F0BD001015451AEE0010AB0E0030A07
:10265800B6E0010AB8E0070AC7E000013BAE9BD725
:102668000101FD6B010E0001EF6F00013B9E03ECC1
:102678003FF00201FE198FE103EC3FF00101556FB5
:102688001DD203EC3FF00101566F03EC3FF001014E
:10269800576F03EC3FF00101586F03EC3FF0010165
:1026A800596F56C138F157C139F158C13AF159C17A
:1026B8003BF16DDA03EC3FF00101566F03EC3FF09C
:1026C8000101576F03EC3FF00101586F03EC3FF035
:1026D8000101596F56C13CF157C13DF158C13EF156
:1026E80059C13FF154DA03EC3FF00101566F03EC96
:1026F8003FF00101576F03EC3FF00101586F03EC05
:102708003FF00101596F56C140F157C141F158C11D
:1027180042F159C143F13BDA03EC3FF00101FD19E5
:1027280006E1010E516F5551DAEC40F034D757DA13
:1027380036EC40F030D7516708D0010E00016D6FBC
:102748000101555136EC40F026D7545108E0020EED
:1027580000016D6F0101555136EC40F01CD738C1AE
:10276800B8F039C1B9F03AC1BAF03BC1BBF03CC1CD
:10277800BCF03DC1BDF03EC1BEF03FC1BFF040C19D
:10278800C0F041C1C1F042C1C2F043C1C3F082EC04
:1027980021F00101516B020E546F5551DAEC40F0F3
:1027A800FAD6545102E0010E546F5551DAEC40F05C
:1027B800F2D6FE6BA3EC18F0240EDF6EFE2B5551FB
:1027C80068EC3FF0545168EC3FF05451FD275151EB
:1027D80068EC3FF05151FD270BEC3DF0BAEC3EF0B0
:1027E80075C056F176C057F177C058F178C059F1E5
:1027F8003D92D6D970EC3EF00101565168EC3FF09D
:10280800575168EC3FF0585168EC3FF0595168EC6B
:102818003FF0ABD9566B576B586B596B12D0F4C25B
:1028280075F0F5C276F0F6C277F0F7C278F050ECA2
:1028380040F075C056F176C057F177C058F178C0AE
:1028480059F1F4C275F0F5C276F0F6C277F0F7C226
:1028580078F050EC40F001015951000178190EE16F
:10286800010158510001771909E10101575100018F
:10287800761904E10101565100017519D0E1010EE4
:1028880000018A6F560EEAEC18F070EC3EF088D919
:1028980070EC3EF00101565168EC3FF0575168EC7E
:1028A8003FF0585168EC3FF0595168EC3FF05DD962
:1028B80000013D88F8C275F0F9C276F0FAC277F0E7
:1028C800FBC278F050EC40F075C056F176C057F175
:1028D80077C058F178C059F13D98010E00018A6F10
:1028E800560E896F6F0E8B6F120E8C6F030E8D6FE5
:1028F8003B0E8E6F70EC3EF00101565168EC3FF0D4
:10290800575168EC3FF0585168EC3FF0595168EC6A
:102918003FF02BD900013D80FCC275F0FDC276F076
:10292800AEEC40F075C056F176C057F177C058F15B
:1029380078C059F13D90010E00018A6F560E896FDB
:10294800E0C38BF0E1C38CF0E2C38DF0E3C38EF0FB
:1029580070EC3EF00101565168EC3FF0575168ECBD
:102968003FF0585168EC3FF0595168EC3FF0FDD802
:10297800FD5168EC3FF0A3EC18F0230EDF6EFE2B40
:10298800FEC14CF1FE6B4CC1F0F005D65451030A60
:1029980003E05451040A08E1010E00016D6F0101C2
:1029A800555136EC40F0F7D5536B526B5551DAEC74
:1029B80040F0F1D55451030A03E05451040A08E1E8
:1029C800010E00016D6F0101555136EC40F0E3D561
:1029D800630E526508D0020E00016D6F010155515A
:1029E80036EC40F0D8D503EC3FF00101566F03EC0C
:1029F8003FF0C4D8FBD856C1DEFF57C1DDFF03EC5A
:102A08003FF00101566F03EC3FF0B8D8E1D856C14A
:102A1800DEFF57C1DDFF03EC3FF00101566F03EC09
:102A28003FF0ACD8EAD856C1DEFF57C1DDFF03EC52
:102A38003FF00101FD1906E15551DAEC40F00101C2
:102A4800522BA9D5CCD836EC40F0A5D5545108E086
:102A5800010E00016D6F0101555136EC40F09BD518
:102A6800536B00C375F001C376F0C7EC3FF075C037
:102A78004DF176C04EF177C04FF178C050F100C8E3
:102A880075F001C876F0AEEC40F03DD874EC2DF04E
:102A980053D81CEC40F0030E0101546F5551DAEC89
:102AA80040F079D55551DAEC40F020D0FE0E000107
:102AB8006D6F0101555136EC40F06DD55551600AE6
:102AC80001E1DFD5010A01E136D6030A01E169D641
:102AD800010A01E16ED6070A01E158D7010A01E1AE
:102AE80069D7030AB3E0E60ADDE0E0D767D806D085
:102AF80001014C694C0701014C29FCE13CB0F8D7B5
:102B080000013B98000C75C048F176C049F177C0C8
:102B18004AF178C04BF14DC1B7F04EC1B8F04FC182
:102B2800B9F050C1BAF048C1BBF049C1BCF04AC1C4
:102B3800BDF04BC1BEF01200B7C044F1B8C045F1BA
:102B4800B9C046F1BAC047F14DC130F14EC131F1BB
:102B58004FC132F150C133F144C134F145C135F1AF
:102B680046C136F147C137F112005651FD2757517A
:102B7800FD275851FD275951FD2712000101576FB4
:102B88005651FD275751FD275251020D1200595138
:102B9800FD275851FD275751FD275651FD27120093
:102BA800010E00018A6F560E896FF9C38BF0FAC3C4
:102BB8008CF0FBC38DF0FCC38EF012003E903C9A63
:102BC8003E8A0401486B496B4A6B4B6B3C8212008E
:102BD800000EF324D96EDA6A080EDA221200516B5D
:102BE800FA0E00016D6F010155511200000EF32419
:102BF800D96EDA6A030EDA221200000EF324D96EB7
:102C0800DA6A020EDA2212000101016B326B3BA86C
:102C180007D0AD69AD070101AD29D8B41200FAD7C4
:102C28003BBE08D00101AD69AD070101AD29D8B49B
:102C38001200FAD70101FD6B010E0001EF6F0001D0
:102C48003B9E03EC3FF00101016F012931E1FE6B6E
:102C5800000E98DA0301FD5168EC3FF00301FD51C5
:102C68000101FD274F0E68EC3FF04F0EFD27520E75
:102C780068EC3FF0520EFD27420E68EC3FF0420E22
:102C8800FD27490E68EC3FF0490EFD27540E68EC0D
:102C98003FF0540EFD27FD5168EC3FF050DA230E4B
:102CA800DF6EFE2BFEC1ADF1FE6BADC1F0F0120080
:102CB8000151030123EEFDF0DF62120003EC3FF047
:102CC8000101AC6F0AD203EC3FF00101006F005123
:102CD800FD2703EC3FF00101FD190CE100C1FDF3F4
:102CE800A5DA030E716FD20E706F2C0E726F25EC81
:102CF8003FF0C6D0EBD1FE6B22DA240EDF6EFE2B3E
:102D0800AC5168EC3FF0AD6B140E7EDA68EC3FF026
:102D180065DAAD65F9D7AD6B000E01018FDA68ECA5
:102D28003FF067DAAD65F8D700013D82F0C275F073
:102D3800F1C276F0F2C277F0F3C278F0BAEC3EF066
:102D480075C0AEF176C0AFF177C0B0F178C0B1F11F
:102D58003D92FDD970EC3EF00101AE5168EC3FF0B8
:102D6800AF5168EC3FF0B05168EC3FF0B15168ECFE
:102D78003FF01CDA70DA0BD0F4C275F0F5C276F0C9
:102D8800F6C277F0F7C278F050EC40F046DAF4C2B9
:102D980075F0F5C276F0F6C277F0F7C278F050EC2D
:102DA80040F00101B151000178190EE10101B05163
:102DB8000001771909E10101AF510001761904E119
:102DC8000101AE5100017519D7E1010E00018A6FAA
:102DD800AE0EFCD970EC3EF0BAD970EC3EF00101B1
:102DE800AE5168EC3FF0AF5168EC3FF0B05168EC81
:102DF8003FF0B15168EC3FF0D9D900013D80FCC2E9
:102E080075F0FDC276F0AEEC40F0C5D9AED970ECE5
:102E18003EF00101AE5168EC3FF0AF5168EC3FF075
:102E2800B05168EC3FF0B15168EC3FF0BFD9FF51A9
:102E380068EC3FF0FF51FD27FD5168EC3FF02ED7BD
:102E4800FE6B7DD9240EDF6EFE2BAC5168EC3FF093
:102E5800AD6B140ED9D968EC3FF0C0D9AD65F9D780
:102E6800AD6B000E0101EAD968EC3FF0C2D9AD653F
:102E7800F8D7FD5168EC3FF011D73F90010E15D0FF
:102E88000101AC51DAEF40F03F90030E0ED03F90B5
:102E9800020E0BD03F90040E08D03F90050E05D0CF
:102EA80000013F9003EC3FF00008596E3F80E8D7DF
:102EB800FE6B45D9240EDF6EFE2BAC5168EC3FF05B
:102EC800FF5168EC3FF0FF5168EC3FF0E7D60BECA0
:102ED8003DF0BAEC3EF075C0AEF176C0AFF177C008
:102EE800B0F178C0B1F13D9232D970EC3EF0AEC18C
:102EF8006DF0AFC16EF0B0C16FF0B1C170F0ACC190
:102F080071F013EF3CF0A7D90BD0F4C275F0F5C2FD
:102F180076F0F6C277F0F7C278F050EC40F07DD941
:102F2800F4C275F0F5C276F0F6C277F0F7C278F021
:102F380050EC40F00101B151000178190EE1010196
:102F4800B0510001771909E10101AF51000176196B
:102F580004E10101AE5100017519D7E1010E00012C
:102F68008A6FAE0E33D970EC3EF0F1D870EC3EF0BB
:102F7800BED700013D80FCC275F0FDC276F0AEEC14
:102F880040F009D9F2D870EC3EF0B1D703EC3FF02D
:102F98000101326F050E326504D030D0AC5136EFE6
:102FA80040F0326701D02AD0010E0001726F330E53
:102FB800716F010132515BEC41F00101FE6B000EB3
:102FC800E1D8AC5168EC3FF0AD6BF9D8DF5068EC54
:102FD8003FF0F5D8DF50FD27AD2B780EAD65F5D75E
:102FE800FD5168EC3FF05AD603EC3FF00101326F17
:102FF800050E326501D002D0326704D0010E0001FF
:103008006D6F69D03251FD27AD6B03EC3FF08F6FC8
:103018000101D5D88FC0DFFFD2D8DF50FD27AD2BF7
:10302800770EAD65F2D703EC3FF00101FD190AE117
:10303800010E0001746F330E736F0101325197EC6A
:1030480040F01ED743D0030E0101316FD20E306F0E
:10305800FE6B000E97D8AC5168EC3FF0AD6B30C1F9
:10306800D9FF31C1DAFFDF5068EC3FF030C1D9FF3A
:1030780031C1DAFFDF50EAD8AD65F1D7FD5168EC10
:103088003FF00CD6010E316F020E306FAD6B03ECC2
:103098003FF030C1D9FF31C1DAFFDF6E30C1D9FF4F
:1030A80031C1DAFFDF500101D1D8AD65F0D703ECAB
:1030B8003FF00101FD190AE1B9D8010E716F020E46
:1030C800706F2C0E726F25EC3FF0DAD6FDC16DF0F3
:1030D80065D700016D69010161D7AC51010A84E02F
:1030E800030A01E153D7120A01E1AAD6010A01E154
:1030F800C4D6030A01E1CBD6010A01E1C5D6070A05
:1031080001E1C8D6010A01E1C8D6030A01E1DFD608
:10311800010A01E1F8D60F0A01E12BD7010A01E102
:10312800BFD6030A01E1C4D6010A01E1E4D5070AC2
:103138008AE0010AA7E0030A01E1C5D5CAD7000E53
:103148000101FE25D96EDA6A060EDA221200010E96
:1031580000018A6FAE0E896FF9C38BF0FAC38CF049
:10316800FBC38DF0FCC38EF0120000018A6FAE0E17
:10317800896FE0C38BF0E1C38CF0E2C38DF0E3C349
:103188008EF01200FE25D96EDA6A060EDA22240EB7
:10319800DF6EFE2B240C75C0AEF176C0AFF177C0A0
:1031A800B0F178C0B1F13D90010E1200AE51FD278B
:1031B800AF51FD27B051FD27B151FD271200330E45
:1031C800AD25D96EDA6A010EDA221200896F8B6B8F
:1031D8008C6BFA0E8D6F370E8E6F370C140E010143
:1031E800AD25D96EDA6A040EDA22DF50FD27AD2B41
:1031F800130C000E0101AD25D96EDA6A040EDA222D
:10320800DF50FD27AD2B130C0101AD25D96EDA6A0D
:103218000401040EDA22DF50120075C0AEF176C048
:10322800AFF177C0B0F178C0B1F112002E6B2F6BFF
:10323800010E00016F6F2E0E6E6F1200AD25D96E54
:10324800DA6A0401040EDA22DF501200FD27304B3F
:10325800312BAD2B2B0CAE6BAF6BB06BB16B12007F
:10326800040E0101FF6FE76BE86BE96BEA6BDC6B3F
:103278000501036B1D0E0101C96FC80EC86F1D0E35
:10328800CB6FE20ECA6FC8C1D0F1C9C1D1F1CAC1B2
:10329800D2F1CBC1D3F11D0ECD6F280ECC6F1D0E10
:1032A800CF6F420ECE6FCCC1D4F1CDC1D5F1CEC116
:1032B800D6F1CFC1D7F1EB6BEC6BED6BEE6BF56B29
:1032C800F66BF76BF86BE56BE66BE16BE26BE36B48
:1032D800E46BDD6BDE6BDF6BE06BF16BF26BF36B5A
:1032E800F46BF96B21EC3BF01B0E776FAA0E766F2F
:1032F80002EC40F0756B010E4AEC3CF01D0E776F46
:103308001B0E766F02EC40F000013C8A96EC41F00F
:103318000101FA6FFAAF02D0FA51120000013C9A8B
:1033280043EC36F0A6C0AEF0A7C0AFF0A8C0B0F02E
:10333800A9C0B1F082EC39F0AEC001F5AFC002F51A
:10334800E7EC3CF08FC0D8F190C0D9F191C0DAF128
:1033580092C0DBF11D0EDC6F010EDB6F010E000168
:103368007CDA55EC1FF0FA6FFA51FE0A01E1FE0C07
:10337800FA29A1E0FABFD0D7F1C1AEF0F2C1AFF09F
:10338800F3C1B0F0F4C1B1F082EC39F0AEC04FF542
:10339800AFC050F5D2D121EC3BF01A0E776FDA0EA0
:1033A800766F02EC40F0756B010E4AEC3CF01B0E98
:1033B800776F150E766F02EC40F03C8A3B8602D0A0
:1033C80008EC16F000013BB6FBD70101FA6B96D06A
:1033D80008EC16F0E7EC3CF08FC0DDF190C0DEF1B0
:1033E80091C0DFF192C0E0F1DDC198F0DEC199F043
:1033F800DFC19AF0E0C19BF0D8C19CF0D9C19DF023
:10340800DAC19EF0DBC19FF0E5EC3FF098C0E1F136
:1034180099C0E2F19AC0E3F19BC0E4F1E1C1AEF0DA
:10342800E2C1AFF0E3C1B0F0E4C1B1F082EC39F031
:10343800AEC0E5F1AFC0E6F1756B010E4AEC3CF0A9
:10344800E5C179F00001E6C17AF0000E7ABFFF0EFF
:103458007B6F7C6F040E7D6F010E7E6F34EC29F05C
:103468003D8AF1C0FAF13D9A0101FA51030A03E1DC
:1034780000013C9AFE0CFA51020A07E13C9A01014C
:10348800F96701D018D7F90786D7FA51050A18E164
:103498003B863C9A0101306B316B800E326FBF0E58
:1034A800ECD91CEC40F002D008EC16F000013EB05C
:1034B800FBD73C8A02D008EC16F000013BB6FBD7DC
:1034C8000101FA51040A17E13B863C9A306B316BD3
:1034D800800E326F3F0ED1D91CEC40F002D008ECC0
:1034E80016F000013EB0FBD73C8A02D008EC16F07B
:1034F80000013BB6FBD70101FABF0ED7FA0501E080
:1035080067D73C9A0101F951020D070EF324D96ED1
:10351800DA6A050EDA22E5C1DEFFE6C1DDFFE1C1A8
:10352800B7F0E2C1B8F0E3C1B9F0E4C1BAF0ADEC6C
:103538002AF0B7C0F5F1B8C0F6F1B9C0F7F1BAC0D2
:10354800F8F1F5C1AEF0F6C1AFF0F7C1B0F0F8C1CF
:10355800B1F082EC39F0AEC0EFF1AFC0F0F1010E7E
:103568000001A16FF50EA06FEFC175F0F0C176F004
:10357800AEEC40F075C0A2F076C0A3F077C0A4F01E
:1035880078C0A5F026EC3EF0000E896B8A6B8B6B39
:103598008C6BF5C18DF0F6C18EF0F7C18FF0F8C1D4
:1035A80090F044EC3DF00DE2010E0101EF25000121
:1035B800756F000E0101F0210001766FAEEC40F04E
:1035C80006D0EFC175F0F0C176F0AEEC40F075C0F2
:1035D800F5F176C0F6F177C0F7F178C0F8F11C0E76
:1035E8000001DC6FAD0EDB6F010EDE6FEB0EDD6FE1
:1035F800F5C1DFF0F6C1E0F0F7C1E1F0F8C1E2F0A3
:10360800E36BE4697F0EE56F470EE66F0E0EE76F1A
:1036180055EC1FF0FA6FFA51FE0A01E1A8D6FA2913
:1036280001E1B9D6FABF78D6EBC1AEF0ECC1AFF084
:10363800EDC1B0F0EEC1B1F082EC39F00101F95101
:10364800020D2B0EF324D96EDA6A050EDA22AEC00B
:10365800DEFFAFC0DDFF1D0E0001DC6F010EDB6F6A
:10366800010EFBD855EC1FF0FA6FFA51FE0A01E182
:103678007ED6FA29B4E0FABF4FD6F1C1AEF0F2C156
:10368800AFF0F3C1B0F0F4C1B1F082EC39F0010150
:10369800D890F9350001E86F510EE825D96EDA6A3D
:1036A800050EDA22AEC0DEFFAFC0DDFF0101F95121
:1036B800800A6F0F24E21B0E0001926F280E916F93
:1036C800010E936F16EC3AF00101FA6FFA51FE0AF7
:1036D80001E14DD6FA29BFE0FA6702D0010EDC6F8E
:1036E800FA050AE1F92BDDC1D8F1DEC1D9F1DFC154
:1036F800DAF1E0C1DBF14FD6FABF0ED61ED021ECCD
:103708003BF01A0E776FC60E766F02EC40F0756BC1
:10371800010E4AEC3CF01D0E776F750E766F02ECC9
:1037280040F096EC41F00101FA6FFA51FE0A01E10E
:103738001ED6FA2990E0010EDC6F0101DC5101E18F
:103748002AD6F9C103F5010E0001926FD00E916FD0
:10375800010E936F1D0E956F690E946F04C596F058
:10376800D1EC39F00101FA6FFA2901E174D7FA5165
:10377800FE0A01E1FCD5FABFCFD5FAC104F51A0E4D
:103788000001C86F9E0EC76F1B0ECA6FD60EC96F99
:10379800010ECC6FE70ECB6FCD6BCE6BCF6BD06BC2
:1037A800D16BC00ED26F790ED36F440ED46FD56B28
:1037B800D66B800ED76F3F0ED86F65EC27F00101EE
:1037C800FA6FFA29C0E0FA51FE0A01E1D0D5FABF32
:1037D800A3D5E7C1AEF0E8C1AFF0E9C1B0F0EAC1E6
:1037E800B1F082EC39F0AEC005F5AFC006F5010EB8
:1037F8000001926FD40E916F010E936F1D0E956F9D
:10380800D10E946F000E966BD1EC39F00101FA6F6E
:10381800FA29B5E0FA51FE0A01E1A9D5FABF7CD52B
:10382800FA6702D049EF1CF00CEC38F00101FA6F8E
:10383800FA29DDE0FA51FE0A01E199D5FABF6CD503
:10384800010E0501006F050E0001746F000E736F05
:103858000101FA5197EC40F0CAD7DE6FF10EDD6F27
:10386800DF6BE06BE16BE26BE36BE4697F0EE56FA6
:10387800470EE66F0E0EE76F0E0C336F346B356B29
:10388800B40E366F420E376F420C0101C36B050E42
:10389800FF6FC26BC56B010EC46F21EC3BF01B0EB2
:1038A800776FF00E766F02EC40F001C575F002C537
:1038B80076F0AEEC40F0D7DA20EC2CF011D008EC22
:1038C80016F0A8EC41F00101C76FC751030A03E1E4
:1038D800FE0EC36F7DD2C7AF03D0C7C1C3F178D284
:1038E80000013EB0ECD721EC3BF01C0E776F120EB6
:1038F800766F02EC40F04FC571F050C572F06FEC76
:1039080041F00BD008EC16F0A8EC41F00101C76FAC
:10391800C751030ADDE0C7BFE0D700013EBEF2D7BA
:103928000101C25103E003C5C6F1A3D1C66BA1D101
:10393800C651020D070EF324D96EDA6A050EDA2293
:103948000001DECF75F0DDCF76F0C7EC3FF075C033
:10395800BEF176C0BFF177C0C0F178C0C1F10101F6
:10396800C651020D2B0EF324D96EDA6A050EDA223F
:103978000001DECF75F0DDCF76F0AEEC40F075C01B
:10398800B2F176C0B3F177C0B4F178C0B5F1BEC179
:10399800B7F0BFC1B8F0C0C1B9F0C1C1BAF0B2C187
:1039A800BBF0B3C1BCF0B4C1BDF0B5C1BEF074EC9E
:1039B8002DF0B7C0BAF1B8C0BBF1B9C0BCF1BAC0FC
:1039C800BDF10101C25101E1B3D021EC3BF01B0E66
:1039D800776F020E766F02EC40F055DA34EC29F07E
:1039E800756B010E4AEC3CF005010651051108E122
:1039F8001B0E0001776FCE0E766F02EC40F013D0ED
:103A08001D0E0001776FDA0E766F02EC40F00BDACC
:103A180034EC29F01E0E776F0F0E766F02EC40F033
:103A2800F7D934EC29F0BEC16BF0BFC16CF0C0C14E
:103A38006DF0C1C16EF083EC41F06BC0B6F16CC0A3
:103A4800B7F16DC0B8F16EC0B9F1B6C130F1B7C108
:103A580031F1B8C132F1B9C133F1BAC134F1BBC1E6
:103A680035F1BCC136F1BDC137F11CEC40F00CD0CA
:103A780008EC16F0A8EC41F00101C76FC751030A22
:103A880001E126D7C7BF29D700013EB0F1D721EC05
:103A98003BF01B0E776F740E766F02EC40F0F3D993
:103AA80034EC29F0756B010E4AEC3CF00501065127
:103AB800051108E11B0E0001776FCE0E766F02EC40
:103AC80040F013D01D0E0001776FDA0E766F02EC0E
:103AD80040F0A9D934EC29F01E0E776F0F0E766FDF
:103AE80002EC40F095D934EC29F00101C651020DE1
:103AF8004F0EF324D96EDA6A050EDA220001DECF02
:103B080071F0DDCF72F06FEC41F00CD008EC16F0DC
:103B1800A8EC41F00101C76FC751030A01E1D8D6EB
:103B2800C7BFDBD600013EBEF1D70101C607A1D051
:103B380021EC3BF01B0E776F020E766F02EC40F023
:103B48007DD934EC29F0756B010E4AEC3CF0050187
:103B58000651051108E11B0E0001776FCE0E766F36
:103B680002EC40F013D01D0E0001776FDA0E766F6D
:103B780002EC40F058D934EC29F01E0E776F0F0E86
:103B8800766F02EC40F044D934EC29F0BEC130F134
:103B9800BFC131F1C0C132F1C1C133F1BAC134F191
:103BA800BBC135F1BCC136F1BDC137F11CEC40F0E9
:103BB8000CD008EC16F0A8EC41F00101C76FC75112
:103BC800030A01E185D6C7BF88D600013EB0F1D708
:103BD80021EC3BF01B0E776F740E766F02EC40F011
:103BE8002DD934EC29F0756B010E4AEC3CF0050137
:103BF8000651051108E11B0E0001776FCE0E766F96
:103C080002EC40F013D01D0E0001776FDA0E766FCC
:103C180002EC40F008D934EC29F01E0E776F0F0E35
:103C2800766F02EC40F0F4D834EC29F00101D8901A
:103C3800C6350001E06F510EE025D96EDA6A050E2F
:103C4800DA22DECF71F0DDCF72F06FEC41F00CD0EC
:103C580008EC16F0A8EC41F00101C76FC751030A40
:103C680001E136D6C7BF39D600013EBEF1D7010102
:103C7800C62BC6BF0BD005010351D880D8840101DB
:103C8800C6AFC65DD8A0D88401E152D6050104515B
:103C980007E00101C251010ED8A4000EC26F87D0FF
:103CA8000101C26B21EC3BF01B0E776F860E766F1D
:103CB80002EC40F0756B010E4AEC3CF00501065130
:103CC800051108E11B0E0001776FCE0E766F02EC2E
:103CD80040F013D01D0E0001776FDA0E766F02ECFC
:103CE80040F0A1D834EC29F01E0E776F0F0E766FD6
:103CF80002EC40F08DD834EC29F001C575F002C50E
:103D080076F0AEEC40F0AFD820EC2CF00CD008ECFC
:103D180016F0A8EC41F00101C76FC751030A01E191
:103D2800D7D5C7BFDAD500013EB0F1D721EC3BF0BB
:103D38001A0E776FB20E766F02EC40F0756B010EBB
:103D48004AEC3CF005010651051108E11B0E000183
:103D5800776FCE0E766F02EC40F013D01D0E000187
:103D6800776FDA0E766F02EC40F05DD834EC29F00C
:103D78001E0E776F0F0E766F02EC40F049D834ECC8
:103D880029F04FC571F050C572F06FEC41F00CD0BE
:103D980008EC16F0A8EC41F00101C76FC751030AFF
:103DA80001E196D5C7BF99D500013EBEF1D70501FF
:103DB8000651051101E1B4D50101C44BC52BC4510D
:103DC8000501055D0101C5510501065901E3A8D5A5
:103DD8003E903C9A3E8A0401486B496B4A6B4B6B98
:103DE80000013C8221EC3BF01D0E776F0E0E766FC2
:103DF80002EC40F03CA203D0FDD708EC16F000011D
:103E08003CB0FBD73E903C9A3E9A0101C351120048
:103E180005C579F0000106C57AF07B6B7C6B030E53
:103E28007D6F7E6B000CC4C179F00001C5C17AF0CA
:103E38007B6B7C6B030E7D6F7E6B000CC6C1E0F064
:103E48000001E16BE0BFE107E02B000EE123E0C0D9
:103E580079F0E1C07AF07ABFFF0E7B6F7C6F020EBB
:103E68007D6F7E6B000C75C038F176C039F177C074
:103E78003AF178C03BF101013C6B3D6BB40E3E6FEB
:103E8800420E3F6F420C0101C6510001796F000ECE
:103E980079BFFF0E7A6F7B6F7C6F020E7D6F7E6B32
:103EA800000CDDC0D9FFDEC0DAFFDECFB8F1DECF0F
:103EB800B9F1DECFBAF1DECFBBF1B8C1B8F0B9C104
:103EC800B9F0BAC1BAF0BBC1BBF0010E0001BD6FB9
:103ED800B60EBC6F010EBF6FB50EBE6F010EC16F7F
:103EE800B40EC06F010EC36FB20EC26FC5EC31F0D5
:103EF800E7B702D00101B66B0001E7B502D00101B6
:103F0800B56B0001E7B302D00101B46B0001E7B162
:103F180003D00101B26BB36BB5C18FF0B4C190F09F
:103F2800B2C191F0B3C192F00101B65199EC34F0ED
:103F38008FC0B8F190C0B9F191C0BAF192C0BBF18D
:103F4800AAD944EC3DF001E2B7D994D944EC3DF04C
:103F580001E2BBD90001E7A75BD021EC3BF0DBC055
:103F680076F0DCC077F002EC40F01E0E776F1A0E88
:103F7800766F02EC40F0756B010E4AEC3CF01A0EBD
:103F8800776F4A0E766F02EC40F00001756B010EF8
:103F98004AEC3CF0B8C1D0F0B9C1D1F0BAC1D2F006
:103FA800BBC1D3F0E7C0D4F0080ED56F31EC35F0C3
:103FB800F0EC40F00101B76FB7AF1ED0B751120057
:103FC800FF0CFE0C93D9610E8D6F450E8E6F4BEC76
:103FD8003EF050D944EC3DF0D8E277D9D6D77ED917
:103FE800610EA46F450EA56F26EC3EF054D944EC43
:103FF8003DF0CBE261D9C9D7B751010A09E0030AFC
:10400800DFE0010ADEE0070ADDE0010AE8E0BDD7EB
:104018000001E7A559D021EC3BF0DBC076F0DCC00D
:1040280077F002EC40F01E0E776F1E0E766F02ECF2
:1040380040F0756B010E4AEC3CF01A0E776F4A0E91
:10404800766F02EC40F00001756B010E4AEC3CF013
:10405800B8C1D0F0B9C1D1F0BAC1D2F0BBC1D3F068
:10406800E7C0D4F0040ED56F31EC35F0F0EC40F039
:104078000101B76FB7BFA2D71AD038D9700E8D6FAC
:10408800420E8E6F4BEC3EF0F5D844EC3DF0DBE28F
:104098001CD9D9D723D9700EA46F420EA56F26EC70
:1040A8003EF0F9D844EC3DF0CEE206D9CCD7B75172
:1040B800010A0AE0030A01E14DD7010A82E0070A72
:1040C800DCE0010AE7E0BFD70001E7A35AD021EC02
:1040D8003BF0DBC076F0DCC077F002EC40F01E0E5F
:1040E800776F220E766F02EC40F0756B010E4AEC8A
:1040F8003CF01A0E776F4A0E766F02EC40F0000122
:10410800756B010E4AEC3CF0B8C1D0F0B9C1D1F0E2
:10411800BAC1D2F0BBC1D3F0E7C0D4F0020ED56F5C
:1041280031EC35F0F0EC40F00101B76FB7BF46D77E
:104138001AD0DCD8800E8D6F3F0E8E6F4BEC3EF0A0
:1041480099D844EC3DF0DBE2C0D8D9D7C7D8800E67
:10415800A46F3F0EA56F26EC3EF09DD844EC3DF0D1
:10416800CEE2AAD8CCD7B751010A0BE0030A01E185
:104178004FD7010A01E125D7070ADBE0010AE6E08B
:10418800BED70001E7A168D021EC3BF0DBC076F098
:10419800DCC077F002EC40F01E0E776F150E766FDC
:1041A80002EC40F0756B010E4AEC3CF01A0E776F8A
:1041B8004A0E766F02EC40F00001756B010E4AEC76
:1041C8003CF0B8C1D0F0B9C1D1F0BAC1D2F0BBC18E
:1041D800D3F0E7C0D4F0010ED56F31EC35F0F0EC38
:1041E80040F00101B76FB7BFE9D628D0010E000132
:1041F8008A6FB80E896FCD0E8B6FCC0E8C6F8D6F5A
:104208003D0E8E6F4BEC3EF035D844EC3DF0D4E2D9
:104218005CD8D2D7010E0001A16FB80EA06FCD0EE9
:10422800A26FCC0EA36FA46F3D0EA56F26EC3EF0D7
:1042380032D844EC3DF0C0E23FD8BED7B751010AAE
:104248000BE0030A01E140D7010A01E1BAD6070AE7
:10425800CDE0010ADFE0B0D7DDC0D9FFDEC0DAFF6C
:104268000101B8C1DEFFB9C1DEFFBAC1DEFFBBC1C3
:10427800DEFF000CE3C089F0E4C08AF0E5C08BF0F3
:10428800E6C08CF0B8C18DF0B9C18EF0BAC18FF01C
:10429800BBC190F01200B8C189F0B9C18AF0BAC1A7
:1042A8008BF0BBC18CF0DFC08DF0E0C08EF0E1C0B8
:1042B8008FF0E2C090F01200DFC0B8F1E0C0B9F1B1
:1042C800E1C0BAF1E2C0BBF11200E3C0B8F1E4C04A
:1042D800B9F1E5C0BAF1E6C0BBF11200010E000168
:1042E800A16FB80EA06FA26BA36B1200010E0001A4
:1042F8008A6FB80E896F8B6B8C6B120000013EB011
:10430800FF0C0001BFAF13D0BCC06BF0BDC06CF098
:10431800BEC06DF0BFC06EF083EC41F06BC01CF105
:104328006CC01DF16DC01EF16EC01FF108D0BCC07D
:104338001CF1BDC01DF1BEC01EF1BFC01FF1C3AF4F
:1043480013D0C0C06BF0C1C06CF0C2C06DF0C3C068
:104358006EF083EC41F06BC024F16CC025F16DC0A8
:1043680026F16EC027F108D0C0C024F1C1C025F1E4
:10437800C2C026F1C3C027F1B8C07EF0B9C07FF033
:10438800BAC080F0BBC081F0F5C37AF0F6C37BF009
:10439800F7C37CF0F8C37DF0A5EC37F07AC0AEF037
:1043A8007BC0AFF07CC0B0F07DC0B1F082EC39F0DA
:1043B800AEC014F1AFC015F1B0C016F1B1C017F11D
:1043C8000101175114111511161101E1000C3D825C
:1043D800F0C210F1F1C211F1F2C212F1F3C213F1FD
:1043E8003D920101145110250401446F010115513A
:1043F80011210401456F0101165112210401466F74
:104408000101175113210401476F10C148F011C170
:1044180049F012C14AF013C14BF00001BBAF15D0EF
:10442800B8C06BF0B9C06CF0BAC06DF0BBC06EF02C
:1044380083EC41F06BC028F16CC029F16DC02AF102
:104448006EC02BF100013E820AD0B8C028F1B9C075
:1044580029F1BAC02AF1BBC02BF100013E921CC160
:1044680089F01DC18AF01EC18BF01FC18CF024C1D8
:104478008DF025C18EF026C18FF027C190F027EC72
:1044880039F089C018F18AC019F18BC01AF18CC0B3
:104498001BF118C17EF019C17FF01AC180F01BC151
:1044A80081F024C17AF025C17BF026C17CF027C1B8
:1044B8007DF0A5EC37F07AC02CF17BC02DF17CC0E3
:1044C8002EF17DC02FF118C17EF019C17FF01AC1FD
:1044D80080F01BC181F02CC17AF02DC17BF02EC178
:1044E8007CF02FC17DF0A5EC37F07AC00CF17BC0D1
:1044F8000DF17CC00EF17DC00FF10CC17AF00DC139
:104508007BF00EC17CF00FC17DF07E6B7F6B806B02
:104518003F0E816FA5EC37F07AC020F17BC021F106
:104528007CC022F17DC023F128C189F029C18AF01D
:104538002AC18BF02BC18CF07E6B7F6B806B400E99
:10454800816F20C17AF021C17BF022C17CF023C1A8
:104558007DF0A5EC37F07AC08DF07BC08EF07CC082
:104568008FF07DC090F044EC3DF017E228C189F04F
:1045780029C18AF02AC18BF02BC18CF08D6B8E6B10
:104588008F6B400E906F27EC39F089C020F18AC0FC
:1045980021F18BC022F18CC023F120C19CF021C1F4
:1045A8009DF022C19EF023C19FF028C198F029C137
:1045B80099F02AC19AF02BC19BF0E5EC3FF098C026
:1045C8007AF099C07BF09AC07CF09BC07DF0F5C36F
:1045D8007EF0F6C37FF0F7C380F0F8C381F0A5EC56
:1045E80037F07AC000F17BC001F17CC002F17DC0D8
:1045F80003F100C1AEF001C1AFF002C1B0F003C1D8
:10460800B1F082EC39F0AEC040F4AFC041F4B0C0B4
:1046180042F4B1C043F424C17EF025C17FF026C125
:1046280080F027C181F0F5C37AF0F6C37BF0F7C3B9
:104638007CF0F8C37DF0A5EC37F060D8BD0E7E6F36
:10464800370E7F6F860E806F420E816FA5EC37F0B4
:104658007AC004F17BC005F17CC006F17DC007F18A
:1046680004C1AEF005C1AFF006C1B0F007C1B1F0AA
:1046780082EC39F0AEC040F0AFC041F0B0C042F0BB
:10468800B1C043F01CC17EF01DC17FF01EC180F097
:104698001FC181F0F5C37AF0F6C37BF0F7C37CF055
:1046A800F8C37DF0A5EC37F029D86F0E7E6F120E97
:1046B8007F6F030E806F470E816FA5EC37F07AC0CD
:1046C80008F17BC009F17CC00AF17DC00BF108C17B
:1046D800AEF009C1AFF00AC1B0F00BC1B1F082EC85
:1046E80039F0AEC044F0AFC045F0B0C046F0B1C03C
:1046F80047F038EC25F000013E80000C7AC02CF120
:104708007BC02DF17CC02EF17DC02FF12CC17AF039
:104718002DC17BF02EC17CF02FC17DF01200060E5A
:104728000101FF6F0001CD6BCE6BCF6BD06BDBD976
:10473800620E7E6FBE0E7F6F3C0E806F460E816FDD
:10474800F5C37AF0F6C37BF0F7C37CF0F8C37DF0CD
:10475800A5EC37F07AC0AEF07BC0AFF07CC0B0F00B
:104768007DC0B1F082EC39F0AEC040F0AFC041F08E
:10477800B0C042F0B1C043F077D93C9A3E903E8A2F
:1047880000013E8AA8EC41F021EC3BF01C0E776F4B
:104798008F0E766F02EC40F0756B010E4AEC3CF020
:1047A8001B0E776F3B0E766F02EC40F0A8EC41F0E1
:1047B800CC6FCC51030A03E1FE0EC76F34D1CC5144
:1047C800020A02E1C7692FD1CC0504E1CD6BCE6B9B
:1047D800CF6BD06BCC51040A34E1000E8A6FCD0E3A
:1047E800896F96D9DFEC3AF080EC40F075C07AF02A
:1047F80076C07BF077C07CF078C07DF0A5EC37F010
:104808007AC08BF07BC08CF07CC08DF07DC08EF0C0
:104818004BEC3EF0896B8A6BB40E8B6F420E8C6F3B
:10482800CDC08DF0CEC08EF0CFC08FF0D0C090F04C
:1048380044EC3DF006E2CD6BCE6BB40ECF6F420E6A
:10484800D06FCC51050A34E1000EA16FCD0EA06FD8
:104858005FD9DFEC3AF080EC40F075C07AF076C0B2
:104868007BF077C07CF078C07DF0A5EC37F07AC09B
:10487800A2F07BC0A3F07CC0A4F07DC0A5F026EC1C
:104888003EF0CDC089F0CEC08AF0CFC08BF0D0C04A
:104898008CF08D6B8E6BB40E8F6FC20E906F44ECE4
:1048A8003DF006E2CD6BCE6BB40ECF6FC20ED06F6B
:1048B800CCAF03D0CCC0C7F0B6D0060E756F010ED2
:1048C8004AEC3CF0CDC0B8F0CEC0B9F0CFC0BAF0D9
:1048D800D0C0BBF0020EBC6FBD6F010EBE6FD8EC2E
:1048E8002FF03EA252D00001D0AF31D0F5C37EF0F8
:1048F800F6C37FF0F7C380F0F8C381F0CDC06BF04A
:10490800CEC06CF0CFC06DF0D0C06EF083EC41F03B
:104918006BC07AF06CC07BF06DC07CF06EC07DF02F
:10492800A5EC37F0B3D8A5EC37F07AC0AEF07BC071
:10493800AFF07CC0B0F07DC0B1F082EC39F0DED8C9
:1049480002D008EC16F000013CA26AD0FAD7000E9B
:10495800BDD844EC3DF010E2010EB1D802D008EC0D
:1049680016F000013CB2FBD700013CB059D03E9A8A
:104978003E9A7AD83E9247D0010EA1D802D008ECD0
:1049880016F000013CA24CD0FAD7000E00019ED8C8
:1049980044EC3DF027E2CDC07EF0CEC07FF0CFC022
:1049A80080F0D0C081F0F5C37AF0F6C37BF0F7C38E
:1049B8007CF0F8C37DF0A5EC37F068D8A5EC37F0AB
:1049C8007AC0AEF07BC0AFF07CC0B0F07DC0B1F073
:1049D80082EC39F093D802D008EC16F000013CA222
:1049E8001FD0FAD7D0AF14D0010E69D802D008EC86
:1049F80016F000013CB2FBD700013CB011D03E9A42
:104A08003E9A32D83E826FD83E8A00013E8A08D04C
:104A1800010E55D802D008EC16F000013CB2FBD7C5
:104A280008EC16F0C3D621EC3BF01D0E776F0E0E86
:104A3800766F02EC40F0010E0401486F000E496FDA
:104A48004A6F4B6F3C8202D008EC16F000013CB272
:104A5800FBD700013CB005D03E9A3E9A0001C751F1
:104A6800120008EC16F0E7D74C6A4D6A4E6A4F6A96
:104A78000201F46BF56BF66BF76BE86BE96BEA6BAD
:104A8800EB6BEC6BED6BEE6BEF6B12007AC0C8F062
:104A98007BC0C9F07CC0CAF07DC0CBF06F0E7E6FC2
:104AA800120E7F6F030E806F470E816FC8C07AF0B9
:104AB800C9C07BF0CAC07CF0CBC07DF0470C0401B4
:104AC800486F496B4A6B4B6B3C82000C896B8A6B55
:104AD8008B6B8C6BCDC08DF0CEC08EF0CFC08FF0BD
:104AE800D0C090F012003D82F0C248F0F1C249F007
:104AF800F2C24AF0F3C24BF03D921200AEC048F445
:104B0800AFC049F4B0C04AF4B1C04BF43C821200C3
:104B1800CD0E7E6FCC0E7F6F4C0E806F3D0E816F79
:104B28003D0C0101BE6B030EFF6F21EC3BF01B0E29
:104B3800776FF00E766F02EC40F04DC475F04EC4FE
:104B480076F0AEEC40F075C0C7F176C0C8F177C01A
:104B5800C9F178C0CAF1C7C138F1C8C139F1C9C1B2
:104B68003AF1CAC13BF101013C6B3D6BB40E3E6F9B
:104B7800420E3F6F20EC2CF011D008EC16F0A8EC98
:104B880041F00101CF6FCF51030A03E1FE0EBE6F62
:104B980078D1CFAF03D0CFC1BEF173D100013EB001
:104BA800ECD755C47AF056C47BF057C47CF058C48F
:104BB8007DF000017E6B7F6BB40E806F430E816FBA
:104BC800A5EC37F07AC0C3F17BC0C4F17CC0C5F155
:104BD8007DC0C6F104014F51020A08E10101C36B0F
:104BE8004E0EC46FED0EC56F4A0EC66F04015067B6
:104BF80012D0C3C16BF0C4C16CF0C5C16DF0C6C1A1
:104C08006EF083EC41F06BC0C3F16CC0C4F16DC0B1
:104C1800C5F16EC0C6F10BEC3DF0BAEC3EF075C0C4
:104C2800C7F176C0C8F177C0C9F178C0CAF13D9222
:104C3800010E00018A6FC70E896FF9C38BF0FAC3A2
:104C48008CF0FBC38DF0FCC38EF070EC3EF0C7C156
:104C580075F0C8C176F0C9C177F0CAC178F0C3C190
:104C680079F0C4C17AF0C5C17BF0C6C17CF050ECC4
:104C780033F075C0B2F176C0B3F177C0B4F178C043
:104C8800B5F121EC3BF01A0E776F740E766F02ECDB
:104C980040F004014F51020A12E121EC3BF01C0ED6
:104CA800776F710E766F02EC40F0756B010E4AEC6F
:104CB8003CF01B0E776FBC0E766F02EC40F00001E3
:104CC800896B8A6B800E8B6F3F0E8C6F5DC48DF085
:104CD8005EC48EF05FC48FF060C490F027EC39F0AA
:104CE80089C0BAF18AC0BBF18BC0BCF18CC0BDF1E0
:104CF800A8EC41F0C3C130F1C4C131F1C5C132F1F2
:104D0800C6C133F15DC434F15EC435F15FC436F118
:104D180060C437F11CEC40F0B2D00BEC3DF0BAECBB
:104D28003EF075C0BFF176C0C0F177C0C1F178C060
:104D3800C2F13D92010E00018A6FBF0E896FF9C35F
:104D48008BF0FAC38CF0FBC38DF0FCC38EF070ECD3
:104D58003EF0B2C198F0B3C199F0B4C19AF0B5C1B0
:104D68009BF0BFC19CF0C0C19DF0C1C19EF0C2C103
:104D78009FF0E5EC3FF098C0CBF199C0CCF19AC018
:104D8800CDF19BC0CEF10101CEAF12D0CBC16BF0FB
:104D9800CCC16CF0CDC16DF0CEC16EF083EC41F0AA
:104DA8006BC0CBF16CC0CCF16DC0CDF16EC0CEF153
:104DB800CBC17AF0CCC17BF0CDC17CF0CEC17DF007
:104DC800BAC17EF0BBC17FF0BCC180F0BDC181F02B
:104DD800A5EC37F07AC0B6F17BC0B7F17CC0B8F16A
:104DE8007DC0B9F1010E00018A6FCB0E896F1B0ED1
:104DF8008B6F0F0E8C6F360E8D6F3B0E8E6F70ECB7
:104E08003EF004014F51020A2EE00B0E0001756FAF
:104E1800000E4AEC3CF0B6C1D0F0B7C1D1F0B8C131
:104E2800D2F0B9C1D3F00E0ED46F000ED56B31ECB1
:104E380035F0756B010E4AEC3CF0CBC1B8F0CCC133
:104E4800B9F0CDC1BAF0CEC1BBF0050EBC6F020EF1
:104E5800BD6F000EBE6BD8EC2FF01D0E776F350EB0
:104E6800766F02EC40F0A8EC41F00101CF6FCF5112
:104E7800030A01E18BD6CFBF8ED608EC16F03EB000
:104E88004CD73E903C9A3E8A0401486B496B4A6B6A
:104E98004B6B00013C8221EC3BF01D0E776F0E0E30
:104EA800766F02EC40F03CA203D0FDD708EC16F078
:104EB80000013CB0FBD73E903C9A3E9A0101BE519E
:104EC8001200756B766B010E7FEC3CF0D1C089F057
:104ED800D2C08AF0D3C08BF0D4C08CF08D6B400E5A
:104EE8008E6F1C0E8F6F460E906F44EC3DF012E2F1
:104EF800896B400E8A6F1C0E8B6FC60E8C6FCDC0EF
:104F08008DF0CEC08EF0CFC08FF0D0C090F044ECC2
:104F18003DF002E3050E4FD089D97A0E8F6F440E0B
:104F2800906F44EC3DF011E2896B8A6B7A0E8B6FBF
:104F3800C40E8C6FCDC08DF0CEC08EF0CFC08FF078
:104F4800D0C090F044EC3DF002E3040E34D06ED9AA
:104F5800C80E8F6F420E906F44EC3DF011E2896BE2
:104F68008A6BC80E8B6FC20E8C6FCDC08DF0CEC011
:104F78008EF0CFC08FF0D0C090F044EC3DF002E34B
:104F8800030E19D053D9200E8F6F410E906F44EC49
:104F98003DF010E2896B8A6B200E8B6FC10E8C6F0F
:104FA800CDC08DF0CEC08EF0CFC08FF0D0C090F0C5
:104FB80044EC3DF0020ED96FD5C089F0D6C08AF016
:104FC800D7C08BF0D8C08CF08D6B8E6B800E8F6F36
:104FD8003F0E906F44EC3DF002E3DA6B53D0D5C03E
:104FE80089F0D6C08AF0D7C08BF0D8C08CF0CD0E2F
:104FF8008D6FCC0E8E6F8F6F3D0E906F44EC3DF031
:1050080002E3010E3ED0D5C089F0D6C08AF0D7C0E1
:105018008BF0D8C08CF00A0E8D6FD70E8E6F230ED2
:105028008F6F3C0E906F44EC3DF002E3020E29D0E6
:10503800D5C089F0D6C08AF0D7C08BF0D8C08CF024
:105048006F0E8D6F120E8E6F830E8F6F3A0E906FEC
:1050580044EC3DF002E3030E14D0D5C089F0D6C06D
:105068008AF0D7C08BF0D8C08CF0170E8D6FB70EB2
:105078008E6FD10E8F6F380E906F44EC3DF002E3C7
:10508800040EDA6FCBC0D9FFCCC0DAFFDECFDCF07C
:10509800DECFDDF0DECFDEF0DECFDFF021EC3BF05F
:1050A800C7C076F0C8C077F002EC40F0756B010E0F
:1050B8004AEC3CF0C6D8D8EC2FF0C9C076F0CAC08C
:1050C80077F002EC40F0756B010E4AEC3CF0B9D871
:1050D800D8EC2FF0F0EC40F0DB6FDBAF97D0DB5172
:1050E8001200CBC0D9FFCCC0DAFFDCC0DEFFDDC0C8
:1050F800DEFFDEC0DEFFDFC0DEFF756B766B010E04
:105108007FEC3CF0000CFE0CFF0C000E8A6FDC0EEE
:10511800896FD5C07EF0D6C07FF0D7C080F0D8C0E8
:1051280081F0DFEC3AF080EC40F075C07AF076C0A0
:105138007BF077C07CF078C07DF0A5EC37F07AC0C2
:105148008BF07BC08CF07CC08DF07DC08EF04BEC7A
:105158003EF0D1C089F0D2C08AF0D3C08BF0D4C061
:105168008CF0DCC08DF0DDC08EF0DEC08FF0DFC0CB
:1051780090F044EC3DF0A7E2D1C0DCF0D2C0DDF005
:10518800D3C0DEF0D4C0DFF09ED7000EA16FDC0ED6
:10519800A06FD5C07EF0D6C07FF0D7C080F0D8C051
:1051A80081F0DFEC3AF080EC40F075C07AF076C020
:1051B8007BF077C07CF078C07DF0A5EC37F07AC042
:1051C800A2F07BC0A3F07CC0A4F07DC0A5F026ECC3
:1051D8003EF0DCC089F0DDC08AF0DEC08BF0DFC0B5
:1051E8008CF0CDC08DF0CEC08EF0CFC08FF0D0C087
:1051F80090F044EC3DF001E366D7CDC0DCF0CEC0C2
:10520800DDF0CFC0DEF0D0C0DFF05DD7DB51010AA2
:1052180001E167D7030A01E177D7010A01E173D7F2
:10522800070A01E172D7010AB0E04DD7D1C089F071
:10523800D2C08AF0D3C08BF0D4C08CF08D6B8E6B4B
:105248001200DCC0B8F0DDC0B9F0DEC0BAF0DFC0D3
:10525800BBF0D9C0BCF0DAC0BDF0010EBE6F010CC6
:105268007CAF0DD02D0E9DEC3AF0796D7A1FD8B039
:105278007A2B7B1FD8B07B2B000E7C5705D07E5134
:1052880003E02B0E9DEC3AF079C06BF07AC06CF01D
:105298007BC06DF07CC06EF06F6BCA0E706F9A0E9B
:1052A800716F3B0E726F6BEC38F033D96F6BCA0EAF
:1052B800706F9A0E716F3B0E726F6AEC3DF03AD9BF
:1052C800090E7D6503D07F519DEC3AF079C06BF0F3
:1052D8007AC06CF07BC06DF07CC06EF06F6BE10E35
:1052E800706FF50E716F050E726F6BEC38F011D997
:1052F8006F6BE10E706FF50E716F050E726F6AECD1
:105308003DF018D9080E7D6503D07F519DEC3AF029
:1053180079C06BF07AC06CF07BC06DF07CC06EF029
:10532800800E6F6F960E706F980E716F000E726B15
:105338006BEC38F0EED8800E6F6F960E706F980E8B
:10534800716F000E726B6AEC3DF0F4D8070E7D6544
:1053580003D07F519DEC3AF079C06BF07AC06CF0C5
:105368007BC06DF07CC06EF0400E6F6F420E706FA8
:105378000F0E716F000E726B6BEC38F0CAD8400ECE
:105388006F6F420E706F0F0E716F000E726B6AECCA
:105398003DF0D0D8060E7D6503D07F519DEC3AF0E4
:1053A80079C06BF07AC06CF07BC06DF07CC06EF099
:1053B800A00E6F6F860E706F010E716F000E726B0C
:1053C8006BEC38F0A6D8A00E6F6F860E706F010ECA
:1053D800716F000E726B6AEC3DF0ACD8050E7D65FE
:1053E80003D07F519DEC3AF079C06BF07AC06CF035
:1053F8007BC06DF07CC06EF0100E6F6F270E706F63
:10540800000E716B726B6BEC38F083D8100E6F6FF7
:10541800270E706F000E716B726B6AEC3DF08AD8C4
:10542800040E7D6503D07F519DEC3AF079C06BF096
:105438007AC06CF07BC06DF07CC06EF0E80E6F6FC8
:10544800030E706F000E716B726B6BEC38F061D8E5
:10545800E80E6F6F030E706F000E716B726B6AEC63
:105468003DF068D8030E7D6503D07F519DEC3AF07E
:1054780079C06BF07AC06CF07BC06DF07CC06EF0C8
:10548800640E6F6F000E706B716B726B6BEC38F0A3
:1054980040D8640E6F6F000E706B716B726B6AECA4
:1054A8003DF048D8020E7D6503D07F519DEC3AF05F
:1054B80079C06BF07AC06CF07BC06DF07CC06EF088
:1054C8000A0E6F6F000E706B716B726B6BEC38F0BD
:1054D80020D80A0E6F6F000E706B716B726B6AECDE
:1054E8003DF028D8010E7D6503D07F519DEC3AF040
:1054F80079C07FF07AC080F07BC081F07CC082F0F8
:10550800300E7F27000E8023812382237F519DEF59
:105518003AF06BC07FF06CC080F06DC081F06EC057
:1055280082F07FC06BF080C06CF081C06DF082C0EB
:105538006EF012006B51795F6C517A5B6D517B5B39
:105548006E517C5B300E7F27000E802381238223DF
:10555800000C0001BAAF13D0B7C06BF0B8C06CF044
:10556800B9C06DF0BAC06EF083EC41F06BC0DBF0EF
:105578006CC0DCF06DC0DDF06EC0DEF008D0B7C0E6
:10558800DBF0B8C0DCF0B9C0DDF0BAC0DEF0DBC0DB
:105598007AF0DCC07BF0DDC07CF0DEC07DF07E6B95
:1055A8007F6B806B3F0E816FA5EC37F07AC0BBF044
:1055B8007BC0BCF07CC0BDF07DC0BEF0EBC389F001
:1055C800ECC38AF0EDC38BF0EEC38CF0E7C38DF02B
:1055D800E8C38EF0E9C38FF0EAC390F027EC39F006
:1055E80089C0DFF08AC0E0F08BC0E1F08CC0E2F047
:1055F80012D9A5EC37F0E0D8A5EC37F0F6D8A5EC31
:1056080037F07AC0CBF07BC0CCF07CC0CDF07DC049
:10561800CEF0BBC089F0BCC08AF0BDC08BF0BEC064
:105628008CF0CBC08DF0CCC08EF0CDC08FF0CEC04A
:1056380090F044EC3DF035E2DBC089F0DCC08AF044
:10564800DDC08BF0DEC08CF0E7C38DF0E8C38EF0D0
:10565800E9C38FF0EAC390F027EC39F089C0A6F0CF
:105668008AC0A7F08BC0A8F08CC0A9F0FEEC33F07C
:10567800A6C0DFF0A7C0E0F0A8C0E1F0A9C0E2F042
:10568800CAD8A5EC37F098D8A5EC37F0AED8A5EC79
:1056980037F07AC0CBF07BC0CCF07CC0CDF07DC0B9
:1056A800CEF0E7C37AF0E8C37BF0E9C37CF0EAC345
:1056B8007DF0DFC07EF0E0C07FF0E1C080F0E2C0A6
:1056C80081F0A5EC37F07AC0BFF07BC0C0F07CC099
:1056D800C1F07DC0C2F0DBC098F0DCC099F0DDC03D
:1056E8009AF0DEC09BF07E6B7F6B806B400E816F03
:1056F800CBC07AF0CCC07BF0CDC07CF0CEC07DF0C2
:10570800A5EC37F07AC09CF07BC09DF07CC09EF081
:105718007DC09FF0E5EC3FF098C0C3F099C0C4F09D
:105728009AC0C5F09BC0C6F0C3C089F0C4C08AF057
:10573800C5C08BF0C6C08CF0BFC08DF0C0C08EF065
:10574800C1C08FF0C2C090F027EC39F089C0C7F013
:105758008AC0C8F08BC0C9F08CC0CAF0DFC07AF02C
:10576800E0C07BF0E1C07CF0E2C07DF07E6B7F6B37
:10577800806B400E816FA5EC37F07AC0D7F07BC004
:10578800D8F07CC0D9F07DC0DAF0000E8A6FD70E51
:10579800896FC7C08BF0C8C08CF0C9C08DF0CAC073
:1057A8008EF04BEC3EF0D7C0B7F0D8C0B8F0D9C0F7
:1057B800B9F0DAC0BAF012007AC0CFF07BC0D0F0EE
:1057C8007CC0D1F07DC0D2F0DFC07EF0E0C07FF0B9
:1057D800E1C080F0E2C081F0CFC07AF0D0C07BF0A9
:1057E800D1C07CF0D2C07DF012007AC0D3F07BC06B
:1057F800D4F07CC0D5F07DC0D6F0D3C07AF0D4C048
:105808007BF0D5C07CF0D6C07DF07E6B7F6B806B63
:105818003F0E816F3F0CDFC07EF0E0C07FF0E1C03B
:1058280080F0E2C081F0E7C37AF0E8C37BF0E9C317
:105838007CF0EAC37DF012003FAF13D03CC16BF09F
:105848003DC16CF03EC16DF03FC16EF083EC41F09C
:105858006BC0C8F06CC0C9F06DC0CAF06EC0CBF0A8
:1058680008D03CC1C8F03DC1C9F03EC1CAF03FC133
:10587800CBF001013BAF25D038C1DCF023D907D0EC
:10588800000E8A6FDC0EB4EC36F04BEC3EF0DCC058
:1058980089F0DDC08AF0DEC08BF0DFC08CF000013B
:1058A8008D6B8E6BB40E8F6FC30E906F44EC3DF012
:1058B800E7E3000E8A6FDC0EB4EC36F04BEC3EF0FA
:1058C80022D038C1DCF0FED80CD0000EA16FDC0E5F
:1058D800A06FA26BA36BB40EA46F430EA56F26EC4A
:1058E8003EF00001896B8A6BB40E8B6F430E8C6F90
:1058F800DCC08DF0DDC08EF0DEC08FF0DFC090F030
:1059080044EC3DF0E2E343EC36F0A6C0D8F0A7C083
:10591800D9F0A8C0DAF0A9C0DBF0D8C089F0D9C0A6
:105928008AF0DAC08BF0DBC08CF0DCC08DF0DDC013
:105938008EF0DEC08FF0DFC090F044EC3DF039E22D
:10594800DCC098F0DDC099F0DEC09AF0DFC09BF0B3
:10595800D8C09CF0D9C09DF0DAC09EF0DBC09FF0A3
:10596800E5EC3FF098C0CCF099C0CDF09AC0CEF0ED
:105978009BC0CFF0DCC09CF0DDC09DF0DEC09EF087
:10598800DFC09FF0A6D8E5EC3FF08BD8D8C079F0FF
:10599800D9C07AF0DAC07BF0DBC07CF050EC33F091
:1059A80075C0D0F076C0D1F077C0D2F078C0D3F00F
:1059B80038D0D8C09CF0D9C09DF0DAC09EF0DBC0CA
:1059C8009FF087D8E5EC3FF06CD8DCC079F0DDC0FB
:1059D8007AF0DEC07BF0DFC07CF050EC33F075C0AD
:1059E800CCF076C0CDF077C0CEF078C0CFF0D8C07C
:1059F80098F0D9C099F0DAC09AF0DBC09BF0DCC00F
:105A08009CF0DDC09DF0DEC09EF0DFC09FF0E5ECAD
:105A18003FF098C0D0F099C0D1F09AC0D2F09BC0A6
:105A2800D3F0CCC089F0CDC08AF0CEC08BF0CFC007
:105A38008CF0D0C08DF0D1C08EF0D2C08FF0D3C022
:105A480090F044EC3DF009E2CCC030F1CDC031F12A
:105A5800CEC032F1CFC033F11AD0D0C06BF0D1C074
:105A68006CF0D2C06DF0D3C06EF083EC41F06BC027
:105A7800C4F06CC0C5F06DC0C6F06EC0C7F0C4C03D
:105A880030F1C5C031F1C6C032F1C7C033F1C8C06A
:105A980034F1C9C035F1CAC036F1CBC037F11CEFBB
:105AA80040F098C0D4F099C0D5F09AC0D6F09BC009
:105AB800D7F0D4C075F0D5C076F0D6C077F0D7C08F
:105AC80078F0120039C1DDF03AC1DEF03BC1DFF0F9
:105AD8001200986B996BB40E9A6F430E9B6F430C30
:105AE800BAAF08D0B7C07AF023D9BF0E816FA5EC42
:105AF80037F007D0B7C07AF01BD93F0E816FA5ECFD
:105B080037F07AC0CFF07BC0D0F07CC0D1F07DC038
:105B1800D2F0BEAF08D0BBC07AF000D9BF0E816FFB
:105B2800A5EC37F007D0BBC07AF0F8D83F0E816FEC
:105B3800A5EC37F07AC0D3F07BC0D4F07CC0D5F0A8
:105B48007DC0D6F0896B8A6B800E8B6F450E8C6F8B
:105B5800D3C08DF0D4C08EF0D5C08FF0D6C090F0F1
:105B680044EC3DF01BE2CFC089F0D0C08AF0D1C030
:105B78008BF0D2C08CF0D3C08DF0D4C08EF0D5C0DD
:105B88008FF0D6C090F027EC39F089C0B7F08AC002
:105B9800B8F08BC0B9F08CC0BAF01200D3C07EF058
:105BA800D4C07FF0D5C080F0D6C081F0D3C07AF0E1
:105BB800D4C07BF0D5C07CF0D6C07DF0A5EC37F022
:105BC8007AC098F07BC099F07CC09AF07DC09BF0B9
:105BD800E7C38DF0E8C38EF0E9C38FF0EAC390F015
:105BE8007E6B7F6B806B400E816FCFC07AF0D0C028
:105BF8007BF0D1C07CF0D2C07DF0A5EC37F07AC044
:105C080089F07BC08AF07CC08BF07DC08CF027ECDB
:105C180039F089C09CF08AC09DF08BC09EF08CC082
:105C28009FF0E5EC3FF098C0C7F099C0C8F09AC063
:105C3800C9F09BC0CAF0CAAF08D0000EB76FB86FE2
:105C4800800EB96FBF0EBA6FBF0CC7C0A6F0C8C030
:105C5800A7F0C9C0A8F0CAC0A9F0FEEC33F0A6C0EE
:105C6800C3F0A7C0C4F0A8C0C5F0A9C0C6F0D3C08F
:105C780098F0D4C099F0D5C09AF0D6C09BF0C3C0B4
:105C88009CF0C4C09DF0C5C09EF0C6C09FF0E5EC76
:105C98003FF098C0BFF099C0C0F09AC0C1F09BC057
:105CA800C2F0E7C37AF0E8C37BF0E9C37CF0EAC34B
:105CB8007DF0BFC07EF0C0C07FF0C1C080F0C2C020
:105CC80081F0A5EC37F07AC0CBF07BC0CCF07CC07B
:105CD800CDF07DC0CEF0EBC389F0ECC38AF0EDC304
:105CE8008BF0EEC38CF0CBC08DF0CCC08EF0CDC065
:105CF8008FF0CEC090F044EC3DF007E2000EB76F95
:105D0800B86FB96FC00EBA6FC00CCBC0B7F0CCC0BB
:105D1800B8F0CDC0B9F0CEC0BAF01200BCC07BF06C
:105D2800BDC07CF0BEC07DF07E6B7F6B806B1200C7
:105D3800B8C07BF0B9C07CF0BAC07DF07E6B7F6BD9
:105D4800806B12000201E56BE46BA9EC3FF08B90CD
:105D58008A904C6A4D6A4E6A4F6A0201E86BE96B99
:105D6800EA6BEB6BEC6BED6BEE6BEF6BE66B280E97
:105D78000201E625D96EDA6A040EDA22DF68E62B1C
:105D88000F0EE665F4D768EC40F0DAEC3BF090ECE7
:105D98003DF021EC3BF01C0E776F520E766F02EC53
:105DA80040F0756B010E4AEC3CF01D0E776F4F0EFC
:105DB800766F02EC40F0070E916FD00E906FC6EC34
:105DC80041F01D0E0201C96FA50EC86F1C0ECB6FE6
:105DD8009E0ECA6F1D0ECD6FB10ECC6F1C0ECF6F0D
:105DE8008F0ECE6F1C0ED16F010ED06F1D0ED36FAC
:105DF8005C0ED26F1A0ED56FEE0ED46FC8C2D6F2F3
:105E0800C9C2D7F2CAC2D8F2CBC2D9F2CEC2DAF22C
:105E1800CFC2DBF2CCC2DCF2CDC2DDF2D0C2DEF200
:105E2800D1C2DFF2D2C2E0F2D3C2E1F2D4C2E2F2CE
:105E3800D5C2E3F200013C8A21EC3BF01A0E776FE1
:105E4800340E766F02EC40F0756B010E4AEC3CF0B4
:105E58001C0E776F800E766F02EC40F096EC41F0E6
:105E68003C8602D008EC16F000013CB6FBD70001D6
:105E7800916B0A0E906FC6EC41F000013C9A21EC40
:105E88003BF0010E0101FF6F020E0001926FD60E6A
:105E9800916F060E936FE5C294F095EC32F0020113
:105EA800E76F5FD0E56B14EC0FF00201E76FE75185
:105EB800FE0AD8B493EC23F00201E729D8B493EC96
:105EC80023F00201E751800A820F4BE3DAD7010E73
:105ED800E56F34EC19F00201E76FE751800A820F91
:105EE80040E3E7AFCED793EC23F038D0030EE56F4D
:105EF8000CEC38F00201E76FE729C3E0E751FE0A2E
:105F0800C0E0E751800A820F2CE3E7C2E4F2E451D3
:105F180061EC3BF023D0E56B93EC23F01FD0E56BED
:105F28005AEC3AF01BD0E56BBAEC35F0AAD7E56B22
:105F3800BFEC12F013D0010E61EC3BF00FD0020E53
:105F480061EC3BF00BD0030E61EC3BF007D0040E84
:105F580061EC3BF003D0050E61EC3BF00201E76F0A
:105F6800B1D7E7519FE0010AB2E0030AD4E0010A81
:105F7800BDE0070AD4E0010AD6E0030AD8E0C30A64
:105F8800D2E0030AD4E0010AC6E00F0AA0E0010A41
:105F980089E0030AE0E0010ADAE0070AD4E0010A2E
:105FA800CEE0030AC8E06DD7B8C0AEF0B9C0AFF014
:105FB800BAC0B0F0BBC0B1F082EC39F0AEC0BFF0EF
:105FC800AFC0C0F0B0C0C1F0B1C0C2F0BE5119E05E
:105FD800C251BF11C011C11114E1BBAF04D02D0EC5
:105FE8009DEC3AF003D02B0E9DEC3AF0000E796B45
:105FF8007A6B7B6B7C6BBCC07DF07E6B34EC29F0DC
:106008000ED0BFC079F0C0C07AF0C1C07BF0C2C06A
:106018007CF0BCC07DF0BEC07EF034EC29F0000EF0
:10602800A16FB80EA06FBFC075F0C0C076F0C1C038
:1060380077F0C2C078F0BAEC3EF075C0A2F076C036
:10604800A3F077C0A4F078C0A5F026EC3EF0BBAF73
:1060580017D0000E986B996B9A6B9B6BB8C09CF02D
:10606800B9C09DF0BAC09EF0BBC09FF0E5EC3FF010
:1060780098C0B8F099C0B9F09AC0BAF09BC0BBF00C
:10608800000E8A6FB80E896F8B6B500E8C6FC30E23
:106098008D6F470E8E6F70EC3EF0B8C0AEF0B9C091
:1060A800AFF0BAC0B0F0BBC0B1F082EC39F0AEC00E
:1060B800C3F0AFC0C4F0B0C0C5F0B1C0C6F0BD51A8
:1060C800D8B412002E0E9DEC3AF0BD0514E1C3C001
:1060D8006BF0C4C06CF0C5C06DF0C6C06EF0100E99
:1060E8006F6F270E706F000E716B726B6BEC38F070
:1060F80056D8010E50D0BD51020A14E1C3C06BF04E
:10610800C4C06CF0C5C06DF0C6C06EF0E80E6F6F0D
:10611800030E706F000E716B726B6BEC38F03FD82A
:10612800020E39D0BD51030A13E1C3C06BF0C4C0DD
:106138006CF0C5C06DF0C6C06EF0640E6F6F000ED7
:10614800706B716B726B6BEC38F029D8030E23D02F
:10615800BD51040A13E1C3C06BF0C4C06CF0C5C0E4
:106168006DF0C6C06EF00A0E6F6F000E706B716B2B
:10617800726B6BEC38F013D8040E0DD0BD51050AC4
:10618800D8A41200C3C079F0C4C07AF0C5C07BF0AF
:10619800C6C07CF0050E7D6F7E6B34EF29F06BC0B6
:1061A800C3F06CC0C4F06DC0C5F06EC0C6F0C3C00B
:1061B80079F0C4C07AF0C5C07BF0C6C07CF012008C
:1061C800F7CF67F0F8CF68F0F5CF69F0FE0ED76E1D
:1061D800830ED66EF294ACA201D001D015D0000186
:1061E800F051D8B401D001D00FD00601000E010142
:1061F800FE25D96EDA6A0601060EDA22DF50AD6E88
:106208000101FE2B0001F007AB30E832010B000161
:10621800606FAB30010B60110009D8B401D001D018
:106228000DD0AB9800F0AB88AECF6AF0AECF6AF075
:106238000001EE6B00013B9E00013B9C9EAA01D031
:1062480001D032D0AECF6AF000016A51400AD8A41A
:1062580001D001D005D0EE6B00013B9E00013B8CC4
:1062680000016A51230AD8A401D001D004D000014A
:106278003B8E00013B9C0001EE29D8A401D001D03F
:1062880001D0EE6B00013BAC01D001D00DD007016D
:10629800000E0001EE25D96EDA6A0701070EDA2230
:1062A80000016AC0DFFFEE2B0001F251D8B401D023
:1062B80001D002D0F20702D0070EF26F00013BAA0C
:1062C80001D001D009D00301E4510001F26101D0ED
:1062D80001D002D08A8201D08A92000100013E7C5E
:1062E8000001D890EB37D890EB378050030BEB13B5
:1062F8000F0EEB17240EEB25F66EF76A1A0EF7222F
:10630800F86A000EF8220800F550606F000E60BFB2
:10631800FF0E616F626F636F60510401C45F00011B
:1063280061510401C55B000162510401C65B0001B3
:1063380063510401C75B00013CA601D001D007D01E
:1063480000013C960401C46BC56BC66BC76B0001AA
:106358003DB201D001D008D0C4C4F0F2C5C4F1F2F6
:10636800C6C4F2F2C7C4F3F269C0F5FF68C0F8FF0B
:1063780067C0F7FF66C0F6FF65C0DAFF64C0D9FFE3
:106388001100B8C0CCF0B9C0CDF0BAC0CEF0BBC0D7
:10639800CFF0CCC07AF0CDC07BF0CEC07CF0CFC0BF
:1063A8007DF0BB0E7E6FA20E7F6F910E806F390E4F
:1063B800816FA5EC37F088D882EC39F0AE51BCC0BB
:1063C800D9FFBDC0DAFFDF6EBCC0D9FFBDC0DAFFA0
:1063D800DF5080EC40F089D8610E8D6F450E8E6FCE
:1063E80070EC3EF091D826EC3EF0CCC07AF0CDC0EF
:1063F8007BF0CEC07CF0CFC07DF0890E7E6F880E1A
:106408007F6F806F3C0E816FA5EC37F05DD882EC12
:1064180039F0AE51BEC0D9FFBFC0DAFFDF6EBEC0D3
:10642800D9FFBFC0DAFFDF5080EC40F05ED8700EB5
:106438008D6F420E8E6F70EC3EF066D826EC3EF003
:10644800CCC0AEF0CDC0AFF0CEC0B0F0CFC0B1F090
:1064580082EC39F0AE51C0C0D9FFC1C0DAFFDF6E9F
:10646800000EA16FCC0EA06FC0C0D9FFC1C0DAFF6B
:10647800DF5080EC40F075C0A2F076C0A3F077C082
:10648800A4F078C0A5F026EC3EF0000E8A6FCC0E82
:10649800896F8B6B8C6B7A0E8D6F440E8E6F70ECE0
:1064A8003EF0CCC0AEF0CDC0AFF0CEC0B0F0CFC0A3
:1064B800B1F082EC39F0C2C0D9FFC3C0DAFFAEC078
:1064C800DEFFAFC0DDFF12007AC0C4F07BC0C5F0AC
:1064D8007CC0C6F07DC0C7F0C4C0AEF0C5C0AFF088
:1064E800C6C0B0F0C7C0B1F0120075C0C8F076C021
:1064F800C9F077C0CAF078C0CBF0000E8A6FC80E1A
:10650800896F8B6B8C6B1200000EA16FCC0EA06F85
:10651800C8C0A2F0C9C0A3F0CAC0A4F0CBC0A5F0FF
:106528001200986B9A6B94C09AF0756B010E766F97
:106538007FEC3CF021EC3BF098512DE0010E756F9B
:10654800000E4AEC3CF09A670FD09351020DF350BD
:106558009125D96E000E9221DA6EDECF76F0DDCF6E
:1065680077F002EC40F008D09A51020DF3CF95F085
:10657800FE0E77D802EC40F0756B010E4AEC3CF049
:106588002A0E9DEC3AF05AD802EC40F0756B010ED9
:106598004AEC3CF023D02A0E9DEC3AF04FD802EC9E
:1065A80040F0010E756F4AEC3CF06DD80BE191C0DC
:1065B800D9FF92C0DAFFDECF76F0DDCF77F002ECBC
:1065C80040F008D09A51020DF3CF95F0020E49D849
:1065D80002EC40F0000E756B4AEC3CF0F0EC40F039
:1065E800996F99AF18D099C09AF021D09A691FD0A5
:1065F800FE0E9A6F1CD0010E986F45D803E193C028
:106608009AF098D79A2B96D7986B9A6702D09A6B7C
:1066180091D79A078FD79951010A09E0030AE6E052
:10662800010AE6E0070AE7E0010AEEE083D7756BA6
:10663800766B010E7FEC3CF09A5112009A51020DD4
:10664800F3509125956FE86AF3BEE8689221966F3A
:1066580095C0D9FF96C0DAFFDECF76F0DDCF77F0B0
:106668001200952795519125966FE86A95BFE868BD
:106678009221976F96C0D9FF97C0DAFFDECF76F0E8
:10668800DDCF77F0120093519AC095F0966B95BFC5
:106698009607951996111200000177357835806FA5
:1066A8007B357C357F6F805109E07F5180610FD049
:1066B80080517F5D7D6F210E7D5D09E379C075F0A6
:1066C8007AC076F07BC077F07CC078F012007F51FA
:1066D80009E080517F610FD07F51805D7D6F210E71
:1066E8007D5D09E375C075F076C076F077C077F008
:1066F80078C078F01200060E7E6F78BF7E8F7CBF60
:106708007E8D778F786B7B8F7C6B7F51806119D002
:10671800D89079377A377B377C377F077F51801954
:106728000CE07E0700017E51070B07E0F1D7D890F7
:106738007833773376337533802B7F518063F7D77F
:106748001BD080517F6118D0D8907537763777374E
:10675800783780077F5180190CE07E0700017E5151
:10676800070B07E0F1D7D8907C337B337A33793342
:106778007F2B7F518063F7D77EAF09D0751F761FB7
:10678800771F781F752B000E7623772378237EAD2D
:1067980002D0791F26D87E6B7551792776517A23D6
:1067A80077517B2378517C237CAF04D0791F19D88B
:1067B800010E7E6F79C06BF07AC06CF07BC06DF013
:1067C8007CC06EF080C06FF07EC070F0C9EC38F00D
:1067D8006BC075F06CC076F06DC077F06EC078F065
:1067E80012007A1F7B1F7C1F792B000E7A237B23D4
:1067F8007C23000C000E896B8A6B8B6B8C6BA6C09C
:106808008DF0A7C08EF0A8C08FF0A9C090F044EC1E
:106818003DF005E3A66BA76BA86BA96B1200A6C099
:10682800AAF0A7C0ABF0A8C0ACF0A9C0ADF0A651C3
:106838005E08B36FC80EA755B46F6E0EA855B56F36
:10684800BE0EA955B66FD890B633B533B433B3334B
:10685800D880000EAB5B800EAC5B000EAD5B040E07
:10686800AE6FB3C07AF0B4C07BF0B5C07CF0B6C0F0
:106878007DF0AAC07EF0ABC07FF0ACC080F0ADC0A8
:1068880081F0A5EC37F07AC0AFF07BC0B0F07CC0E7
:10689800B1F07DC0B2F03CD870EC3EF039D870EC65
:1068A8003EF0000E8A6FB30E896F8B6B8C6BC00E37
:1068B8008D6F3F0E8E6F70EC3EF0000EA16FB30E21
:1068C800A06FAFC0A2F0B0C0A3F0B1C0A4F0B2C036
:1068D800A5F026EC3EF0AE2FC4D7B3C07AF0B4C012
:1068E8007BF0B5C07CF0B6C07DF0A6C07EF0A7C036
:1068F8007FF0A8C080F0A9C081F0A5EC37F07AC07D
:10690800A6F07BC0A7F07CC0A8F07DC0A9F012005B
:10691800000E8A6FAF0E896FB3C08BF0B4C08CF0D5
:10692800B5C08DF0B6C08EF01200E8CF93F000012C
:10693800935186D8100E6F6F0E0E706F000E716B2C
:10694800726B6AEC3DF067D8BAEC3EF075C08BF01C
:1069580076C08CF077C08DF078C08EF04BEC3EF0AE
:106968008F516ED83C0E6F6F000E706B716B726B2F
:106978006AEC3DF050D8BAEC3EF075C08BF076C0AA
:106988008CF077C08DF078C08EF04BEC3EF0000EA6
:106998008A6F9C0E896F905180EC40F075C08BF027
:1069A80076C08CF077C08DF078C08EF04BEC3EF05E
:1069B80091C075F092C076F0C7EC3FF075C094F0C6
:1069C80076C095F077C096F078C097F0000E8A6F81
:1069D800940E896F6F0E8B6F120E8C6F830E8D6FF6
:1069E8003A0E8E6F70EC3EF0000E8A6F9C0E896F27
:1069F80094C08BF095C08CF096C08DF097C08EF047
:106A08004BEC3EF09CC08FF09DC090F09EC091F082
:106A18009FC092F012006BC098F06CC099F06DC0E6
:106A28009AF06EC09BF0000E8A6F9C0E896F98C01A
:106A380075F099C076F09AC077F09BC078F0120094
:106A4800986F996B9A6B9B6B98C06BF099C06CF0C0
:106A58009AC06DF09BC06EF01200D0C0B8F0D1C0E3
:106A6800B9F0D2C0BAF0D3C0BBF0000EBD6FD60EDD
:106A7800BC6F000EBF6FD70EBE6F000EC16FD80E71
:106A8800C06F000EC36FD90EC26FC5EC31F0D9C00C
:106A98006BF0DAC06CF06E6B640E6D6F9EEC3BF0C1
:106AA8006BC0D9F06CC0DAF0D4A70ED0D5A703D04C
:106AB8003C0E9DEC3AF0D65151D834EC29F0D5A7CC
:106AC80003D03E0E9DEC3AF0D4A513D0D4A703D042
:106AD8003A0E9DEC3AF0D5A503D03C0E9DEC3AF069
