:0410000094EF0CF06D
:10100800D9CF64F0DACF65F0F6CF66F0ACEF2FF009
:10101800D8CF19F0E8CF1AF0E0CF1BF0D9CF1CF0E9
:10102800DACF1DF0F6CF1EF0F7CF1FF0F8CF20F083
:10103800F5CF21F09E90010E0201D427000ED52392
:10104800000ED623000ED72300015BB601D001D0D5
:1010580008D0D4C2D8F2D5C2D9F2D6C2DAF2D7C2F1
:10106800DBF200015CA801D001D00FD00201D451FD
:10107800DC5DD551DD59D651DE59D751DF59D8B08D
:1010880001D001D002D000015C984C504B10D8B46C
:1010980001D001D008D04B06D8A04C0600015CA2B4
:1010A80001D001D003D00001599A02D00001598A19
:1010B800D8905636D89056368138E8461F0B030B21
:1010C80056120F0E5616BC0E5624F66EF76A190EF7
:1010D800F722F86A000EF8220800F550545E572AE5
:1010E8005728D8A401D001D004D0576A546A000107
:1010F8005A845450800A7D0FD8A001D001D00FD057
:10110800040E536E00015982C0C44BF0C1C44CF0A8
:101118000001598057C04FF0506A576A546A5450BA
:10112800800A820FD8B001D001D00FD0050E536EBF
:1011380000015982C0C44BF0C1C44CF00001598071
:1011480057C04FF0506A576A546A81B401D001D031
:1011580007D0514A522AC0C44BF0C1C44CF016D033
:10116800020E515C000E5258D8A001D001D00CD00C
:10117800C80E515C000E5258D8B001D001D004D02E
:10118800010E536E00015982516A526AB10E515CC8
:10119800040E5258D8A001D001D001D0FF0052044B
:1011A800900ED8B45118D8A401D001D004D0030EA1
:1011B800536E000159825150C80A5210D8A401D068
:1011C80001D004D0020E536E00015982000159A6C5
:1011D80001D001D009D000015992536A0001EE6B89
:1011E8000001599600015B9800015BB801D001D05D
:1011F80012D0000159A201D001D004D053C0EEF0A2
:101208000001599200015CAA01D001D004D000016C
:101218005C9A58C0EEF000015BB401D001D017D041
:10122800000159A001D001D012D00401280E552484
:10123800D96EDA6A040EDA224FC0DFFF552A0F0E84
:10124800556401D001D001D0556A000159900001C0
:101258005B80E8C133F0E9C134F0EAC135F0EBC195
:1012680036F000015B9000015BAE01D001D0DED00A
:1012780000015A9A47500301CC5D4850CD59495056
:10128800CE594A50CF59D8B001D001D024D03B50C4
:101298000101EC5F3C50ED5B3D50EE5B3E50EF5B77
:1012A8003B50EC5D3C50ED593D50EE593E50EF59E6
:1012B800D8B001D001D060D0D0C3D0F2D1C3D1F220
:1012C800D2C3D2F2D3C3D3F2EC6BED6BEE6BEF6B00
:1012D80000015B9E51D03F500101EC5D4050ED593B
:1012E8004150EE594250EF59D8B001D001D01CD02E
:1012F8003B50EC273C50ED233D50EE233E50EF236E
:10130800EC513F5CED514058EE514158EF51425875
:10131800D8B001D001D008D03FC0ECF140C0EDF109
:1013280041C0EEF142C0EFF1EC513F5CED51405845
:10133800EE514158EF514258D8B001D001D01CD0DD
:101348003B50EC5F3C50ED5B3D50EE5B3E50EF5B3D
:101358003F50EC5D4050ED594150EE594250EF5925
:10136800D8B001D001D008D03FC0ECF140C0EDF1B9
:1013780041C0EEF142C0EFF10101EC510201C82772
:101388000101ED510201C9230101EE510201CA23F5
:101398000101EF510201CB230101EC510201C85DAB
:1013A8000101ED510201C9590101EE510201CA5969
:1013B8000101EF510201CB59D8B001D001D008D0BA
:1013C800010ECC27000ECD23000ECE23000ECF2316
:1013D800CBC247F0CCC248F0CDC249F0CEC24AF0E9
:1013E80000015BAE01D001D0E1D000015CA001D0CA
:1013F80001D00ED04750435C0201D06F485044588A
:10140800D16F49504558D26F4A504658D36FCED005
:10141800435047240201D06F44504820D16F4550B3
:101428004920D26F46504A20D36FC0D000015AAA33
:1014380001D001D009D033C0D0F234C0D1F235C0C8
:10144800D2F236C0D3F2B2D000015CA401D001D0F0
:10145800ADD000015AA201D001D00AD000015A92A1
:10146800D4C33FF0D5C340F0D6C341F0D7C342F050
:101478003F500101EC5D4050ED594150EE5942504A
:10148800EF59D8B001D001D020D000015A803B508C
:101498000101EC273C50ED233D50EE233E50EF2355
:1014A800EC513F5CED514058EE514158EF514258D4
:1014B800D8B001D001D040D03FC0ECF140C0EDF130
:1014C80041C0EEF142C0EFF137D0EC513F5CED5135
:1014D8004058EE514158EF514258D8B001D001D090
:1014E80029D000015A803B500101EC5D3C50ED5978
:1014F8003D50EE593E50EF59D8B001D001D005D03B
:10150800EC6BED6BEE6BEF6B08D03B50EC5F3C5037
:10151800ED5B3D50EE5B3E50EF5B3F50EC5D405065
:10152800ED594150EE594250EF59D8B001D001D091
:1015380003D0C2D700015A900101EC510201C8271B
:101548000101ED510201C9230101EE510201CA2333
:101558000101EF510201CB230101EC510201C85DE9
:101568000101ED510201C9590101EE510201CA59A7
:101578000101EF510201CB59D8B001D001D008D0F8
:10158800010ECC27000ECD23000ECE23000ECF2354
:10159800CBC247F0CCC248F0CDC249F0CEC24AF027
:1015A80000015CA001D001D033D724D7C4CF37F0D5
:1015B800386A3750386E376AC3503726000E3822DB
:1015C800C2825D50375C266E5E503858276E040E16
:1015D800126E273427322632122EFBD726505D266C
:1015E80027505E2237505D5C38505E58D8B001D025
:1015F80001D002D05D4A5E2A5D50375C5E50385893
:10160800D8B001D001D003D05D06D8A05E06000195
:101618005ABE01D001D004D05DC0F0F15EC0F1F136
:101628000401B1515D5CB2515E58D8B001D001D00F
:1016380002D000015B8A33500301C85D296E345023
:10164800C9592A6E33C0C8F334C0C9F335C0CAF3C8
:1016580036C0CBF32AAE01D001D004D0296C2A1EA3
:10166800D8B02A2A0401B5C401F0026A29C003F0DF
:101678002AC004F08DEC3FF001C037F002C038F00A
:10168800B6513726000E3822000E375C010E385846
:10169800D8A001D001D004D0000E386EFF0E376EEE
:1016A8005DC012F05EC013F0040E146ED8901332B1
:1016B8001232142EFBD71250286EB3C401F0B4C4F2
:1016C80002F028C003F0046ACDEC3CF001C024F01D
:1016D80002C025F037C02BF038C02CF02D6A2E6AD6
:1016E80024C00DF025C00EF00F6A106A2B0EA8EC6E
:1016F8003CF0060E126ED8902E322D322C322B3240
:10170800122EF9D7000E2B5C040E2C58000E2D5803
:10171800000E2E58D8A001D001D008D0FF0E2B6E95
:10172800030E2C6E000E2D6E000E2E6E335002012D
:10173800D05D2F6E3450D159306E3550D259316E3C
:101748003650D359326E0401CAC412F0CBC413F018
:10175800000E13BEFF0E146E156E1550800A166E1D
:101768002F50125C30501358315014583250800AA0
:101778001658D8B001D001D00ED024EECAF0DECF72
:101788002FF0DDCF30F0000E30BEFF0E316E326E1E
:1017980000015B8C37D024EECAF0DECF12F0DDCF2B
:1017A80013F0121E131E124A132A12C014F013C08B
:1017B80015F0000E15BEFF0E166E176E3250800A19
:1017C800186E14502F5C1550305816503158175059
:1017D800800A1858D8B001D001D014D024EECAF02D
:1017E800DECF12F0DDCF13F0121E131E124A132A99
:1017F80012C02FF013C030F0000E30BEFF0E316E55
:10180800326EC6D74D502F5C226E4E503058236E24
:101818002FC04DF030C04EF0CCC401F0CDC402F062
:101828002FC003F030C004F08DEC3FF001C039F058
:1018380002C03AF0CEC401F0CFC402F022C003F0D7
:1018480023C004F08DEC3FF00150392602503A22B3
:101858003AAE01D001D007D08B908A80396C3A1EFD
:10186800D8B03A2A02D08B808A9039C012F03AC098
:1018780013F0000E13BEFF0E146E156E12502B5C83
:1018880013502C5814502D5815502E58D8B001D03C
:1018980001D004D02BC039F02CC03AF000015CA272
:1018A80001D001D00CD08B908A90396A3A6A33C043
:1018B800D0F234C0D1F235C0D2F236C0D3F23A50A9
:1018C800800A7D0F850ED8B4395CD8A001D001D02C
:1018D80004D0030E3A6EFF0E396E3950FF08396E88
:1018E8003A50D8A0E82A03083A6E3A343A323932E4
:1018F8003A343A32393239C0BCFF21C0F5FF20C032
:10190800F8FF1FC0F7FF1EC0F6FF1DC0DAFF1CC09E
:10191800D9FF1BC0E0FF1AC0E8FF19C0D8FF1000AC
:10192800FCEF35F00000000000000000000000009F
:10193800000000000000000000000000000000009F
:10194800000000000000000000000000000000008F
:101958000000000000010203040506070809000052
:1019680000000000000A0B0C0D0E0F000000000024
:1019780000000000000A0B0C0D0E0F000000000014
:10198800000000000000000000000000000000004F
:10199800000000000000000000000000000000003F
:1019A800000000003031323334353637383941429F
:1019B8004344454600FF0100010000FFFF0000010D
:1019C8000001FF004D4F564520544F205A45524FB5
:1019D8002044454752454553000020202020202020
:1019E80020202020202020202020202020000052FD
:1019F8004F544154494F4E20444952454354494F4E
:101A08004E3A000052554E4E494E473A20542D4802
:101A1800483A4D4D3A5353000054494D4520464FDE
:101A28005220414C4C204F524249545300004359D4
:101A3800434C4520434F554E543A303D494E462E6F
:101A480000004457454C4C204F4E20504F494E54AF
:101A58002023303000004D415820574159504F49FC
:101A68004E5453204841564500004D4F564520548A
:101A78004F204E45585420504F494E540000455869
:101A88005445524E414C204354524C204D4F4445EE
:101A980000004D4F56494E4720544F20504F494E55
:101AA80054202300002B58585858DF205448454EDE
:101AB80020434C49434B000041444420414E4F547D
:101AC80048455220504F494E543F005350454544D5
:101AD8003A2058582E5858DF2F536563000050524B
:101AE8004F4752414D20454E44204D4F44453A0002
:101AF80000434F554E54455220434C4F434B574992
:101B0800534500004457454C4C204F4E20504F49F8
:101B18004E54202300004D4F56494E4720544F2025
:101B28004F524947494E00004241545445525920AA
:101B3800564F4C544147453A00004D4F56452054A6
:101B48004F2053544152542E2E2E0000494E4649E0
:101B58004E4954452052554E54494D450000494E72
:101B680046494E495445204359434C455300005477
:101B7800494D4520504552204F524249543A0000A1
:101B88004D4F56494E4720544F205354415254000C
:101B9800004241545445525920564F4C54414745F0
:101BA80000004457454C4C204F4E2053544152544A
:101BB8000000544F54414C2052554E54494D453A1B
:101BC800000054494D4520504552204F5242495437
:101BD80000004259204F5242495420434F554E5419
:101BE800000043494E45464C5558204F52424954EF
:101BF8000000425920544F54414C2054494D45004F
:101C0800004F524249542052554E4E494E4700000B
:101C18005448454E20434C49434B2E2E2E0000522B
:101C280045414C54494D45204D4F444500005741CE
:101C380059504F494E54204D4F444500005452418D
:101C480056454C2054494D453A000050524553459D
:101C58005420534C4F543A00004F52424954205399
:101C6800504545443A00004F52424954204C494D92
:101C780049543A00004E4556455220454E44494E77
:101C8800470000312E302E31343030382E323700B4
:101C98000045585445524E414C204D4F4445004450
:101CA80057454C4C2054494D453A000053544F5029
:101CB80050494E472E2E2E00005448454E20434C86
:101CC80049434B2E000052554E2050524F47524127
:101CD8004D0000205245562052454D41494E0000C6
:101CE80053415645205052455345540000474F2014
:101CF800544F20534C45455000004C4F4F50204DF9
:101D08004F44453F00004245454E20414444454428
:101D180000002D4F524249542020202000002D451C
:101D28004D5054592020202000002D574159504F24
:101D3800494E542000004F52424954204D4F4445CB
:101D4800000052554E205052455345540000505201
:101D58004553455420303100004F4E452D574159C9
:101D68000000414354494F4E3A00004359434C4503
:101D7800200000424F554E4345000020564F4C541A
:101D88005300004D414E55414C00003C4E4F3E2003
:101D980000003C5945533E0000535045454400005F
:101DA800204F462000003C6D733E003C483E003CFE
:101DB8004D3E003C533E0000020EF46F1B0E9E6F1A
:101DC800010E9D6F1A0EA06FF90E9F6F9FC1B7F19C
:101DD800A0C1B8F19DC1B9F19EC1BAF11D0EA26FA3
:101DE8008B0EA16F1B0EA46FCF0EA36F1A0EA66FDA
:101DF800260EA56FA1C1BFF1A2C1C0F1A3C1C1F157
:101E0800A4C1C2F1A5C1C3F1A6C1C4F11B0EA86F3C
:101E1800DA0EA76F1B0EAA6FFA0EA96F1C0EAC6F15
:101E28007D0EAB6FA7C1B1F1A8C1B2F1A9C1B3F1E1
:101E3800AAC1B4F1ABC1B5F1ACC1B6F11C0EAE6F1D
:101E4800CE0EAD6F1C0EB06FE80EAF6FADC1BBF11B
:101E5800AEC1BCF1AFC1BDF1B0C1BEF1E8EC39F023
:101E68001B0E776F420E766FFEEC3EF0756B010E1F
:101E780016EC3BF01C0E776FC10E766FFEEC3EF051
:101E880000015A8A5DEC40F00101C56FC5AF02D070
:101E9800C551120000015A9A16EC35F0A6C0AEF0F2
:101EA800A7C0AFF0A8C0B0F0A9C0B1F049EC38F0B5
:101EB800AEC0D9F3AFC0DAF3010E0001926FB70ECE
:101EC800916F010E936F190E956FF70E946FDCC327
:101ED80096F098EC38F00101C56FC529BFE0C551EF
:101EE800FE0A01E1FE0CC5BFD3D7C5C1DCF3010E64
:101EF8000001926FB10E916F020E936F1A0E956FDB
:101F0800E60E946FDBC396F098EC38F00101C56FCC
:101F1800C529D2E0C551FE0AE5E0C5BFB9D7C5C19C
:101F2800DBF318D2E1C389F0E2C38AF0E3C38BF094
:101F3800E4C38CF000018D6B8E6B800E8F6F3F0EAB
:101F4800906F5CEC3CF007E20301E16BE26B800E02
:101F5800E36F3F0EE46F0001896BC00E8A6F790E44
:101F68008B6F440E8C6FE1C38DF0E2C38EF0E3C338
:101F78008FF0E4C390F05CEC3CF008E20301E16B05
:101F8800C00EE26F790EE36F440EE46F1C0E010180
:101F9800806F6F0E7F6F190E826FF60E816F030EC2
:101FA800846FE10E836F856B866B800E876F3F0EA3
:101FB800886F896BC00E8A6F790E8B6F440E8C6F99
:101FC8008D6B8E6B800E8F6F3F0E906F7EEC24F0C2
:101FD8000101C56FC5298BE0C551FE0A83E0C5BF65
:101FE80057D70001896B8A6B800E8B6F3F0E8C6F01
:101FF800E1C38DF0E2C38EF0E3C38FF0E4C390F049
:102008005CEC3CF010E2010E0001926FBF0E916F84
:10201800020E936F1C0E956F610E946FEDC396F0D0
:1020280098EC38F004D0010E49DA98EC38F0010148
:10203800C56FC52901E176D7C551FE0A01E152D71E
:10204800C5BF26D7A5D0FFD95CEC3CF001E243DA46
:10205800C1D97EEC24F00101C56FC529C2E0C55184
:10206800FE0A01E13FD77FD10ADA5CEC3CF001E2DD
:102078004BDA1B0E0101806FCA0ED0D94FEC1EF04F
:102088000101C56FC529ADE0C551FE0A01E12AD796
:10209800000105DAEEEC37F04FD1E5C389F0E6C36D
:1020A8008AF0E7C38BF0E8C38CF000017E6B7F6B8E
:1020B800800E806F400E816FE1C37AF0E2C37BF03F
:1020C800E3C37CF0E4C37DF06CEC36F07AC08DF0AD
:1020D8007BC08EF07CC08FF07DC090F05CEC3CF053
:1020E8000BE203DA6CEC36F07AC0E5F37BC0E6F37A
:1020F8007CC0E7F37DC0E8F3F8D96CEC36F07AC021
:1021080099F17BC09AF17CC09BF17DC09CF11A0EBD
:102118000101806F210E7F6F030E826FE50E816FC4
:1021280099C183F19AC184F19BC185F19CC186F163
:102138009CD94FEC1EF00101C56FC52901E151D7AB
:10214800C551FE0A01E1CED600017E6B7F6BB40E4D
:10215800806F430E816FE1C37AF0E2C37BF0E3C383
:102168007CF0E4C37DF06CEC36F07AC089F07BC07B
:102178008AF07CC08BF07DC08CF0E5C38DF0E6C39F
:102188008EF0E7C38FF0E8C390F0EEEC37F0D4D0D0
:10219800C55101E158D7010A01E166D7030A01E1F7
:1021A8007CD7E1D01B0E0101806FBA0E7F6F030E42
:1021B800826FDD0E816F836B846B800E856F3F0E9F
:1021C800866F53D94FEC1EF00101C56FC52901E197
:1021D8008ED6C551FE0A01E185D6C5BF59D6010E76
:1021E8006DD998EC38F00101C56FC529DBE0C55100
:1021F800FE0A01E177D6C5BF4BD632D024D95CECB4
:102208003CF001E268D9E6D87EEC24F00101C56F04
:10221800C529E5E0C551FE0A01E164D625D02FD9CC
:102228005CEC3CF001E270D91B0E0101806F770E67
:10223800F5D84FEC1EF00101C56FC529D0E0C55196
:10224800FE0A01E14FD600012AD9EEEC37F089C029
:10225800E9F38AC0EAF38BC0EBF38CC0ECF304D04B
:10226800C551CCE0010ADBE0DDC37EF0DEC37FF0C0
:10227800DFC380F0E0C381F0E9C37AF0EAC37BF002
:10228800EBC37CF0ECC37DF06CEC36F07AC089F0DF
:102298007BC08AF07CC08BF07DC08CF08D6B8E6B20
:1022A800B40E8F6F430E906FEEEC37F089C0E1F3F8
:1022B8008AC0E2F38BC0E3F38CC0E4F354D0010E80
:1022C800FDD898EC38F00101C56FC52901E10FD69A
:1022D800C551FE0A01E106D6C5BFDAD536D0B3D856
:1022E8005CEC3CF001E2F7D875D87EEC24F00101F3
:1022F800C56FC529E4E0C551FE0A01E1F3D5C5BFA4
:10230800C7D531D0BCD85CEC3CF001E2FDD81B0E3F
:102318000101806F770E82D84FEC1EF00101C56F66
:10232800C529CDE0C551FE0A01E1DCD5C5BFB0D550
:102338000001B5D8EEEC37F089C0E9F38AC0EAF3BA
:102348008BC0EBF38CC0ECF30ED0C551C8E0010A8A
:10235800D9E009D00301DB5101E1E4D5010A01E12B
:1023680021D7030AACE0010E0001926FBB0E916FFA
:10237800010E936F1D0E956F6A0E946F000E966B8B
:1023880098EC38F00101C56FC52901E1CBD5C551DD
:10239800FE0A01E1A7D5C5BF7BD5C56702D04BEFC3
:1023A80026F0D3EC36F00101C56FC529DCE0C55134
:1023B800FE0A01E197D5C5BF6BD5020E0301D86FA0
:1023C800030E0001736FD80E726F0101C5510EEC38
:1023D80040F0C9D71D0E0101806FA10E7F6F1A0E44
:1023E800826FDF0E816F030E846FE90E836F0A0E12
:1023F800856FD70E866F230E876F3C0E886F896BAB
:102408008A6BB40E8B6F420E8C6F0A0E8D6FD70ECF
:102418008E6F230E8F6F3C0E906F3C0C7F6F030EF8
:10242800826FE50E816F836B846B800E856F400E23
:10243800866F876BC00E886FA80E896F470E8A6FEC
:102448000E0E8B6F0E0CE9C389F0EAC38AF0EBC35A
:102458008BF0ECC38CF00A0E00018D6FD70E8E6FD7
:10246800230E8F6F3C0E906F3C0C876BC00E886FED
:10247800A80E896F470E8A6F0E0E8B6F0E0CE5C380
:1024880089F0E6C38AF0E7C38BF0E8C38CF000015B
:102498008D6B8E6B800E8F6F400E906F400C896B2A
:1024A8008A6BB40E8B6F430E8C6FE5C38DF0E6C359
:1024B8008EF0E7C38FF0E8C390F0430C0001926FF1
:1024C800BF0E916F010E936F1C0E956F610E946F86
:1024D800EDC396F012000A0E0301E96FD70EEA6FFA
:1024E800230EEB6F3C0EEC6F3C0CE1C37AF0E2C3B9
:1024F8007BF0E3C37CF0E4C37DF07E6B7F6B800EE2
:10250800806F400E816F400C0301E56BE66B800E17
:10251800E76F400EE86F400C080EF46F536B526B78
:1025280059880101546B516BE8EC39F01C0E776F38
:10253800990E766FFEEC3EF06FEC40F0D76FD751F6
:10254800030A01E1A5D250D05B9E5A9A5C9457D0F9
:10255800FEDA5AB2FED75AB002D00101546B5BBE04
:1025680003D0010E0101546F5BBE49D001015351E4
:10257800020D0CDB0001DECF71F0DDCF72F022EC32
:1025880040F00101532B040E2DD05CB838D0010166
:102598005251536302D0010E25D05351020DEFDA88
:1025A8000001DECF75F0DDCF76F053EC3EF075C05C
:1025B8004DF176C04EF177C04FF178C050F101016E
:1025C8005351020DCEDA0001DECF75F0DDCF76F083
:1025D800B9EC3FF08CDA3CEC2CF070DAE4EC3EF02D
:1025E800030E0101546F0BD001015451ADE0010AF3
:1025F800AFE0030AB4E0010AB7E0070AC6E0000149
:1026080059AE9AD70101F26B010E0001EC6F00017F
:10261800599ECFEC3DF00101F5198EE1CFEC3DF06C
:102628000101556F1DD2CFEC3DF00101596FCFEC80
:102638003DF00101586FCFEC3DF00101576FCFEC31
:102648003DF00101566F56C138F157C139F158C1F3
:102658003AF159C13BF129DACFEC3DF00101596F4C
:10266800CFEC3DF00101586FCFEC3DF00101576F01
:10267800CFEC3DF00101566F56C13CF157C13DF119
:1026880058C13EF159C13FF110DACFEC3DF00101DC
:10269800596FCFEC3DF00101586FCFEC3DF00101CF
:1026A800576FCFEC3DF00101566F56C140F157C14D
:1026B80041F158C142F159C143F1F7D9CFEC3DF08E
:1026C8000101F21906E1010E516F555161EC3FF01D
:1026D80033D74EDA18EC3FF02FD7516708D0010EE8
:1026E80000016D6F0101555118EC3FF025D7545189
:1026F80008E0020E00016D6F0101555118EC3FF022
:102708001BD738C1B8F039C1B9F03AC1BAF03BC1EA
:10271800BBF03CC1BCF03DC1BDF03EC1BEF03FC105
:10272800BFF040C1C0F041C1C1F042C1C2F043C1D5
:10273800C3F06DEC20F00101516B020E546F55513E
:1027480061EC3FF0F9D6545102E0010E546F555137
:1027580061EC3FF0F1D6F36BD4EC1DF0240EDF6E84
:10276800F32B555112EC3EF0545112EC3EF05451FB
:10277800F227515112EC3EF05151F227D7EC3BF0C1
:10278800F2EC3CF075C056F176C057F177C058F1BD
:1027980078C059F15B90CDD986EC3DF001015951D3
:1027A80012EC3EF0585112EC3EF0575112EC3EF04C
:1027B800565112EC3EF079D9566B576B586B596BE2
:1027C80012D0ECC175F0EDC176F0EEC177F0EFC133
:1027D80078F032EC3FF075C056F176C057F177C00B
:1027E80058F178C059F1ECC175F0EDC176F0EEC141
:1027F80077F0EFC178F032EC3FF001015951000158
:1028080078190EE1010158510001771909E1010118
:1028180057510001761904E101015651000175195B
:10282800D0E1010E00018A6F560E12EC1EF086EC04
:102838003DF07FD986EC3DF00101595112EC3EF094
:10284800585112EC3EF0575112EC3EF0565112EC32
:102858003EF02BD900015B86D8C275F0D9C276F05C
:10286800DAC277F0DBC278F032EC3FF075C056F18F
:1028780076C057F177C058F178C059F15B96010ED0
:1028880000018A6F560E896F6F0E8B6F120E8C6F58
:10289800030E8D6F3B0E8E6F86EC3DF00101595192
:1028A80012EC3EF0585112EC3EF0575112EC3EF04B
:1028B800565112EC3EF0F9D800015A8EF0C175F06D
:1028C800F1C176F0B9EC3FF075C056F176C057F11A
:1028D80077C058F178C059F15A9E010E00018A6FED
:1028E800560E896FBBC48BF0BCC48CF0BDC48DF090
:1028F800BEC48EF086EC3DF00101595112EC3EF059
:10290800585112EC3EF0575112EC3EF0565112EC71
:102918003EF0CBD8F25112EC3EF0D4EC1DF0230E71
:10292800DF6EF32BF3C14CF1F36B4CC1EDF004D621
:102938005451030A03E05451040A08E1010E00014E
:102948006D6F0101555118EC3FF0F6D5536B526B82
:10295800555161EC3FF0F0D55451030A03E054514E
:10296800040A08E1010E00016D6F0101555118ECD0
:102978003FF0E2D5630E526508D0020E00016D6F7C
:102988000101555118EC3FF0D7D5CFEC3DF00101CE
:10299800576FCFEC3DF0C4D8F2D856C1DEFF57C10F
:1029A800DDFFCFEC3DF00101576FCFEC3DF0B8D81B
:1029B800D8D856C1DEFF57C1DDFFCFEC3DF001018D
:1029C800576FCFEC3DF0ACD8E1D856C1DEFF57C108
:1029D800DDFFCFEC3DF00101F21906E1555161EC44
:1029E8003FF00101522BA8D5C3D818EC3FF0A4D56D
:1029F800545108E0010E00016D6F0101555118ECAA
:102A08003FF09AD5536B00C375F001C376F053ECD1
:102A18003EF075C04DF176C04EF177C04FF178C0E9
:102A280050F100C775F001C776F0B9EC3FF05FD8F8
:102A38003CEC2CF043D8E4EC3EF0030E0101546F5B
:102A4800555161EC3FF078D5555161EC3FF020D0FD
:102A5800FE0E00016D6F0101555118EC3FF06CD569
:102A68005551600A01E1DFD5010A01E136D6030AB2
:102A780001E169D6010A01E16ED6070A01E158D7DA
:102A8800010A01E169D7030AB3E0E60ADDE0E0D70D
:102A98005ED806D001014C694C0701014C29FCE1C4
:102AA8005AB0F8D700015998000C5951F2275851DB
:102AB800F2275751F2275651F2271200B7C044F1B6
:102AC800B8C045F1B9C046F1BAC047F14DC130F1BF
:102AD8004EC131F14FC132F150C133F144C134F12B
:102AE80045C135F146C136F147C137F1120075C00D
:102AF80048F176C049F177C04AF178C04BF14DC131
:102B0800B7F04EC1B8F04FC1B9F050C1BAF048C1E2
:102B1800BBF049C1BCF04AC1BDF04BC1BEF01200C8
:102B28000101566F5751F2275651F2275251020DA3
:102B38001200010E00018A6F560E896FD4C48BF003
:102B4800D5C48CF0D6C48DF0D7C48EF012005B9E2D
:102B58005A9A5C840301D46BD56BD66BD76B5A82B7
:102B68001200000EF324D96EDA6A070EDA22120078
:102B7800516BFA0E00016D6F010155511200000EE4
:102B8800F324D96EDA6A030EDA221200000EF32457
:102B9800D96EDA6A020EDA221200040EF46FB46BF0
:102BA800B56BB66BB76BA96B04013B6B1D0E0101CE
:102BB800966F610E956F1D0E986F7B0E976F95C17E
:102BC8009DF196C19EF197C19FF198C1A0F11C0E8D
:102BD8009A6FCE0E996F1C0E9C6FE80E9B6F99C171
:102BE800A1F19AC1A2F19BC1A3F19CC1A4F1B86B58
:102BF800B96BBA6BBB6BC26BC36BC46BC56BB26B87
:102C0800B36BAE6BAF6BB06BB16BAA6BAB6BAC6BF2
:102C1800AD6BBE6BBF6BC06BC16BC66BE8EC39F0BC
:102C28001B0E776F420E766FFEEC3EF0756B010E51
:102C380016EC3BF01C0E776FC10E766FFEEC3EF083
:102C480000015A8A5DEC40F00101C76FC7AF02D09E
:102C5800C751120000015A9A16EC35F0A6C0AEF022
:102C6800A7C0AFF0A8C0B0F0A9C0B1F049EC38F0E7
:102C7800AEC039F4AFC03AF4B3EC3BF08FC0A5F165
:102C880090C0A6F191C0A7F192C0A8F178DA4FECF4
:102C98001EF00101C76FC751FE0A01E1FE0CC729EA
:102CA800A6E0C7BFD5D7BEC1AEF0BFC1AFF0C0C1A7
:102CB800B0F0C1C1B1F049EC38F0AEC087F4AFC094
:102CC80088F4CED1E8EC39F01A0E776F720E766F71
:102CD800FEEC3EF0756B010E16EC3BF01A0E776FAA
:102CE800AD0E766FFEEC3EF05A8A598602D0D9ECCA
:102CF8001BF0000159B6FBD70101C76B96D0D9EC80
:102D08001BF0B3EC3BF08FC0AAF190C0ABF191C0BF
:102D1800ACF192C0ADF1AAC198F0ABC199F0ACC1C9
:102D28009AF0ADC19BF0A5C19CF0A6C19DF0A7C1CA
:102D38009EF0A8C19FF0ADEC3EF098C0AEF199C0EE
:102D4800AFF19AC0B0F19BC0B1F1AEC1AEF0AFC166
:102D5800AFF0B0C1B0F0B1C1B1F049EC38F0AEC0DD
:102D6800B2F1AFC0B3F1756B010E16EC3BF0B2C116
:102D780079F00001B3C17AF0000E7ABFFF0E7B6FC5
:102D88007C6F040E7D6F010E7E6FFCEC27F05B8874
:102D9800EEC0C7F15B980101C751030A03E10001C6
:102DA8005A9AFE0CC751020A07E15A9A0101C667EE
:102DB80001D01DD7C60786D7C751050A18E159861D
:102DC8005A9A0101306B316B800E326FBF0EEDD90C
:102DD800E4EC3EF002D0D9EC1BF000015BBEFBD75F
:102DE8005A8A02D0D9EC1BF0000159B6FBD7010171
:102DF800C751040A17E159865A9A306B316B800E15
:102E0800326F3F0ED2D9E4EC3EF002D0D9EC1BF081
:102E180000015BBEFBD75A8A02D0D9EC1BF0000137
:102E280059B6FBD70101C7BF13D7C70501E067D75C
:102E38005A9A0101C651020D3F0EF324D96EDA6A7F
:102E4800040EDA22B2C1DEFFB3C1DDFFAEC1B7F0B6
:102E5800AFC1B8F0B0C1B9F0B1C1BAF075EC29F0A2
:102E6800B7C0C2F1B8C0C3F1B9C0C4F1BAC0C5F1A6
:102E7800C2C1AEF0C3C1AFF0C4C1B0F0C5C1B1F0BA
:102E880049EC38F0AEC0BCF1AFC0BDF1010E000195
:102E9800A16FC20EA06FBCC175F0BDC176F0B9ECD0
:102EA8003FF075C0A2F076C0A3F077C0A4F078C058
:102EB800A5F061EC3DF0000E896B8A6B8B6B8C6B17
:102EC800C2C18DF0C3C18EF0C4C18FF0C5C190F0EE
:102ED8005CEC3CF00DE2010E0101BC250001756FB0
:102EE800000E0101BD210001766FB9EC3FF006D05C
:102EF800BCC175F0BDC176F0B9EC3FF075C0C2F148
:102F080076C0C3F177C0C4F178C0C5F11C0E0101C9
:102F1800806F450E7F6F010E826FB80E816FC2C140
:102F280083F1C3C184F1C4C185F1C5C186F1876B42
:102F380088697F0E896F470E8A6F0E0E8B6F4FEC74
:102F48001EF00101C76FC751FE0A01E1A7D6C729C4
:102F580001E1B8D6C7BF7CD6B8C1AEF0B9C1AFF0F1
:102F6800BAC1B0F0BBC1B1F049EC38F00101C651AB
:102F7800020D630EF324D96EDA6A040EDA22AEC0AB
:102F8800DEFFAFC0DDFFFBD84FEC1EF00101C76FBD
:102F9800C751FE0A01E182D6C729B8E0C7BF58D693
:102FA800BEC1AEF0BFC1AFF0C0C1B0F0C1C1B1F099
:102FB80049EC38F00101D890C6350001E56F890E5B
:102FC800E525D96EDA6A040EDA22AEC0DEFFAFC09C
:102FD800DDFF0101C651800A6F0F24E21A0E0001BD
:102FE800926FC00E916F010E936FDDEC38F0010106
:102FF800C76FC751FE0A01E151D6C729C4E0C767A8
:1030080002D0010EA96FC7050AE1C62BAAC1A5F116
:10301800ABC1A6F1ACC1A7F1ADC1A8F153D6C7BFEA
:1030280017D61ED0E8EC39F01A0E776F5E0E766F61
:10303800FEEC3EF0756B010E16EC3BF01D0E776F43
:103048000E0E766FFEEC3EF05DEC40F00101C76FAE
:10305800C751FE0A01E122D6C72995E0010EA96FE2
:103068000101A95101E12ED6C6C13BF4010E0001B0
:10307800926F9D0E916F010E936F1D0E956F020E4C
:10308800946F3CC496F098EC38F00101C76FC729DB
:1030980001E179D7C751FE0A01E100D6C7BFD8D5EB
:1030A800C7C13CF41A0E806F360E7F6F1B0E826FFD
:1030B8006E0E816F010E846FB40E836F856B866B05
:1030C800876B886B896BC00E8A6F790E8B6F440E85
:1030D8008C6F8D6B8E6B800E8F6F3F0E906F7EECBA
:1030E80024F00101C76FC729C1E0C751FE0A01E1F9
:1030F800D5D5C7BFADD5B4C1AEF0B5C1AFF0B6C177
:10310800B0F0B7C1B1F049EC38F0AEC03DF4AFC093
:103118003EF4010E0001926FA10E916F010E936FA4
:103128001D0E956F6A0E946F000E966B98EC38F032
:103138000101C76FC729B6E0C751FE0A01E1AED544
:10314800C7BF86D5C76702D0E1EF18F0D3EC36F0D9
:103158000101C76FC729DDE0C751FE0A01E19ED50D
:10316800C7BF76D5010E0401386F040E0001736FD6
:10317800380E726F0101C7510EEC40F0CAD71C0E11
:103188000101806FA70E7F6F010E826FBE0E816FE7
:10319800836B846B856B866B876B88697F0E896F01
:1031A800470E8A6F0E0E8B6F0E0C336F346B356BB8
:1031B800B40E366F420E376F420C0101906B050E4C
:1031C800F46F8F6B926B010E916FE8EC39F01B0E68
:1031D800776F880E766FFEEC3EF039C475F03AC40E
:1031E80076F0B9EC3FF0D5EC27F0E5EC2AF011D0F9
:1031F800D9EC1BF06FEC40F00101946F9451030A75
:1032080003E1FE0E906F7ED294AF03D094C190F18B
:1032180079D200015BBEECD7E8EC39F01B0E776F72
:10322800AA0E766FFEEC3EF087C471F088C472F087
:1032380022EC40F00BD0D9EC1BF06FEC40F0010110
:10324800946F9451030ADDE094BFE0D700015CB8A5
:10325800F2D701018F5103E03BC493F1A3D1936BE3
:10326800A1D19351020D3F0EF324D96EDA6A040EF0
:10327800DA220001DECF75F0DDCF76F053EC3EF0B8
:1032880075C08BF176C08CF177C08DF178C08EF166
:1032980001019351020D630EF324D96EDA6A040E0C
:1032A800DA220001DECF75F0DDCF76F0B9EC3FF021
:1032B80075C07FF176C080F177C081F178C082F166
:1032C8008BC1B7F08CC1B8F08DC1B9F08EC1BAF01E
:1032D8007FC1BBF080C1BCF081C1BDF082C1BEF02E
:1032E8003CEC2CF0B7C087F1B8C088F1B9C089F1BF
:1032F800BAC08AF101018F5101E1B3D0E8EC39F08D
:103308001A0E776F9A0E766FFEEC3EF040DAFCEC00
:1033180027F0756B010E16EC3BF004013E513D1190
:1033280008E11B0E0001776F660E766FFEEC3EF02B
:1033380013D01D0E0001776F730E766FFEEC3EF012
:1033480006DAFCEC27F01D0E776FA80E766FFEEC00
:103358003EF0F2D9FCEC27F08BC16BF08CC16CF01D
:103368008DC16DF08EC16EF04AEC40F06BC083F1F8
:103378006CC084F16DC085F16EC086F183C130F1F7
:1033880084C131F185C132F186C133F187C134F18D
:1033980088C135F189C136F18AC137F1E4EC3EF0D4
:1033A8000CD0D9EC1BF06FEC40F00101946F9451F4
:1033B800030A01E126D794BF29D700015BBEF1D7E4
:1033C800E8EC39F01B0E776F0C0E766FFEEC3EF0D2
:1033D800DED9FCEC27F0756B010E16EC3BF004010E
:1033E8003E513D1108E11B0E0001776F660E766FA6
:1033F800FEEC3EF013D01D0E0001776F730E766F52
:10340800FEEC3EF0A4D9FCEC27F01D0E776FA80E59
:10341800766FFEEC3EF090D9FCEC27F00101935159
:10342800020D870EF324D96EDA6A040EDA2200013F
:10343800DECF71F0DDCF72F022EC40F00CD0D9EC89
:103448001BF06FEC40F00101946F9451030A01E105
:10345800D8D694BFDBD600015CB8F1D70101930739
:10346800A1D0E8EC39F01A0E776F9A0E766FFEEC61
:103478003EF078D9FCEC27F0756B010E16EC3BF0AA
:1034880004013E513D1108E11B0E0001776F660EE5
:10349800766FFEEC3EF013D01D0E0001776F730EB1
:1034A800766FFEEC3EF053D9FCEC27F01D0E776FDB
:1034B800A80E766FFEEC3EF03FD9FCEC27F08BC1EE
:1034C80030F18CC131F18DC132F18EC133F187C138
:1034D80034F188C135F189C136F18AC137F1E4EC9C
:1034E8003EF00CD0D9EC1BF06FEC40F00101946F6A
:1034F8009451030A01E185D694BF88D600015BBECA
:10350800F1D7E8EC39F01B0E776F0C0E766FFEECF6
:103518003EF028D9FCEC27F0756B010E16EC3BF059
:1035280004013E513D1108E11B0E0001776F660E44
:10353800766FFEEC3EF013D01D0E0001776F730E10
:10354800766FFEEC3EF003D9FCEC27F01D0E776F8A
:10355800A80E766FFEEC3EF0EFD8FCEC27F00101E8
:10356800D89093350001E06F890EE025D96EDA6AAC
:10357800040EDA22DECF71F0DDCF72F022EC40F0DB
:103588000CD0D9EC1BF06FEC40F00101946F945112
:10359800030A01E136D694BF39D600015CB8F1D7E9
:1035A8000101932B93BF0BD004013B51D880D884E1
:1035B800010193AF935DD8A0D88401E152D60401EC
:1035C8003C5107E001018F51010ED8A4000E8F6F06
:1035D80088D001018F6BE8EC39F01B0E776F1E0E57
:1035E800766FFEEC3EF0756B010E16EC3BF00401B5
:1035F8003E513D1108E11B0E0001776F660E766F94
:10360800FEEC3EF013D01D0E0001776F730E766F3F
:10361800FEEC3EF09CD8FCEC27F01D0E776FA80E50
:10362800766FFEEC3EF088D8FCEC27F039C475F0D4
:103638003AC476F0B9EC3FF0D5EC27F0E5EC2AF087
:103648000CD0D9EC1BF06FEC40F00101946F945151
:10365800030A01E1D6D594BFD9D500015BBEF1D7E5
:10366800E8EC39F01A0E776F4A0E766FFEEC3EF0F2
:10367800756B010E16EC3BF004013E513D1108E15B
:103688001B0E0001776F660E766FFEEC3EF013D0CE
:103698001D0E0001776F730E766FFEEC3EF057D863
:1036A800FCEC27F01D0E776FA80E766FFEEC3EF04F
:1036B80043D8FCEC27F087C471F088C472F022EC80
:1036C80040F00CD0D9EC1BF06FEC40F00101946F86
:1036D8009451030A01E195D594BF98D500015CB8CF
:1036E800F1D704013E513D1101E1B3D50101914BE0
:1036F800922B915104013D5D0101925104013E5903
:1037080001E3A7D55B9E00015A8AE8EC39F01C0E4C
:10371800776FB40E766FFEEC3EF0D9EC1BF05B9E33
:103728005A8A010E0001916FF40E906F8DEC40F0F3
:103738005A9A0101905112003DC479F000013EC42B
:103748007AF07B6B7C6B030E7D6F7E6B000C91C1F6
:1037580079F0000192C17AF07B6B7C6B030E7D6F70
:103768007E6B000C93C1E0F00001E16BE0BFE10764
:10377800E02B000EE123E0C079F0E1C07AF07ABFD7
:10378800FF0E7B6F7C6F020E7D6F7E6B000C01015C
:1037980093510001796F000E79BFFF0E7A6F7B6F2E
:1037A8007C6F020E7D6F7E6B000C59A808D001015A
:1037B8007A697A0701017A29D8B41200FAD759BE72
:1037C80008D001017A697A0701017A29D8B4120070
:1037D800FAD70101F26B010E0001EC6F0001599E4E
:1037E800CFEC3DF00101F519D8A41200CFEC3DF063
:1037F8000101796FABD1F36BD3D9240EDF6EF32BB4
:10380800795112EC3EF07A6B140E26DA12EC3EF087
:103818000DDA7A65F9D77A6B000E01012FDA12EC0E
:103828003EF00FDA7A65F8D700015B80E8C175F0E1
:10383800E9C176F0EAC177F0EBC178F0F2EC3CF040
:1038480075C07BF176C07CF177C07DF178C07EF1E0
:103858005B90AED986EC3DF001017E5112EC3EF052
:103868007D5112EC3EF07C5112EC3EF07B5112EC93
:103878003EF0C4D90BDA0BD0ECC175F0EDC176F08F
:10388800EEC177F0EFC178F032EC3FF0EED9ECC141
:1038980075F0EDC176F0EEC177F0EFC178F032EC5B
:1038A8003FF001017E51000178190EE101017D51BF
:1038B8000001771909E101017C510001761904E141
:1038C80001017B5100017519D7E1010E00018A6FD2
:1038D8007B0EA4D986EC3DF06BD986EC3DF0010156
:1038E8007E5112EC3EF07D5112EC3EF07C5112EC10
:1038F8003EF07B5112EC3EF081D900015A8EF0C1A6
:1039080075F0F1C176F0B9EC3FF06DD95FD986EC6E
:103918003DF001017E5112EC3EF07D5112EC3EF07B
:103928007C5112EC3EF07B5112EC3EF067D9F2511B
:1039380012EC3EF035D9230EDF6EF32BF3C17AF18A
:10394800F36B7AC1EDF01200F36B2AD9240EDF6E07
:10395800F32B795112EC3EF07A6B140E7DD912ECF0
:103968003EF064D97A65F9D77A6B000E010186D9E1
:1039780012EC3EF066D97A65F8D7F25112EC3EF0B7
:10398800D9D75C9A010E11D05C9A030E0ED05C9ABE
:10399800020E0BD05C9A040E08D05C9A050E05D076
:1039A80000015C9ACFEC3DF00008586E5C8AC0D0EC
:1039B800F36BF6D8240EDF6EF32B795112EC3EF040
:1039C800F45112EC3EF0B6D7D7EC3BF0F2EC3CF0F9
:1039D80075C07BF176C07CF177C07DF178C07EF14F
:1039E8005B90E6D886EC3DF07BC16DF07CC16EF053
:1039F8007DC16FF07EC170F079C171F028EF3AF0A7
:103A080045D90BD0ECC175F0EDC176F0EEC177F079
:103A1800EFC178F032EC3FF028D9ECC175F0EDC178
:103A280076F0EEC177F0EFC178F032EC3FF00101AB
:103A38007E51000178190EE101017D5100017719CD
:103A480009E101017C510001761904E101017B5172
:103A580000017519D7E1010E00018A6F7B0EDED8CF
:103A680086EC3DF0A5D886EC3DF0BED700015A8E15
:103A7800F0C175F0F1C176F0B9EC3FF0B4D8A6D832
:103A880086EC3DF0B1D7CFEC3DF00101006F040E9C
:103A9800006501D02ED0010E0001726F010E716F0A
:103AA8000101005136EC40F00101F36B000EF325E3
:103AB800D96EDA6A050EDA22240EDF6EF32B7951FD
:103AC80012EC3EF07A6BA3D8DF5012EC3EF09FD890
:103AD800DF50F2277A2B770E7A65F5D7F25112EC80
:103AE8003EF028D7CFEC3DF00101006F040E0065D1
:103AF80002D0010E22D07A6BCFEC3DF08F6F01011E
:103B080086D88FC0DFFF83D8DF50F2277A2B770E55
:103B18007A65F2D7CFEC3DF00101F2190DE1010E03
:103B28000001736F010E726F010100510EEC40F03D
:103B38000101795161EF3FF0FA0E00016D6F02D07B
:103B480000016D690101795118EF3FF07951010ABF
:103B5800C9E0030A98E0120A01E1F6D6010A01E178
:103B680010D7030A01E113D7010A01E10DD7070AAB
:103B780001E110D7010A01E110D7030A01E124D7B6
:103B8800010A01E13DD70F0A01E170D7010A01E1FD
:103B980007D7030A01E10CD7010A01E12CD6D0D7D7
:103BA800000E0101F325D96EDA6A050EDA22120039
:103BB800010E00018A6F7B0E896FD4C48BF0D5C4C7
:103BC8008CF0D6C48DF0D7C48EF0120000018A6F35
:103BD8007B0E896FBBC48BF0BCC48CF0BDC48DF068
:103BE800BEC48EF0120075C07BF176C07CF177C040
:103BF8007DF178C07EF15A9E010E12007E51F227A7
:103C08007D51F2277C51F2277B51F2271200010ED9
:103C18007A25D96EDA6A010EDA221200896F8B6B67
:103C28008C6BFA0E8D6F370E8E6F370C140E0101E8
:103C38007A25D96EDA6A040EDA22DF50F2277A2B57
:103C4800130C000E01017A25D96EDA6A040EDA2205
:103C5800DF50F2277A2B130C01017A25D96EDA6A24
:103C68000401040EDA22DF50120075C07BF176C021
:103C78007CF177C07DF178C07EF112007A25D96E8B
:103C8800DA6A0401040EDA22DF5012007B6B7C6BC7
:103C98007D6B7E6B120081C1D9FF82C1DAFF000102
:103CA800DECFE1F0DECFE2F0DECFE3F0DECFE4F00E
:103CB800E1C0B8F0E2C0B9F0E3C0BAF0E4C0BBF0CC
:103CC800000EBD6FDF0EBC6F000EBF6FDE0EBE6F45
:103CD800000EC16FDD0EC06F000EC36FDB0EC26F2A
:103CE800A5EC30F001018BB702D00001DF6B0101B8
:103CF8008BB502D00001DE6B01018BB302D000014D
:103D0800DD6B01018BB103D00001DB6BDC6BDEC026
:103D18008FF0DDC090F0DBC091F0DCC092F00001C4
:103D2800DF5179EC33F08FC0E1F090C0E2F091C040
:103D3800E3F092C0E4F0A3D95CEC3CF001E2B9D91D
:103D48008DD95CEC3CF001E2ABD901018BA75BD0CB
:103D5800E8EC39F07FC176F080C177F0FEEC3EF0F8
:103D68001D0E776FB30E766FFEEC3EF0756B010E8D
:103D780016EC3BF0190E776FE20E766FFEEC3EF014
:103D8800756B010E16EC3BF0E1C0D0F0E2C0D1F04B
:103D9800E3C0D2F0E4C0D3F08BC1D4F0080ED56FE5
:103DA80008EC34F077EC3FF0E06FE0AF20D0E05162
:103DB8001200FF0CFE0C896B8A6B610E8B6F450E2F
:103DC8008C6FE10E17EC3DF049D95CEC3CF0D8E281
:103DD80067D9D6D777D9610EA46F450EA56F61EC68
:103DE8003DF04DD95CEC3CF0CBE263D9C9D7E0514A
:103DF800010A09E0030ADDE0010ADCE0070ADBE06A
:103E0800010AE8E0BDD701018BA559D0E8EC39F0EB
:103E18007FC176F080C177F0FEEC3EF01D0E776F23
:103E2800B70E766FFEEC3EF0756B010E16EC3BF0AC
:103E3800190E776FE20E766FFEEC3EF0756B010E91
:103E480016EC3BF0E1C0D0F0E2C0D1F0E3C0D2F014
:103E5800E4C0D3F08BC1D4F0040ED56F08EC34F075
:103E680077EC3FF0E06FE0BFA2D71CD0896B8A6B7C
:103E7800700E8B6F420E8C6FE10E17EC3DF0EED892
:103E88005CEC3CF0DBE20CD9D9D71CD9700EA46FDE
:103E9800420EA56F61EC3DF0F2D85CEC3CF0CEE24E
:103EA80008D9CCD7E051010A0AE0030A01E14DD74D
:103EB800010A80E0070ADAE0010AE7E0BFD701015A
:103EC8008BA35AD0E8EC39F07FC176F080C177F047
:103ED800FEEC3EF01D0E776FBB0E766FFEEC3EF0EB
:103EE800756B010E16EC3BF0190E776FE20E766FCC
:103EF800FEEC3EF0756B010E16EC3BF0E1C0D0F025
:103F0800E2C0D1F0E3C0D2F0E4C0D3F08BC1D4F06A
:103F1800020ED56F08EC34F077EC3FF0E06FE0BFAD
:103F280046D71CD0896B8A6B800E8B6F3F0E8C6FC7
:103F3800E10E17EC3DF092D85CEC3CF0DBE2B0D837
:103F4800D9D7C0D8800EA46F3F0EA56F61EC3DF0A5
:103F580096D85CEC3CF0CEE2ACD8CCD7E051010A64
:103F68000BE0030A01E14FD7010A01E123D7070A51
:103F7800D9E0010AE6E0BED701018BA161D0E8ECE7
:103F880039F07FC176F080C177F0FEEC3EF01D0E6F
:103F9800776FAE0E766FFEEC3EF0756B010E16EC89
:103FA8003BF0190E776FE20E766FFEEC3EF0756B04
:103FB800010E16EC3BF0E1C0D0F0E2C0D1F0E3C056
:103FC800D2F0E4C0D3F08BC1D4F0010ED56F08EC69
:103FD80034F077EC3FF0E06FE0BFE9D623D0CD0EA8
:103FE800896FCC0E8A6F8B6F3D0E8C6FE10E17ECCC
:103FF8003DF034D85CEC3CF0DAE252D8D8D7000E69
:10400800A16FE10EA06FCD0EA26FCC0EA36FA46FAF
:104018003D0EA56F61EC3DF032D85CEC3CF0C7E298
:1040280048D8C5D7E051010A0BE0030A01E147D798
:10403800010A01E1BFD6070AD2E0010AE0E0B7D7DA
:1040480081C1D9FF82C1DAFF0001E1C0DEFFE2C011
:10405800DEFFE3C0DEFFE4C0DEFF000C87C189F0AD
:1040680088C18AF089C18BF08AC18CF0E1C08DF0DB
:10407800E2C08EF0E3C08FF0E4C090F01200E1C01F
:1040880089F0E2C08AF0E3C08BF0E4C08CF083C111
:104098008DF084C18EF085C18FF086C190F012003A
:1040A80087C1E1F088C1E2F089C1E3F08AC1E4F098
:1040B800120083C1E1F084C1E2F085C1E3F086C15A
:1040C800E4F01200000EA16FE10EA06FA26BA36BCB
:1040D800120000015BBEFF0C0001BFAF13D0BCC0D3
:1040E8006BF0BDC06CF0BEC06DF0BFC06EF04AECA6
:1040F80040F06BC01CF16CC01DF16DC01EF16EC0AC
:104108001FF108D0BCC01CF1BDC01DF1BEC01EF11E
:10411800BFC01FF1C3AF13D0C0C06BF0C1C06CF0FB
:10412800C2C06DF0C3C06EF04AEC40F06BC024F121
:104138006CC025F16DC026F16EC027F108D0C0C053
:1041480024F1C1C025F1C2C026F1C3C027F1B8C00F
:104158007EF0B9C07FF0BAC080F0BBC081F0D0C497
:104168007AF0D1C47BF0D2C47CF0D3C47DF06CEC7F
:1041780036F07AC0AEF07BC0AFF07CC0B0F07DC046
:10418800B1F049EC38F0AEC014F1AFC015F1B0C0D1
:1041980016F1B1C017F101011751141115111611BB
:1041A80001E1000C5B80E8C110F1E9C111F1EAC13D
:1041B80012F1EBC113F15B900101145110250301B9
:1041C800D06F0101155111210301D16F0101165161
:1041D80012210301D26F0101175113210301D36F7B
:1041E80010C143F011C144F012C145F013C146F0AB
:1041F8000001BBAF15D0B8C06BF0B9C06CF0BAC045
:104208006DF0BBC06EF04AEC40F06BC028F16CC09A
:1042180029F16DC02AF16EC02BF100015C800AD033
:10422800B8C028F1B9C029F1BAC02AF1BBC02BF136
:1042380000015C901CC189F01DC18AF01EC18BF081
:104248001FC18CF024C18DF025C18EF026C18FF0DE
:1042580027C190F0EEEC37F089C018F18AC019F147
:104268008BC01AF18CC01BF118C17EF019C17FF008
:104278001AC180F01BC181F024C17AF025C17BF0FE
:1042880026C17CF027C17DF06CEC36F07AC02CF1A9
:104298007BC02DF17CC02EF17DC02FF118C17EF0BE
:1042A80019C17FF01AC180F01BC181F02CC17AF0CE
:1042B8002DC17BF02EC17CF02FC17DF06CEC36F067
:1042C8007AC00CF17BC00DF17CC00EF17DC00FF1FE
:1042D8000CC17AF00DC17BF00EC17CF00FC17DF0EE
:1042E8007E6B7F6B806B3F0E816F6CEC36F07AC013
:1042F80020F17BC021F17CC022F17DC023F128C1CF
:1043080089F029C18AF02AC18BF02BC18CF07E6B11
:104318007F6B806B400E816F20C17AF021C17BF0EA
:1043280022C17CF023C17DF06CEC36F07AC08DF0B0
:104338007BC08EF07CC08FF07DC090F05CEC3CF0D0
:1043480017E228C189F029C18AF02AC18BF02BC154
:104358008CF08D6B8E6B8F6B400E906FEEEC37F0A0
:1043680089C020F18AC021F18BC022F18CC023F1D1
:1043780020C19CF021C19DF022C19EF023C19FF075
:1043880028C198F029C199F02AC19AF02BC19BF055
:10439800ADEC3EF098C07AF099C07BF09AC07CF002
:1043A8009BC07DF0D0C47EF0D1C47FF0D2C480F031
:1043B800D3C481F06CEC36F07AC000F17BC001F117
:1043C8007CC002F17DC003F100C1AEF001C1AFF0C5
:1043D80002C1B0F003C1B1F049EC38F0AEC0CCF383
:1043E800AFC0CDF3B0C0CEF3B1C0CFF324C17EF0DF
:1043F80025C17FF026C180F027C181F0D0C47AF0B2
:10440800D1C47BF0D2C47CF0D3C47DF06CEC36F020
:1044180060D8BD0E7E6F370E7F6F860E806F420E9E
:10442800816F6CEC36F07AC004F17BC005F17CC07A
:1044380006F17DC007F104C1AEF005C1AFF006C1B9
:10444800B0F007C1B1F049EC38F0AEC03BF0AFC0F6
:104458003CF0B0C03DF0B1C03EF01CC17EF01DC1C3
:104468007FF01EC180F01FC181F0D0C47AF0D1C4A2
:104478007BF0D2C47CF0D3C47DF06CEC36F029D844
:104488006F0E7E6F120E7F6F030E806F470E816F67
:104498006CEC36F07AC008F17BC009F17CC00AF1F7
:1044A8007DC00BF108C1AEF009C1AFF00AC1B0F090
:1044B8000BC1B1F049EC38F0AEC03FF0AFC040F0EE
:1044C800B0C041F0B1C042F020EC24F000015B8E96
:1044D800000C7AC02CF17BC02DF17CC02EF17DC080
:1044E8002FF12CC17AF02DC17BF02EC17CF02FC1A9
:1044F8007DF01200060E0101F46F0001CD6BCE6B4A
:10450800CF6BD06BD9D9620E7E6FBE0E7F6F3C0E1B
:10451800806F460E816FD0C47AF0D1C47BF0D2C4CC
:104528007CF0D3C47DF06CEC36F07AC0AEF07BC082
:10453800AFF07CC0B0F07DC0B1F049EC38F0AEC04F
:104548003BF0AFC03CF0B0C03DF0B1C03EF074D914
:104558005A9A5B9E5C8400015C846FEC40F0E8EC46
:1045680039F01C0E776F270E766FFEEC3EF0756BF8
:10457800010E16EC3BF01A0E776FD30E766FFEEC39
:104588003EF06FEC40F0CC6FCC51030A03E1FE0E15
:10459800C76F31D1CC51020A02E1C7692CD1CC05D1
:1045A80004E1CD6BCE6BCF6BD06BCC51040A31E1FB
:1045B80098D964EC39F04AEC3FF075C07AF076C0CF
:1045C8007BF077C07CF078C07DF06CEC36F07AC078
:1045D80089F07BC08AF07CC08BF07DC08CF0CD0E5A
:1045E80017EC3DF0896B8A6BB40E8B6F420E8C6FA3
:1045F800CDC08DF0CEC08EF0CFC08FF0D0C090F07F
:104608005CEC3CF006E2CD6BCE6BB40ECF6F420E85
:10461800D06FCC51050A34E1000EA16FCD0EA06F0A
:1046280060D964EC39F04AEC3FF075C07AF076C096
:104638007BF077C07CF078C07DF06CEC36F07AC007
:10464800A2F07BC0A3F07CC0A4F07DC0A5F061EC13
:104658003DF0CDC089F0CEC08AF0CFC08BF0D0C07D
:104668008CF08D6B8E6BB40E8F6FC20E906F5CECFE
:104678003CF006E2CD6BCE6BB40ECF6FC20ED06F9E
:10468800CCAF03D0CCC0C7F0B6D0060E756F010E04
:1046980016EC3BF0CDC0B8F0CEC0B9F0CFC0BAF040
:1046A800D0C0BBF0020EBC6FBD6F010EBE6FA0EC98
:1046B8002EF05CA052D00001D0AF31D0D0C47EF033
:1046C800D1C47FF0D2C480F0D3C481F0CDC06BF0E8
:1046D800CEC06CF0CFC06DF0D0C06EF04AEC40F0A8
:1046E8006BC07AF06CC07BF06DC07CF06EC07DF062
:1046F8006CEC36F0B4D86CEC36F07AC0AEF07BC017
:10470800AFF07CC0B0F07DC0B1F049EC38F0DFD834
:1047180002D0D9EC1BF000015AA26AD0FAD7000ED9
:10472800BED85CEC3CF010E2010EB2D802D0D9EC55
:104738001BF000015AB2FBD700015AB059D05C9463
:104748005C947AD85C9047D0010EA2D802D0D9ECFC
:104758001BF000015AA24CD0FAD7000E00019FD8D6
:104768005CEC3CF027E2CDC07EF0CEC07FF0CFC03D
:1047780080F0D0C081F0D0C47AF0D1C47BF0D2C42C
:104788007CF0D3C47DF06CEC36F069D86CEC36F074
:104798007AC0AEF07BC0AFF07CC0B0F07DC0B1F0A5
:1047A80049EC38F094D802D0D9EC1BF000015AA299
:1047B8001FD0FAD7D0AF14D0010E6AD802D0D9ECE6
:1047C8001BF000015AB2FBD700015AB011D05C941B
:1047D8005C9432D85C8070D85C8400015C8408D01A
:1047E800010E56D802D0D9EC1BF000015AB2FBD703
:1047F800D9EC1BF0C6D6E8EC39F01C0E776FB40E76
:10480800766FFEEC3EF0010E0301D46F000ED56FFB
:10481800D66FD76F5A8202D0D9EC1BF000015AB27A
:10482800FBD700015AB005D05C945C940001C751D5
:104838001200D9EC1BF0E7D7476A486A496A4A6A06
:104848000101EC6BED6BEE6BEF6B0201C86BC96B92
:10485800CA6BCB6BCC6BCD6BCE6BCF6B12007AC0B7
:10486800C8F07BC0C9F07CC0CAF07DC0CBF06F0E29
:104878007E6F120E7F6F030E806F470E816FC8C068
:104888007AF0C9C07BF0CAC07CF0CBC07DF0470C81
:104898000301D46FD56BD66BD76B5A82000C896B2A
:1048A8008A6B8B6B8C6BCDC08DF0CEC08EF0CFC079
:1048B8008FF0D0C090F012005B80E8C143F0E9C1EE
:1048C80044F0EAC145F0EBC146F05B901200AEC07F
:1048D800D4F3AFC0D5F3B0C0D6F3B1C0D7F35A8282
:1048E8001200CD0E7E6FCC0E7F6F4C0E806F3D0E8A
:1048F800816F3D0C0001756B766B010E7FEC3BF010
:1049080089C189F08AC18AF08BC18BF08CC18CF087
:104918008D6B400E8E6F1C0E8F6F460E906F5CEC89
:104928003CF012E2896B400E8A6F1C0E8B6FC60E2C
:104938008C6F85C18DF086C18EF087C18FF088C1DC
:1049480090F05CEC3CF002E3050E4FD086D97A0E6D
:104958008F6F440E906F5CEC3CF011E2896B8A6BB0
:104968007A0E8B6FC40E8C6F85C18DF086C18EF068
:1049780087C18FF088C190F05CEC3CF002E3040E34
:1049880034D06BD9C80E8F6F420E906F5CEC3CF040
:1049980011E2896B8A6BC80E8B6FC20E8C6F85C152
:1049A8008DF086C18EF087C18FF088C190F05CECE5
:1049B8003CF002E3030E19D050D9200E8F6F410E40
:1049C800906F5CEC3CF010E2896B8A6B200E8B6F69
:1049D800C10E8C6F85C18DF086C18EF087C18FF0B6
:1049E80088C190F05CEC3CF0020EC76F8DC189F075
:1049F8008EC18AF08FC18BF090C18CF08D6B8E6B5D
:104A0800800E8F6F3F0E906F5CEC3CF002E3C86B3A
:104A180053D08DC189F08EC18AF08FC18BF090C1BF
:104A28008CF0CD0E8D6FCC0E8E6F8F6F3D0E906F0C
:104A38005CEC3CF002E3010E3ED08DC189F08EC1E2
:104A48008AF08FC18BF090C18CF00A0E8D6FD70E53
:104A58008E6F230E8F6F3C0E906F5CEC3CF002E380
:104A6800020E29D08DC189F08EC18AF08FC18BF0DA
:104A780090C18CF06F0E8D6F120E8E6F830E8F6F3C
:104A88003A0E906F5CEC3CF002E3030E14D08DC13B
:104A980089F08EC18AF08FC18BF090C18CF0170E0F
:104AA8008D6FB70E8E6FD10E8F6F380E906F5CECD6
:104AB8003CF002E3040EC86F83C1D9FF84C1DAFF5A
:104AC800DECFCAF0DECFCBF0DECFCCF0DECFCDF03C
:104AD800E8EC39F07FC176F080C177F0FEEC3EF06B
:104AE800756B010E16EC3BF0C3D8A0EC2EF081C11B
:104AF80076F082C177F0FEEC3EF0756B010E16EC95
:104B08003BF0B6D8A0EC2EF077EC3FF0C96FC9AFF8
:104B180094D0C951120083C1D9FF84C1DAFFCAC039
:104B2800DEFFCBC0DEFFCCC0DEFFCDC0DEFF756B85
:104B3800766B010E7FEC3BF0000CFE0CFF0C8DC178
:104B48007EF08EC17FF08FC180F090C181F064EC5F
:104B580039F04AEC3FF075C07AF076C07BF077C048
:104B68007CF078C07DF06CEC36F07AC089F07BC0C0
:104B78008AF07CC08BF07DC08CF0CA0E17EC3DF03B
:104B880089C189F08AC18AF08BC18BF08CC18CF005
:104B9800CAC08DF0CBC08EF0CCC08FF0CDC090F0E5
:104BA8005CEC3CF0AAE289C1CAF08AC1CBF08BC1A7
:104BB800CCF08CC1CDF0A1D7000EA16FCA0EA06FAA
:104BC8008DC17EF08EC17FF08FC180F090C181F0E1
:104BD80064EC39F04AEC3FF075C07AF076C07BF0AF
:104BE80077C07CF078C07DF06CEC36F07AC0A2F02B
:104BF8007BC0A3F07CC0A4F07DC0A5F061EC3DF0C3
:104C0800CAC089F0CBC08AF0CCC08BF0CDC08CF084
:104C180085C18DF086C18EF087C18FF088C190F074
:104C28005CEC3CF001E369D785C1CAF086C1CBF0E2
:104C380087C1CCF088C1CDF060D7C951010A01E124
:104C48006AD7030A01E17AD7010A01E176D7070A90
:104C580001E175D7010AB0E050D789C189F08AC14E
:104C68008AF08BC18BF08CC18CF08D6B8E6B12002F
:104C7800CAC0B8F0CBC0B9F0CCC0BAF0CDC0BBF058
:104C8800C7C0BCF0C8C0BDF0010EBE6F010C010169
:104C98008B6B030EF46FE8EC39F01B0E776F880E00
:104CA800766FFEEC3EF0D9C375F0DAC376F0B9EC56
:104CB8003FF077D9E5EC2AF011D0D9EC1BF06FEC76
:104CC80040F00101986F9851030A03E1FE0E8B6FC3
:104CD8004ED198AF03D098C18BF149D100015BBE8A
:104CE800ECD7E1C37AF0E2C37BF0E3C37CF0E4C322
:104CF8007DF000017E6B7F6BB40E806F430E816F79
:104D08006CEC36F07AC08CF17BC08DF17CC08EF1F2
:104D18007DC08FF10301DB51020A08E101018C6BB0
:104D28004E0E8D6FED0E8E6F4A0E8F6F0301DC678E
:104D380012D08CC16BF08DC16CF08EC16DF08FC13B
:104D48006EF04AEC40F06BC08CF16CC08DF16DC018
:104D58008EF16EC08FF1D7EC3BF0F2EC3CF031D91C
:104D680086EC3DF090C175F091C176F092C177F074
:104D780093C178F08CC179F08DC17AF08EC17BF047
:104D88008FC17CF030EC32F075C07FF176C080F1D5
:104D980077C081F178C082F1E8EC39F01A0E776FAC
:104DA8000C0E766FFEEC3EF00301DB51020A12E1B5
:104DB800E8EC39F01C0E776F090E766FFEEC3EF0CA
:104DC800756B010E16EC3BF01B0E776F540E766F69
:104DD800FEEC3EF00001896B8A6B800E8B6F3F0EF4
:104DE8008C6FE9C38DF0EAC38EF0EBC38FF0ECC390
:104DF80090F0EEEC37F089C087F18AC088F18BC05B
:104E080089F18CC08AF16FEC40F08CC130F18DC112
:104E180031F18EC132F18FC133F1E9C334F1EAC304
:104E280035F1EBC336F1ECC337F1E4EC3EF09DD03D
:104E3800D7EC3BF0F2EC3CF0C4D886EC3DF07FC1F7
:104E480098F080C199F081C19AF082C19BF090C11D
:104E58009CF091C19DF092C19EF093C19FF0ADEC82
:104E68003EF098C094F199C095F19AC096F19BC014
:104E780097F1010197AF12D094C16BF095C16CF016
:104E880096C16DF097C16EF04AEC40F06BC094F19A
:104E98006CC095F16DC096F16EC097F194C17AF02F
:104EA80095C17BF096C17CF097C17DF087C17EF0FB
:104EB80088C17FF089C180F08AC181F06CEC36F03E
:104EC8007AC083F17BC084F17CC085F17DC086F116
:104ED800010E00018A6F940E896F1B0E8B6F0F0EE7
:104EE8008C6F360E8D6F3B0E8E6F86EC3DF0030196
:104EF800DB51020A2EE00B0E0001756F000E16EC56
:104F08003BF083C1D0F084C1D1F085C1D2F086C115
:104F1800D3F00E0ED46F000ED56B08EC34F0756B21
:104F2800010E16EC3BF094C1B8F095C1B9F096C1EA
:104F3800BAF097C1BBF0050EBC6F020EBD6F000E34
:104F4800BE6BA0EC2EF01C0E776FDB0E766FFEECBE
:104F58003EF06FEC40F00101986F9851030A01E1AF
:104F6800B5D698BFB8D6D9EC1BF05BBE61D75B9EAF
:104F780000015A8AE8EC39F01C0E776FB40E766F90
:104F8800FEEC3EF0D9EC1BF05B9E5A8A010E000144
:104F9800916FF40E906F8DEC40F05A9A01018B518D
:104FA800120075C038F176C039F177C03AF178C08F
:104FB8003BF101013C6B3D6BB40E3E6F420E3F6FFF
:104FC800420C75C090F176C091F177C092F178C02B
:104FD80093F15B90010E00018A6F900E896FD4C423
:104FE8008BF0D5C48CF0D6C48DF0D7C48EF01200E7
:104FF8007CAF0DD02D0EA6EC39F0796D7A1FD8B0A4
:105008007A2B7B1FD8B07B2B000E7C5705D07E51A6
:1050180003E02B0EA6EC39F079C06BF07AC06CF087
:105028007BC06DF07CC06EF06F6BCA0E706F9A0E0D
:10503800716F3B0E726F32EC37F033D96F6BCA0E5B
:10504800706F9A0E716F3B0E726F10EC3CF03AD98C
:10505800090E7D6503D07F51A6EC39F079C06BF05D
:105068007AC06CF07BC06DF07CC06EF06F6BE10EA7
:10507800706FF50E716F050E726F32EC37F011D943
:105088006F6BE10E706FF50E716F050E726F10EC9D
:105098003CF018D9080E7D6503D07F51A6EC39F095
:1050A80079C06BF07AC06CF07BC06DF07CC06EF09C
:1050B800800E6F6F960E706F980E716F000E726B88
:1050C80032EC37F0EED8800E6F6F960E706F980E38
:1050D800716F000E726B10EC3CF0F4D8070E7D6512
:1050E80003D07F51A6EC39F079C06BF07AC06CF030
:1050F8007BC06DF07CC06EF0400E6F6F420E706F1B
:105108000F0E716F000E726B32EC37F0CAD8400E7A
:105118006F6F420E706F0F0E716F000E726B10EC96
:105128003CF0D0D8060E7D6503D07F51A6EC39F04F
:1051380079C06BF07AC06CF07BC06DF07CC06EF00B
:10514800A00E6F6F860E706F010E716F000E726B7E
:1051580032EC37F0A6D8A00E6F6F860E706F010E76
:10516800716F000E726B10EC3CF0ACD8050E7D65CB
:1051780003D07F51A6EC39F079C06BF07AC06CF09F
:105188007BC06DF07CC06EF0100E6F6F270E706FD5
:10519800000E716B726B32EC37F083D8100E6F6FA4
:1051A800270E706F000E716B726B10EC3CF08AD892
:1051B800040E7D6503D07F51A6EC39F079C06BF001
:1051C8007AC06CF07BC06DF07CC06EF0E80E6F6F3B
:1051D800030E706F000E716B726B32EC37F061D892
:1051E800E80E6F6F030E706F000E716B726B10EC30
:1051F8003CF068D8030E7D6503D07F51A6EC39F0EA
:1052080079C06BF07AC06CF07BC06DF07CC06EF03A
:10521800640E6F6F000E706B716B726B32EC37F04F
:1052280040D8640E6F6F000E706B716B726B10EC70
:105238003CF048D8020E7D6503D07F51A6EC39F0CA
:1052480079C06BF07AC06CF07BC06DF07CC06EF0FA
:105258000A0E6F6F000E706B716B726B32EC37F069
:1052680020D80A0E6F6F000E706B716B726B10ECAA
:105278003CF028D8010E7D6503D07F51A6EC39F0AB
:1052880079C07FF07AC080F07BC081F07CC082F06A
:10529800300E7F27000E8023812382237F51A6EFC3
:1052A80039F06BC07FF06CC080F06DC081F06EC0CB
:1052B80082F07FC06BF080C06CF081C06DF082C05E
:1052C8006EF012006B51795F6C517A5B6D517B5BAC
:1052D8006E517C5B300E7F27000E80238123822352
:1052E800000C0001BAAF13D0B7C06BF0B8C06CF0B7
:1052F800B9C06DF0BAC06EF04AEC40F06BC0DBF09C
:105308006CC0DCF06DC0DDF06EC0DEF008D0B7C058
:10531800DBF0B8C0DCF0B9C0DDF0BAC0DEF0DBC04D
:105328007AF0DCC07BF0DDC07CF0DEC07DF07E6B07
:105338007F6B806B3F0E816F6CEC36F07AC0BBF0F0
:105348007BC0BCF07CC0BDF07DC0BEF0C6C489F097
:10535800C7C48AF0C8C48BF0C9C48CF0C2C48DF02D
:10536800C3C48EF0C4C48FF0C5C490F0EEEC37F01F
:1053780089C0DFF08AC0E0F08BC0E1F08CC0E2F0B9
:105388000FD96CEC36F0DDD86CEC36F0F3D86CEC59
:1053980036F07AC0CBF07BC0CCF07CC0CDF07DC0BD
:1053A800CEF0BBC089F0BCC08AF0BDC08BF0BEC0D7
:1053B8008CF0CBC08DF0CCC08EF0CDC08FF0CEC0BD
:1053C80090F05CEC3CF035E2DBC089F0DCC08AF0A0
:1053D800DDC08BF0DEC08CF0C2C48DF0C3C48EF08B
:1053E800C4C48FF0C5C490F0EEEC37F089C0A6F0C5
:1053F8008AC0A7F08BC0A8F08CC0A9F0DEEC32F010
:10540800A6C0DFF0A7C0E0F0A8C0E1F0A9C0E2F0B4
:10541800C7D86CEC36F095D86CEC36F0ABD86CECA1
:1054280036F07AC0CBF07BC0CCF07CC0CDF07DC02C
:10543800CEF0C2C47AF0C3C47BF0C4C47CF0C5C447
:105448007DF0DFC07EF0E0C07FF0E1C080F0E2C018
:1054580081F06CEC36F07AC0BFF07BC0C0F07CC045
:10546800C1F07DC0C2F0DBC098F0DCC099F0DDC0AF
:105478009AF0DEC09BF07E6B7F6B806B400E816F75
:10548800CBC07AF0CCC07BF0CDC07CF0CEC07DF034
:105498006CEC36F07AC09CF07BC09DF07CC09EF02E
:1054A8007DC09FF0ADEC3EF098C0C3F099C0C4F049
:1054B8009AC0C5F09BC0C6F0C3C089F0C4C08AF0CA
:1054C800C5C08BF0C6C08CF0BFC08DF0C0C08EF0D8
:1054D800C1C08FF0C2C090F0EEEC37F089C0C7F0C1
:1054E8008AC0C8F08BC0C9F08CC0CAF0DFC07AF09F
:1054F800E0C07BF0E1C07CF0E2C07DF07E6B7F6BAA
:10550800806B400E816F6CEC36F07AC0D7F07BC0B0
:10551800D8F07CC0D9F07DC0DAF0C7C089F0C8C027
:105528008AF0C9C08BF0CAC08CF0D70E17EC3DF0DA
:10553800D7C0B7F0D8C0B8F0D9C0B9F0DAC0BAF05F
:1055480012007AC0CFF07BC0D0F07CC0D1F07DC013
:10555800D2F0DFC07EF0E0C07FF0E1C080F0E2C0B2
:1055680081F0CFC07AF0D0C07BF0D1C07CF0D2C03F
:105578007DF012007AC0D3F07BC0D4F07CC0D5F0A7
:105588007DC0D6F0D3C07AF0D4C07BF0D5C07CF013
:10559800D6C07DF07E6B7F6B806B3F0E816F3F0CBA
:1055A800DFC07EF0E0C07FF0E1C080F0E2C081F0B3
:1055B800C2C47AF0C3C47BF0C4C47CF0C5C47DF017
:1055C80012003FAF13D03CC16BF03DC16CF03EC13F
:1055D8006DF03FC16EF04AEC40F06BC0C8F06CC093
:1055E800C9F06DC0CAF06EC0CBF008D03CC1C8F09D
:1055F8003DC1C9F03EC1CAF03FC1CBF001013BAF8C
:1056080022D038C1DCF039C1DDF03AC1DEF03BC14F
:10561800DFF003D01ED917EC3DF0DCC089F0DDC007
:105628008AF0DEC08BF0DFC08CF000018D6B8E6BD2
:10563800B40E8F6FC30E906F5CEC3CF0EBE309D9AE
:1056480017EC3DF027D038C1DCF039C1DDF03AC1A4
:10565800DEF03BC1DFF00CD0000EA16FDC0EA06FB6
:10566800A26BA36BB40EA46F430EA56F61EC3DF063
:105678000001896B8A6BB40E8B6F430E8C6FDCC094
:105688008DF0DDC08EF0DEC08FF0DFC090F05CECF6
:105698003CF0E2E316EC35F0A6C0D8F0A7C0D9F08C
:1056A800A8C0DAF0A9C0DBF0D8C089F0D9C08AF068
:1056B800DAC08BF0DBC08CF0DCC08DF0DDC08EF082
:1056C800DEC08FF0DFC090F05CEC3CF039E2DCC06B
:1056D80098F0DDC099F0DEC09AF0DFC09BF0D8C02A
:1056E8009CF0D9C09DF0DAC09EF0DBC09FF0ADEC15
:1056F8003EF098C0CCF099C0CDF09AC0CEF09BC0D7
:10570800CFF0DCC09CF0DDC09DF0DEC09EF0DFC0B5
:105718009FF0A7D8ADEC3EF08BD8D8C079F0D9C0AF
:105728007AF0DAC07BF0DBC07CF030EC32F075C088
:10573800D0F076C0D1F077C0D2F078C0D3F038D0AE
:10574800D8C09CF0D9C09DF0DAC09EF0DBC09FF0B5
:1057580088D8ADEC3EF06CD8DCC079F0DDC07AF0CA
:10576800DEC07BF0DFC07CF030EC32F075C0CCF0EE
:1057780076C0CDF077C0CEF078C0CFF0D8C098F022
:10578800D9C099F0DAC09AF0DBC09BF0DCC09CF07D
:10579800DDC09DF0DEC09EF0DFC09FF0ADEC3EF0B6
:1057A80098C0D0F099C0D1F09AC0D2F09BC0D3F085
:1057B800CCC089F0CDC08AF0CEC08BF0CFC08CF0C1
:1057C800D0C08DF0D1C08EF0D2C08FF0D3C090F091
:1057D8005CEC3CF009E2CCC030F1CDC031F1CEC078
:1057E80032F1CFC033F11AD0D0C06BF0D1C06CF019
:1057F800D2C06DF0D3C06EF04AEC40F06BC0C4F07C
:105808006CC0C5F06DC0C6F06EC0C7F0C4C030F142
:10581800C5C031F1C6C032F1C7C033F1C8C034F1D8
:10582800C9C035F1CAC036F1CBC037F1E4EF3EF05C
:1058380098C0D4F099C0D5F09AC0D6F09BC0D7F0E4
:10584800D4C075F0D5C076F0D6C077F0D7C078F060
:105858001200896B8A6BB40E8B6F430E8C6FDC0E53
:105868001200986B996BB40E9A6F430E9B6F430CA2
:10587800BAAF08D0B7C07AF023D9BF0E816F6CECED
:1058880036F007D0B7C07AF01BD93F0E816F6CECA9
:1058980036F07AC0CFF07BC0D0F07CC0D1F07DC0AC
:1058A800D2F0BEAF08D0BBC07AF000D9BF0E816F6E
:1058B8006CEC36F007D0BBC07AF0F8D83F0E816F99
:1058C8006CEC36F07AC0D3F07BC0D4F07CC0D5F055
:1058D8007DC0D6F0896B8A6B800E8B6F450E8C6FFE
:1058E800D3C08DF0D4C08EF0D5C08FF0D6C090F064
:1058F8005CEC3CF01BE2CFC089F0D0C08AF0D1C08C
:105908008BF0D2C08CF0D3C08DF0D4C08EF0D5C04F
:105918008FF0D6C090F0EEEC37F089C0B7F08AC0AF
:10592800B8F08BC0B9F08CC0BAF01200D3C07EF0CA
:10593800D4C07FF0D5C080F0D6C081F0D3C07AF053
:10594800D4C07BF0D5C07CF0D6C07DF06CEC36F0CE
:105958007AC098F07BC099F07CC09AF07DC09BF02B
:10596800C2C48DF0C3C48EF0C4C48FF0C5C490F017
:105978007E6B7F6B806B400E816FCFC07AF0D0C09A
:105988007BF0D1C07CF0D2C07DF06CEC36F07AC0F0
:1059980089F07BC08AF07CC08BF07DC08CF0EEEC87
:1059A80037F089C09CF08AC09DF08BC09EF08CC0F7
:1059B8009FF0ADEC3EF098C0C7F099C0C8F09AC00F
:1059C800C9F09BC0CAF0CAAF08D0000EB76FB86F55
:1059D800800EB96FBF0EBA6FBF0CC7C0A6F0C8C0A3
:1059E800A7F0C9C0A8F0CAC0A9F0DEEC32F0A6C082
:1059F800C3F0A7C0C4F0A8C0C5F0A9C0C6F0D3C002
:105A080098F0D4C099F0D5C09AF0D6C09BF0C3C026
:105A18009CF0C4C09DF0C5C09EF0C6C09FF0ADEC20
:105A28003EF098C0BFF099C0C0F09AC0C1F09BC0CA
:105A3800C2F0C2C47AF0C3C47BF0C4C47CF0C5C44D
:105A48007DF0BFC07EF0C0C07FF0C1C080F0C2C092
:105A580081F06CEC36F07AC0CBF07BC0CCF07CC027
:105A6800CDF07DC0CEF0C6C489F0C7C48AF0C8C4E2
:105A78008BF0C9C48CF0CBC08DF0CCC08EF0CDC0FB
:105A88008FF0CEC090F05CEC3CF007E2000EB76FF0
:105A9800B86FB96FC00EBA6FC00CCBC0B7F0CCC02E
:105AA800B8F0CDC0B9F0CEC0BAF01200BCC07BF0DF
:105AB800BDC07CF0BEC07DF07E6B7F6B806B12003A
:105AC800B8C07BF0B9C07CF0BAC07DF07E6B7F6B4C
:105AD800806B12000101E56BE46B71EC3EF08B907A
:105AE8008A90476A486A496A4A6A0201C86BC96B60
:105AF800CA6BCB6BCC6BCD6BCE6BCF6B0101E66BFE
:105B0800280E0101E625D96EDA6A040EDA22DF686A
:105B1800E62B0F0EE665F4D7CAEC3EF0DEEC3AF061
:105B280036EC3CF0E8EC39F01B0E776FEA0E766F36
:105B3800FEEC3EF0756B010E16EC3BF01C0E776F19
:105B48008B0E766FFEEC3EF0070E916FD00E906FC5
:105B58008DEC40F01D0E0101C96F3E0EC86F1C0E82
:105B6800CB6F360ECA6F1D0ECD6F4A0ECC6F1C0E52
:105B7800CF6F270ECE6F1B0ED16F990ED06F1C0EF4
:105B8800D36FF50ED26F1A0ED56F860ED46FC8C1BB
:105B9800D6F1C9C1D7F1CAC1D8F1CBC1D9F1CEC1AB
:105BA800DAF1CFC1DBF1CCC1DCF1CDC1DDF1D0C17F
:105BB800DEF1D1C1DFF1D2C1E0F1D3C1E1F1D4C14D
:105BC800E2F1D5C1E3F100015A8AE8EC39F0190E87
:105BD800776FCC0E766FFEEC3EF0756B010E16EC0F
:105BE8003BF01C0E776F180E766FFEEC3EF05DEC06
:105BF80040F05A8602D0D9EC1BF000015AB6FBD708
:105C08000001916B0A0E906F8DEC40F000015A9ADA
:105C1800E8EC39F0010E0101F46F010E0001926FFA
:105C2800D60E916F060E936FE5C194F075EC31F0C6
:105C38000101E76F5ED0E56BE0EC0EF0E76FE7512E
:105C4800FE0AD8B47EEC22F00101E729D8B47EEC34
:105C580022F00101E751800A820F4BE3DBD7010EE6
:105C6800E56FD1EC15F00101E76FE751800A820F6B
:105C780040E3E7AFCFD77EEC22F038D0030EE56FD4
:105C8800D3EC36F00101E76FE729C4E0E751FE0ADB
:105C9800C1E0E751800A820F2CE3E7C1E4F1E45147
:105CA80065EC3AF023D0E56B7EEC22F01FD0E56B73
:105CB80021EC39F01BD0E56B91EC34F0ABD7E56BF8
:105CC80090EC12F013D0010E65EC3AF00FD0020EF2
:105CD80065EC3AF00BD0030E65EC3AF007D0040EF1
:105CE80065EC3AF003D0050E65EC3AF00101E76F78
:105CF800B1D7E751A0E0010AB2E0030AD4E0010AF3
:105D0800BDE0070AD4E0010AD6E0030AD8E0C30AD6
:105D1800D2E0030AD4E0010AC6E00F0AA0E0010AB3
:105D28008AE0030AE0E0010ADAE0070AD4E0010A9F
:105D3800CEE0030AC8E06ED7B8C0AEF0B9C0AFF085
:105D4800BAC0B0F0BBC0B1F049EC38F0AEC0BFF09B
:105D5800AFC0C0F0B0C0C1F0B1C0C2F0BE5119E0D0
:105D6800C251BF11C011C11114E1BBAF04D02D0E37
:105D7800A6EC39F003D02B0EA6EC39F0000E796BA7
:105D88007A6B7B6B7C6BBCC07DF07E6BFCEC27F088
:105D98000ED0BFC079F0C0C07AF0C1C07BF0C2C0DD
:105DA8007CF0BCC07DF0BEC07EF0FCEC27F0000E9D
:105DB800A16FB80EA06FBFC075F0C0C076F0C1C0AB
:105DC80077F0C2C078F0F2EC3CF075C0A2F076C073
:105DD800A3F077C0A4F078C0A5F061EC3DF0BBAFAC
:105DE80017D0000E986B996B9A6B9B6BB8C09CF0A0
:105DF800B9C09DF0BAC09EF0BBC09FF0ADEC3EF0BC
:105E080098C0B8F099C0B9F09AC0BAF09BC0BBF07E
:105E1800000E8A6FB80E896F8B6B500E8C6FC30E95
:105E28008D6F470E8E6F86EC3DF0B8C0AEF0B9C0EE
:105E3800AFF0BAC0B0F0BBC0B1F049EC38F0AEC0BA
:105E4800C3F0AFC0C4F0B0C0C5F0B1C0C6F0BD511A
:105E5800D8B412002E0EA6EC39F0BD0514E1C3C06B
:105E68006BF0C4C06CF0C5C06DF0C6C06EF0100E0B
:105E78006F6F270E706F000E716B726B32EC37F01C
:105E880056D8010E50D0BD51020A14E1C3C06BF0C0
:105E9800C4C06CF0C5C06DF0C6C06EF0E80E6F6F80
:105EA800030E706F000E716B726B32EC37F03FD8D7
:105EB800020E39D0BD51030A13E1C3C06BF0C4C050
:105EC8006CF0C5C06DF0C6C06EF0640E6F6F000E4A
:105ED800706B716B726B32EC37F029D8030E23D0DC
:105EE800BD51040A13E1C3C06BF0C4C06CF0C5C057
:105EF8006DF0C6C06EF00A0E6F6F000E706B716B9E
:105F0800726B32EC37F013D8040E0DD0BD51050A70
:105F1800D8A41200C3C079F0C4C07AF0C5C07BF021
:105F2800C6C07CF0050E7D6F7E6BFCEF27F06BC062
:105F3800C3F06CC0C4F06DC0C5F06EC0C6F0C3C07D
:105F480079F0C4C07AF0C5C07BF0C6C07CF01200FE
:105F5800F7CF67F0F8CF68F0F5CF69F0FE0ED76E8F
:105F6800830ED66EF294ACA201D001D015D00001F8
:105F7800ED51D8B401D001D00FD00501000E0101B8
:105F8800F325D96EDA6A0501050EDA22DF50AD6E07
:105F98000101F32B0001ED07AB30E832010B0001E2
:105FA800606FAB30010B60110009D8B401D001D08B
:105FB8000DD0AB9800F0AB88AECF6AF0AECF6AF0E8
:105FC8000001EB6B0001599E0001599C9EAA01D06B
:105FD80001D032D0AECF6AF000016A51400AD8A48D
:105FE80001D001D005D0EB6B0001599E0001598CFE
:105FF80000016A51230AD8A401D001D004D00001BD
:10600800598E0001599C0001EB29D8A401D001D078
:1060180001D0EB6B000159AC01D001D00DD00601C5
:10602800000E0001EB25D96EDA6A0601060EDA22A7
:1060380000016AC0DFFFEB2B0001EF51D8B401D09B
:1060480001D002D0EF0702D0070EEF6F000159AA66
:1060580001D001D009D00401BF510001EF6101D086
:1060680001D002D08A8201D08A920001F007000193
:1060780000015C760001F06701D001D012D0E64B38
:10608800E72BE705910ED8B4E619D8A401D001D0C2
:1060980005D04F0EF06FE66BE76B02D0500EF06F35
:1060A8009E80D890E837D890E8378050030BE813E3
:1060B8000F0EE817BC0EE825F66EF76A190EF722E0
:1060C800F86A000EF8220800F550606F000E60BFF5
:1060D800FF0E616F626F636F60510301EE5F000135
:1060E80061510301EF5B000162510301F05B0001A4
:1060F80063510301F15B00015AA601D001D007D01A
:1061080000015A960301EE6BEF6BF06BF16B000127
:106118005BB001D001D008D0EEC3E8F1EFC3E9F1DC
:10612800F0C3EAF1F1C3EBF169C0F5FF68C0F8FF0D
:1061380067C0F7FF66C0F6FF65C0DAFF64C0D9FF25
:106148001100B8C0CCF0B9C0CDF0BAC0CEF0BBC019
:10615800CFF0CCC07AF0CDC07BF0CEC07CF0CFC001
:106168007DF0BB0E7E6FA20E7F6F910E806F390E91
:10617800816F6CEC36F088D849EC38F0AE51BCC071
:10618800D9FFBDC0DAFFDF6EBCC0D9FFBDC0DAFFE2
:10619800DF504AEC3FF089D8610E8D6F450E8E6F47
:1061A80086EC3DF091D861EC3DF0CCC07AF0CDC0E2
:1061B8007BF0CEC07CF0CFC07DF0890E7E6F880E5C
:1061C8007F6F806F3C0E816F6CEC36F05DD849ECC8
:1061D80038F0AE51BEC0D9FFBFC0DAFFDF6EBEC017
:1061E800D9FFBFC0DAFFDF504AEC3FF05ED8700E2F
:1061F8008D6F420E8E6F86EC3DF066D861EC3DF0F7
:10620800CCC0AEF0CDC0AFF0CEC0B0F0CFC0B1F0D2
:1062180049EC38F0AE51C0C0D9FFC1C0DAFFDF6E1B
:10622800000EA16FCC0EA06FC0C0D9FFC1C0DAFFAD
:10623800DF504AEC3FF075C0A2F076C0A3F077C0FB
:10624800A4F078C0A5F061EC3DF0000E8A6FCC0E8A
:10625800896F8B6B8C6B7A0E8D6F440E8E6F86EC0C
:106268003DF0CCC0AEF0CDC0AFF0CEC0B0F0CFC0E6
:10627800B1F049EC38F0C2C0D9FFC3C0DAFFAEC0F4
:10628800DEFFAFC0DDFF12007AC0C4F07BC0C5F0EE
:106298007CC0C6F07DC0C7F0C4C0AEF0C5C0AFF0CA
:1062A800C6C0B0F0C7C0B1F0120075C0C8F076C063
:1062B800C9F077C0CAF078C0CBF0000E8A6FC80E5C
:1062C800896F8B6B8C6B1200000EA16FCC0EA06FC8
:1062D800C8C0A2F0C9C0A3F0CAC0A4F0CBC0A5F042
:1062E8001200986B9A6B94C09AF0756B010E766FDA
:1062F8007FEC3BF0E8EC39F098512DE0010E756F1A
:10630800000E16EC3BF09A670FD09351020DF35034
:106318009125D96E000E9221DA6EDECF76F0DDCFB0
:1063280077F0FEEC3EF008D09A51020DF3CF95F0CD
:10633800FE0E77D8FEEC3EF0756B010E16EC3BF0C6
:106348002A0EA6EC39F05AD8FEEC3EF0756B010E19
:1063580016EC3BF023D02A0EA6EC39F04FD8FEEC11
:106368003EF0010E756F16EC3BF06DD80BE191C055
:10637800D9FF92C0DAFFDECF76F0DDCF77F0FEEC02
:106388003EF008D09A51020DF3CF95F0020E49D88D
:10639800FEEC3EF0000E756B16EC3BF077EC3FF030
:1063A800996F99AF18D099C09AF021D09A691FD0E7
:1063B800FE0E9A6F1CD0010E986F45D803E193C06A
:1063C8009AF098D79A2B96D7986B9A6702D09A6BBF
:1063D80091D79A078FD79951010A09E0030AE6E095
:1063E800010AE6E0070AE7E0010AEEE083D7756BE9
:1063F800766B010E7FEC3BF09A5112009A51020D18
:10640800F3509125956FE86AF3BEE8689221966F7C
:1064180095C0D9FF96C0DAFFDECF76F0DDCF77F0F2
:106428001200952795519125966FE86A95BFE868FF
:106438009221976F96C0D9FF97C0DAFFDECF76F02A
:10644800DDCF77F0120093519AC095F0966B95BF07
:106458009607951996111200000177357835806FE7
:106468007B357C357F6F805109E07F5180610FD08B
:1064780080517F5D7D6F210E7D5D09E379C075F0E8
:106488007AC076F07BC077F07CC078F012007F513C
:1064980009E080517F610FD07F51805D7D6F210EB3
:1064A8007D5D09E375C075F076C076F077C077F04A
:1064B80078C078F01200060E7E6F78BF7E8F7CBFA2
:1064C8007E8D778F786B7B8F7C6B7F51806119D045
:1064D800D89079377A377B377C377F077F51801997
:1064E8000CE07E0700017E51070B07E0F1D7D8903A
:1064F8007833773376337533802B7F518063F7D7C2
:106508001BD080517F6118D0D89075377637773790
:10651800783780077F5180190CE07E0700017E5193
:10652800070B07E0F1D7D8907C337B337A33793384
:106538007F2B7F518063F7D77EAF09D0751F761FF9
:10654800771F781F752B000E7623772378237EAD6F
:1065580002D0791F26D87E6B7551792776517A2318
:1065680077517B2378517C237CAF04D0791F19D8CD
:10657800010E7E6F79C06BF07AC06CF07BC06DF055
:106588007CC06EF080C06FF07EC070F090EC37F089
:106598006BC075F06CC076F06DC077F06EC078F0A7
:1065A80012007A1F7B1F7C1F792B000E7A237B2316
:1065B8007C23000C000E896B8A6B8B6B8C6BA6C0DE
:1065C8008DF0A7C08EF0A8C08FF0A9C090F05CEC49
:1065D8003CF005E3A66BA76BA86BA96B1200A6C0DD
:1065E800AAF0A7C0ABF0A8C0ACF0A9C0ADF0A65106
:1065F8005E08B36FC80EA755B46F6E0EA855B56F79
:10660800BE0EA955B66FD890B633B533B433B3338D
:10661800D880000EAB5B800EAC5B000EAD5B040E49
:10662800AE6FB3C07AF0B4C07BF0B5C07CF0B6C032
:106638007DF0AAC07EF0ABC07FF0ACC080F0ADC0EA
:1066480081F06CEC36F07AC0AFF07BC0B0F07CC063
:10665800B1F07DC0B2F03CD886EC3DF039D886EC7C
:106668003DF0000E8A6FB30E896F8B6B8C6BC00E7A
:106678008D6F3F0E8E6F86EC3DF0000EA16FB30E4E
:10668800A06FAFC0A2F0B0C0A3F0B1C0A4F0B2C078
:10669800A5F061EC3DF0AE2FC4D7B3C07AF0B4C01A
:1066A8007BF0B5C07CF0B6C07DF0A6C07EF0A7C078
:1066B8007FF0A8C080F0A9C081F06CEC36F07AC0F9
:1066C800A6F07BC0A7F07CC0A8F07DC0A9F012009E
:1066D800000E8A6FAF0E896FB3C08BF0B4C08CF018
:1066E800B5C08DF0B6C08EF01200E8CF93F093518C
:1066F8007ED8100E6F6F0E0E706F000E716B726B7E
:1067080010EC3CF063D8F2EC3CF075C089F076C030
:106718008AF077C08BF078C08CF09C0E17EC3DF0B7
:106728008F5165D83C0E6F6F000E706B716B726B7A
:1067380010EC3CF04BD8F2EC3CF075C089F076C018
:106748008AF077C08BF078C08CF09C0E17EC3DF087
:1067580090514AEC3FF075C089F076C08AF077C056
:106768008BF078C08CF09C0E17EC3DF091C075F062
:1067780092C076F053EC3EF075C094F076C095F078
:1067880077C096F078C097F0000E8A6F940E896FE4
:106798006F0E8B6F120E8C6F830E8D6F3A0E8E6F8D
:1067A80086EC3DF094C089F095C08AF096C08BF0D5
:1067B80097C08CF09C0E17EC3DF09CC08FF09DC0EC
:1067C80090F09EC091F09FC092F012006BC098F0BC
:1067D8006CC099F06DC09AF06EC09BF098C075F0CF
:1067E80099C076F09AC077F09BC078F01200986F45
:1067F800996B9A6B9B6B98C06BF099C06CF09AC0C0
:106808006DF09BC06EF01200D0C0B8F0D1C0B9F0E6
:10681800D2C0BAF0D3C0BBF0000EBD6FD60EBC6FAD
:10682800000EBF6FD70EBE6F000EC16FD80EC06FBF
:10683800000EC36FD90EC26FA5EC30F0D9C06BF053
:10684800DAC06CF06E6B640E6D6FA2EC3AF06BC040
:10685800D9F06CC0DAF0D4A70ED0D5A703D03C0E7F
:10686800A6EC39F0D65151D8FCEC27F0D5A703D0C7
:106878003E0EA6EC39F0D4A513D0D4A703D03A0E17
:10688800A6EC39F0D5A503D03C0EA6EC39F0D751CB
:106898003CD8FCEC27F0D5A503D03E0EA6EC39F089
:1068A800D4A313D0D4A503D03A0EA6EC39F0D5A3BF
:1068B80003D03C0EA6EC39F0D85127D8FCEC27F0D1
:1068C800D5A303D03E0EA6EC39F0D4A11200D4A370
:1068D80003D02E0EA6EC39F0D5A103D03C0EA6ECC1
:1068E80039F0D9C079F0DAC07AF0000E7ABFFF0E1D
:1068F8007B6F7C6F010E7D6F000E7E6BFCEC27F0CA
:10690800D5A112003E0EA6EF39F0796F7A6B7B6B3A
:106918007C6B020E7D6F7E6B000C070EF46FE8EC4B
:1069280039F01C0E776FFB0E766FFEEC3EF0000E12
:10693800756B766B7FEC3BF05C825986000159B62B
:10694800FDD7D9EC1BF06FEC40F09D6F9D51800A8C
:10695800820F18E25FD0E2EC3BF089C099F08AC060
:106968009AF08BC09BF08CC09CF0896B400E8A6FAC
:106978009C0E8B6F450E8C6F990E17EC3DF0966B45
:10698800976B09D09D51030AE6E0986998070001C2
:106998009829D7E0FBD7D9EC1BF06FEC40F09D6F3E
:1069A8009D51800A820F36E3E2EC3BF089C091F0FA
:1069B8008AC092F08BC093F08CC094F099C089F093
:1069C8009AC08AF09BC08BF09CC08CF091C08DF06F
:1069D80092C08EF093C08FF094C090F05CEC3CF0C5
:1069E800ACE30DD0964B972B9751800A800F090E78
:1069F800D8B4965D0FE208D0966B976B05D09D5181
:106A0800040AF0E0010AF8E098699807000198295B
:106A1800C2E0FBD7756B766B010E7FEC3BF0000193
:106A28005C921200D7EC3BF0F2EC3CF075C0AAF097
:106A380076C0ABF077C0ACF078C0ADF05B900001E9
:106A4800000E8A6FAA0E896FD4C48BF0D5C48CF05F
:106A5800D6C48DF0D7C48EF086EC3DF0000E896B5D
:106A68008A6B8B6B8C6BAAC08DF0ABC08EF0ACC000
:106A78008FF0ADC090F05CEC3CF00DE322D0000E3E
:106A8800A16FAA0EA06FA26BA36BB40EA46F430EE6
:106A9800A56F61EC3DF0896B8A6BB40E8B6F430E6A
:106AA8008C6FAAC08DF0ABC08EF0ACC08FF0ADC0BB
:106AB80090F05CEC3CF01AE2E2D7896B20D817EC36
:106AC8003DF0AAC089F0ABC08AF0ACC08BF0ADC075
:106AD8008CF08D6B8E6BB40E8F6FC30E906F5CEC69
