:0410000028EF0BF0DA
:0C100800D9CF61F0DACF62F0EBEF2EF0F0
:10101800D8CF38F0E8CF39F0E0CF3AF0D9CF3BF06D
:10102800DACF3CF0F3CF3DF0F4CF3EF0830ECF6E35
:101038001A0ECE6E9E90010E0526000E0622000E98
:101048000722000E0822000155B601D001D008D0B1
:1010580005C0F8F206C0F9F207C0FAF208C0FBF2C0
:10106800000156AC01D001D00ED005501D5C0650D1
:101078001E5807501F5808502058D8B001D001D02A
:1010880002D00001569C000153A001D001D006D027
:101098002A6A0001569E276A00015390000155B83C
:1010A80001D001D009D0000156AE01D001D004D042
:1010B8000001569E27C02AF000015580F0C249F071
:1010C800F1C24AF0F2C24BF0F3C24CF00001559065
:1010D800000155AE01D001D0CCD000015496195072
:1010E800115C1A5012581B5013581C501458D8B081
:1010F80001D001D024D009500201F45F0A50F55BF9
:101108000B50F65B0C50F75B0950F45D0A50F5592B
:101118000B50F6590C50F759D8B001D001D060D017
:10112800C8C301F0C9C302F0CAC303F0CBC304F0BB
:10113800F46BF56BF66BF76B0001559E51D00D50B3
:101148000201F45D0E50F5590F50F6591050F75939
:10115800D8B001D001D01CD00950F4270A50F5238B
:101168000B50F6230C50F723F4510D5CF5510E5833
:10117800F6510F58F7511058D8B001D001D008D007
:101188000DC0F4F20EC0F5F20FC0F6F210C0F7F27F
:10119800F4510D5CF5510E58F6510F58F75110588F
:1011A800D8B001D001D01CD00950F45F0A50F55BCB
:1011B8000B50F65B0C50F75B0D50F45D0E50F55973
:1011C8000F50F6591050F759D8B001D001D008D0B7
:1011D8000DC0F4F20EC0F5F20FC0F6F210C0F7F22F
:1011E8000201F451E827F551E923F651EA23F751B2
:1011F800EB23F451E85DF551E959F651EA59F751F5
:10120800EB59D8B001D001D008D0010EEC27000E60
:10121800ED23000EEE23000EEF23EBC219F0ECC213
:101228001AF0EDC21BF0EEC21CF0000155AE01D061
:1012380001D0D0D0000156A001D001D00DD0195056
:10124800155C016E1A501658026E1B501758036E23
:101258001C501858046EBED015501924016E165033
:101268001A20026E17501B20036E18501C20046EA3
:10127800B1D0000154A601D001D009D049C001F075
:101288004AC002F04BC003F04CC004F0A3D00001E8
:1012980056A801D001D09ED0000153AE01D001D094
:1012A8000AD00001539ECCC30DF0CDC30EF0CEC3BF
:1012B8000FF0CFC310F00D500201F45D0E50F55938
:1012C8000F50F6591050F759D8B001D001D020D09E
:1012D8000001538C09500201F4270A50F5230B50E2
:1012E800F6230C50F723F4510D5CF5510E58F651C6
:1012F8000F58F7511058D8B001D001D040D00DC0C8
:10130800F4F20EC0F5F20FC0F6F210C0F7F237D0C3
:10131800F4510D5CF5510E58F6510F58F75110580D
:10132800D8B001D001D029D00001538C0950020156
:10133800F45D0A50F5590B50F6590C50F759D8B0CE
:1013480001D001D005D0F46BF56BF66BF76B08D0C4
:101358000950F45F0A50F55B0B50F65B0C50F75BD5
:101368000D50F45D0E50F5590F50F6591050F759BD
:10137800D8B001D001D003D0C2D70001539C0201DC
:10138800F451E827F551E923F651EA23F751EB2305
:10139800F451E85DF551E959F651EA59F751EB591D
:1013A800D8B001D001D008D0010EEC27000EED23F3
:1013B800000EEE23000EEF23EBC219F0ECC21AF078
:1013C800EDC21BF0EEC21CF0000156A001D001D006
:1013D80043D735D70001548CFCC245F0FDC246F016
:1013E8000001549C0001548E23C047F024C048F0EB
:1013F8000001549E41684268140E455C080E465828
:10140800D8B001D001D002D0416A0BD0120E455C91
:10141800090E4658D8B001D001D003D04550EC0F82
:10142800416EC20E475C050E4858D8A001D001D0C5
:1014380002D0426A0DD0430E475C050E4858D8A02A
:1014480001D001D005D04750FE0DF350830F426EF6
:101458004150426001D001D004D042C043F0446AF8
:1014680003D041C043F0446A4434443243324434E4
:10147800443243324950015C4D6E4A5002584E6E18
:101488004B5003584F6E4C500458506E0301EDC337
:1014980031F0EEC332F0000E32BEFF0E336E346E02
:1014A8003450800A356E4D50315C4E5032584F5092
:1014B80033585050800A3558D8B001D001D00ED0DA
:1014C80023EEEDF0DECF4DF0DDCF4EF0000E4EBE38
:1014D800FF0E4F6E506E0001558C37D023EEEDF0A5
:1014E800DECF31F0DDCF32F0311E321E314A322AE2
:1014F80031C033F032C034F0000E34BEFF0E356E0A
:10150800366E5050800A376E33504D5C34504E580A
:1015180035504F583650800A3758D8B001D001D0CE
:1015280014D023EEEDF0DECF31F0DDCF32F0311EF6
:10153800321E314A322A31C04DF032C04EF0000E10
:101548004EBEFF0E4F6E506EC6D721504D5C3F6E9B
:1015580022504E58406E4DC021F04EC022F0EFC3CD
:101568002BF0F0C32CF04DC02DF04EC02EF0FDEC4A
:101578003CF02BC051F02CC052F0F1C32BF0F2C359
:101588002CF03FC02DF040C02EF0FDEC3CF02B506D
:1015980051262C50522252AE01D001D007D08D983E
:1015A8008C8E516C521ED8B0522A02D08D888C9ED7
:1015B8005250800A7C0F010ED8B4515CD8A001D0DB
:1015C80001D004D0040E526E000E516E000156A4D4
:1015D80001D001D00CD08D988C9E516A526A49C0B6
:1015E80001F04AC002F04BC003F04CC004F0525066
:1015F800800A7D0F850ED8B4515CD8A001D001D0E7
:1016080004D0030E526EFF0E516E5150FF08516EFA
:101618005250D8A0E82A0308526E5234523251323E
:1016280052345232513251C0BCFF3EC0F4FF3DC06B
:10163800F3FF3CC0DAFF3BC0D9FF3AC0E0FF39C036
:10164800E8FF38C0D8FF100062EF37F00000000054
:101658000000000000000000000000000000000082
:101668000000000000000000000000000000000072
:10167800000000000000000000000000000102035C
:10168800040506070809000000000000000A0B0C0A
:101698000D0E0F000000000000000000000A0B0CF7
:1016A8000D0E0F0000000000000000000000000008
:1016B8000000000000000000000000000000000022
:1016C800000000000000000000000000303132334C
:1016D80034353637383941424344454620202020A6
:1016E8002020202020202020202020202020200012
:1016F80000524F544154494F4E2044495245435497
:10170800494F4E3A000052554E4E494E473A2054E2
:101718002D48483A4D4D3A5353000054494D452001
:10172800464F5220414C4C204F52424954530000DE
:101738004359434C4520434F554E543A303D494E4A
:10174800462E00004457454C4C204F4E20504F49E0
:101758004E542023303000004D41582057415950F5
:101768004F494E5453204841564500004D4F564569
:1017780020544F204E45585420504F494E54000095
:1017880045585445524E414C204354524C204D4FDD
:10179800444500004D4F56494E4720544F20504F66
:1017A800494E54202300002B58585858DF205448DD
:1017B800454E20434C49434B000041444420414E90
:1017C8004F5448455220504F494E543F00535045BE
:1017D80045443A2058582E5858DF2F536563000067
:1017E80050524F4752414D20454E44204D4F44459D
:1017F8003A0000434F554E54455220434C4F434BFB
:101808005749534500004457454C4C204F4E2050F3
:101818004F494E54202300004D4F56494E472054FF
:101828004F204F524947494E0000424154544552B7
:101838005920564F4C544147453A00004D4F5645A4
:1018480020544F2053544152542E2E2E0000494EFE
:1018580046494E4954452052554E54494D4500007D
:10186800494E46494E495445204359434C45530037
:101878000054494D4520504552204F524249543A50
:1018880000004D4F56494E4720544F205354415263
:101898005400004241545445525920564F4C54412B
:1018A800474500004457454C4C204F4E2053544167
:1018B80052540000544F54414C2052554E54494DF7
:1018C800453A000054494D4520504552204F524258
:1018D800495400004259204F5242495420434F5521
:1018E8004E54000043494E45464C5558204F5242ED
:1018F80049540000425920544F54414C2054494DFA
:101908004500004F524249542052554E4E494E47C9
:1019180000005245414C54494D45204D4F44450027
:1019280000574159504F494E54204D4F44450000EF
:1019380054524156454C2054494D453A00005052A6
:101948004553455420534C4F543A00004F52424996
:10195800542053504545443A00004F5242495420C0
:101968004C494D49543A00004E4556455220454E83
:1019780044494E47000045585445524E414C204D6D
:101988004F4445004457454C4C2054494D453A0076
:101998000053544F5050494E472E2E2E00005448A5
:1019A800454E20434C49434B2E000052554E205083
:1019B800524F4752414D0000205245562052454D46
:1019C80041494E0000534156452050524553455415
:1019D8000000312E302E31343239352E3700004791
:1019E8004F20544F20534C45455000004C4F4F500A
:1019F800204D4F44453F00004245454E2041444458
:101A0800454400002D4F5242495420202020000018
:101A18002D454D5054592020202000002D57415964
:101A2800504F494E542000004F52424954204D4FC8
:101A38004445000052554E2050524553455400002D
:101A480050524553455420303100004F4E452D57D4
:101A580041590000414354494F4E3A00004359430D
:101A68004C45200000424F554E4345000020564F3C
:101A78004C545300004D414E55414C00003C4E4FD4
:101A88003E2000003C5945533E0000535045454414
:101A98000000204F462000003C6D733E003C483E4D
:101AA800003C4D3E003C533E0000020E0101FF6F1A
:101AB800180ED56F030ED46F170ED76FFB0ED66FA7
:101AC800D6C1EEF1D7C1EFF1D4C1F0F1D5C1F1F132
:101AD8001A0ED96F7D0ED86F180EDB6FD10EDA6F24
:101AE800170EDD6F280EDC6FD8C1F6F1D9C1F7F1FA
:101AF800DAC1F8F1DBC1F9F1DCC1FAF1DDC1FBF1C2
:101B0800180EDF6FDC0EDE6F180EE16FFC0EE06F53
:101B1800190EE36F700EE26FDEC1E8F1DFC1E9F183
:101B2800E0C1EAF1E1C1EBF1E2C1ECF1E3C1EDF1B1
:101B3800190EE56FB30EE46F190EE76FCD0EE66F61
:101B4800E4C1F2F1E5C1F3F1E6C1F4F1E7C1F5F161
:101B5800DDEC3BF0180E6A6F440E696F11EC3CF037
:101B6800686B010EDFEC3DF0190E6A6FA60E696F07
:101B780011EC3CF000015486A3EC3DF00101FC6F30
:101B88005496FCAF02D0FC5112003FEC34F0A3C0D5
:101B9800ABF0A4C0ACF0A5C0ADF0A6C0AEF0B8ECF8
:101BA80037F0ABC07AF4ACC07BF4010E00018F6F44
:101BB800EE0E8E6F010E906F160E926FF90E916FEA
:101BC8007DC493F007EC38F00101FC6FFC29C0E0FC
:101BD800FC51FE0A01E1FE0CFCBFD5D7FCC17DF427
:101BE800010E00018F6FE80E8E6F020E906F170EB8
:101BF800926FE80E916F7CC493F007EC38F0010106
:101C0800FC6FFC29D2E0FC51FE0AE5E0FCBFBBD723
:101C1800FCC17CF418D282C486F083C487F084C4E3
:101C280088F085C489F000018A6B8B6B800E8C6FFD
:101C38003F0E8D6F64EC3AF007E20401826B836B10
:101C4800800E846F3F0E856F0001866BC00E876F14
:101C5800790E886F440E896F82C48AF083C48BF032
:101C680084C48CF085C48DF064EC3AF008E2040179
:101C7800826BC00E836F790E846F440E856F190EC8
:101C88000001C56F620EC46F160EC76FF80EC66FDF
:101C9800040EC96F820EC86FCA6BCB6B800ECC6FF7
:101CA8003F0ECD6FCE6BC00ECF6F790ED06F440E46
:101CB800D16FD26BD36B800ED46F3F0ED56F9BEC78
:101CC80025F00101FC6FFC298BE0FC51FE0A83E042
:101CD800FCBF59D70001866B876B800E886F3F0E5B
:101CE800896F82C48AF083C48BF084C48CF085C465
:101CF8008DF064EC3AF010E2010E00018F6FF60EE1
:101D08008E6F020E906F190E926F540E916F8EC4E3
:101D180093F007EC38F004D0010E49DA07EC38F0FC
:101D28000101FC6FFC2901E176D7FC51FE0A01E1B3
:101D380052D7FCBF28D7A5D0FFD964EC3AF001E20E
:101D480043DAC1D99BEC25F00101FC6FFC29C2E004
:101D5800FC51FE0A01E13FD77FD10ADA64EC3AF080
:101D680001E24BDA180E0001D96FCC0ED0D9A9ECDC
:101D78001DF00101FC6FFC29ADE0FC51FE0A01E1F8
:101D88002AD7000105DA07EC37F04FD186C486F070
:101D980087C487F088C488F089C489F000017B6B08
:101DA8007C6B800E7D6F400E7E6F82C477F083C49B
:101DB80078F084C479F085C47AF028EC35F077C0DF
:101DC8008AF078C08BF079C08CF07AC08DF064EC22
:101DD8003AF00BE203DA28EC35F077C086F478C0E5
:101DE80087F479C088F47AC089F4F8D928EC35F0FA
:101DF80077C0D0F178C0D1F179C0D2F17AC0D3F1EF
:101E0800170ED96F230ED86F040E0001DB6F860EF4
:101E1800DA6FD0C1DCF0D1C1DDF0D2C1DEF0D3C1C0
:101E2800DFF09CD9A9EC1DF00101FC6FFC2901E150
:101E380051D7FC51FE0A01E1CED600017B6B7C6BC9
:101E4800B40E7D6F430E7E6F82C477F083C478F042
:101E580084C479F085C47AF028EC35F077C086F030
:101E680078C087F079C088F07AC089F086C48AF093
:101E780087C48BF088C48CF089C48DF007EC37F0E8
:101E8800D4D0FC5101E158D7010A01E166D7030A11
:101E980001E17CD7E1D0180E0001D96FBC0ED86FD4
:101EA800040EDB6F7E0EDA6FDC6BDD6B800EDE6F8F
:101EB8003F0EDF6F53D9A9EC1DF00101FC6FFC291F
:101EC80001E18ED6FC51FE0A01E185D6FCBF5BD646
:101ED800010E6DD907EC38F00101FC6FFC29DBE03D
:101EE800FC51FE0A01E177D6FCBF4DD632D024D989
:101EF80064EC3AF001E268D9E6D89BEC25F00101E0
:101F0800FC6FFC29E5E0FC51FE0A01E164D625D00E
:101F18002FD964EC3AF001E270D9180E0001D96F9C
:101F2800790EF5D8A9EC1DF00101FC6FFC29D0E071
:101F3800FC51FE0A01E14FD600012AD907EC37F01F
:101F480086C08AF487C08BF488C08CF489C08DF46D
:101F580004D0FC51CCE0010ADBE07EC47BF07FC4F6
:101F68007CF080C47DF081C47EF08AC477F08BC495
:101F780078F08CC479F08DC47AF028EC35F077C00D
:101F880086F078C087F079C088F07AC089F08A6BCB
:101F98008B6BB40E8C6F430E8D6F07EC37F086C0D9
:101FA80082F487C083F488C084F489C085F454D04F
:101FB800010EFDD807EC38F00101FC6FFC2901E1A6
:101FC8000FD6FC51FE0A01E106D6FCBFDCD536D09F
:101FD800B3D864EC3AF001E2F7D875D89BEC25F059
:101FE8000101FC6FFC29E4E0FC51FE0A01E1F3D594
:101FF800FCBFC9D531D0BCD864EC3AF001E2FDD8B9
:10200800180E0001D96F790E82D8A9EC1DF00101D4
:10201800FC6FFC29CDE0FC51FE0A01E1DCD5FCBFD8
:10202800B2D50001B5D807EC37F086C08AF487C06E
:102038008BF488C08CF489C08DF40ED0FC51C8E0B4
:10204800010AD9E009D004017C5101E1E4D5010A73
:1020580001E121D7030AACE0010E00018F6FF20EF7
:102068008E6F010E906F1A0E926F5C0E916F000EBC
:10207800936B07EC38F00101FC6FFC2901E1CBD52B
:10208800FC51FE0A01E1A7D5FCBF7DD5FC6702D053
:10209800CBEF23F08FEC35F00101FC6FFC29DCE07D
:1020A800FC51FE0A01E197D5FCBF6DD5020E040173
:1020B800796F040E0001716F790E706F0101FC5188
:1020C800A4EC3CF0C9D71A0E0001C56F930EC46F7B
:1020D800170EC76FE10EC66F040EC96F8A0EC86F60
:1020E8000A0ECA6FD70ECB6F230ECC6F3C0ECD6F86
:1020F800CE6BCF6BB40ED06F420ED16F0A0ED26F7B
:10210800D70ED36F230ED46F3C0ED56F3C0CD86F0F
:10211800040EDB6F860EDA6FDC6BDD6B800EDE6F14
:10212800400EDF6FE06BC00EE16FA80EE26F470E46
:10213800E36F0E0EE46F0E0C8AC486F08BC487F032
:102148008CC488F08DC489F00A0E00018A6FD70EFE
:102158008B6F230E8C6F3C0E8D6F3C0CE06BC00EAA
:10216800E16FA80EE26F470EE36F0E0EE46F0E0CE0
:1021780086C486F087C487F088C488F089C489F04B
:1021880000018A6B8B6B800E8C6F400E8D6F400C3C
:10219800866B876BB40E886F430E896F86C48AF08E
:1021A80087C48BF088C48CF089C48DF0430C00017F
:1021B8008F6FF60E8E6F010E906F190E926F540E80
:1021C800916F8EC493F012000A0E04018A6FD70E25
:1021D8008B6F230E8C6F3C0E8D6F3C0C82C477F096
:1021E80083C478F084C479F085C47AF07B6B7C6B07
:1021F800800E7D6F400E7E6F400C0401866B876BEE
:10220800800E886F400E896F400C080E0101FF6F29
:10221800E56BE46B5382E66B0001F76BDDEC3BF09A
:10222800190E6A6F7E0E696F11EC3CF0B5EC3DF04B
:10223800F56FF551030A01E1AAD24FD0559E549685
:10224800569856D00CDB53BEFED753BC51D0010173
:10225800E66B4ED055BE4CD0010E3CD055BE48D092
:102268000101E551020D1ADB0001DECF6EF0DDCF72
:102278006FF07CEC3DF00101E52B040E2CD056BC30
:1022880037D00101E451E56301D0E6D7E551020DED
:10229800FEDA0001DECF72F0DDCF73F0A2EC3BF086
:1022A80072C0E0F173C0E1F174C0E2F175C0E3F10E
:1022B8000101E551020DDDDA0001DECF72F0DDCF5C
:1022C80073F0D1EC3CF089DAA3EC2BF06DDAF7EC83
:1022D8003BF0030E0101E66F0BD00101E651AEE0C1
:1022E800010AB0E0030AB6E0010AB8E0070AC7E04D
:1022F800000153AA9BD70101FD6B010E0201FE6F7D
:102308000001539A18EC3AF00201FF198FE118EC1A
:102318003AF00101E76F23D218EC3AF00101E86FB7
:1023280018EC3AF00101E96F18EC3AF00101EA6F94
:1023380018EC3AF00101EB6FE8C1F1F0E9C1F2F0F5
:10234800EAC1F3F0EBC1F4F073DA18EC3AF00101EA
:10235800E86F18EC3AF00101E96F18EC3AF0010166
:10236800EA6F18EC3AF00101EB6FE8C1D0F1E9C16E
:10237800D1F1EAC1D2F1EBC1D3F15ADA18EC3AF053
:102388000101E86F18EC3AF00101E96F18EC3AF036
:102398000101EA6F18EC3AF00101EB6FE8C1D4F1E2
:1023A800E9C1D5F1EAC1D6F1EBC1D7F141DA18ECB0
:1023B8003AF00101FD1908E1010E0001F76F010172
:1023C800E75153EC3DF032D75BDA2BEC3CF02ED7DB
:1023D8000001F76707D0010E6A6F0101E7512BEC86
:1023E8003CF024D70101E65108E0020E00016A6FB3
:1023F8000101E7512BEC3CF019D7F1C0B5F0F2C060
:10240800B6F0F3C0B7F0F4C0B8F0D0C1B9F0D1C19C
:10241800BAF0D2C1BBF0D3C1BCF0D4C1BDF0D5C1B4
:10242800BEF0D6C1BFF0D7C1C0F0B9EC1FF00001B3
:10243800F76B020E0101E66FE75153EC3DF0F6D65B
:10244800E65102E0010EE66FE75153EC3DF0EED69F
:10245800FE6BF4EC16F0240EDF6EFE2BE75140EC19
:102468003BF0E65140EC3BF0E651FD270001F75107
:1024780040EC3BF00001F7510101FD27DFEC39F09A
:10248800F9EC3AF072C0E8F173C0E9F174C0EAF10E
:1024980075C0EBF15590D5D98AEC3AF00101E851B5
:1024A80040EC3BF0E95140EC3BF0EA5140EC3BF0AA
:1024B800EB5140EC3BF0AAD9E86BE96BEA6BEB6BAC
:1024C80012D0F4C272F0F5C273F0F6C274F0F7C21B
:1024D80075F075EC3CF072C0E8F173C0E9F174C0B6
:1024E800EAF175C0EBF1F4C272F0F5C273F0F6C20E
:1024F80074F0F7C275F075EC3CF00101EB51000186
:1025080075190EE10101EA510001741909E101018F
:10251800E9510001731904E10101E8510001721940
:10252800D0E1010E0001876FE80E3BEC17F08AEC52
:102538003AF087D98AEC3AF00101E85140EC3BF0D7
:10254800E95140EC3BF0EA5140EC3BF0EB5140ECF8
:102558003BF05CD900015586F8C272F0F9C273F0FD
:10256800FAC274F0FBC275F075EC3CF072C0E8F189
:1025780073C0E9F174C0EAF175C0EBF15596010E2C
:102588000001876FE80E866F6F0E886F120E896FD5
:10259800030E8A6F3B0E8B6F8AEC3AF00101E8510B
:1025A80040EC3BF0E95140EC3BF0EA5140EC3BF0A9
:1025B800EB5140EC3BF02AD90001548CFCC272F07C
:1025C800FDC273F0D1EC3CF072C0E8F173C0E9F1E0
:1025D80074C0EAF175C0EBF1549C010E0001876FDD
:1025E800E80E866FDEC388F0DFC389F0E0C38AF0A7
:1025F800E1C38BF08AEC3AF00101E85140EC3BF082
:10260800E95140EC3BF0EA5140EC3BF0EB5140EC37
:102618003BF0FCD8FD5140EC3BF0F4EC16F0230EF7
:10262800DF6EFE2BFEC1F6F0FE6BF6C029F0FED57C
:10263800E651030A03E0E651040A08E1010E00012D
:102648006A6F0101E7512BEC3CF0F0D5E56BE46BC8
:10265800E75153EC3DF0EAD5E651030A03E0E651B1
:10266800040A08E1010E00016A6F0101E7512BEC31
:102678003CF0DCD5630EE46508D0020E00016A6FF9
:102688000101E7512BEC3CF0D1D518EC3AF00101EF
:10269800E86F18EC3AF0C3D8FAD8E8C1DEFFE9C110
:1026A800DDFF18EC3AF00101E86F18EC3AF0B7D802
:1026B800E0D8E8C1DEFFE9C1DDFF18EC3AF001011E
:1026C800E86F18EC3AF0ABD8E9D8E8C1DEFFE9C109
:1026D800DDFF18EC3AF00101FD1905E1E75153EC73
:1026E8003DF0E42BA3D5CCD82BEC3CF09FD5E6519C
:1026F80008E0010E00016A6F0101E7512BEC3CF084
:1027080095D5E56B00C272F001C273F0A2EC3BF004
:1027180072C0E0F173C0E1F174C0E2F175C0E3F199
:1027280000C372F001C373F0D1EC3CF056D8A3ECAF
:102738002BF03AD8F7EC3BF0030E0101E66FE751B6
:1027480053EC3DF073D5E75153EC3DF020D0FE0E2D
:1027580000016A6F0101E7512BEC3CF067D5E751A6
:10276800600A01E1D9D5010A01E132D6030A01E183
:1027780067D6010A01E16CD6070A01E159D7010AB7
:1027880001E16AD7030AB3E0E60ADDE0E0D767D8DB
:1027980006D00001F669F6070001F629FCE153BCF2
:1027A800F8D700015392000CB4C0D8F1B5C0D9F1E4
:1027B800B6C0DAF1B7C0DBF1E0C100F1E1C101F167
:1027C800E2C102F1E3C103F1D8C104F1D9C105F1B5
:1027D800DAC106F1DBC107F1120072C0DCF173C087
:1027E800DDF174C0DEF175C0DFF1E0C1B4F0E1C124
:1027F800B5F0E2C1B6F0E3C1B7F0DCC1B8F0DDC1B5
:10280800B9F0DEC1BAF0DFC1BBF01200E851FD2714
:10281800E951FD27EA51FD27EB51FD27120001017F
:10282800E96FE851FD27E951FD27E451020D120037
:10283800EB51FD27EA51FD27E951FD27E851FD2716
:102848001200010E0001876FE80E866FF7C388F04B
:10285800F8C389F0F9C38AF0FAC38BF01200559EC9
:10286800549656880301CC6BCD6BCE6BCF6B538ED1
:102878001200000EF324D96EDA6A030EDA2212006F
:102888000001F76BFA0E6A6F0101E7511200000EA2
:10289800F324D96EDA6A020EDA221200080EF32443
:1028A800D96EDA6A010EDA2212000101016BAB6BF4
:1028B80053A207D0AD69AD070101AD29D8B4120004
:1028C800FAD753BA08D00101AD69AD070101AD29A6
:1028D800D8B41200FAD70101FD6B010E0201FE6F98
:1028E8000001539A18EC3AF00101016F012931E116
:1028F800FE6B000E98DA0301FB5140EC3BF003013C
:10290800FB510101FD274F0E40EC3BF04F0EFD2718
:10291800520E40EC3BF0520EFD27420E40EC3BF0CD
:10292800420EFD27490E40EC3BF0490EFD27540EA0
:1029380040EC3BF0540EFD27FD5140EC3BF050DAE3
:10294800230EDF6EFE2BFEC1ADF1FE6BADC129F08B
:1029580012000151030123EEFBF0DF62120018ECB4
:102968003AF00101AC6F0AD218EC3AF00101006F9D
:102978000051FD2718EC3AF00101FD190CE100C1E6
:10298800FBF3A5DA030E6E6FD00E6D6F2C0E6F6F12
:102998001EEC3BF0C6D0EBD1FE6B22DA240EDF6EC4
:1029A800FE2BAC5140EC3BF0AD6B140E7EDA40ECE4
:1029B8003BF065DAAD65F9D7AD6B000E01018FDA32
:1029C80040EC3BF067DAAD65F8D700015580F0C2FE
:1029D80072F0F1C273F0F2C274F0F3C275F0F9EC60
:1029E8003AF072C0AEF173C0AFF174C0B0F175C007
:1029F800B1F15590FDD98AEC3AF00101AE5140ECA5
:102A08003BF0AF5140EC3BF0B05140EC3BF0B151E2
:102A180040EC3BF01CDA70DA0BD0F4C272F0F5C26D
:102A280073F0F6C274F0F7C275F075EC3CF046DA54
:102A3800F4C272F0F5C273F0F6C274F0F7C275F022
:102A480075EC3CF00101B151000175190EE101016D
:102A5800B0510001741909E10101AF510001731966
:102A680004E10101AE5100017219D7E1010E000124
:102A7800876FAE0EFCD98AEC3AF0BAD98AEC3AF0F4
:102A88000101AE5140EC3BF0AF5140EC3BF0B0518E
:102A980040EC3BF0B15140EC3BF0D9D90001548CEB
:102AA800FCC272F0FDC273F0D1EC3CF0C5D9AED9CE
:102AB8008AEC3AF00101AE5140EC3BF0AF5140ECEA
:102AC8003BF0B05140EC3BF0B15140EC3BF0BFD98A
:102AD800FF5140EC3BF0FF51FD27FD5140EC3BF02E
:102AE8002ED7FE6B7DD9240EDF6EFE2BAC5140EC49
:102AF8003BF0AD6B140ED9D940EC3BF0C0D9AD65B5
:102B0800F9D7AD6B000E0101EAD940EC3BF0C2D910
:102B1800AD65F8D7FD5140EC3BF011D7569E010E3C
:102B280015D00101AC5153EF3DF0569E030E0ED067
:102B3800569E020E0BD0569E040E08D0569E050EC9
:102B480005D00001569E18EC3AF00008276E568E04
:102B5800E8D7FE6B45D9240EDF6EFE2BAC5140EC56
:102B68003BF0FF5140EC3BF0FF5140EC3BF0E7D627
:102B7800DFEC39F0F9EC3AF072C0AEF173C0AFF1A6
:102B880074C0B0F175C0B1F1559032D98AEC3AF001
:102B9800AEC16AF0AFC16BF0B0C16CF0B1C16DF0FD
:102BA800ACC16EF084EF39F0A7D90BD0F4C272F043
:102BB800F5C273F0F6C274F0F7C275F075EC3CF02C
:102BC8007DD9F4C272F0F5C273F0F6C274F0F7C2A0
:102BD80075F075EC3CF00101B151000175190EE179
:102BE8000101B0510001741909E10101AF5100015F
:102BF800731904E10101AE5100017219D7E1010E08
:102C08000001876FAE0E33D98AEC3AF0F1D88AEC1E
:102C18003AF0BED70001548CFCC272F0FDC273F0CA
:102C2800D1EC3CF009D9F2D88AEC3AF0B1D718ECDB
:102C38003AF00101AB6F050EAB6504D030D0AC5152
:102C48002BEF3CF0AB6701D02AD0010E00016F6F6B
:102C5800320E6E6F0101AB5168EC3DF00101FE6B65
:102C6800000EE1D8AC5140EC3BF0AD6BF9D8DF5029
:102C780040EC3BF0F5D8DF50FD27AD2B780EAD6565
:102C8800F5D7FD5140EC3BF05AD618EC3AF001016B
:102C9800AB6F050EAB6501D002D0AB6704D0010E57
:102CA80000016A6F69D0AB51FD27AD6B18EC3AF0A3
:102CB8008C6F0101D5D88CC0DFFFD2D8DF50FD273B
:102CC800AD2B770EAD65F2D718EC3AF00101FD197E
:102CD8000AE1010E0001716F320E706F0101AB51F4
:102CE800A4EC3CF01ED743D0030E0101316FD00E87
:102CF800306FFE6B000E97D8AC5140EC3BF0AD6BDB
:102D080030C1D9FF31C1DAFFDF5040EC3BF030C1B0
:102D1800D9FF31C1DAFFDF50EAD8AD65F1D7FD51EF
:102D280040EC3BF00CD6010E316F020E306FAD6BEC
:102D380018EC3AF030C1D9FF31C1DAFFDF6E30C18B
:102D4800D9FF31C1DAFFDF500101D1D8AD65F0D725
:102D580018EC3AF00101FD190AE1B9D8010E6E6FBD
:102D6800020E6D6F2C0E6F6F1EEC3BF0DAD6FDC1B4
:102D78006AF065D700016A69010161D7AC51010A9F
:102D880084E0030A01E153D7120A01E1AAD6010A35
:102D980001E1C4D6030A01E1CBD6010A01E1C5D697
:102DA800070A01E1C8D6010A01E1C8D6030A01E110
:102DB800DFD6010A01E1F8D60F0A01E12BD7010A93
:102DC80001E1BFD6030A01E1C4D6010A01E1E4D555
:102DD800070A8AE0010AA7E0030A01E1C5D5CAD7B4
:102DE800000E0101FE25D96EDA6A060EDA221200FB
:102DF800010E0001876FAE0E866FF7C388F0F8C327
:102E080089F0F9C38AF0FAC38BF012000001876FCA
:102E1800AE0E866FDEC388F0DFC389F0E0C38AF0A8
:102E2800E1C38BF01200FE25D96EDA6A060EDA22AB
:102E3800240EDF6EFE2B240C72C0AEF173C0AFF10E
:102E480074C0B0F175C0B1F1549C010E1200AE51BE
:102E5800FD27AF51FD27B051FD27B151FD271200C5
:102E6800320EAD25D96EDA6A010EDA221200866FAB
:102E7800886B896BFA0E8A6F370E8B6F370C140EBE
:102E88000101AD25D96EDA6A050EDA22DF50FD2779
:102E9800AD2B130C000E0101AD25D96EDA6A050EB3
:102EA800DA22DF50FD27AD2B130C0101AD25D96EB9
:102EB800DA6A0501050EDA22DF50120072C0AEF19F
:102EC80073C0AFF174C0B0F175C0B1F112002E6BD0
:102ED8002F6B010E00016C6F2E0E6B6F1200AD256B
:102EE800D96EDA6A0501050EDA22DF501200FD27D5
:102EF800304B312BAD2B2B0CAE6BAF6BB06BB16B7A
:102F08001200040E0101FF6FE76BE86BE96BEA6BD7
:102F1800DC6B0401036B1A0E0101C96F530EC86FF5
:102F28001A0ECB6F6D0ECA6FC8C1D0F1C9C1D1F1ED
:102F3800CAC1D2F1CBC1D3F1190ECD6FB30ECC6F8C
:102F4800190ECF6FCD0ECE6FCCC1D4F1CDC1D5F156
:102F5800CEC1D6F1CFC1D7F1EB6BEC6BED6BEE6B5D
:102F6800F56BF66BF76BF86BE56BE66BE16BE26B99
:102F7800E36BE46BDD6BDE6BDF6BE06BF16BF26BCD
:102F8800F36BF46BF96BDDEC3BF0180E6A6F440ED3
:102F9800696F11EC3CF0686B010EDFEC3DF0190E27
:102FA8006A6FA60E696F11EC3CF000015486A3EC21
:102FB8003DF00101FA6FFAAF02D0FA511200000198
:102FC80054963FEC34F0A3C0ABF0A4C0ACF0A5C05D
:102FD800ADF0A6C0AEF0B8EC37F0ABC001F4ACC0B1
:102FE80002F4BBEC39F08CC0D8F18DC0D9F18EC099
:102FF800DAF18FC0DBF1190ED96F8C0ED86F010E84
:1030080000017FDAA9EC1DF00101FA6FFA51FE0AFE
:1030180001E1FE0CFA29A0E0FABFCFD7F1C1ABF06D
:10302800F2C1ACF0F3C1ADF0F4C1AEF0B8EC37F0DA
:10303800ABC04FF4ACC050F4D4D1DDEC3BF0170E6C
:103048006A6F740E696F11EC3CF0686B010EDFEC6F
:103058003DF0170E6A6FAF0E696F11EC3CF05486A5
:10306800538002D059EC14F0000153B0FBD7010192
:10307800FA6B96D059EC14F0BBEC39F08CC0DDF14A
:103088008DC0DEF18EC0DFF18FC0E0F1DDC195F0BB
:10309800DEC196F0DFC197F0E0C198F0D8C199F091
:1030A800D9C19AF0DAC19BF0DBC19CF0C0EC3BF0CF
:1030B80095C0E1F196C0E2F197C0E3F198C0E4F160
:1030C800E1C1ABF0E2C1ACF0E3C1ADF0E4C1AEF0F8
:1030D800B8EC37F0ABC0E5F1ACC0E6F1686B010EB7
:1030E800DFEC3DF0E5C176F00001E6C177F0000EB7
:1030F80077BFFF0E786F796F040E7A6F010E7B6FC2
:1031080060EC27F055882AC0FAF155980101FA5168
:10311800030A03E100015496FE0CFA51020A07E182
:1031280054960101F96701D017D7F90786D7FA51E4
:10313800050A18E1538054960101006B016B800E5B
:10314800026FBF0EEED9F7EC3BF002D059EC14F049
:10315800000155BEFBD7548602D059EC14F000018B
:1031680053B0FBD70101FA51040A17E15380549672
:10317800006B016B800E026F3F0ED3D9F7EC3BF06A
:1031880002D059EC14F0000155BEFBD7548602D08A
:1031980059EC14F0000153B0FBD70101FABF0DD769
:1031A800FA0501E067D754960101F951020D070E9F
:1031B800F324D96EDA6A040EDA22E5C1DEFFE6C12D
:1031C800DDFFE1C1B4F0E2C1B5F0E3C1B6F0E4C19E
:1031D800B7F0D9EC28F0B4C0F5F1B5C0F6F1B6C037
:1031E800F7F1B7C0F8F1F5C1ABF0F6C1ACF0F7C133
:1031F800ADF0F8C1AEF0B8EC37F0ABC0EFF1ACC051
:10320800F0F1010E00019E6FF50E9D6FEFC172F097
:10321800F0C173F0D1EC3CF072C09FF073C0A0F025
:1032280074C0A1F075C0A2F0D4EC3AF0000E866B21
:10323800876B886B896BF5C18AF0F6C18BF0F7C193
:103248008CF0F8C18DF064EC3AF00DE2010E01014A
:10325800EF250001726F000E0101F0210001736F6C
:10326800D1EC3CF006D0EFC172F0F0C173F0D1ECB4
:103278003CF072C0F5F173C0F6F174C0F7F175C097
:10328800F8F1190E0001D96F380ED86F010EDB6FF7
:10329800EB0EDA6FF5C1DCF0F6C1DDF0F7C1DEF058
:1032A800F8C1DFF0E06BE1697F0EE26F470EE36F74
:1032B8000E0EE46FA9EC1DF00101FA6FFA51FE0A37
:1032C80001E1A7D6FA2901E1B8D6FABF76D6EBC153
:1032D800ABF0ECC1ACF0EDC1ADF0EEC1AEF0B8ECC6
:1032E80037F00101F951020D2B0EF324D96EDA6A79
:1032F800040EDA22ABC0DEFFACC0DDFF190E000100
:10330800D96F8C0ED86F010EFCD8A9EC1DF0010105
:10331800FA6FFA51FE0A01E17CD6FA29B2E0FABF47
:103328004CD6F1C1ABF0F2C1ACF0F3C1ADF0F4C1D1
:10333800AEF0B8EC37F00101D890F9350001F36F21
:10334800510EF325D96EDA6A040EDA22ABC0DEFF1D
:10335800ACC0DDFF0101F951800A6F0F24E2170E9E
:1033680000018F6FC20E8E6F010E906F4AEC39F01C
:103378000101FA6FFA51FE0A01E14BD6FA29BEE0C3
:10338800FA6702D0010EDC6FFA050AE1F92BDDC1FC
:10339800D8F1DEC1D9F1DFC1DAF1E0C1DBF14DD6F8
:1033A800FABF0BD61ED0DDEC3BF0170E6A6F600E2D
:1033B800696F11EC3CF0686B010EDFEC3DF01A0E02
:1033C8006A6F000E696F11EC3CF0A3EC3DF001014F
:1033D800FA6FFA51FE0A01E11CD6FA298FE0010EB4
:1033E800DC6F0101DC5101E128D6F9C103F4010EBB
:1033F80000018F6FD00E8E6F010E906F190E926FB5
:10340800F40E916F04C493F007EC38F00101FA6FE1
:10341800FA2901E173D7FA51FE0A01E1FAD5FABF98
:10342800CCD5FAC104F4170E0001C56F380EC46F6D
:10343800180EC76F700EC66F010EC96FE70EC86F02
:10344800CA6BCB6BCC6BCD6BCE6BC00ECF6F790ECE
:10345800D06F440ED16FD26BD36B800ED46F3F0EFA
:10346800D56F9BEC25F00101FA6FFA29C0E0FA51FB
:10347800FE0A01E1CED5FABFA0D5E7C1ABF0E8C19D
:10348800ACF0E9C1ADF0EAC1AEF0B8EC37F0ABC0D2
:1034980005F4ACC006F4010E00018F6FD40E8E6FD8
:1034A800010E906F1A0E926F5C0E916F000E936B67
:1034B80007EC38F00101FA6FFA29B5E0FA51FE0A73
:1034C80001E1A7D5FABF79D5FA6702D09DEF1AF0C6
:1034D8008FEC35F00101FA6FFA29DDE0FA51FE0AA6
:1034E80001E197D5FABF69D5010E0401006F040EFA
:1034F8000001716F000E706F0101FA51A4EC3CF0ED
:10350800CAD7DB6FF10EDA6FDC6BDD6BDE6BDF6B5E
:10351800E06BE1697F0EE26F470EE36F0E0EE46F1A
:103528000E0C036F046B056BB40E066F420E076F2B
:10353800420C0101C36B050EFF6FC26BC56B010E18
:10354800C46FDDEC3BF0180E6A6F8A0E696F11ECE0
:103558003CF001C472F002C473F0D1EC3CF0D7DA4D
:103568004CEC2AF011D059EC14F0B5EC3DF0010107
:10357800C76FC751030A03E1FE0EC36F7DD2C7AF01
:1035880003D0C7C1C3F178D2000155BEECD7DDEC3A
:103598003BF0180E6A6FAC0E696F11EC3CF04FC42B
:1035A8006EF050C46FF07CEC3DF00BD059EC14F089
:1035B800B5EC3DF00101C76FC751030ADDE0C7BF95
:1035C800E0D7000156BCF2D70101C25103E003C4A1
:1035D800C6F1A3D1C66BA1D1C651020D070EF324C3
:1035E800D96EDA6A040EDA220001DECF72F0DDCF7E
:1035F80073F0A2EC3BF072C0BEF173C0BFF174C0AF
:10360800C0F175C0C1F10101C651020D2B0EF324A2
:10361800D96EDA6A040EDA220001DECF72F0DDCF4D
:1036280073F0D1EC3CF072C0B2F173C0B3F174C066
:10363800B4F175C0B5F1BEC1B4F0BFC1B5F0C0C139
:10364800B6F0C1C1B7F0B2C1B8F0B3C1B9F0B4C1F6
:10365800BAF0B5C1BBF0A3EC2BF0B4C0BAF1B5C059
:10366800BBF1B6C0BCF1B7C0BDF10101C25101E167
:10367800B3D0DDEC3BF0170E6A6F9C0E696F11EC4E
:103688003CF055DA60EC27F0686B010EDFEC3DF09A
:1036980004010651051108E1180E00016A6F680E51
:1036A800696F11EC3CF013D01A0E00016A6F650EB9
:1036B800696F11EC3CF00BDA60EC27F01A0E6A6FB8
:1036C8009A0E696F11EC3CF0F7D960EC27F0BEC197
:1036D80068F0BFC169F0C0C16AF0C1C16BF090EC7D
:1036E8003DF068C0B6F169C0B7F16AC0B8F16BC007
:1036F800B9F1B6C100F1B7C101F1B8C102F1B9C160
:1037080003F1BAC104F1BBC105F1BCC106F1BDC1E9
:1037180007F1F7EC3BF00CD059EC14F0B5EC3DF0A8
:103728000101C76FC751030A01E126D7C7BF29D7CF
:10373800000155BEF1D7DDEC3BF0180E6A6F0E0E96
:10374800696F11EC3CF0F3D960EC27F0686B010E5F
:10375800DFEC3DF004010651051108E1180E0001E7
:103768006A6F680E696F11EC3CF013D01A0E0001F5
:103778006A6F650E696F11EC3CF0A9D960EC27F00F
:103788001A0E6A6F9A0E696F11EC3CF095D960ECCD
:1037980027F00101C651020D4F0EF324D96EDA6AE3
:1037A800040EDA220001DECF6EF0DDCF6FF07CEC84
:1037B8003DF00CD059EC14F0B5EC3DF00101C76FA9
:1037C800C751030A01E1D8D6C7BFDBD6000156BCF2
:1037D800F1D70101C607A1D0DDEC3BF0170E6A6FE7
:1037E8009C0E696F11EC3CF07DD960EC27F0686B9A
:1037F800010EDFEC3DF004010651051108E1180E39
:1038080000016A6F680E696F11EC3CF013D01A0E54
:1038180000016A6F650E696F11EC3CF058D960ECD5
:1038280027F01A0E6A6F9A0E696F11EC3CF044D9B2
:1038380060EC27F0BEC100F1BFC101F1C0C102F1C7
:10384800C1C103F1BAC104F1BBC105F1BCC106F1A4
:10385800BDC107F1F7EC3BF00CD059EC14F0B5EC16
:103868003DF00101C76FC751030A01E185D6C7BF03
:1038780088D6000155BEF1D7DDEC3BF0180E6A6F13
:103888000E0E696F11EC3CF02DD960EC27F0686BD7
:10389800010EDFEC3DF004010651051108E1180E98
:1038A80000016A6F680E696F11EC3CF013D01A0EB4
:1038B80000016A6F650E696F11EC3CF008D960EC85
:1038C80027F01A0E6A6F9A0E696F11EC3CF0F4D863
:1038D80060EC27F00101D890C6350001F16F510E58
:1038E800F125D96EDA6A040EDA22DECF6EF0DDCF6A
:1038F8006FF07CEC3DF00CD059EC14F0B5EC3DF0D9
:103908000101C76FC751030A01E136D6C7BF39D6CF
:10391800000156BCF1D70101C62BC6BF0BD004016C
:103928000351D880D8840101C6AFC65DD8A0D88419
:1039380001E152D60401045107E00101C251010E10
:10394800D8A4000EC26F87D00101C26BDDEC3BF03A
:10395800180E6A6F200E696F11EC3CF0686B010E4F
:10396800DFEC3DF004010651051108E1180E0001D5
:103978006A6F680E696F11EC3CF013D01A0E0001E3
:103988006A6F650E696F11EC3CF0A1D860EC27F006
:103998001A0E6A6F9A0E696F11EC3CF08DD860ECC4
:1039A80027F001C472F002C473F0D1EC3CF0AFD838
:1039B8004CEC2AF00CD059EC14F0B5EC3DF00101B8
:1039C800C76FC751030A01E1D7D5C7BFDAD50001D0
:1039D80055BEF1D7DDEC3BF0170E6A6F4C0E696FE0
:1039E80011EC3CF0686B010EDFEC3DF00401065170
:1039F800051108E1180E00016A6F680E696F11EC75
:103A08003CF013D01A0E00016A6F650E696F11EC55
:103A18003CF05DD860EC27F01A0E6A6F9A0E696F59
:103A280011EC3CF049D860EC27F04FC46EF050C45C
:103A38006FF07CEC3DF00CD059EC14F0B5EC3DF097
:103A48000101C76FC751030A01E196D5C7BF99D5D0
:103A5800000156BCF1D704010651051101E1B4D5A6
:103A68000101C44BC52BC4510401055D0101C551B9
:103A78000401065901E3A8D5559E549656880301BA
:103A8800CC6BCD6BCE6BCF6B0001538EDDEC3BF076
:103A9800190E6A6F990E696F11EC3CF053AE03D0A2
:103AA800FDD759EC14F0000153BCFBD7559E549632
:103AB80056980101C351120005C476F0000106C4EE
:103AC80077F0786B796B030E7A6F7B6B000CC4C14F
:103AD80076F00001C5C177F0786B796B030E7A6FC9
:103AE8007B6B000CC6C1F1F00001F26BF1BFF2076D
:103AF800F12B000EF223F1C076F0F2C077F077BF19
:103B0800FF0E786F796F020E7A6F7B6B000C72C0B4
:103B180008F173C009F174C00AF175C00BF1010115
:103B28000C6B0D6BB40E0E6F420E0F6F420C010141
:103B3800C6510001766F000E76BFFF0E776F786F63
:103B4800796F020E7A6F7B6B000CDAC0D9FFDBC08D
:103B5800DAFFDECFEBF0DECFECF0DECFEDF0DECF3C
:103B6800EEF0EBC0B5F0ECC0B6F0EDC0B7F0EEC0CB
:103B7800B8F0000EBA6FE90EB96F000EBC6FE80E10
:103B8800BB6F000EBE6FE70EBD6F000EC06FE50E77
:103B9800BF6FD6EC2FF0E4A7E96BE4A5E86BE4A3CC
:103BA800E76BE4B102D0E56BE66BE8C08CF0E7C0E8
:103BB8008DF0E5C08EF0E6C08FF0E951A0EC32F050
:103BC8008CC0EBF08DC0ECF08EC0EDF08FC0EEF045
:103BD8009BD964EC3AF001E2B1D985D964EC3AF0AA
:103BE80001E2A3D9E4A759D0DDEC3BF0D8C069F0D5
:103BF800D9C06AF011EC3CF01A0E6A6FA50E696F15
:103C080011EC3CF0686B010EDFEC3DF0160E6A6FAC
:103C1800E40E696F11EC3CF0686B010EDFEC3DF0CF
:103C2800EBC0CDF0ECC0CEF0EDC0CFF0EEC0D0F0E0
:103C3800E4C0D1F0080ED26F37EC33F013EC3DF04E
:103C4800EA6FEAAF1ED0EA511200FF0CFE0C7FD9D2
:103C5800610E8A6F450E8B6FAFEC3AF044D964EC75
:103C68003AF0DAE262D9D8D779D9610EA16F450E58
:103C7800A26FD4EC3AF048D964EC3AF0CDE25ED9C0
:103C8800CBD7EA51010A09E0030ADFE0010ADEE0C6
:103C9800070ADDE0010AE8E0BFD7E4A557D0DDEC6C
:103CA8003BF0D8C069F0D9C06AF011EC3CF01A0EAC
:103CB8006A6FA90E696F11EC3CF0686B010EDFECBE
:103CC8003DF0160E6A6FE40E696F11EC3CF0686BFC
:103CD800010EDFEC3DF0EBC0CDF0ECC0CEF0EDC056
:103CE800CFF0EEC0D0F0E4C0D1F0040ED26F37ECC4
:103CF80033F013EC3DF0EA6FEABFA5D71AD027D905
:103D0800700E8A6F420E8B6FAFEC3AF0ECD864EC11
:103D18003AF0DDE20AD9DBD721D9700EA16F420E45
:103D2800A26FD4EC3AF0F0D864EC3AF0D0E206D9BD
:103D3800CED7EA51010A0AE0030A01E153D7010A82
:103D480085E0070ADCE0010AE7E0C1D7E4A358D020
:103D5800DDEC3BF0D8C069F0D9C06AF011EC3CF05A
:103D68001A0E6A6FAD0E696F11EC3CF0686B010EAC
:103D7800DFEC3DF0160E6A6FE40E696F11EC3CF053
:103D8800686B010EDFEC3DF0EBC0CDF0ECC0CEF07F
:103D9800EDC0CFF0EEC0D0F0E4C0D1F0020ED26F8B
:103DA80037EC33F013EC3DF0EA6FEABF4CD71AD08A
:103DB800CED8800E8A6F3F0E8B6FAFEC3AF093D857
:103DC80064EC3AF0DDE2B1D8DBD7C8D8800EA16F39
:103DD8003F0EA26FD4EC3AF097D864EC3AF0D0E2F8
:103DE800ADD8CED7EA51010A0BE0030A01E155D755
:103DF800010A01E12BD7070ADBE0010AE6E0C0D798
:103E0800E4A164D0DDEC3BF0D8C069F0D9C06AF019
:103E180011EC3CF01A0E6A6FA00E696F11EC3CF0C1
:103E2800686B010EDFEC3DF0160E6A6FE40E696FE9
:103E380011EC3CF0686B010EDFEC3DF0EBC0CDF00F
:103E4800ECC0CEF0EDC0CFF0EEC0D0F0E4C0D1F0C1
:103E5800010ED26F37EC33F013EC3DF0EA6FEABF96
:103E6800F2D626D0000E876FEB0E866FCD0E886FC8
:103E7800CC0E896F8A6F3D0E8B6FAFEC3AF033D85A
:103E880064EC3AF0D7E251D8D5D7000E9E6FEB0E0E
:103E98009D6FCD0E9F6FCC0EA06FA16F3D0EA26FD0
:103EA800D4EC3AF031D864EC3AF0C4E247D8C2D73F
:103EB800EA51010A0BE0030A01E148D7010A01E1CE
:103EC800C5D6070ACFE0010AE0E0B4D7DAC0D9FFC7
:103ED800DBC0DAFFEBC0DEFFECC0DEFFEDC0DEFFCB
:103EE800EEC0DEFF000CE0C086F0E1C087F0E2C063
:103EF80088F0E3C089F0EBC08AF0ECC08BF0EDC02D
:103F08008CF0EEC08DF01200EBC086F0ECC087F0AC
:103F1800EDC088F0EEC089F0DCC08AF0DDC08BF01F
:103F2800DEC08CF0DFC08DF01200E0C0EBF0E1C025
:103F3800ECF0E2C0EDF0E3C0EEF01200DCC0EBF014
:103F4800DDC0ECF0DEC0EDF0DFC0EEF01200000ED8
:103F5800876FEB0E866F886B896B1200000E9E6F61
:103F6800EB0E9D6F9F6BA06B1200000155BEFF0CFE
:103F78000001BCAF13D0B9C068F0BAC069F0BBC0CB
:103F88006AF0BCC06BF090EC3DF068C0DDF069C031
:103F9800DEF06AC0DFF06BC0E0F008D0B9C0DDF039
:103FA800BAC0DEF0BBC0DFF0BCC0E0F0C0AF13D0D9
:103FB800BDC068F0BEC069F0BFC06AF0C0C06BF099
:103FC80090EC3DF068C0E5F069C0E6F06AC0E7F043
:103FD8006BC0E8F008D0BDC0E5F0BEC0E6F0BFC0D9
:103FE800E7F0C0C0E8F0B5C07BF0B6C07CF0B7C061
:103FF8007DF0B8C07EF0F3C377F0F4C378F0F5C372
:1040080079F0F6C37AF028EC35F077C0ABF078C0D9
:10401800ACF079C0ADF07AC0AEF0B8EC37F0ABC018
:10402800D5F0ACC0D6F0ADC0D7F0AEC0D8F0D851FE
:10403800D511D611D71101E1000C5580F0C2D1F08D
:10404800F1C2D2F0F2C2D3F0F3C2D4F0559000011D
:10405800D551D1250301C86F0001D651D2210301E2
:10406800C96F0001D751D3210301CA6F0001D8518C
:10407800D4210301CB6FD1C015F0D2C016F0D3C044
:1040880017F0D4C018F00001B8AF15D0B5C068F06B
:10409800B6C069F0B7C06AF0B8C06BF090EC3DF0FC
:1040A80068C0E9F069C0EAF06AC0EBF06BC0ECF0F8
:1040B800000156800AD0B5C0E9F0B6C0EAF0B7C032
:1040C800EBF0B8C0ECF000015690DDC086F0DEC021
:1040D80087F0DFC088F0E0C089F0E5C08AF0E6C06C
:1040E8008BF0E7C08CF0E8C08DF007EC37F086C0A5
:1040F800D9F087C0DAF088C0DBF089C0DCF0D9C01D
:104108007BF0DAC07CF0DBC07DF0DCC07EF0E5C07F
:1041180077F0E6C078F0E7C079F0E8C07AF028ECEC
:1041280035F077C0EDF078C0EEF079C0EFF07AC0E6
:10413800F0F0D9C07BF0DAC07CF0DBC07DF0DCC0E9
:104148007EF0EDC077F0EEC078F0EFC079F0F0C007
:104158007AF028EC35F077C0CDF078C0CEF079C091
:10416800CFF07AC0D0F0CDC077F0CEC078F0CFC015
:1041780079F0D0C07AF07B6B7C6B7D6B3F0E7E6FE5
:1041880028EC35F077C0E1F078C0E2F079C0E3F0D0
:104198007AC0E4F0E9C086F0EAC087F0EBC088F0A6
:1041A800ECC089F07B6B7C6B7D6B400E7E6FE1C051
:1041B80077F0E2C078F0E3C079F0E4C07AF028EC58
:1041C80035F077C08AF078C08BF079C08CF07AC06F
:1041D8008DF064EC3AF017E2E9C086F0EAC087F0A7
:1041E800EBC088F0ECC089F08A6B8B6B8C6B400E4F
:1041F8008D6F07EC37F086C0E1F087C0E2F088C029
:10420800E3F089C0E4F0E1C099F0E2C09AF0E3C0BD
:104218009BF0E4C09CF0E9C095F0EAC096F0EBC0D2
:1042280097F0ECC098F0C0EC3BF095C077F096C0E2
:1042380078F097C079F098C07AF0F3C37BF0F4C3B4
:104248007CF0F5C37DF0F6C37EF028EC35F077C03E
:10425800C1F078C0C2F079C0C3F07AC0C4F0C1C060
:10426800ABF0C2C0ACF0C3C0ADF0C4C0AEF0B8ECA7
:1042780037F0ABC011F0ACC012F0ADC013F0AEC057
:1042880014F0E5C07BF0E6C07CF0E7C07DF0E8C044
:104298007EF0F3C377F0F4C378F0F5C379F0F6C392
:1042A8007AF028EC35F060D8BD0E7B6F370E7C6F46
:1042B800860E7D6F420E7E6F28EC35F077C0C5F014
:1042C80078C0C6F079C0C7F07AC0C8F0C5C0ABF0F6
:1042D800C6C0ACF0C7C0ADF0C8C0AEF0B8EC37F09F
:1042E800ABC009F0ACC00AF0ADC00BF0AEC00CF02A
:1042F800DDC07BF0DEC07CF0DFC07DF0E0C07EF08A
:10430800F3C377F0F4C378F0F5C379F0F6C37AF025
:1043180028EC35F029D86F0E7B6F120E7C6F030ED8
:104328007D6F470E7E6F28EC35F077C0C9F078C0F6
:10433800CAF079C0CBF07AC0CCF0C9C0ABF0CAC023
:10434800ACF0CBC0ADF0CCC0AEF0B8EC37F0ABC041
:104358000DF0ACC00EF0ADC00FF0AEC010F06EECBA
:1043680023F00001558E000C77C0EDF078C0EEF018
:1043780079C0EFF07AC0F0F0EDC077F0EEC078F0D9
:10438800EFC079F0F0C07AF01200060E0101FF6F5D
:104398000001CA6BCB6BCC6BCD6BDBD9620E7B6F2C
:1043A800BE0E7C6F3C0E7D6F460E7E6FF3C377F0BA
:1043B800F4C378F0F5C379F0F6C37AF028EC35F059
:1043C80077C0ABF078C0ACF079C0ADF07AC0AEF091
:1043D800B8EC37F0ABC009F0ACC00AF0ADC00BF0D8
:1043E800AEC00CF077D95496559E56880001568871
:1043F800B5EC3DF0DDEC3BF0190E6A6F1A0E696FF3
:1044080011EC3CF0686B010EDFEC3DF0170E6A6FA3
:10441800D50E696F11EC3CF0B5EC3DF0C96FC95190
:10442800030A03E1FE0EC46F34D1C951020A02E146
:10443800C4692FD1C90504E1CA6BCB6BCC6BCD6BBA
:10444800C951040A34E1000E876FCA0E866F96D9E7
:104458008FEC38F08DEC3CF072C077F073C078F0D8
:1044680074C079F075C07AF028EC35F077C088F020
:1044780078C089F079C08AF07AC08BF0AFEC3AF056
:10448800866B876BB40E886F420E896FCAC08AF03C
:10449800CBC08BF0CCC08CF0CDC08DF064EC3AF082
:1044A80006E2CA6BCB6BB40ECC6F420ECD6FC9510E
:1044B800050A34E1000E9E6FCA0E9D6F5FD98FEC1E
:1044C80038F08DEC3CF072C077F073C078F074C0AF
:1044D80079F075C07AF028EC35F077C09FF078C095
:1044E800A0F079C0A1F07AC0A2F0D4EC3AF0CAC02A
:1044F80086F0CBC087F0CCC088F0CDC089F08A6B3D
:104508008B6BB40E8C6FC20E8D6F64EC3AF006E2C2
:10451800CA6BCB6BB40ECC6FC20ECD6FC9AF03D0D4
:10452800C9C0C4F0B6D0060E686F010EDFEC3DF0CE
:10453800CAC0B5F0CBC0B6F0CCC0B7F0CDC0B8F0AB
:10454800020EB96FBA6F010EBB6FD5EC2CF056A0F6
:1045580052D00001CDAF31D0F3C37BF0F4C37CF06F
:10456800F5C37DF0F6C37EF0CAC068F0CBC069F031
:10457800CCC06AF0CDC06BF090EC3DF068C077F02D
:1045880069C078F06AC079F06BC07AF028EC35F031
:10459800B3D828EC35F077C0ABF078C0ACF079C070
:1045A800ADF07AC0AEF0B8EC37F0DED802D059ECF6
:1045B80014F0000153AE6AD0FAD7000EBDD864ECEF
:1045C8003AF010E2010EB1D802D059EC14F0000113
:1045D80053BEFBD7000153BC59D0569856987AD889
:1045E800569047D0010EA1D802D059EC14F0000122
:1045F80053AE4CD0FAD7000E00019ED864EC3AF0C6
:1046080027E2CAC07BF0CBC07CF0CCC07DF0CDC027
:104618007EF0F3C377F0F4C378F0F5C379F0F6C30E
:104628007AF028EC35F068D828EC35F077C0ABF094
:1046380078C0ACF079C0ADF07AC0AEF0B8EC37F025
:1046480093D802D059EC14F0000153AE1FD0FAD71A
:10465800CDAF14D0010E69D802D059EC14F0000186
:1046680053BEFBD7000153BC11D05698569832D888
:1046780056806FD856880001568808D0010E55D844
:1046880002D059EC14F0000153BEFBD759EC14F0DA
:10469800C3D6DDEC3BF0190E6A6F990E696F11EC09
:1046A8003CF0010E0301CC6F000ECD6FCE6FCF6FC3
:1046B800538E02D059EC14F0000153BEFBD7000111
:1046C80053BC05D0569856980001C451120059ECB5
:1046D80014F0E7D7196A1A6A1B6A1C6A0201F46B9C
:1046E800F56BF66BF76BE86BE96BEA6BEB6BEC6BF6
:1046F800ED6BEE6BEF6B120077C0C5F078C0C6F0BB
:1047080079C0C7F07AC0C8F06F0E7B6F120E7C6F4D
:10471800030E7D6F470E7E6FC5C077F0C6C078F078
:10472800C7C079F0C8C07AF0470C0301CC6FCD6BD5
:10473800CE6BCF6B538E000C866B876B886B896B47
:10474800CAC08AF0CBC08BF0CCC08CF0CDC08DF045
:1047580012005580F0C215F0F1C216F0F2C217F03F
:10476800F3C218F055901200ABC0CCF3ACC0CDF337
:10477800ADC0CEF3AEC0CFF3538E1200CD0E7B6F1B
:10478800CC0E7C6F4C0E7D6F3D0E7E6F3D0C010193
:10479800BE6B030EFF6FDDEC3BF0180E6A6F8A0EDE
:1047A800696F11EC3CF07AC472F07BC473F0D1EC01
:1047B8003CF072C0C7F173C0C8F174C0C9F175C0CC
:1047C800CAF1C7C108F1C8C109F1C9C10AF1CAC112
:1047D8000BF101010C6B0D6BB40E0E6F420E0F6FD7
:1047E8004CEC2AF011D059EC14F0B5EC3DF0010175
:1047F800CF6FCF51030A03E1FE0EBE6F78D1CFAF62
:1048080003D0CFC1BEF173D1000155BEECD782C42D
:1048180077F083C478F084C479F085C47AF0000115
:104828007B6B7C6BB40E7D6F430E7E6F28EC35F08E
:1048380077C0C3F178C0C4F179C0C5F17AC0C6F1B8
:1048480004017C51020A08E10101C36B4E0EC46FDA
:10485800ED0EC56F4A0EC66F04017D6712D0C3C145
:1048680068F0C4C169F0C5C16AF0C6C16BF090ECCC
:104878003DF068C0C3F169C0C4F16AC0C5F16BC03E
:10488800C6F1DFEC39F0F9EC3AF072C0C7F173C049
:10489800C8F174C0C9F175C0CAF15590010E000184
:1048A800876FC70E866FF7C388F0F8C389F0F9C31E
:1048B8008AF0FAC38BF08AEC3AF0C7C172F0C8C12B
:1048C80073F0C9C174F0CAC175F0C3C176F0C4C130
:1048D80077F0C5C178F0C6C179F057EC31F072C0F5
:1048E800B2F173C0B3F174C0B4F175C0B5F1DDECC9
:1048F8003BF0170E6A6F0E0E696F11EC3CF0040165
:104908007C51020A12E1DDEC3BF0190E6A6F0B0EC6
:10491800696F11EC3CF0686B010EDFEC3DF0180E8E
:104928006A6F560E696F11EC3CF00001866B876B5D
:10493800800E886F3F0E896F8AC48AF08BC48BF013
:104948008CC48CF08DC48DF007EC37F086C0BAF1BA
:1049580087C0BBF188C0BCF189C0BDF1B5EC3DF0A2
:10496800C3C100F1C4C101F1C5C102F1C6C103F15F
:104978008AC404F18BC405F18CC406F18DC407F117
:10498800F7EC3BF0B2D0DFEC39F0F9EC3AF072C05A
:10499800BFF173C0C0F174C0C1F175C0C2F15590C8
:1049A800010E0001876FBF0E866FF7C388F0F8C34A
:1049B80089F0F9C38AF0FAC38BF08AEC3AF0B2C1F5
:1049C80095F0B3C196F0B4C197F0B5C198F0BFC1E6
:1049D80099F0C0C19AF0C1C19BF0C2C19CF0C0EC73
:1049E8003BF095C0CBF196C0CCF197C0CDF198C003
:1049F800CEF10101CEAF12D0CBC168F0CCC169F0C5
:104A0800CDC16AF0CEC16BF090EC3DF068C0CBF13F
:104A180069C0CCF16AC0CDF16BC0CEF1CBC177F0E3
:104A2800CCC178F0CDC179F0CEC17AF0BAC17BF0B3
:104A3800BBC17CF0BCC17DF0BDC17EF028EC35F077
:104A480077C0B6F178C0B7F179C0B8F17AC0B9F1DA
:104A5800010E0001876FCB0E866F1B0E886F0F0E3D
:104A6800896F360E8A6F3B0E8B6F8AEC3AF0040121
:104A78007C51020A2EE00B0E0001686F000EDFEC7D
:104A88003DF0B6C1CDF0B7C1CEF0B8C1CFF0B9C1D5
:104A9800D0F00E0ED16F000ED26B37EC33F0686B8E
:104AA800010EDFEC3DF0CBC1B5F0CCC1B6F0CDC105
:104AB800B7F0CEC1B8F0050EB96F020EBA6F000E8E
:104AC800BB6BD5EC2CF0190E6A6FC00E696F11EC38
:104AD8003CF0B5EC3DF00101CF6FCF51030A01E185
:104AE8008BD6CFBF8ED659EC14F055BE4CD7559EF9
:104AF800549656880301CC6BCD6BCE6BCF6B0001FF
:104B0800538EDDEC3BF0190E6A6F990E696F11EC4C
:104B18003CF053AE03D0FDD759EC14F0000153BC60
:104B2800FBD7559E549656980101BE511200CEC02F
:104B380086F0CFC087F0D0C088F0D1C089F08A6BEA
:104B4800400E8B6F1C0E8C6F460E8D6F64EC3AF026
:104B580012E2866B400E876F1C0E886FC60E896F37
:104B6800CAC08AF0CBC08BF0CCC08CF0CDC08DF021
:104B780064EC3AF002E3050E4FD084D97A0E8C6FBC
:104B8800440E8D6F64EC3AF011E2866B876B7A0EF7
:104B9800886FC40E896FCAC08AF0CBC08BF0CCC0B6
:104BA8008CF0CDC08DF064EC3AF002E3040E34D002
:104BB80069D9C80E8C6F420E8D6F64EC3AF011E221
:104BC800866B876BC80E886FC20E896FCAC08AF061
:104BD800CBC08BF0CCC08CF0CDC08DF064EC3AF03B
:104BE80002E3030E19D04ED9200E8C6F410E8D6F43
:104BF80064EC3AF010E2866B876B200E886FC10E6A
:104C0800896FCAC08AF0CBC08BF0CCC08CF0CDC005
:104C18008DF064EC3AF0020ED66FD2C086F0D3C0A5
:104C280087F0D4C088F0D5C089F08A6B8B6B800E72
:104C38008C6F3F0E8D6F64EC3AF002E3D76B53D064
:104C4800D2C086F0D3C087F0D4C088F0D5C089F030
:104C5800CD0E8A6FCC0E8B6F8C6F3D0E8D6F64EC12
:104C68003AF002E3010E3ED0D2C086F0D3C087F0FE
:104C7800D4C088F0D5C089F00A0E8A6FD70E8B6F22
:104C8800230E8C6F3C0E8D6F64EC3AF002E3020E3B
:104C980029D0D2C086F0D3C087F0D4C088F0D5C060
:104CA80089F06F0E8A6F120E8B6F830E8C6F3A0E1F
:104CB8008D6F64EC3AF002E3030E14D0D2C086F094
:104CC800D3C087F0D4C088F0D5C089F0170E8A6F9A
:104CD800B70E8B6FD10E8C6F380E8D6F64EC3AF077
:104CE80002E3040ED76FC8C0D9FFC9C0DAFFDECF10
:104CF800D9F0DECFDAF0DECFDBF0DECFDCF0DDECB2
:104D08003BF0C4C069F0C5C06AF011EC3CF0686BB8
:104D1800010EDFEC3DF0C1D8D5EC2CF0C6C069F02F
:104D2800C7C06AF011EC3CF0686B010EDFEC3DF097
:104D3800B4D8D5EC2CF013EC3DF0D86FD8AF92D0A6
:104D4800D8511200C8C0D9FFC9C0DAFFD9C0DEFFE8
:104D5800DAC0DEFFDBC0DEFFDCC0DEFF000CFE0CCD
:104D6800FF0C000E876FD90E866FD2C07BF0D3C0C0
:104D78007CF0D4C07DF0D5C07EF08FEC38F08DEC9F
:104D88003CF072C077F073C078F074C079F075C0E9
:104D98007AF028EC35F077C088F078C089F079C0CF
:104DA8008AF07AC08BF0AFEC3AF0CEC086F0CFC074
:104DB80087F0D0C088F0D1C089F0D9C08AF0DAC0B5
:104DC8008BF0DBC08CF0DCC08DF064EC3AF0ACE228
:104DD800CEC0D9F0CFC0DAF0D0C0DBF0D1C0DCF063
:104DE800A3D7000E9E6FD90E9D6FD2C07BF0D3C0A3
:104DF8007CF0D4C07DF0D5C07EF08FEC38F08DEC1F
:104E08003CF072C077F073C078F074C079F075C068
:104E18007AF028EC35F077C09FF078C0A0F079C020
:104E2800A1F07AC0A2F0D4EC3AF0D9C086F0DAC08A
:104E380087F0DBC088F0DCC089F0CAC08AF0CBC03C
:104E48008BF0CCC08CF0CDC08DF064EC3AF001E36F
:104E58006BD7CAC0D9F0CBC0DAF0CCC0DBF0CDC07C
:104E6800DCF062D7D851010A01E16CD7030A01E1ED
:104E780077D7010A01E173D7070A01E172D7010A5E
:104E8800B0E052D7CEC086F0CFC087F0D0C088F04F
:104E9800D1C089F08A6B8B6B1200D9C0B5F0DAC02B
:104EA800B6F0DBC0B7F0DCC0B8F0D6C0B9F0D7C0F8
:104EB800BAF0010EBB6F010C79AF0DD02D0E44EC8A
:104EC8003CF0766D771FD8B0772B781FD8B0782B49
:104ED800000E795705D07B5103E02B0E44EC3CF0D3
:104EE80076C068F077C069F078C06AF079C06BF076
:104EF8006C6BCA0E6D6F9A0E6E6F3B0E6F6FEEEC99
:104F080035F033D96C6BCA0E6D6F9A0E6E6F3B0E0F
:104F18006F6F3EEC3AF03AD9090E7A6503D07C51AE
:104F280044EC3CF076C068F077C069F078C06AF06D
:104F380079C06BF06C6BE10E6D6FF50E6E6F050E40
:104F48006F6FEEEC35F011D96C6BE10E6D6FF50EED
:104F58006E6F050E6F6F3EEC3AF018D9080E7A6541
:104F680003D07C5144EC3CF076C068F077C069F01F
:104F780078C06AF079C06BF0800E6C6F960E6D6F1A
:104F8800980E6E6F000E6F6BEEEC35F0EED8800E5B
:104F98006C6F960E6D6F980E6E6F000E6F6B3EEC19
:104FA8003AF0F4D8070E7A6503D07C5144EC3CF013
:104FB80076C068F077C069F078C06AF079C06BF0A5
:104FC800400E6C6F420E6D6F0F0E6E6F000E6F6BA2
:104FD800EEEC35F0CAD8400E6C6F420E6D6F0F0EB6
:104FE8006E6F000E6F6B3EEC3AF0D0D8060E7A6505
:104FF80003D07C5144EC3CF076C068F077C069F08F
:1050080078C06AF079C06BF0A00E6C6F860E6D6F79
:10501800010E6E6F000E6F6BEEEC35F0A6D8A00E89
:105028006C6F860E6D6F010E6E6F000E6F6B3EEC2F
:105038003AF0ACD8050E7A6503D07C5144EC3CF0CC
:1050480076C068F077C069F078C06AF079C06BF014
:10505800100E6C6F270E6D6F000E6E6B6F6BEEECA3
:1050680035F083D8100E6C6F270E6D6F000E6E6BC7
:105078006F6B3EEC3AF08AD8040E7A6503D07C5107
:1050880044EC3CF076C068F077C069F078C06AF00C
:1050980079C06BF0E80E6C6F030E6D6F000E6E6BCF
:1050A8006F6BEEEC35F061D8E80E6C6F030E6D6F28
:1050B800000E6E6B6F6B3EEC3AF068D8030E7A65A3
:1050C80003D07C5144EC3CF076C068F077C069F0BE
:1050D80078C06AF079C06BF0640E6C6F000E6D6B6F
:1050E8006E6B6F6BEEEC35F040D8640E6C6F000E93
:1050F8006D6B6E6B6F6B3EEC3AF048D8020E7A65BA
:1051080003D07C5144EC3CF076C068F077C069F07D
:1051180078C06AF079C06BF00A0E6C6F000E6D6B88
:105128006E6B6F6BEEEC35F020D80A0E6C6F000ECC
:105138006D6B6E6B6F6B3EEC3AF028D8010E7A659A
:1051480003D07C5144EC3CF076C07CF077C07DF015
:1051580078C07EF079C07FF0300E7C27000E7D236A
:105168007E237F237C5144EF3CF068C07CF069C00B
:105178007DF06AC07EF06BC07FF07CC068F07DC0B7
:1051880069F07EC06AF07FC06BF012006851765FEC
:105198006951775B6A51785B6B51795B300E7C277C
:1051A800000E7D237E237F23000C0001B7AF13D0B0
:1051B800B4C068F0B5C069F0B6C06AF0B7C06BF0AB
:1051C80090EC3DF068C0D8F069C0D9F06AC0DAF058
:1051D8006BC0DBF008D0B4C0D8F0B5C0D9F0B6C009
:1051E800DAF0B7C0DBF0D8C077F0D9C078F0DAC011
:1051F80079F0DBC07AF07B6B7C6B7D6B3F0E7E6F4A
:1052080028EC35F077C0B8F078C0B9F079C0BAF0BA
:105218007AC0BBF0E9C386F0EAC387F0EBC388F035
:10522800ECC389F0E5C38AF0E6C38BF0E7C38CF0E2
:10523800E8C38DF007EC37F086C0DCF087C0DDF0FE
:1052480088C0DEF089C0DFF012D928EC35F0E0D84C
:1052580028EC35F0F6D828EC35F077C0C8F078C0DF
:10526800C9F079C0CAF07AC0CBF0B8C086F0B9C02E
:1052780087F0BAC088F0BBC089F0C8C08AF0C9C03E
:105288008BF0CAC08CF0CBC08DF064EC3AF035E2FC
:10529800D8C086F0D9C087F0DAC088F0DBC089F0C2
:1052A800E5C38AF0E6C38BF0E7C38CF0E8C38DF062
:1052B80007EC37F086C0A3F087C0A4F088C0A5F03B
:1052C80089C0A6F005EC32F0A3C0DCF0A4C0DDF084
:1052D800A5C0DEF0A6C0DFF0CAD828EC35F098D813
:1052E80028EC35F0AED828EC35F077C0C8F078C097
:1052F800C9F079C0CAF07AC0CBF0E5C377F0E6C34D
:1053080078F0E7C379F0E8C37AF0DCC07BF0DDC061
:105318007CF0DEC07DF0DFC07EF028EC35F077C091
:10532800BCF078C0BDF079C0BEF07AC0BFF0D8C07C
:1053380095F0D9C096F0DAC097F0DBC098F07B6B97
:105348007C6B7D6B400E7E6FC8C077F0C9C078F06B
:10535800CAC079F0CBC07AF028EC35F077C099F064
:1053680078C09AF079C09BF07AC09CF0C0EC3BF012
:1053780095C0C0F096C0C1F097C0C2F098C0C3F005
:10538800C0C086F0C1C087F0C2C088F0C3C089F031
:10539800BCC08AF0BDC08BF0BEC08CF0BFC08DF021
:1053A80007EC37F086C0C4F087C0C5F088C0C6F0E7
:1053B80089C0C7F0DCC077F0DDC078F0DEC079F0D6
:1053C800DFC07AF07B6B7C6B7D6B400E7E6F28ECC8
:1053D80035F077C0D4F078C0D5F079C0D6F07AC06F
:1053E800D7F0000E876FD40E866FC4C088F0C5C092
:1053F80089F0C6C08AF0C7C08BF0AFEC3AF0D4C0D1
:10540800B4F0D5C0B5F0D6C0B6F0D7C0B7F012002A
:1054180077C0CCF078C0CDF079C0CEF07AC0CFF0AC
:10542800DCC07BF0DDC07CF0DEC07DF0DFC07EF04C
:10543800CCC077F0CDC078F0CEC079F0CFC07AF08C
:10544800120077C0D0F078C0D1F079C0D2F07AC01D
:10545800D3F0D0C077F0D1C078F0D2C079F0D3C003
:105468007AF07B6B7C6B7D6B3F0E7E6F3F0CDCC0F4
:105478007BF0DDC07CF0DEC07DF0DFC07EF0E5C3F0
:1054880077F0E6C378F0E7C379F0E8C37AF0120062
:105498000FAF13D00CC168F00DC169F00EC16AF0EE
:1054A8000FC16BF090EC3DF068C014F169C015F1C4
:1054B8006AC016F16BC017F108D00CC114F10DC108
:1054C80015F10EC116F10FC117F101010BAF27D06D
:1054D80008C128F12DD908D0010E0001876F280EC8
:1054E800B0EC34F0AFEC3AF028C186F029C187F06F
:1054F8002AC188F02BC189F000018A6B8B6BB40E2E
:105508008C6FC30E8D6F64EC3AF0E6E3010E000178
:10551800876F280EB0EC34F0AFEC3AF023D008C116
:1055280028F106D90DD0010E00019E6F280E9D6F3F
:105538009F6BA06BB40EA16F430EA26FD4EC3AF030
:105548000001866B876BB40E886F430E896F28C184
:105558008AF029C18BF02AC18CF02BC18DF064EC44
:105568003AF0E1E33FEC34F0A3C024F1A4C025F104
:10557800A5C026F1A6C027F124C186F025C187F071
:1055880026C188F027C189F028C18AF029C18BF08B
:105598002AC18CF02BC18DF064EC3AF039E228C1B5
:1055A80095F029C196F02AC197F02BC198F024C133
:1055B80099F025C19AF026C19BF027C19CF0C0EC58
:1055C8003BF095C018F196C019F197C01AF198C030
:1055D8001BF128C199F029C19AF02AC19BF02BC16F
:1055E8009CF09FD8C0EC3BF08BD824C176F025C145
:1055F80077F026C178F027C179F057EC31F072C006
:105608001CF173C01DF174C01EF175C01FF138D0B4
:1056180024C199F025C19AF026C19BF027C19CF0BE
:1056280080D8C0EC3BF06CD828C176F029C177F05F
:105638002AC178F02BC179F057EC31F072C018F11B
:1056480073C019F174C01AF175C01BF124C195F02B
:1056580025C196F026C197F027C198F028C199F086
:1056680029C19AF02AC19BF02BC19CF0C0EC3BF0F9
:1056780095C01CF196C01DF197C01EF198C01FF18E
:1056880018C186F019C187F01AC188F01BC189F0CA
:105698001CC18AF01DC18BF01EC18CF01FC18DF09A
:1056A80064EC3AF009E218C100F119C101F11AC11C
:1056B80002F11BC103F11AD01CC168F01DC169F0C9
:1056C8001EC16AF01FC16BF090EC3DF068C010F18C
:1056D80069C011F16AC012F16BC013F110C100F179
:1056E80011C101F112C102F113C103F114C104F196
:1056F80015C105F116C106F117C107F1F7EF3BF027
:1057080095C020F196C021F197C022F198C023F1ED
:1057180020C172F021C173F022C174F023C175F069
:105728001200956B966BB40E976F430E986F430CEF
:1057380009C129F10AC12AF10BC12BF11200B7AF37
:1057480008D0B4C077F023D9BF0E7E6F28EC35F0AF
:1057580007D0B4C077F01BD93F0E7E6F28EC35F028
:1057680077C0CCF078C0CDF079C0CEF07AC0CFF059
:10577800BBAF08D0B8C077F000D9BF0E7E6F28EC59
:1057880035F007D0B8C077F0F8D83F0E7E6F28EC18
:1057980035F077C0D0F078C0D1F079C0D2F07AC0B7
:1057A800D3F0866B876B800E886F450E896FD0C0EB
:1057B8008AF0D1C08BF0D2C08CF0D3C08DF064ECED
:1057C8003AF01BE2CCC086F0CDC087F0CEC088F09E
:1057D800CFC089F0D0C08AF0D1C08BF0D2C08CF095
:1057E800D3C08DF007EC37F086C0B4F087C0B5F0B1
:1057F80088C0B6F089C0B7F01200D0C07BF0D1C025
:105808007CF0D2C07DF0D3C07EF0D0C077F0D1C09C
:1058180078F0D2C079F0D3C07AF028EC35F077C0B0
:1058280095F078C096F079C097F07AC098F0E5C303
:105838008AF0E6C38BF0E7C38CF0E8C38DF07B6B8E
:105848007C6B7D6B400E7E6FCCC077F0CDC078F05E
:10585800CEC079F0CFC07AF028EC35F077C086F06A
:1058680078C087F079C088F07AC089F007EC37F003
:1058780086C099F087C09AF088C09BF089C09CF0D8
:10588800C0EC3BF095C0C4F096C0C5F097C0C6F018
:1058980098C0C7F0C7AF08D0000EB46FB56F800EC0
:1058A800B66FBF0EB76FBF0CC4C0A3F0C5C0A4F0DD
:1058B800C6C0A5F0C7C0A6F005EC32F0A3C0C0F082
:1058C800A4C0C1F0A5C0C2F0A6C0C3F0D0C095F076
:1058D800D1C096F0D2C097F0D3C098F0C0C099F06C
:1058E800C1C09AF0C2C09BF0C3C09CF0C0EC3BF0B2
:1058F80095C0BCF096C0BDF097C0BEF098C0BFF090
:10590800E5C377F0E6C378F0E7C379F0E8C37AF047
:10591800BCC07BF0BDC07CF0BEC07DF0BFC07EF0D7
:1059280028EC35F077C0C8F078C0C9F079C0CAF063
:105938007AC0CBF0E9C386F0EAC387F0EBC388F0FE
:10594800ECC389F0C8C08AF0C9C08BF0CAC08CF01B
:10595800CBC08DF064EC3AF007E2000EB46FB56F7F
:10596800B66FC00EB76FC00CC8C0B4F0C9C0B5F0F0
:10597800CAC0B6F0CBC0B7F01200B9C078F0BAC050
:1059880079F0BBC07AF07B6B7C6B7D6B1200B5C085
:1059980078F0B6C079F0B7C07AF07B6B7C6B7D6B22
:1059A8001200B5C0ABF0B6C0ACF0B7C0ADF0B8C02F
:1059B800AEF0B8EC37F0ABC0BCF0ACC0BDF0ADC0D9
:1059C800BEF0AEC0BFF0BB5119E0BF51BC11BD1154
:1059D800BE1114E1B8AF04D02D0E44EC3CF003D056
:1059E8002B0E44EC3CF0000E766B776B786B796B82
:1059F800B9C07AF07B6B60EC27F00ED0BCC076F0B3
:105A0800BDC077F0BEC078F0BFC079F0B9C07AF0F9
:105A1800BBC07BF060EC27F0000E9E6FB50E9D6F4B
:105A2800BCC072F0BDC073F0BEC074F0BFC075F0EA
:105A3800F9EC3AF072C09FF073C0A0F074C0A1F006
:105A480075C0A2F0D4EC3AF0B8AF17D0000E956B41
:105A5800966B976B986BB5C099F0B6C09AF0B7C0C3
:105A68009BF0B8C09CF0C0EC3BF095C0B5F096C078
:105A7800B6F097C0B7F098C0B8F0000E876FB50EB3
:105A8800866F886B500E896FC30E8A6F470E8B6FB7
:105A98008AEC3AF0B5C0ABF0B6C0ACF0B7C0ADF028
:105AA800B8C0AEF0B8EC37F0ABC0C0F0ACC0C1F0D5
:105AB800ADC0C2F0AEC0C3F0BA51D8B412002E0EB9
:105AC80044EC3CF0BA0514E1C0C068F0C1C069F00C
:105AD800C2C06AF0C3C06BF0100E6C6F270E6D6FFA
:105AE800000E6E6B6F6BEEEC35F056D8010E50D091
:105AF800BA51020A14E1C0C068F0C1C069F0C2C05E
:105B08006AF0C3C06BF0E80E6C6F030E6D6F000E89
:105B18006E6B6F6BEEEC35F03FD8020E39D0BA5190
:105B2800030A13E1C0C068F0C1C069F0C2C06AF0DE
:105B3800C3C06BF0640E6C6F000E6D6B6E6B6F6B99
:105B4800EEEC35F029D8030E23D0BA51040A13E13C
:105B5800C0C068F0C1C069F0C2C06AF0C3C06BF0D1
:105B68000A0E6C6F000E6D6B6E6B6F6BEEEC35F0A2
:105B780013D8040E0DD0BA51050AD8A41200C0C01B
:105B880076F0C1C077F0C2C078F0C3C079F0050ED6
:105B98007A6F7B6B60EF27F068C0C0F069C0C1F016
:105BA8006AC0C2F06BC0C3F0C0C076F0C1C077F065
:105BB800C2C078F0C3C079F012000201E56BE46B53
:105BC800BBEC3CF08D988C9E196A1A6A1B6A1C6A99
:105BD800E86BE96BEA6BEB6BEC6BED6BEE6BEF6B09
:105BE800E66B280E0201E625D96EDA6A050EDA227E
:105BF800DF68E62B0F0EE665F4D75DEC3CF0AAEC07
:105C080036F0EBEC3DF0DDEC3BF0180E6A6FEC0E75
:105C1800696F11EC3CF0686B010EDFEC3DF0190E7A
:105C28006A6FDA0E696F11EC3CF01A0E0201C96F47
:105C3800300EC86F190ECB6F290ECA6F1A0ECD6FB2
:105C48003C0ECC6F190ECF6F1A0ECE6F180ED16F97
:105C58009B0ED06F190ED36FE70ED26F170ED56F4C
:105C6800880ED46FC8C2D6F2C9C2D7F2CAC2D8F257
:105C7800CBC2D9F2CEC2DAF2CFC2DBF2CCC2DCF2AE
:105C8800CDC2DDF2D0C2DEF2D1C2DFF2D2C2E0F282
:105C9800D3C2E1F2D4C2E2F2D5C2E3F200015496D3
:105CA800DDEC3BF056845694010E0101FF6F020EA5
:105CB80000018F6FD60E8E6F060E906FE5C291F0C1
:105CC800A6EC30F00201E76F5FD0E56B59EC0DF000
:105CD8000201E76FE751FE0AD8B4C9EC21F00201CE
:105CE800E729D8B4C9EC21F00201E751800A820FF4
:105CF8004BE3DAD7010EE56F85EC17F00201E76F89
:105D0800E751800A820F40E3E7AFCED7C9EC21F014
:105D180038D0030EE56F8FEC35F00201E76FE72905
:105D2800C3E0E751FE0AC0E0E751800A820F2CE386
:105D3800E7C2E4F2E451D1EC38F023D0E56BC9ECCA
:105D480021F01FD0E56B4CEC38F01BD0E56BC0ECB4
:105D580033F0AAD7E56B09EC11F013D0010ED1ECA2
:105D680038F00FD0020ED1EC38F00BD0030ED1EC86
:105D780038F007D0040ED1EC38F003D0050ED1EC82
:105D880038F00201E76FB1D7E7519FE0010AB2E0AE
:105D9800030AD4E0010ABDE0070AD4E0010AD6E00C
:105DA800030AD8E0C30AD2E0030AD4E0010AC6E035
:105DB8000F0AA0E0010A89E0030AE0E0010ADAE03C
:105DC800070AD4E0010ACEE0030AC8E06DD7000153
:105DD800656B666B9EAA01D001D02ED0AECF67F05E
:105DE8006751400AD8A401D001D005D0286A000123
:105DF800539A0001538800016751230AD8A401D09F
:105E080001D004D00001538A000153982828D8A44F
:105E180001D001D001D0286A000153A801D001D0D7
:105E28000BD00701000E2824D96EDA6A070EDA2291
:105E3800000167C0DFFF282AF2A201D001D018D0E4
:105E480081A201D001D00AD0010E0301FC27000E67
:105E5800FD23000EFE23000EFF2309D0FF0E0301D1
:105E6800FC27FF0EFD23FF0EFE23FF0EFF23F292F9
:105E78009EAC01D001D03CD0000153A401D001D088
:105E88001BD0C250830B1009C26E0001539400014D
:105E9800C4CF63F0646B6351646F636BC350632753
:105EA800000E6423000154BC01D001D01FD063C090
:105EB800FCF264C0FDF21AD0C250830B2C09C26EEA
:105EC800000153840001C4CF65F0666B6551666FAD
:105ED800656BC3506527000E6623000154BE01D0D0
:105EE80001D004D065C023F066C024F0C2829E9C15
:105EF800F2A401D001D051D0FE0ED76E830ED66E1B
:105F0800F294AB30E832010B0001606FAB30010B4B
:105F180060110009D8B401D001D00CD0AB9800F0C2
:105F2800AB88AECF67F0AECF67F0286A0001539A0E
:105F380000015398ACA201D001D013D02950D8B495
:105F480001D001D00ED00601000E0101FE25D96E48
:105F5800DA6A0601060EDA22DF50AD6E0101FE2B69
:105F68002906000154A201D001D007D000015492A3
:105F78000301FC6BFD6BFE6BFF6B000155B001D09C
:105F880001D008D0FCC3F0F2FDC3F1F2FEC3F2F277
:105F9800FFC3F3F200010001567A62C0DAFF61C064
:105FA800D9FF1100B5C0C9F0B6C0CAF0B7C0CBF070
:105FB800B8C0CCF0C9C077F0CAC078F0CBC079F0CF
:105FC800CCC07AF0BB0E7B6FA20E7C6F910E7D6FFA
:105FD800390E7E6F28EC35F088D8B8EC37F0AB5125
:105FE800B9C0D9FFBAC0DAFFDF6EB9C0D9FFBAC0ED
:105FF800DAFFDF508DEC3CF089D8610E8A6F450ED0
:106008008B6F8AEC3AF091D8D4EC3AF0C9C077F0AB
:10601800CAC078F0CBC079F0CCC07AF0890E7B6F1B
:10602800880E7C6F7D6F3C0E7E6F28EC35F05DD856
:10603800B8EC37F0AB51BBC0D9FFBCC0DAFFDF6E9C
:10604800BBC0D9FFBCC0DAFFDF508DEC3CF05ED896
:10605800700E8A6F420E8B6F8AEC3AF066D8D4ECD9
:106068003AF0C9C0ABF0CAC0ACF0CBC0ADF0CCC000
:10607800AEF0B8EC37F0AB51BDC0D9FFBEC0DAFF07
:10608800DF6E000E9E6FC90E9D6FBDC0D9FFBEC0EA
:10609800DAFFDF508DEC3CF072C09FF073C0A0F0C7
:1060A80074C0A1F075C0A2F0D4EC3AF0000E876F6E
:1060B800C90E866F886B896B7A0E8A6F440E8B6F58
:1060C8008AEC3AF0C9C0ABF0CAC0ACF0CBC0ADF0B6
:1060D800CCC0AEF0B8EC37F0BFC0D9FFC0C0DAFF13
:1060E800ABC0DEFFACC0DDFF120077C0C1F078C0E6
:1060F800C2F079C0C3F07AC0C4F0C1C0ABF0C2C06E
:10610800ACF0C3C0ADF0C4C0AEF0120072C0C5F0B0
:1061180073C0C6F074C0C7F075C0C8F0000E876FB2
:10612800C50E866F886B896B1200000E9E6FC90EB4
:106138009D6FC5C09FF0C6C0A0F0C7C0A1F0C8C081
:10614800A2F01200956B976B91C097F0DDEC3BF0D5
:1061580095512DE0010E686F000EDFEC3DF097675A
:106168000FD09051020DF3508E25D96E000E8F215D
:10617800DA6EDECF69F0DDCF6AF011EC3CF008D0C2
:106188009751020DF3CF92F0FE0E72D811EC3CF04D
:10619800686B010EDFEC3DF02A0E44EC3CF055D85C
:1061A80011EC3CF0686B010EDFEC3DF023D02A0EB9
:1061B80044EC3CF04AD811EC3CF0010E686FDFEC7F
:1061C8003DF068D80BE18EC0D9FF8FC0DAFFDECF73
:1061D80069F0DDCF6AF011EC3CF008D09751020D60
:1061E800F3CF92F0020E44D811EC3CF0000E686B2D
:1061F800DFEC3DF013EC3DF0966F96AF18D096C0EB
:1062080097F021D097691FD0FE0E976F1CD0010E12
:10621800956F40D803E190C097F098D7972B96D701
:10622800956B976702D0976B91D797078FD7965141
:10623800010A09E0030AE6E0010AE6E0070AE7E0E6
:10624800010AEEE083D7975112009751020DF350DF
:106258008E25926FE86AF3BEE8688F21936F92C02B
:10626800D9FF93C0DAFFDECF69F0DDCF6AF0120004
:10627800922792518E25936FE86A92BFE8688F2122
:10628800946F93C0D9FF94C0DAFFDECF69F0DDCFF9
:106298006AF01200905197C092F0936B92BF9307E7
:1062A8009219931112000001743575357D6F783598
:1062B80079357C6F7D5109E07C517D610FD07D512E
:1062C8007C5D7A6F210E7A5D09E376C072F077C043
:1062D80073F078C074F079C075F012007C5109E051
:1062E8007D517C610FD07C517D5D7A6F210E7A5D86
:1062F80009E372C072F073C073F074C074F075C0B3
:1063080075F01200060E7B6F75BF7B8F79BF7B8D92
:10631800748F756B788F796B7C517D6119D0D890AB
:1063280076377737783779377C077C517D190CE0D9
:106338007B0700017B51070B07E0F1D7D890753335
:106348007433733372337D2B7C517D63F7D71BD045
:106358007D517C6118D0D890723773377437753790
:106368007D077C517D190CE07B0700017B51070BF1
:1063780007E0F1D7D89079337833773376337C2BAD
:106388007C517D63F7D77BAF09D0721F731F741FD1
:10639800751F722B000E7323742375237BAD02D0F7
:1063A800761F26D87B6B72517627735177237451E9
:1063B80078237551792379AF04D0761F19D8010E47
:1063C8007B6F76C068F077C069F078C06AF079C0F2
:1063D8006BF07DC06CF07BC06DF04CEC36F068C0A3
:1063E80072F069C073F06AC074F06BC075F0120087
:1063F800771F781F791F762B000E77237823792350
:10640800000C000E866B876B886B896BA3C08AF0C3
:10641800A4C08BF0A5C08CF0A6C08DF064EC3AF057
:1064280005E3A36BA46BA56BA66B1200A3C0A7F032
:10643800A4C0A8F0A5C0A9F0A6C0AAF0A3515E0800
:10644800B06FC80EA455B16F6E0EA555B26FBE0ED3
:10645800A655B36FD890B333B233B133B033D880C5
:10646800000EA85B800EA95B000EAA5B040EAB6F42
:10647800B0C077F0B1C078F0B2C079F0B3C07AF0AC
:10648800A7C07BF0A8C07CF0A9C07DF0AAC07EF0B0
:1064980028EC35F077C0ACF078C0ADF079C0AEF03C
:1064A8007AC0AFF03CD88AEC3AF039D88AEC3AF0A6
:1064B800000E876FB00E866F886B896BC00E8A6F6F
:1064C8003F0E8B6F8AEC3AF0000E9E6FB00E9D6FF8
:1064D800ACC09FF0ADC0A0F0AEC0A1F0AFC0A2F0BC
:1064E800D4EC3AF0AB2FC4D7B0C077F0B1C078F095
:1064F800B2C079F0B3C07AF0A3C07BF0A4C07CF03E
:10650800A5C07DF0A6C07EF028EC35F077C0A3F0DA
:1065180078C0A4F079C0A5F07AC0A6F01200000EE9
:10652800876FAC0E866FB0C088F0B1C089F0B2C07A
:106538008AF0B3C08BF01200E8CF90F0905186D863
:10654800100E6C6F0E0E6D6F000E6E6B6F6B3EEC67
:106558003AF067D8F9EC3AF072C088F073C089F065
:1065680074C08AF075C08BF0AFEC3AF08C516ED8DD
:106578003C0E6C6F000E6D6B6E6B6F6B3EEC3AF001
:1065880050D8F9EC3AF072C088F073C089F074C042
:106598008AF075C08BF0AFEC3AF0000E876F990E59
:1065A800866F8D518DEC3CF072C088F073C089F015
:1065B80074C08AF075C08BF0AFEC3AF08EC072F000
:1065C8008FC073F0A2EC3BF072C091F073C092F0F0
:1065D80074C093F075C094F0000E876F910E866FAB
:1065E8006F0E886F120E896F830E8A6F3A0E8B6F4B
:1065F8008AEC3AF0000E876F990E866F91C088F08A
:1066080092C089F093C08AF094C08BF0AFEC3AF056
:1066180099C08CF09AC08DF09BC08EF09CC08FF012
:10662800120068C095F069C096F06AC097F06BC018
:1066380098F0000E876F990E866F95C072F096C01D
:1066480073F097C074F098C075F01200956F966B50
:10665800976B986B95C068F096C069F097C06AF020
:1066680098C06BF01200CDC0B5F0CEC0B6F0CFC068
:10667800B7F0D0C0B8F0000EBA6FD30EB96F000EE5
:10668800BC6FD40EBB6F000EBE6FD50EBD6F000E73
:10669800C06FD60EBF6FD6EC2FF0D6C068F0D7C04B
:1066A80069F06B6B640E6A6F0EEC39F068C0D6F057
:1066B80069C0D7F0D1A70ED0D2A703D03C0E44ECC6
:1066C8003CF0D35151D860EC27F0D2A703D03E0E4E
:1066D80044EC3CF0D1A513D0D1A703D03A0E44EC3A
:1066E8003CF0D2A503D03C0E44EC3CF0D4513CD84D
:1066F80060EC27F0D2A503D03E0E44EC3CF0D1A3C9
:1067080013D0D1A503D03A0E44EC3CF0D2A303D069
:106718003C0E44EC3CF0D55127D860EC27F0D2A3CE
:1067280003D03E0E44EC3CF0D1A11200D1A303D01B
:106738002E0E44EC3CF0D2A103D03C0E44EC3CF0CD
:10674800D6C076F0D7C077F0000E77BFFF0E786F0F
:10675800796F010E7A6F000E7B6B60EC27F0D2A187
:1067680012003E0E44EF3CF0766F776B786B796BD6
:10677800020E7A6F7B6B000C070E0101FF6FDDECD8
:106788003BF0190E6A6FED0E696F11EC3CF0568400
:106798005380000153B0FDD759EC14F0B5EC3DF02F
:1067A8009A6F9A51800A820F1BE262D0EAEC39F0A4
:1067B80086C096F087C097F088C098F089C099F095
:1067C800000E876F960E866F886B400E896F9C0E41
:1067D8008A6F450E8B6FAFEC3AF0936B946B09D0D0
:1067E8009A51030AE3E09569950700019529D4E0D9
:1067F800FBD759EC14F0B5EC3DF09A6F9A51800A2A
:10680800820F36E3EAEC39F086C08EF087C08FF04D
:1068180088C090F089C091F096C086F097C087F044
:1068280098C088F099C089F08EC08AF08FC08BF02C
:1068380090C08CF091C08DF064EC3AF0A9E30DD0D3
:10684800934B942B9451800A800F090ED8B4935D12
:106858000FE208D0936B946B05D09A51040AF0E0CC
:10686800010AF8E09569950700019529C2E0FBD770
:10687800000156941200DFEC39F0F9EC3AF072C0DE
:10688800A7F073C0A8F074C0A9F075C0AAF055901D
:106898000001000E876FA70E866FF7C388F0F8C354
:1068A80089F0F9C38AF0FAC38BF08AEC3AF0000E4B
:1068B800866B876B886B896BA7C08AF0A8C08BF042
:1068C800A9C08CF0AAC08DF064EC3AF00DE324D096
:1068D800000E9E6FA70E9D6F9F6BA06BB40EA16FED
:1068E800430EA26FD4EC3AF0866B876BB40E886FB8
:1068F800430E896FA7C08AF0A8C08BF0A9C08CF09E
:10690800AAC08DF064EC3AF01EE2E2D7000E876F61
:10691800A70E22D8AFEC3AF0A7C086F0A8C087F03F
:10692800A9C088F0AAC089F08A6B8B6BB40E8C6FF3
:10693800C30E8D6F64EC3AF0E9E3000E876FA70E83
:106948000BD8AFEC3AF0A7C0A3F0A8C0A4F0A9C038
:10695800A5F0AAC0A6F01200866F886B896BB40EEA
:106968008A6F430E8B6F430C060ED06FD16BD26BC0
:10697800D36B050ED56FBE0ED46FAD0ED76FD66B29
:10698800060ED86F7A0ED96F720EDA6FC80EDB6FEB
:10699800670EDC6F430EDD6FA60EDE6F5F0EDF6FD6
:1069A8008D0EE06F3B0EE16F130EE46F880EE36F00
:1069B800010EE26FE56BE66B340EE76F430EE86F8E
:1069C800E96BEA6B340EEB6F430EEC6FEE6B400E27
:1069D800ED6FF06B100EEF6FF26B200EF16FF36B33
:1069E800F46B8C0EF56F410EF66FA20EF76F0E0E5C
:1069F800F86F6A0EF96F3D0EFA6FAA0EFB6F000171
:106A0800756B000E716F750E706F000EA4EC3CF084
:106A1800000E716F750E706F010EA4EC3CF0000E45
:106A2800716F750E706F020EA4EC3CF0000E716F62
:106A3800750E706F030EA4EC3CF0000E716F750EAE
:106A4800706F040EA4EF3CF0000179357A357F6F42
:106A58007F6705D0776B786B796B7A6B12000001D2
:106A68007D357E35856F856705D0776B786B796B5B
:106A78007A6B120085517B0F7F277AC085F0000161
:106A88007E51851B800E8517798F7D8F7E6B806B7D
:106A9800816B826B836B070E846F77A102D07B5169
:106AA8002BD832D87B377C377D377E37842FF5D784
:106AB800110E846F77A102D07B511ED825D883335D
:106AC800823381338033842FF5D780C068F081C04A
:106AD80069F082C06AF083C06BF07FC06CF085C03B
