:04100000C6EF0CF03B
:10100800D9CF64F0DACF65F0F6CF66F0B0EF30F004
:10101800D8CF19F0E8CF1AF0E0CF1BF0D9CF1CF0E9
:10102800DACF1DF0F6CF1EF0F7CF1FF0F8CF20F083
:10103800F5CF21F0830ECF6E1A0ECE6E9E90010E64
:101048000301CC27000ECD23000ECE23000ECF23A4
:1010580000013DB801D001D008D0CCC3F8F2CDC30F
:10106800F9F2CEC3FAF2CFC3FBF200013EAE01D0D3
:1010780001D00FD00301CC51D05DCD51D159CE5103
:10108800D259CF51D359D8B001D001D002D00001E4
:101098003E9E51505010D8B401D001D008D050060F
:1010A800D8A0510600013EA601D001D003D000010E
:1010B8003B9A02D000013B8AD8905736D8905736D1
:1010C8008138E8461F0B030B57120F0E5716200ED8
:1010D8005724F66EF76A1A0EF722F86A000EF822FD
:1010E8000800F550555E582A5828D8A401D001D0D8
:1010F80004D0586A556A00013C845550800A7D0F17
:10110800D8A001D001D010D0040E546E00013B824B
:10111800E7C350F0E8C351F000013B80020158C01A
:10112800FCF2FD6B586A556A5550800A820FD8B098
:1011380001D001D010D0050E546E00013B82E7C3E8
:1011480050F0E8C351F000013B80020158C0FCF2A6
:10115800FD6B586A556A81B401D001D007D0524A54
:10116800532AE7C350F0E8C351F016D0020E525C80
:10117800000E5358D8A001D001D00CD0C80E525C34
:10118800000E5358D8B001D001D004D0010E546ECF
:1011980000013B82526A536AB10E525C040E5358E6
:1011A800D8A001D001D001D0FF005304900ED8B4CC
:1011B8005218D8A401D001D004D0030E546E0001F7
:1011C8003B825250C80A5310D8A401D001D004D091
:1011D800020E546E00013B8200013BA601D001D0F3
:1011E80009D000013B92546A0001F16B00013B9663
:1011F80000013D9A00013DBA01D001D012D0000192
:101208003BA201D001D004D054C0F1F000013B92C0
:1012180000013FA001D001D004D000013F9059C087
:10122800F1F000013DB601D001D018D000013BA07B
:1012380001D001D013D00401280E5624D96EDA6AE1
:10124800040EDA220201FCC2DFFF562A0F0E566492
:1012580001D001D001D0566A00013B9000013D82C7
:10126800F0C22FF0F1C230F0F2C231F0F3C232F026
:1012780000013D9200013EA001D001D0CFD0000175
:101288003C9A4C5004013C5D4D503D594E503E59DE
:101298004F503F59D8B001D001D024D0405002015E
:1012A800F45F4150F55B4250F65B4350F75B4050AA
:1012B800F45D4150F5594250F6594350F759D8B0AA
:1012C80001D001D060D040C4C8F341C4C9F342C4BE
:1012D800CAF343C4CBF3F46BF56BF66BF76B000101
:1012E8003E9051D044500201F45D4550F5594650A6
:1012F800F6594750F759D8B001D001D01CD040500A
:10130800F4274150F5234250F6234350F723F45174
:10131800445CF5514558F6514658F7514758D8B0EE
:1013280001D001D008D044C0F4F245C0F5F246C05F
:10133800F6F247C0F7F2F451445CF5514558F651BE
:101348004658F7514758D8B001D001D01CD040506A
:10135800F45F4150F55B4250F65B4350F75B4450F5
:10136800F45D4550F5594650F6594750F759D8B0ED
:1013780001D001D008D044C0F4F245C0F5F246C00F
:10138800F6F247C0F7F20201F451E827F551E923D4
:10139800F651EA23F751EB23F451E85DF551E95989
:1013A800F651EA59F751EB59D8B001D001D008D01D
:1013B800010EEC27000EED23000EEE23000EEF23A6
:1013C800EBC24CF0ECC24DF0EDC24EF0EEC24FF065
:1013D80000013EA001D001D0D2D000013EA201D030
:1013E80001D00ED04C50485C0301C86F4D5049588D
:1013F800C96F4E504A58CA6F4F504B58CB6FBFD029
:1014080048504C240301C86F49504D20C96F4A50B9
:101418004E20CA6F4B504F20CB6FB1D000013CAA71
:1014280001D001D009D02FC0C8F330C0C9F331C0F2
:10143800CAF332C0CBF3A3D000013EAA01D001D039
:101448009ED000013CA201D001D00AD000013C92FC
:1014580044C444F045C445F046C446F047C447F088
:1014680044500201F45D4550F5594650F65947502D
:10147800F759D8B001D001D020D000013C804050AD
:101488000201F4274150F5234250F6234350F72335
:10149800F451445CF5514558F6514658F7514758B0
:1014A800D8B001D001D040D044C0F4F245C0F5F224
:1014B80046C0F6F247C0F7F237D0F451445CF55114
:1014C8004558F6514658F7514758D8B001D001D081
:1014D80029D000013C8040500201F45D4150F5598B
:1014E8004250F6594350F759D8B001D001D005D031
:1014F800F46BF56BF66BF76B08D04050F45F415016
:10150800F55B4250F65B4350F75B4450F45D455041
:10151800F5594650F6594750F759D8B001D001D07F
:1015280003D0C2D700013C900201F451E827F551DD
:10153800E923F651EA23F751EB23F451E85DF5511D
:10154800E959F651EA59F751EB59D8B001D001D011
:1015580008D0010EEC27000EED23000EEE23000E3E
:10156800EF23EBC24CF0ECC24DF0EDC24EF0EEC2F0
:101578004FF000013EA201D001D042D733D7C4CFEB
:1015880033F0346A3350346E336AC3503326000E56
:101598003422C2825E50335C266E5F503458276E08
:1015A800040E126E273427322632122EFBD726500D
:1015B8005E2627505F2233505E5C34505F58D8B0A7
:1015C80001D001D002D05E4A5F2A5E50335C5F5082
:1015D8003458D8B001D001D003D05E06D8A05F0639
:1015E80000013DB001D001D004D05EC0FEF25FC062
:1015F800FFF20301D8515E5CD9515F58D8B001D0D1
:1016080001D002D000013D8C2F500401385D296EB5
:10161800305039592A6E2FC038F430C039F431C0EF
:101628003AF432C03BF42AAE01D001D004D0296C80
:101638002A1ED8B02A2A0301DCC301F0026A29C095
:1016480003F02AC004F08FEC40F001C033F002C070
:1016580034F0DD513326000E3422000E335C010EC7
:101668003458D8A001D001D004D0000E346EFF0E3B
:10167800336E5EC012F05FC013F0040E146ED89083
:1016880013321232142EFBD71250286EDAC301F02F
:10169800DBC302F028C003F0046ACCEC3DF001C0C3
:1016A80024F002C025F033C035F034C036F0376A74
:1016B800386A24C00DF025C00EF00F6A106A350E86
:1016C800A7EC3DF0060E126ED8903832373236321B
:1016D8003532122EF9D7000E355C040E3658000E3E
:1016E8003758000E3858D8A001D001D008D0FF0EC6
:1016F800356E030E366E000E376E000E386E35509E
:101708005A5C36505B5837505C5838505D58D8B0E2
:1017180001D001D008D0010E5A26000E5B22000E1F
:101728005C22000E5D2235505A5C36505B583750AB
:101738005C5838505D58D8B001D001D008D0010E9F
:101748005A26000E5B22000E5C22000E5D225A50C3
:10175800355C5B5036585C5037585D503858D8B0B7
:1017680001D001D005D05A06000E5B5A5C5A5D5A6A
:101778005A50355C5B5036585C5037585D50385875
:10178800D8B001D001D005D05A06000E5B5A5C5A79
:101798005D5A2F50C85D2B6E3050C9592C6E315090
:1017A800CA592D6E3250CB592E6EF1C312F0F2C3C6
:1017B80013F0000E13BEFF0E146E156E1550800A3E
:1017C800166E2B50125C2C5013582D5014582E5056
:1017D800800A1658D8B001D001D00ED023EEF1F00F
:1017E800DECF2BF0DDCF2CF0000E2CBEFF0E2D6EC1
:1017F8002E6E00013D8E37D023EEF1F0DECF12F0D1
:10180800DDCF13F0121E131E124A132A12C014F051
:1018180013C015F0000E15BEFF0E166E176E2E5073
:10182800800A186E14502B5C15502C5816502D58E1
:101838001750800A1858D8B001D001D014D023EE20
:10184800F1F0DECF12F0DDCF13F0121E131E124A94
:10185800132A12C02BF013C02CF0000E2CBEFF0E62
:101868002D6E2E6EC6D70001E9512B5C226EEA510F
:101878002C58236E2BC0E9F02CC0EAF0F3C301F01A
:10188800F4C302F02BC003F02CC004F08FEC40F03E
:1018980001C039F002C03AF0F5C301F0F6C302F016
:1018A80022C003F023C004F08FEC40F00150392629
:1018B80002503A223AAE01D001D007D08B908A80EC
:1018C800396C3A1ED8B03A2A02D08B808A9039C037
:1018D80012F03AC013F0000E13BEFF0E146E156E10
:1018E80012505A5C13505B5814505C5815505D5890
:1018F800D8B001D001D004D05AC039F05BC03AF05A
:1019080000013EA601D001D00CD08B908A90396A94
:101918003A6A2FC0C8F330C0C9F331C0CAF332C025
:10192800CBF33A50800A7D0F850ED8B4395CD8A025
:1019380001D001D004D0030E3A6EFF0E396E395033
:10194800FF08396E3A50D8A0E82A03083A6E3A34AC
:101958003A3239323A343A32393239C0BCFF21C0CE
:10196800F5FF20C0F8FF1FC0F7FF1EC0F6FF1DC01F
:10197800DAFF1CC0D9FF1BC0E0FF1AC0E8FF19C07E
:10198800D8FF100088EF36F00000000000000000CB
:10199800000000000000000000000000000000003F
:1019A800000000000000000000000000000000002F
:1019B8000000000000000000000102030405060703
:1019C8000809000000000000000A0B0C0D0E0F00B3
:1019D8000000000000000000000A0B0C0D0E0F00B4
:1019E80000000000000000000000000000000000EF
:1019F80000000000000000000000000000000000DF
:101A08000000000000000000303132333435363732
:101A1800383941424344454600FF0100010000FFB8
:101A2800FF0000010001FF004D4F564520544F2094
:101A38005A45524F204445475245455300002020FF
:101A4800202020202020202020202020202020208E
:101A5800200000524F544154494F4E2044495245AA
:101A68004354494F4E3A000052554E4E494E473A5C
:101A780020542D48483A4D4D3A5353000054494D8F
:101A88004520464F5220414C4C204F524249545316
:101A980000004359434C4520434F554E543A303D7E
:101AA800494E462E00004457454C4C204F4E20507E
:101AB8004F494E542023303000004D4158205741A3
:101AC80059504F494E5453204841564500004D4FF8
:101AD800564520544F204E45585420504F494E5497
:101AE800000045585445524E414C204354524C2016
:101AF8004D4F444500004D4F56494E4720544F2006
:101B0800504F494E54202300002B58585858DF2076
:101B18005448454E20434C49434B0000414444201F
:101B2800414E4F5448455220504F494E543F005360
:101B3800504545443A2058582E5858DF2F5365636E
:101B4800000050524F4752414D20454E44204D4FC2
:101B580044453A0000434F554E54455220434C4F9C
:101B6800434B5749534500004457454C4C204F4E72
:101B780020504F494E54202300004D4F56494E47A0
:101B880020544F204F524947494E00004241545477
:101B980045525920564F4C544147453A00004D4F45
:101BA800564520544F2053544152542E2E2E000097
:101BB800494E46494E4954452052554E54494D4583
:101BC8000000494E46494E495445204359434C4527
:101BD80053000054494D4520504552204F52424928
:101BE800543A00004D4F56494E4720544F20535405
:101BF80041525400004241545445525920564F4CCA
:101C08005441474500004457454C4C204F4E205303
:101C1800544152540000544F54414C2052554E5494
:101C2800494D453A000054494D4520504552204FF2
:101C38005242495400004259204F524249542043CD
:101C48004F554E54000043494E45464C5558204F79
:101C5800524249540000425920544F54414C205498
:101C6800494D4500004F524249542052554E4E4965
:101C78004E4700005448454E20434C49434B2E2EB6
:101C88002E00005245414C54494D45204D4F444586
:101C98000000574159504F494E54204D4F4445007C
:101CA8000054524156454C2054494D453A00005085
:101CB800524553455420534C4F543A00004F52421A
:101CC80049542053504545443A00004F5242495424
:101CD800204C494D49543A00004E4556455220453E
:101CE8004E44494E47000045585445524E414C20F9
:101CF8004D4F4445004457454C4C2054494D453AB6
:101D0800000053544F5050494E472E2E2E00005479
:101D180048454E20434C49434B2E000052554E2017
:101D280050524F4752414D000020524556205245CF
:101D38004D41494E000053415645205052455345A8
:101D4800540000312E302E31343031392E3300001A
:101D5800474F20544F20534C45455000004C4F4F9F
:101D680050204D4F44453F00004245454E204144D8
:101D780044454400002D4F52424954202020200061
:101D8800002D454D5054592020202000002D57414A
:101D980059504F494E542000004F52424954204D4B
:101DA8004F4445000052554E20505245534554006B
:101DB8000050524553455420303100004F4E452DB8
:101DC8005741590000414354494F4E3A0000435986
:101DD800434C45200000424F554E434500002056D5
:101DE8004F4C545300004D414E55414C00003C4E61
:101DF8004F3E2000003C5945533E00005350454596
:101E0800440000204F462000003C6D733E003C48D3
:101E18003E003C4D3E003C533E000000020E0101D6
:101E2800FD6F1B0ED36F650ED26F1B0ED56F5D0E47
:101E3800D46FD4C1ECF1D5C1EDF1D2C1EEF1D3C16B
:101E4800EFF11D0ED76FEE0ED66F1C0ED96F330E45
:101E5800D86F1A0EDB6F8A0EDA6FD6C1F4F1D7C1CC
:101E6800F5F1D8C1F6F1D9C1F7F1DAC1F8F1DBC162
:101E7800F9F11C0EDD6F3E0EDC6F1C0EDF6F5E0E7F
:101E8800DE6F1C0EE16FE10EE06FDCC1E6F1DDC133
:101E9800E7F1DEC1E8F1DFC1E9F1E0C1EAF1E1C152
:101EA800EBF11D0EE36F240EE26F1D0EE56F3E0E83
:101EB800E46FE2C1F0F1E3C1F1F1E4C1F2F1E5C18F
:101EC800F3F1ECEC3AF01B0E776FA60E766FCDECC3
:101ED8003FF0756B010E15EC3CF01D0E776F170E79
:101EE800766FCDEC3FF000013C8A61EC41F00101D6
:101EF800FA6F3C9AFAAF02D0FA5112000FEC36F0A2
:101F0800A6C0AEF0A7C0AFF0A8C0B0F0A9C0B1F0AD
:101F18004DEC39F0AEC049F4AFC04AF4010E0001EF
:101F2800926FEC0E916F010E936F1A0E956F5B0E08
:101F3800946F4CC496F09CEC39F00101FA6FFA29C1
:101F4800C0E0FA51FE0A01E1FE0CFABFD5D7FAC18A
:101F58004CF4010E0001926FE60E916F020E936F22
:101F68001B0E956F4A0E946F4BC496F09CEC39F09B
:101F78000101FA6FFA29D2E0FA51FE0AE5E0FABF48
:101F8800BBD7FAC14BF413D251C489F052C48AF0BA
:101F980053C48BF054C48CF000018D6B8E6B800E93
:101FA8008F6F3F0E906F0FEC3DF007E20401516B0D
:101FB800526B800E536F3F0E546F0001896BC00E39
:101FC8008A6F790E8B6F440E8C6F51C48DF052C49A
:101FD8008EF053C48FF054C490F00FEC3DF008E23B
:101FE8000401516BC00E526F790E536F440E546F3B
:101FF8001C0E0001C86FD30EC76F1A0ECA6F5A0E97
:10200800C96F040ECC6F510ECB6FCD6BCE6B800EAB
:10201800CF6F3F0ED06FD16BC00ED26F790ED36FDA
:10202800440ED46FD56BD66B800ED76F3F0ED86F2A
:1020380031EC27F00101FA6FFA298BE0FA51FE0A18
:1020480083E0FABF59D70001896B8A6B800E8B6FCA
:102058003F0E8C6F51C48DF052C48EF053C48FF074
:1020680054C490F00FEC3DF010E2010E0001926FA5
:10207800F40E916F020E936F1C0E956FC50E946F40
:102088005DC496F09CEC39F004D0010E44DA9CEC67
:1020980039F00101FA6FFA2901E176D7FA51FE0AFF
:1020A80001E152D7FABF28D7A3D0FAD90FEC3DF0F7
:1020B80001E23EDABCD931EC27F00101FA6FFA29C6
:1020C800C2E0FA51FE0A01E13FD77AD105DA0FECF6
:1020D8003DF001E246DA1C0E0001DC6F2E0ECBD972
:1020E80021EC1FF0FA6FFA29AEE0FA51FE0A01E17D
:1020F8002BD7000101DAF2EC38F04BD155C489F046
:1021080056C48AF057C48BF058C48CF000017E6B1B
:102118007F6B800E806F400E816F51C47AF052C47D
:102128007BF053C47CF054C47DF070EC37F07AC077
:102138008DF07BC08EF07CC08FF07DC090F00FECEE
:102148003DF00BE2FFD970EC37F07AC055F47BC054
:1021580056F47CC057F47DC058F4F4D970EC37F0CD
:102168007AC0CEF17BC0CFF17CC0D0F17DC0D1F177
:102178001A0EDC6F850EDB6F040E0001DE6F550E44
:10218800DD6FCEC1DFF0CFC1E0F0D0C1E1F0D1C149
:10219800E2F098D921EC1FF0FA6FFA2901E153D740
:1021A800FA51FE0A01E1D0D600017E6B7F6BB40EB6
:1021B800806F430E816F51C47AF052C47BF053C4D0
:1021C8007CF054C47DF070EC37F07AC089F07BC0A5
:1021D8008AF07CC08BF07DC08CF055C48DF056C45D
:1021E8008EF057C48FF058C490F0F2EC38F0D1D08C
:1021F800FA5101E15AD7010A01E168D7030A01E15E
:102208007DD7DED01C0E0001DC6F1E0EDB6F040EC6
:10221800DE6F4D0EDD6FDF6BE06B800EE16F3F0E02
:10222800E26F50D921EC1FF0FA6FFA2901E191D63B
:10223800FA51FE0A01E188D6FABF5ED6010E6BD9C3
:102248009CEC39F00101FA6FFA29DCE0FA51FE0A38
:1022580001E17AD6FABF50D631D022D90FEC3DF041
:1022680001E266D9E4D831EC27F00101FA6FFA29C6
:10227800E5E0FA51FE0A01E167D624D02DD90FEC2A
:102288003DF001E26ED91B0E0001DC6FDB0EF3D8C6
:1022980021EC1FF0FA6FFA29D1E0FA51FE0A01E1A8
:1022A80053D6000129D9F2EC38F089C059F48AC014
:1022B8005AF48BC05BF48CC05CF404D0FA51CDE0C6
:1022C800010ADCE04DC47EF04EC47FF04FC480F0BC
:1022D80050C481F059C47AF05AC47BF05BC47CF0D6
:1022E8005CC47DF070EC37F07AC089F07BC08AF06E
:1022F8007CC08BF07DC08CF08D6B8E6BB40E8F6FB5
:10230800430E906FF2EC38F089C051F48AC052F451
:102318008BC053F48CC054F453D0010EFCD89CEC01
:1023280039F00101FA6FFA2901E113D6FA51FE0AD0
:1023380001E10AD6FABFE0D535D0B2D80FEC3DF0AE
:1023480001E2F6D874D831EC27F00101FA6FFA29C6
:10235800E4E0FA51FE0A01E1F7D5FABFCDD530D055
:10236800BBD80FEC3DF001E2FCD81B0E0001DC6F7E
:10237800DB0E81D821EC1FF0FA6FFA29CEE0FA5172
:10238800FE0A01E1E1D5FABFB7D50001B5D8F2ECF4
:1023980038F089C059F48AC05AF48BC05BF48CC0F9
:1023A8005CF40ED0FA51C9E0010ADAE009D0040160
:1023B8004B5101E1E9D5010A01E124D7030AADE057
:1023C800010E0001926FF00E916F010E936F1D0EBA
:1023D800956FCD0E946F000E966B9CEC39F0010151
:1023E800FA6FFA2901E1D0D5FA51FE0A01E1ACD51C
:1023F800FABF82D5FA6702D061EF25F0D7EC37F043
:102408000101FA6FFA29DCE0FA51FE0A01E19CD5D4
:10241800FABF72D5020E0401486F040E0001746FF2
:10242800480E736F0101FA5162EC40F0C9D71E0ED5
:102438000001C86F040EC76F1B0ECA6F430EC96F29
:10244800040ECC6F590ECB6F0A0ECD6FD70ECE6F20
:10245800230ECF6F3C0ED06FD16BD26BB40ED36FFF
:10246800420ED46F0A0ED56FD70ED66F230ED76FD4
:102478003C0ED86F3C0CDB6F040EDE6F550EDD6F23
:10248800DF6BE06B800EE16F400EE26FE36BC00E16
:10249800E46FA80EE56F470EE66F0E0EE76F0E0CA1
:1024A80059C489F05AC48AF05BC48BF05CC48CF0C0
:1024B8000A0E00018D6FD70E8E6F230E8F6F3C0EA4
:1024C800906F3C0CE36BC00EE46FA80EE56F470EEF
:1024D800E66F0E0EE76F0E0C55C489F056C48AF0ED
:1024E80057C48BF058C48CF000018D6B8E6B800E36
:1024F8008F6F400E906F400C896B8A6BB40E8B6F98
:10250800430E8C6F55C48DF056C48EF057C48FF0AF
:1025180058C490F0430C0001926FF40E916F010EB5
:10252800936F1C0E956FC50E946F5DC496F01200E4
:102538000A0E0401596FD70E5A6F230E5B6F3C0EBB
:102548005C6F3C0C51C47AF052C47BF053C47CF0ED
:1025580054C47DF07E6B7F6B800E806F400E816F60
:10256800400C0401556B566B800E576F400E586F28
:10257800400C080E0101FD6F536B526B3B88546B86
:10258800516BECEC3AF01C0E776FEF0E766FCDECDA
:102598003FF073EC41F0D76FD751030A01E1A4D2A1
:1025A8004FD03E903C9A3E9A56D006DB3CB2FED7BE
:1025B8003CB051D00101546B4ED03EB04CD0010E0E
:1025C8003CD03EB048D001015351020DFFDA000162
:1025D800DECF71F0DDCF72F03AEC41F00101532B00
:1025E800040E2CD03EBE37D001015251536301D0A6
:1025F800E6D75351020DFFDA0001DECF75F0DDCFCB
:1026080076F092EC3FF075C04DF176C04EF177C090
:102618004FF178C050F101015351020DDEDA00018B
:10262800DECF75F0DDCF76F079EC40F083DA40EC60
:102638002DF067DAE7EC3FF0030E0101546F0BD081
:1026480001015451AEE0010AB0E0030AB6E0010A04
:10265800B8E0070AC7E000013BAE9BD70101FB6B5E
:10266800010E0001EF6F00013B9ECEEC3EF0010130
:10267800FE198FE1CEEC3EF00101556F1DD2CEEC74
:102688003EF00101566FCEEC3EF00101576FCEECE3
:102698003EF00101586FCEEC3EF00101596F56C172
:1026A80038F157C139F158C13AF159C13BF164DAEF
:1026B800CEEC3EF00101566FCEEC3EF00101576FB3
:1026C800CEEC3EF00101586FCEEC3EF00101596F9F
:1026D80056C13CF157C13DF158C13EF159C13FF1D6
:1026E8004BDACEEC3EF00101566FCEEC3EF0010124
:1026F800576FCEEC3EF00101586FCEEC3EF0010171
:10270800596F56C140F157C141F158C142F159C101
:1027180043F132DACEEC3EF00101FB1906E1010E7D
:10272800516F5551A5EC40F034D75EDA01EC40F01A
:1027380030D7516708D0010E00016D6F0101555166
:1027480001EC40F026D7545108E0020E00016D6FED
:102758000101555101EC40F01CD738C1B8F039C11E
:10276800B9F03AC1BAF03BC1BBF03CC1BCF03DC1C5
:10277800BDF03EC1BEF03FC1BFF040C1C0F041C195
:10278800C1F042C1C2F043C1C3F04EEC21F00101D7
:10279800516B020E546F5551A5EC40F0FAD65451C6
:1027A80002E0010E546F5551A5EC40F0F2D6FC6BD7
:1027B80098EC1EF0240EDF6EFC2B555133EC3FF0E5
:1027C800545133EC3FF05451FB27515133EC3FF057
:1027D8005151FB27D6EC3CF085EC3EF075C056F124
:1027E80076C057F177C058F178C059F13D92D6D9E3
:1027F8003BEC3EF00101565133EC3FF0575133ECBE
:102808003FF0585133EC3FF0595133EC3FF0ABD91E
:10281800566B576B586B596B12D0F4C275F0F5C2F2
:1028280076F0F6C277F0F7C278F01BEC40F075C08E
:1028380056F176C057F177C058F178C059F1F4C213
:1028480075F0F5C276F0F6C277F0F7C278F01BECB7
:1028580040F001015951000178190EE10101585168
:102868000001771909E1010157510001761904E1C6
:102878000101565100017519D0E1010E00018A6F5E
:10288800560EDFEC1EF03BEC3EF088D93BEC3EF0F8
:102898000101565133EC3FF0575133EC3FF058519A
:1028A80033EC3FF0595133EC3FF05DD900013D88DE
:1028B800F8C275F0F9C276F0FAC277F0FBC278F088
:1028C8001BEC40F075C056F176C057F177C058F14F
:1028D80078C059F13D98010E00018A6F560E896F34
:1028E8006F0E8B6F120E8C6F030E8D6F3B0E8E6FFB
:1028F8003BEC3EF00101565133EC3FF0575133ECBD
:102908003FF0585133EC3FF0595133EC3FF02BD99D
:1029180000013D80FEC275F0FFC276F079EC40F010
:1029280075C056F176C057F177C058F178C059F1A3
:102938003D90010E00018A6F560E896FE2C38BF03D
:10294800E3C38CF0E4C38DF0E5C38EF03BEC3EF0BE
:102958000101565133EC3FF0575133EC3FF05851D9
:1029680033EC3FF0595133EC3FF0FDD8FB5133ECD9
:102978003FF098EC1EF0230EDF6EFC2BFCC14CF1EF
:10298800FC6B4CC1F0F005D65451030A03E05451D6
:10299800040A08E1010E00016D6F0101555101ECB7
:1029A80040F0F7D5536B526B5551A5EC40F0F1D57B
:1029B8005451030A03E05451040A08E1010E0001CE
:1029C8006D6F0101555101EC40F0E3D5630E52657E
:1029D80008D0020E00016D6F0101555101EC40F065
:1029E800D8D5CEEC3EF00101566FCEEC3EF0CDD8F6
:1029F80002D956C1DEFF57C1DDFFCEEC3EF0010122
:102A0800566FCEEC3EF0C1D8E8D856C1DEFF57C1AC
:102A1800DDFFCEEC3EF00101566FCEEC3EF0B5D8AE
:102A2800D5D856C1DEFF57C1DDFFCEEC3EF001011F
:102A3800FB1906E15551A5EC40F00101522BA9D52F
:102A4800D3D801EC40F0A5D5545108E0010E00019F
:102A58006D6F0101555101EC40F09BD5536B00C3DC
:102A680075F001C376F092EC3FF075C04DF176C079
:102A78004EF177C04FF178C050F100C875F001C829
:102A880076F079EC40F056D840EC2DF03AD8E7ECE7
:102A98003FF0030E0101546F5551A5EC40F079D574
:102AA8005551A5EC40F020D0FE0E00016D6F0101DC
:102AB800555101EC40F06DD55551600A01E1DFD563
:102AC800010A01E136D6030A01E169D6010A01E1EA
:102AD8006ED6070A01E158D7010A01E169D7030A4E
:102AE800B3E0E60ADDE0E0D767D806D001014C691B
:102AF8004C0701014C29FCE13CB0F8D700013B9898
:102B0800000CB7C044F1B8C045F1B9C046F1BAC02D
:102B180047F14DC130F14EC131F14FC132F150C1D1
:102B280033F144C134F145C135F146C136F147C1ED
:102B380037F1120075C048F176C049F177C04AF103
:102B480078C04BF14DC1B7F04EC1B8F04FC1B9F0E4
:102B580050C1BAF048C1BBF049C1BCF04AC1BDF090
:102B68004BC1BEF012005651FB275751FB27585155
:102B7800FB275951FB2712005951FB275851FB27B6
:102B88005751FB275651FB2712000101576F565129
:102B9800FB275751FB275251020D1200010E00016D
:102BA8008A6F560E896FFBC38BF0FCC38CF0FDC394
:102BB8008DF0FEC38EF012003E903C9A3E8A0401CE
:102BC800446B456B466B476B3C821200000EF32446
:102BD800D96EDA6A020EDA221200000EF324D96ED8
:102BE800DA6A080EDA221200516BFA0E00016D6FD4
:102BF800010155511200000EF324D96EDA6A030E52
:102C0800DA221200040E0101FD6FE56BE66BE76B3B
:102C1800E86BDA6B0501036B1D0E0101C76FC40E6B
:102C2800C66F1D0EC96FDE0EC86FC6C1CEF1C7C113
:102C3800CFF1C8C1D0F1C9C1D1F11D0ECB6F240E9F
:102C4800CA6F1D0ECD6F3E0ECC6FCAC1D2F1CBC17B
:102C5800D3F1CCC1D4F1CDC1D5F1E96BEA6BEB6B03
:102C6800EC6BF36BF46BF56BF66BE36BE46BDF6BA0
:102C7800E06BE16BE26BDB6BDC6BDD6BDE6BEF6BF0
:102C8800F06BF16BF26BF76BECEC3AF01B0E776FB5
:102C9800A60E766FCDEC3FF0756B010E15EC3CF08F
:102CA8001D0E776F170E766FCDEC3FF000013C8A52
:102CB80061EC41F00101F86FF8AF02D0F851120051
:102CC80000013C9A0FEC36F0A6C0AEF0A7C0AFF0FA
:102CD800A8C0B0F0A9C0B1F04DEC39F0AEC001F514
:102CE800AFC002F5B2EC3CF08FC0D6F190C0D7F17E
:102CF80091C0D8F192C0D9F11C0EDC6FFD0EDB6FCC
:102D0800010E00017CDA21EC1FF0F86FF851FE0A81
:102D180001E1FE0CF829A1E0F8BFD0D7EFC1AEF071
:102D2800F0C1AFF0F1C1B0F0F2C1B1F04DEC39F043
:102D3800AEC04FF5AFC050F5D2D1ECEC3AF01A0E58
:102D4800776FD60E766FCDEC3FF0756B010E15ECF4
:102D58003CF01B0E776F110E766FCDEC3FF03C8A7E
:102D68003B8602D027EC1CF000013BB6FBD70101E3
:102D7800F86B96D027EC1CF0B2EC3CF08FC0DBF17E
:102D880090C0DCF191C0DDF192C0DEF1DBC198F0BA
:102D9800DCC199F0DDC19AF0DEC19BF0D6C19CF090
:102DA800D7C19DF0D8C19EF0D9C19FF0B0EC3FF0DB
:102DB80098C0DFF199C0E0F19AC0E1F19BC0E2F15F
:102DC800DFC1AEF0E0C1AFF0E1C1B0F0E2C1B1F0F7
:102DD8004DEC39F0AEC0E3F1AFC0E4F1756B010E14
:102DE80015EC3CF0E3C179F00001E4C17AF0000E83
:102DF8007ABFFF0E7B6F7C6F040E7D6F010E7E6FB6
:102E080000EC29F03D8AF1C0F8F13D9A0101F85132
:102E1800030A03E100013C9AFE0CF851020A07E19B
:102E28003C9A0101F76701D018D7F70786D7F85100
:102E3800050A18E13B863C9A0101306B316B800E24
:102E4800326FBF0EECD9E7EC3FF002D027EC1CF054
:102E580000013EB0FBD73C8A02D027EC1CF00001F1
:102E68003BB6FBD70101F851040A17E13B863C9AAF
:102E7800306B316B800E326F3F0ED1D9E7EC3FF0EB
:102E880002D027EC1CF000013EB0FBD73C8A02D0F0
:102E980027EC1CF000013BB6FBD70101F8BF0ED7A9
:102EA800F80501E067D73C9A0101F751020D070EBA
:102EB800F324D96EDA6A050EDA22E3C1DEFFE4C133
:102EC800DDFFDFC1B7F0E0C1B8F0E1C1B9F0E2C1A0
:102ED800BAF079EC2AF0B7C0F3F1B8C0F4F1B9C090
:102EE800F5F1BAC0F6F1F3C1AEF0F4C1AFF0F5C137
:102EF800B0F0F6C1B1F04DEC39F0AEC0EDF1AFC0B5
:102F0800EEF1010E0001A16FF30EA06FEDC175F097
:102F1800EEC176F079EC40F075C0A2F076C0A3F06F
:102F280077C0A4F078C0A5F0F1EC3DF0000E896BF5
:102F38008A6B8B6B8C6BF3C18DF0F4C18EF0F5C18D
:102F48008FF0F6C190F00FEC3DF00DE2010E01019B
:102F5800ED250001756F000E0101EE210001766F6D
:102F680079EC40F006D0EDC175F0EEC176F079EC61
:102F780040F075C0F3F176C0F4F177C0F5F178C090
:102F8800F6F11C0E0001DC6FA90EDB6F010EDE6F7F
:102F9800E90EDD6FF3C1DFF0F4C1E0F0F5C1E1F057
:102FA800F6C1E2F0E36BE4697F0EE56F470EE66F6A
:102FB8000E0EE76F21EC1FF0F86FF851FE0A01E1E1
:102FC800A8D6F82901E1B9D6F8BF78D6E9C1AEF09C
:102FD800EAC1AFF0EBC1B0F0ECC1B1F04DEC39F0A3
:102FE8000101F751020D2B0EF324D96EDA6A050E92
:102FF800DA22AEC0DEFFAFC0DDFF1C0E0001DC6FC1
:10300800FD0EDB6F010EFBD821EC1FF0F86FF851B5
:10301800FE0A01E17ED6F829B4E0F8BF4FD6EFC129
:10302800AEF0F0C1AFF0F1C1B0F0F2C1B1F04DECCB
:1030380039F00101D890F7350001E86F510EE82505
:10304800D96EDA6A050EDA22AEC0DEFFAFC0DDFF48
:103058000101F751800A6F0F24E21B0E0001926FE5
:10306800240E916F010E936FE1EC39F00101F86FB6
:10307800F851FE0A01E14DD6F829BFE0F86702D001
:10308800010EDA6FF8050AE1F72BDBC1D6F1DCC1D6
:10309800D7F1DDC1D8F1DEC1D9F14FD6F8BF0ED6D0
:1030A8001ED0ECEC3AF01A0E776FC20E766FCDECAC
:1030B8003FF0756B010E15EC3CF01D0E776F710E2D
:1030C800766FCDEC3FF061EC41F00101F86FF851FB
:1030D800FE0A01E11ED6F82990E0010EDA6F01011F
:1030E800DA5101E12AD6F7C103F5010E0001926F0A
:1030F800CE0E916F010E936F1D0E956F650E946F36
:1031080004C596F09CEC39F00101F86FF82901E14B
:1031180074D7F851FE0A01E1FCD5F8BFCFD5F8C144
:1031280004F51A0E0001C86F9A0EC76F1B0ECA6FFE
:10313800D20EC96F010ECC6FE50ECB6FCD6BCE6B87
:10314800CF6BD06BD16BC00ED26F790ED36F440E9C
:10315800D46FD56BD66B800ED76F3F0ED86F31EC1E
:1031680027F00101F86FF829C0E0F851FE0A01E1E3
:10317800D0D5F8BFA3D5E5C1AEF0E6C1AFF0E7C141
:10318800B0F0E8C1B1F04DEC39F0AEC005F5AFC014
:1031980006F5010E0001926FD20E916F010E936F2A
:1031A8001D0E956FCD0E946F000E966B9CEC39F04A
:1031B8000101F86FF829B5E0F851FE0A01E1A9D537
:1031C800F8BF7CD5F86702D01BEF19F0D7EC37F0C1
:1031D8000101F86FF829DDE0F851FE0A01E199D5FF
:1031E800F8BF6CD5010E0501006F050E0001746F64
:1031F800000E736F0101F85162EC40F0CAD7DE6F20
:10320800EF0EDD6FDF6BE06BE16BE26BE36BE469A4
:103218007F0EE56F470EE66F0E0EE76F0E0C336FED
:10322800346B356BB40E366F420E376F420C0101AA
:10323800C16B050EFD6FC06BC36B010EC26FECEC6A
:103248003AF01B0E776FEC0E766FCDEC3FF001C5B0
:1032580075F002C576F079EC40F0D7DAECEC2BF09B
:1032680011D027EC1CF073EC41F00101C56FC5517A
:10327800030A03E1FE0EC16F7DD2C5AF03D0C5C1FD
:10328800C1F178D200013EB0ECD7ECEC3AF01C0E5C
:10329800776F0E0E766FCDEC3FF04FC571F050C5CD
:1032A80072F03AEC41F00BD027EC1CF073EC41F0D3
:1032B8000101C56FC551030ADDE0C5BFE0D70001B4
:1032C8003EBEF2D70101C05103E003C5C4F1A3D14A
:1032D800C46BA1D1C451020D070EF324D96EDA6A6A
:1032E800050EDA220001DECF75F0DDCF76F092EC24
:1032F8003FF075C0BCF176C0BDF177C0BEF178C0B3
:10330800BFF10101C451020D2B0EF324D96EDA6A04
:10331800050EDA220001DECF75F0DDCF76F079EC0C
:1033280040F075C0B0F176C0B1F177C0B2F178C0A5
:10333800B3F1BCC1B7F0BDC1B8F0BEC1B9F0BFC1EF
:10334800BAF0B0C1BBF0B1C1BCF0B2C1BDF0B3C1FD
:10335800BEF040EC2DF0B7C0B8F1B8C0B9F1B9C0B3
:10336800BAF1BAC0BBF10101C05101E1B3D0ECEC34
:103378003AF01A0E776FFE0E766FCDEC3FF055DA05
:1033880000EC29F0756B010E15EC3CF005010651B7
:10339800051108E11B0E0001776FCA0E766FCDECA0
:1033A8003FF013D01D0E0001776FD60E766FCDEC6F
:1033B8003FF00BDA00EC29F01E0E776F0B0E766FDC
:1033C800CDEC3FF0F7D900EC29F0BCC16BF0BDC1E2
:1033D8006CF0BEC16DF0BFC16EF04EEC41F06BC039
:1033E800B4F16CC0B5F16DC0B6F16EC0B7F1B4C13F
:1033F80030F1B5C131F1B6C132F1B7C133F1B8C15D
:1034080034F1B9C135F1BAC136F1BBC137F1E7ECD6
:103418003FF00CD027EC1CF073EC41F00101C56FB4
:10342800C551030A01E126D7C5BF29D700013EB01F
:10343800F1D7ECEC3AF01B0E776F700E766FCDEC8F
:103448003FF0F3D900EC29F0756B010E15EC3CF058
:1034580005010651051108E11B0E0001776FCA0E20
:10346800766FCDEC3FF013D01D0E0001776FD60EAE
:10347800766FCDEC3FF0A9D900EC29F01E0E776FDE
:103488000B0E766FCDEC3FF095D900EC29F00101D9
:10349800C451020D4F0EF324D96EDA6A050EDA22F2
:1034A8000001DECF71F0DDCF72F03AEC41F00CD0C4
:1034B80027EC1CF073EC41F00101C56FC551030AFC
:1034C80001E1D8D6C5BFDBD600013EBEF1D7010168
:1034D800C407A1D0ECEC3AF01A0E776FFE0E766FA7
:1034E800CDEC3FF07DD900EC29F0756B010E15ECA1
:1034F8003CF005010651051108E11B0E0001776F2C
:10350800CA0E766FCDEC3FF013D01D0E0001776F19
:10351800D60E766FCDEC3FF058D900EC29F01E0E90
:10352800776F0B0E766FCDEC3FF044D900EC29F0A5
:10353800BCC130F1BDC131F1BEC132F1BFC133F1FF
:10354800B8C134F1B9C135F1BAC136F1BBC137F1EF
:10355800E7EC3FF00CD027EC1CF073EC41F00101D4
:10356800C56FC551030A01E185D6C5BF88D60001DC
:103578003EB0F1D7ECEC3AF01B0E776F700E766F19
:10358800CDEC3FF02DD900EC29F0756B010E15EC50
:103598003CF005010651051108E11B0E0001776F8B
:1035A800CA0E766FCDEC3FF013D01D0E0001776F79
:1035B800D60E766FCDEC3FF008D900EC29F01E0E40
:1035C800776F0B0E766FCDEC3FF0F4D800EC29F056
:1035D8000101D890C4350001E06F510EE025D96E85
:1035E800DA6A050EDA22DECF71F0DDCF72F03AEC3E
:1035F80041F00CD027EC1CF073EC41F00101C56FD1
:10360800C551030A01E136D6C5BF39D600013EBE11
:10361800F1D70101C42BC4BF0BD005010351D880D9
:10362800D8840101C4AFC45DD8A0D88401E152D6C2
:103638000501045107E00101C051010ED8A4000E94
:10364800C06F87D00101C06BECEC3AF01B0E776FAE
:10365800820E766FCDEC3FF0756B010E15EC3CF0E9
:1036680005010651051108E11B0E0001776FCA0E0E
:10367800766FCDEC3FF013D01D0E0001776FD60E9C
:10368800766FCDEC3FF0A1D800EC29F01E0E776FD5
:103698000B0E766FCDEC3FF08DD800EC29F001C50C
:1036A80075F002C576F079EC40F0AFD8ECEC2BF071
:1036B8000CD027EC1CF073EC41F00101C56FC5512B
:1036C800030A01E1D7D5C5BFDAD500013EB0F1D76D
:1036D800ECEC3AF01A0E776FAE0E766FCDEC3FF049
:1036E800756B010E15EC3CF005010651051108E15A
:1036F8001B0E0001776FCA0E766FCDEC3FF013D02A
:103708001D0E0001776FD60E766FCDEC3FF05DD8B9
:1037180000EC29F01E0E776F0B0E766FCDEC3FF0A4
:1037280049D800EC29F04FC571F050C572F03AEC59
:1037380041F00CD027EC1CF073EC41F00101C56F8F
:10374800C551030A01E196D5C5BF99D500013EBE12
:10375800F1D705010651051101E1B4D50101C24BAC
:10376800C32BC2510501055D0101C351050106596D
:1037780001E3A8D53E903C9A3E8A0401446B456B10
:10378800466B476B00013C82ECEC3AF01D0E776FFC
:103798000A0E766FCDEC3FF03CA203D0FDD727ECA4
:1037A8001CF000013CB0FBD73E903C9A3E9A0101C8
:1037B800C151120005C579F0000106C57AF07B6B8E
:1037C8007C6B030E7D6F7E6B000CC2C179F000012B
:1037D800C3C17AF07B6B7C6B030E7D6F7E6B000C34
:1037E800C4C1E0F00001E16BE0BFE107E02B000E8F
:1037F800E123E0C079F0E1C07AF07ABFFF0E7B6F79
:103808007C6F020E7D6F7E6B000C75C038F176C040
:1038180039F177C03AF178C03BF101013C6B3D6B5F
:10382800B40E3E6F420E3F6F420C0101C4510001BD
:10383800796F000E79BFFF0E7A6F7B6F7C6F020E77
:103848007D6F7E6B000C0101026B306B3BA807D0CB
:10385800AB69AB070101AB29D8B41200FAD73BBE5C
:1038680008D00101AB69AB070101AB29D8B412003C
:10387800FAD70101FB6B010E0001EF6F00013B9EBF
:10388800CEEC3EF00101026F02291FE1FC6B000E35
:103898006EDAFE5133EC3FF04F0E33EC3FF0520E30
:1038A80033EC3FF0420E33EC3FF0490E33EC3FF07F
:1038B800540E33EC3FF038DA230EDF6EFC2BFCC1DC
:1038C800ABF1FC6BABC1F0F01200FE5102631200C9
:1038D800CEEC3EF00101AA6FF7D1FC6B25DA240E7D
:1038E800DF6EFC2BAA5133EC3FF0AB6B140E81DA80
:1038F80033EC3FF068DAAB65F9D7AB6B000E01012A
:103908008ADA33EC3FF06ADAAB65F8D700013D821A
:10391800F0C275F0F1C276F0F2C277F0F3C278F037
:1039280085EC3EF075C0ACF176C0ADF177C0AEF174
:1039380078C0AFF13D9200DA3BEC3EF00101AC51AA
:1039480033EC3FF0AD5133EC3FF0AE5133EC3FF088
:10395800AF5133EC3FF01FDA6BDA0BD0F4C275F0DD
:10396800F5C276F0F6C277F0F7C278F01BEC40F0BB
:1039780049DAF4C275F0F5C276F0F6C277F0F7C20C
:1039880078F01BEC40F00101AF51000178190EE10D
:103998000101AE510001771909E10101AD510001A2
:1039A800761904E10101AC5100017519D7E1010E46
:1039B80000018A6FAC0EFFD93BEC3EF0BDD93BEC61
:1039C8003EF00101AC5133EC3FF0AD5133EC3FF028
:1039D800AE5133EC3FF0AF5133EC3FF0DCD900018E
:1039E8003D80FEC275F0FFC276F079EC40F0C8D990
:1039F800B1D93BEC3EF00101AC5133EC3FF0AD5195
:103A080033EC3FF0AE5133EC3FF0AF5133EC3FF0C5
:103A1800C2D9FD5133EC3FF0FD51FB27FB5133EC8C
:103A28003FF049D7FC6B80D9240EDF6EFC2BAA51DE
:103A380033EC3FF0AB6B140EDCD933EC3FF0C3D959
:103A4800AB65F9D7AB6B000E0101E5D933EC3FF05C
:103A5800C5D9AB65F8D7FB5133EC3FF02CD73F9075
:103A6800010E11D03F90030E0ED03F90020E0BD0E6
:103A78003F90040E08D03F90050E05D000013F90FE
:103A8800CEEC3EF00008596E3F8013D1FC6B4CD948
:103A9800240EDF6EFC2BAA5133EC3FF0FD5133ECC2
:103AA8003FF0FD5133EC3FF006D7D6EC3CF085EC07
:103AB8003EF075C0ACF176C0ADF177C0AEF178C01C
:103AC800AFF13D9239D93BEC3EF0ACC16DF0ADC1E0
:103AD8006EF0AEC16FF0AFC170F0AAC171F0DEEF49
:103AE8003BF0A6D90BD0F4C275F0F5C276F0F6C259
:103AF80077F0F7C278F01BEC40F084D9F4C275F087
:103B0800F5C276F0F6C277F0F7C278F01BEC40F019
:103B18000101AF51000178190EE10101AE51000118
:103B2800771909E10101AD510001761904E101019C
:103B3800AC5100017519D7E1010E00018A6FAC0E76
:103B48003AD93BEC3EF0F8D83BEC3EF0BED700014A
:103B58003D80FEC275F0FFC276F079EC40F010D9D6
:103B6800F9D83BEC3EF0B1D7CEEC3EF00101306F16
:103B7800050E306501D02DD0306701D02AD0010E56
:103B88000001726F310E716F0101305126EC41F066
:103B98000101FC6B000EEBD8AA5133EC3FF0AB6B84
:103BA80003D9DF5033EC3FF0FFD8DF50FB27AB2BB6
:103BB800780EAB65F5D7FB5133EC3FF07CD6CEECF5
:103BC8003EF00101306F050E306501D002D030673C
:103BD80004D0010E00016D6F75D03051FB27AB6B1F
:103BE800CEEC3EF08F6F0101DFD88FC0DFFFDCD84D
:103BF800DF50FB27AB2B770EAB65F2D7CEEC3EF050
:103C08000101FB190AE1010E0001746F310E736F97
:103C18000101305162EC40F04CD04FD0AA5101EF75
:103C280040F0030E01012F6FD40E2E6FFC6B000EB7
:103C38009ED8AA5133EC3FF0AB6B2EC1D9FF2FC1F0
:103C4800DAFFDF5033EC3FF02EC1D9FF2FC1DAFF86
:103C5800DF50E9D8AB65F1D7FB5133EC3FF02BD6F9
:103C6800010E2F6F030E2E6FAB6BCEEC3EF02EC104
:103C7800D9FF2FC1DAFFDF6E2EC1D9FF2FC1DAFFBE
:103C8800DF500101D0D8AB65F0D7CEEC3EF0010192
:103C9800FB1913E1006B016B010E00016F6F000E41
:103CA8006E6F010E716F030E706F2B0E726FF0EC5A
:103CB8003EF00101AA51A5EF40F0FBC16DF0AED76F
:103CC80000016D690101AAD7AA51010A01E177D75C
:103CD800030A01E149D7120A01E1A4D6010A01E168
:103CE800BED6030A01E1C1D6010A01E1BBD6070A23
:103CF80001E1BED6010A01E1BED6030A01E1D5D62B
:103D0800010A01E1EED60F0A01E121D7010A01E11A
:103D1800B5D6030A01E1BAD6010A01E1DED5070AE0
:103D280080E0010A9DE0CCD7000E0101FC25D96E88
:103D3800DA6A060EDA221200010E00018A6FAC0E52
:103D4800896FFBC38BF0FCC38CF0FDC38DF0FEC301
:103D58008EF0120000018A6FAC0E896FE2C38BF0FF
:103D6800E3C38CF0E4C38DF0E5C38EF01200FC25AC
:103D7800D96EDA6A060EDA22240EDF6EFC2B240CCA
:103D880075C0ACF176C0ADF177C0AEF178C0AFF1D7
:103D98003D90010E1200AC51FB27AD51FB27AE51EF
:103DA800FB27AF51FB271200310EAB25D96EDA6A1B
:103DB800010EDA221200896F8B6B8C6BFA0E8D6FF5
:103DC800370E8E6F370C140E0101AB25D96EDA6AE7
:103DD800040EDA22DF50FB27AB2B130C000E010177
:103DE800AB25D96EDA6A040EDA22DF50FB27AB2B3B
:103DF800130C0101AB25D96EDA6A0401040EDA222C
:103E0800DF50120075C0ACF176C0ADF177C0AEF1ED
:103E180078C0AFF11200AB25D96EDA6A0401040E3E
:103E2800DA22DF501200FB272E4B2F2BAB2B2A0C4C
:103E3800AC6BAD6BAE6BAF6B1200DDC0D9FFDEC0F3
:103E4800DAFFDECFB6F1DECFB7F1DECFB8F1DECFE5
:103E5800B9F1B6C1B8F0B7C1B9F0B8C1BAF0B9C1D3
:103E6800BBF0010E0001BD6FB40EBC6F010EBF6F39
:103E7800B30EBE6F010EC16FB20EC06F010EC36FDD
:103E8800B00EC26F91EC31F0E7B702D00101B46B0C
:103E98000001E7B502D00101B36B0001E7B302D01E
:103EA8000101B26B0001E7B103D00101B06BB16B46
:103EB800B3C18FF0B2C190F0B0C191F0B1C192F02E
:103EC8000101B45165EC34F08FC0B6F190C0B7F180
:103ED80091C0B8F192C0B9F199D90FEC3DF001E267
:103EE800B7D9A5D90FEC3DF001E2BBD90001E7A78E
:103EF8005BD0ECEC3AF0DBC076F0DCC077F0CDECD0
:103F08003FF01E0E776F160E766FCDEC3FF0756B97
:103F1800010E15EC3CF01A0E776F460E766FCDEC5D
:103F28003FF00001756B010E15EC3CF0B6C1D0F006
:103F3800B7C1D1F0B8C1D2F0B9C1D3F0E7C0D4F05D
:103F4800080ED56FFDEC34F0BBEC40F00101B56F05
:103F5800B5AF1ED0B5511200FF0CFE0C93D9610EFF
:103F68008D6F450E8E6F16EC3EF061D90FEC3DF06B
:103F7800D8E277D9D6D77ED9610EA46F450EA56F42
:103F8800F1EC3DF043D90FEC3DF0CBE261D9C9D754
:103F9800B551010A09E0030ADFE0010ADEE0070A79
:103FA800DDE0010AE8E0BDD70001E7A559D0ECEC57
:103FB8003AF0DBC076F0DCC077F0CDEC3FF01E0EB7
:103FC800776F1A0E766FCDEC3FF0756B010E15EC1E
:103FD8003CF01A0E776F460E766FCDEC3FF000017D
:103FE800756B010E15EC3CF0B6C1D0F0B7C1D1F03D
:103FF800B8C1D2F0B9C1D3F0E7C0D4F0040ED56F80
:10400800FDEC34F0BBEC40F00101B56FB5BFA2D7B1
:104018001AD038D9700E8D6F420E8E6F16EC3EF0A6
:1040280006D90FEC3DF0DBE21CD9D9D723D9700EA5
:10403800A46F420EA56FF1EC3DF0E8D80FEC3DF00F
:10404800CEE206D9CCD7B551010A0AE0030A01E14C
:104058004DD7010A82E0070ADCE0010AE7E0BFD792
:104068000001E7A35AD0ECEC3AF0DBC076F0DCC0F4
:1040780077F0CDEC3FF01E0E776F1E0E766FCDEC0D
:104088003FF0756B010E15EC3CF01A0E776F460E7B
:10409800766FCDEC3FF00001756B010E15EC3CF02E
:1040A800B6C1D0F0B7C1D1F0B8C1D2F0B9C1D3F020
:1040B800E7C0D4F0020ED56FFDEC34F0BBEC40F055
:1040C8000101B56FB5BF46D71AD0DCD8800E8D6F09
:1040D8003F0E8E6F16EC3EF0AAD80FEC3DF0DBE2F7
:1040E800C0D8D9D7C7D8800EA46F3F0EA56FF1EC02
:1040F8003DF08CD80FEC3DF0CEE2AAD8CCD7B55124
:10410800010A0BE0030A01E14FD7010A01E125D7B3
:10411800070ADBE0010AE6E0BED70001E7A168D0A4
:10412800ECEC3AF0DBC076F0DCC077F0CDEC3FF099
:104138001E0E776F110E766FCDEC3FF0756B010E8A
:1041480015EC3CF01A0E776F460E766FCDEC3FF00B
:104158000001756B010E15EC3CF0B6C1D0F0B7C18B
:10416800D1F0B8C1D2F0B9C1D3F0E7C0D4F0010E94
:10417800D56FFDEC34F0BBEC40F00101B56FB5BF75
:10418800E9D628D0010E00018A6FB60E896FCD0ED0
:104198008B6FCC0E8C6F8D6F3D0E8E6F16EC3EF0D4
:1041A80046D80FEC3DF0D4E25CD8D2D7010E00011E
:1041B800A16FB60EA06FCD0EA26FCC0EA36FA46F29
:1041C8003D0EA56FF1EC3DF021D80FEC3DF0C0E2BB
:1041D8003FD8BED7B551010A0BE0030A01E140D729
:1041E800010A01E1BAD6070ACDE0010ADFE0B0D73B
:1041F800DDC0D9FFDEC0DAFF0101B6C1DEFFB7C1FD
:10420800DEFFB8C1DEFFB9C1DEFF000CB6C189F020
:10421800B7C18AF0B8C18BF0B9C18CF0DFC08DF09E
:10422800E0C08EF0E1C08FF0E2C090F01200E3C071
:1042380089F0E4C08AF0E5C08BF0E6C08CF0B6C126
:104248008DF0B7C18EF0B8C18FF0B9C190F01200EF
:10425800DFC0B6F1E0C0B7F1E1C0B8F1E2C0B9F132
:104268001200E3C0B6F1E4C0B7F1E5C0B8F1E6C0AA
:10427800B9F11200010E0001A16FB60EA06FA26B7A
:10428800A36B1200010E00018A6FB60E896F8B6B4B
:104298008C6B120000013EB0FF0C0001BFAF13D0C1
:1042A800BCC06BF0BDC06CF0BEC06DF0BFC06EF09E
:1042B8004EEC41F06BC01CF16CC01DF16DC01EF1DD
:1042C8006EC01FF108D0BCC01CF1BDC01DF1BEC03E
:1042D8001EF1BFC01FF1C3AF13D0C0C06BF0C1C087
:1042E8006CF0C2C06DF0C3C06EF04EEC41F06BC014
:1042F80024F16CC025F16DC026F16EC027F108D0FD
:10430800C0C024F1C1C025F1C2C026F1C3C027F145
:10431800B8C07EF0B9C07FF0BAC080F0BBC081F0F1
:10432800F7C37AF0F8C37BF0F9C37CF0FAC37DF0E9
:1043380070EC37F07AC0AEF07BC0AFF07CC0B0F064
:104348007DC0B1F04DEC39F0AEC014F1AFC015F13D
:10435800B0C016F1B1C017F10101175114111511B0
:10436800161101E1000C3D82F0C210F1F1C211F109
:10437800F2C212F1F3C213F13D920101145110255A
:104388000401406F0101155111210401416F010120
:10439800165112210401426F010117511321040122
:1043A800436F10C148F011C149F012C14AF013C15E
:1043B8004BF00001BBAF15D0B8C06BF0B9C06CF0C2
:1043C800BAC06DF0BBC06EF04EEC41F06BC028F186
:1043D8006CC029F16DC02AF16EC02BF100013E823C
:1043E8000AD0B8C028F1B9C029F1BAC02AF1BBC0B7
:1043F8002BF100013E921CC189F01DC18AF01EC13B
:104408008BF01FC18CF024C18DF025C18EF026C120
:104418008FF027C190F0F2EC38F089C018F18AC00B
:1044280019F18BC01AF18CC01BF118C17EF019C1AB
:104438007FF01AC180F01BC181F024C17AF025C138
:104448007BF026C17CF027C17DF070EC37F07AC094
:104458002CF17BC02DF17CC02EF17DC02FF118C14D
:104468007EF019C17FF01AC180F01BC181F02CC108
:104478007AF02DC17BF02EC17CF02FC17DF070EC5D
:1044880037F07AC00CF17BC00DF17CC00EF17DC015
:104498000FF10CC17AF00DC17BF00EC17CF00FC199
:1044A8007DF07E6B7F6B806B3F0E816F70EC37F019
:1044B8007AC020F17BC021F17CC022F17DC023F1BC
:1044C80028C189F029C18AF02AC18BF02BC18CF050
:1044D8007E6B7F6B806B400E816F20C17AF021C1AB
:1044E8007BF022C17CF023C17DF070EC37F07AC0FC
:1044F8008DF07BC08EF07CC08FF07DC090F00FEC0B
:104508003DF017E228C189F029C18AF02AC18BF051
:104518002BC18CF08D6B8E6B8F6B400E906FF2EC15
:1045280038F089C020F18AC021F18BC022F18CC0FB
:1045380023F120C19CF021C19DF022C19EF023C12E
:104548009FF028C198F029C199F02AC19AF02BC18F
:104558009BF0B0EC3FF098C07AF099C07BF09AC01D
:104568007CF09BC07DF0F7C37EF0F8C37FF0F9C301
:1045780080F0FAC381F070EC37F07AC000F17BC0AC
:1045880001F17CC002F17DC003F100C1AEF001C1B0
:10459800AFF002C1B0F003C1B1F04DEC39F0AEC0DC
:1045A8003CF4AFC03DF4B0C03EF4B1C03FF424C108
:1045B8007EF025C17FF026C180F027C181F0F7C3C6
:1045C8007AF0F8C37BF0F9C37CF0FAC37DF070ECA5
:1045D80037F060D8BD0E7E6F370E7F6F860E806F06
:1045E800420E816F70EC37F07AC004F17BC005F1A0
:1045F8007CC006F17DC007F104C1AEF005C1AFF083
:1046080006C1B0F007C1B1F04DEC39F0AEC040F0D2
:10461800AFC041F0B0C042F0B1C043F01CC17EF061
:104628001DC17FF01EC180F01FC181F0F7C37AF071
:10463800F8C37BF0F9C37CF0FAC37DF070EC37F077
:1046480029D86F0E7E6F120E7F6F030E806F470E94
:10465800816F70EC37F07AC008F17BC009F17CC03B
:104668000AF17DC00BF108C1AEF009C1AFF00AC173
:10467800B0F00BC1B1F04DEC39F0AEC044F0AFC0B2
:1046880045F0B0C046F0B1C047F004EC25F0000199
:104698003E80000C7AC02CF17BC02DF17CC02EF13D
:1046A8007DC02FF12CC17AF02DC17BF02EC17CF09A
:1046B8002FC17DF01200060E0101FD6F0001CD6BC8
:1046C800CE6BCF6BD06BDBD9620E7E6FBE0E7F6F69
:1046D8003C0E806F460E816FF7C37AF0F8C37BF00B
:1046E800F9C37CF0FAC37DF070EC37F07AC0AEF015
:1046F8007BC0AFF07CC0B0F07DC0B1F04DEC39F0BC
:10470800AEC040F0AFC041F0B0C042F0B1C043F01D
:1047180077D93C9A3E903E8A00013E8A73EC41F07C
:10472800ECEC3AF01C0E776F8B0E766FCDEC3FF009
:10473800756B010E15EC3CF01B0E776F370E766F1C
:10474800CDEC3FF073EC41F0CC6FCC51030A03E1A0
:10475800FE0EC76F34D1CC51020A02E1C7692FD1CE
:10476800CC0504E1CD6BCE6BCF6BD06BCC51040A7A
:1047780034E1000E8A6FCD0E896F96D9AAEC3AF013
:104788004BEC40F075C07AF076C07BF077C07CF0D7
:1047980078C07DF070EC37F07AC08BF07BC08CF07D
:1047A8007CC08DF07DC08EF016EC3EF0896B8A6B74
:1047B800B40E8B6F420E8C6FCDC08DF0CEC08EF0D4
:1047C800CFC08FF0D0C090F00FEC3DF006E2CD6B7B
:1047D800CE6BB40ECF6F420ED06FCC51050A34E1C8
:1047E800000EA16FCD0EA06F5FD9AAEC3AF04BEC8A
:1047F80040F075C07AF076C07BF077C07CF078C066
:104808007DF070EC37F07AC0A2F07BC0A3F07CC0DA
:10481800A4F07DC0A5F0F1EC3DF0CDC089F0CEC08C
:104828008AF0CFC08BF0D0C08CF08D6B8E6BB40E3D
:104838008F6FC20E906F0FEC3DF006E2CD6BCE6B22
:10484800B40ECF6FC20ED06FCCAF03D0CCC0C7F0C0
:10485800B6D0060E756F010E15EC3CF0CDC0B8F061
:10486800CEC0B9F0CFC0BAF0D0C0BBF0020EBC6F5A
:10487800BD6F010EBE6FA4EC2FF03EA252D0000116
:10488800D0AF31D0F7C37EF0F8C37FF0F9C380F022
:10489800FAC381F0CDC06BF0CEC06CF0CFC06DF024
:1048A800D0C06EF04EEC41F06BC07AF06CC07BF07B
:1048B8006DC07CF06EC07DF070EC37F0B3D870EC52
:1048C80037F07AC0AEF07BC0AFF07CC0B0F07DC0EE
:1048D800B1F04DEC39F0DED802D027EC1CF0000125
:1048E8003CA26AD0FAD7000EBDD80FEC3DF010E21A
:1048F800010EB1D802D027EC1CF000013CB2FBD766
:1049080000013CB059D03E9A3E9A7AD83E9247D0A0
:10491800010EA1D802D027EC1CF000013CA24CD01B
:10492800FAD7000E00019ED80FEC3DF027E2CDC06B
:104938007EF0CEC07FF0CFC080F0D0C081F0F7C34A
:104948007AF0F8C37BF0F9C37CF0FAC37DF070EC21
:1049580037F068D870EC37F07AC0AEF07BC0AFF0B3
:104968007CC0B0F07DC0B1F04DEC39F093D802D0E6
:1049780027EC1CF000013CA21FD0FAD7D0AF14D00E
:10498800010E69D802D027EC1CF000013CB2FBD71D
:1049980000013CB011D03E9A3E9A32D83E826FD880
:1049A8003E8A00013E8A08D0010E55D802D027EC75
:1049B8001CF000013CB2FBD727EC1CF0C3D6ECEC92
:1049C8003AF01D0E776F0A0E766FCDEC3FF0010EB0
:1049D8000401446F000E456F466F476F3C8202D05A
:1049E80027EC1CF000013CB2FBD700013CB005D01D
:1049F8003E9A3E9A0001C751120027EC1CF0E7D7F7
:104A08004C6A4D6A4E6A4F6A0201F46BF56BF66B9D
:104A1800F76BE86BE96BEA6BEB6BEC6BED6BEE6BD2
:104A2800EF6B12007AC0C8F07BC0C9F07CC0CAF036
:104A38007DC0CBF06F0E7E6F120E7F6F030E806FFE
:104A4800470E816FC8C07AF0C9C07BF0CAC07CF03D
:104A5800CBC07DF0470C0401446F456B466B476B38
:104A68003C82000C896B8A6B8B6B8C6BCDC08DF094
:104A7800CEC08EF0CFC08FF0D0C090F012003D8233
:104A8800F0C248F0F1C249F0F2C24AF0F3C24BF06A
:104A98003D921200AEC044F4AFC045F4B0C046F435
:104AA800B1C047F43C821200CD0E7E6FCC0E7F6FF2
:104AB8004C0E806F3D0E816F3D0C0101BC6B030EE7
:104AC800FD6FECEC3AF01B0E776FEC0E766FCDECC9
:104AD8003FF049C475F04AC476F079EC40F075C0EF
:104AE800C5F176C0C6F177C0C7F178C0C8F1C5C1B5
:104AF80038F1C6C139F1C7C13AF1C8C13BF101016A
:104B08003C6B3D6BB40E3E6F420E3F6FECEC2BF0EE
:104B180011D027EC1CF073EC41F00101CD6FCD51A1
:104B2800030A03E1FE0EBC6F78D1CDAF03D0CDC12F
:104B3800BCF173D100013EB0ECD751C47AF052C435
:104B48007BF053C47CF054C47DF000017E6B7F6B16
:104B5800B40E806F430E816F70EC37F07AC0C1F1EC
:104B68007BC0C2F17CC0C3F17DC0C4F104014B51CC
:104B7800020A08E10101C16B4E0EC26FED0EC36F50
:104B88004A0EC46F04014C6712D0C1C16BF0C2C198
:104B98006CF0C3C16DF0C4C16EF04EEC41F06BC057
:104BA800C1F16CC0C2F16DC0C3F16EC0C4F1D6ECE6
:104BB8003CF085EC3EF075C0C5F176C0C6F177C013
:104BC800C7F178C0C8F13D92010E00018A6FC50E89
:104BD800896FFBC38BF0FCC38CF0FDC38DF0FEC363
:104BE8008EF03BEC3EF0C5C175F0C6C176F0C7C18A
:104BF80077F0C8C178F0C1C179F0C2C17AF0C3C1F9
:104C08007BF0C4C17CF01CEC33F075C0B0F176C009
:104C1800B1F177C0B2F178C0B3F1ECEC3AF01A0E0A
:104C2800776F700E766FCDEC3FF004014B51020A9E
:104C380012E1ECEC3AF01C0E776F6D0E766FCDEC4E
:104C48003FF0756B010E15EC3CF01B0E776FB80E3C
:104C5800766FCDEC3FF00001896B8A6B800E8B6F0D
:104C68003F0E8C6F59C48DF05AC48EF05BC48FF020
:104C78005CC490F0F2EC38F089C0B8F18AC0B9F1A0
:104C88008BC0BAF18CC0BBF173EC41F0C1C130F1FB
:104C9800C2C131F1C3C132F1C4C133F159C434F1D5
:104CA8005AC435F15BC436F15CC437F1E7EC3FF028
:104CB800B2D0D6EC3CF085EC3EF075C0BDF176C0C4
:104CC800BEF177C0BFF178C0C0F13D92010E00017E
:104CD8008A6FBD0E896FFBC38BF0FCC38CF0FDC3DC
:104CE8008DF0FEC38EF03BEC3EF0B0C198F0B1C140
:104CF80099F0B2C19AF0B3C19BF0BDC19CF0BEC19E
:104D08009DF0BFC19EF0C0C19FF0B0EC3FF098C0CD
:104D1800C9F199C0CAF19AC0CBF19BC0CCF101018D
:104D2800CCAF12D0C9C16BF0CAC16CF0CBC16DF069
:104D3800CCC16EF04EEC41F06BC0C9F16CC0CAF149
:104D48006DC0CBF16EC0CCF1C9C17AF0CAC17BF09D
:104D5800CBC17CF0CCC17DF0B8C17EF0B9C17FF089
:104D6800BAC180F0BBC181F070EC37F07AC0B4F101
:104D78007BC0B5F17CC0B6F17DC0B7F1010E000172
:104D88008A6FC90E896F1B0E8B6F0F0E8C6F360ED4
:104D98008D6F3B0E8E6F3BEC3EF004014B51020AC7
:104DA8002EE00B0E0001756F000E15EC3CF0B4C13F
:104DB800D0F0B5C1D1F0B6C1D2F0B7C1D3F00E0E64
:104DC800D46F000ED56BFDEC34F0756B010E15EC4D
:104DD8003CF0C9C1B8F0CAC1B9F0CBC1BAF0CCC176
:104DE800BBF0050EBC6F020EBD6F000EBE6BA4ECCF
:104DF8002FF01D0E776F310E766FCDEC3FF073EC10
:104E080041F00101CD6FCD51030A01E18BD6CDBF31
:104E18008ED627EC1CF03EB04CD73E903C9A3E8A8A
:104E28000401446B456B466B476B00013C82ECEC1C
:104E38003AF01D0E776F0A0E766FCDEC3FF03CA26C
:104E480003D0FDD727EC1CF000013CB0FBD73E9007
:104E58003C9A3E9A0101BC511200756B766B010EAB
:104E68004AEC3CF0D1C089F0D2C08AF0D3C08BF0B4
:104E7800D4C08CF08D6B400E8E6F1C0E8F6F460E5B
:104E8800906F0FEC3DF012E2896B400E8A6F1C0E9A
:104E98008B6FC60E8C6FCDC08DF0CEC08EF0CFC09C
:104EA8008FF0D0C090F00FEC3DF002E3050E4FD02C
:104EB80089D97A0E8F6F440E906F0FEC3DF011E296
:104EC800896B8A6B7A0E8B6FC40E8C6FCDC08DF098
:104ED800CEC08EF0CFC08FF0D0C090F00FEC3DF078
:104EE80002E3040E34D06ED9C80E8F6F420E906F55
:104EF8000FEC3DF011E2896B8A6BC80E8B6FC20E06
:104F08008C6FCDC08DF0CEC08EF0CFC08FF0D0C0EA
:104F180090F00FEC3DF002E3030E19D053D9200EA8
:104F28008F6F410E906F0FEC3DF010E2896B8A6B2A
:104F3800200E8B6FC10E8C6FCDC08DF0CEC08EF061
:104F4800CFC08FF0D0C090F00FEC3DF0020ED96FBB
:104F5800D5C089F0D6C08AF0D7C08BF0D8C08CF005
:104F68008D6B8E6B800E8F6F3F0E906F0FEC3DF048
:104F780002E3DA6B53D0D5C089F0D6C08AF0D7C027
:104F88008BF0D8C08CF0CD0E8D6FCC0E8E6F8F6FDE
:104F98003D0E906F0FEC3DF002E3010E3ED0D5C000
:104FA80089F0D6C08AF0D7C08BF0D8C08CF00A0E32
:104FB8008D6FD70E8E6F230E8F6F3C0E906F0FEC98
:104FC8003DF002E3020E29D0D5C089F0D6C08AF0A0
:104FD800D7C08BF0D8C08CF06F0E8D6F120E8E6F0D
:104FE800830E8F6F3A0E906F0FEC3DF002E3030EC5
:104FF80014D0D5C089F0D6C08AF0D7C08BF0D8C0FD
:105008008CF0170E8D6FB70E8E6FD10E8F6F380E16
:10501800906F0FEC3DF002E3040EDA6FCBC0D9FFBE
:10502800CCC0DAFFDECFDCF0DECFDDF0DECFDEF0A5
:10503800DECFDFF0ECEC3AF0C7C076F0C8C077F00E
:10504800CDEC3FF0756B010E15EC3CF0C6D8A4EC26
:105058002FF0C9C076F0CAC077F0CDEC3FF0756B81
:10506800010E15EC3CF0B9D8A4EC2FF0BBEC40F0E5
:10507800DB6FDBAF97D0DB511200CBC0D9FFCCC0C0
:10508800DAFFDCC0DEFFDDC0DEFFDEC0DEFFDFC032
:10509800DEFF756B766B010E4AEC3CF0000CFE0CE3
:1050A800FF0C000E8A6FDC0E896FD5C07EF0D6C06B
:1050B8007FF0D7C080F0D8C081F0AAEC3AF04BEC72
:1050C80040F075C07AF076C07BF077C07CF078C08D
:1050D8007DF070EC37F07AC08BF07BC08CF07CC030
:1050E8008DF07DC08EF016EC3EF0D1C089F0D2C0B4
:1050F8008AF0D3C08BF0D4C08CF0DCC08DF0DDC05A
:105108008EF0DEC08FF0DFC090F00FEC3DF0A7E22C
:10511800D1C0DCF0D2C0DDF0D3C0DEF0D4C0DFF007
:105128009ED7000EA16FDC0EA06FD5C07EF0D6C052
:105138007FF0D7C080F0D8C081F0AAEC3AF04BECF1
:1051480040F075C07AF076C07BF077C07CF078C00C
:105158007DF070EC37F07AC0A2F07BC0A3F07CC081
:10516800A4F07DC0A5F0F1EC3DF0DCC089F0DDC015
:105178008AF0DEC08BF0DFC08CF0CDC08DF0CEC0E1
:105188008EF0CFC08FF0D0C090F00FEC3DF001E36F
:1051980066D7CDC0DCF0CEC0DDF0CFC0DEF0D0C029
:1051A800DFF05DD7DB51010A01E167D7030A01E1AE
:1051B80077D7010A01E173D7070A01E172D7010A1B
:1051C800B0E04DD7D1C089F0D2C08AF0D3C08BF0FF
:1051D800D4C08CF08D6B8E6B1200DCC0B8F0DDC0D3
:1051E800B9F0DEC0BAF0DFC0BBF0D9C0BCF0DAC09D
:1051F800BDF0010EBE6F010C7CAF0DD02D0E68EC1A
:105208003AF0796D7A1FD8B07A2B7B1FD8B07B2BF8
:10521800000E7C5705D07E5103E02B0E68EC3AF067
:1052280079C06BF07AC06CF07BC06DF07CC06EF01A
:105238006F6BCA0E706F9A0E716F3B0E726F36EC01
:1052480038F033D96F6BCA0E706F9A0E716F3B0EC0
:10525800726F35EC3DF03AD9090E7D6503D07F5168
:1052680068EC3AF079C06BF07AC06CF07BC06DF0F6
:105278007CC06EF06F6BE10E706FF50E716F050EEE
:10528800726F36EC38F011D96F6BE10E706FF50E56
:10529800716F050E726F35EC3DF018D9080E7D65FB
:1052A80003D07F5168EC3AF079C06BF07AC06CF0AB
:1052B8007BC06DF07CC06EF0800E6F6F960E706FC5
:1052C800980E716F000E726B36EC38F0EED8800EC7
:1052D8006F6F960E706F980E716F000E726B35ECD3
:1052E8003DF0F4D8070E7D6503D07F5168EC3AF0A5
:1052F80079C06BF07AC06CF07BC06DF07CC06EF04A
:10530800400E6F6F420E706F0F0E716F000E726B52
:1053180036EC38F0CAD8400E6F6F420E706F0F0E21
:10532800716F000E726B35EC3DF0D0D8060E7D65BE
:1053380003D07F5168EC3AF079C06BF07AC06CF01A
:105348007BC06DF07CC06EF0A00E6F6F860E706F24
:10535800010E716F000E726B36EC38F0A6D8A00EF5
:105368006F6F860E706F010E716F000E726B35ECE9
:105378003DF0ACD8050E7D6503D07F5168EC3AF05E
:1053880079C06BF07AC06CF07BC06DF07CC06EF0B9
:10539800100E6F6F270E706F000E716B726B36EC0C
:1053A80038F083D8100E6F6F270E706F000E716B78
:1053B800726B35EC3DF08AD8040E7D6503D07F51C1
:1053C80068EC3AF079C06BF07AC06CF07BC06DF095
:1053D8007CC06EF0E80E6F6F030E706F000E716B7D
:1053E800726B36EC38F061D8E80E6F6F030E706F91
:1053F800000E716B726B35EC3DF068D8030E7D655D
:1054080003D07F5168EC3AF079C06BF07AC06CF049
:105418007BC06DF07CC06EF0640E6F6F000E706B19
:10542800716B726B36EC38F040D8640E6F6F000EFB
:10543800706B716B726B35EC3DF048D8020E7D6570
:1054480003D07F5168EC3AF079C06BF07AC06CF009
:105458007BC06DF07CC06EF00A0E6F6F000E706B33
:10546800716B726B36EC38F020D80A0E6F6F000E35
:10547800706B716B726B35EC3DF028D8010E7D6551
:1054880003D07F5168EC3AF079C07FF07AC080F0A1
:105498007BC081F07CC082F0300E7F27000E802315
:1054A800812382237F5168EF3AF06BC07FF06CC094
:1054B80080F06DC081F06EC082F07FC06BF080C05C
:1054C8006CF081C06DF082C06EF012006B51795F94
:1054D8006C517A5B6D517B5B6E517C5B300E7F2724
:1054E800000E802381238223000C0001BAAF13D061
:1054F800B7C06BF0B8C06CF0B9C06DF0BAC06EF050
:105508004EEC41F06BC0DBF06CC0DCF06DC0DDF040
:105518006EC0DEF008D0B7C0DBF0B8C0DCF0B9C0B0
:10552800DDF0BAC0DEF0DBC07AF0DCC07BF0DDC0B5
:105538007CF0DEC07DF07E6B7F6B806B3F0E816FF1
:1055480070EC37F07AC0BBF07BC0BCF07CC0BDF01B
:105558007DC0BEF0EDC389F0EEC38AF0EFC38BF0D7
:10556800F0C38CF0E9C38DF0EAC38EF0EBC38FF083
:10557800ECC390F0F2EC38F089C0DFF08AC0E0F0BC
:105588008BC0E1F08CC0E2F012D970EC37F0E0D8B3
:1055980070EC37F0F6D870EC37F07AC0CBF07BC0FF
:1055A800CCF07CC0CDF07DC0CEF0BBC089F0BCC0D3
:1055B8008AF0BDC08BF0BEC08CF0CBC08DF0CCC0E3
:1055C8008EF0CDC08FF0CEC090F00FEC3DF035E2FC
:1055D800DBC089F0DCC08AF0DDC08BF0DEC08CF067
:1055E800E9C38DF0EAC38EF0EBC38FF0ECC390F003
:1055F800F2EC38F089C0A6F08AC0A7F08BC0A8F0FA
:105608008CC0A9F0CAEC33F0A6C0DFF0A7C0E0F068
:10561800A8C0E1F0A9C0E2F0CAD870EC37F098D879
:1056280070EC37F0AED870EC37F07AC0CBF07BC0B6
:10563800CCF07CC0CDF07DC0CEF0E9C37AF0EAC3EF
:105648007BF0EBC37CF0ECC37DF0DFC07EF0E0C004
:105658007FF0E1C080F0E2C081F070EC37F07AC0F2
:10566800BFF07BC0C0F07CC0C1F07DC0C2F0DBC021
:1056780098F0DCC099F0DDC09AF0DEC09BF07E6B3C
:105688007F6B806B400E816FCBC07AF0CCC07BF013
:10569800CDC07CF0CEC07DF070EC37F07AC09CF0C5
:1056A8007BC09DF07CC09EF07DC09FF0B0EC3FF0C9
:1056B80098C0C3F099C0C4F09AC0C5F09BC0C6F0AA
:1056C800C3C089F0C4C08AF0C5C08BF0C6C08CF0D6
:1056D800BFC08DF0C0C08EF0C1C08FF0C2C090F0C6
:1056E800F2EC38F089C0C7F08AC0C8F08BC0C9F0A6
:1056F8008CC0CAF0DFC07AF0E0C07BF0E1C07CF07B
:10570800E2C07DF07E6B7F6B806B400E816F70EC2A
:1057180037F07AC0D7F07BC0D8F07CC0D9F07DC014
:10572800DAF0000E8A6FD70E896FC7C08BF0C8C039
:105738008CF0C9C08DF0CAC08EF016EC3EF0D7C010
:10574800B7F0D8C0B8F0D9C0B9F0DAC0BAF01200D2
:105758007AC0CFF07BC0D0F07CC0D1F07DC0D2F051
:10576800DFC07EF0E0C07FF0E1C080F0E2C081F0F1
:10577800CFC07AF0D0C07BF0D1C07CF0D2C07DF031
:1057880012007AC0D3F07BC0D4F07CC0D5F07DC0C5
:10579800D6F0D3C07AF0D4C07BF0D5C07CF0D6C0A8
:1057A8007DF07E6B7F6B806B3F0E816F3F0CDFC09F
:1057B8007EF0E0C07FF0E1C080F0E2C081F0E9C394
:1057C8007AF0EAC37BF0EBC37CF0ECC37DF0120007
:1057D8003FAF13D03CC16BF03DC16CF03EC16DF0E2
:1057E8003FC16EF04EEC41F06BC0C8F06CC0C9F020
:1057F8006DC0CAF06EC0CBF008D03CC1C8F03DC146
:10580800C9F03EC1CAF03FC1CBF001013BAF25D082
:1058180038C1DCF023D907D0000E8A6FDC0E80EC8B
:1058280036F016EC3EF0DCC089F0DDC08AF0DEC050
:105838008BF0DFC08CF000018D6B8E6BB40E8F6F18
:10584800C30E906F0FEC3DF0E7E3000E8A6FDC0E9D
:1058580080EC36F016EC3EF022D038C1DCF0FED8F1
:105868000CD0000EA16FDC0EA06FA26BA36BB40E60
:10587800A46F430EA56FF1EC3DF00001896B8A6BB4
:10588800B40E8B6F430E8C6FDCC08DF0DDC08EF0D4
:10589800DEC08FF0DFC090F00FEC3DF0E2E30FECDC
:1058A80036F0A6C0D8F0A7C0D9F0A8C0DAF0A9C0D1
:1058B800DBF0D8C089F0D9C08AF0DAC08BF0DBC041
:1058C8008CF0DCC08DF0DDC08EF0DEC08FF0DFC064
:1058D80090F00FEC3DF039E2DCC098F0DDC099F0B3
:1058E800DEC09AF0DFC09BF0D8C09CF0D9C09DF014
:1058F800DAC09EF0DBC09FF0B0EC3FF098C0CCF06F
:1059080099C0CDF09AC0CEF09BC0CFF0DCC09CF01F
:10591800DDC09DF0DEC09EF0DFC09FF0A6D8B0ECE1
:105928003FF08BD8D8C079F0D9C07AF0DAC07BF0D4
:10593800DBC07CF01CEC33F075C0D0F076C0D1F041
:1059480077C0D2F078C0D3F038D0D8C09CF0D9C096
:105958009DF0DAC09EF0DBC09FF087D8B0EC3FF036
:105968006CD8DCC079F0DDC07AF0DEC07BF0DFC037
:105978007CF01CEC33F075C0CCF076C0CDF077C06D
:10598800CEF078C0CFF0D8C098F0D9C099F0DAC07E
:105998009AF0DBC09BF0DCC09CF0DDC09DF0DEC05F
:1059A8009EF0DFC09FF0B0EC3FF098C0D0F099C0F7
:1059B800D1F09AC0D2F09BC0D3F0CCC089F0CDC052
:1059C8008AF0CEC08BF0CFC08CF0D0C08DF0D1C0A3
:1059D8008EF0D2C08FF0D3C090F00FEC3DF009E20A
:1059E800CCC030F1CDC031F1CEC032F1CFC033F1EF
:1059F8001AD0D0C06BF0D1C06CF0D2C06DF0D3C05B
:105A08006EF04EEC41F06BC0C4F06CC0C5F06DC0D8
:105A1800C6F06EC0C7F0C4C030F1C5C031F1C6C011
:105A280032F1C7C033F1C8C034F1C9C035F1CAC0BA
:105A380036F1CBC037F1E7EF3FF098C0D4F099C00A
:105A4800D5F09AC0D6F09BC0D7F0D4C075F0D5C0B9
:105A580076F0D6C077F0D7C078F0120039C1DDF003
:105A68003AC1DEF03BC1DFF01200986B996BB40EBF
:105A78009A6F430E9B6F430CBAAF08D0B7C07AF049
:105A880023D9BF0E816F70EC37F007D0B7C07AF01A
:105A98001BD93F0E816F70EC37F07AC0CFF07BC016
:105AA800D0F07CC0D1F07DC0D2F0BEAF08D0BBC072
:105AB8007AF000D9BF0E816F70EC37F007D0BBC009
:105AC8007AF0F8D83F0E816F70EC37F07AC0D3F0D7
:105AD8007BC0D4F07CC0D5F07DC0D6F0896B8A6BD2
:105AE800800E8B6F450E8C6FD3C08DF0D4C08EF0B6
:105AF800D5C08FF0D6C090F00FEC3DF01BE2CFC0C0
:105B080089F0D0C08AF0D1C08BF0D2C08CF0D3C05D
:105B18008DF0D4C08EF0D5C08FF0D6C090F0F2ECE6
:105B280038F089C0B7F08AC0B8F08BC0B9F08CC023
:105B3800BAF01200D3C07EF0D4C07FF0D5C080F098
:105B4800D6C081F0D3C07AF0D4C07BF0D5C07CF049
:105B5800D6C07DF070EC37F07AC098F07BC099F031
:105B68007CC09AF07DC09BF0E9C38DF0EAC38EF04B
:105B7800EBC38FF0ECC390F07E6B7F6B806B400EB5
:105B8800816FCFC07AF0D0C07BF0D1C07CF0D2C09A
:105B98007DF070EC37F07AC089F07BC08AF07CC069
:105BA8008BF07DC08CF0F2EC38F089C09CF08AC094
:105BB8009DF08BC09EF08CC09FF0B0EC3FF098C079
:105BC800C7F099C0C8F09AC0C9F09BC0CAF0CAAF64
:105BD80008D0000EB76FB86F800EB96FBF0EBA6FDE
:105BE800BF0CC7C0A6F0C8C0A7F0C9C0A8F0CAC0FB
:105BF800A9F0CAEC33F0A6C0C3F0A7C0C4F0A8C08F
:105C0800C5F0A9C0C6F0D3C098F0D4C099F0D5C0EB
:105C18009AF0D6C09BF0C3C09CF0C4C09DF0C5C02C
:105C28009EF0C6C09FF0B0EC3FF098C0BFF099C09E
:105C3800C0F09AC0C1F09BC0C2F0E9C37AF0EAC3D1
:105C48007BF0EBC37CF0ECC37DF0BFC07EF0C0C03E
:105C58007FF0C1C080F0C2C081F070EC37F07AC02C
:105C6800CBF07BC0CCF07CC0CDF07DC0CEF0EDC3D6
:105C780089F0EEC38AF0EFC38BF0F0C38CF0CBC091
:105C88008DF0CCC08EF0CDC08FF0CEC090F00FEC70
:105C98003DF007E2000EB76FB86FB96FC00EBA6F6C
:105CA800C00CCBC0B7F0CCC0B8F0CDC0B9F0CEC0F6
:105CB800BAF01200BCC07BF0BDC07CF0BEC07DF065
:105CC8007E6B7F6B806B1200B8C07BF0B9C07CF034
:105CD800BAC07DF07E6B7F6B806B12000201E56BB2
:105CE800E46B74EC3FF08B908A904C6A4D6A4E6A74
:105CF8004F6A0201E86BE96BEA6BEB6BEC6BED6BDF
:105D0800EE6BEF6BE66B280E0201E625D96EDA6AB8
:105D1800040EDA22DF68E62B0F0EE665F4D733ECC3
:105D280040F0A5EC3BF05BEC3DF0ECEC3AF01C0EDF
:105D3800776F4E0E766FCDEC3FF0756B010E15EC5C
:105D48003CF01D0E776F4B0E766FCDEC3FF0070ED3
:105D5800916FD00E906F91EC41F01D0E0201C96F4A
:105D6800A10EC86F1C0ECB6F9A0ECA6F1D0ECD6F99
:105D7800AD0ECC6F1C0ECF6F8B0ECE6F1B0ED16F7E
:105D8800FD0ED06F1D0ED36F580ED26F1A0ED56F41
:105D9800EA0ED46FC8C2D6F2C9C2D7F2CAC2D8F2C4
:105DA800CBC2D9F2CEC2DAF2CFC2DBF2CCC2DCF27D
:105DB800CDC2DDF2D0C2DEF2D1C2DFF2D2C2E0F251
:105DC800D3C2E1F2D4C2E2F2D5C2E3F200013C8AC6
:105DD800ECEC3AF01A0E776F300E766FCDEC3FF0A0
:105DE800756B010E15EC3CF01C0E776F7C0E766F10
:105DF800CDEC3FF061EC41F03C8602D027EC1CF082
:105E080000013CB6FBD70001916B0A0E906F91EC34
:105E180041F000013C9AECEC3AF0010E0101FD6FF3
:105E2800020E0001926FD60E916F060E936FE5C2B7
:105E380094F061EC32F00201E76F5FD0E56B12EC91
:105E48000FF00201E76FE751FE0AD8B45FEC23F0C8
:105E58000201E729D8B45FEC23F00201E751800A78
:105E6800820F4BE3DAD7010EE56F06EC16F002015C
:105E7800E76FE751800A820F40E3E7AFCED75FECC8
:105E880023F038D0030EE56FD7EC37F00201E76F47
:105E9800E729C3E0E751FE0AC0E0E751800A820F14
:105EA8002CE3E7C2E4F2E4512CEC3BF023D0E56BA1
:105EB8005FEC23F01FD0E56B25EC3AF01BD0E56BC7
:105EC80086EC35F0AAD7E56BBDEC12F013D0010EC5
:105ED8002CEC3BF00FD0020E2CEC3BF00BD0030E59
:105EE8002CEC3BF007D0040E2CEC3BF003D0050E55
:105EF8002CEC3BF00201E76FB1D7E7519FE0010AB4
:105F0800B2E0030AD4E0010ABDE0070AD4E0010ABE
:105F1800D6E0030AD8E0C30AD2E0030AD4E0010AB3
:105F2800C6E00F0AA0E0010A89E0030AE0E0010ADE
:105F3800DAE0070AD4E0010ACEE0030AC8E06DD728
:105F4800B8C0AEF0B9C0AFF0BAC0B0F0BBC0B1F0E5
:105F58004DEC39F0AEC0BFF0AFC0C0F0B0C0C1F07A
:105F6800B1C0C2F0BE5119E0C251BF11C011C11178
:105F780014E1BBAF04D02D0E68EC3AF003D02B0E21
:105F880068EC3AF0000E796B7A6B7B6B7C6BBCC06B
:105F98007DF07E6B00EC29F00ED0BFC079F0C0C058
:105FA8007AF0C1C07BF0C2C07CF0BCC07DF0BEC03E
:105FB8007EF000EC29F0000EA16FB80EA06FBFC0F4
:105FC80075F0C0C076F0C1C077F0C2C078F085EC3B
:105FD8003EF075C0A2F076C0A3F077C0A4F078C0F8
:105FE800A5F0F1EC3DF0BBAF17D0000E986B996BA4
:105FF8009A6B9B6BB8C09CF0B9C09DF0BAC09EF07C
:10600800BBC09FF0B0EC3FF098C0B8F099C0B9F0B1
:106018009AC0BAF09BC0BBF0000E8A6FB80E896FA9
:106028008B6B500E8C6FC30E8D6F470E8E6F3BECD3
:106038003EF0B8C0AEF0B9C0AFF0BAC0B0F0BBC067
:10604800B1F04DEC39F0AEC0C3F0AFC0C4F0B0C091
:10605800C5F0B1C0C6F0BD51D8B412002E0E68EC20
:106068003AF0BD0514E1C3C06BF0C4C06CF0C5C004
:106078006DF0C6C06EF0100E6F6F270E706F000EB9
:10608800716B726B36EC38F056D8010E50D0BD519A
:10609800020A14E1C3C06BF0C4C06CF0C5C06DF057
:1060A800C6C06EF0E80E6F6F030E706F000E716B56
:1060B800726B36EC38F03FD8020E39D0BD51030A66
:1060C80013E1C3C06BF0C4C06CF0C5C06DF0C6C0AE
:1060D8006EF0640E6F6F000E706B716B726B36EC46
:1060E80038F029D8030E23D0BD51040A13E1C3C0E8
:1060F8006BF0C4C06CF0C5C06DF0C6C06EF00A0E7F
:106108006F6F000E706B716B726B36EC38F013D8D2
:10611800040E0DD0BD51050AD8A41200C3C079F0F1
:10612800C4C07AF0C5C07BF0C6C07CF0050E7D6F98
:106138007E6B00EF29F06BC0C3F06CC0C4F06DC07B
:10614800C5F06EC0C6F0C3C079F0C4C07AF0C5C04F
:106158007BF0C6C07CF01200F7CF67F0F8CF68F08C
:10616800F5CF69F0FE0ED76E830ED66EF294ACA210
:1061780001D001D015D00001F051D8B401D001D020
:106188000FD00601000E0101FC25D96EDA6A06015E
:10619800060EDA22DF50AD6E0101FC2B0001F0077C
:1061A800AB30E832010B0001606FAB30010B6011BE
:1061B8000009D8B401D001D00DD0AB9800F0AB885D
:1061C800AECF6AF0AECF6AF00001EE6B00013B9EE5
:1061D80000013B9C9EAA01D001D032D0AECF6AF01C
:1061E80000016A51400AD8A401D001D005D0EE6B55
:1061F80000013B9E00013B8C00016A51230AD8A490
:1062080001D001D004D000013B8E00013B9C00016D
:10621800EE29D8A401D001D001D0EE6B00013BAC2F
:1062280001D001D00DD00701000E0001EE25D96E76
:10623800DA6A0701070EDA2200016AC0DFFFEE2BD7
:106248000001F251D8B401D001D002D0F20702D037
:10625800070EF26F00013BAA01D001D009D003015B
:10626800E6510001F26101D001D002D08A8201D04A
:106278008A92000100013E7C0001D890EB37D8904B
:10628800EB378050030BEB130F0EEB17200EEB25AB
:10629800F66EF76A1A0EF722F86A000EF82208005E
:1062A800F550606F000E60BFFF0E616F626F636F25
:1062B80060510401C05F000161510401C15B00012C
:1062C80062510401C25B000163510401C35B000118
:1062D8003CA601D001D007D000013C960401C06B58
:1062E800C16BC26BC36B00013DB201D001D008D0B5
:1062F800C0C4F0F2C1C4F1F2C2C4F2F2C3C4F3F2F2
:1063080069C0F5FF68C0F8FF67C0F7FF66C0F6FF11
:1063180065C0DAFF64C0D9FF1100B8C0CCF0B9C0BD
:10632800CDF0BAC0CEF0BBC0CFF0CCC07AF0CDC0B3
:106338007BF0CEC07CF0CFC07DF0BB0E7E6FA20E8E
:106348007F6F910E806F390E816F70EC37F088D8AF
:106358004DEC39F0AE51BCC0D9FFBDC0DAFFDF6EDD
:10636800BCC0D9FFBDC0DAFFDF504BEC40F089D884
:10637800610E8D6F450E8E6F3BEC3EF091D8F1ECBF
:106388003DF0CCC07AF0CDC07BF0CEC07CF0CFC061
:106398007DF0890E7E6F880E7F6F806F3C0E816F57
:1063A80070EC37F05DD84DEC39F0AE51BEC0D9FF76
:1063B800BFC0DAFFDF6EBEC0D9FFBFC0DAFFDF5053
:1063C8004BEC40F05ED8700E8D6F420E8E6F3BEC3A
:1063D8003EF066D8F1EC3DF0CCC0AEF0CDC0AFF0E9
:1063E800CEC0B0F0CFC0B1F04DEC39F0AE51C0C066
:1063F800D9FFC1C0DAFFDF6E000EA16FCC0EA06F0F
:10640800C0C0D9FFC1C0DAFFDF504BEC40F075C007
:10641800A2F076C0A3F077C0A4F078C0A5F0F1ECA4
:106428003DF0000E8A6FCC0E896F8B6B8C6B7A0EE9
:106438008D6F440E8E6F3BEC3EF0CCC0AEF0CDC0FD
:10644800AFF0CEC0B0F0CFC0B1F04DEC39F0C2C063
:10645800D9FFC3C0DAFFAEC0DEFFAFC0DDFF120058
:106468007AC0C4F07BC0C5F07CC0C6F07DC0C7F060
:10647800C4C0AEF0C5C0AFF0C6C0B0F0C7C0B1F080
:10648800120075C0C8F076C0C9F077C0CAF078C0ED
:10649800CBF0000E8A6FC80E896F8B6B8C6B120065
:1064A800000EA16FCC0EA06FC8C0A2F0C9C0A3F0A7
:1064B800CAC0A4F0CBC0A5F01200986B9A6B94C028
:1064C8009AF0756B010E766F4AEC3CF0ECEC3AF002
:1064D80098512DE0010E756F000E15EC3CF09A678F
:1064E8000FD09351020DF3509125D96E000E9221D1
:1064F800DA6EDECF76F0DDCF77F0CDEC3FF008D066
:106508009A51020DF3CF95F0FE0E77D8CDEC3FF0FF
:10651800756B010E15EC3CF02A0E68EC3AF05AD86F
:10652800CDEC3FF0756B010E15EC3CF023D02A0E34
:1065380068EC3AF04FD8CDEC3FF0010E756F15ECD2
:106548003CF06DD80BE191C0D9FF92C0DAFFDECFE5
:1065580076F0DDCF77F0CDEC3FF008D09A51020D00
:10656800F3CF95F0020E49D8CDEC3FF0000E756BD5
:1065780015EC3CF0BBEC40F0996F99AF18D099C07E
:106588009AF021D09A691FD0FE0E9A6F1CD0010E86
:10659800986F45D803E193C09AF098D79A2B96D76D
:1065A800986B9A6702D09A6B91D79A078FD79951AF
:1065B800010A09E0030AE6E0010AE6E0070AE7E063
:1065C800010AEEE083D7756B766B010E4AEC3CF05E
:1065D8009A5112009A51020DF3509125956FE86A6D
:1065E800F3BEE8689221966F95C0D9FF96C0DAFF8E
:1065F800DECF76F0DDCF77F0120095279551912503
:10660800966FE86A95BFE8689221976F96C0D9FFA0
:1066180097C0DAFFDECF76F0DDCF77F01200935126
:106628009AC095F0966B95BF96079519961112002A
:10663800000177357835806F7B357C357F6F8051E9
:1066480009E07F5180610FD080517F5D7D6F210E01
:106658007D5D09E379C075F07AC076F07BC077F08C
:106668007CC078F012007F5109E080517F610FD023
:106678007F51805D7D6F210E7D5D09E375C075F0EA
:1066880076C076F077C077F078C078F01200060E02
:106698007E6F78BF7E8F7CBF7E8D778F786B7B8F88
:1066A8007C6B7F51806119D0D89079377A377B37E6
:1066B8007C377F077F5180190CE07E0700017E51EF
:1066C800070B07E0F1D7D8907833773376337533F3
:1066D800802B7F518063F7D71BD080517F6118D002
:1066E800D890753776377737783780077F51801994
:1066F8000CE07E0700017E51070B07E0F1D7D89028
:106708007C337B337A3379337F2B7F518063F7D7A0
:106718007EAF09D0751F761F771F781F752B000E67
:106728007623772378237EAD02D0791F26D87E6B17
:106738007551792776517A2377517B2378517C23B9
:106748007CAF04D0791F19D8010E7E6F79C06BF029
:106758007AC06CF07BC06DF07CC06EF080C06FF0CA
:106768007EC070F094EC38F06BC075F06CC076F0B9
:106778006DC077F06EC078F012007A1F7B1F7C1F07
:10678800792B000E7A237B237C23000C000E896B67
:106798008A6B8B6B8C6BA6C08DF0A7C08EF0A8C0DF
:1067A8008FF0A9C090F00FEC3DF005E3A66BA76B46
:1067B800A86BA96B1200A6C0AAF0A7C0ABF0A8C02E
:1067C800ACF0A9C0ADF0A6515E08B36FC80EA755CE
:1067D800B46F6E0EA855B56FBE0EA955B66FD8909A
:1067E800B633B533B433B333D880000EAB5B800E09
:1067F800AC5B000EAD5B040EAE6FB3C07AF0B4C0F4
:106808007BF0B5C07CF0B6C07DF0AAC07EF0ABC00E
:106818007FF0ACC080F0ADC081F070EC37F07AC08A
:10682800AFF07BC0B0F07CC0B1F07DC0B2F03CD816
:106838003BEC3EF039D83BEC3EF0000E8A6FB30ECD
:10684800896F8B6B8C6BC00E8D6F3F0E8E6F3BEC20
:106858003EF0000EA16FB30EA06FAFC0A2F0B0C0A3
:10686800A3F0B1C0A4F0B2C0A5F0F1EC3DF0AE2F9A
:10687800C4D7B3C07AF0B4C07BF0B5C07CF0B6C062
:106888007DF0A6C07EF0A7C07FF0A8C080F0A9C0A8
:1068980081F070EC37F07AC0A6F07BC0A7F07CC01E
:1068A800A8F07DC0A9F01200000E8A6FAF0E896FA4
:1068B800B3C08BF0B4C08CF0B5C08DF0B6C08EF00C
:1068C8001200E8CF93F00001935186D8100E6F6F35
:1068D8000E0E706F000E716B726B35EC3DF067D861
:1068E80085EC3EF075C08BF076C08CF077C08DF0EB
:1068F80078C08EF016EC3EF08F516ED83C0E6F6F5C
:10690800000E706B716B726B35EC3DF050D885ECF6
:106918003EF075C08BF076C08CF077C08DF078C0F3
:106928008EF016EC3EF0000E8A6F9C0E896F905127
:106938004BEC40F075C08BF076C08CF077C08DF0D2
:1069480078C08EF016EC3EF091C075F092C076F0EB
:1069580092EC3FF075C094F076C095F077C096F051
:1069680078C097F0000E8A6F940E896F6F0E8B6F48
:10697800120E8C6F830E8D6F3A0E8E6F3BEC3EF0CD
:10698800000E8A6F9C0E896F94C08BF095C08CF0B6
:1069980096C08DF097C08EF016EC3EF09CC08FF03C
:1069A8009DC090F09EC091F09FC092F012006BC005
:1069B80098F06CC099F06DC09AF06EC09BF0000E14
:1069C8008A6F9C0E896F98C075F099C076F09AC04E
:1069D80077F09BC078F01200986F996B9A6B9B6B5D
:1069E80098C06BF099C06CF09AC06DF09BC06EF0C7
:1069F8001200D0C0B8F0D1C0B9F0D2C0BAF0D3C03C
:106A0800BBF0000EBD6FD60EBC6F000EBF6FD70E69
:106A1800BE6F000EC16FD80EC06F000EC36FD90EC7
:106A2800C26F91EC31F0D9C06BF0DAC06CF06E6BCC
:106A3800640E6D6F69EC3BF06BC0D9F06CC0DAF096
:106A4800D4A70ED0D5A703D03C0E68EC3AF0D651A7
:106A580051D800EC29F0D5A703D03E0E68EC3AF0E7
:106A6800D4A513D0D4A703D03A0E68EC3AF0D5A534
:106A780003D03C0E68EC3AF0D7513CD800EC29F032
:106A8800D5A503D03E0E68EC3AF0D4A313D0D4A514
:106A980003D03A0E68EC3AF0D5A303D03C0E68EC6C
:106AA8003AF0D85127D800EC29F0D5A303D03E0EF0
:106AB80068EC3AF0D4A11200D4A303D02E0E68ECEF
:106AC8003AF0D5A103D03C0E68EC3AF0D9C079F081
:106AD800DAC07AF0000E7ABFFF0E7B6F7C6F010E72
