:04100000A3EF0CF05E
:10100800D9CF64F0DACF65F0F6CF66F003EF2FF0B2
:10101800D8CF0FF0E8CF10F0E0CF11F0D9CF12F011
:10102800DACF13F0F6CF14F0F7CF15F0F8CF16F0AB
:10103800F5CF17F09E90010E3126000E3222000ED9
:101048003322000E3422000159B601D001D008D055
:1010580031C0DCF232C0DDF233C0DEF234C0DFF280
:1010680000015AA801D001D00ED03150455C325051
:1010780046583350475834504858D8B001D001D05A
:1010880002D000015A984A504910D8B401D001D072
:1010980006D04906D8A04A060001578A02D00001A6
:1010A800579A00015AA201D001D002D00001579AE4
:1010B800D8905436D89054368138E8461F0B030B25
:1010C80054120F0E5416DA0E5424F66EF76A190EDF
:1010D800F722F86A000EF8220800F550525E552AE9
:1010E8005528D8A401D001D004D0556A526A00010D
:1010F80058845250800A7D0FD8A001D001D00FD05B
:10110800040E516E00015782B0C449F0B1C44AF0D0
:101118000001578055C04DF04E6A556A526A5250C8
:10112800800A820FD8B001D001D00FD0050E516EC1
:1011380000015782B0C449F0B1C44AF00001578099
:1011480055C04DF04E6A556A526A81B401D001D03B
:1011580007D04F4A502AB0C449F0B1C44AF016D05B
:10116800020E4F5C000E5058D8A001D001D00CD010
:10117800C80E4F5C000E5058D8B001D001D004D032
:10118800010E516E000157824F6A506AB10E4F5CD2
:10119800040E5058D8A001D001D001D0FF0050044F
:1011A800900ED8B44F18D8A401D001D004D0030EA3
:1011B800516E000157824F50C80A5010D8A401D070
:1011C80001D004D0020E516E00015782000157A6CB
:1011D80001D001D009D000015792516A0001F16B8A
:1011E8000001579600015998000159B801D001D063
:1011F80012D0000157A201D001D004D051C0F1F0A3
:101208000001579200015AAA01D001D004D0000170
:101218005A9A56C0F1F0000159B401D001D017D044
:10122800000157A001D001D012D00301C80E5324E9
:10123800D96EDA6A030EDA224DC0DFFF532A0F0E89
:10124800536401D001D001D0536A000157900001C6
:101258005980E8C125F0E9C126F0EAC127F0EBC1C1
:1012680028F000015990000159AE01D001D0DED01C
:101278000001589A41500201D45D4250D55943505B
:10128800D6594450D759D8B001D001D024D03550C0
:101298000101EC5F3650ED5B3750EE5B3850EF5B89
:1012A8003550EC5D3650ED593750EE593850EF59FE
:1012B800D8B001D001D060D0D8C2D0F2D9C2D1F212
:1012C800DAC2D2F2DBC2D3F2EC6BED6BEE6BEF6BF2
:1012D8000001599E51D039500101EC5D3A50ED5949
:1012E8003B50EE593C50EF59D8B001D001D01CD03A
:1012F8003550EC273650ED233750EE233850EF2386
:10130800EC51395CED513A58EE513B58EF513C588D
:10131800D8B001D001D008D039C0ECF13AC0EDF115
:101328003BC0EEF13CC0EFF1EC51395CED513A585D
:10133800EE513B58EF513C58D8B001D001D01CD0E9
:101348003550EC5F3650ED5B3750EE5B3850EF5B55
:101358003950EC5D3A50ED593B50EE593C50EF593D
:10136800D8B001D001D008D039C0ECF13AC0EDF1C5
:101378003BC0EEF13CC0EFF10101EC510201C8277E
:101388000101ED510201C9230101EE510201CA23F5
:101398000101EF510201CB230101EC510201C85DAB
:1013A8000101ED510201C9590101EE510201CA5969
:1013B8000101EF510201CB59D8B001D001D008D0BA
:1013C800010ECC27000ECD23000ECE23000ECF2316
:1013D800CBC241F0CCC242F0CDC243F0CEC244F001
:1013E800000159AE01D001D003D100015AA001D0AB
:1013F80001D00ED041503D5C0201D06F42503E58A2
:10140800D16F43503F58D26F44504058D36FF0D0FB
:101418003D5041240201D06F3E504220D16F3F50D1
:101428004320D26F40504420D36FE2D0000158AA25
:1014380001D001D02BD025500201D05D2B6E265053
:10144800D1592C6E2750D2592D6E2850D3592E6E53
:1014580025C0D0F226C0D1F227C0D2F228C0D3F2DC
:101468002BC008F02CC009F02DC00AF02EC00BF0DC
:101478000B340B320A32093208320850D05F095057
:10148800D15B0A50D25B0B50D35BB2D000015AA497
:1014980001D001D0ADD0000158A201D001D00AD0AE
:1014A80000015892DCC339F0DDC33AF0DEC33BF0EB
:1014B800DFC33CF039500101EC5D3A50ED593B5027
:1014C800EE593C50EF59D8B001D001D020D00001DE
:1014D800588035500101EC273650ED233750EE2364
:1014E8003850EF23EC51395CED513A58EE513B58E6
:1014F800EF513C58D8B001D001D040D039C0ECF100
:101508003AC0EDF13BC0EEF13CC0EFF137D0EC5101
:10151800395CED513A58EE513B58EF513C58D8B030
:1015280001D001D029D00001588035500101EC5D6F
:101538003650ED593750EE593850EF59D8B001D0E0
:1015480001D005D0EC6BED6BEE6BEF6B08D035502E
:10155800EC5F3650ED5B3750EE5B3850EF5B39503F
:10156800EC5D3A50ED593B50EE593C50EF59D8B02C
:1015780001D001D003D0C2D7000158900101EC512D
:101588000201C8270101ED510201C9230101EE51F1
:101598000201CA230101EF510201CB230101EC51E1
:1015A8000201C85D0101ED510201C9590101EE5165
:1015B8000201CA590101EF510201CB59D8B001D03B
:1015C80001D008D0010ECC27000ECD23000ECE236B
:1015D800000ECF23CBC241F0CCC242F0CDC243F0C3
:1015E800CEC244F000015AA001D001D011D702D7D1
:1015F800C4CF29F02A6A29502A6E296AC35029269D
:10160800000E2A22C2825B50295C1C6E5C502A584C
:101618001D6E040E086E1D341D321C32082EFBD7B9
:101628001C505B261D505C2229505B5C2A505C587C
:10163800D8B001D001D002D05B4A5C2A5B50295C4B
:101648005C502A58D8B001D001D003D05B06D8A08E
:101658005C06000158BE01D001D004D05BC0F0F197
:101668005CC0F1F10401A1515B5CA2515C58D8B097
:1016780001D001D002D00001598A25500301D85D5C
:10168800236E2650D959246E25C0D8F326C0D9F325
:1016980027C0DAF328C0DBF324AE01D001D004D090
:1016A800236C241ED8B0242A0401A5C401F0026AC0
:1016B80023C003F024C004F0EAEC3EF001C029F096
:1016C80002C02AF0A6512926000E2A22000E295C03
:1016D800010E2A58D8A001D001D004D0000E2A6EDD
:1016E800FF0E296E5BC008F05CC009F0040E0A6E9C
:1016F800D890093208320A2EFBD708501E6EA3C4B0
:1017080001F0A4C402F01EC003F0046A2FEC3CF000
:1017180001C01AF002C01BF029C001F02AC002F073
:101728001AC003F01BC004F0EAEC3EF001C01FF041
:1017380002C020F0216A226A060E086ED890223272
:10174800213220321F32082EF9D725500201D05DF0
:101758002B6E2650D1592C6E2750D2592D6E2850F9
:10176800D3592E6E0401BAC408F0BBC409F0000EA8
:1017780009BEFF0E0A6E0B6E0B50800A0C6E2B50C2
:10178800085C2C5009582D500A582E50800A0C58C5
:10179800D8B001D001D00ED024EEBAF0DECF2BF0B5
:1017A800DDCF2CF0000E2CBEFF0E2D6E2E6E00012C
:1017B800598C37D024EEBAF0DECF08F0DDCF09F02F
:1017C800081E091E084A092A08C00AF009C00BF0B9
:1017D800000E0BBEFF0E0C6E0D6E2E50800A0E6EA4
:1017E8000A502B5C0B502C580C502D580D50800A69
:1017F8000E58D8B001D001D014D024EEBAF0DECF04
:1018080008F0DDCF09F0081E091E084A092A08C099
:101818002BF009C02CF0000E2CBEFF0E2D6E2E6E84
:10182800C6D74B502B5C186E4C502C58196E2BC0D9
:101838004BF02CC04CF0BCC401F0BDC402F02BC06E
:1018480003F02CC004F0EAEC3EF001C02FF002C017
:1018580030F0BEC401F0BFC402F018C003F019C0D4
:1018680004F0EAEC3EF001502F260250302230AE50
:1018780001D001D007D08B908A802F6C301ED8B051
:10188800302A02D08B808A902FC008F030C009F02F
:10189800000E09BEFF0E0A6E0B6E08501F5C095041
:1018A80020580A5021580B502258D8B001D001D0E6
:1018B80004D01FC02FF020C030F000015AA201D080
:1018C80001D00CD08B908A902F6A306A25C0D0F254
:1018D80026C0D1F227C0D2F228C0D3F23050800AF5
:1018E8007D0F850ED8B42F5CD8A001D001D004D0CC
:1018F800030E306EFF0E2F6E2F50FF082F6E3050E4
:10190800D8A0E82A0308306E303430322F32303411
:1019180030322F322FC0BCFF17C0F5FF16C0F8FFBA
:1019280015C0F7FF14C0F6FF13C0DAFF12C0D9FFC5
:1019380011C0E0FF10C0E8FF0FC0D8FF100060EF33
:1019480035F000000000000000000000000000006A
:10195800000000000000000000000000000000007F
:10196800000000000000000000000000000000006F
:101978000000000102030405060708090000000032
:101988000000000A0B0C0D0E0F0000000000000004
:101998000000000A0B0C0D0E0F00000000000000F4
:1019A800000000000000000000000000000000002F
:1019B800000000000000000000000000000000001F
:1019C80000003031323334353637383941424344F8
:1019D800454600FF0100010000FFFF000001000173
:1019E800FF004D4F564520544F205A45524F204432
:1019F8004547524545530000202020202020202024
:101A080020202020202020202020200000524F5479
:101A18004154494F4E20444952454354494F4E3A48
:101A2800000052554E4E494E473A20542D48483AE8
:101A38004D4D3A5353000054494D4520464F5220CE
:101A4800414C4C204F524249545300004359434C97
:101A58004520434F554E543A303D494E462E0000DE
:101A68004457454C4C204F4E20504F494E5420234C
:101A7800303000004D415820574159504F494E547D
:101A880053204841564500004D4F564520544F209D
:101A98004E45585420504F494E540000455854451F
:101AA800524E414C204354524C204D4F4445000067
:101AB8004D4F56494E4720544F20504F494E5420C1
:101AC8002300002B58585858DF205448454E2043CF
:101AD8004C49434B000041444420414E4F54484533
:101AE8005220504F494E543F0053504545443A20E8
:101AF80058582E5858DF2F536563000050524F47EF
:101B080052414D20454E44204D4F44453A00004334
:101B18004F554E54455220434C4F434B574953451C
:101B280000004457454C4C204F4E20504F494E54CE
:101B3800202300004D4F56494E4720544F204F5206
:101B48004947494E00004241545445525920564F86
:101B58004C544147453A00004D4F564520544F20BC
:101B680053544152542E2E2E0000494E46494E4998
:101B780054452052554E54494D450000494E46495A
:101B88004E495445204359434C4553000054494D50
:101B98004520504552204F524249543A00004D4F7B
:101BA80056494E4720544F20535441525400004246
:101BB80041545445525920564F4C54414745000012
:101BC8004457454C4C204F4E20535441525400002A
:101BD800544F54414C2052554E54494D453A0000FB
:101BE80054494D4520504552204F52424954000017
:101BF8004259204F5242495420434F554E540000F9
:101C080043494E45464C5558204F524249540000CE
:101C1800425920544F54414C2054494D4500004FDF
:101C2800524249542052554E4E494E47000054489E
:101C3800454E20434C49434B2E2E2E000052454121
:101C48004C54494D45204D4F44450000574159508B
:101C58004F494E54204D4F4445000054524156457B
:101C68004C2054494D453A000050524553455420A4
:101C7800534C4F543A00004F524249542053504558
:101C880045443A00004F52424954204C494D49546A
:101C98003A00004E4556455220454E44494E4700AD
:101CA80000312E302E31343030382E313700004597
:101CB800585445524E414C204D4F444500445745D9
:101CC8004C4C2054494D453A000053544F5050490C
:101CD8004E472E2E2E00005448454E20434C494373
:101CE8004B2E000052554E2050524F4752414D0046
:101CF80000205245562052454D41494E000053415F
:101D08005645205052455345540000474F20544FE4
:101D180020534C45455000004C4F4F50204D4F44E8
:101D2800453F00004245454E20414444454400009B
:101D38002D4F524249542020202000002D454D505F
:101D480054592020202000002D574159504F494E0A
:101D5800542000004F52424954204D4F4445000042
:101D680052554E2050524553455400005052455349
:101D7800455420303100004F4E452D574159000041
:101D8800414354494F4E3A00004359434C452000C3
:101D980000424F554E4345000020564F4C545300C7
:101DA800004D414E55414C00003C4E4F3E20000036
:101DB8003C5945533E000053504545440000204FD0
:101DC800462000003C6D733E003C483E003C4D3EC2
:101DD800003C533E0000020EF46F1B0E9E6F1F0E58
:101DE8009D6F1B0EA06F170E9F6F9FC1B7F1A0C10B
:101DF800B8F19DC1B9F19EC1BAF11D0EA26FA90E2D
:101E0800A16F1B0EA46FED0EA36F1A0EA66F440EE2
:101E1800A56FA1C1BFF1A2C1C0F1A3C1C1F1A4C105
:101E2800C2F1A5C1C3F1A6C1C4F11B0EA86FF80E7B
:101E3800A76F1C0EAA6F180EA96F1C0EAC6F9B0E15
:101E4800AB6FA7C1B1F1A8C1B2F1A9C1B3F1AAC1E1
:101E5800B4F1ABC1B5F1ACC1B6F11C0EAE6FEC0E6E
:101E6800AD6F1D0EB06F060EAF6FADC1BBF1AEC149
:101E7800BCF1AFC1BDF1B0C1BEF14CEC39F01B0EE5
:101E8800776F600E766F15EC3EF0756B010E7AEC8D
:101E98003AF01C0E776FDF0E766F15EC3EF00001FE
:101EA800588A67EC3FF00101C56FC5AF02D0C55134
:101EB80012000001589A73EC34F0A6C0AEF0A7C027
:101EC800AFF0A8C0B0F0A9C0B1F0ADEC37F0AEC02B
:101ED800E1F3AFC0E2F3010E0001926FB70E916F0C
:101EE800010E936F1A0E956F150E946FE4C396F05A
:101EF800FCEC37F00101C56FC529BFE0C551FE0AEA
:101F080001E1FE0CC5BFD3D7C5C1E4F3010E000142
:101F1800926FB10E916F020E936F1B0E956F040EA8
:101F2800946FE3C396F0FCEC37F00101C56FC52947
:101F3800D2E0C551FE0AE5E0C5BFB9D7C5C1E3F394
:101F480013D2E9C389F0EAC38AF0EBC38BF0ECC380
:101F58008CF000018D6B8E6B800E8F6F3F0E906F33
:101F68009AEC3BF007E20301E96BEA6B800EEB6F3A
:101F78003F0EEC6F0001896BC00E8A6F790E8B6F74
:101F8800440E8C6FE9C38DF0EAC38EF0EBC38FF07B
:101F9800ECC390F09AEC3BF008E20301E96BC00E49
:101FA800EA6F790EEB6F440EEC6F1C0E0001C86FE0
:101FB8008D0EC76F1A0ECA6F140EC96F030ECC6F41
:101FC800E90ECB6FCD6BCE6B800ECF6F3F0ED06F0F
:101FD800D16BC00ED26F790ED36F440ED46FD56B10
:101FE800D66B800ED76F3F0ED86F2DEC22F0010113
:101FF800C56FC5298BE0C551FE0A83E0C5BF57D719
:102008000001896B8A6B800E8B6F3F0E8C6FE9C362
:102018008DF0EAC38EF0EBC38FF0ECC390F09AEC2E
:102028003BF010E2010E0001926FBF0E916F020E9D
:10203800936F1C0E956F7F0E946FF5C396F0FCECB2
:1020480037F004D0010E44DAFCEC37F00101C56F1B
:10205800C52901E176D7C551FE0A01E152D7C5BFAE
:1020680026D7A3D0FAD99AEC3BF001E23EDABCD9E4
:102078002DEC22F00101C56FC529C2E0C551FE0A49
:1020880001E13FD77AD105DA9AEC3BF001E246DA72
:102098001B0E0001DC6FE80ECBD9ECEC1BF0C56F12
:1020A800C529AEE0C551FE0A01E12BD7000101DACE
:1020B80052EC37F04BD1EDC389F0EEC38AF0EFC391
:1020C8008BF0F0C38CF000017E6B7F6B800E806F0D
:1020D800400E816FE9C37AF0EAC37BF0EBC37CF072
:1020E800ECC37DF0D0EC35F07AC08DF07BC08EF07B
:1020F8007CC08FF07DC090F09AEC3BF00BE2FFD9EA
:10210800D0EC35F07AC0EDF37BC0EEF37CC0EFF392
:102118007DC0F0F3F4D9D0EC35F07AC099F17BC0EA
:102128009AF17CC09BF17DC09CF11A0EDC6F3F0ECA
:10213800DB6F030E0001DE6FED0EDD6F99C1DFF07E
:102148009AC1E0F09BC1E1F09CC1E2F098D9ECECB7
:102158001BF0C56FC52901E153D7C551FE0A01E13E
:10216800D0D600017E6B7F6BB40E806F430E816FFB
:10217800E9C37AF0EAC37BF0EBC37CF0ECC37DF0F3
:10218800D0EC35F07AC089F07BC08AF07CC08BF047
:102198007DC08CF0EDC38DF0EEC38EF0EFC38FF0F1
:1021A800F0C390F052EC37F0D1D0C55101E15AD7C5
:1021B800010A01E168D7030A01E17DD7DED01B0ED1
:1021C8000001DC6FD80EDB6F030EDE6FE50EDD6FEE
:1021D800DF6BE06B800EE16F3F0EE26F50D9ECECE5
:1021E8001BF0C56FC52901E191D6C551FE0A01E171
:1021F80088D6C5BF5CD6010E6BD9FCEC37F001015F
:10220800C56FC529DCE0C551FE0A01E17AD6C5BF14
:102218004ED631D022D99AEC3BF001E266D9E4D807
:102228002DEC22F00101C56FC529E5E0C551FE0A74
:1022380001E167D624D02DD99AEC3BF001E26ED9A2
:102248001B0E0001DC6F950EF3D8ECEC1BF0C56F8C
:10225800C529D1E0C551FE0A01E153D6000129D9AB
:1022680052EC37F089C0F1F38AC0F2F38BC0F3F374
:102278008CC0F4F304D0C551CDE0010ADCE0E5C31D
:102288007EF0E6C37FF0E7C380F0E8C381F0F1C3D6
:102298007AF0F2C37BF0F3C37CF0F4C37DF0D0ECAA
:1022A80035F07AC089F07BC08AF07CC08BF07DC0A5
:1022B8008CF08D6B8E6BB40E8F6F430E906F52EC5B
:1022C80037F089C0E9F38AC0EAF38BC0EBF38CC01E
:1022D800ECF353D0010EFCD8FCEC37F00101C56FCC
:1022E800C52901E113D6C551FE0A01E10AD6C5BFC9
:1022F800DED535D0B2D89AEC3BF001E2F6D874D8E6
:102308002DEC22F00101C56FC529E4E0C551FE0A94
:1023180001E1F7D5C5BFCBD530D0BBD89AEC3BF09F
:1023280001E2FCD81B0E0001DC6F950E81D8ECECA5
:102338001BF0C56FC529CEE0C551FE0A01E1E1D504
:10234800C5BFB5D50001B5D852EC37F089C0F1F357
:102358008AC0F2F38BC0F3F38CC0F4F30ED0C551EE
:10236800C9E0010ADAE009D00301E35101E1E9D546
:10237800010A01E124D7030AADE0010E0001926FC2
:10238800BB0E916F010E936F1D0E956F880E946FA3
:10239800000E966BFCEC37F00101C56FC52901E111
:1023A800D0D5C551FE0A01E1ACD5C5BF80D5C567FA
:1023B80002D0AEEF25F037EC36F00101C56FC52924
:1023C800DCE0C551FE0A01E19CD5C5BF70D5020EFF
:1023D8000301E06F030E0001746FE00E736F0101DB
:1023E800C551A7EC3EF0C9D71D0E0001C86FBF0E3E
:1023F800C76F1A0ECA6FFD0EC96F030ECC6FF10EB0
:10240800CB6F0A0ECD6FD70ECE6F230ECF6F3C0E5B
:10241800D06FD16BD26BB40ED36F420ED46F0A0E4D
:10242800D56FD70ED66F230ED76F3C0ED86F3C0CE6
:10243800DB6F030EDE6FED0EDD6FDF6BE06B800E82
:10244800E16F400EE26FE36BC00EE46FA80EE56F1C
:10245800470EE66F0E0EE76F0E0CF1C389F0F2C35C
:102468008AF0F3C38BF0F4C38CF00A0E00018D6F71
:10247800D70E8E6F230E8F6F3C0E906F3C0CE36B64
:10248800C00EE46FA80EE56F470EE66F0E0EE76FFD
:102498000E0CEDC389F0EEC38AF0EFC38BF0F0C3E6
:1024A8008CF000018D6B8E6B800E8F6F400E906FDD
:1024B800400C896B8A6BB40E8B6F430E8C6FEDC327
:1024C8008DF0EEC38EF0EFC38FF0F0C390F0430CA5
:1024D8000001926FBF0E916F010E936F1C0E956FE6
:1024E8007F0E946FF5C396F012000A0E0301F16F88
:1024F800D70EF26F230EF36F3C0EF46F3C0CE9C35A
:102508007AF0EAC37BF0EBC37CF0ECC37DF07E6B22
:102518007F6B800E806F400E816F400C0301ED6B66
:10252800EE6B800EEF6F400EF06F400C080EF46FEC
:10253800536B526B57880101546B516B4CEC39F05B
:102548001C0E776FB70E766F15EC3EF079EC3FF006
:10255800D76FD751030A01E1AAD250D0599E589A91
:102568005A9457D003DB58B2FED758B002D00101B5
:10257800546B59BE03D0010E0101546F59BE49D0A6
:1025880001015351020D0ADB0001DECF71F0DDCFEE
:1025980072F040EC3FF00101532B040E2DD05AB8D5
:1025A80038D001015251536302D0010E25D0535146
:1025B800020DEDDA0001DECF75F0DDCF76F0A4EC88
:1025C8003DF075C04DF176C04EF177C04FF178C03F
:1025D80050F101015351020DE8DA0001DECF75F028
:1025E800DDCF76F000EC3FF078DA9FEC2BF08EDA56
:1025F8002FEC3EF0030E0101546F0BD00101545132
:10260800ADE0010AAFE0030AB4E0010AB7E0070A47
:10261800C6E0000157AE9AD70101F26B010E000126
:10262800EF6F0001579EC3EC3CF00101F5198EE1F4
:10263800C3EC3CF00101556F22D2C3EC3CF0010120
:10264800596FC3EC3CF00101586FC3EC3CF0010139
:10265800576FC3EC3CF00101566F56C138F157C1B2
:1026680039F158C13AF159C13BF12EDAC3EC3CF0CB
:102678000101596FC3EC3CF00101586FC3EC3CF009
:102688000101576FC3EC3CF00101566F56C13CF194
:1026980057C13DF158C13EF159C13FF115DAC3ECBC
:1026A8003CF00101596FC3EC3CF00101586FC3ECD9
:1026B8003CF00101576FC3EC3CF00101566F56C165
:1026C80040F157C141F158C142F159C143F1FCD918
:1026D800C3EC3CF00101F21906E1010E516F5551AE
:1026E800DFEC3DF033D74CDAFBEC3DF02FD75167E8
:1026F80008D0010E00016D6F01015551FBEC3DF052
:1027080025D7545108E0020E00016D6F01015551A3
:10271800FBEC3DF01BD738C1B8F039C1B9F03AC16C
:10272800BAF03BC1BBF03CC1BCF03DC1BDF03EC1FD
:10273800BEF03FC1BFF040C1C0F041C1C1F042C1CD
:10274800C2F043C1C3F019EC1EF00101516B020E37
:10275800546F5551DFEC3DF0F9D6545102E0010EAB
:10276800546F5551DFEC3DF0F1D6F36BF3EC3DF0CF
:10277800240EDF6EF32B555106EC3DF0545106EC58
:102788003DF05451F227515106EC3DF05151F227DA
:102798003BEC3BF09EEC3CF075C056F176C057F12F
:1027A80077C058F178C059F15990D2D90AEC3CF069
:1027B8000101595106EC3DF0585106EC3DF05751D6
:1027C80006EC3DF0565106EC3DF07ED9566B576B42
:1027D800586B596B12D0ECC175F0EDC176F0EEC1B3
:1027E80077F0EFC178F049EC3EF075C056F176C04D
:1027F80057F177C058F178C059F1ECC175F0EDC1C7
:1028080076F0EEC177F0EFC178F049EC3EF00101C7
:102818005951000178190EE1010158510001771949
:1028280009E1010157510001761904E101015651EE
:1028380000017519D0E1010E00018A6F560E896FEB
:102848008B6B8C6BFA0E8D6F370E8E6F0AEC3CF02B
:102858007FD90AEC3CF00101595106EC3DF0585182
:1028680006EC3DF0575106EC3DF0565106EC3DF0B4
:102878002BD900015986DCC275F0DDC276F0DEC2C4
:1028880077F0DFC278F049EC3EF075C056F176C0BB
:1028980057F177C058F178C059F15996010E0001E7
:1028A8008A6F560E896F6F0E8B6F120E8C6F030E28
:1028B8008D6F3B0E8E6F0AEC3CF00101595106EC0E
:1028C8003DF0585106EC3DF0575106EC3DF056519D
:1028D80006EC3DF0F9D80001588EF0C175F0F1C151
:1028E80076F000EC3FF075C056F176C057F177C02E
:1028F80058F178C059F1589E010E00018A6F560EA2
:10290800896FABC48BF0ACC48CF0ADC48DF0AEC491
:102918008EF00AEC3CF00101595106EC3DF058519B
:1029280006EC3DF0575106EC3DF0565106EC3DF0F3
:10293800CBD8F25106EC3DF0F3EC3DF0230EDF6E00
:10294800F32BF3C14CF1F36B4CC1F0F0FFD55451AC
:10295800030A03E05451040A08E1010E00016D6FF7
:1029680001015551FBEC3DF0F1D5536B526B5551BC
:10297800DFEC3DF0EBD55451030A03E05451040A4F
:1029880008E1010E00016D6F01015551FBEC3DF0AE
:10299800DDD5630E526508D0020E00016D6F01018E
:1029A8005551FBEC3DF0D2D5C3EC3CF00101576F1B
:1029B800C3EC3CF0C4D8EBD856C1DEFF57C1DDFFED
:1029C800C3EC3CF00101576FC3EC3CF0B8D8EDD82C
:1029D80056C1DEFF57C1DDFFC3EC3CF00101576F64
:1029E800C3EC3CF0ACD8DAD856C1DEFF57C1DDFFE6
:1029F800C3EC3CF00101F21906E15551DFEC3DF062
:102A08000101522BA3D5BCD8FBEC3DF09FD5545106
:102A180008E0010E00016D6F01015551FBEC3DF01E
:102A280095D5536B00C375F001C376F0A4EC3DF067
:102A380075C04DF176C04EF177C04FF178C050F1B6
:102A480000C775F001C776F000EC3FF046D89FEC60
:102A58002BF05CD82FEC3EF0030E0101546F55515A
:102A6800DFEC3DF073D55551DFEC3DF020D0FE0E84
:102A780000016D6F01015551FBEC3DF067D55551D3
:102A8800600A01E1DAD5010A01E131D6030A01E160
:102A980064D6010A01E169D6070A01E158D7010A9B
:102AA80001E169D7030AB3E0E60ADDE0E0D75ED8C2
:102AB80006D001014C694C0701014C29FCE158B0D2
:102AC800F8D700015798000C5951F2275851F227AE
:102AD8005751F2275651F227120075C048F176C0B7
:102AE80049F177C04AF178C04BF14DC1B7F04EC1FA
:102AF800B8F04FC1B9F050C1BAF048C1BBF049C1F4
:102B0800BCF04AC1BDF04BC1BEF01200B7C044F1E1
:102B1800B8C045F1B9C046F1BAC047F14DC130F16E
:102B28004EC131F14FC132F150C133F144C134F1DA
:102B380045C135F146C136F147C137F112000101EF
:102B4800566F5751F2275651F2275251020D120073
:102B5800010E00018A6F560E896FC4C48BF0C5C47C
:102B68008CF0C6C48DF0C7C48EF01200599E589AD6
:102B78005A840301DC6BDD6BDE6BDF6B588212005D
:102B8800516BFA0E00016D6F010155511200000ED4
:102B9800F324D96EDA6A030EDA221200000EF32447
:102BA800D96EDA6A020EDA221200000EF324D96E08
:102BB800DA6A070EDA221200040EF46FB46BB56BF2
:102BC800B66BB76BA96B04012B6B1D0E0101966FD9
:102BD8007F0E956F1D0E986F990E976F95C19DF199
:102BE80096C19EF197C19FF198C1A0F11C0E9A6FF2
:102BF800EC0E996F1D0E9C6F060E9B6F99C1A1F18B
:102C08009AC1A2F19BC1A3F19CC1A4F1B86BB96BA5
:102C1800BA6BBB6BC26BC36BC46BC56BB26BB36B6C
:102C2800AE6BAF6BB06BB16BAA6BAB6BAC6BAD6BD8
:102C3800BE6BBF6BC06BC16BC66B4CEC39F01B0E27
:102C4800776F600E766F15EC3EF0756B010E7AECBF
:102C58003AF01C0E776FDF0E766F15EC3EF0000130
:102C6800588A67EC3FF00101C76FC7AF02D0C75160
:102C780012000001589A73EC34F0A6C0AEF0A7C059
:102C8800AFF0A8C0B0F0A9C0B1F0ADEC37F0AEC05D
:102C980029F4AFC02AF417EC3BF08FC0A5F190C01F
:102CA800A6F191C0A7F192C0A8F11C0EDC6FC50E69
:102CB800DB6F010E00017CDAECEC1BF0C76FC7512B
:102CC800FE0A01E1FE0CC729A1E0C7BFD0D7BEC1EB
:102CD800AEF0BFC1AFF0C0C1B0F0C1C1B1F0ADEC52
:102CE80037F0AEC077F4AFC078F4D2D14CEC39F0FD
:102CF8001A0E776F900E766F15EC3EF0756B010E1D
:102D08007AEC3AF01A0E776FCB0E766F15EC3EF030
:102D1800588A578602D0FCEC23F0000157B6FBD73F
:102D28000101C76B96D0FCEC23F017EC3BF08FC089
:102D3800AAF190C0ABF191C0ACF192C0ADF1AAC1BB
:102D480098F0ABC199F0ACC19AF0ADC19BF0A5C1A8
:102D58009CF0A6C19DF0A7C19EF0A8C19FF0C2EC4F
:102D68003DF098C0AEF199C0AFF19AC0B0F19BC0E8
:102D7800B1F1AEC1AEF0AFC1AFF0B0C1B0F0B1C10A
:102D8800B1F0ADEC37F0AEC0B2F1AFC0B3F1756BD6
:102D9800010E7AEC3AF0B2C179F00001B3C17AF0D1
:102DA800000E7ABFFF0E7B6F7C6F040E7D6F010EE5
:102DB8007E6F5FEC27F05988F1C0C7F1599801017F
:102DC800C751030A03E10001589AFE0CC751020AD1
:102DD80007E1589A0101C66701D018D7C60786D7F8
:102DE800C751050A18E15786589A0101306B316BB3
:102DF800800E326FBF0EECD92FEC3EF002D0FCEC07
:102E080023F0000159BEFBD7588A02D0FCEC23F00E
:102E1800000157B6FBD70101C751040A17E15786CD
:102E2800589A306B316B800E326F3F0ED1D92FEC30
:102E38003EF002D0FCEC23F0000159BEFBD7588AC3
:102E480002D0FCEC23F0000157B6FBD70101C7BF45
:102E58000ED7C70501E067D7589A0101C651020D80
:102E68002F0EF324D96EDA6A040EDA22B2C1DEFF1D
:102E7800B3C1DDFFAEC1B7F0AFC1B8F0B0C1B9F0B2
:102E8800B1C1BAF0D8EC28F0B7C0C2F1B8C0C3F1EC
:102E9800B9C0C4F1BAC0C5F1C2C1AEF0C3C1AFF088
:102EA800C4C1B0F0C5C1B1F0ADEC37F0AEC0BCF1F3
:102EB800AFC0BDF1010E0001A16FC20EA06FBCC171
:102EC80075F0BDC176F000EC3FF075C0A2F076C099
:102ED800A3F077C0A4F078C0A5F0E5EC3BF0000EB5
:102EE800896B8A6B8B6B8C6BC2C18DF0C3C18EF002
:102EF800C4C18FF0C5C190F09AEC3BF00DE2010E11
:102F08000101BC250001756F000E0101BD21000102
:102F1800766F00EC3FF006D0BCC175F0BDC176F00D
:102F280000EC3FF075C0C2F176C0C3F177C0C4F1C0
:102F380078C0C5F11C0E0001DC6F630EDB6F010E5B
:102F4800DE6FB80EDD6FC2C1DFF0C3C1E0F0C4C1EF
:102F5800E1F0C5C1E2F0E36BE4697F0EE56F470E6F
:102F6800E66F0E0EE76FECEC1BF0C76FC751FE0A59
:102F780001E1A8D6C72901E1B9D6C7BF78D6B8C13B
:102F8800AEF0B9C1AFF0BAC1B0F0BBC1B1F0ADECB1
:102F980037F00101C651020D530EF324D96EDA6AD7
:102FA800040EDA22AEC0DEFFAFC0DDFF1C0E00014A
:102FB800DC6FC50EDB6F010EFBD8ECEC1BF0C76FA6
:102FC800C751FE0A01E17ED6C729B4E0C7BF4FD674
:102FD800BEC1AEF0BFC1AFF0C0C1B0F0C1C1B1F069
:102FE800ADEC37F00101D890C6350001E86F790ED5
:102FF800E825D96EDA6A040EDA22AEC0DEFFAFC069
:10300800DDFF0101C651800A6F0F24E21A0E00018C
:10301800926FDE0E916F010E936F41EC38F0010153
:10302800C76FC751FE0A01E14DD6C729BFE0C76780
:1030380002D0010EA96FC7050AE1C62BAAC1A5F1E6
:10304800ABC1A6F1ACC1A7F1ADC1A8F14FD6C7BFBE
:103058000ED61ED04CEC39F01A0E776F7C0E766FB8
:1030680015EC3EF0756B010E7AEC3AF01D0E776F99
:103078002C0E766F15EC3EF067EC3FF00101C76F40
:10308800C751FE0A01E11ED6C72990E0010EA96FBB
:103098000101A95101E12AD6C6C12BF4010E000194
:1030A800926F9D0E916F010E936F1D0E956F200EFE
:1030B800946F2CC496F0FCEC37F00101C76FC72958
:1030C80001E174D7C751FE0A01E1FCD5C7BFCFD5CE
:1030D800C7C12CF41A0E0001C86F540EC76F1B0E1F
:1030E800CA6F8C0EC96F010ECC6FB40ECB6FCD6B4F
:1030F800CE6BCF6BD06BD16BC00ED26F790ED36F06
:10310800440ED46FD56BD66B800ED76F3F0ED86F39
:103118002DEC22F00101C76FC729C0E0C751FE0A94
:1031280001E1D0D5C7BFA3D5B4C1AEF0B5C1AFF0EA
:10313800B6C1B0F0B7C1B1F0ADEC37F0AEC02DF408
:10314800AFC02EF4010E0001926FA10E916F010E17
:10315800936F1D0E956F880E946F000E966BFCECA6
:1031680037F00101C76FC729B5E0C751FE0A01E171
:10317800A9D5C7BF7CD5C76702D0F4EF18F037ECE4
:1031880036F00101C76FC729DDE0C751FE0A01E12A
:1031980099D5C7BF6CD5010E0401286F040E000134
:1031A800746F280E736F0101C751A7EC3EF0CAD7A0
:1031B800DE6FBE0EDD6FDF6BE06BE16BE26BE36B26
:1031C800E4697F0EE56F470EE66F0E0EE76F0E0C93
:1031D800336F346B356BB40E366F420E376F420C5B
:1031E8000101906B050EF46F8F6B926B010E916F5E
:1031F8004CEC39F01B0E776FA60E766F15EC3EF08F
:1032080029C475F02AC476F000EC3FF038EC27F0BA
:103218004BEC2AF011D0FCEC23F079EC3FF00101E3
:10322800946F9451030A03E1FE0E906F7ED294AF1F
:1032380003D094C190F179D2000159BEECD74CEC7F
:1032480039F01B0E776FC80E766F15EC3EF077C419
:1032580071F078C472F040EC3FF00BD0FCEC23F036
:1032680079EC3FF00101946F9451030ADDE094BFBB
:10327800E0D700015AB8F2D701018F5103E02BC4FF
:1032880093F1A3D1936BA1D19351020D2F0EF32487
:10329800D96EDA6A040EDA220001DECF75F0DDCFCE
:1032A80076F0A4EC3DF075C08BF176C08CF177C058
:1032B8008DF178C08EF101019351020D530EF32464
:1032C800D96EDA6A040EDA220001DECF75F0DDCF9E
:1032D80076F000EC3FF075C07FF176C080F177C0E2
:1032E80081F178C082F18BC1B7F08CC1B8F08DC183
:1032F800B9F08EC1BAF07FC1BBF080C1BCF081C10A
:10330800BDF082C1BEF09FEC2BF0B7C087F1B8C00A
:1033180088F1B9C089F1BAC08AF101018F5101E180
:10332800B3D04CEC39F01A0E776FB80E766F15ECF7
:103338003EF040DA5FEC27F0756B010E7AEC3AF05C
:1033480004012E512D1108E11B0E0001776F840E28
:10335800766F15EC3EF013D01D0E0001776F910EBD
:10336800766F15EC3EF006DA5FEC27F01D0E776FEE
:10337800C60E766F15EC3EF0F2D95FEC27F08BC1E4
:103388006BF08CC16CF08DC16DF08EC16EF054EC99
:103398003FF06BC083F16CC084F16DC085F16EC0E5
:1033A80086F183C130F184C131F185C132F186C122
:1033B80033F187C134F188C135F189C136F18AC149
:1033C80037F12FEC3EF00CD0FCEC23F079EC3FF019
:1033D8000101946F9451030A01E126D794BF29D7BC
:1033E800000159BEF1D74CEC39F01B0E776F2A0E4D
:1033F800766F15EC3EF0DED95FEC27F0756B010EA9
:103408007AEC3AF004012E512D1108E11B0E00014F
:10341800776F840E766F15EC3EF013D01D0E000109
:10342800776F910E766F15EC3EF0A4D95FEC27F01C
:103438001D0E776FC60E766F15EC3EF090D95FECD7
:1034480027F001019351020D770EF324D96EDA6A41
:10345800040EDA220001DECF71F0DDCF72F040EC0D
:103468003FF00CD0FCEC23F079EC3FF00101946FB5
:103478009451030A01E1D8D694BFDBD600015AB8AB
:10348800F1D701019307A1D04CEC39F01A0E776FF0
:10349800B80E766F15EC3EF078D95FEC27F0756BB7
:1034A800010E7AEC3AF004012E512D1108E11B0EA1
:1034B8000001776F840E766F15EC3EF013D01D0E69
:1034C8000001776F910E766F15EC3EF053D95FECE3
:1034D80027F01D0E776FC60E766F15EC3EF03FD9BC
:1034E8005FEC27F08BC130F18CC131F18DC132F125
:1034F8008EC133F187C134F188C135F189C136F104
:103508008AC137F12FEC3EF00CD0FCEC23F079ECBB
:103518003FF00101946F9451030A01E185D694BFED
:1035280088D6000159BEF1D74CEC39F01B0E776FE5
:103538002A0E766F15EC3EF028D95FEC27F0756BF4
:10354800010E7AEC3AF004012E512D1108E11B0E00
:103558000001776F840E766F15EC3EF013D01D0EC8
:103568000001776F910E766F15EC3EF003D95FEC92
:1035780027F01D0E776FC60E766F15EC3EF0EFD86C
:103588005FEC27F00101D89093350001E06F790EC8
:10359800E025D96EDA6A040EDA22DECF71F0DDCFCB
:1035A80072F040EC3FF00CD0FCEC23F079EC3FF0EB
:1035B8000101946F9451030A01E136D694BF39D6BC
:1035C80000015AB8F1D70101932B93BF0BD0040126
:1035D8002B51D880D884010193AF935DD8A0D884AB
:1035E80001E152D604012C5107E001018F51010E6F
:1035F800D8A4000E8F6F88D001018F6B4CEC39F086
:103608001B0E776F3C0E766F15EC3EF0756B010E56
:103618007AEC3AF004012E512D1108E11B0E00013D
:10362800776F840E766F15EC3EF013D01D0E0001F7
:10363800776F910E766F15EC3EF09CD85FEC27F013
:103648001D0E776FC60E766F15EC3EF088D85FECCE
:1036580027F029C475F02AC476F000EC3FF038EC66
:1036680027F04BEC2AF00CD0FCEC23F079EC3FF07F
:103678000101946F9451030A01E1D6D594BFD9D5BD
:10368800000159BEF1D74CEC39F01A0E776F680E6D
:10369800766F15EC3EF0756B010E7AEC3AF004018A
:1036A8002E512D1108E11B0E0001776F840E766FE5
:1036B80015EC3EF013D01D0E0001776F910E766F5A
:1036C80015EC3EF057D85FEC27F01D0E776FC60E4D
:1036D800766F15EC3EF043D85FEC27F077C471F0B5
:1036E80078C472F040EC3FF00CD0FCEC23F079EC9D
:1036F8003FF00101946F9451030A01E195D594BFFD
:1037080098D500015AB8F1D704012E512D1101E1C5
:10371800B3D50101914B922B915104012D5D01010B
:10372800925104012E5901E3A7D5599E0001588AE8
:103738004CEC39F01C0E776FD20E766F15EC3EF01C
:10374800FCEC23F0599E588A010E0001916FF40E8B
:10375800906F88EC3FF0589A0101905112002DC4E7
:1037680079F000012EC47AF07B6B7C6B030E7D6FC1
:103778007E6B000C91C179F0000192C17AF07B6BED
:103788007C6B030E7D6F7E6B000C93C1E0F0000133
:10379800E16BE0BFE107E02B000EE123E0C079F028
:1037A800E1C07AF07ABFFF0E7B6F7C6F020E7D6FEF
:1037B8007E6B000C010193510001796F000E79BFF7
:1037C800FF0E7A6F7B6F7C6F020E7D6F7E6B000C35
:1037D800DDC0D9FFDEC0DAFFDECF85F1DECF86F1AE
:1037E800DECF87F1DECF88F185C1B8F086C1B9F0A8
:1037F80087C1BAF088C1BBF0010E0001BD6F830E0E
:10380800BC6F010EBF6F820EBE6F010EC16F810EBD
:10381800C06F010EC36F7F0EC26FFCEC2FF0E7B7CD
:1038280002D00101836B0001E7B502D00101826B70
:103838000001E7B302D00101816B0001E7B103D0B9
:1038480001017F6B806B82C18FF081C190F07FC1D5
:1038580091F080C192F001018351D0EC32F08FC019
:1038680085F190C086F191C087F192C088F1AAD9FC
:103878009AEC3BF001E2B7D994D99AEC3BF001E21B
:10388800BBD90001E7A75BD04CEC39F0DBC076F080
:10389800DCC077F015EC3EF01D0E776FD10E766F19
:1038A80015EC3EF0756B010E7AEC3AF01A0E776F54
:1038B800000E766F15EC3EF00001756B010E7AEC88
:1038C8003AF085C1D0F086C1D1F087C1D2F088C165
:1038D800D3F0E7C0D4F0080ED56F68EC33F0D4EC21
:1038E8003EF00101846F84AF1ED084511200FF0C9A
:1038F800FE0C93D9610E8D6F450E8E6FC0EC3BF0B8
:1039080050D99AEC3BF0D8E277D9D6D77ED9610E58
:10391800A46F450EA56FE5EC3BF054D99AEC3BF04B
:10392800CBE261D9C9D78451010A09E0030ADFE073
:10393800010ADEE0070ADDE0010AE8E0BDD7000180
:10394800E7A559D04CEC39F0DBC076F0DCC077F055
:1039580015EC3EF01D0E776FD50E766F15EC3EF028
:10396800756B010E7AEC3AF01A0E776F000E766FCF
:1039780015EC3EF00001756B010E7AEC3AF085C14A
:10398800D0F086C1D1F087C1D2F088C1D3F0E7C0AA
:10399800D4F0040ED56F68EC33F0D4EC3EF001019E
:1039A800846F84BFA2D71AD038D9700E8D6F420E9B
:1039B8008E6FC0EC3BF0F5D89AEC3BF0DBE21CD9FB
:1039C800D9D723D9700EA46F420EA56FE5EC3BF052
:1039D800F9D89AEC3BF0CEE206D9CCD78451010A4B
:1039E8000AE0030A01E14DD7010A82E0070ADCE098
:1039F800010AE7E0BFD70001E7A35AD04CEC39F041
:103A0800DBC076F0DCC077F015EC3EF01D0E776F6A
:103A1800D90E766F15EC3EF0756B010E7AEC3AF024
:103A28001A0E776F000E766F15EC3EF00001756B7D
:103A3800010E7AEC3AF085C1D0F086C1D1F087C189
:103A4800D2F088C1D3F0E7C0D4F0020ED56F68EC8D
:103A580033F0D4EC3EF00101846F84BF46D71AD00E
:103A6800DCD8800E8D6F3F0E8E6FC0EC3BF099D87E
:103A78009AEC3BF0DBE2C0D8D9D7C7D8800EA46F48
:103A88003F0EA56FE5EC3BF09DD89AEC3BF0CEE2FB
:103A9800AAD8CCD78451010A0BE0030A01E14FD719
:103AA800010A01E125D7070ADBE0010AE6E0BED7F3
:103AB8000001E7A168D04CEC39F0DBC076F0DCC03F
:103AC80077F015EC3EF01D0E776FCC0E766F15EC87
:103AD8003EF0756B010E7AEC3AF01A0E776F000E15
:103AE800766F15EC3EF00001756B010E7AEC3AF03A
:103AF80085C1D0F086C1D1F087C1D2F088C1D3F09A
:103B0800E7C0D4F0010ED56F68EC33F0D4EC3EF08A
:103B18000101846F84BFE9D628D0010E00018A6FA5
:103B2800850E896FCD0E8B6FCC0E8C6F8D6F3D0E11
:103B38008E6FC0EC3BF035D89AEC3BF0D4E25CD801
:103B4800D2D7010E0001A16F850EA06FCD0EA26F16
:103B5800CC0EA36FA46F3D0EA56FE5EC3BF032D8F9
:103B68009AEC3BF0C0E23FD8BED78451010A0BE083
:103B7800030A01E140D7010A01E1BAD6070ACDE0FC
:103B8800010ADFE0B0D7DDC0D9FFDEC0DAFF0101EE
:103B980085C1DEFF86C1DEFF87C1DEFF88C1DEFF8B
:103BA800000CE3C089F0E4C08AF0E5C08BF0E6C001
:103BB8008CF085C18DF086C18EF087C18FF088C1E9
:103BC80090F0120085C189F086C18AF087C18BF018
:103BD80088C18CF0DFC08DF0E0C08EF0E1C08FF0BE
:103BE800E2C090F01200DFC085F1E0C086F1E1C0CC
:103BF80087F1E2C088F11200E3C085F1E4C086F1E4
:103C0800E5C087F1E6C088F11200010E0001A16F3E
:103C1800850EA06FA26BA36B1200010E00018A6FC4
:103C2800850E896F8B6B8C6B1200000159BEFF0CDF
:103C38000001BFAF13D0BCC06BF0BDC06CF0BEC0FC
:103C48006DF0BFC06EF054EC3FF06BC01CF16CC05F
:103C58001DF16DC01EF16EC01FF108D0BCC01CF173
:103C6800BDC01DF1BEC01EF1BFC01FF1C3AF13D050
:103C7800C0C06BF0C1C06CF0C2C06DF0C3C06EF0C4
:103C880054EC3FF06BC024F16CC025F16DC026F1F7
:103C98006EC027F108D0C0C024F1C1C025F1C2C050
:103CA80026F1C3C027F1B8C07EF0B9C07FF0BAC012
:103CB80080F0BBC081F0C0C47AF0C1C47BF0C2C43C
:103CC8007CF0C3C47DF0D0EC35F07AC0AEF07BC098
:103CD800AFF07CC0B0F07DC0B1F0ADEC37F0AEC055
:103CE80014F1AFC015F1B0C016F1B1C017F1010160
:103CF800175114111511161101E1000C5980E8C172
:103D080010F1E9C111F1EAC112F1EBC113F15990B7
:103D18000101145110250201D86F0101155111211B
:103D28000201D96F0101165112210201DA6F010156
:103D3800175113210201DB6F10C13DF011C13EF094
:103D480012C13FF013C140F00001BBAF15D0B8C09D
:103D58006BF0B9C06CF0BAC06DF0BBC06EF054EC3B
:103D68003FF06BC028F16CC029F16DC02AF16EC01C
:103D78002BF100015A800AD0B8C028F1B9C029F146
:103D8800BAC02AF1BBC02BF100015A901CC189F0BE
:103D98001DC18AF01EC18BF01FC18CF024C18DF0AB
:103DA80025C18EF026C18FF027C190F052EC37F074
:103DB80089C018F18AC019F18BC01AF18CC01BF1A7
:103DC80018C17EF019C17FF01AC180F01BC181F0C3
:103DD80024C17AF025C17BF026C17CF027C17DF093
:103DE800D0EC35F07AC02CF17BC02DF17CC02EF1DF
:103DF8007DC02FF118C17EF019C17FF01AC180F083
:103E08001BC181F02CC17AF02DC17BF02EC17CF052
:103E18002FC17DF0D0EC35F07AC00CF17BC00DF1EC
:103E28007CC00EF17DC00FF10CC17AF00DC17BF0A2
:103E38000EC17CF00FC17DF07E6B7F6B806B3F0EF7
:103E4800816FD0EC35F07AC020F17BC021F17CC0C5
:103E580022F17DC023F128C189F029C18AF02AC145
:103E68008BF02BC18CF07E6B7F6B806B400E816F6B
:103E780020C17AF021C17BF022C17CF023C17DF002
:103E8800D0EC35F07AC08DF07BC08EF07CC08FF01E
:103E98007DC090F09AEC3BF017E228C189F029C167
:103EA8008AF02AC18BF02BC18CF08D6B8E6B8F6BD7
:103EB800400E906F52EC37F089C020F18AC021F192
:103EC8008BC022F18CC023F120C19CF021C19DF050
:103ED80022C19EF023C19FF028C198F029C199F012
:103EE8002AC19AF02BC19BF0C2EC3DF098C07AF041
:103EF80099C07BF09AC07CF09BC07DF0C0C47EF076
:103F0800C1C47FF0C2C480F0C3C481F0D0EC35F0E6
:103F18007AC000F17BC001F17CC002F17DC003F1E1
:103F280000C1AEF001C1AFF002C1B0F003C1B1F001
:103F3800ADEC37F0AEC0D4F2AFC0D5F2B0C0D6F217
:103F4800B1C0D7F224C17EF025C17FF026C180F030
:103F580027C181F0C0C47AF0C1C47BF0C2C47CF030
:103F6800C3C47DF0D0EC35F060D8BD0E7E6F370E3F
:103F78007F6F860E806F420E816FD0EC35F07AC06D
:103F880004F17BC005F17CC006F17DC007F104C1D6
:103F9800AEF005C1AFF006C1B0F007C1B1F0ADECAD
:103FA80037F0AEC035F0AFC036F0B0C037F0B1C0B2
:103FB80038F01CC17EF01DC17FF01EC180F01FC10A
:103FC80081F0C0C47AF0C1C47BF0C2C47CF0C3C421
:103FD8007DF0D0EC35F029D86F0E7E6F120E7F6F12
:103FE800030E806F470E816FD0EC35F07AC008F170
:103FF8007BC009F17CC00AF17DC00BF108C1AEF0AD
:1040080009C1AFF00AC1B0F00BC1B1F0ADEC37F0A7
:10401800AEC039F0AFC03AF0B0C03BF0B1C03CF030
:10402800CFEC21F00001598E000C7AC02CF17BC036
:104038002DF17CC02EF17DC02FF12CC17AF02DC15D
:104048007BF02EC17CF02FC17DF01200060E01011D
:10405800F46F0001CD6BCE6BCF6BD06BDCD9620EE9
:104068007E6FBE0E7F6F3C0E806F460E816FC0C4A0
:104078007AF0C1C47BF0C2C47CF0C3C47DF0D0EC3C
:1040880035F07AC0AEF07BC0AFF07CC0B0F07DC038
:10409800B1F0ADEC37F0AEC035F0AFC036F0B0C01F
:1040A80037F0B1C038F077D9589A599E5A84000130
:1040B8005A8479EC3FF04CEC39F01C0E776F450EC2
:1040C800766F15EC3EF0756B010E7AEC3AF01A0E2D
:1040D800776FF10E766F15EC3EF079EC3FF0CC6F10
:1040E800CC51030A03E1FE0EC76F34D1CC51020A4A
:1040F80002E1C7692FD1CC0504E1CD6BCE6BCF6B44
:10410800D06BCC51040A34E1000E8A6FCD0E896F52
:1041180097D90AEC39F079EC3EF075C07AF076C0A0
:104128007BF077C07CF078C07DF0D0EC35F07AC0B9
:104138008BF07BC08CF07CC08DF07DC08EF0C0EC25
:104148003BF0896B8A6BB40E8B6F420E8C6FCDC0BF
:104158008DF0CEC08EF0CFC08FF0D0C090F09AEC2A
:104168003BF006E2CD6BCE6BB40ECF6F420ED06F34
:10417800CC51050A34E1000EA16FCD0EA06F60D9B5
:104188000AEC39F079EC3EF075C07AF076C07BF035
:1041980077C07CF078C07DF0D0EC35F07AC0A2F022
:1041A8007BC0A3F07CC0A4F07DC0A5F0E5EC3BF09B
:1041B800CDC089F0CEC08AF0CFC08BF0D0C08CF0D3
:1041C8008D6B8E6BB40E8F6FC20E906F9AEC3BF0B6
:1041D80006E2CD6BCE6BB40ECF6FC20ED06FCCAFF4
:1041E80003D0CCC0C7F0B6D0060E756F010E7AECBE
:1041F8003AF0CDC0B8F0CEC0B9F0CFC0BAF0D0C058
:10420800BBF0020EBC6FBD6F010EBE6FF7EC2DF058
:104218005AA052D00001D0AF31D0C0C47EF0C1C482
:104228007FF0C2C480F0C3C481F0CDC06BF0CEC0B3
:104238006CF0CFC06DF0D0C06EF054EC3FF06BC0A6
:104248007AF06CC07BF06DC07CF06EC07DF0D0EC75
:1042580035F0B4D8D0EC35F07AC0AEF07BC0AFF012
:104268007CC0B0F07DC0B1F0ADEC37F0DFD802D043
:10427800FCEC23F0000158A26AD0FAD7000EBED891
:104288009AEC3BF010E2010EB2D802D0FCEC23F01D
:10429800000158B2FBD7000158B059D05A945A942B
:1042A8007AD85A9047D0010EA2D802D0FCEC23F05D
:1042B800000158A24CD0FAD7000E00019FD89AEC02
:1042C8003BF027E2CDC07EF0CEC07FF0CFC080F0BB
:1042D800D0C081F0C0C47AF0C1C47BF0C2C47CF005
:1042E800C3C47DF0D0EC35F069D8D0EC35F07AC095
:1042F800AEF07BC0AFF07CC0B0F07DC0B1F0ADECEB
:1043080037F094D802D0FCEC23F0000158A21FD05B
:10431800FAD7D0AF14D0010E6AD802D0FCEC23F043
:10432800000158B2FBD7000158B011D05A945A94E2
:1043380032D85A8070D85A8400015A8408D0010EA5
:1043480056D802D0FCEC23F0000158B2FBD7FCECA5
:1043580023F0C3D64CEC39F01C0E776FD20E766F73
:1043680015EC3EF0010E0301DC6F000EDD6FDE6F11
:10437800DF6F588202D0FCEC23F0000158B2FBD763
:10438800000158B005D05A945A940001C751120040
:10439800FCEC23F0E7D7416A426A436A446A0101A8
:1043A800EC6BED6BEE6BEF6B0201C86BC96BCA6B04
:1043B800CB6BCC6BCD6BCE6BCF6B12007AC0C8F0D9
:1043C8007BC0C9F07CC0CAF07DC0CBF06F0E7E6F99
:1043D800120E7F6F030E806F470E816FC8C07AF090
:1043E800C9C07BF0CAC07CF0CBC07DF0470C03018C
:1043F800DC6FDD6BDE6BDF6B5882000C896B8A6BC0
:104408008B6B8C6BCDC08DF0CEC08EF0CFC08FF093
:10441800D0C090F012005980E8C13DF0E9C13EF0EB
:10442800EAC13FF0EBC140F059901200AEC0DCF396
:10443800AFC0DDF3B0C0DEF3B1C0DFF358821200C5
:10444800CD0E7E6FCC0E7F6F4C0E806F3D0E816F50
:104458003D0C756B766B010EAFEC3AF0D1C089F06C
:10446800D2C08AF0D3C08BF0D4C08CF08D6B400ED4
:104478008E6F1C0E8F6F460E906F9AEC3BF012E217
:10448800896B400E8A6F1C0E8B6FC60E8C6FCDC069
:104498008DF0CEC08EF0CFC08FF0D0C090F09AECE7
:1044A8003BF002E3050E4FD089D97A0E8F6F440E88
:1044B800906F9AEC3BF011E2896B8A6B7A0E8B6FE6
:1044C800C40E8C6FCDC08DF0CEC08EF0CFC08FF0F3
:1044D800D0C090F09AEC3BF002E3040E34D06ED9D1
:1044E800C80E8F6F420E906F9AEC3BF011E2896B09
:1044F8008A6BC80E8B6FC20E8C6FCDC08DF0CEC08C
:104508008EF0CFC08FF0D0C090F09AEC3BF002E371
:10451800030E19D053D9200E8F6F410E906F9AEC6D
:104528003BF010E2896B8A6B200E8B6FC10E8C6F8B
:10453800CDC08DF0CEC08EF0CFC08FF0D0C090F03F
:104548009AEC3BF0020ED96FD5C089F0D6C08AF03C
:10455800D7C08BF0D8C08CF08D6B8E6B800E8F6FB0
:104568003F0E906F9AEC3BF002E3DA6B53D0D5C064
:1045780089F0D6C08AF0D7C08BF0D8C08CF0CD0EA9
:104588008D6FCC0E8E6F8F6F3D0E906F9AEC3BF057
:1045980002E3010E3ED0D5C089F0D6C08AF0D7C05C
:1045A8008BF0D8C08CF00A0E8D6FD70E8E6F230E4D
:1045B8008F6F3C0E906F9AEC3BF002E3020E29D00D
:1045C800D5C089F0D6C08AF0D7C08BF0D8C08CF09F
:1045D8006F0E8D6F120E8E6F830E8F6F3A0E906F67
:1045E8009AEC3BF002E3030E14D0D5C089F0D6C094
:1045F8008AF0D7C08BF0D8C08CF0170E8D6FB70E2D
:104608008E6FD10E8F6F380E906F9AEC3BF002E3ED
:10461800040EDA6FCBC0D9FFCCC0DAFFDECFDCF0F6
:10462800DECFDDF0DECFDEF0DECFDFF04CEC39F0B0
:10463800C7C076F0C8C077F015EC3EF0756B010E78
:104648007AEC3AF0C6D8F7EC2DF0C9C076F0CAC0BB
:1046580077F015EC3EF0756B010E7AEC3AF0B9D8AC
:10466800F7EC2DF0D4EC3EF0DB6FDBAF97D0DB51ED
:104678001200CBC0D9FFCCC0DAFFDCC0DEFFDDC042
:10468800DEFFDEC0DEFFDFC0DEFF756B766B010E7E
:10469800AFEC3AF0000CFE0CFF0C000E8A6FDC0E3B
:1046A800896FD5C07EF0D6C07FF0D7C080F0D8C063
:1046B80081F00AEC39F079EC3EF075C07AF076C0FA
:1046C8007BF077C07CF078C07DF0D0EC35F07AC014
:1046D8008BF07BC08CF07CC08DF07DC08EF0C0EC80
:1046E8003BF0D1C089F0D2C08AF0D3C08BF0D4C0DF
:1046F8008CF0DCC08DF0DDC08EF0DEC08FF0DFC046
:1047080090F09AEC3BF0A7E2D1C0DCF0D2C0DDF02B
:10471800D3C0DEF0D4C0DFF09ED7000EA16FDC0E50
:10472800A06FD5C07EF0D6C07FF0D7C080F0D8C0CB
:1047380081F00AEC39F079EC3EF075C07AF076C079
:104748007BF077C07CF078C07DF0D0EC35F07AC093
:10475800A2F07BC0A3F07CC0A4F07DC0A5F0E5EC7E
:104768003BF0DCC089F0DDC08AF0DEC08BF0DFC032
:104778008CF0CDC08DF0CEC08EF0CFC08FF0D0C001
:1047880090F09AEC3BF001E366D7CDC0DCF0CEC0E8
:10479800DDF0CFC0DEF0D0C0DFF05DD7DB51010A1D
:1047A80001E167D7030A01E177D7010A01E173D76D
:1047B800070A01E172D7010AB0E04DD7D1C089F0EC
:1047C800D2C08AF0D3C08BF0D4C08CF08D6B8E6BC6
:1047D8001200DCC0B8F0DDC0B9F0DEC0BAF0DFC04E
:1047E800BBF0D9C0BCF0DAC0BDF0010EBE6F010C41
:1047F80057A808D001017E697E0701017E29D8B437
:104808001200FAD757BE08D001017E697E07010160
:104818007E29D8B41200FAD70101F26B010E00010B
:10482800EF6F0001579EC3EC3CF00101F519D8A4C5
:104838001200C3EC3CF001017D6F4BD1F36BF3EC3C
:104848003DF0240EDF6EF32B7D5106EC3DF07E6BC0
:10485800140E01017E25D96EDA6A0401040EDA22EB
:10486800DF5006EC3DF0140E01017E25D96EDA6AA0
:10487800040E6BD97E65ECD77E6B000E01017E2598
:10488800D96EDA6A0401040EDA22DF5006EC3DF034
:10489800000E01017E25D96EDA6A040E56D97E65AE
:1048A800ECD7F25106EC3DF0F3EC3DF0230EDF6E51
:1048B800F32BF3C17EF1F36B7EC1F0F012005A9A2C
:1048C800010E11D05A9A030E0ED05A9A020E0BD02E
:1048D8005A9A040E08D05A9A050E05D000015A9A21
:1048E800C3EC3CF00008566E5A8AE5D0F36BF3EC43
:1048F8003DF0240EDF6EF32B7D5106EC3DF0F451B4
:1049080006EC3DF0D1D73BEC3BF09EEC3CF075C09B
:1049180079F176C07AF177C07BF178C07CF1599053
:10492800FFD80AEC3CF079C16DF07AC16EF07BC11A
:104938006FF07CC170F07DC171F0C9EF39F0796B0F
:104948007A6B7B6B7C6B12D0ECC175F0EDC176F0A5
:10495800EEC177F0EFC178F049EC3EF075C079F11F
:1049680076C07AF177C07BF178C07CF1ECC175F044
:10497800EDC176F0EEC177F0EFC178F049EC3EF08A
:1049880001017C51000178190EE101017B51000100
:10499800771909E101017A510001761904E1010151
:1049A800795100017519D0E1010E00018A6F790E65
:1049B800896F8B6B8C6BFA0E8D6F370E8E6F0AECCE
:1049C8003CF0AED80AEC3CF0AED70001588EF0C1EE
:1049D80075F0F1C176F000EC3FF075C079F176C062
:1049E8007AF177C07BF178C07CF1589E010E000106
:1049F8008A6F790E896FABC48BF0ACC48CF0ADC4F0
:104A08008DF0AEC48EF00AEC3CF08DD7C3EC3CF0D0
:104A18000101006F040E006501D02ED0010E0001C7
:104A2800736F010E726F0101005190EC3EF00101AD
:104A3800F36B000EF325D96EDA6A050EDA22240E1E
:104A4800DF6EF32B7D5106EC3DF07E6B77D8DF509F
:104A580006EC3DF073D8DF50F2277E2B770E7E658B
:104A6800F5D7F25106EC3DF01FD7C3EC3CF001013D
:104A7800006F040E006502D0010E22D07E6BC3ECDD
:104A88003CF08F6F01015AD88FC0DFFF57D8DF5035
:104A9800F2277E2B770E7E65F2D7C3EC3CF001013E
:104AA800F2190DE1010E0001746F010E736F01011F
:104AB8000051A7EC3EF001017D51DFEF3DF0FA0E09
:104AC80000016D6F02D000016D6901017D51FBEF9E
:104AD8003DF07D51010AC9E0030A98E0120A01E19C
:104AE800ADD6010A01E1EBD6030A01E1EED6010ACF
:104AF80001E1E8D6070A01E1EBD6010A01E1EBD6AC
:104B0800030A01E100D7010A01E119D70F0A01E1FF
:104B18005CD7010A01E1E2D6030A01E1E7D6D3D75F
:104B2800010E00018A6F790E896FC4C48BF0C5C469
:104B38008CF0C6C48DF0C7C48EF01200010E7E251D
:104B4800D96EDA6A010EDA221200DA22DF50F22771
:104B58007E2B130C01018B6B030EF46F4CEC39F0B8
:104B68001B0E776FA60E766F15EC3EF0E1C375F05D
:104B7800E2C376F000EC3FF077D94BEC2AF011D085
:104B8800FCEC23F079EC3FF00101986F9851030A8F
:104B980003E1FE0E8B6F4ED198AF03D098C18BF115
:104BA80049D1000159BEECD7E9C37AF0EAC37BF0DA
:104BB800EBC37CF0ECC37DF000017E6B7F6BB40E21
:104BC800806F430E816FD0EC35F07AC08CF17BC0DA
:104BD8008DF17CC08EF17DC08FF10301E351020A93
:104BE80008E101018C6B4E0E8D6FED0E8E6F4A0E33
:104BF8008F6F0301E46712D08CC16BF08DC16CF02C
:104C08008EC16DF08FC16EF054EC3FF06BC08CF12B
:104C18006CC08DF16DC08EF16EC08FF13BEC3BF036
:104C28009EEC3CF031D90AEC3CF090C175F091C192
:104C380076F092C177F093C178F08CC179F08DC18C
:104C48007AF08EC17BF08FC17CF087EC31F075C0B3
:104C58007FF176C080F177C081F178C082F14CECA9
:104C680039F01A0E776F2A0E766F15EC3EF00301B5
:104C7800E351020A12E14CEC39F01C0E776F270E53
:104C8800766F15EC3EF0756B010E7AEC3AF01B0E60
:104C9800776F720E766F15EC3EF00001896B8A6BA8
:104CA800800E8B6F3F0E8C6FF1C38DF0F2C38EF0C8
:104CB800F3C38FF0F4C390F052EC37F089C087F15A
:104CC8008AC088F18BC089F18CC08AF179EC3FF0F9
:104CD8008CC130F18DC131F18EC132F18FC133F108
:104CE800F1C334F1F2C335F1F3C336F1F4C337F14C
:104CF8002FEC3EF09DD03BEC3BF09EEC3CF0C4D852
:104D08000AEC3CF07FC198F080C199F081C19AF01B
:104D180082C19BF090C19CF091C19DF092C19EF020
:104D280093C19FF0C2EC3DF098C094F199C095F101
:104D38009AC096F19BC097F1010197AF12D094C128
:104D48006BF095C16CF096C16DF097C16EF054ECA4
:104D58003FF06BC094F16CC095F16DC096F16EC0D8
:104D680097F194C17AF095C17BF096C17CF097C118
:104D78007DF087C17EF088C17FF089C180F08AC14B
:104D880081F0D0EC35F07AC083F17BC084F17CC02F
:104D980085F17DC086F1010E00018A6F940E896F3E
:104DA8001B0E8B6F0F0E8C6F360E8D6F3B0E8E6F3A
:104DB8000AEC3CF00301E351020A2EE00B0E00015D
:104DC800756F000E7AEC3AF083C1D0F084C1D1F04F
:104DD80085C1D2F086C1D3F00E0ED46F000ED56B0C
:104DE80068EC33F0756B010E7AEC3AF094C1B8F0C8
:104DF80095C1B9F096C1BAF097C1BBF0050EBC6F6A
:104E0800020EBD6F000EBE6BF7EC2DF01C0E776F17
:104E1800F90E766F15EC3EF079EC3FF00101986FD2
:104E28009851030A01E1B5D698BFB8D6FCEC23F037
:104E380059BE61D7599E0001588A4CEC39F01C0EB6
:104E4800776FD20E766F15EC3EF0FCEC23F0599E8E
:104E5800588A010E0001916FF40E906F88EC3FF0B4
:104E6800589A01018B51120075C038F176C039F19A
:104E780077C03AF178C03BF101013C6B3D6BB40E51
:104E88003E6F420E3F6F420C75C090F176C091F1B3
:104E980077C092F178C093F15990010E00018A6FA2
:104EA800900E896FC4C48BF0C5C48CF0C6C48DF055
:104EB800C7C48EF012007CAF0DD02D0EC8EC38F0B0
:104EC800796D7A1FD8B07A2B7B1FD8B07B2B000E58
:104ED8007C5705D07E5103E02B0EC8EC38F079C022
:104EE8006BF07AC06CF07BC06DF07CC06EF06F6BBD
:104EF800CA0E706F9A0E716F3B0E726F96EC36F099
:104F080033D96F6BCA0E706F9A0E716F3B0E726F4A
:104F180074EC3BF03AD9090E7D6503D07F51C8EC9B
:104F280038F079C06BF07AC06CF07BC06DF07CC053
:104F38006EF06F6BE10E706FF50E716F050E726F8C
:104F480096EC36F011D96F6BE10E706FF50E716F3C
:104F5800050E726F74EC3BF018D9080E7D6503D00E
:104F68007F51C8EC38F079C06BF07AC06CF07BC028
:104F78006DF07CC06EF0800E6F6F960E706F980E9D
:104F8800716F000E726B96EC36F0EED8800E6F6F74
:104F9800960E706F980E716F000E726B74EC3BF08A
:104FA800F4D8070E7D6503D07F51C8EC38F079C07E
:104FB8006BF07AC06CF07BC06DF07CC06EF0400E78
:104FC8006F6F420E706F0F0E716F000E726B96EC62
:104FD80036F0CAD8400E6F6F420E706F0F0E716FA9
:104FE800000E726B74EC3BF0D0D8060E7D6503D0D2
:104FF8007F51C8EC38F079C06BF07AC06CF07BC098
:105008006DF07CC06EF0A00E6F6F860E706F010E93
:10501800716F000E726B96EC36F0A6D8A00E6F6F0B
:10502800860E706F010E716F000E726B74EC3BF0A0
:10503800ACD8050E7D6503D07F51C8EC38F079C037
:105048006BF07AC06CF07BC06DF07CC06EF0100E17
:105058006F6F270E706F000E716B726B96EC36F0E7
:1050680083D8100E6F6F270E706F000E716B726B06
:1050780074EC3BF08AD8040E7D6503D07F51C8ECF0
:1050880038F079C06BF07AC06CF07BC06DF07CC0F2
:105098006EF0E80E6F6F030E706F000E716B726B1F
:1050A80096EC36F061D8E80E6F6F030E706F000E45
:1050B800716B726B74EC3BF068D8030E7D6503D09E
:1050C8007F51C8EC38F079C06BF07AC06CF07BC0C7
:1050D8006DF07CC06EF0640E6F6F000E706B716BBC
:1050E800726B96EC36F040D8640E6F6F000E706BE2
:1050F800716B726B74EC3BF048D8020E7D6503D07F
:105108007F51C8EC38F079C06BF07AC06CF07BC086
:105118006DF07CC06EF00A0E6F6F000E706B716BD5
:10512800726B96EC36F020D80A0E6F6F000E706B1B
:10513800716B726B74EC3BF028D8010E7D6503D05F
:105148007F51C8EC38F079C07FF07AC080F07BC01E
:1051580081F07CC082F0300E7F27000E80238123EF
:1051680082237F51C8EF38F06BC07FF06CC080F0AD
:105178006DC081F06EC082F07FC06BF080C06CF0B3
:1051880081C06DF082C06EF012006B51795F6C5176
:105198007A5B6D517B5B6E517C5B300E7F27000E16
:1051A800802381238223000C0001BAAF13D0B7C03B
:1051B8006BF0B8C06CF0B9C06DF0BAC06EF054ECCA
:1051C8003FF06BC0DBF06CC0DCF06DC0DDF06EC092
:1051D800DEF008D0B7C0DBF0B8C0DCF0B9C0DDF055
:1051E800BAC0DEF0DBC07AF0DCC07BF0DDC07CF05A
:1051F800DEC07DF07E6B7F6B806B3F0E816FD0ECE5
:1052080035F07AC0BBF07BC0BCF07CC0BDF07DC07F
:10521800BEF0B6C489F0B7C48AF0B8C48BF0B9C47C
:105228008CF0B2C48DF0B3C48EF0B4C48FF0B5C4A2
:1052380090F052EC37F089C0DFF08AC0E0F08BC004
:10524800E1F08CC0E2F012D9D0EC35F0E0D8D0EC27
:1052580035F0F6D8D0EC35F07AC0CBF07BC0CCF086
:105268007CC0CDF07DC0CEF0BBC089F0BCC08AF058
:10527800BDC08BF0BEC08CF0CBC08DF0CCC08EF022
:10528800CDC08FF0CEC090F09AEC3BF035E2DBC099
:1052980089F0DCC08AF0DDC08BF0DEC08CF0B2C4CF
:1052A8008DF0B3C48EF0B4C48FF0B5C490F052EC56
:1052B80037F089C0A6F08AC0A7F08BC0A8F08CC0D0
:1052C800A9F035EC32F0A6C0DFF0A7C0E0F0A8C026
:1052D800E1F0A9C0E2F0CAD8D0EC35F098D8D0EC0B
:1052E80035F0AED8D0EC35F07AC0CBF07BC0CCF03E
:1052F8007CC0CDF07DC0CEF0B2C47AF0B3C47BF0F0
:10530800B4C47CF0B5C47DF0DFC07EF0E0C07FF0AF
:10531800E1C080F0E2C081F0D0EC35F07AC0BFF097
:105328007BC0C0F07CC0C1F07DC0C2F0DBC098F08B
:10533800DCC099F0DDC09AF0DEC09BF07E6B7F6B1D
:10534800806B400E816FCBC07AF0CCC07BF0CDC0B3
:105358007CF0CEC07DF0D0EC35F07AC09CF07BC0FC
:105368009DF07CC09EF07DC09FF0C2EC3DF098C0DF
:10537800C3F099C0C4F09AC0C5F09BC0C6F0C3C0C2
:1053880089F0C4C08AF0C5C08BF0C6C08CF0BFC01D
:105398008DF0C0C08EF0C1C08FF0C2C090F052EC4A
:1053A80037F089C0C7F08AC0C8F08BC0C9F08CC07C
:1053B800CAF0DFC07AF0E0C07BF0E1C07CF0E2C068
:1053C8007DF07E6B7F6B806B400E816FD0EC35F08B
:1053D8007AC0D7F07BC0D8F07CC0D9F07DC0DAF0B5
:1053E800000E8A6FD70E896FC7C08BF0C8C08CF0CB
:1053F800C9C08DF0CAC08EF0C0EC3BF0D7C0B7F082
:10540800D8C0B8F0D9C0B9F0DAC0BAF012007AC082
:10541800CFF07BC0D0F07CC0D1F07DC0D2F0DFC02F
:105428007EF0E0C07FF0E1C080F0E2C081F0CFC044
:105438007AF0D0C07BF0D1C07CF0D2C07DF01200F1
:105448007AC0D3F07BC0D4F07CC0D5F07DC0D6F054
:10545800D3C07AF0D4C07BF0D5C07CF0D6C07DF044
:105468007E6B7F6B806B3F0E816F3F0CDFC07EF0E1
:10547800E0C07FF0E1C080F0E2C081F0B2C47AF011
:10548800B3C47BF0B4C47CF0B5C47DF012003FAF68
:1054980013D03CC16BF03DC16CF03EC16DF03FC113
:1054A8006EF054EC3FF06BC0C8F06CC0C9F06DC032
:1054B800CAF06EC0CBF008D03CC1C8F03DC1C9F0FD
:1054C8003EC1CAF03FC1CBF001013BAF25D038C186
:1054D800DCF023D907D0000E8A6FDC0EE4EC34F040
:1054E800C0EC3BF0DCC089F0DDC08AF0DEC08BF098
:1054F800DFC08CF000018D6B8E6BB40E8F6FC30E06
:10550800906F9AEC3BF0E7E3000E8A6FDC0EE4EC58
:1055180034F0C0EC3BF022D038C1DCF0FED80CD01F
:10552800000EA16FDC0EA06FA26BA36BB40EA46F6C
:10553800430EA56FE5EC3BF00001896B8A6BB40E56
:105548008B6F430E8C6FDCC08DF0DDC08EF0DEC03B
:105558008FF0DFC090F09AEC3BF0E2E373EC34F0AC
:10556800A6C0D8F0A7C0D9F0A8C0DAF0A9C0DBF06F
:10557800D8C089F0D9C08AF0DAC08BF0DBC08CF0D3
:10558800DCC08DF0DDC08EF0DEC08FF0DFC090F0A3
:105598009AEC3BF039E2DCC098F0DDC099F0DEC04F
:1055A8009AF0DFC09BF0D8C09CF0D9C09DF0DAC05B
:1055B8009EF0DBC09FF0C2EC3DF098C0CCF099C0E3
:1055C800CDF09AC0CEF09BC0CFF0DCC09CF0DDC01F
:1055D8009DF0DEC09EF0DFC09FF0A6D8C2EC3DF083
:1055E8008BD8D8C079F0D9C07AF0DAC07BF0DBC0AC
:1055F8007CF087EC31F075C0D0F076C0D1F077C080
:10560800D2F078C0D3F038D0D8C09CF0D9C09DF083
:10561800DAC09EF0DBC09FF087D8C2EC3DF06CD8B2
:10562800DCC079F0DDC07AF0DEC07BF0DFC07CF052
:1056380087EC31F075C0CCF076C0CDF077C0CEF0F5
:1056480078C0CFF0D8C098F0D9C099F0DAC09AF0F5
:10565800DBC09BF0DCC09CF0DDC09DF0DEC09EF09E
:10566800DFC09FF0C2EC3DF098C0D0F099C0D1F0F7
:105678009AC0D2F09BC0D3F0CCC089F0CDC08AF0DC
:10568800CEC08BF0CFC08CF0D0C08DF0D1C08EF0E2
:10569800D2C08FF0D3C090F09AEC3BF009E2CCC0B6
:1056A80030F1CDC031F1CEC032F1CFC033F11AD0D4
:1056B800D0C06BF0D1C06CF0D2C06DF0D3C06EF02A
:1056C80054EC3FF06BC0C4F06CC0C5F06DC0C6F0C0
:1056D8006EC0C7F0C4C030F1C5C031F1C6C032F1E8
:1056E800C7C033F1C8C034F1C9C035F1CAC036F1FA
:1056F800CBC037F12FEF3EF098C0D4F099C0D5F069
:105708009AC0D6F09BC0D7F0D4C075F0D5C076F05B
:10571800D6C077F0D7C078F0120039C1DDF03AC1B1
:10572800DEF03BC1DFF01200986B996BB40E9A6FF4
:10573800430E9B6F430CBAAF08D0B7C07AF023D999
:10574800BF0E816FD0EC35F007D0B7C07AF01BD907
:105758003F0E816FD0EC35F07AC0CFF07BC0D0F02F
:105768007CC0D1F07DC0D2F0BEAF08D0BBC07AF00B
:1057780000D9BF0E816FD0EC35F007D0BBC07AF0EE
:10578800F8D83F0E816FD0EC35F07AC0D3F07BC0EB
:10579800D4F07CC0D5F07DC0D6F0896B8A6B800EC2
:1057A8008B6F450E8C6FD3C08DF0D4C08EF0D5C0F2
:1057B8008FF0D6C090F09AEC3BF01BE2CFC089F096
:1057C800D0C08AF0D1C08BF0D2C08CF0D3C08DF09D
:1057D800D4C08EF0D5C08FF0D6C090F052EC37F020
:1057E80089C0B7F08AC0B8F08BC0B9F08CC0BAF0E5
:1057F8001200D3C07EF0D4C07FF0D5C080F0D6C0F0
:1058080081F0D3C07AF0D4C07BF0D5C07CF0D6C08C
:105818007DF0D0EC35F07AC098F07BC099F07CC070
:105828009AF07DC09BF0B2C48DF0B3C48EF0B4C4BE
:105838008FF0B5C490F07E6B7F6B806B400E816FEC
:10584800CFC07AF0D0C07BF0D1C07CF0D2C07DF060
:10585800D0EC35F07AC089F07BC08AF07CC08BF040
:105868007DC08CF052EC37F089C09CF08AC09DF066
:105878008BC09EF08CC09FF0C2EC3DF098C0C7F082
:1058880099C0C8F09AC0C9F09BC0CAF0CAAF08D086
:10589800000EB76FB86F800EB96FBF0EBA6FBF0C2E
:1058A800C7C0A6F0C8C0A7F0C9C0A8F0CAC0A9F070
:1058B80035EC32F0A6C0C3F0A7C0C4F0A8C0C5F04C
:1058C800A9C0C6F0D3C098F0D4C099F0D5C09AF05A
:1058D800D6C09BF0C3C09CF0C4C09DF0C5C09EF06C
:1058E800C6C09FF0C2EC3DF098C0BFF099C0C0F0B0
:1058F8009AC0C1F09BC0C2F0B2C47AF0B3C47BF0C6
:10590800B4C47CF0B5C47DF0BFC07EF0C0C07FF0E9
:10591800C1C080F0C2C081F0D0EC35F07AC0CBF0C5
:105928007BC0CCF07CC0CDF07DC0CEF0B6C489F091
:10593800B7C48AF0B8C48BF0B9C48CF0CBC08DF072
:10594800CCC08EF0CDC08FF0CEC090F09AEC3BF07A
:1059580007E2000EB76FB86FB96FC00EBA6FC00C10
:10596800CBC0B7F0CCC0B8F0CDC0B9F0CEC0BAF05B
:105978001200BCC07BF0BDC07CF0BEC07DF07E6B69
:105988007F6B806B1200B8C07BF0B9C07CF0BAC0E6
:105998007DF07E6B7F6B806B12000101E56BE46B21
:1059A80068EC3DF08B908A90416A426A436A446A87
:1059B8000201C86BC96BCA6BCB6BCC6BCD6BCE6B62
:1059C800CF6B0101E66BC80E0101E625D96EDA6AD4
:1059D800030EDA22DF68E62B0F0EE665F4D7ECEC4F
:1059E80034F042EC3AF054EC3CF04CEC39F01C0E3C
:1059F800776F080E766F15EC3EF0756B010E7AEC3A
:105A08003AF01C0E776FA90E766F15EC3EF01D0E5E
:105A18000101C96F5C0EC86F1C0ECB6F540ECA6FA4
:105A28001D0ECD6F680ECC6F1C0ECF6F450ECE6F5E
:105A38001B0ED16FB70ED06F1D0ED36F130ED26F22
:105A48001A0ED56FA40ED46FC8C1D6F1C9C1D7F14B
:105A5800CAC1D8F1CBC1D9F1CEC1DAF1CFC1DBF1DE
:105A6800CCC1DCF1CDC1DDF1D0C1DEF1D1C1DFF1B6
:105A7800D2C1E0F1D3C1E1F1D4C1E2F1D5C1E3F182
:105A88000001588A4CEC39F0190E776FEA0E766FE0
:105A980015EC3EF0756B010E7AEC3AF01C0E776F40
:105AA800360E766F15EC3EF067EC3FF0588602D064
:105AB800FCEC23F0000158B6FBD70001916B0A0EED
:105AC800906F88EC3FF00001589A4CEC39F0010EC9
:105AD8000101F46F010E0001926FD60E916F060E50
:105AE800936FE5C194F0CCEC30F00101E76F5AD028
:105AF800E56BEFEC0EF0E76FE751FE0AD8B42AEC3D
:105B080020F00101E729D8B42AEC20F00101E7517F
:105B1800800A820F47E3DBD7010EE56FE0EC15F052
:105B28000101E76FE751800A820F3CE3E7AFCFD767
:105B38002AEC20F034D0030EE56F37EC36F0010183
:105B4800E76FE729C4E0E751FE0AC1E0E751800AA0
:105B5800820F28E3E7C1E4F1E4518CEC39F01FD05F
:105B6800E56B2AEC20F01BD0E56B85EC38F017D0FC
:105B7800E56BF1EC33F0ABD7E56B9AEC12F00FD094
:105B8800000E8CEC39F00BD0010E8CEC39F007D0FC
:105B9800020E8CEC39F003D0030E8CEC39F00101C5
:105BA800E76FB5D7E751A4E0010AB6E0030AD8E0E9
:105BB800010AC1E0070AD8E0010ADAE0030ADCE0DA
:105BC800C30AD6E0030AD8E0010ACAE00F0AA4E033
:105BD800010A8EE0020AE0E0070ADAE0010AD4E0EE
:105BE800030ACEE074D7B8C0AEF0B9C0AFF0BAC0FF
:105BF800B0F0BBC0B1F0ADEC37F0AEC0BFF0AFC095
:105C0800C0F0B0C0C1F0B1C0C2F0BE5119E0C2517D
:105C1800BF11C011C11114E1BBAF04D02D0EC8ECE7
:105C280038F003D02B0EC8EC38F0000E796B7A6B85
:105C38007B6B7C6BBCC07DF07E6B5FEC27F00ED07D
:105C4800BFC079F0C0C07AF0C1C07BF0C2C07CF0A0
:105C5800BCC07DF0BEC07EF05FEC27F0000EA16FE7
:105C6800B80EA06FBFC075F0C0C076F0C1C077F0A5
:105C7800C2C078F09EEC3CF075C0A2F076C0A3F0EC
:105C880077C0A4F078C0A5F0E5EC3BF0BBAF17D027
:105C9800000E986B996B9A6B9B6BB8C09CF0B9C05F
:105CA8009DF0BAC09EF0BBC09FF0C2EC3DF098C01A
:105CB800B8F099C0B9F09AC0BAF09BC0BBF0000E1A
:105CC8008A6FB80E896F8B6B500E8C6FC30E8D6FF9
:105CD800470E8E6F0AEC3CF0B8C0AEF0B9C0AFF01A
:105CE800BAC0B0F0BBC0B1F0ADEC37F0AEC0C3F095
:105CF800AFC0C4F0B0C0C5F0B1C0C6F0BD51D8B493
:105D080012002E0EC8EC38F0BD0514E1C3C06BF0CC
:105D1800C4C06CF0C5C06DF0C6C06EF0100E6F6FD9
:105D2800270E706F000E716B726B96EC36F056D8BA
:105D3800010E50D0BD51020A14E1C3C06BF0C4C0BB
:105D48006CF0C5C06DF0C6C06EF0E80E6F6F030E44
:105D5800706F000E716B726B96EC36F03FD8020EC6
:105D680039D0BD51030A13E1C3C06BF0C4C06CF055
:105D7800C5C06DF0C6C06EF0640E6F6F000E706B1C
:105D8800716B726B96EC36F029D8030E23D0BD5197
:105D9800040A13E1C3C06BF0C4C06CF0C5C06DF059
:105DA800C6C06EF00A0E6F6F000E706B716B726B6F
:105DB80096EC36F013D8040E0DD0BD51050AD8A4C0
:105DC8001200C3C079F0C4C07AF0C5C07BF0C6C069
:105DD8007CF0050E7D6F7E6B5FEF27F06BC0C3F024
:105DE8006CC0C4F06DC0C5F06EC0C6F0C3C079F019
:105DF800C4C07AF0C5C07BF0C6C07CF01200F7CFF3
:105E080067F0F8CF68F0F5CF69F0FE0ED76E830E15
:105E1800D66EF294ACA201D001D015D00001F05199
:105E2800D8B401D001D00FD00501000E0101F3252F
:105E3800D96EDA6A0501050EDA22DF50AD6E01016E
:105E4800F32B0001F007AB30E832010B0001606F63
:105E5800AB30010B60110009D8B401D001D00DD0CE
:105E6800AB9800F0AB88AECF6AF0AECF6AF0000115
:105E7800EE6B0001579E0001579C9EAA01D001D0ED
:105E880032D0AECF6AF000016A51400AD8A401D0DE
:105E980001D005D0EE6B0001579E0001578C000120
:105EA8006A51230AD8A401D001D004D00001578E2A
:105EB8000001579C0001EE29D8A401D001D001D0DF
:105EC800EE6B000157AC01D001D00DD00601000ED9
:105ED8000001EE25D96EDA6A0601060EDA22000103
:105EE8006AC0DFFFEE2B0001F251D8B401D001D017
:105EF80002D0F20702D0070EF26F000157AA01D0B4
:105F080001D009D00001F2510401AF6101D001D0E4
:105F180002D08A8201D08A920001F30700010001B1
:105F28005A760001F36701D001D012D0E94BEA2B71
:105F3800EA05910ED8B4E919D8A401D001D005D04A
:105F48004F0EF36FE96BEA6B02D0500EF36F9E8031
:105F5800D890EB37D890EB378050030BEB130F0E2C
:105F6800EB17DA0EEB25F66EF76A190EF722F86AC8
:105F7800000EF8220800F550606F000E60BFFF0E9B
:105F8800616F626F636F60510301F65F00016151D9
:105F98000301F75B000162510301F85B00016351E3
:105FA8000301F95B000158A601D001D007D0000118
:105FB80058960301F66BF76BF86BF96B000159B053
:105FC80001D001D008D0F6C3E8F1F7C3E9F1F8C36E
:105FD800EAF1F9C3EBF169C0F5FF68C0F8FF67C0E3
:105FE800F7FF66C0F6FF65C0DAFF64C0D9FF11008D
:105FF800B8C0CCF0B9C0CDF0BAC0CEF0BBC0CFF0BD
:10600800CCC07AF0CDC07BF0CEC07CF0CFC07DF0A4
:10601800BB0E7E6FA20E7F6F910E806F390E816F5F
:10602800D0EC35F088D8ADEC37F0AE51BCC0D9FF14
:10603800BDC0DAFFDF6EBCC0D9FFBDC0DAFFDF50DC
:1060480079EC3EF089D8610E8D6F450E8E6F0AECA3
:106058003CF091D8E5EC3BF0CCC07AF0CDC07BF0B9
:10606800CEC07CF0CFC07DF0890E7E6F880E7F6F2A
:10607800806F3C0E816FD0EC35F05DD8ADEC37F019
:10608800AE51BEC0D9FFBFC0DAFFDF6EBEC0D9FFB8
:10609800BFC0DAFFDF5079EC3EF05ED8700E8D6F2E
:1060A800420E8E6F0AEC3CF066D8E5EC3BF0CCC0B3
:1060B800AEF0CDC0AFF0CEC0B0F0CFC0B1F0ADEC17
:1060C80037F0AE51C0C0D9FFC1C0DAFFDF6E000E95
:1060D800A16FCC0EA06FC0C0D9FFC1C0DAFFDF50DE
:1060E80079EC3EF075C0A2F076C0A3F077C0A4F0BA
:1060F80078C0A5F0E5EC3BF0000E8A6FCC0E896FF6
:106108008B6B8C6B7A0E8D6F440E8E6F0AEC3CF0A5
:10611800CCC0AEF0CDC0AFF0CEC0B0F0CFC0B1F0C3
:10612800ADEC37F0C2C0D9FFC3C0DAFFAEC0DEFFA6
:10613800AFC0DDFF12007AC0C4F07BC0C5F07CC0E0
:10614800C6F07DC0C7F0C4C0AEF0C5C0AFF0C6C0D1
:10615800B0F0C7C0B1F0120075C0C8F076C0C9F081
:1061680077C0CAF078C0CBF0000E8A6FC80E896F6E
:106178008B6B8C6B1200000EA16FCC0EA06FC8C089
:10618800A2F0C9C0A3F0CAC0A4F0CBC0A5F0120009
:10619800986B9A6B94C09AF0756B010E766FAFECA2
:1061A8003AF04CEC39F098512DE0010E756F000E65
:1061B8007AEC3AF09A670FD09351020DF35091257B
:1061C800D96E000E9221DA6EDECF76F0DDCF77F051
:1061D80015EC3EF008D09A51020DF3CF95F0FE0E63
:1061E80077D815EC3EF0756B010E7AEC3AF02A0E72
:1061F800C8EC38F05AD815EC3EF0756B010E7AEC05
:106208003AF023D02A0EC8EC38F04FD815EC3EF0FF
:10621800010E756F7AEC3AF06DD80BE191C0D9FF99
:1062280092C0DAFFDECF76F0DDCF77F015EC3EF0E6
:1062380008D09A51020DF3CF95F0020E49D815EC0B
:106248003EF0000E756B7AEC3AF0D4EC3EF0996FA4
:1062580099AF18D099C09AF021D09A691FD0FE0E34
:106268009A6F1CD0010E986F45D803E193C09AF03D
:1062780098D79A2B96D7986B9A6702D09A6B91D732
:106288009A078FD79951010A09E0030AE6E0010A43
:10629800E6E0070AE7E0010AEEE083D7756B766B64
:1062A800010EAFEC3AF09A5112009A51020DF350D8
:1062B8009125956FE86AF3BEE8689221966F95C0BC
:1062C800D9FF96C0DAFFDECF76F0DDCF77F0120087
:1062D800952795519125966FE86A95BFE8689221B0
:1062E800976F96C0D9FF97C0DAFFDECF76F0DDCF83
:1062F80077F0120093519AC095F0966B95BF960768
:10630800951996111200000177357835806F7B3525
:106318007C357F6F805109E07F5180610FD08051BB
:106328007F5D7D6F210E7D5D09E379C075F07AC0D0
:1063380076F07BC077F07CC078F012007F5109E0DE
:1063480080517F610FD07F51805D7D6F210E7D5D13
:1063580009E375C075F076C076F077C077F078C03D
:1063680078F01200060E7E6F78BF7E8F7CBF7E8D20
:10637800778F786B7B8F7C6B7F51806119D0D89039
:1063880079377A377B377C377F077F5180190CE064
:106398007E0700017E51070B07E0F1D7D8907833CC
:1063A800773376337533802B7F518063F7D71BD0D3
:1063B80080517F6118D0D89075377637773778371E
:1063C80080077F5180190CE07E0700017E51070B82
:1063D80007E0F1D7D8907C337B337A3379337F2B3E
:1063E8007F518063F7D77EAF09D0751F761F771F5F
:1063F800781F752B000E7623772378237EAD02D085
:10640800791F26D87E6B7551792776517A23775173
:106418007B2378517C237CAF04D0791F19D8010ED7
:106428007E6F79C06BF07AC06CF07BC06DF07CC079
:106438006EF080C06FF07EC070F0F4EC36F06BC088
:1064480075F06CC076F06DC077F06EC078F0120011
:106458007A1F7B1F7C1F792B000E7A237B237C23DA
:10646800000C000E896B8A6B8B6B8C6BA6C08DF051
:10647800A7C08EF0A8C08FF0A9C090F09AEC3BF0AE
:1064880005E3A66BA76BA86BA96B1200A6C0AAF0C0
:10649800A7C0ABF0A8C0ACF0A9C0ADF0A6515E088B
:1064A800B36FC80EA755B46F6E0EA855B56FBE0E64
:1064B800A955B66FD890B633B533B433B333D88053
:1064C800000EAB5B800EAC5B000EAD5B040EAE6FD6
:1064D800B3C07AF0B4C07BF0B5C07CF0B6C07DF034
:1064E800AAC07EF0ABC07FF0ACC080F0ADC081F038
:1064F800D0EC35F07AC0AFF07BC0B0F07CC0B1F022
:106508007DC0B2F03CD80AEC3CF039D80AEC3CF03B
:10651800000E8A6FB30E896F8B6B8C6BC00E8D6FFC
:106528003F0E8E6F0AEC3CF0000EA16FB30EA06F09
:10653800AFC0A2F0B0C0A3F0B1C0A4F0B2C0A5F043
:10654800E5EC3BF0AE2FC4D7B3C07AF0B4C07BF013
:10655800B5C07CF0B6C07DF0A6C07EF0A7C07FF0C5
:10656800A8C080F0A9C081F0D0EC35F07AC0A6F0C0
:106578007BC0A7F07CC0A8F07DC0A9F01200000E77
:106588008A6FAF0E896FB3C08BF0B4C08CF0B5C002
:106598008DF0B6C08EF01200E8CF93F00001935151
:1065A80086D8100E6F6F0E0E706F000E716B726BC7
:1065B80074EC3BF067D89EEC3CF075C08BF076C06D
:1065C8008CF077C08DF078C08EF0C0EC3BF08F5126
:1065D8006ED83C0E6F6F000E706B716B726B74EC43
:1065E8003BF050D89EEC3CF075C08BF076C08CF038
:1065F80077C08DF078C08EF0C0EC3BF0000E8A6F4B
:106608009C0E896F905179EC3EF075C08BF076C086
:106618008CF077C08DF078C08EF0C0EC3BF091C064
:1066280075F092C076F0A4EC3DF075C094F076C099
:1066380095F077C096F078C097F0000E8A6F940EA8
:10664800896F6F0E8B6F120E8C6F830E8D6F3A0EE3
:106658008E6F0AEC3CF0000E8A6F9C0E896F94C016
:106668008BF095C08CF096C08DF097C08EF0C0EC82
:106678003BF09CC08FF09DC090F09EC091F09FC0F1
:1066880092F012006BC098F06CC099F06DC09AF04F
:106698006EC09BF0000E8A6F9C0E896F98C075F0D3
:1066A80099C076F09AC077F09BC078F01200986F86
:1066B800996B9A6B9B6B98C06BF099C06CF09AC001
:1066C8006DF09BC06EF01200D0C0B8F0D1C0B9F028
:1066D800D2C0BAF0D3C0BBF0000EBD6FD60EBC6FEF
:1066E800000EBF6FD70EBE6F000EC16FD80EC06F01
:1066F800000EC36FD90EC26FFCEC2FF0D9C06BF03F
:10670800DAC06CF06E6B640E6D6F06EC3AF06BC01D
:10671800D9F06CC0DAF0D4A70ED0D5A703D03C0EC0
:10672800C8EC38F0D65151D85FEC27F0D5A703D084
:106738003E0EC8EC38F0D4A513D0D4A703D03A0E37
:10674800C8EC38F0D5A503D03C0EC8EC38F0D751CA
:106758003CD85FEC27F0D5A503D03E0EC8EC38F046
:10676800D4A313D0D4A503D03A0EC8EC38F0D5A3DF
:1067780003D03C0EC8EC38F0D85127D85FEC27F08E
:10678800D5A303D03E0EC8EC38F0D4A11200D4A390
:1067980003D02E0EC8EC38F0D5A103D03C0EC8ECBF
:1067A80038F0D9C079F0DAC07AF0000E7ABFFF0E5F
:1067B8007B6F7C6F010E7D6F000E7E6B5FEC27F0A8
:1067C800D5A112003E0EC8EF38F0796F7A6B7B6B5B
:1067D8007C6B020E7D6F7E6B000C070EF46F4CEC29
:1067E80039F01D0E776F190E766F15EC3EF0000E1E
:1067F800756B766BAFEC3AF05A820001578679ECEC
:106808003FF09D6F9D51800A820F1AE260D046ECDE
:106818003BF089C099F08AC09AF08BC09BF08CC07D
:106828009CF0000E8A6F990E896F8B6B8C6BA00E93
:106838008D6F400E8E6FC0EC3BF0966B976B09D056
:106848009D51030AE4E09869980700019829D7E068
:10685800FBD779EC3FF09D6F9D51800A820F37E39B
:1068680046EC3BF089C091F08AC092F08BC093F05F
:106878008CC094F099C089F09AC08AF09BC08BF0C4
:106888009CC08CF091C08DF092C08EF093C08FF0B8
:1068980094C090F09AEC3BF0B0E306D0964B972B5F
:1068A80009D0966B976B06D09D51040AF7E0010A50
:1068B800F8E0A3D79751800A800F090ED8B4965DE7
:1068C80006E29869980700019829C3E0FBD7756B21
:1068D800766B010EAFEC3AF000015A9212003BECD5
:1068E8003BF09EEC3CF075C0AAF076C0ABF077C0E8
:1068F800ACF078C0ADF059900001000E8A6FAA0E76
:10690800896FC4C48BF0C5C48CF0C6C48DF0C7C4ED
:106918008EF00AEC3CF0000E896B8A6B8B6B8C6BEB
:10692800AAC08DF0ABC08EF0ACC08FF0ADC090F0B7
:106938009AEC3BF00DE324D0000EA16FAA0EA06FD5
:10694800A26BA36BB40EA46F430EA56FE5EC3BF0EE
:10695800896B8A6BB40E8B6F430E8C6FAAC08DF057
:10696800ABC08EF0ACC08FF0ADC090F09AEC3BF0AD
:106978001EE2E2D7000E8A6FAA0E22D8C0EC3BF0C6
:10698800AAC089F0ABC08AF0ACC08BF0ADC08CF067
:106998008D6B8E6BB40E8F6FC30E906F9AEC3BF0BD
:1069A800E9E3000E8A6FAA0E0BD8C0EC3BF0AAC030
:1069B800A6F0ABC0A7F0ACC0A8F0ADC0A9F012001B
:1069C800896F8B6B8C6BB40E8D6F430E8E6F430C7F
:1069D800020E04019D6F9E6B9F6BA06B050EA26F4C
:1069E800BE0EA16F5B0EA46FE00EA36F060EA56F1F
:1069F8007A0EA66FAB0EA76FEA0EA86F510EA96F9D
:106A0800430EAA6F9C0EAB6F190EAC6F9C0EAD6F48
:106A18003B0EAE6F130EB16F880EB06F040EAF6FE2
:106A2800B26BB36B340EB46F430EB56FB66BB76B06
:106A3800340EB86F430EB96FBB6B200EBA6FBD6BC7
:106A4800BC6FBF6B400EBE6FC06BC16B8C0EC26F4C
:106A5800410EC36FA20EC46F0E0EC56F6A0EC66FCD
:106A68003D0EC76F0101006B010E0001746F000E2F
:106A7800736F000EA7EC3EF0010E0001746F000E5C
:106A8800736F010EA7EC3EF0010E0001746F000E4B
:106A9800736F020EA7EC3EF0010E0001746F000E3A
:106AA800736F030EA7EC3EF0010E0001746F000E29
:106AB800736F040EA7EF3EF006EE00F010EEFFF045
:106AC800EE6AE550E150FCE1E250FAE105EE00F033
:106AD80010EEFFF0EE6AE550E150FCE1E250FAE119
