:04100000A1EF0CF060
:10100800D9CF64F0DACF65F0F6CF66F005EF2EF0B1
:10101800D8CF0FF0E8CF10F0E0CF11F0D9CF12F011
:10102800DACF13F0F6CF14F0F7CF15F0F8CF16F0AB
:10103800F5CF17F09E90010E3126000E3222000ED9
:101048003322000E3422000159B601D001D008D055
:1010580031C0F0F132C0F1F133C0F2F134C0F3F134
:1010680000015AA801D001D00ED03150455C325051
:1010780046583350475834504858D8B001D001D05A
:1010880002D000015A984A504910D8B401D001D072
:1010980006D04906D8A04A060001578A02D00001A6
:1010A800579A00015AA201D001D002D00001579AE4
:1010B800D8905436D89054368138E8461F0B030B25
:1010C80054120F0E5416D60E5424F66EF76A190EE3
:1010D800F722F86A000EF8220800F550525E552AE9
:1010E8005528D8A401D001D004D0556A526A00010D
:1010F80058845250800A7D0FD8A001D001D00FD05B
:10110800040E516E00015782E7C349F0E8C34AF064
:101118000001578055C04DF04E6A556A526A5250C8
:10112800800A820FD8B001D001D00FD0050E516EC1
:1011380000015782E7C349F0E8C34AF0000157802D
:1011480055C04DF04E6A556A526A81B401D001D03B
:1011580007D04F4A502AE7C349F0E8C34AF016D0EF
:10116800020E4F5C000E5058D8A001D001D00CD010
:10117800C80E4F5C000E5058D8B001D001D004D032
:10118800010E516E000157824F6A506AB10E4F5CD2
:10119800040E5058D8A001D001D001D0FF0050044F
:1011A800900ED8B44F18D8A401D001D004D0030EA3
:1011B800516E000157824F50C80A5010D8A401D070
:1011C80001D004D0020E516E00015782000157A6CB
:1011D80001D001D009D000015792516A0001F16B8A
:1011E8000001579600015998000159B801D001D063
:1011F80012D0000157A201D001D004D051C0F1F0A3
:101208000001579200015AAA01D001D004D0000170
:101218005A9A56C0F1F0000159B401D001D017D044
:10122800000157A001D001D012D00401280E532488
:10123800D96EDA6A040EDA224DC0DFFF532A0F0E88
:10124800536401D001D001D0536A000157900001C6
:101258005980E8C125F0E9C126F0EAC127F0EBC1C1
:1012680028F000015990000159AE01D001D0DED01C
:101278000001589A415004013C5D42503D59435089
:101288003E5944503F59D8B001D001D024D03550F0
:101298000101EC5F3650ED5B3750EE5B3850EF5B89
:1012A8003550EC5D3650ED593750EE593850EF59FE
:1012B800D8B001D001D060D040C4D0F341C4D1F33C
:1012C80042C4D2F343C4D3F3EC6BED6BEE6BEF6B1C
:1012D8000001599E51D039500101EC5D3A50ED5949
:1012E8003B50EE593C50EF59D8B001D001D01CD03A
:1012F8003550EC273650ED233750EE233850EF2386
:10130800EC51395CED513A58EE513B58EF513C588D
:10131800D8B001D001D008D039C0ECF13AC0EDF115
:101328003BC0EEF13CC0EFF1EC51395CED513A585D
:10133800EE513B58EF513C58D8B001D001D01CD0E9
:101348003550EC5F3650ED5B3750EE5B3850EF5B55
:101358003950EC5D3A50ED593B50EE593C50EF593D
:10136800D8B001D001D008D039C0ECF13AC0EDF1C5
:101378003BC0EEF13CC0EFF10101EC510301C8277D
:101388000101ED510301C9230101EE510301CA23F3
:101398000101EF510301CB230101EC510301C85DA9
:1013A8000101ED510301C9590101EE510301CA5967
:1013B8000101EF510301CB59D8B001D001D008D0B9
:1013C800010ECC27000ECD23000ECE23000ECF2316
:1013D800CBC341F0CCC342F0CDC343F0CEC344F0FD
:1013E800000159AE01D001D003D100015AA001D0AB
:1013F80001D00ED041503D5C0301D06F42503E58A1
:10140800D16F43503F58D26F44504058D36FF0D0FB
:101418003D5041240301D06F3E504220D16F3F50D0
:101428004320D26F40504420D36FE2D0000158AA25
:1014380001D001D02BD025500301D05D2B6E265052
:10144800D1592C6E2750D2592D6E2850D3592E6E53
:1014580025C0D0F326C0D1F327C0D2F328C0D3F3D8
:101468002BC008F02CC009F02DC00AF02EC00BF0DC
:101478000B340B320A32093208320850D05F095057
:10148800D15B0A50D25B0B50D35BB2D000015AA497
:1014980001D001D0ADD0000158A201D001D00AD0AE
:1014A8000001589244C439F045C43AF046C43BF0B0
:1014B80047C43CF039500101EC5D3A50ED593B50BE
:1014C800EE593C50EF59D8B001D001D020D00001DE
:1014D800588035500101EC273650ED233750EE2364
:1014E8003850EF23EC51395CED513A58EE513B58E6
:1014F800EF513C58D8B001D001D040D039C0ECF100
:101508003AC0EDF13BC0EEF13CC0EFF137D0EC5101
:10151800395CED513A58EE513B58EF513C58D8B030
:1015280001D001D029D00001588035500101EC5D6F
:101538003650ED593750EE593850EF59D8B001D0E0
:1015480001D005D0EC6BED6BEE6BEF6B08D035502E
:10155800EC5F3650ED5B3750EE5B3850EF5B39503F
:10156800EC5D3A50ED593B50EE593C50EF59D8B02C
:1015780001D001D003D0C2D7000158900101EC512D
:101588000301C8270101ED510301C9230101EE51EF
:101598000301CA230101EF510301CB230101EC51DF
:1015A8000301C85D0101ED510301C9590101EE5163
:1015B8000301CA590101EF510301CB59D8B001D039
:1015C80001D008D0010ECC27000ECD23000ECE236B
:1015D800000ECF23CBC341F0CCC342F0CDC343F0C0
:1015E800CEC344F000015AA001D001D011D702D7D0
:1015F800C4CF29F02A6A29502A6E296AC35029269D
:10160800000E2A22C2825B50295C1C6E5C502A584C
:101618001D6E040E086E1D341D321C32082EFBD7B9
:101628001C505B261D505C2229505B5C2A505C587C
:10163800D8B001D001D002D05B4A5C2A5B50295C4B
:101648005C502A58D8B001D001D003D05B06D8A08E
:101658005C06000158BE01D001D004D05BC0C8F2BE
:101668005CC0C9F20301D8515B5CD9515C58D8B051
:1016780001D001D002D00001598A25500401385DFB
:10168800236E26503959246E25C038F426C039F403
:1016980027C03AF428C03BF424AE01D001D004D0CE
:1016A800236C241ED8B0242A0301DCC301F0026A8B
:1016B80023C003F024C004F090EC3DF001C029F0F1
:1016C80002C02AF0DD512926000E2A22000E295CCC
:1016D800010E2A58D8A001D001D004D0000E2A6EDD
:1016E800FF0E296E5BC008F05CC009F0040E0A6E9C
:1016F800D890093208320A2EFBD708501E6EDAC37A
:1017080001F0DBC302F01EC003F0046A8AEC3AF071
:1017180001C01AF002C01BF029C001F02AC002F073
:101728001AC003F01BC004F090EC3DF001C01FF09C
:1017380002C020F0216A226A060E086ED890223272
:10174800213220321F32082EF9D72550D05D2B6E5A
:101758002650D1592C6E2750D2592D6E2850D35966
:101768002E6EF1C308F0F2C309F0000E09BEFF0E99
:101778000A6E0B6E0B50800A0C6E2B50085C2C50B6
:1017880009582D500A582E50800A0C58D8B001D04C
:1017980001D00ED023EEF1F0DECF2BF0DDCF2CF010
:1017A800000E2CBEFF0E2D6E2E6E0001598C37D008
:1017B80023EEF1F0DECF08F0DDCF09F0081E091E98
:1017C800084A092A08C00AF009C00BF0000E0BBE2F
:1017D800FF0E0C6E0D6E2E50800A0E6E0A502B5C9A
:1017E8000B502C580C502D580D50800A0E58D8B05C
:1017F80001D001D014D023EEF1F0DECF08F0DDCF18
:1018080009F0081E091E084A092A08C02BF009C059
:101818002CF0000E2CBEFF0E2D6E2E6EC6D74B5030
:101828002B5C186E4C502C58196E2BC04BF02CC0EA
:101838004CF0F3C301F0F4C302F02BC003F02CC04A
:1018480004F090EC3DF001C02FF002C030F0F5C379
:1018580001F0F6C302F018C003F019C004F090ECD0
:101868003DF001502F260250302230AE01D001D079
:1018780007D08B908A802F6C301ED8B0302A02D0C7
:101888008B808A902FC008F030C009F0000E09BE86
:10189800FF0E0A6E0B6E08501F5C095020580A5044
:1018A80021580B502258D8B001D001D004D01FC005
:1018B8002FF020C030F000015AA201D001D00CD086
:1018C8008B908A902F6A306A25C0D0F326C0D1F356
:1018D80027C0D2F328C0D3F33050800A7D0F850E7D
:1018E800D8B42F5CD8A001D001D004D0030E306E3C
:1018F800FF0E2F6E2F50FF082F6E3050D8A0E82A09
:101908000308306E303430322F32303430322F32D8
:101918002FC0BCFF17C0F5FF16C0F8FF15C0F7FFB2
:1019280014C0F6FF13C0DAFF12C0D9FF11C0E0FFE0
:1019380010C0E8FF0FC0D8FF100054EF34F00000CB
:10194800000000000000000000000000000000008F
:10195800000000000000000000000000000000007F
:10196800000000000000000000000000000000016E
:101978000203040506070809000000000000000A29
:101988000B0C0D0E0F000000000000000000000A04
:101998000B0C0D0E0F0000000000000000000000FE
:1019A800000000000000000000000000000000002F
:1019B80000000000000000000000000000003031BE
:1019C800323334353637383941424344454600FFCF
:1019D8000100010000FFFF0000010001FF004D4F62
:1019E800564520544F205A45524F204445475245AA
:1019F80045530000202020202020202020202020C7
:101A0800202020202020200000524F544154494FCC
:101A18004E20444952454354494F4E3A00005255CE
:101A28004E4E494E473A20542D48483A4D4D3A5368
:101A380053000054494D4520464F5220414C4C20FC
:101A48004F524249545300004359434C4520434F99
:101A5800554E543A303D494E462E00004457454CA9
:101A68004C204F4E20504F494E5420233030000018
:101A78004D415820574159504F494E5453204841E1
:101A8800564500004D4F564520544F204E4558545A
:101A980020504F494E54000045585445524E414C31
:101AA800204354524C204D4F444500004D4F564959
:101AB8004E4720544F20504F494E54202300002BAE
:101AC80058585858DF205448454E20434C49434BFA
:101AD800000041444420414E4F5448455220504F45
:101AE800494E543F0053504545443A2058582E58C3
:101AF80058DF2F536563000050524F4752414D2025
:101B0800454E44204D4F44453A0000434F554E54EE
:101B1800455220434C4F434B5749534500004457C7
:101B2800454C4C204F4E20504F494E542023000026
:101B38004D4F56494E4720544F204F524947494E22
:101B480000004241545445525920564F4C54414785
:101B5800453A00004D4F564520544F2053544152AA
:101B6800542E2E2E0000494E46494E4954452052C7
:101B7800554E54494D450000494E46494E49544535
:101B8800204359434C4553000054494D4520504586
:101B980052204F524249543A00004D4F56494E4741
:101BA80020544F205354415254000042415454454C
:101BB800525920564F4C5441474500004457454C14
:101BC8004C204F4E2053544152540000544F54411E
:101BD8004C2052554E54494D453A000054494D4504
:101BE80020504552204F5242495400004259204F3C
:101BF8005242495420434F554E54000043494E45E4
:101C0800464C5558204F52424954000042592054DE
:101C18004F54414C2054494D4500004F52424954BD
:101C28002052554E4E494E4700005448454E2043D9
:101C38004C49434B2E2E2E00005245414C54494DE1
:101C480045204D4F44450000574159504F494E5487
:101C5800204D4F4445000054524156454C205449AC
:101C68004D453A000050524553455420534C4F546B
:101C78003A00004F524249542053504545443A00D7
:101C8800004F52424954204C494D49543A00004EA5
:101C98004556455220454E44494E470000312E30A6
:101CA8002E31343030382E313500004558544552E5
:101CB8004E414C204D4F4445004457454C4C205410
:101CC800494D453A000053544F5050494E472E2E27
:101CD8002E00005448454E20434C49434B2E0000EB
:101CE80052554E2050524F4752414D000020524508
:101CF800562052454D41494E00005341564520500B
:101D080052455345540000474F20544F20534C45EB
:101D1800455000004C4F4F50204D4F44453F000068
:101D28004245454E20414444454400002D4F52420F
:101D380049542020202000002D454D505459202082
:101D4800202000002D574159504F494E5420000083
:101D58004F52424954204D4F4445000052554E20A1
:101D68005052455345540000505245534554203075
:101D78003100004F4E452D57415900004143544909
:101D88004F4E3A00004359434C45200000424F55FE
:101D98004E4345000020564F4C545300004D414ED1
:101DA80055414C00003C4E4F3E2000003C594553E5
:101DB8003E000053504545440000204F4620000097
:101DC8003C6D733E003C483E003C4D3E003C533E5B
:101DD80000001B0E9E6F1B0E9D6F1B0EA06F130E37
:101DE8009F6F9FC1B7F1A0C1B8F19DC1B9F19EC164
:101DF800BAF11D0EA26FA50EA16F1B0EA46FE90EFE
:101E0800A36F1A0EA66F400EA56FA1C1BFF1A2C1A4
:101E1800C0F1A3C1C1F1A4C1C2F1A5C1C3F1A6C15A
:101E2800C4F11B0EA86FF40EA76F1C0EAA6F140E38
:101E3800A96F1C0EAC6F970EAB6FA7C1B1F1A8C10B
:101E4800B2F1A9C1B3F1AAC1B4F1ABC1B5F1ACC14A
:101E5800B6F11C0EAE6FE80EAD6F1D0EB06F020E20
:101E6800AF6FADC1BBF1AEC1BCF1AFC1BDF1B0C187
:101E7800BEF141EC38F01B0E776F5C0E766FA4EC68
:101E88003CF0756B010EF5EC38F01C0E776FDB0E2D
:101E9800766FA4EC3CF00001588A1CEC3EF001017E
:101EA800C56FC5AF02D0C55112000001589AEFECBA
:101EB80032F0A6C0AEF0A7C0AFF0A8C0B0F0A9C07D
:101EC800B1F09EEC36F0AEC0CBF2AFC0CCF2010E52
:101ED8000001926FB70E916F010E936F1A0E956FF6
:101EE800110E946FCEC296F0FFEC37F00101C56F6A
:101EF800C529BFE0C551FE0A01E1FE0CC5C1CEF2FD
:101F0800010E0001926FB10E916F020E936F1B0EBE
:101F1800956F000E946FCDC296F0FFEC37F001017B
:101F2800C56FC529D4E0C551FE0AE7E0C5C1CDF2A9
:101F380000D2D3C289F0D4C28AF0D5C28BF0D6C2FF
:101F48008CF000018D6B8E6B800E8F6F3F0E906F43
:101F580019EC3AF007E20201D36BD46B800ED56F0F
:101F68003F0ED66F0001896BC00E8A6F790E8B6F9A
:101F7800440E8C6FD3C28DF0D4C28EF0D5C28FF0D0
:101F8800D6C290F019EC3AF008E20201D36BC00E09
:101F9800D46F790ED56F440ED66F1C0E0001C86F32
:101FA800890EC76F1A0ECA6F100EC96F020ECC6F5A
:101FB800D30ECB6FCD6BCE6B800ECF6F3F0ED06F35
:101FC800D16BC00ED26F790ED36F440ED46FD56B20
:101FD800D66B800ED76F3F0ED86F88EC21F00101C9
:101FE800C56FC5298DE0C551FE0A87E00001896BE0
:101FF8008A6B800E8B6F3F0E8C6FD3C28DF0D4C26C
:102008008EF0D5C28FF0D6C290F019EC3AF010E2FB
:10201800010E0001926FBF0E916F020E936F1C0E9E
:10202800956F7B0E946FDFC296F0FFEC37F003D00C
:1020380031DAFFEC37F00101C56FC52901E179D725
:10204800C551FE0A01E159D7A4D0E8D919EC3AF0F4
:1020580001E22EDAAAD988EC21F00101C56FC52961
:10206800C5E0C551FE0A01E148D76CD1F3D919EC96
:102078003AF001E236DA1B0E0001DC6FE40EB9D942
:1020880081EC1DF00101C56FC529B0E0C551FE0AFC
:1020980001E133D7EFD943EC36F03DD1D7C289F00F
:1020A800D8C28AF0D9C28BF0DAC28CF000017E6BFC
:1020B8007F6B800E806F400E816FD3C27AF0D4C2DE
:1020C8007BF0D5C27CF0D6C27DF0C4EC34F07AC087
:1020D8008DF07BC08EF07CC08FF07DC090F019EC45
:1020E8003AF00BE2EFD9C4EC34F07AC0D7F27BC0F7
:1020F800D8F27CC0D9F27DC0DAF2E4D9C4EC34F06D
:102108007AC099F17BC09AF17CC09BF17DC09CF1AB
:102118001A0EDC6F3B0EDB6F020E0001DE6FD70E6E
:10212800DD6F99C1DFF09AC1E0F09BC1E1F09CC17D
:10213800E2F086D981EC1DF00101C56FC52901E1E6
:1021480055D7C551FE0A01E1D8D600017E6B7F6BD9
:10215800B40E806F430E816FD3C27AF0D4C27BF085
:10216800D5C27CF0D6C27DF0C4EC34F07AC089F0D8
:102178007BC08AF07CC08BF07DC08CF0D7C28DF01C
:10218800D8C28EF0D9C28FF0DAC290F043EC36F0A4
:10219800C2D0C55101E159D7010A01E167D7030A45
:1021A80001E17CD7CFD01B0E0001DC6FD40EDB6FB2
:1021B800020EDE6FCF0EDD6FDF6BE06B800EE16F1E
:1021C8003F0EE26F3DD981EC1DF00101C56FC529B5
:1021D80001E196D6C551FE0A01E18FD65BD9FFEC25
:1021E80037F00101C56FC529DEE0C551FE0A01E1DE
:1021F80084D631D013D919EC3AF001E259D9D5D89F
:1022080088EC21F00101C56FC529E8E0C551FE0A37
:1022180001E173D624D01ED919EC3AF001E261D954
:102228001B0E0001DC6F910EE4D881EC1DF001015A
:10223800C56FC529D3E0C551FE0A01E15ED61AD99A
:1022480043EC36F089C0DBF28AC0DCF28BC0DDF2E9
:102258008CC0DEF204D0C551CDE0010ADCE0CFC26B
:102268007EF0D0C27FF0D1C280F0D2C281F0DBC252
:102278007AF0DCC27BF0DDC27CF0DEC27DF0C4EC1B
:1022880034F07AC089F07BC08AF07CC08BF07DC0C6
:102298008CF08D6B8E6BB40E8F6F430E906F43EC8A
:1022A80036F089C0D3F28AC0D4F28BC0D5F28CC084
:1022B800D6F248D0EFD8FFEC37F00101C56FC52939
:1022C80001E11ED6C551FE0A01E117D62DD0A6D8C8
:1022D80019EC3AF001E2ECD868D888EC21F0010159
:1022E800C56FC529E7E0BDD6B5D819EC3AF001E2CB
:1022F800F8D81B0E0001DC6F910E7BD881EC1DF025
:102308000101C56FC529D6E0C551FE0A01E1F5D521
:10231800B1D843EC36F089C0DBF28AC0DCF28BC05E
:10232800DDF28CC0DEF20ED0C551D1E0010ADCE04E
:1023380009D00201CD5101E1FCD5010A01E133D7F1
:10234800030AB8E0010E0001926FBB0E916F010EF7
:10235800936F1D0E956F840E946F000E966BFFECB5
:1023680037F00101C56FC52901E1E3D5C551FE0A62
:1023780001E1C3D5C56702D05CEF23F0E7EC35F087
:102388000101C56FC529DEE0C551FE0A01E1B5D5D9
:10239800020E0201CA6F020E0001746FCA0E736F3B
:1023A8000101C55120EC3DF0CDD71D0E0001C86FCD
:1023B800BB0EC76F1A0ECA6FF90EC96F020ECC6F2B
:1023C800DB0ECB6F0A0ECD6FD70ECE6F230ECF6FFD
:1023D8003C0ED06FD16BD26BB40ED36F420ED46F5C
:1023E8000A0ED56FD70ED66F230ED76F3C0ED86F57
:1023F8003C0CDB6F020EDE6FD70EDD6FDF6BE06B20
:10240800800EE16F400EE26FE36BC00EE46FA80E22
:10241800E56F470EE66F0E0EE76F0E0CDBC289F014
:10242800DCC28AF0DDC28BF0DEC28CF00A0E00013D
:102438008D6FD70E8E6F230E8F6F3C0E906F3C0CF6
:10244800E36BC00EE46FA80EE56F470EE66F0E0E45
:10245800E76F0E0CD7C289F0D8C28AF0D9C28BF0C8
:10246800DAC28CF000018D6B8E6B800E8F6F400E80
:10247800906F400C0001896B8A6BB40E8B6F430E12
:102488008C6FD7C28DF0D8C28EF0D9C28FF0DAC265
:1024980090F0430C010E0001926FBF0E916F010E78
:1024A800936F1C0E956F7B0E946FDFC296F012002F
:1024B8000A0E0201DB6FD70EDC6F230EDD6F3C0EB8
:1024C800DE6F3C0CD3C27AF0D4C27BF0D5C27CF06C
:1024D800D6C27DF07E6B7F6B800E806F400E816F61
:1024E800400C0201D76BD86B800ED96F400EDA6FA3
:1024F800400CA56BA66BA76BA86BAA6BAB6BAC6B00
:10250800AD6BAE6BAF6BB06BB16BB26BB36BF9DA33
:10251800BC6BBD6BBE6BBF6BC06BC16BB46BB56B7B
:10252800B66BB76BA96BC66B04014B6B1D0E010133
:10253800966F7B0E956F1D0E986F950E976F95C1D0
:102548009DF196C19EF197C19FF198C1A0F11C0E13
:102558009A6FE80E996F1D0E9C6F020E9B6F99C1C2
:10256800A1F19AC1A2F19BC1A3F19CC1A4F1C9DA5E
:10257800B26BB36BAE6BAF6BB06BB16BAA6BAB6B83
:10258800AC6BAD6BBE6BBF6BC06BC16BC66B41EC0C
:1025980038F01B0E776F5C0E766FA4EC3CF0756B11
:1025A800010EF5EC38F01C0E776FDB0E766FA4EC9D
:1025B8003CF00001588A1CEC3EF00101C76FC7AF20
:1025C80002D0C75112000001589AEFEC32F0A6C0B1
:1025D800AEF0A7C0AFF0A8C0B0F0A9C0B1F09EECB3
:1025E80036F0AEC049F4AFC04AF492EC39F08FC06F
:1025F800A5F190C0A6F191C0A7F192C0A8F11C0E58
:10260800DC6FC10EDB6F010E00016BDA81EC1DF08F
:102618000101C76FC751FE0A01E1FE0CC729A7E0F7
:10262800BEC1AEF0BFC1AFF0C0C1B0F0C1C1B1F022
:102638009EEC36F0AEC097F4AFC098F4CAD141EC26
:1026480038F01A0E776F8C0E766FA4EC3CF0756B31
:10265800010EF5EC38F01A0E776FC70E766FA4EC02
:102668003CF0588A578602D004EC25F0000157B692
:10267800FBD70101C76B93D004EC25F092EC39F03D
:102688008FC0AAF190C0ABF191C0ACF192C0ADF18E
:10269800AAC198F0ABC199F0ACC19AF0ADC19BF05A
:1026A800A5C19CF0A6C19DF0A7C19EF0A8C19FF04E
:1026B80087EC3CF098C0AEF199C0AFF19AC0B0F188
:1026C8009BC0B1F1AEC1AEF0AFC1AFF0B0C1B0F0D8
:1026D800B1C1B1F09EEC36F0AEC0B2F1AFC0B3F10B
:1026E800756B010EF5EC38F0B2C179F00001B3C199
:1026F8007AF0000E7ABFFF0E7B6F7C6F040E7D6F41
:10270800010E7E6F7EEC26F05988F1C0C7F159980A
:102718000101C751030A03E10001589AFE0CC75191
:10272800020A07E1589A0101C66701D020D7C607F7
:1027380086D7C751050A18E15786589A0101306BA8
:10274800316B800E326FBF0EE5D9BEEC3CF002D083
:1027580004EC25F0000159BEFBD7588A02D004ECDE
:1027680025F0000157B6FBD70101C751040A17E14C
:102778005786589A306B316B800E326F3F0ECAD92C
:10278800BEEC3CF002D004EC25F0000159BEFBD7AA
:10279800588A02D004EC25F0000157B6FBD7010196
:1027A800C70501E069D7589AC651020D4F0EF324A8
:1027B800D96EDA6A040EDA22B2C1DEFFB3C1DDFFD8
:1027C800AEC1B7F0AFC1B8F0B0C1B9F0B1C1BAF09D
:1027D800F7EC27F0B7C0C2F1B8C0C3F1B9C0C4F173
:1027E800BAC0C5F1C2C1AEF0C3C1AFF0C4C1B0F048
:1027F800C5C1B1F09EEC36F0AEC0BCF1AFC0BDF1C2
:10280800010E0001A16FC20EA06FBCC175F0BDC161
:1028180076F0A6EC3DF075C0A2F076C0A3F077C0C4
:10282800A4F078C0A5F043EC3BF0000E896B8A6BEE
:102838008B6B8C6BC2C18DF0C3C18EF0C4C18FF09D
:10284800C5C190F019EC3AF00DE2010E0101BC256A
:102858000001756F000E0101BD210001766FA6EC25
:102868003DF006D0BCC175F0BDC176F0A6EC3DF0D8
:1028780075C0C2F176C0C3F177C0C4F178C0C5F1A4
:102888001C0E0001DC6F5F0EDB6F010EDE6FB80EF1
:10289800DD6FC2C1DFF0C3C1E0F0C4C1E1F0C5C162
:1028A800E2F0E36BE4697F0EE56F470EE66F0E0E0C
:1028B800E76F81EC1DF00101C76FC751FE0A01E106
:1028C800ACD6C72901E1BBD6B8C1AEF0B9C1AFF0EB
:1028D800BAC1B0F0BBC1B1F09EEC36F00101C651EF
:1028E800020D730EF324D96EDA6A040EDA22AEC032
:1028F800DEFFAFC0DDFF1C0E0001DC6FC10EDB6F19
:10290800010EEFD881EC1DF00101C76FC751FE0A17
:1029180001E183D6C729B4E0BEC1AEF0BFC1AFF0B4
:10292800C0C1B0F0C1C1B1F09EEC36F00101D89041
:10293800C6350001E86F990EE825D96EDA6A040EEB
:10294800DA22AEC0DEFFAFC0DDFF0101C651800A4A
:102958006F0F21E21A0E0001926FDA0E916F010ECD
:10296800936FEDEC36F00101C76FC751FE0A01E124
:1029780054D6C729C0E0C76702D0010EA96FC705A2
:1029880028E1C62BAAC1A5F1ABC1A6F1ACC1A7F13C
:10299800ADC1A8F154D641EC38F01A0E776F780E15
:1029A800766FA4EC3CF0756B010EF5EC38F01D0E5B
:1029B800776F280E766FA4EC3CF01CEC3EF001011A
:1029C800C76FC751FE0A01E128D6C72994E0010E56
:1029D800A96F0101A95101E132D6C6C14BF4010E1C
:1029E8000001926F9D0E916F010E936F1D0E956FF2
:1029F8001C0E946F4CC496F0FFEC37F00101C76FC2
:102A0800C72901E178D7C751FE0A01E106D6C7C137
:102A18004CF41A0E0001C86F500EC76F1B0ECA6F18
:102A2800880EC96F010ECC6FB40ECB6FCD6BCE6B19
:102A3800CF6BD06BD16BC00ED26F790ED36F440EB3
:102A4800D46FD56BD66B800ED76F3F0ED86F88ECDE
:102A580021F00101C76FC729C2E0C751FE0A01E191
:102A6800DCD5B4C1AEF0B5C1AFF0B6C1B0F0B7C1F6
:102A7800B1F09EEC36F0AEC04DF4AFC04EF4010E8E
:102A88000001926FA10E916F010E936F1D0E956F4D
:102A9800840E946F000E966BFFEC37F00101C76F40
:102AA800C729B7E0C751FE0A01E1B7D5C76702D009
:102AB8008DEF18F0E7EC35F00101C76FC729DFE0AB
:102AC800C751FE0A01E1A9D5010E0401486F040EA1
:102AD8000001746F480E736F0101C75120EC3DF07F
:102AE800CED7DE6FBE0EDD6FDF6BE06BE16BE26BA6
:102AF800E36BE4697F0EE56F470EE66F0E0EE76F36
:102B08000E0CB86BB96BBA6BBB6BC26BC36BC46B87
:102B1800C56B1200336F346B356BB40E366F420ED3
:102B2800376F420C536B526B57880101546B4D6BD6
:102B380041EC38F01C0E776FB30E766FA4EC3CF0C6
:102B48000DEC3EF0D76FD751030A54E100015798B6
:102B58001200599E589A5A9458D05A840401446BCA
:102B6800456B466B476B588258B002D00101546BD5
:102B780059BE03D0010E0101546F59BE46D0010160
:102B88005351BFDA0001DECF71F0DDCF72F0E6EC11
:102B98003DF00101532B040E2BD05AB836D0010159
:102BA8005251536302D0010E23D05351A2DA0001CF
:102BB800DECF75F0DDCF76F02DEC3CF075C04EF130
:102BC80076C04FF177C050F178C051F101015351EF
:102BD80088DA0001DECF75F0DDCF76F0A6EC3DF0A7
:102BE80059DABEEC2AF03DDABEEC3CF0030E0101E6
:102BF800546F0BD001015451ACE0010AAEE0030A56
:102C0800B7E0010ABAE0070AC8E0000157AE98D752
:102C1800010E0001EF6F0001579E68EC3BF00101C7
:102C2800F5198EE168EC3BF00101556F04D268ECB0
:102C38003BF00101596F68EC3BF00101586F68ECFB
:102C48003BF00101576F68EC3BF00101566F56C12C
:102C580038F157C139F158C13AF159C13BF168EC23
:102C68003BF00101596F68EC3BF00101586F68ECCB
:102C78003BF00101576F68EC3BF00101566F56C1FC
:102C88003CF157C13DF158C13EF159C13FF168ECE3
:102C98003BF00101596F68EC3BF00101586F68EC9B
:102CA8003BF00101576F68EC3BF00101566F56C1CC
:102CB80040F157C141F158C142F159C143F1010EE8
:102CC8004D6F55514EEC3DF03BD74D6708D0010E86
:102CD80000016D6F01015551EDEC3BF031D75451B6
:102CE80008E0020E00016D6F01015551EDEC3BF05B
:102CF80027D738C1B8F039C1B9F03AC1BAF03BC1E9
:102D0800BBF03CC1BCF03DC1BDF03EC1BEF03FC10F
:102D1800BFF040C1C0F041C1C1F042C1C2F043C1DF
:102D2800C3F070EC1BF001014D6B020E546F55514E
:102D38004EEC3DF005D7545102E0010E546F555149
:102D48004EEC3DF0FDD6F46B05EC3CF0240EDF6E46
:102D5800F42B55518AEC3BF054518AEC3BF04D5121
:102D68008AEC3BF0B6EC39F065EC3AF075C056F1F8
:102D780076C057F177C058F178C059F15990A3D966
:102D88001EEC3BF0010159518AEC3BF058518AEC9A
:102D98003BF057518AEC3BF056518AEC3BF0566BAE
:102DA800576B586B596B12D0ECC175F0EDC176F0CA
:102DB800EEC177F0EFC178F0F1EC3CF075C056F158
:102DC80076C057F177C058F178C059F1ECC175F069
:102DD800EDC176F0EEC177F0EFC178F0F1EC3CF0A0
:102DE80001015951000178190EE101015851000102
:102DF800771909E1010157510001761904E1010130
:102E0800565100017519D0E1010E00018A6F560E66
:102E1800896F8B6B8C6BFA0E8D6F370E8E6F1EEC75
:102E28003BF051D91EEC3BF0010159518AEC3BF0C3
:102E380058518AEC3BF057518AEC3BF056518AECDA
:102E48003BF000015986F0C175F0F1C176F0F2C18E
:102E580077F0F3C178F0F1EC3CF075C056F176C02C
:102E680057F177C058F178C059F15996010E000111
:102E78008A6F560E896F6F0E8B6F120E8C6F030E52
:102E88008D6F3B0E8E6F1EEC3BF0010159518AECA1
:102E98003BF058518AEC3BF057518AEC3BF05651C5
:102EA8008AEC3BF00001588EC8C275F0C9C276F0B2
:102EB800A6EC3DF075C056F176C057F177C058F1D1
:102EC80078C059F1589E010E00018A6F560E896F1D
:102ED800E2C38BF0E3C38CF0E4C38DF0E5C38EF05E
:102EE8001EEC3BF0010159518AEC3BF058518AEC39
:102EF8003BF057518AEC3BF056518AEC3BF005EC1D
:102F08003CF0230EDF6EF42BF4C144F1F46B44C1A2
:102F1800F0F016D65451030A03E05451040A08E1AC
:102F2800010E00016D6F01015551EDEC3BF008D623
:102F3800536B526B55514EEC3DF002D65451030A77
:102F480003E05451040A08E1010E00016D6F01010C
:102F58005551EDEC3BF0F4D5630E526508D0020EE6
:102F680000016D6F01015551EDEC3BF0E9D568ECBE
:102F78003BF00101576F68EC3BF00101566F52516D
:102F8800B8D856C1DEFF57C1DDFF68EC3BF0010140
:102F9800576F68EC3BF00101566F5251A2D856C1E9
:102FA800DEFF57C1DDFF68EC3BF00101576F68ECAD
:102FB8003BF00101566F5251A4D856C1DEFF57C1EC
:102FC800DDFF55514EEC3DF00101522BB9D554515E
:102FD80008E0010E00016D6F01015551EDEC3BF069
:102FE800AFD5536B00C375F001C376F02DEC3CF000
:102FF80075C04EF176C04FF177C050F178C051F1ED
:1030080000C775F001C776F0A6EC3DF043D8BEECDA
:103018002AF027D8BEEC3CF0030E0101546F55513D
:103028004EEC3DF08DD5FE0E00016D6F010155513E
:10303800EDEC3BF085D55551600A01E1F8D5010A60
:1030480001E143D6030A01E176D6010A01E17BD604
:10305800070A01E15FD7010A01E170D7030AB7E067
:10306800E2D7B7C045F1B8C046F1B9C047F1BAC018
:1030780048F14EC130F14FC131F150C132F151C167
:1030880033F145C134F146C135F147C136F148C184
:1030980037F1120075C049F176C04AF177C04BF19B
:1030A80078C04CF14EC1B7F04FC1B8F050C1B9F07B
:1030B80051C1BAF049C1BBF04AC1BCF04BC1BDF027
:1030C8004CC1BEF01200010E00018A6F560E896FC6
:1030D800FBC38BF0FCC38CF0FDC38DF0FEC38EF0F8
:1030E8001200020D000EF324D96EDA6A070EDA22F6
:1030F8001200020D000EF324D96EDA6A030EDA22EA
:103108001200020D000EF324D96EDA6A020EDA22DA
:10311800120001018F6B906B926B010E916F41EC65
:1031280038F01B0E776FA20E766FA4EC3CF049C402
:1031380075F04AC476F0A6EC3DF0DDEC24F06AECBC
:1031480029F00CD004EC25F00DEC3EF00101936F52
:103158009351030A03E1010E8F6F6BD2000159BE30
:10316800F1D741EC38F01B0E776FC40E766FA4ECE4
:103178003CF097C471F098C472F0E6EC3DF009D0C9
:1031880004EC25F00DEC3EF00101936F9351030A16
:10319800E2E000015AB8F4D70101905103E04BC4B2
:1031A80094F19BD1946B99D19451020D4F0EF32455
:1031B800D96EDA6A040EDA220001DECF75F0DDCFAF
:1031C80076F02DEC3CF075C08BF176C08CF177C0B1
:1031D8008DF178C08EF101019451020D730EF32424
:1031E800D96EDA6A040EDA220001DECF75F0DDCF7F
:1031F80076F0A6EC3DF075C07FF176C080F177C01F
:1032080081F178C082F18BC1B7F08CC1B8F08DC163
:10321800B9F08EC1BAF07FC1BBF080C1BCF081C1EA
:10322800BDF082C1BEF0BEEC2AF0B7C087F1B8C0CD
:1032380088F1B9C089F1BAC08AF10101905101E160
:10324800AFD041EC38F01A0E776FB40E766FA4EC5D
:103258003CF034DA7EEC26F0756B010EF5EC38F0B4
:1032680004014E514D1108E11B0E0001776F800ECD
:10327800766FA4EC3CF013D01D0E0001776F8D0E15
:10328800766FA4EC3CF0FAD97EEC26F01D0E776F31
:10329800C20E766FA4EC3CF0E6D97EEC26F08BC12A
:1032A8006BF08CC16CF08DC16DF08EC16EF0FAECD4
:1032B8003DF06BC083F16CC084F16DC085F16EC0C8
:1032C80086F183C130F184C131F185C132F186C103
:1032D80033F187C134F188C135F189C136F18AC12A
:1032E80037F1BEEC3CF00AD004EC25F00DEC3EF0D2
:1032F8000101936F9351030A01E12DD7000159BED3
:10330800F3D741EC38F01B0E776F260E766FA4ECDE
:103318003CF0D4D97EEC26F0756B010EF5EC38F054
:1033280004014E514D1108E11B0E0001776F800E0C
:10333800766FA4EC3CF013D01D0E0001776F8D0E54
:10334800766FA4EC3CF09AD97EEC26F01D0E776FD0
:10335800C20E766FA4EC3CF086D97EEC26F0010113
:103368009451020D970EF324D96EDA6A040EDA220C
:103378000001DECF71F0DDCF72F0E6EC3DF00AD04F
:1033880004EC25F00DEC3EF00101936F9351030A14
:1033980001E1E1D600015AB8F3D7010194079DD0A5
:1033A80041EC38F01A0E776FB40E766FA4EC3CF04F
:1033B80070D97EEC26F0756B010EF5EC38F004013F
:1033C8004E514D1108E11B0E0001776F800E766F8C
:1033D800A4EC3CF013D01D0E0001776F8D0E766FB4
:1033E800A4EC3CF04BD97EEC26F01D0E776FC20E94
:1033F800766FA4EC3CF037D97EEC26F08BC130F127
:103408008CC131F18DC132F18EC133F187C134F1F4
:1034180088C135F189C136F18AC137F1BEEC3CF07B
:103428000AD004EC25F00DEC3EF00101936F9351A6
:10343800030A01E190D6000159BEF3D741EC38F0F8
:103448001B0E776F260E766FA4EC3CF022D97EEC2B
:1034580026F0756B010EF5EC38F004014E514D1154
:1034680008E11B0E0001776F800E766FA4EC3CF02C
:1034780013D01D0E0001776F8D0E766FA4EC3CF013
:10348800FDD87EEC26F01D0E776FC20E766FA4EC89
:103498003CF0E9D87EEC26F00101D8909435000183
:1034A800E06F990EE025D96EDA6A040EDA22DECFD3
:1034B80071F0DDCF72F0E6EC3DF00AD004EC25F0B7
:1034C8000DEC3EF00101936F9351030A01E143D6DD
:1034D80000015AB8F3D70101942B94BF0BD0040113
:1034E8004B51D880D884010194AF945DD8A0D8847A
:1034F80001E15AD604014C5107E001019051010E37
:10350800D8A4000E906F84D00101906B41EC38F084
:103518001B0E776F380E766FA4EC3CF0756B010EBE
:10352800F5EC38F004014E514D1108E11B0E000175
:10353800776F800E766FA4EC3CF013D01D0E00015F
:10354800776F8D0E766FA4EC3CF098D87EEC26F061
:103558001D0E776FC20E766FA4EC3CF084D87EEC1B
:1035680026F049C475F04AC476F0A6EC3DF0DDECCF
:1035780024F06AEC29F00AD004EC25F00DEC3EF0BA
:103588000101936F9351030A01E1E5D5000159BE8A
:10359800F3D741EC38F01A0E776F640E766FA4EC0F
:1035A8003CF0756B010EF5EC38F004014E514D11ED
:1035B80008E11B0E0001776F800E766FA4EC3CF0DB
:1035C80013D01D0E0001776F8D0E766FA4EC3CF0C2
:1035D80055D87EEC26F01D0E776FC20E766FA4ECE0
:1035E8003CF041D87EEC26F097C471F098C472F094
:1035F800E6EC3DF00AD004EC25F00DEC3EF00101BC
:10360800936F9351030A01E1A6D500015AB8F3D785
:1036180004014E514D1101E1BFD50101914B922B8F
:10362800915104014D5D0101925104014E5901E38C
:10363800B3D5599E0001588A41EC38F01C0E776FBB
:10364800CE0E766FA4EC3CF004EC25F0599E588A17
:10365800010E0001916FF40E906F2AEC3EF0589A1B
:1036680001018F5112004DC479F000014EC47AF067
:103678007B6B7C6B030E7D6F7E6B000C91C179F0C8
:10368800000192C17AF07B6B7C6B030E7D6F7E6BC1
:10369800000C94C1E0F00001E16BE0BFE107E02B12
:1036A800000EE123E0C079F0E1C07AF07ABFFF0EA6
:1036B8007B6F7C6F020E7D6F7E6B000C0101945155
:1036C8000001796F000E79BFFF0E7A6F7B6F7C6FF8
:1036D800020E7D6F7E6B000C000159BEFF0C0001CD
:1036E800BFAF13D0BCC06BF0BDC06CF0BEC06DF0F6
:1036F800BFC06EF0FAEC3DF06BC01CF16CC01DF160
:103708006DC01EF16EC01FF108D0BCC01CF1BDC059
:103718001DF1BEC01EF1BFC01FF1C3AF13D0C0C0A2
:103728006BF0C1C06CF0C2C06DF0C3C06EF0FAECB3
:103738003DF06BC024F16CC025F16DC026F16EC060
:1037480027F108D0C0C024F1C1C025F1C2C026F1BC
:10375800C3C027F1B8C07EF0B9C07FF0BAC080F00E
:10376800BBC081F0F7C37AF0F8C37BF0F9C37CF0F3
:10377800FAC37DF0C4EC34F07AC0AEF07BC0AFF091
:103788007CC0B0F07DC0B1F09EEC36F0AEC014F154
:10379800AFC015F1B0C016F1B1C017F10101175152
:1037A80014111511161101E1000C5980E8C110F12E
:1037B800E9C111F1EAC112F1EBC113F1599001010C
:1037C800145110250401406F010115511121040104
:1037D800416F0101165112210401426F0101175175
:1037E80013210401436F10C13DF011C13EF012C115
:1037F8003FF013C140F00001BBAF15D0B8C06BF06B
:10380800B9C06CF0BAC06DF0BBC06EF0FAEC3DF018
:103818006BC028F16CC029F16DC02AF16EC02BF184
:1038280000015A800AD0B8C028F1B9C029F1BAC03D
:103838002AF1BBC02BF100015A901CC189F01DC1AF
:103848008AF01EC18BF01FC18CF024C18DF025C1F8
:103858008EF026C18FF027C190F043EC36F089C076
:1038680018F18AC019F18BC01AF18CC01BF118C16C
:103878007EF019C17FF01AC180F01BC181F024C10C
:103888007AF025C17BF026C17CF027C17DF0C4EC1D
:1038980034F07AC02CF17BC02DF17CC02EF17DC0B4
:1038A8002FF118C17EF019C17FF01AC180F01BC139
:1038B80081F02CC17AF02DC17BF02EC17CF02FC194
:1038C8007DF0C4EC34F07AC00CF17BC00DF17CC003
:1038D8000EF17DC00FF10CC17AF00DC17BF00EC165
:1038E8007CF00FC17DF07E6B7F6B806B3F0E816F2C
:1038F800C4EC34F07AC020F17BC021F17CC022F105
:103908007DC023F128C189F029C18AF02AC18BF032
:103918002BC18CF07E6B7F6B806B400E816F20C15A
:103928007AF021C17BF022C17CF023C17DF0C4EC88
:1039380034F07AC08DF07BC08EF07CC08FF07DC0F3
:1039480090F019EC3AF017E228C189F029C18AF001
:103958002AC18BF02BC18CF08D6B8E6B8F6B400E58
:10396800906F43EC36F089C020F18AC021F18BC0FA
:1039780022F18CC023F120C19CF021C19DF022C10D
:103988009EF023C19FF028C198F029C199F02AC15F
:103998009AF02BC19BF087EC3CF098C07AF099C064
:1039A8007BF09AC07CF09BC07DF0F7C37EF0F8C333
:1039B8007FF0F9C380F0FAC381F0C4EC34F07AC028
:1039C80000F17BC001F17CC002F17DC003F100C1B0
:1039D800AEF001C1AFF002C1B0F003C1B1F09EEC8E
:1039E80036F0AEC03CF4AFC03DF4B0C03EF4B1C058
:1039F8003FF424C17EF025C17FF026C180F027C1A5
:103A080081F0F7C37AF0F8C37BF0F9C37CF0FAC30E
:103A18007DF0C4EC34F060D8BD0E7E6F370E7F6F3A
:103A2800860E806F420E816FC4EC34F07AC004F1C8
:103A38007BC005F17CC006F17DC007F104C1AEF082
:103A480005C1AFF006C1B0F007C1B1F09EEC36F089
:103A5800AEC035F0AFC036F0B0C037F0B1C038F006
:103A68001CC17EF01DC17FF01EC180F01FC181F016
:103A7800F7C37AF0F8C37BF0F9C37CF0FAC37DF0A2
:103A8800C4EC34F029D86F0E7E6F120E7F6F030ED0
:103A9800806F470E816FC4EC34F07AC008F17BC0A8
:103AA80009F17CC00AF17DC00BF108C1AEF009C173
:103AB800AFF00AC1B0F00BC1B1F09EEC36F0AEC069
:103AC80039F0AFC03AF0B0C03BF0B1C03CF02AECDE
:103AD80021F00001598E000C7AC02CF17BC02DF129
:103AE8007CC02EF17DC02FF12CC17AF02DC17BF066
:103AF8002EC17CF02FC17DF01200DDC0D9FFDEC0E1
:103B0800DAFFDECF84F1DECF85F1DECF86F1DECFBE
:103B180087F184C1B8F085C1B9F086C1BAF087C110
:103B2800BBF0010E0001BD6F830EBC6F010EBF6FAD
:103B3800820EBE6F010EC16F810EC06F010EC36F82
:103B48007F0EC26FFEEC2EF0E7B702D00101836B47
:103B58000001E7B502D00101826B0001E7B302D092
:103B68000101816B0001E7B103D001017F6B806B1C
:103B780082C18FF081C190F07FC191F080C192F035
:103B880001018351CEEC31F08FC084F190C085F1F2
:103B980091C086F192C087F17CD919EC3AF001E224
:103BA8009AD988D919EC3AF001E29ED9E7A754D0FE
:103BB80041EC38F0DBC076F0DCC077F0A4EC3CF0E8
:103BC8001D0E776FCD0E766FA4EC3CF0756B010E71
:103BD800F5EC38F0190E776FFC0E766FA4EC3CF01C
:103BE800756B010EF5EC38F084C1D0F085C1D1F0C9
:103BF80086C1D2F087C1D3F0E7C0D4F0080ED56FE4
:103C080066EC32F01CD0FF0CFE0C7FD9610E8D6F74
:103C1800450E8E6FF9EC3AF04DD919EC3AF0E0E226
:103C280063D9DED76AD9610EA46F450EA56F43EC40
:103C38003BF02FD919EC3AF0D3E24DD9D1D764EC47
:103C48003DF0010A09E0030ADEE0010ADDE0070AA7
:103C5800DCE0010AE7E0C4D7E7A553D041EC38F02F
:103C6800DBC076F0DCC077F0A4EC3CF01D0E776F7B
:103C7800D10E766FA4EC3CF0756B010EF5EC38F0C4
:103C8800190E776FFC0E766FA4EC3CF0756B010E85
:103C9800F5EC38F084C1D0F085C1D1F086C1D2F0FE
:103CA80087C1D3F0E7C0D4F0040ED56F66EC32F0CC
:103CB8001AD02BD9700E8D6F420E8E6FF9EC3AF038
:103CC800F9D819EC3AF0E2E20FD9E0D716D9700E1C
:103CD800A46F420EA56F43EC3BF0DBD819EC3AF029
:103CE800D5E2F9D8D3D764EC3DF0010A0AE0030A1B
:103CF80001E15CD7010A88E0070ADBE0010AE6E097
:103D0800C5D7E7A354D041EC38F0DBC076F0DCC06F
:103D180077F0A4EC3CF01D0E776FD50E766FA4EC0F
:103D28003CF0756B010EF5EC38F0190E776FFC0E50
:103D3800766FA4EC3CF0756B010EF5EC38F084C19D
:103D4800D0F085C1D1F086C1D2F087C1D3F0E7C0E9
:103D5800D4F0020ED56F66EC32F01AD0D6D8800EA9
:103D68008D6F3F0E8E6FF9EC3AF0A4D819EC3AF04B
:103D7800E2E2BAD8E0D7C1D8800EA46F3F0EA56F93
:103D880043EC3BF086D819EC3AF0D5E2A4D8D3D767
:103D980064EC3DF0010A0BE0030A01E15DD7010A7A
:103DA80001E132D7070ADAE0010AE5E0C4D7E7A162
:103DB80062D041EC38F0DBC076F0DCC077F0A4ECE0
:103DC8003CF01D0E776FC80E766FA4EC3CF0756B57
:103DD800010EF5EC38F0190E776FFC0E766FA4EC37
:103DE8003CF0756B010EF5EC38F084C1D0F085C15C
:103DF800D1F086C1D2F087C1D3F0E7C0D4F0010E6C
:103E0800D56F66EC32F028D0010E00018A6F840E5F
:103E1800896FCD0E8B6FCC0E8C6F8D6F3D0E8E6FB4
:103E2800F9EC3AF047D819EC3AF0DBE25DD8D9D78B
:103E3800010E0001A16F840EA06FCD0EA26FCC0EF3
:103E4800A36FA46F3D0EA56F43EC3BF022D819EC8D
:103E58003AF0C7E240D8C5D764EC3DF0010A0BE060
:103E6800030A01E14ED7010A01E1CED6070ACCE0E8
:103E7800010ADEE0B6D7DDC0D9FFDEC0DAFF0101F6
:103E880084C1DEFF85C1DEFF86C1DEFF87C1DEFF9C
:103E9800000C84C189F085C18AF086C18BF087C186
:103EA8008CF0DFC08DF0E0C08EF0E1C08FF0E2C092
:103EB80090F01200E3C089F0E4C08AF0E5C08BF00E
:103EC800E6C08CF084C18DF085C18EF086C18FF07C
:103ED80087C190F01200DFC084F1E0C085F1E1C035
:103EE80086F1E2C087F11200E3C084F1E4C085F1F5
:103EF800E5C086F1E6C087F11200010E0001A16F4E
:103F0800840EA06FA26BA36B1200010E00018A6FD2
:103F1800840E896F8B6B8C6B12000001CC6BCD6BA0
:103F2800CE6BCF6BD3D9620E7E6FBE0E7F6F3C0E09
:103F3800806F460E816FF7C37AF0F8C37BF0F9C340
:103F48007CF0FAC37DF0C4EC34F07AC0AEF07BC0EC
:103F5800AFF07CC0B0F07DC0B1F09EEC36F0AEC0E2
:103F680035F0AFC036F0B0C037F0B1C038F06ED918
:103F7800589A599E5A8400015A840DEC3EF041EC3F
:103F880038F01C0E776F410E766FA4EC3CF0756B21
:103F9800010EF5EC38F01A0E776FED0E766FA4EC83
:103FA8003CF00DEC3EF0CB6FCB51030A01E12ED172
:103FB800CB51020A01E12AD1CB0504E1CC6BCD6BD0
:103FC800CE6BCF6BCB51040A34E1000E8A6FCC0E56
:103FD800896F91D97BEC37F037EC3DF075C07AF0FA
:103FE80076C07BF077C07CF078C07DF0C4EC34F00C
:103FF8007AC08BF07BC08CF07CC08DF07DC08EF0D9
:10400800F9EC3AF0896B8A6BB40E8B6F420E8C6FA9
:10401800CCC08DF0CDC08EF0CEC08FF0CFC090F068
:1040280019EC3AF006E2CC6BCD6BB40ECE6F420EB3
:10403800CF6FCB51050A34E1000EA16FCC0EA06FF3
:104048005AD97BEC37F037EC3DF075C07AF076C082
:104058007BF077C07CF078C07DF0C4EC34F07AC097
:10406800A2F07BC0A3F07CC0A4F07DC0A5F043EC17
:104078003BF0CCC089F0CDC08AF0CEC08BF0CFC069
:104088008CF08D6B8E6BB40E8F6FC20E906F19EC27
:104098003AF006E2CC6BCD6BB40ECE6FC20ECF6F8A
:1040A800060E756F010EF5EC38F0CCC0B8F0CDC037
:1040B800B9F0CEC0BAF0CFC0BBF0020EBC6FBD6F76
:1040C800010EBE6FF0EC2BF05AA052D00001CFAF1A
:1040D80031D0F7C37EF0F8C37FF0F9C380F0FAC39C
:1040E80081F0CCC06BF0CDC06CF0CEC06DF0CFC00D
:1040F8006EF0FAEC3DF06BC07AF06CC07BF06DC0EE
:104108007CF06EC07DF0C4EC34F0B3D8C4EC34F06D
:104118007AC0AEF07BC0AFF07CC0B0F07DC0B1F02B
:104128009EEC36F0DED802D004EC25F0000158A24F
:104138006AD0FAD7000EBDD819EC3AF010E2010E99
:10414800B1D802D004EC25F0000158B2FBD7000129
:1041580058B059D05A945A9479D85A9047D0010EE9
:10416800A1D802D004EC25F0000158A24CD0FAD70F
:10417800000E00019ED819EC3AF027E2CCC07EF080
:10418800CDC07FF0CEC080F0CFC081F0F7C37AF009
:10419800F8C37BF0F9C37CF0FAC37DF0C4EC34F0CB
:1041A80068D8C4EC34F07AC0AEF07BC0AFF07CC005
:1041B800B0F07DC0B1F09EEC36F093D802D004EC9C
:1041C80025F0000158A21FD0FAD7CFAF14D0010EA6
:1041D80069D802D004EC25F0000158B2FBD70001E1
:1041E80058B011D05A945A9431D85A806FD85A84FA
:1041F80000015A8408D0010E55D802D004EC25F0ED
:10420800000158B2FBD704EC25F0CBD641EC38F0CE
:104218001C0E776FCE0E766FA4EC3CF0010E0401F5
:10422800446F000E456F466F476F588202D004EC0A
:1042380025F0000158B2FBD7000158B004D05A94B9
:1042480000015A94120004EC25F0E8D7416A426A4A
:10425800436A446A0101EC6BED6BEE6BEF6B030193
:10426800C86BC96BCA6BCB6BCC6BCD6BCE6BCF6B92
:1042780012007AC0C7F07BC0C8F07CC0C9F07DC00E
:10428800CAF06F0E7E6F120E7F6F030E806F470E9F
:10429800816FC7C07AF0C8C07BF0C9C07CF0CAC0C3
:1042A8007DF0470C0401446F456B466B476B5882A1
:1042B800000C896B8A6B8B6B8C6BCCC08DF0CDC07E
:1042C8008EF0CEC08FF0CFC090F012005980E8C1B8
:1042D8003DF0E9C13EF0EAC13FF0EBC140F0599032
:1042E8001200AEC044F4AFC045F4B0C046F4B1C04B
:1042F80047F458821200CD0E7E6FCC0E7F6F4C0EA5
:10430800806F3D0E816F3D0C756B766B010E5EEC18
:1043180039F0D1C089F0D2C08AF0D3C08BF0D4C0B4
:104328008CF08D6B400E8E6F1C0E8F6F460E906F4B
:1043380019EC3AF012E2896B400E8A6F1C0E8B6FF3
:10434800C60E8C6FCDC08DF0CEC08EF0CFC08FF072
:10435800D0C090F019EC3AF002E3050E4FD08ED998
:104368007A0E8F6F440E906F19EC3AF011E2896B58
:104378008A6B7A0E8B6FC40E8C6FCDC08DF0CEC059
:104388008EF0CFC08FF0D0C090F019EC3AF002E375
:10439800040E34D073D9C80E8F6F420E906F19EC8B
:1043A8003AF011E2896B8A6BC80E8B6FC20E8C6F64
:1043B800CDC08DF0CEC08EF0CFC08FF0D0C090F0C1
:1043C80019EC3AF002E3030E19D058D9200E8F6F7A
:1043D800410E906F19EC3AF010E2896B8A6B200E4F
:1043E8008B6FC10E8C6FCDC08DF0CEC08EF0CFC05C
:1043F8008FF0D0C090F019EC3AF0020ED96FD5C00A
:1044080089F0D6C08AF0D7C08BF0D8C08CF08D6BFD
:104418008E6B800E8F6F3F0E906F19EC3AF002E3AF
:10442800DA6B53D0D5C089F0D6C08AF0D7C08BF0EC
:10443800D8C08CF0CD0E8D6FCC0E8E6F8F6F3D0E69
:10444800906F19EC3AF002E3010E3ED0D5C089F026
:10445800D6C08AF0D7C08BF0D8C08CF00A0E8D6F0A
:10446800D70E8E6F230E8F6F3C0E906F19EC3AF0BB
:1044780002E3020E29D0D5C089F0D6C08AF0D7C091
:104488008BF0D8C08CF06F0E8D6F120E8E6F830E6E
:104498008F6F3A0E906F19EC3AF002E3030E14D0C6
:1044A800D5C089F0D6C08AF0D7C08BF0D8C08CF0C0
:1044B800170E8D6FB70E8E6FD10E8F6F380E906FEF
:1044C80019EC3AF002E3040EDA6FCBC0D9FFCCC086
:1044D800DAFFDECFDBF0DECFDCF0DECFDDF0DECFE3
:1044E800DEF041EC38F0C7C076F0C8C077F0A4EC35
:1044F8003CF0756B010EF5EC38F0CBD8F0EC2BF0F6
:10450800C9C076F0CAC077F0A4EC3CF0756B010E18
:10451800F5EC38F0BED8F0EC2BF09FD0CBC0D9FF2B
:10452800CCC0DAFFDBC0DEFFDCC0DEFFDDC0DEFFB3
:10453800DEC0DEFF756B766B010E5EEC39F0000CA9
:10454800756B766B010E5EEC39F0FF0C756B766B54
:10455800010E5EEC39F0FE0C000E8A6FDB0E896FDF
:10456800D5C07EF0D6C07FF0D7C080F0D8C081F02B
:104578007BEC37F037EC3DF075C07AF076C07BF015
:1045880077C07CF078C07DF0C4EC34F07AC08BF052
:104598007BC08CF07CC08DF07DC08EF0F9EC3AF0D9
:1045A800D1C089F0D2C08AF0D3C08BF0D4C08CF0CF
:1045B800DBC08DF0DCC08EF0DDC08FF0DEC090F087
:1045C80019EC3AF0A3E2D1C0DBF0D2C0DCF0D3C0E2
:1045D800DDF0D4C0DEF09AD7000EA16FDB0EA06F1D
:1045E800D5C07EF0D6C07FF0D7C080F0D8C081F0AB
:1045F8007BEC37F037EC3DF075C07AF076C07BF095
:1046080077C07CF078C07DF0C4EC34F07AC0A2F0BA
:104618007BC0A3F07CC0A4F07DC0A5F043EC3BF0C8
:10462800DBC089F0DCC08AF0DDC08BF0DEC08CF026
:10463800CDC08DF0CEC08EF0CFC08FF0D0C090F03E
:1046480019EC3AF001E362D7CDC0DBF0CEC0DCF064
:10465800CFC0DDF0D0C0DEF059D764EC3DF0010AE0
:1046680001E15CD7030A01E16BD7010A01E16ED7CA
:10467800070A01E171D7010AAFE048D7D1C089F034
:10468800D2C08AF0D3C08BF0D4C08CF08D6B8E6B07
:104698001200DBC0B8F0DCC0B9F0DDC0BAF0DEC093
:1046A800BBF0D9C0BCF0DAC0BDF0010EBE6F010C82
:1046B80001018B6B41EC38F01B0E776FA20E766F01
:1046C800A4EC3CF0CBC275F0CCC276F0A6EC3DF081
:1046D80070D96AEC29F00CD004EC25F00DEC3EF012
:1046E80001018C6F8C51030A03E1010E8B6F47D1D6
:1046F800000159BEF1D7D3C27AF0D4C27BF0D5C23B
:104708007CF0D6C27DF000017E6B7F6BB40E806FAB
:10471800430E816FC4EC34F07AC08DF17BC08EF10A
:104728007CC08FF17DC090F10201CD51020A08E1F1
:1047380001018D6B4E0E8E6FED0E8F6F4A0E906FCE
:104748000201CE6712D08DC16BF08EC16CF08FC1A3
:104758006DF090C16EF0FAEC3DF06BC08DF16CC05D
:104768008EF16DC08FF16EC090F1B6EC39F065EC4A
:104778003AF02FD91EEC3BF091C175F092C176F05A
:1047880093C177F094C178F08DC179F08EC17AF039
:104798008FC17BF090C17CF085EC30F075C07FF163
:1047A80076C080F177C081F178C082F141EC38F0B1
:1047B8001A0E776F260E766FA4EC3CF00201CD51ED
:1047C800020A12E141EC38F01C0E776F230E766F67
:1047D800A4EC3CF0756B010EF5EC38F01B0E776F0E
:1047E8006E0E766FA4EC3CF00001896B8A6B800E2C
:1047F8008B6F3F0E8C6FDBC28DF0DCC28EF0DDC29A
:104808008FF0DEC290F043EC36F089C087F18AC0A1
:1048180088F18BC089F18CC08AF10DEC3EF08DC116
:1048280030F18EC131F18FC132F190C133F1DBC269
:1048380034F1DCC235F1DDC236F1DEC237F1BEEC4F
:104848003CF09BD0B6EC39F065EC3AF0C2D81EECDF
:104858003BF07FC198F080C199F081C19AF082C184
:104868009BF091C19CF092C19DF093C19EF094C1C0
:104878009FF087EC3CF098C095F199C096F19AC0EA
:1048880097F19BC098F1010198AF12D095C16BF0D8
:1048980096C16CF097C16DF098C16EF0FAEC3DF0DE
:1048A8006BC095F16CC096F16DC097F16EC098F130
:1048B80095C17AF096C17BF097C17CF098C17DF0E4
:1048C80087C17EF088C17FF089C180F08AC181F0FC
:1048D800C4EC34F07AC083F17BC084F17CC085F1EC
:1048E8007DC086F1010E00018A6F950E896F1B0E3F
:1048F8008B6F0F0E8C6F360E8D6F3B0E8E6F1EEC0E
:104908003BF00201CD51020A2EE00B0E0001756F3B
:10491800000EF5EC38F083C1D0F084C1D1F085C128
:10492800D2F086C1D3F00E0ED46F000ED56B66ECB4
:1049380032F0756B010EF5EC38F095C1B8F096C100
:10494800B9F097C1BAF098C1BBF0050EBC6F020E62
:10495800BD6F000EBE6BF0EC2BF01C0E776FF50EE2
:10496800766FA4EC3CF00DEC3EF001018C6F8C519D
:10497800030A01E1BAD604EC25F059BE63D7599E63
:104988000001588A41EC38F01C0E776FCE0E766F16
:10499800A4EC3CF004EC25F0599E588A010E000165
:1049A800916FF40E906F2AEC3EF0589A01018B51EA
:1049B800120075C038F176C039F177C03AF178C085
:1049C8003BF101013C6B3D6BB40E3E6F420E3F6FF5
:1049D800420C75C091F176C092F177C093F178C01E
:1049E80094F15990010E00018A6F910E896FFBC3F3
:1049F8008BF0FCC38CF0FDC38DF0FEC38EF012006B
:104A080057A808D001017E697E0701017E29D8B424
:104A18001200FAD757BE08D001017E697E0701014E
:104A28007E29D8B41200FAD7010E0001EF6F0001F9
:104A3800579E68EC3BF00101F519D8A4120068EC08
:104A48003BF001017D6F20D1F46B05EC3CF0240EA6
:104A5800DF6EF42B7D518AEC3BF07E6B140E010166
:104A68007E25D96EDA6A0401040EDA22DF508AEC58
:104A78003BF07E2B130E7E65F1D77E6B000E010195
:104A88007E25D96EDA6A0401040EDA22DF508AEC38
:104A98003BF07E2B130E7E65F1D7000E0101F42545
:104AA800D96EDA6A050EDA22230EDF6EF42BF4C112
:104AB8007EF1F46B7EC1F0F012005A9A010E0BD011
:104AC8005A9A030E08D05A9A020E05D05A9A040E22
:104AD80002D05A9A050E566E5A8ACCD0B6EC39F0E6
:104AE80065EC3AF075C079F176C07AF177C07BF160
:104AF80078C07CF15990E9D81EEC3BF079C16DF093
:104B08007AC16EF07BC16FF07CC170F07DC171F02D
:104B1800EFEF39F0796B7A6B7B6B7C6B12D0ECC161
:104B280075F0EDC176F0EEC177F0EFC178F0F1ECF9
:104B38003CF075C079F176C07AF177C07BF178C026
:104B48007CF1ECC175F0EDC176F0EEC177F0EFC104
:104B580078F0F1EC3CF001017C51000178190EE18C
:104B680001017B510001771909E101017A51000126
:104B7800761904E10101795100017519D0E1010E9E
:104B880000018A6F790E896F8B6B8C6BFA0E8D6FB3
:104B9800370E8E6F1EEC3BF098D81EEC3BF0AED76C
:104BA8000001588EC8C275F0C9C276F0A6EC3DF077
:104BB80075C079F176C07AF177C07BF178C07CF165
:104BC800589E010E00018A6F790E896FE2C38BF03F
:104BD800E3C38CF0E4C38DF0E5C38EF01EEC3BF02C
:104BE8008DD768EC3BF00101006F040E006501D021
:104BF80028D0010E0001736F010E726F0101005180
:104C080009EC3DF00101F46B000EF425D96EDA6A67
:104C1800050EDA22240EDF6EF42B7D518AEC3BF070
:104C28007E6B61D8DF508AEC3BF07E2B770E7E6579
:104C3800F8D733D768EC3BF00101006F040E00652C
:104C480004D0010E00016D6F1BD07E6B68EC3BF049
:104C58008F6F010148D88FC0DFFF7E2B770E7E65EE
:104C6800F5D7010E0001746F010E736F0101005139
:104C780020EC3DF001017D514EEF3DF000016D69E2
:104C880001017D51EDEF3BF07D51010AD3E0030AAC
:104C9800A8E0120A01E1D8D6010A01E10ED7030AF9
:104CA80001E111D7010A01E10BD7070A01E10ED78B
:104CB800010A01E10ED7030A01E110D7010A01E157
:104CC80029D70F0A01E16CD7D9D7010E00018A6FE5
:104CD800790E896FFBC38BF0FCC38CF0FDC38DF09C
:104CE800FEC38EF01200010E7E25D96EDA6A010E1F
:104CF800DA2212007CAF0DD02D0EBDEC37F0796DA5
:104D08007A1FD8B07A2B7B1FD8B07B2B000E7C572C
:104D180005D07E5103E02B0EBDEC37F079C06BF067
:104D28007AC06CF07BC06DF07CC06EF06F6BCA0E01
:104D3800706F9A0E716F3B0E726F2BEC35F033D992
:104D48006F6BCA0E706F9A0E716F3B0E726F3FECED
:104D58003AF03AD9090E7D6503D07F51BDEC37F0A2
:104D680079C06BF07AC06CF07BC06DF07CC06EF0DF
:104D78006F6BE10E706FF50E716F050E726F2BEC95
:104D880035F011D96F6BE10E706FF50E716F050E6E
:104D9800726F3FEC3AF018D9080E7D6503D07F5149
:104DA800BDEC37F079C06BF07AC06CF07BC06DF069
:104DB8007CC06EF0800E6F6F960E706F980E716FDC
:104DC800000E726B2BEC35F0EED8800E6F6F960EDE
:104DD800706F980E716F000E726B3FEC3AF0F4D85A
:104DE800070E7D6503D07F51BDEC37F079C06BF0BD
:104DF8007AC06CF07BC06DF07CC06EF0400E6F6FB7
:104E0800420E706F0F0E716F000E726B2BEC35F047
:104E1800CAD8400E6F6F420E706F0F0E716F000E82
:104E2800726B3FEC3AF0D0D8060E7D6503D07F5107
:104E3800BDEC37F079C06BF07AC06CF07BC06DF0D8
:104E48007CC06EF0A00E6F6F860E706F010E716FD2
:104E5800000E726B2BEC35F0A6D8A00E6F6F860E85
:104E6800706F010E716F000E726B3FEC3AF0ACD8A8
:104E7800050E7D6503D07F51BDEC37F079C06BF02E
:104E88007AC06CF07BC06DF07CC06EF0100E6F6F56
:104E9800270E706F000E716B726B2BEC35F083D898
:104EA800100E6F6F270E706F000E716B726B3FECF8
:104EB8003AF08AD8040E7D6503D07F51BDEC37F0F7
:104EC80079C06BF07AC06CF07BC06DF07CC06EF07E
:104ED800E80E6F6F030E706F000E716B726B2BEC28
:104EE80035F061D8E80E6F6F030E706F000E716BAE
:104EF800726B3FEC3AF068D8030E7D6503D07F51A2
:104F0800BDEC37F079C06BF07AC06CF07BC06DF007
:104F18007CC06EF0640E6F6F000E706B716B726BFD
:104F28002BEC35F040D8640E6F6F000E706B716B10
:104F3800726B3FEC3AF048D8020E7D6503D07F5182
:104F4800BDEC37F079C06BF07AC06CF07BC06DF0C7
:104F58007CC06EF00A0E6F6F000E706B716B726B17
:104F68002BEC35F020D80A0E6F6F000E706B716B4A
:104F7800726B3FEC3AF028D8010E7D6503D07F5163
:104F8800BDEC37F079C07FF07AC080F07BC081F04B
:104F98007CC082F0300E7F27000E8023812382237D
:104FA8007F51BDEF37F06BC07FF06CC080F06DC0F3
:104FB80081F06EC082F07FC06BF080C06CF081C061
:104FC8006DF082C06EF012006B51795F6C517A5BA4
:104FD8006D517B5B6E517C5B300E7F27000E80230A
:104FE80081238223000C0001BAAF13D0B7C06BF045
:104FF800B8C06CF0B9C06DF0BAC06EF0FAEC3DF014
:105008006BC0DBF06CC0DCF06DC0DDF06EC0DEF0B4
:1050180008D0B7C0DBF0B8C0DCF0B9C0DDF0BAC06A
:10502800DEF0DBC07AF0DCC07BF0DDC07CF0DEC0F7
:105038007DF07E6B7F6B806B3F0E816FC4EC34F02C
:105048007AC0BBF07BC0BCF07CC0BDF07DC0BEF0B8
:10505800EDC389F0EEC38AF0EFC38BF0F0C38CF098
:10506800E9C38DF0EAC38EF0EBC38FF0ECC390F088
:1050780043EC36F089C0DFF08AC0E0F08BC0E1F085
:105088008CC0E2F012D9C4EC34F0E0D8C4EC34F0AF
:10509800F6D8C4EC34F07AC0CBF07BC0CCF07CC03E
:1050A800CDF07DC0CEF0BBC089F0BCC08AF0BDC0D9
:1050B8008BF0BEC08CF0CBC08DF0CCC08EF0CDC0D4
:1050C8008FF0CEC090F019EC3AF035E2DBC089F0F1
:1050D800DCC08AF0DDC08BF0DEC08CF0E9C38DF057
:1050E800EAC38EF0EBC38FF0ECC390F043EC36F0DC
:1050F80089C0A6F08AC0A7F08BC0A8F08CC0A9F020
:1051080033EC31F0A6C0DFF0A7C0E0F0A8C0E1F0B2
:10511800A9C0E2F0CAD8C4EC34F098D8C4EC34F092
:10512800AED8C4EC34F07AC0CBF07BC0CCF07CC0F5
:10513800CDF07DC0CEF0E9C37AF0EAC37BF0EBC3D3
:105148007CF0ECC37DF0DFC07EF0E0C07FF0E1C012
:1051580080F0E2C081F0C4EC34F07AC0BFF07BC0CC
:10516800C0F07CC0C1F07DC0C2F0DBC098F0DCC0EC
:1051780099F0DDC09AF0DEC09BF07E6B7F6B806B90
:10518800400E816FCBC07AF0CCC07BF0CDC07CF0F4
:10519800CEC07DF0C4EC34F07AC09CF07BC09DF0AA
:1051A8007CC09EF07DC09FF087EC3CF098C0C3F0B7
:1051B80099C0C4F09AC0C5F09BC0C6F0C3C089F0BE
:1051C800C4C08AF0C5C08BF0C6C08CF0BFC08DF0DB
:1051D800C0C08EF0C1C08FF0C2C090F043EC36F072
:1051E80089C0C7F08AC0C8F08BC0C9F08CC0CAF0AB
:1051F800DFC07AF0E0C07BF0E1C07CF0E2C07DF077
:105208007E6B7F6B806B400E816FC4EC34F07AC08C
:10521800D7F07BC0D8F07CC0D9F07DC0DAF0000EA2
:105228008A6FD70E896FC7C08BF0C8C08CF0C9C011
:105238008DF0CAC08EF0F9EC3AF0D7C0B7F0D8C0FC
:10524800B8F0D9C0B9F0DAC0BAF012007AC0CFF01D
:105258007BC0D0F07CC0D1F07DC0D2F0DFC07EF042
:10526800E0C07FF0E1C080F0E2C081F0CFC07AF00A
:10527800D0C07BF0D1C07CF0D2C07DF012007AC0E3
:10528800D3F07BC0D4F07CC0D5F07DC0D6F0D3C0BD
:105298007AF0D4C07BF0D5C07CF0D6C07DF07E6BB0
:1052A8007F6B806B3F0E816F3F0CDFC07EF0E0C0EC
:1052B8007FF0E1C080F0E2C081F0E9C37AF0EAC390
:1052C8007BF0EBC37CF0ECC37DF012003FAF13D052
:1052D8003CC16BF03DC16CF03EC16DF03FC16EF05A
:1052E800FAEC3DF06BC0C8F06CC0C9F06DC0CAF0F4
:1052F8006EC0CBF008D03CC1C8F03DC1C9F03EC17A
:10530800CAF03FC1CBF001013BAF25D038C1DCF07A
:1053180023D907D0000E8A6FDC0E60EC33F0F9EC6D
:105328003AF0DCC089F0DDC08AF0DEC08BF0DFC067
:105338008CF000018D6B8E6BB40E8F6FC30E906F67
:1053480019EC3AF0E7E3000E8A6FDC0E60EC33F0FC
:10535800F9EC3AF022D038C1DCF0FED80CD0000EBF
:10536800A16FDC0EA06FA26BA36BB40EA46F430EEB
:10537800A56F43EC3BF00001896B8A6BB40E8B6F11
:10538800430E8C6FDCC08DF0DDC08EF0DEC08FF078
:10539800DFC090F019EC3AF0E2E3EFEC32F0A6C08F
:1053A800D8F0A7C0D9F0A8C0DAF0A9C0DBF0D8C0FF
:1053B80089F0D9C08AF0DAC08BF0DBC08CF0DCC091
:1053C8008DF0DDC08EF0DEC08FF0DFC090F019ECFC
:1053D8003AF039E2DCC098F0DDC099F0DEC09AF00E
:1053E800DFC09BF0D8C09CF0D9C09DF0DAC09EF019
:1053F800DBC09FF087EC3CF098C0CCF099C0CDF0B2
:105408009AC0CEF09BC0CFF0DCC09CF0DDC09DF010
:10541800DEC09EF0DFC09FF0A6D887EC3CF08BD8AA
:10542800D8C079F0D9C07AF0DAC07BF0DBC07CF064
:1054380085EC30F075C0D0F076C0D1F077C0D2F0EE
:1054480078C0D3F038D0D8C09CF0D9C09DF0DAC06D
:105458009EF0DBC09FF087D887EC3CF06CD8DCC0AE
:1054680079F0DDC07AF0DEC07BF0DFC07CF085EC3F
:1054780030F075C0CCF076C0CDF077C0CEF078C0F3
:10548800CFF0D8C098F0D9C099F0DAC09AF0DBC054
:105498009BF0DCC09CF0DDC09DF0DEC09EF0DFC05C
:1054A8009FF087EC3CF098C0D0F099C0D1F09AC03A
:1054B800D2F09BC0D3F0CCC089F0CDC08AF0CEC06A
:1054C8008BF0CFC08CF0D0C08DF0D1C08EF0D2C0A0
:1054D8008FF0D3C090F019EC3AF009E2CCC030F16B
:1054E800CDC031F1CEC032F1CFC033F11AD0D0C027
:1054F8006BF0D1C06CF0D2C06DF0D3C06EF0FAEC96
:105508003DF06BC0C4F06CC0C5F06DC0C6F06EC095
:10551800C7F0C4C030F1C5C031F1C6C032F1C7C050
:1055280033F1C8C034F1C9C035F1CAC036F1CBC0B7
:1055380037F1BEEF3CF098C0D4F099C0D5F09AC0CE
:10554800D6F09BC0D7F0D4C075F0D5C076F0D6C0E1
:1055580077F0D7C078F0120039C1DDF03AC1DEF03B
:105568003BC1DFF01200986B996BB40E9A6F430E33
:105578009B6F430CBAAF08D0B7C07AF023D9BF0EDF
:10558800816FC4EC34F007D0B7C07AF01BD93F0E56
:10559800816FC4EC34F07AC0CFF07BC0D0F07CC00F
:1055A800D1F07DC0D2F0BEAF08D0BBC07AF000D930
:1055B800BF0E816FC4EC34F007D0BBC07AF0F8D8C6
:1055C8003F0E816FC4EC34F07AC0D3F07BC0D4F0C6
:1055D8007CC0D5F07DC0D6F0896B8A6B800E8B6F4E
:1055E800450E8C6FD3C08DF0D4C08EF0D5C08FF02F
:1055F800D6C090F019EC3AF01BE2CFC089F0D0C0C9
:105608008AF0D1C08BF0D2C08CF0D3C08DF0D4C05A
:105618008EF0D5C08FF0D6C090F043EC36F089C03C
:10562800B7F08AC0B8F08BC0B9F08CC0BAF01200DD
:10563800D3C07EF0D4C07FF0D5C080F0D6C081F052
:10564800D3C07AF0D4C07BF0D5C07CF0D6C07DF052
:10565800C4EC34F07AC098F07BC099F07CC09AF022
:105668007DC09BF0E9C38DF0EAC38EF0EBC38FF0E9
:10567800ECC390F07E6B7F6B806B400E816FCFC068
:105688007AF0D0C07BF0D1C07CF0D2C07DF0C4EC01
:1056980034F07AC089F07BC08AF07CC08BF07DC082
:1056A8008CF043EC36F089C09CF08AC09DF08BC02A
:1056B8009EF08CC09FF087EC3CF098C0C7F099C072
:1056C800C8F09AC0C9F09BC0CAF0CAAF08D0000E93
:1056D800B76FB86F800EB96FBF0EBA6FBF0CC7C077
:1056E800A6F0C8C0A7F0C9C0A8F0CAC0A9F033EC9A
:1056F80031F0A6C0C3F0A7C0C4F0A8C0C5F0A9C0C7
:10570800C6F0D3C098F0D4C099F0D5C09AF0D6C0EE
:105718009BF0C3C09CF0C4C09DF0C5C09EF0C6C03D
:105728009FF087EC3CF098C0BFF099C0C0F09AC0D9
:10573800C1F09BC0C2F0E9C37AF0EAC37BF0EBC3C7
:105748007CF0ECC37DF0BFC07EF0C0C07FF0C1C06C
:1057580080F0C2C081F0C4EC34F07AC0CBF07BC0DA
:10576800CCF07CC0CDF07DC0CEF0EDC389F0EEC3A7
:105778008AF0EFC38BF0F0C38CF0CBC08DF0CCC0B7
:105788008EF0CDC08FF0CEC090F019EC3AF007E261
:10579800000EB76FB86FB96FC00EBA6FC00CCBC030
:1057A800B7F0CCC0B8F0CDC0B9F0CEC0BAF0120096
:1057B800BCC07BF0BDC07CF0BEC07DF07E6B7F6B53
:1057C800806B1200B8C07BF0B9C07CF0BAC07DF025
:1057D8007E6B7F6B806B1200B8C0AEF0B9C0AFF0C3
:1057E800BAC0B0F0BBC0B1F09EEC36F0AEC0BFF0AE
:1057F800AFC0C0F0B0C0C1F0B1C0C2F0BE5119E036
:10580800C251BF11C011C11114E1BBAF04D02D0E9C
:10581800BDEC37F003D02B0EBDEC37F0000E796BE2
:105828007A6B7B6B7C6BBCC07DF07E6B7EEC26F06C
:105838000ED0BFC079F0C0C07AF0C1C07BF0C2C042
:105848007CF0BCC07DF0BEC07EF07EEC26F0000E81
:10585800A16FB80EA06FBFC075F0C0C076F0C1C010
:1058680077F0C2C078F065EC3AF075C0A2F076C067
:10587800A3F077C0A4F078C0A5F043EC3BF0BBAF31
:1058880017D0000E986B996B9A6B9B6BB8C09CF005
:10589800B9C09DF0BAC09EF0BBC09FF087EC3CF049
:1058A80098C0B8F099C0B9F09AC0BAF09BC0BBF0E4
:1058B800000E8A6FB80E896F8B6B500E8C6FC30EFB
:1058C8008D6F470E8E6F1EEC3BF0B8C0AEF0B9C0BE
:1058D800AFF0BAC0B0F0BBC0B1F09EEC36F0AEC0CD
:1058E800C3F0AFC0C4F0B0C0C5F0B1C0C6F0BD5180
:1058F800D8B412002E0EBDEC37F0BD0514E1C3C0BC
:105908006BF0C4C06CF0C5C06DF0C6C06EF0100E70
:105918006F6F270E706F000E716B726B2BEC35F08A
:1059280056D8010E50D0BD51020A14E1C3C06BF025
:10593800C4C06CF0C5C06DF0C6C06EF0E80E6F6FE5
:10594800030E706F000E716B726B2BEC35F03FD845
:10595800020E39D0BD51030A13E1C3C06BF0C4C0B5
:105968006CF0C5C06DF0C6C06EF0640E6F6F000EAF
:10597800706B716B726B2BEC35F029D8030E23D04A
:10598800BD51040A13E1C3C06BF0C4C06CF0C5C0BC
:105998006DF0C6C06EF00A0E6F6F000E706B716B03
:1059A800726B2BEC35F013D8040E0DD0BD51050ADF
:1059B800D8A41200C3C079F0C4C07AF0C5C07BF087
:1059C800C6C07CF0050E7D6F7E6B7EEF26F06BC047
:1059D800C3F06CC0C4F06DC0C5F06EC0C6F0C3C0E3
:1059E80079F0C4C07AF0C5C07BF0C6C07CF0120064
:1059F8000101E46BE56B69EC3CF08B908A90416A9D
:105A0800426A436A446A0301C86BC96BCA6BCB6BB1
:105A1800CC6BCD6BCE6BCF6B0101E66B280E010111
:105A2800E625D96EDA6A040EDA22DF68E62B0F0E55
:105A3800E665F4D7E0EC33F0BDEC38F0AFEC3AF0C3
:105A480041EC38F01C0E776F040E766FA4EC3CF036
:105A5800756B010EF5EC38F01C0E776FA50E766F9E
:105A6800A4EC3CF0070E916FD00E906F2AEC3EF03C
:105A78001D0E0101C96F580EC86F1C0ECB6F500E5A
:105A8800CA6F1D0ECD6F640ECC6F1C0ECF6F410E0A
:105A9800CE6F1B0ED16FB30ED06F1D0ED36F0F0ECE
:105AA800D26F1A0ED56FA00ED46FC8C1D6F1C9C176
:105AB800D7F1CAC1D8F1CBC1D9F1CEC1DAF1CFC182
:105AC800DBF1CCC1DCF1CDC1DDF1D0C1DEF1D1C15A
:105AD800DFF1D2C1E0F1D3C1E1F1D4C1E2F1D5C126
:105AE800E3F10001588A41EC38F0190E776FE60EA1
:105AF800766FA4EC3CF0756B010EF5EC38F01C0EDB
:105B0800776F320E766FA4EC3CF01CEC3EF05886B2
:105B180002D004EC25F0000158B6FBD70001916BC8
:105B28000A0E906F2AEC3EF00001589A41EC38F0CA
:105B3800010E0001926FD60E916F060E936FE4C1AD
:105B480094F0CEEC2FF00101E76F4CD0E46BEDEC54
:105B58000EF00009EDE091EC1FF0EAD7010EE46FBA
:105B68007DEC12F0F6D7020EE46FE7EC35F0010198
:105B7800E76FE729DDE0E751FE0ADAE0E7C1E5F182
:105B88001AD0040E0001736F480E726F0101E551BF
:105B980009EC3DF08DEC18F00009DDE1C9D7020EE3
:105BA8000001736FCA0E726F0101E55109EC3DF0F7
:105BB8005CEC23F0F1D7E551D8EC3CF0010AE1E0C8
:105BC800030AEDE0B5D7020EE46FC5D7E46B38ECF5
:105BD80037F0AED7E46B68EC33F0AAD7E46B96ECF9
:105BE80015F0A6D7E751B2E0010AB8E0030AEBE0E6
:105BF800010AB9E0070AEAE0010AECE0030AEEE06C
:105C080097D7F7CF67F0F8CF68F0F5CF69F0FE0EB9
:105C1800D76E830ED66EF294ACA201D001D015D007
:105C28000001F051D8B401D001D00FD00501000E09
:105C38000101F425D96EDA6A0501050EDA22DF5072
:105C4800AD6E0101F42B0001F007AB30E832010B17
:105C58000001606FAB30010B60110009D8B401D0AE
:105C680001D00DD0AB9800F0AB88AECF6AF0AECFC4
:105C78006AF00001EE6B0001579E0001579C9EAA36
:105C880001D001D032D0AECF6AF000016A51400A8B
:105C9800D8A401D001D005D0EE6B0001579E0001B9
:105CA800578C00016A51230AD8A401D001D004D02E
:105CB8000001578E0001579C0001EE29D8A401D09D
:105CC80001D001D0EE6B000157AC01D001D00DD04E
:105CD8000601000E0001EE25D96EDA6A0601060EED
:105CE800DA2200016AC0DFFFEE2B0001F251D8B4BE
:105CF80001D001D002D0F20702D0070EF26F0001E6
:105D080057AA01D001D009D00001F2510301E66180
:105D180001D001D002D08A8201D08A920001F30713
:105D2800000100015A760001F36701D001D012D0BA
:105D3800E94BEA2BEA05910ED8B4E919D8A401D0A9
:105D480001D005D04F0EF36FE96BEA6B02D0500E0D
:105D5800F36F9E80D890EB37D890EB378050030BC9
:105D6800EB130F0EEB17D60EEB25F66EF76A190E2E
:105D7800F722F86A000EF8220800F550606F000E4E
:105D880060BFFF0E616F626F636F60510401BD5F9A
:105D9800000161510401BE5B000162510401BF5B57
:105DA800000163510401C05B000158A601D001D075
:105DB80007D0000158960401BD6BBE6BBF6BC06B6A
:105DC800000159B001D001D008D0BDC4E8F1BEC46B
:105DD800E9F1BFC4EAF1C0C4EBF169C0F5FF68C0DE
:105DE800F8FF67C0F7FF66C0F6FF65C0DAFF64C05A
:105DF800D9FF1100B8C0CCF0B9C0CDF0BAC0CEF010
:105E0800BBC0CFF0CCC07AF0CDC07BF0CEC07CF068
:105E1800CFC07DF0BB0E7E6FA20E7F6F910E806F9C
:105E2800390E816FC4EC34F088D89EEC36F0AE5150
:105E3800BCC0D9FFBDC0DAFFDF6EBCC0D9FFBDC092
:105E4800DAFFDF5037EC3DF089D8610E8D6F450ED3
:105E58008E6F1EEC3BF091D843EC3BF0CCC07AF04F
:105E6800CDC07BF0CEC07CF0CFC07DF0890E7E6FB8
:105E7800880E7F6F806F3C0E816FC4EC34F05DD864
:105E88009EEC36F0AE51BEC0D9FFBFC0DAFFDF6E60
:105E9800BEC0D9FFBFC0DAFFDF5037EC3DF05ED897
:105EA800700E8D6F420E8E6F1EEC3BF066D843EC81
:105EB8003BF0CCC0AEF0CDC0AFF0CEC0B0F0CFC09C
:105EC800B1F09EEC36F0AE51C0C0D9FFC1C0DAFFC8
:105ED800DF6E000EA16FCC0EA06FC0C0D9FFC1C08D
:105EE800DAFFDF5037EC3DF075C0A2F076C0A3F0C2
:105EF80077C0A4F078C0A5F043EC3BF0000E8A6FA1
:105F0800CC0E896F8B6B8C6B7A0E8D6F440E8E6FF7
:105F18001EEC3BF0CCC0AEF0CDC0AFF0CEC0B0F0C0
:105F2800CFC0B1F09EEC36F0C2C0D9FFC3C0DAFFD3
:105F3800AEC0DEFFAFC0DDFF12007AC0C4F07BC088
:105F4800C5F07CC0C6F07DC0C7F0C4C0AEF0C5C007
:105F5800AFF0C6C0B0F0C7C0B1F0120075C0C8F04D
:105F680076C0C9F077C0CAF078C0CBF0000E8A6F4F
:105F7800C80E896F8B6B8C6B1200000EA16FCC0E54
:105F8800A06FC8C0A2F0C9C0A3F0CAC0A4F0CBC01B
:105F9800A5F01200996B9A6B94C09AF0756B010E7C
:105FA800766F5EEC39F041EC38F099512DE0010E36
:105FB800756F000EF5EC38F09A670FD09351020D0B
:105FC800F3509125D96E000E9221DA6EDECF76F06D
:105FD800DDCF77F0A4EC3CF008D09A51020DF3CF56
:105FE80095F0FE0E73D8A4EC3CF0756B010EF5EC41
:105FF80038F02A0EBDEC37F056D8A4EC3CF0756B9F
:10600800010EF5EC38F023D02A0EBDEC37F04BD852
:10601800A4EC3CF0010E756FF5EC38F069D80BE193
:1060280091C0D9FF92C0DAFFDECF76F0DDCF77F0EE
:10603800A4EC3CF008D09A51020DF3CF95F0020E73
:1060480045D8A4EC3CF0000E756BF5EC38F064EC28
:106058003DF0986F15D09A691FD0FE0E9A6F1CD02C
:10606800010E996F45D803E193C09AF09CD79A2BFB
:106078009AD7996B9A6702D09A6B95D79A0793D754
:106088009851010A09E0030AE6E0010AE6E0070A76
:10609800E7E0010AEEE087D7756B766B010E5EECE0
:1060A80039F09A5112009A51020DF3509125956FCB
:1060B800E86AF3BEE8689221966F95C0D9FF96C04A
:1060C800DAFFDECF76F0DDCF77F012009527955115
:1060D8009125966FE86A95BFE8689221976F96C0F8
:1060E800D9FF97C0DAFFDECF76F0DDCF77F0120068
:1060F80093519AC095F0966B95BF9607951996118E
:106108001200000177357835806F7B357C357F6FDD
:10611800805109E07F5180610FD080517F5D7D6F94
:10612800210E7D5D09E379C075F07AC076F07BC0F9
:1061380077F07CC078F012007F5109E080517F61D0
:106148000FD07F51805D7D6F210E7D5D09E375C0A5
:1061580075F076C076F077C077F078C078F01200E6
:10616800060E7E6F78BF7E8F7CBF7E8D778F786BB3
:106178007B8F7C6B7F51806119D0D89079377A37C3
:106188007B377C377F077F5180190CE07E07000141
:106198007E51070B07E0F1D7D89078337733763301
:1061A8007533802B7F518063F7D71BD080517F6177
:1061B80018D0D890753776377737783780077F517A
:1061C80080190CE07E0700017E51070B07E0F1D72C
:1061D800D8907C337B337A3379337F2B7F5180633C
:1061E800F7D77EAF09D0751F761F771F781F752BDD
:1061F800000E7623772378237EAD02D0791F26D828
:106208007E6B7551792776517A2377517B237851A4
:106218007C237CAF04D0791F19D8010E7E6F79C01A
:106228006BF07AC06CF07BC06DF07CC06EF080C003
:106238006FF07EC070F089EC35F06BC075F06CC003
:1062480076F06DC077F06EC078F012007A1F7B1F71
:106258007C1F792B000E7A237B237C23000C000EF5
:10626800896B8A6B8B6B8C6BA6C08DF0A7C08EF088
:10627800A8C08FF0A9C090F019EC3AF005E3A66B1E
:10628800A76BA86BA96B1200A6C0AAF0A7C0ABF0B9
:10629800A8C0ACF0A9C0ADF0A6515E08B36FC80E97
:1062A800A755B46F6E0EA855B56FBE0EA955B66F3B
:1062B800D890B633B533B433B333D880000EAB5B64
:1062C800800EAC5B000EAD5B040EAE6FB3C07AF00F
:1062D800B4C07BF0B5C07CF0B6C07DF0AAC07EF03B
:1062E800ABC07FF0ACC080F0ADC081F0C4EC34F03E
:1062F8007AC0AFF07BC0B0F07CC0B1F07DC0B2F026
:106308003CD81EEC3BF039D81EEC3BF0000E8A6FEF
:10631800B30E896F8B6B8C6BC00E8D6F3F0E8E6FBB
:106328001EEC3BF0000EA16FB30EA06FAFC0A2F041
:10633800B0C0A3F0B1C0A4F0B2C0A5F043EC3BF0EC
:10634800AE2FC4D7B3C07AF0B4C07BF0B5C07CF030
:10635800B6C07DF0A6C07EF0A7C07FF0A8C080F0D0
:10636800A9C081F0C4EC34F07AC0A6F07BC0A7F0D5
:106378007CC0A8F07DC0A9F01200000E8A6FAF0E95
:10638800896FB3C08BF0B4C08CF0B5C08DF0B6C0C7
:106398008EF01200E8CF93F00001935186D8100ECA
:1063A8006F6F0E0E706F000E716B726B3FEC3AF0F0
:1063B80067D865EC3AF075C08BF076C08CF077C082
:1063C8008DF078C08EF0F9EC3AF08F516ED83C0E13
:1063D8006F6F000E706B716B726B3FEC3AF050D8B8
:1063E80065EC3AF075C08BF076C08CF077C08DF014
:1063F80078C08EF0F9EC3AF0000E8A6F9C0E896F27
:10640800905137EC3DF075C08BF076C08CF077C0BA
:106418008DF078C08EF0F9EC3AF091C075F092C02A
:1064280076F02DEC3CF075C094F076C095F077C00E
:1064380096F078C097F0000E8A6F940E896F6F0EF1
:106448008B6F120E8C6F830E8D6F3A0E8E6F1EEC53
:106458003BF0000E8A6F9C0E896F94C08BF095C03C
:106468008CF096C08DF097C08EF0F9EC3AF09CC095
:106478008FF09DC090F09EC091F09FC092F01200E6
:106488006BC098F06CC099F06DC09AF06EC09BF02C
:10649800000E8A6F9C0E896F98C075F099C076F0CF
:1064A8009AC077F09BC078F01200986F996B9A6B3E
:1064B8009B6B98C06BF099C06CF09AC06DF09BC054
:1064C8006EF01200D0C0B8F0D1C0B9F0D2C0BAF0A6
:1064D800D3C0BBF0000EBD6FD60EBC6F000EBF6FF1
:1064E800D70EBE6F000EC16FD80EC06F000EC36FFF
:1064F800D90EC26FFEEC2EF0D9C06BF0DAC06CF08A
:106508006E6B640E6D6F81EC38F06BC0D9F06CC0A7
:10651800DAF0D4A70ED0D5A703D03C0EBDEC37F0E7
:10652800D65151D87EEC26F0D5A703D03E0EBDEC4F
:1065380037F0D4A513D0D4A703D03A0EBDEC37F06A
:10654800D5A503D03C0EBDEC37F0D7513CD87EEC36
:1065580026F0D5A503D03E0EBDEC37F0D4A313D05A
:10656800D4A503D03A0EBDEC37F0D5A303D03C0E2A
:10657800BDEC37F0D85127D87EEC26F0D5A303D050
:106588003E0EBDEC37F0D4A11200D4A303D02E0EDA
:10659800BDEC37F0D5A103D03C0EBDEC37F0D9C027
:1065A80079F0DAC07AF0000E7ABFFF0E7B6F7C6F4D
:1065B800010E7D6F000E7E6B7EEC26F0D5A11200D9
:1065C8003E0EBDEF37F0796F7A6B7B6B7C6B020EFA
:1065D8007D6F7E6B000CB6EC39F065EC3AF075C057
:1065E800AAF076C0ABF077C0ACF078C0ADF05990A7
:1065F8000001000E8A6FAA0E896FFBC38BF0FCC3E3
:106608008CF0FDC38DF0FEC38EF01EEC3BF0000E47
:10661800896B8A6B8B6B8C6BAAC08DF0ABC08EF0CC
:10662800ACC08FF0ADC090F019EC3AF00DE324D077
:10663800000EA16FAA0EA06FA26BA36BB40EA46F7D
:10664800430EA56F43EC3BF0896B8A6BB40E8B6FDE
:10665800430E8C6FAAC08DF0ABC08EF0ACC08FF02B
:10666800ADC090F019EC3AF01EE2E2D7000E8A6F46
:10667800AA0E22D8F9EC3AF0AAC089F0ABC08AF089
:10668800ACC08BF0ADC08CF08D6B8E6BB40E8F6F81
:10669800C30E906F19EC3AF0E9E3000E8A6FAA0E68
:1066A8000BD8F9EC3AF0AAC0A6F0ABC0A7F0ACC082
:1066B800A8F0ADC0A9F01200896F8B6B8C6BB40E7B
:1066C8008D6F430E8E6F430C41EC38F01D0E776FC3
:1066D800150E766FA4EC3CF0000E756B766B5EECD5
:1066E80039F05A82000157860DEC3EF0976F19D0A9
:1066F800C1EC39F089C099F08AC09AF08BC09BF040
:106708008CC09CF0000E8A6F990E896F8B6B8C6B16
:10671800A00E8D6F400E8E6FF9EC3AF0956B966B6C
:1067280009D09751030AE4E098699807000198296D
:10673800DBE0FBD70DEC3EF0976FC1EC39F089C078
:1067480091F08AC092F08BC093F08CC094F099C0FD
:1067580089F09AC08AF09BC08BF09CC08CF091C0E5
:106768008DF092C08EF093C08FF094C090F019EC29
:106778003AF0B8E306D0954B962B09D0956B966BFB
:1067880006D09751040AF7E0010AF8E0ABD7965112
:10679800800A800F090ED8B4955D06E298699807BB
:1067A80000019829C7E0FBD7756B766B010E5EEC8C
:1067B80039F000015A921200020E0301D46FD56B12
:1067C800D66BD76B050ED96FBE0ED86F5B0EDB6F1D
:1067D800E00EDA6F060EDC6F7A0EDD6FAB0EDE6F41
:1067E800EA0EDF6F510EE06F430EE16F9C0EE26F11
:1067F800190EE36F9C0EE46F3B0EE56F130EE86F06
:10680800880EE76F040EE66FE96BEA6B340EEB6FE8
:10681800430EEC6FED6BEE6BB40EEF6F420EF06F44
:10682800F26B200EF16FF46BF36FF66B400EF56FA1
:10683800F76BF86B8C0EF96F410EFA6FA20EFB6FB7
:106848000E0EFC6F6A0EFD6F3D0EFE6F0101006BB0
:10685800010E0001746F000E736F000E20EC3DF006
:10686800010E0001746F000E736F010E20EC3DF0F5
:10687800010E0001746F000E736F020E20EC3DF0E4
:10688800010E0001746F000E736F030E20EC3DF0D3
:10689800010E0001746F000E736F040E20EF3DF0BF
:1068A80006EE00F010EEFFF0EE6AE550E150FCE174
:1068B800E250FAE105EE00F010EEFFF0EE6AE55066
:1068C800E150FCE1E250FAE104EE00F0BD0EEE6AA0
:1068D800E806FDE103EEC8F0370EEE6AE806FDE1D2
:1068E80002EEC8F0180EEE6AE806FDE101EEE8F0E7
:1068F8000D0EEE6AE806FDE100EEE9F0090EEE6A1B
:10690800E806FDE15A6A596A586A576A00EE31F09A
:10691800260EEE6AE806FDE18C0EF66E7C0EF76E2A
:10692800000EF86E04EEBDF010EE04F00900F5CF8D
:10693800EEFFE550E150FAE1940EF66E7C0EF76E2C
:10694800000EF86E0900F5CFF5F1900EF66E7C0E8C
:10695800F76E000EF86E0900F5CFF2F00900F5CFDA
:10696800F3F0920EF66E7C0EF76E000EF86E0900CC
:10697800F5CF5BF00900F5CF5CF00001FCEF2CF0DF
:1069880000017C357D35826F826705D07A6B7B6B21
:106998007C6B7D6B1200000180358135886F8867BC
:1069A80005D07A6B7B6B7C6B7D6B120088517B0FFB
:1069B80082277DC088F000018151881B800E8817CE
:1069C8007C8F808F816B836B846B856B866B070EE6
:1069D800876F7AA102D07E512BD832D87E377F3785
:1069E80080378137872FF5D7110E876F7AA102D0AC
:1069F8007E511ED825D88633853384338333872F39
:106A0800F5D783C06BF084C06CF085C06DF086C08C
:106A18006EF082C06FF088C070F089EC35F06BC002
:106A28007AF06CC07BF06DC07CF06EC07DF0120017
:106A380083277F5184238051852381518623120027
:106A4800D8907D337C337B337A33D8901200746BC3
:106A580072AF0AD0721F711F701F6F6D000E702306
:106A680071237223010E746F6EAF0AD06E1F6D1FF3
:106A78006C1F6B6D000E6C236D236E23010E741B4F
:106A8800756B766B776B786B72516F117011711132
:106A980029E0010E736F06D0D8906F3770377137C1
:106AA8007237732B72AFF8D7D89075377637773738
:106AB80078376F516B5D70516C5971516D597251C6
:106AC8006E5909E36F516B5F70516C5B71516D5B6F
:106AD80072516E5B7581D8907233713370336F3336
