:040000000EEF00F00F
:0400080004EF08F009
:100018000CEF08F0D0EF02F0086E000E00010001AE
:10002800E46F0850086E000E00010001E06F0850F0
:10003800D388D38AD38C9B8C63EC02F0B2EC02F0A9
:1000480093969388938A928C928E010E026EF40E88
:10005800016EFCEC01F085B201D001D004D082A081
:1000680001D001D002D000EF08F093969398939AAC
:10007800929C929EF29E02D001D000D08EEC02F0AB
:1000880000010001E26F21D035D0FF00F7D7086EDC
:100098002F0E016E0850C7EC02F0F0D793969388A4
:1000A800939A928C929E086E580E016E0850C7EC77
:1000B80002F0E4D700EF08F0E1D7086E250E016ED4
:1000C8000850C7EC02F0DAD7D9D700010001E25195
:1000D800210AD8B40FD0020AD8B4D7D71C0AD8B48A
:1000E800D6D7670AD8B4DAD7200AD8B4E3D7E5D781
:1000F800C5D7C4D7F29E086E000E00010001E16F5B
:100108000850000E00010001E66F000E0001E76FC5
:10011800000E0001E86F000E0001E96F30EC02F0FC
:1001280000010001EA6F00010001EA29D8A401D00A
:1001380001D002D053D152D100010001EA39F00BAD
:1001480000010001E66F30EC02F000010001EA6FE7
:1001580000010001EA29D8A401D001D002D03ED183
:100168003DD100010001EA5100010001E62730EC11
:1001780002F000010001EA6F00010001EA29D8A499
:1001880001D001D002D02AD129D100010001EA39D9
:10019800F00B00010001E76F30EC02F000010001F4
:1001A800EA6F00010001EA29D8A401D001D002D0E9
:1001B80015D114D100010001EA5100010001E7271F
:1001C8000001070ED8900001E6370001E73700016B
:1001D800E8370001E937E82EF5D7086E000E000170
:1001E8000001E56F08507F0E00010001E56501D0B0
:1001F80001D002D048D047D030EC02F00001000115
:10020800EA6F00010001EA29D8A401D001D002D088
:10021800E5D0E4D0EAC0E3F00001E33BF00EE317D9
:1002280030EC02F000010001EA6F00010001EA2948
:10023800D8A401D001D002D0D1D0D0D00001000183
:10024800EA5100010001E32700010001E551010D19
:100258000001600EF324D96EDA6A0001000EDA227A
:100268000001E3C0DFFF00010001E35100010001CC
:10027800E12700010001E52B7F0E00010001E56583
:1002880001D001D0B9D7E6C0F6FFE7C0F7FFE8C054
:10029800F8FF7F8E7F9C7F847F88550E7E6EAA0E26
:1002A8007E6E7F8200F07F947FA601D001D002D0BD
:1002B80095D094D0E6C0F6FFE7C0F7FFE8C0F8FF96
:1002C80060C0F5FF0C00086E010E00010001E56F2B
:1002D80008507F0E00010001E56501D001D002D071
:1002E8001AD019D000010001E551010D0001600E7E
:1002F800F324D96EDA6A0001000EDA22DF50F56EB7
:100308000F0000010001E52B7F0E00010001E565EB
:1003180001D001D0E7D77F8E7F9C7F847F98550ED0
:100328007E6EAA0E7E6E7F8200F07F947FA601D03B
:1003380001D002D053D052D000010001E42B0001BB
:100348000001E46701D001D006D093869388938A90
:10035800928C928E3CD000010001E405D8A401D013
:1003680001D002D0939633D000010001E451020A73
:10037800D8A401D001D002D0939829D0000100015F
:10038800E451030AD8A401D001D002D0939A1FD017
:1003980000010001E451040AD8A401D001D002D020
:1003A800929C15D000010001E451050AD8A401D09F
:1003B80001D00DD0929E086E000E00010001E46F7E
:1003C800085005D004D003D002D001D000D0086E68
:1003D8002A0E016E0850C7EC02F050D6086E250EA2
:1003E800016E0850C7EC02F049D648D60EEF00F06F
:1003F800000E056E000E046E21D0000E076E000E72
:10040800066E0750800A7B0FAE0ED8B4065CD8A0E3
:1004180001D001D002D00FD00ED000F0064A072A32
:100428000750800A7B0FAE0ED8B4065CD8A001D066
:1004380001D0F3D700D0044A052A00D00550800A1D
:10044800036E0150045C0250800A0358D8A001D002
:1004580001D0D3D700D012008EEC02F0036E0366F1
:1004680001D001D003D0FF0E29D028D0300E036070
:1004780001D001D003D0FF0E21D020D0400E03645C
:1004880001D001D00FD0410E035E0A0E03260F0ED5
:10049800036401D001D003D0FF0E10D00FD0035059
:1004A8000DD00CD0300E035E090E036401D001D0CC
:1004B80003D0FF0E03D002D0035000D01200000E6C
:1004C800896EE00E926E000E8A6E3B0E936EF18E70
:1004D800000E8B6E810E946E000E8C6E400E956E23
:1004E800000E8D6E200E966E000E8E6EC20E976EEA
:1004F800000E8F6E000E986E000E0F010F01256F13
:10050800000E0F010F01246F000E0F010F01236F62
:10051800C2901200016E000E026E015016D0AB3070
:10052800E832010B016EAB30010B01100009D8B4A1
:1005380001D001D00AD0AB9800F0AB88AECF02F062
:10054800AECF02F0000E09D008D09EAA01D001D08B
:10055800E6D7AECF02F0025000D01200948E949CE1
:10056800AC846586659A659865926590000ED46E30
:10057800890EAF6EAC98AB8E9D98AC9CAC8A9D9A58
:10058800AB9CAB88120001D000F0ACA201D001D026
:0E059800FBD701C0ADFF1200000110EF00F014
:020000040030CA
:060000001418797C008851
:00000001FF
