:0410000094EF0CF06D
:10100800D9CF64F0DACF65F0F6CF66F0E3EF2FF0D2
:10101800D8CF19F0E8CF1AF0E0CF1BF0D9CF1CF0E9
:10102800DACF1DF0F6CF1EF0F7CF1FF0F8CF20F083
:10103800F5CF21F09E90010E0201D427000ED52392
:10104800000ED623000ED72300015BB601D001D0D5
:1010580008D0D4C2D8F2D5C2D9F2D6C2DAF2D7C2F1
:10106800DBF200015CA801D001D00FD00201D451FD
:10107800DC5DD551DD59D651DE59D751DF59D8B08D
:1010880001D001D002D000015C984C504B10D8B46C
:1010980001D001D008D04B06D8A04C0600015CA2B4
:1010A80001D001D003D00001599A02D00001598A19
:1010B800D8905636D89056368138E8461F0B030B21
:1010C80056120F0E5616BC0E5624F66EF76A190EF7
:1010D800F722F86A000EF8220800F550545E572AE5
:1010E8005728D8A401D001D004D0576A546A000107
:1010F8005A845450800A7D0FD8A001D001D00FD057
:10110800040E536E00015982C0C44BF0C1C44CF0A8
:101118000001598057C04FF0506A576A546A5450BA
:10112800800A820FD8B001D001D00FD0050E536EBF
:1011380000015982C0C44BF0C1C44CF00001598071
:1011480057C04FF0506A576A546A81B401D001D031
:1011580007D0514A522AC0C44BF0C1C44CF016D033
:10116800020E515C000E5258D8A001D001D00CD00C
:10117800C80E515C000E5258D8B001D001D004D02E
:10118800010E536E00015982516A526AB10E515CC8
:10119800040E5258D8A001D001D001D0FF0052044B
:1011A800900ED8B45118D8A401D001D004D0030EA1
:1011B800536E000159825150C80A5210D8A401D068
:1011C80001D004D0020E536E00015982000159A6C5
:1011D80001D001D009D000015992536A0001EE6B89
:1011E8000001599600015B9800015BB801D001D05D
:1011F80012D0000159A201D001D004D053C0EEF0A2
:101208000001599200015CAA01D001D004D000016C
:101218005C9A58C0EEF000015BB401D001D017D041
:10122800000159A001D001D012D00401280E552484
:10123800D96EDA6A040EDA224FC0DFFF552A0F0E84
:10124800556401D001D001D0556A000159900001C0
:101258005B80EAC133F0EBC134F0ECC135F0EDC18D
:1012680036F000015B9000015BAE01D001D0DED00A
:1012780000015A9A47500301CC5D4850CD59495056
:10128800CE594A50CF59D8B001D001D024D03B50C4
:101298000101EE5F3C50EF5B3D50F05B3E50F15B6F
:1012A8003B50EE5D3C50EF593D50F0593E50F159DE
:1012B800D8B001D001D060D0D0C3D0F2D1C3D1F220
:1012C800D2C3D2F2D3C3D3F2EE6BEF6BF06BF16BF8
:1012D80000015B9E51D03F500101EE5D4050EF5937
:1012E8004150F0594250F159D8B001D001D01CD02A
:1012F8003B50EE273C50EF233D50F0233E50F12366
:10130800EE513F5CEF514058F0514158F15142586D
:10131800D8B001D001D008D03FC0EEF140C0EFF105
:1013280041C0F0F142C0F1F1EE513F5CEF5140583D
:10133800F0514158F1514258D8B001D001D01CD0D9
:101348003B50EE5F3C50EF5B3D50F05B3E50F15B35
:101358003F50EE5D4050EF594150F0594250F1591D
:10136800D8B001D001D008D03FC0EEF140C0EFF1B5
:1013780041C0F0F142C0F1F10101EE510201C8276C
:101388000101EF510201C9230101F0510201CA23F1
:101398000101F1510201CB230101EE510201C85DA7
:1013A8000101EF510201C9590101F0510201CA5965
:1013B8000101F1510201CB59D8B001D001D008D0B8
:1013C800010ECC27000ECD23000ECE23000ECF2316
:1013D800CBC247F0CCC248F0CDC249F0CEC24AF0E9
:1013E80000015BAE01D001D0E1D000015CA001D0CA
:1013F80001D00ED04750435C0201D06F485044588A
:10140800D16F49504558D26F4A504658D36FCED005
:10141800435047240201D06F44504820D16F4550B3
:101428004920D26F46504A20D36FC0D000015AAA33
:1014380001D001D009D033C0D0F234C0D1F235C0C8
:10144800D2F236C0D3F2B2D000015CA401D001D0F0
:10145800ADD000015AA201D001D00AD000015A92A1
:10146800D4C33FF0D5C340F0D6C341F0D7C342F050
:101478003F500101EE5D4050EF594150F059425044
:10148800F159D8B001D001D020D000015A803B508A
:101498000101EE273C50EF233D50F0233E50F1234D
:1014A800EE513F5CEF514058F0514158F1514258CC
:1014B800D8B001D001D040D03FC0EEF140C0EFF12C
:1014C80041C0F0F142C0F1F137D0EE513F5CEF512D
:1014D8004058F0514158F1514258D8B001D001D08C
:1014E80029D000015A803B500101EE5D3C50EF5974
:1014F8003D50F0593E50F159D8B001D001D005D037
:10150800EE6BEF6BF06BF16B08D03B50EE5F3C502D
:10151800EF5B3D50F05B3E50F15B3F50EE5D40505D
:10152800EF594150F0594250F159D8B001D001D08B
:1015380003D0C2D700015A900101EE510201C82719
:101548000101EF510201C9230101F0510201CA232F
:101558000101F1510201CB230101EE510201C85DE5
:101568000101EF510201C9590101F0510201CA59A3
:101578000101F1510201CB59D8B001D001D008D0F6
:10158800010ECC27000ECD23000ECE23000ECF2354
:10159800CBC247F0CCC248F0CDC249F0CEC24AF027
:1015A80000015CA001D001D033D724D7C4CF37F0D5
:1015B800386A3750386E376AC3503726000E3822DB
:1015C800C2825D50375C266E5E503858276E040E16
:1015D800126E273427322632122EFBD726505D266C
:1015E80027505E2237505D5C38505E58D8B001D025
:1015F80001D002D05D4A5E2A5D50375C5E50385893
:10160800D8B001D001D003D05D06D8A05E06000195
:101618005ABE01D001D004D05DC0F2F15EC0F3F132
:101628000401B1515D5CB2515E58D8B001D001D00F
:1016380002D000015B8A33500301C85D296E345023
:10164800C9592A6E33C0C8F334C0C9F335C0CAF3C8
:1016580036C0CBF32AAE01D001D004D0296C2A1EA3
:10166800D8B02A2A0401B5C401F0026A29C003F0DF
:101678002AC004F0B0EC3FF001C037F002C038F0E7
:10168800B6513726000E3822000E375C010E385846
:10169800D8A001D001D004D0000E386EFF0E376EEE
:1016A8005DC012F05EC013F0040E146ED8901332B1
:1016B8001232142EFBD71250286EB3C401F0B4C4F2
:1016C80002F028C003F0046A04EC3DF001C024F0E5
:1016D80002C025F037C02BF038C02CF02D6A2E6AD6
:1016E80024C00DF025C00EF00F6A106A2B0EDFEC37
:1016F8003CF0060E126ED8902E322D322C322B3240
:10170800122EF9D7000E2B5C040E2C58000E2D5803
:10171800000E2E58D8A001D001D008D0FF0E2B6E95
:10172800030E2C6E000E2D6E000E2E6E335002012D
:10173800D05D2F6E3450D159306E3550D259316E3C
:101748003650D359326E0401CAC412F0CBC413F018
:10175800000E13BEFF0E146E156E1550800A166E1D
:101768002F50125C30501358315014583250800AA0
:101778001658D8B001D001D00ED024EECAF0DECF72
:101788002FF0DDCF30F0000E30BEFF0E316E326E1E
:1017980000015B8C37D024EECAF0DECF12F0DDCF2B
:1017A80013F0121E131E124A132A12C014F013C08B
:1017B80015F0000E15BEFF0E166E176E3250800A19
:1017C800186E14502F5C1550305816503158175059
:1017D800800A1858D8B001D001D014D024EECAF02D
:1017E800DECF12F0DDCF13F0121E131E124A132A99
:1017F80012C02FF013C030F0000E30BEFF0E316E55
:10180800326EC6D74D502F5C226E4E503058236E24
:101818002FC04DF030C04EF0CCC401F0CDC402F062
:101828002FC003F030C004F0B0EC3FF001C039F035
:1018380002C03AF0CEC401F0CFC402F022C003F0D7
:1018480023C004F0B0EC3FF00150392602503A2290
:101858003AAE01D001D007D08B908A80396C3A1EFD
:10186800D8B03A2A02D08B808A9039C012F03AC098
:1018780013F0000E13BEFF0E146E156E12502B5C83
:1018880013502C5814502D5815502E58D8B001D03C
:1018980001D004D02BC039F02CC03AF000015CA272
:1018A80001D001D00CD08B908A90396A3A6A33C043
:1018B800D0F234C0D1F235C0D2F236C0D3F23A50A9
:1018C800800A7D0F850ED8B4395CD8A001D001D02C
:1018D80004D0030E3A6EFF0E396E3950FF08396E88
:1018E8003A50D8A0E82A03083A6E3A343A323932E4
:1018F8003A343A32393239C0BCFF21C0F5FF20C032
:10190800F8FF1FC0F7FF1EC0F6FF1DC0DAFF1CC09E
:10191800D9FF1BC0E0FF1AC0E8FF19C0D8FF1000AC
:1019280033EF36F000000000000000000000000067
:10193800000000000000000000000000000000009F
:10194800000000000000000000000000000000008F
:101958000000000000010203040506070809000052
:1019680000000000000A0B0C0D0E0F000000000024
:1019780000000000000A0B0C0D0E0F000000000014
:10198800000000000000000000000000000000004F
:10199800000000000000000000000000000000003F
:1019A800000000003031323334353637383941429F
:1019B8004344454600FF0100010000FFFF0000010D
:1019C8000001FF004D4F564520544F205A45524FB5
:1019D8002044454752454553000020202020202020
:1019E80020202020202020202020202020000052FD
:1019F8004F544154494F4E20444952454354494F4E
:101A08004E3A000052554E4E494E473A20542D4802
:101A1800483A4D4D3A5353000054494D4520464FDE
:101A28005220414C4C204F524249545300004359D4
:101A3800434C4520434F554E543A303D494E462E6F
:101A480000004457454C4C204F4E20504F494E54AF
:101A58002023303000004D415820574159504F49FC
:101A68004E5453204841564500004D4F564520548A
:101A78004F204E45585420504F494E540000455869
:101A88005445524E414C204354524C204D4F4445EE
:101A980000004D4F56494E4720544F20504F494E55
:101AA80054202300002B58585858DF205448454EDE
:101AB80020434C49434B000041444420414E4F547D
:101AC80048455220504F494E543F005350454544D5
:101AD8003A2058582E5858DF2F536563000050524B
:101AE8004F4752414D20454E44204D4F44453A0002
:101AF80000434F554E54455220434C4F434B574992
:101B0800534500004457454C4C204F4E20504F49F8
:101B18004E54202300004D4F56494E4720544F2025
:101B28004F524947494E00004241545445525920AA
:101B3800564F4C544147453A00004D4F56452054A6
:101B48004F2053544152542E2E2E0000494E4649E0
:101B58004E4954452052554E54494D450000494E72
:101B680046494E495445204359434C455300005477
:101B7800494D4520504552204F524249543A0000A1
:101B88004D4F56494E4720544F205354415254000C
:101B9800004241545445525920564F4C54414745F0
:101BA80000004457454C4C204F4E2053544152544A
:101BB8000000544F54414C2052554E54494D453A1B
:101BC800000054494D4520504552204F5242495437
:101BD80000004259204F5242495420434F554E5419
:101BE800000043494E45464C5558204F52424954EF
:101BF8000000425920544F54414C2054494D45004F
:101C0800004F524249542052554E4E494E4700000B
:101C18005448454E20434C49434B2E2E2E0000522B
:101C280045414C54494D45204D4F444500005741CE
:101C380059504F494E54204D4F444500005452418D
:101C480056454C2054494D453A000050524553459D
:101C58005420534C4F543A00004F52424954205399
:101C6800504545443A00004F52424954204C494D92
:101C780049543A00004E4556455220454E44494E77
:101C880047000045585445524E414C204D4F44455D
:101C9800004457454C4C2054494D453A0000535494
:101CA8004F5050494E472E2E2E00005448454E2086
:101CB800434C49434B2E000052554E2050524F473B
:101CC80052414D0000205245562052454D41494E43
:101CD80000005341564520505245534554000031A9
:101CE8002E302E31343030392E350000474F2054F5
:101CF8004F20534C45455000004C4F4F50204D4FFE
:101D080044453F00004245454E2041444445440077
:101D1800002D4F524249542020202000002D454DCF
:101D28005054592020202000002D574159504F4928
:101D38004E542000004F52424954204D4F44450014
:101D48000052554E205052455345540000505245BC
:101D580053455420303100004F4E452D574159000E
:101D680000414354494F4E3A00004359434C4520E3
:101D78000000424F554E4345000020564F4C5453E7
:101D880000004D414E55414C00003C4E4F3E200056
:101D9800003C5945533E000053504545440000203F
:101DA8004F462000003C6D733E003C483E003C4DD1
:101DB8003E003C533E000000020EF66F1B0EA26F61
:101DC800010EA16F1A0EA46FF90EA36FA3C1BBF188
:101DD800A4C1BCF1A1C1BDF1A2C1BEF11D0EA66F87
:101DE8008A0EA56F1B0EA86FCF0EA76F1A0EAA6FCB
:101DF800260EA96FA5C1C3F1A6C1C4F1A7C1C5F13B
:101E0800A8C1C6F1A9C1C7F1AAC1C8F11B0EAC6F20
:101E1800DA0EAB6F1B0EAE6FFA0EAD6F1C0EB06F05
:101E28007D0EAF6FABC1B5F1ACC1B6F1ADC1B7F1C5
:101E3800AEC1B8F1AFC1B9F1B0C1BAF11C0EB26F01
:101E4800C00EB16F1C0EB46FDA0EB36FB1C1BFF123
:101E5800B2C1C0F1B3C1C1F1B4C1C2F11FEC3AF0D3
:101E68001B0E776F420E766F39EC3FF0756B010EE3
:101E78004DEC3BF01C0E776FB30E766F39EC3FF0EC
:101E880000015A8A96EC40F00101C96F5A9AC9AF0D
:101E980002D0C95112004DEC35F0A6C0AEF0A7C073
:101EA800AFF0A8C0B0F0A9C0B1F080EC38F0AEC077
:101EB800D9F3AFC0DAF3010E0001926FBB0E916F38
:101EC800010E936F190E956FF70E946FDCC396F0A1
:101ED800CFEC38F00101C96FC929C0E0C951FE0A29
:101EE80001E1FE0CC9BFD5D7C9C1DCF3010E000161
:101EF800926FB50E916F020E936F1A0E956FE60EE4
:101F0800946FDBC396F0CFEC38F00101C96FC92993
:101F1800D2E0C951FE0AE5E0C9BFBBD7C9C1DBF3AE
:101F280018D2E1C389F0E2C38AF0E3C38BF0E4C3BB
:101F38008CF000018D6B8E6B800E8F6F3F0E906F53
:101F480093EC3CF007E20301E16BE26B800EE36F78
:101F58003F0EE46F0001896BC00E8A6F790E8B6F9C
:101F6800440E8C6FE1C38DF0E2C38EF0E3C38FF0B3
:101F7800E4C390F093EC3CF008E20301E16BC00E7F
:101F8800E26F790EE36F440EE46F1C0E0101806F5F
:101F98006F0E7F6F190E826FF60E816F030E846FBE
:101FA800E10E836F856B866B800E876F3F0E886F9F
:101FB800896BC00E8A6F790E8B6F440E8C6F8D6B98
:101FC8008E6B800E8F6F3F0E906F66EC26F00101CE
:101FD800C96FC9298BE0C951FE0A83E0C9BF59D727
:101FE8000001896B8A6B800E8B6F3F0E8C6FE1C38B
:101FF8008DF0E2C38EF0E3C38FF0E4C390F093EC6E
:102008003CF010E2010E0001926FC30E916F020EB8
:10201800936F1C0E956F610E946FEDC396F0CFEC25
:1020280038F004D0010E49DACFEC38F00101C96F5D
:10203800C92901E176D7C951FE0A01E152D7C9BFC2
:1020480028D7A5D0FFD993EC3CF001E243DAC1D9F7
:1020580066EC26F00101C96FC929C2E0C951FE0A20
:1020680001E13FD77FD10ADA93EC3CF001E24BDA89
:102078001B0E0101806FCA0ED0D95CEC1EF0010165
:10208800C96FC929ADE0C951FE0A01E12AD700018B
:1020980005DA25EC38F04FD1E5C389F0E6C38AF0BC
:1020A800E7C38BF0E8C38CF000017E6B7F6B800E7A
:1020B800806F400E816FE1C37AF0E2C37BF0E3C327
:1020C8007CF0E4C37DF0A3EC36F07AC08DF07BC0E1
:1020D8008EF07CC08FF07DC090F093EC3CF00BE26A
:1020E80003DAA3EC36F07AC0E5F37BC0E6F37CC0F4
:1020F800E7F37DC0E8F3F8D9A3EC36F07AC09DF198
:102108007BC09EF17CC09FF17DC0A0F11A0E010139
:10211800806F210E7F6F030E826FE50E816F9DC168
:1021280083F19EC184F19FC185F1A0C186F19CD93C
:102138005CEC1EF00101C96FC92901E151D7C951F1
:10214800FE0A01E1CED600017E6B7F6BB40E806F74
:10215800430E816FE1C37AF0E2C37BF0E3C37CF006
:10216800E4C37DF0A3EC36F07AC089F07BC08AF036
:102178007CC08BF07DC08CF0E5C38DF0E6C38EF09B
:10218800E7C38FF0E8C390F025EC38F0D4D0C951FC
:1021980001E158D7010A01E166D7030A01E17CD7BA
:1021A800E1D01B0E0101806FBA0E7F6F030E826FA4
:1021B800DD0E816F836B846B800E856F3F0E866F9B
:1021C80053D95CEC1EF00101C96FC92901E18ED613
:1021D800C951FE0A01E185D6C9BF5BD6010E6DD98A
:1021E800CFEC38F00101C96FC929DBE0C951FE0AFB
:1021F80001E177D6C9BF4DD632D024D993EC3CF053
:1022080001E268D9E6D866EC26F00101C96FC92950
:10221800E5E0C951FE0A01E164D625D02FD993EC37
:102228003CF001E270D91B0E0101806F770EF5D8E2
:102238005CEC1EF00101C96FC929D0E0C951FE0A42
:1022480001E14FD600012AD925EC38F089C0E9F31D
:102258008AC0EAF38BC0EBF38CC0ECF304D0C9510D
:10226800CCE0010ADBE0DDC37EF0DEC37FF0DFC334
:1022780080F0E0C381F0E9C37AF0EAC37BF0EBC3F6
:102288007CF0ECC37DF0A3EC36F07AC089F07BC01B
:102298008AF07CC08BF07DC08CF08D6B8E6BB40E99
:1022A8008F6F430E906F25EC38F089C0E1F38AC038
:1022B800E2F38BC0E3F38CC0E4F354D0010EFDD8F5
:1022C800CFEC38F00101C96FC92901E10FD6C95116
:1022D800FE0A01E106D6C9BFDCD536D0B3D893ECE7
:1022E8003CF001E2F7D875D866EC26F00101C96F19
:1022F800C929E4E0C951FE0A01E1F3D5C9BFC9D52E
:1023080031D0BCD893EC3CF001E2FDD81B0E0101A2
:10231800806F770E82D85CEC1EF00101C96FC92965
:10232800CDE0C951FE0A01E1DCD5C9BFB2D5000133
:10233800B5D825EC38F089C0E9F38AC0EAF38BC038
:10234800EBF38CC0ECF30ED0C951C8E0010AD9E018
:1023580009D00301DB5101E1E4D5010A01E121D7EC
:10236800030AACE0010E0001926FBF0E916F010EDF
:10237800936F1D0E956F690E946F000E966BCFECE0
:1023880038F00101C96FC92901E1CBD5C951FE0A4D
:1023980001E1A7D5C9BF7DD5C96702D08BEF24F06D
:1023A8000AEC37F00101C96FC929DCE0C951FE0AFE
:1023B80001E197D5C9BF6DD5020E0301D86F030E91
:1023C8000001736FD80E726F0101C95147EC40F0DC
:1023D800C9D71D0E0101806FA00E7F6F1A0E826F84
:1023E800DF0E816F030E846FE90E836F0A0E856F0F
:1023F800D70E866F230E876F3C0E886F896B8A6BAA
:10240800B40E8B6F420E8C6F0A0E8D6FD70E8E6FC7
:10241800230E8F6F3C0E906F3C0C7F6F030E826F04
:10242800E50E816F836B846B800E856F400E866F1F
:10243800876BC00E886FA80E896F470E8A6F0E0EC5
:102448008B6F0E0CE9C389F0EAC38AF0EBC38BF0FB
:10245800ECC38CF00A0E00018D6FD70E8E6F230E21
:102468008F6F3C0E906F3C0C876BC00E886FA80E68
:10247800896F470E8A6F0E0E8B6F0E0CE5C389F0BD
:10248800E6C38AF0E7C38BF0E8C38CF000018D6BDC
:102498008E6B800E8F6F400E906F400C896B8A6B2D
:1024A800B40E8B6F430E8C6FE5C38DF0E6C38EF0D0
:1024B800E7C38FF0E8C390F0430C0001926FC30E9E
:1024C800916F010E936F1C0E956F610E946FEDC3A3
:1024D80096F012000A0E0301E96FD70EEA6F230E79
:1024E800EB6F3C0EEC6F3C0CE1C37AF0E2C37BF07F
:1024F800E3C37CF0E4C37DF07E6B7F6B800E806F5E
:10250800400E816F400C0301E56BE66B800EE76FB0
:10251800400EE86F400C080EF66F536B526B5988EB
:102528000101546B516B1FEC3AF01C0E776F8B0E48
:10253800766F39EC3FF0A8EC40F0D76FD751030A1B
:1025480001E1A5D250D05B9E5A9A5C9457D007DB24
:102558005AB2FED75AB002D00101546B5BBE03D009
:10256800010E0101546F5BBE49D001015351020DA8
:1025780015DB0001DECF71F0DDCF72F05BEC40F0CF
:102588000101532B040E2DD05CB838D001015251F3
:10259800536302D0010E25D05351020DF8DA000121
:1025A800DECF75F0DDCF76F0CAEC3EF075C04DF1A8
:1025B80076C04EF177C04FF178C050F10101535108
:1025C800020DD7DA0001DECF75F0DDCF76F0F2EC40
:1025D8003FF083DA73EC2CF067DA1FEC3FF0030E60
:1025E8000101546F0BD001015451ADE0010AAFE075
:1025F800030AB4E0010AB7E0070AC6E0000159AED1
:102608009AD70101F46B010E0001EC6F0001599E8D
:1026180028EC3EF00101F7198EE128EC3EF00101AB
:10262800556F1DD228EC3EF00101566F28EC3EF0A4
:102638000101576F28EC3EF00101586F28EC3EF07D
:102648000101596F56C138F157C139F158C13AF1F2
:1026580059C13BF16DDA28EC3EF00101566F28ECC8
:102668003EF00101576F28EC3EF00101586F28EC4D
:102678003EF00101596F56C13CF157C13DF158C1B7
:102688003EF159C13FF154DA28EC3EF00101566F92
:1026980028EC3EF00101576F28EC3EF00101586F1D
:1026A80028EC3EF00101596F56C140F157C141F184
:1026B80058C142F159C143F13BDA28EC3EF001011F
:1026C800F41906E1010E516F5551C6EC3FF033D7AE
:1026D80057DA05EC3FF02FD7516708D0010E0001FB
:1026E8006D6F0101555105EC3FF025D7545108E0B5
:1026F800020E00016D6F0101555105EC3FF01BD72B
:1027080038C1B8F039C1B9F03AC1BAF03BC1BBF031
:102718003CC1BCF03DC1BDF03EC1BEF03FC1BFF001
:1027280040C1C0F041C1C1F042C1C2F043C1C3F0D1
:102738007AEC20F00101516B020E546F5551C6EC32
:102748003FF0F9D6545102E0010E546F5551C6ECD2
:102758003FF0F1D6F56BE1EC1DF0240EDF6EF52BA2
:1027680055514AEC3EF054514AEC3EF05451F4278E
:1027780051514AEC3EF05151F4270EEC3CF0BDECBF
:102788003DF075C056F176C057F177C058F178C062
:1027980059F15B90D6D973EC3DF0010156514AECE2
:1027A8003EF057514AEC3EF058514AEC3EF0595130
:1027B8004AEC3EF0ABD9566B576B586B596B12D03D
:1027C800EEC175F0EFC176F0F0C177F0F1C178F0A5
:1027D8006BEC3FF075C056F176C057F177C058F1F1
:1027E80078C059F1EEC175F0EFC176F0F0C177F01D
:1027F800F1C178F06BEC3FF00101595100017819F3
:102808000EE1010158510001771909E10101575101
:102818000001761904E10101565100017519D0E152
:10282800010E00018A6F560E1FEC1EF073EC3DF08E
:1028380088D973EC3DF0010156514AEC3EF05751EE
:102848004AEC3EF058514AEC3EF059514AEC3EF001
:102858005DD900015B86D8C275F0D9C276F0DAC2BC
:1028680077F0DBC278F06BEC3FF075C056F176C0BC
:1028780057F177C058F178C059F15B96010E000105
:102888008A6F560E896F6F0E8B6F120E8C6F030E48
:102898008D6F3B0E8E6F73EC3DF0010156514AEC83
:1028A8003EF057514AEC3EF058514AEC3EF059512F
:1028B8004AEC3EF02BD900015A8EF2C175F0F3C1F3
:1028C80076F0F2EC3FF075C056F176C057F177C05C
:1028D80058F178C059F15A9E010E00018A6F560EC0
:1028E800896FBBC48BF0BCC48CF0BDC48DF0BEC472
:1028F8008EF073EC3DF0010156514AEC3EF0575111
:102908004AEC3EF058514AEC3EF059514AEC3EF040
:10291800FDD8F4514AEC3EF0E1EC1DF0230EDF6ED9
:10292800F52BF5C14CF1F56B4CC1EDF004D65451C3
:10293800030A03E05451040A08E1010E00016D6F17
:102948000101555105EC3FF0F6D5536B526B5551CB
:10295800C6EC3FF0F0D55451030A03E05451040A81
:1029680008E1010E00016D6F0101555105EC3FF0C2
:10297800E2D5630E526508D0020E00016D6F0101A9
:10298800555105EC3FF0D7D528EC3EF00101566FC4
:1029980028EC3EF0C4D8FBD856C1DEFF57C1DDFF96
:1029A80028EC3EF00101566F28EC3EF0B8D8E1D88B
:1029B80056C1DEFF57C1DDFF28EC3EF00101566F1E
:1029C80028EC3EF0ACD8EAD856C1DEFF57C1DDFF8F
:1029D80028EC3EF00101F41906E15551C6EC3FF030
:1029E8000101522BA8D5CCD805EC3FF0A4D5545101
:1029F80008E0010E00016D6F0101555105EC3FF033
:102A08009AD5536B00C375F001C376F0CAEC3EF05B
:102A180075C04DF176C04EF177C04FF178C050F1D6
:102A280000C775F001C776F0F2EC3FF056D873ECAA
:102A38002CF03AD81FEC3FF0030E0101546F5551AA
:102A4800C6EC3FF078D55551C6EC3FF020D0FE0ECD
:102A580000016D6F0101555105EC3FF06CD55551E2
:102A6800600A01E1DFD5010A01E136D6030A01E176
:102A780069D6010A01E16ED6070A01E158D7010AB1
:102A880001E169D7030AB3E0E60ADDE0E0D767D8D9
:102A980006D001014C694C0701014C29FCE15AB0F0
:102AA800F8D700015998000CB7C044F1B8C045F1F7
:102AB800B9C046F1BAC047F14DC130F14EC131F14C
:102AC8004FC132F150C133F144C134F145C135F140
:102AD80046C136F147C137F1120075C048F176C0DA
:102AE80049F177C04AF178C04BF14DC1B7F04EC1FA
:102AF800B8F04FC1B9F050C1BAF048C1BBF049C1F4
:102B0800BCF04AC1BDF04BC1BEF012005651F427CB
:102B18005751F4275851F4275951F427120001014D
:102B2800576F5651F4275751F4275251020D12008E
:102B38005951F4275851F4275751F4275651F4277F
:102B48001200010E00018A6F560E896FD4C48BF0F3
:102B5800D5C48CF0D6C48DF0D7C48EF012005B9E1D
:102B68005A9A5C840301D46BD56BD66BD76B5A82A7
:102B78001200000EF324D96EDA6A070EDA22120068
:102B8800516BFA0E00016D6F010155511200000ED4
:102B9800F324D96EDA6A030EDA221200000EF32447
:102BA800D96EDA6A020EDA221200040EF66FB46BDE
:102BB800B56BB66BB76BA96B04013B6B1D0E0101BE
:102BC800966F600E956F1D0E986F7A0E976F95C170
:102BD8009DF196C19EF197C19FF198C1A0F11C0E7D
:102BE8009A6FC00E996F1C0E9C6FDA0E9B6F99C17D
:102BF800A1F19AC1A2F19BC1A3F19CC1A4F1B86B48
:102C0800B96BBA6BBB6BC26BC36BC46BC56BB26B76
:102C1800B36BAE6BAF6BB06BB16BAA6BAB6BAC6BE2
:102C2800AD6BBE6BBF6BC06BC16BC66B1FEC3AF074
:102C38001B0E776F420E766F39EC3FF0756B010E05
:102C48004DEC3BF01C0E776FB30E766F39EC3FF00E
:102C580000015A8A96EC40F00101C76FC7AF02D055
:102C6800C751120000015A9A4DEC35F0A6C0AEF0DB
:102C7800A7C0AFF0A8C0B0F0A9C0B1F080EC38F0A0
:102C8800AEC039F4AFC03AF4EAEC3BF08FC0A5F11E
:102C980090C0A6F191C0A7F192C0A8F178DA5CECD7
:102CA8001EF00101C76FC751FE0A01E1FE0CC729DA
:102CB800A6E0C7BFD5D7BEC1AEF0BFC1AFF0C0C197
:102CC800B0F0C1C1B1F080EC38F0AEC087F4AFC04D
:102CD80088F4CED11FEC3AF01A0E776F720E766F29
:102CE80039EC3FF0756B010E4DEC3BF01A0E776F27
:102CF800AD0E766F39EC3FF05A8A598602D0E1EC76
:102D08001BF0000159B6FBD70101C76B96D0E1EC67
:102D18001BF0EAEC3BF08FC0AAF190C0ABF191C078
:102D2800ACF192C0ADF1AAC198F0ABC199F0ACC1B9
:102D38009AF0ADC19BF0A5C19CF0A6C19DF0A7C1BA
:102D48009EF0A8C19FF0E8EC3EF098C0AEF199C0A3
:102D5800AFF19AC0B0F19BC0B1F1AEC1AEF0AFC156
:102D6800AFF0B0C1B0F0B1C1B1F080EC38F0AEC096
:102D7800B2F1AFC0B3F1756B010E4DEC3BF0B2C1CF
:102D880079F00001B3C17AF0000E7ABFFF0E7B6FB5
:102D98007C6F040E7D6F010E7E6F33EC28F05B882C
:102DA800EEC0C7F15B980101C751030A03E10001B6
:102DB8005A9AFE0CC751020A07E15A9A0101C667DE
:102DC80001D01DD7C60786D7C751050A18E159860D
:102DD8005A9A0101306B316B800E326FBF0EEDD9FC
:102DE8001FEC3FF002D0E1EC1BF000015BBEFBD70B
:102DF8005A8A02D0E1EC1BF0000159B6FBD7010159
:102E0800C751040A17E159865A9A306B316B800E04
:102E1800326F3F0ED2D91FEC3FF002D0E1EC1BF02D
:102E280000015BBEFBD75A8A02D0E1EC1BF000011F
:102E380059B6FBD70101C7BF13D7C70501E067D74C
:102E48005A9A0101C651020D3F0EF324D96EDA6A6F
:102E5800040EDA22B2C1DEFFB3C1DDFFAEC1B7F0A6
:102E6800AFC1B8F0B0C1B9F0B1C1BAF0ACEC29F05B
:102E7800B7C0C2F1B8C0C3F1B9C0C4F1BAC0C5F196
:102E8800C2C1AEF0C3C1AFF0C4C1B0F0C5C1B1F0AA
:102E980080EC38F0AEC0BCF1AFC0BDF1010E00014E
:102EA800A16FC20EA06FBCC175F0BDC176F0F2EC87
:102EB8003FF075C0A2F076C0A3F077C0A4F078C048
:102EC800A5F098EC3DF0000E896B8A6B8B6B8C6BD0
:102ED800C2C18DF0C3C18EF0C4C18FF0C5C190F0DE
:102EE80093EC3CF00DE2010E0101BC250001756F69
:102EF800000E0101BD210001766FF2EC3FF006D013
:102F0800BCC175F0BDC176F0F2EC3FF075C0C2F1FE
:102F180076C0C3F177C0C4F178C0C5F11C0E0101B9
:102F2800806F450E7F6F010E826FB80E816FC2C130
:102F380083F1C3C184F1C4C185F1C5C186F1876B32
:102F480088697F0E896F470E8A6F0E0E8B6F5CEC57
:102F58001EF00101C76FC751FE0A01E1A7D6C729B4
:102F680001E1B8D6C7BF7CD6B8C1AEF0B9C1AFF0E1
:102F7800BAC1B0F0BBC1B1F080EC38F00101C65164
:102F8800020D630EF324D96EDA6A040EDA22AEC09B
:102F9800DEFFAFC0DDFFFBD85CEC1EF00101C76FA0
:102FA800C751FE0A01E182D6C729B8E0C7BF58D683
:102FB800BEC1AEF0BFC1AFF0C0C1B0F0C1C1B1F089
:102FC80080EC38F00101D890C6350001E56F890E14
:102FD800E525D96EDA6A040EDA22AEC0DEFFAFC08C
:102FE800DDFF0101C651800A6F0F24E21A0E0001AD
:102FF800926FC00E916F010E936F14EC39F00101BE
:10300800C76FC751FE0A01E151D6C729C4E0C76797
:1030180002D0010EA96FC7050AE1C62BAAC1A5F106
:10302800ABC1A6F1ACC1A7F1ADC1A8F153D6C7BFDA
:1030380017D61ED01FEC3AF01A0E776F5E0E766F19
:1030480039EC3FF0756B010E4DEC3BF01D0E776FC0
:103058000D0E766F39EC3FF096EC40F00101C76F2A
:10306800C751FE0A01E122D6C72995E0010EA96FD2
:103078000101A95101E12ED6C6C13BF4010E0001A0
:10308800926F9D0E916F010E936F1D0E956F010E3D
:10309800946F3CC496F0CFEC38F00101C76FC72994
:1030A80001E179D7C751FE0A01E100D6C7BFD8D5DB
:1030B800C7C13CF41A0E806F360E7F6F1B0E826FED
:1030C8006E0E816F010E846FB40E836F856B866BF5
:1030D800876B886B896BC00E8A6F790E8B6F440E75
:1030E8008C6F8D6B8E6B800E8F6F3F0E906F66ECC2
:1030F80026F00101C76FC729C1E0C751FE0A01E1E7
:10310800D5D5C7BFADD5B4C1AEF0B5C1AFF0B6C166
:10311800B0F0B7C1B1F080EC38F0AEC03DF4AFC04C
:103128003EF4010E0001926FA10E916F010E936F94
:103138001D0E956F690E946F000E966BCFEC38F0EC
:103148000101C76FC729B6E0C751FE0A01E1AED534
:10315800C7BF86D5C76702D0E9EF18F00AEC37F089
:103168000101C76FC729DDE0C751FE0A01E19ED5FD
:10317800C7BF76D5010E0401386F040E0001736FC6
:10318800380E726F0101C75147EC40F0CAD71C0EC8
:103198000101806F990E7F6F010E826FBE0E816FE5
:1031A800836B846B856B866B876B88697F0E896FF1
:1031B800470E8A6F0E0E8B6F0E0C336F346B356BA8
:1031C800B40E366F420E376F420C0101906B050E3C
:1031D800F66F8F6B926B010E916F1FEC3AF01B0E1E
:1031E800776F880E766F39EC3FF039C475F03AC4C2
:1031F80076F0F2EC3FF056EC26F01CEC2BF011D0F8
:10320800E1EC1BF0A8EC40F00101946F9451030A23
:1032180003E1FE0E906F7ED294AF03D094C190F17B
:1032280079D200015BBEECD71FEC3AF01B0E776F2A
:10323800AA0E766F39EC3FF087C471F088C472F03B
:103248005BEC40F00BD0E1EC1BF0A8EC40F0010186
:10325800946F9451030ADDE094BFE0D700015CB895
:10326800F2D701018F5103E03BC493F1A3D1936BD3
:10327800A1D19351020D3F0EF324D96EDA6A040EE0
:10328800DA220001DECF75F0DDCF76F0CAEC3EF031
:1032980075C08BF176C08CF177C08DF178C08EF156
:1032A80001019351020D630EF324D96EDA6A040EFC
:1032B800DA220001DECF75F0DDCF76F0F2EC3FF0D8
:1032C80075C07FF176C080F177C081F178C082F156
:1032D8008BC1B7F08CC1B8F08DC1B9F08EC1BAF00E
:1032E8007FC1BBF080C1BCF081C1BDF082C1BEF01E
:1032F80073EC2CF0B7C087F1B8C088F1B9C089F178
:10330800BAC08AF101018F5101E1B3D01FEC3AF044
:103318001A0E776F9A0E766F39EC3FF040DA33EC7D
:1033280028F0756B010E4DEC3BF004013E513D1148
:1033380008E11B0E0001776F660E766F39EC3FF0DF
:1033480013D01D0E0001776F720E766F39EC3FF0C7
:1033580006DA33EC28F01D0E776FA70E766F39EC7E
:103368003FF0F2D933EC28F08BC16BF08CC16CF0D4
:103378008DC16DF08EC16EF083EC40F06BC083F1AF
:103388006CC084F16DC085F16EC086F183C130F1E7
:1033980084C131F185C132F186C133F187C134F17D
:1033A80088C135F189C136F18AC137F11FEC3FF088
:1033B8000CD0E1EC1BF0A8EC40F00101946F9451A3
:1033C800030A01E126D794BF29D700015BBEF1D7D4
:1033D8001FEC3AF01B0E776F0C0E766F39EC3FF04E
:1033E800DED933EC28F0756B010E4DEC3BF004018F
:1033F8003E513D1108E11B0E0001776F660E766F96
:1034080039EC3FF013D01D0E0001776F720E766F06
:1034180039EC3FF0A4D933EC28F01D0E776FA70ED6
:10342800766F39EC3FF090D933EC28F001019351D5
:10343800020D870EF324D96EDA6A040EDA2200012F
:10344800DECF71F0DDCF72F05BEC40F00CD0E1EC38
:103458001BF0A8EC40F00101946F9451030A01E1BC
:10346800D8D694BFDBD600015CB8F1D70101930729
:10347800A1D01FEC3AF01A0E776F9A0E766F39ECDE
:103488003FF078D933EC28F0756B010E4DEC3BF02A
:1034980004013E513D1108E11B0E0001776F660ED5
:1034A800766F39EC3FF013D01D0E0001776F720E66
:1034B800766F39EC3FF053D933EC28F01D0E776F57
:1034C800A70E766F39EC3FF03FD933EC28F08BC16B
:1034D80030F18CC131F18DC132F18EC133F187C128
:1034E80034F188C135F189C136F18AC137F11FEC51
:1034F8003FF00CD0E1EC1BF0A8EC40F00101946F18
:103508009451030A01E185D694BF88D600015BBEB9
:10351800F1D71FEC3AF01B0E776F0C0E766F39EC73
:103528003FF028D933EC28F0756B010E4DEC3BF0D9
:1035380004013E513D1108E11B0E0001776F660E34
:10354800766F39EC3FF013D01D0E0001776F720EC5
:10355800766F39EC3FF003D933EC28F01D0E776F06
:10356800A70E766F39EC3FF0EFD833EC28F0010165
:10357800D89093350001E06F890EE025D96EDA6A9C
:10358800040EDA22DECF71F0DDCF72F05BEC40F092
:103598000CD0E1EC1BF0A8EC40F00101946F9451C1
:1035A800030A01E136D694BF39D600015CB8F1D7D9
:1035B8000101932B93BF0BD004013B51D880D884D1
:1035C800010193AF935DD8A0D88401E152D60401DC
:1035D8003C5107E001018F51010ED8A4000E8F6FF6
:1035E80088D001018F6B1FEC3AF01B0E776F1E0E0F
:1035F800766F39EC3FF0756B010E4DEC3BF0040132
:103608003E513D1108E11B0E0001776F660E766F83
:1036180039EC3FF013D01D0E0001776F720E766FF4
:1036280039EC3FF09CD833EC28F01D0E776FA70ECD
:10363800766F39EC3FF088D833EC28F039C475F050
:103648003AC476F0F2EC3FF056EC26F01CEC2BF086
:103658000CD0E1EC1BF0A8EC40F00101946F945100
:10366800030A01E1D6D594BFD9D500015BBEF1D7D5
:103678001FEC3AF01A0E776F4A0E766F39EC3FF06E
:10368800756B010E4DEC3BF004013E513D1108E114
:103698001B0E0001776F660E766F39EC3FF013D082
:1036A8001D0E0001776F720E766F39EC3FF057D818
:1036B80033EC28F01D0E776FA70E766F39EC3FF0CC
:1036C80043D833EC28F087C471F088C472F05BECFF
:1036D80040F00CD0E1EC1BF0A8EC40F00101946F35
:1036E8009451030A01E195D594BF98D500015CB8BF
:1036F800F1D704013E513D1101E1B3D50101914BD0
:10370800922B915104013D5D0101925104013E59F2
:1037180001E3A7D55B9E00015A8A1FEC3AF01C0E04
:10372800776FA60E766F39EC3FF0E1EC1BF05B9EED
:103738005A8A010E0001916FF40E906FB7EC40F0B9
:103748005A9A0101905112003DC479F000013EC41B
:103758007AF07B6B7C6B030E7D6F7E6B000C91C1E6
:1037680079F0000192C17AF07B6B7C6B030E7D6F60
:103778007E6B000C93C1E0F00001E16BE0BFE10754
:10378800E02B000EE123E0C079F0E1C07AF07ABFC7
:10379800FF0E7B6F7C6F020E7D6F7E6B000C01014C
:1037A80093510001796F000E79BFFF0E7A6F7B6F1E
:1037B8007C6F020E7D6F7E6B000C59A808D001014A
:1037C8007A697A0701017A29D8B41200FAD759BE62
:1037D80008D001017A697A0701017A29D8B4120060
:1037E800FAD70101F46B010E0001EC6F0001599E3C
:1037F80028EC3EF00101F719D8A4120028EC3EF09D
:103808000101796FB0D1F56BD8D9240EDF6EF52B95
:1038180079514AEC3EF07A6B140E2BDA4AEC3EF002
:1038280012DA7A65F9D77A6B000E010134DA4AECBC
:103838003EF014DA7A65F8D700015B80EAC175F0CA
:10384800EBC176F0ECC177F0EDC178F0BDEC3DF05E
:1038580075C07BF176C07CF177C07DF178C07EF1D0
:103868005B90B3D973EC3DF001017B514AEC3EF01B
:103878007C514AEC3EF07D514AEC3EF07E514AECD8
:103888003EF0C9D910DA0BD0EEC175F0EFC176F071
:10389800F0C177F0F1C178F06BEC3FF0F3D9EEC1ED
:1038A80075F0EFC176F0F0C177F0F1C178F06BEC0C
:1038B8003FF001017E51000178190EE101017D51AF
:1038C8000001771909E101017C510001761904E131
:1038D80001017B5100017519D7E1010E00018A6FC2
:1038E8007B0EA9D973EC3DF070D973EC3DF0010162
:1038F8007B514AEC3EF07C514AEC3EF07D514AEC5B
:103908003EF07E514AEC3EF086D900015A8EF2C153
:1039180075F0F3C176F0F2EC3FF072D964D973EC2C
:103928003DF001017B514AEC3EF07C514AEC3EF0FF
:103938007D514AEC3EF07E514AEC3EF06CD9F45190
:103948004AEC3EF03AD9230EDF6EF52BF5C17AF139
:10395800F56B7AC1EDF01200F56B2FD9240EDF6EEE
:10396800F52B79514AEC3EF07A6B140E82D94AEC69
:103978003EF069D97A65F9D77A6B000E01018BD9C7
:103988004AEC3EF06BD97A65F8D7F4514AEC3EF030
:10399800D9D75C9A010E11D05C9A030E0ED05C9AAE
:1039A800020E0BD05C9A040E08D05C9A050E05D066
:1039B80000015C9A28EC3EF00008586E5C8AC5D07D
:1039C800F56BFBD8240EDF6EF52B79514AEC3EF0EF
:1039D800F6514AEC3EF0F6514AEC3EF0B3D70EEC05
:1039E8003CF0BDEC3DF075C07BF176C07CF177C052
:1039F8007DF178C07EF15B90E8D873EC3DF07BC137
:103A08006DF07CC16EF07DC16FF07EC170F079C140
:103A180071F05FEF3AF047D90BD0EEC175F0EFC106
:103A280076F0F0C177F0F1C178F06BEC3FF02AD96D
:103A3800EEC175F0EFC176F0F0C177F0F1C178F022
:103A48006BEC3FF001017E51000178190EE1010194
:103A58007D510001771909E101017C5100017619B6
:103A680004E101017B5100017519D7E1010E000144
:103A78008A6F7B0EE0D873EC3DF0A7D873EC3DF06D
:103A8800BED700015A8EF2C175F0F3C176F0F2ECA0
:103A98003FF0B6D8A8D873EC3DF0B1D728EC3EF08B
:103AA8000101006F040E006501D02ED0010E000147
:103AB800726F010E716F010100516FEC40F001014E
:103AC800F56B000EF525D96EDA6A050EDA22240E9A
:103AD800DF6EF52B79514AEC3EF07A6BA5D8DF50B2
:103AE8004AEC3EF0A1D8DF50F4277A2B770E7A659E
:103AF800F5D7F4514AEC3EF025D728EC3EF0010109
:103B0800006F040E006502D0010E24D00051F42786
:103B18007A6B28EC3EF08F6F010186D88FC0DFFFEB
:103B280083D8DF50F4277A2B770E7A65F2D728EC02
:103B38003EF00101F4190DE1010E0001736F010E51
:103B4800726F0101005147EC40F001017951C6EF55
:103B58003FF0FA0E00016D6F02D000016D6901019E
:103B6800795105EF3FF07951010AC7E0030A96E061
:103B7800120A01E1F1D6010A01E10BD7030A01E1BA
:103B88000ED7010A01E108D7070A01E10BD7010A9C
:103B980001E10BD7030A01E122D7010A01E13BD772
:103BA8000F0A01E16ED7010A01E102D7030A01E118
:103BB80007D7010A01E127D6D0D7000E0101F52564
:103BC800D96EDA6A050EDA221200010E00018A6F38
:103BD8007B0E896FD4C48BF0D5C48CF0D6C48DF01D
:103BE800D7C48EF0120000018A6F7B0E896FBBC4A8
:103BF8008BF0BCC48CF0BDC48DF0BEC48EF0120036
:103C080075C07BF176C07CF177C07DF178C07EF11C
:103C18005A9E010E12007B51F4277C51F4277D51E6
:103C2800F4277E51F4271200010E7A25D96EDA6A3C
:103C3800010EDA221200896F8B6B8C6BFA0E8D6F76
:103C4800370E8E6F370C140E01017A25D96EDA6A99
:103C5800040EDA22DF50F4277A2B130C000E010130
:103C68007A25D96EDA6A040EDA22DF50F4277A2B25
:103C7800130C01017A25D96EDA6A0401040EDA22DE
:103C8800DF50120075C07BF176C07CF177C07DF102
:103C980078C07EF112007A25D96EDA6A0401040E22
:103CA800DA22DF5012007B6B7C6B7D6B7E6B12001F
:103CB80081C1D9FF82C1DAFF0001DECFE1F0DECF9A
:103CC800E2F0DECFE3F0DECFE4F0E1C0B8F0E2C02E
:103CD800B9F0E3C0BAF0E4C0BBF0000EBD6FDF0E70
:103CE800BC6F000EBF6FDE0EBE6F000EC16FDD0E23
:103CF800C06F000EC36FDB0EC26FDCEC30F0010149
:103D08008BB702D00001DF6B01018BB502D0000137
:103D1800DE6B01018BB302D00001DD6B01018BB1B9
:103D280003D00001DB6BDC6BDEC08FF0DDC090F0F0
:103D3800DBC091F0DCC092F00001DF51B0EC33F051
:103D48008FC0E1F090C0E2F091C0E3F092C0E4F0DF
:103D5800A3D993EC3CF001E2B9D98DD993EC3CF0AE
:103D680001E2ABD901018BA75BD01FEC3AF07FC110
:103D780076F080C177F039EC3FF01D0E776FB20E08
:103D8800766F39EC3FF0756B010E4DEC3BF0190E78
:103D9800776FE20E766F39EC3FF0756B010E4DECE4
:103DA8003BF0E1C0D0F0E2C0D1F0E3C0D2F0E4C013
:103DB800D3F08BC1D4F0080ED56F3FEC34F09AECF9
:103DC8003FF0E06FE0AF20D0E0511200FF0CFE0C96
:103DD800896B8A6B610E8B6F450E8C6FE10E29EC37
:103DE8003DF049D993EC3CF0D8E267D9D6D777D9DA
:103DF800610EA46F450EA56F98EC3DF04DD993EC7C
:103E08003CF0CBE263D9C9D7E051010A09E0030AC3
:103E1800DDE0010ADCE0070ADBE0010AE8E0BDD7E3
:103E280001018BA559D01FEC3AF07FC176F080C113
:103E380077F039EC3FF01D0E776FB60E766F39ECE0
:103E48003FF0756B010E4DEC3BF0190E776FE20EEB
:103E5800766F39EC3FF0756B010E4DEC3BF0E1C02D
:103E6800D0F0E2C0D1F0E3C0D2F0E4C0D3F08BC10F
:103E7800D4F0040ED56F3FEC34F09AEC3FF0E06FCD
:103E8800E0BFA2D71CD0896B8A6B700E8B6F420E75
:103E98008C6FE10E29EC3DF0EED893EC3CF0DBE2C0
:103EA8000CD9D9D71CD9700EA46F420EA56F98EC07
:103EB8003DF0F2D893EC3CF0CEE208D9CCD7E051F3
:103EC800010A0AE0030A01E14DD7010A80E0070A66
:103ED800DAE0010AE7E0BFD701018BA35AD01FEC53
:103EE8003AF07FC176F080C177F039EC3FF01D0ED3
:103EF800776FBA0E766F39EC3FF0756B010E4DECAB
:103F08003BF0190E776FE20E766F39EC3FF0756B68
:103F1800010E4DEC3BF0E1C0D0F0E2C0D1F0E3C0BF
:103F2800D2F0E4C0D3F08BC1D4F0020ED56F3FECD1
:103F380034F09AEC3FF0E06FE0BF46D71CD0896BB5
:103F48008A6B800E8B6F3F0E8C6FE10E29EC3DF073
:103F580092D893EC3CF0DBE2B0D8D9D7C0D8800E29
:103F6800A46F3F0EA56F98EC3DF096D893EC3CF00B
:103F7800CEE2ACD8CCD7E051010A0BE0030A01E14C
:103F88004FD7010A01E123D7070AD9E0010AE6E081
:103F9800BED701018BA161D01FEC3AF07FC176F04A
:103FA80080C177F039EC3FF01D0E776FAD0E766F5C
:103FB80039EC3FF0756B010E4DEC3BF0190E776F45
:103FC800E20E766F39EC3FF0756B010E4DEC3BF06D
:103FD800E1C0D0F0E2C0D1F0E3C0D2F0E4C0D3F049
:103FE8008BC1D4F0010ED56F3FEC34F09AEC3FF062
:103FF800E06FE0BFE9D623D0CD0E896FCC0E8A6F73
:104008008B6F3D0E8C6FE10E29EC3DF034D893ECAC
:104018003CF0DAE252D8D8D7000EA16FE10EA06FBB
:10402800CD0EA26FCC0EA36FA46F3D0EA56F98ECBA
:104038003DF032D893EC3CF0C7E248D8C5D7E05100
:10404800010A0BE0030A01E147D7010A01E1BFD6E3
:10405800070AD2E0010AE0E0B7D781C1D9FF82C1DF
:10406800DAFF0001E1C0DEFFE2C0DEFFE3C0DEFFF1
:10407800E4C0DEFF000C87C189F088C18AF089C1DD
:104088008BF08AC18CF0E1C08DF0E2C08EF0E3C005
:104098008FF0E4C090F01200E1C089F0E2C08AF02D
:1040A800E3C08BF0E4C08CF083C18DF084C18EF046
:1040B80085C18FF086C190F0120087C1E1F088C1F8
:1040C800E2F089C1E3F08AC1E4F0120083C1E1F0B3
:1040D80084C1E2F085C1E3F086C1E4F01200000E6D
:1040E800A16FE10EA06FA26BA36B120000015BBE73
:1040F800FF0C0001BFAF13D0BCC06BF0BDC06CF0AB
:10410800BEC06DF0BFC06EF083EC40F06BC01CF118
:104118006CC01DF16DC01EF16EC01FF108D0BCC08F
:104128001CF1BDC01DF1BEC01EF1BFC01FF1C3AF61
:1041380013D0C0C06BF0C1C06CF0C2C06DF0C3C07A
:104148006EF083EC40F06BC024F16CC025F16DC0BB
:1041580026F16EC027F108D0C0C024F1C1C025F1F6
:10416800C2C026F1C3C027F1B8C07EF0B9C07FF045
:10417800BAC080F0BBC081F0D0C47AF0D1C47BF063
:10418800D2C47CF0D3C47DF0A3EC36F07AC0AEF094
:104198007BC0AFF07CC0B0F07DC0B1F080EC38F0EF
:1041A800AEC014F1AFC015F1B0C016F1B1C017F12F
:1041B8000101175114111511161101E1000C5B8052
:1041C800EAC110F1EBC111F1ECC112F1EDC113F12B
:1041D8005B900101145110250301D06F01011551A5
:1041E80011210301D16F0101165112210301D26F70
:1041F8000101175113210301D36F10C143F011C1FD
:1042080044F012C145F013C146F00001BBAF15D010
:10421800B8C06BF0B9C06CF0BAC06DF0BBC06EF03E
:1042280083EC40F06BC028F16CC029F16DC02AF115
:104238006EC02BF100015C800AD0B8C028F1B9C06B
:1042480029F1BAC02AF1BBC02BF100015C901CC156
:1042580089F01DC18AF01EC18BF01FC18CF024C1EA
:104268008DF025C18EF026C18FF027C190F025EC86
:1042780038F089C018F18AC019F18BC01AF18CC0C6
:104288001BF118C17EF019C17FF01AC180F01BC163
:1042980081F024C17AF025C17BF026C17CF027C1CA
:1042A8007DF0A3EC36F07AC02CF17BC02DF17CC0F8
:1042B8002EF17DC02FF118C17EF019C17FF01AC10F
:1042C80080F01BC181F02CC17AF02DC17BF02EC18A
:1042D8007CF02FC17DF0A3EC36F07AC00CF17BC0E6
:1042E8000DF17CC00EF17DC00FF10CC17AF00DC14B
:1042F8007BF00EC17CF00FC17DF07E6B7F6B806B15
:104308003F0E816FA3EC36F07AC020F17BC021F11B
:104318007CC022F17DC023F128C189F029C18AF02F
:104328002AC18BF02BC18CF07E6B7F6B806B400EAB
:10433800816F20C17AF021C17BF022C17CF023C1BA
:104348007DF0A3EC36F07AC08DF07BC08EF07CC097
:104358008FF07DC090F093EC3CF017E228C189F013
:1043680029C18AF02AC18BF02BC18CF08D6B8E6B22
:104378008F6B400E906F25EC38F089C020F18AC011
:1043880021F18BC022F18CC023F120C19CF021C106
:104398009DF022C19EF023C19FF028C198F029C149
:1043A80099F02AC19AF02BC19BF0E8EC3EF098C036
:1043B8007AF099C07BF09AC07CF09BC07DF0D0C4A5
:1043C8007EF0D1C47FF0D2C480F0D3C481F0A3ECD6
:1043D80036F07AC000F17BC001F17CC002F17DC0EB
:1043E80003F100C1AEF001C1AFF002C1B0F003C1EA
:1043F800B1F080EC38F0AEC0CCF3AFC0CDF3B0C0B4
:10440800CEF3B1C0CFF324C17EF025C17FF026C121
:1044180080F027C181F0D0C47AF0D1C47BF0D2C437
:104428007CF0D3C47DF0A3EC36F060D8BD0E7E6F6F
:10443800370E7F6F860E806F420E816FA3EC36F0C9
:104448007AC004F17BC005F17CC006F17DC007F19C
:1044580004C1AEF005C1AFF006C1B0F007C1B1F0BC
:1044680080EC38F0AEC03BF0AFC03CF0B0C03DF0DF
:10447800B1C03EF01CC17EF01DC17FF01EC180F0AE
:104488001FC181F0D0C47AF0D1C47BF0D2C47CF0D3
:10449800D3C47DF0A3EC36F029D86F0E7E6F120ED0
:1044A8007F6F030E806F470E816FA3EC36F07AC0E2
:1044B80008F17BC009F17CC00AF17DC00BF108C18D
:1044C800AEF009C1AFF00AC1B0F00BC1B1F080EC99
:1044D80038F0AEC03FF0AFC040F0B0C041F0B1C05E
:1044E80042F02DEC24F000015B8E000C7AC02CF118
:1044F8007BC02DF17CC02EF17DC02FF12CC17AF04C
:104508002DC17BF02EC17CF02FC17DF01200060E6C
:104518000101F66F0001CD6BCE6BCF6BD06BD9D993
:10452800620E7E6FBE0E7F6F3C0E806F460E816FEF
:10453800D0C47AF0D1C47BF0D2C47CF0D3C47DF06F
:10454800A3EC36F07AC0AEF07BC0AFF07CC0B0F020
:104558007DC0B1F080EC38F0AEC03BF0AFC03CF0AD
:10456800B0C03DF0B1C03EF074D95A9A5B9E5C84ED
:1045780000015C84A8EC40F01FEC3AF01C0E776F49
:10458800270E766F39EC3FF0756B010E4DEC3BF062
:104598001A0E776FD30E766F39EC3FF0A8EC40F027
:1045A800CC6FCC51030A03E1FE0EC76F31D1CC5159
:1045B800020A02E1C7692CD1CC0504E1CD6BCE6BB0
:1045C800CF6BD06BCC51040A31E198D99BEC39F010
:1045D80083EC3FF075C07AF076C07BF077C07CF052
:1045E80078C07DF0A3EC36F07AC089F07BC08AF001
:1045F8007CC08BF07DC08CF0CD0E29EC3DF0896B32
:104608008A6BB40E8B6F420E8C6FCDC08DF0CEC00E
:104618008EF0CFC08FF0D0C090F093EC3CF006E263
:10462800CD6BCE6BB40ECF6F420ED06FCC51050A56
:1046380034E1000EA16FCD0EA06F60D99BEC39F06C
:1046480083EC3FF075C07AF076C07BF077C07CF0E1
:1046580078C07DF0A3EC36F07AC0A2F07BC0A3F05E
:104668007CC0A4F07DC0A5F098EC3DF0CDC089F0E9
:10467800CEC08AF0CFC08BF0D0C08CF08D6B8E6B23
:10468800B40E8F6FC20E906F93EC3CF006E2CD6BC8
:10469800CE6BB40ECF6FC20ED06FCCAF03D0CCC0F0
:1046A800C7F0B6D0060E756F010E4DEC3BF0CDC0CD
:1046B800B8F0CEC0B9F0CFC0BAF0D0C0BBF0020E8F
:1046C800BC6FBD6F010EBE6FD7EC2EF05CA052D050
:1046D8000001D0AF31D0D0C47EF0D1C47FF0D2C4B5
:1046E80080F0D3C481F0CDC06BF0CEC06CF0CFC0E9
:1046F8006DF0D0C06EF083EC40F06BC07AF06CC007
:104708007BF06DC07CF06EC07DF0A3EC36F0B4D8C1
:10471800A3EC36F07AC0AEF07BC0AFF07CC0B0F04E
:104728007DC0B1F080EC38F0DFD802D0E1EC1BF0AE
:1047380000015AA26AD0FAD7000EBED893EC3CF01A
:1047480010E2010EB2D802D0E1EC1BF000015AB21F
:10475800FBD700015AB059D05C945C947AD85C902D
:1047680047D0010EA2D802D0E1EC1BF000015AA2FA
:104778004CD0FAD7000E00019FD893EC3CF027E20A
:10478800CDC07EF0CEC07FF0CFC080F0D0C081F029
:10479800D0C47AF0D1C47BF0D2C47CF0D3C47DF00D
:1047A800A3EC36F069D8A3EC36F07AC0AEF07BC043
:1047B800AFF07CC0B0F07DC0B1F080EC38F094D898
:1047C80002D0E1EC1BF000015AA21FD0FAD7D0AFFB
:1047D80014D0010E6AD802D0E1EC1BF000015AB2E5
:1047E800FBD700015AB011D05C945C9432D85C803D
:1047F80070D85C8400015C8408D0010E56D802D0C1
:10480800E1EC1BF000015AB2FBD7E1EC1BF0C6D675
:104818001FEC3AF01C0E776FA60E766F39EC3FF05E
:10482800010E0301D46F000ED56FD66FD76F5A8271
:1048380002D0E1EC1BF000015AB2FBD700015AB0DC
:1048480005D05C945C940001C7511200E1EC1BF0A8
:10485800E7D7476A486A496A4A6A0101EE6BEF6B13
:10486800F06BF16B0201C86BC96BCA6BCB6BCC6B7D
:10487800CD6BCE6BCF6B12007AC0C8F07BC0C9F08D
:104888007CC0CAF07DC0CBF06F0E7E6F120E7F6FBA
:10489800030E806F470E816FC8C07AF0C9C07BF0E5
:1048A800CAC07CF0CBC07DF0470C0301D46FD56B38
:1048B800D66BD76B5A82000C896B8A6B8B6B8C6BAF
:1048C800CDC08DF0CEC08EF0CFC08FF0D0C090F0AC
:1048D80012005B80EAC143F0EBC144F0ECC145F043
:1048E800EDC146F05B901200AEC0D4F3AFC0D5F373
:1048F800B0C0D6F3B1C0D7F35A821200CD0E7E6F86
:10490800CC0E7F6F4C0E806F3D0E816F3D0C010108
:104918008B6B030EF66F1FEC3AF01B0E776F880E49
:10492800766F39EC3FF0756B010E4DEC3BF0D9C357
:1049380079F00001DAC37AF07B6B7C6B030E7D6F34
:10494800000E7E6B33EC28F0130E916F880E906F7B
:10495800B7EC40F0D9C375F0DAC376F0F2EC3FF06B
:10496800A1D91CEC2BF011D0E1EC1BF0A8EC40F025
:1049780001019C6F9C51030A03E1FE0E8B6F78D1F5
:104988009CAF03D09CC18BF173D100015BBEECD707
:10499800E1C37AF0E2C37BF0E3C37CF0E4C37DF0CB
:1049A80000017E6B7F6BB40E806F430E816FA3ECAA
:1049B80036F07AC094F17BC095F17CC096F17DC049
:1049C80097F10301DB51020A08E10101946B4E0ED5
:1049D800956FED0E966F4A0E976F0301DC6712D044
:1049E80094C16BF095C16CF096C16DF097C16EF0F3
:1049F80083EC40F06BC094F16CC095F16DC096F1FA
:104A08006EC097F10EEC3CF0BDEC3DF075C08CF13A
:104A180076C08DF177C08EF178C08FF15B90010E72
:104A280000018A6F8C0E896FD4C48BF0D5C48CF0CA
:104A3800D6C48DF0D7C48EF073EC3DF08CC175F000
:104A48008DC176F08EC177F08FC178F094C179F07E
:104A580095C17AF096C17BF097C17CF067EC32F093
:104A680075C07FF176C080F177C081F178C082F19E
:104A78001FEC3AF01A0E776F0C0E766F39EC3FF098
:104A88000301DB51020A12E11FEC3AF01C0E776FAA
:104A9800090E766F39EC3FF0756B010E4DEC3BF06B
:104AA8001B0E776F540E766F39EC3FF00001896B5F
:104AB8008A6B800E8B6F3F0E8C6FE9C38DF0EAC353
:104AC8008EF0EBC38FF0ECC390F025EC38F089C082
:104AD80087F18AC088F18BC089F18CC08AF1A8EC73
:104AE80040F094C130F195C131F196C132F197C1CE
:104AF80033F1E9C334F1EAC335F1EBC336F1ECC362
:104B080037F11FEC3FF0B2D00EEC3CF0BDEC3DF0BD
:104B180075C090F176C091F177C092F178C093F1A9
:104B28005B90010E00018A6F900E896FD4C48BF0E0
:104B3800D5C48CF0D6C48DF0D7C48EF073EC3DF09C
:104B48007FC198F080C199F081C19AF082C19BF031
:104B580090C19CF091C19DF092C19EF093C19FF0CD
:104B6800E8EC3EF098C098F199C099F19AC09AF192
:104B78009BC09BF101019BAF12D098C16BF099C10A
:104B88006CF09AC16DF09BC16EF083EC40F06BC085
:104B980098F16CC099F16DC09AF16EC09BF198C103
:104BA8007AF099C17BF09AC17CF09BC17DF087C1F6
:104BB8007EF088C17FF089C180F08AC181F0A3ECC2
:104BC80036F07AC083F17BC084F17CC085F17DC06A
:104BD80086F1010E00018A6F980E896F1B0E8B6F8C
:104BE8000F0E8C6F360E8D6F3B0E8E6F73EC3DF093
:104BF8000301DB51020A2EE00B0E0001756F000E57
:104C08004DEC3BF083C1D0F084C1D1F085C1D2F026
:104C180086C1D3F00E0ED46F000ED56B3FEC34F086
:104C2800756B010E4DEC3BF098C1B8F099C1B9F025
:104C38009AC1BAF09BC1BBF0050EBC6F020EBD6FE6
:104C4800000EBE6BD7EC2EF01C0E776FCD0E766F74
:104C580039EC3FF0A8EC40F001019C6F9C51030A2D
:104C680001E18BD69CBF8ED6E1EC1BF05BBE4CD726
:104C78005B9E00015A8A1FEC3AF01C0E776FA60E55
:104C8800766F39EC3FF0E1EC1BF05B9E5A8A010E1F
:104C98000001916FF40E906FB7EC40F05A9A010141
:104CA8008B51120075C038F176C039F177C03AF1EE
:104CB80078C03BF101013C6B3D6BB40E3E6F420E78
:104CC8003F6F420C0001756B766B010EB6EC3BF042
:104CD80089C189F08AC18AF08BC18BF08CC18CF0B4
:104CE8008D6B400E8E6F1C0E8F6F460E906F93EC7F
:104CF8003CF012E2896B400E8A6F1C0E8B6FC60E59
:104D08008C6F85C18DF086C18EF087C18FF088C108
:104D180090F093EC3CF002E3050E4FD086D97A0E62
:104D28008F6F440E906F93EC3CF011E2896B8A6BA5
:104D38007A0E8B6FC40E8C6F85C18DF086C18EF094
:104D480087C18FF088C190F093EC3CF002E3040E29
:104D580034D06BD9C80E8F6F420E906F93EC3CF035
:104D680011E2896B8A6BC80E8B6FC20E8C6F85C17E
:104D78008DF086C18EF087C18FF088C190F093ECDA
:104D88003CF002E3030E19D050D9200E8F6F410E6C
:104D9800906F93EC3CF010E2896B8A6B200E8B6F5E
:104DA800C10E8C6F85C18DF086C18EF087C18FF0E2
:104DB80088C190F093EC3CF0020EC76F8DC189F06A
:104DC8008EC18AF08FC18BF090C18CF08D6B8E6B89
:104DD800800E8F6F3F0E906F93EC3CF002E3C86B30
:104DE80053D08DC189F08EC18AF08FC18BF090C1EC
:104DF8008CF0CD0E8D6FCC0E8E6F8F6F3D0E906F39
:104E080093EC3CF002E3010E3ED08DC189F08EC1D7
:104E18008AF08FC18BF090C18CF00A0E8D6FD70E7F
:104E28008E6F230E8F6F3C0E906F93EC3CF002E375
:104E3800020E29D08DC189F08EC18AF08FC18BF006
:104E480090C18CF06F0E8D6F120E8E6F830E8F6F68
:104E58003A0E906F93EC3CF002E3030E14D08DC130
:104E680089F08EC18AF08FC18BF090C18CF0170E3B
:104E78008D6FB70E8E6FD10E8F6F380E906F93ECCB
:104E88003CF002E3040EC86F83C1D9FF84C1DAFF86
:104E9800DECFCAF0DECFCBF0DECFCCF0DECFCDF068
:104EA8001FEC3AF07FC176F080C177F039EC3FF023
:104EB800756B010E4DEC3BF0C3D8D7EC2EF081C1D9
:104EC80076F082C177F039EC3FF0756B010E4DEC4E
:104ED8003BF0B6D8D7EC2EF09AEC3FF0C96FC9AFCB
:104EE80094D0C951120083C1D9FF84C1DAFFCAC066
:104EF800DEFFCBC0DEFFCCC0DEFFCDC0DEFF756BB2
:104F0800766B010EB6EC3BF0000CFE0CFF0C8DC16D
:104F18007EF08EC17FF08FC180F090C181F09BEC54
:104F280039F083EC3FF075C07AF076C07BF077C03B
:104F38007CF078C07DF0A3EC36F07AC089F07BC0B5
:104F48008AF07CC08BF07DC08CF0CA0E29EC3DF055
:104F580089C189F08AC18AF08BC18BF08CC18CF031
:104F6800CAC08DF0CBC08EF0CCC08FF0CDC090F011
:104F780093EC3CF0AAE289C1CAF08AC1CBF08BC19C
:104F8800CCF08CC1CDF0A1D7000EA16FCA0EA06FD6
:104F98008DC17EF08EC17FF08FC180F090C181F00D
:104FA8009BEC39F083EC3FF075C07AF076C07BF06B
:104FB80077C07CF078C07DF0A3EC36F07AC0A2F020
:104FC8007BC0A3F07CC0A4F07DC0A5F098EC3DF0B8
:104FD800CAC089F0CBC08AF0CCC08BF0CDC08CF0B1
:104FE80085C18DF086C18EF087C18FF088C190F0A1
:104FF80093EC3CF001E369D785C1CAF086C1CBF0D8
:1050080087C1CCF088C1CDF060D7C951010A01E150
:105018006AD7030A01E17AD7010A01E176D7070ABC
:1050280001E175D7010AB0E050D789C189F08AC17A
:105038008AF08BC18BF08CC18CF08D6B8E6B12005B
:10504800CAC0B8F0CBC0B9F0CCC0BAF0CDC0BBF084
:10505800C7C0BCF0C8C0BDF0010EBE6F010C7CAF6C
:105068000DD02D0EDDEC39F0796D7A1FD8B07A2B82
:105078007B1FD8B07B2B000E7C5705D07E5103E0F8
:105088002B0EDDEC39F079C06BF07AC06CF07BC088
:105098006DF07CC06EF06F6BCA0E706F9A0E716FF8
:1050A8003B0E726F69EC37F033D96F6BCA0E706FB5
:1050B8009A0E716F3B0E726F47EC3CF03AD9090EAD
:1050C8007D6503D07F51DDEC39F079C06BF07AC093
:1050D8006CF07BC06DF07CC06EF06F6BE10E706F92
:1050E800F50E716F050E726F69EC37F011D96F6BA1
:1050F800E10E706FF50E716F050E726F47EC3CF0A4
:1051080018D9080E7D6503D07F51DDEC39F079C0E0
:105118006BF07AC06CF07BC06DF07CC06EF0800ED6
:105128006F6F960E706F980E716F000E726B69EC50
:1051380037F0EED8800E6F6F960E706F980E716F05
:10514800000E726B47EC3CF0F4D8070E7D6503D077
:105158007F51DDEC39F079C06BF07AC06CF07BC020
:105168006DF07CC06EF0400E6F6F420E706F0F0EC8
:10517800716F000E726B69EC37F0CAD8400E6F6F12
:10518800420E706F0F0E716F000E726B47EC3CF0A1
:10519800D0D8060E7D6503D07F51DDEC39F079C09B
:1051A8006BF07AC06CF07BC06DF07CC06EF0A00E26
:1051B8006F6F860E706F010E716F000E726B69EC67
:1051C80037F0A6D8A00E6F6F860E706F010E716F44
:1051D800000E726B47EC3CF0ACD8050E7D6503D031
:1051E8007F51DDEC39F079C06BF07AC06CF07BC090
:1051F8006DF07CC06EF0100E6F6F270E706F000E92
:10520800716B726B69EC37F083D8100E6F6F270ED5
:10521800706F000E716B726B47EC3CF08AD8040E0D
:105228007D6503D07F51DDEC39F079C06BF07AC031
:105238006CF07BC06DF07CC06EF0E80E6F6F030EF3
:10524800706F000E716B726B69EC37F061D8E80E05
:105258006F6F030E706F000E716B726B47EC3CF052
:1052680068D8030E7D6503D07F51DDEC39F079C035
:105278006BF07AC06CF07BC06DF07CC06EF0640E91
:105288006F6F000E706B716B726B69EC37F040D802
:10529800640E6F6F000E706B716B726B47EC3CF0B5
:1052A80048D8020E7D6503D07F51DDEC39F079C016
:1052B8006BF07AC06CF07BC06DF07CC06EF00A0EAB
:1052C8006F6F000E706B716B726B69EC37F020D8E2
:1052D8000A0E6F6F000E706B716B726B47EC3CF0CF
:1052E80028D8010E7D6503D07F51DDEC39F079C0F7
:1052F8007FF07AC080F07BC081F07CC082F0300EF5
:105308007F27000E8023812382237F51DDEF39F030
:105318006BC07FF06CC080F06DC081F06EC082F011
:105328007FC06BF080C06CF081C06DF082C06EF001
:1053380012006B51795F6C517A5B6D517B5B6E51DA
:105348007C5B300E7F27000E802381238223000C94
:105358000001BAAF13D0B7C06BF0B8C06CF0B9C0D9
:105368006DF0BAC06EF083EC40F06BC0DBF06CC03F
:10537800DCF06DC0DDF06EC0DEF008D0B7C0DBF049
:10538800B8C0DCF0B9C0DDF0BAC0DEF0DBC07AF03E
:10539800DCC07BF0DDC07CF0DEC07DF07E6B7F6B17
:1053A800806B3F0E816FA3EC36F07AC0BBF07BC0F8
:1053B800BCF07CC0BDF07DC0BEF0C6C489F0C7C4D7
:1053C8008AF0C8C48BF0C9C48CF0C2C48DF0C3C4C1
:1053D8008EF0C4C48FF0C5C490F025EC38F089C0B5
:1053E800DFF08AC0E0F08BC0E1F08CC0E2F00FD9AA
:1053F800A3EC36F0DDD8A3EC36F0F3D8A3EC36F006
:105408007AC0CBF07BC0CCF07CC0CDF07DC0CEF0B4
:10541800BBC089F0BCC08AF0BDC08BF0BEC08CF0A8
:10542800CBC08DF0CCC08EF0CDC08FF0CEC090F048
:1054380093EC3CF035E2DBC089F0DCC08AF0DDC0DB
:105448008BF0DEC08CF0C2C48DF0C3C48EF0C4C42F
:105458008FF0C5C490F025EC38F089C0A6F08AC05A
:10546800A7F08BC0A8F08CC0A9F015EC33F0A6C04B
:10547800DFF0A7C0E0F0A8C0E1F0A9C0E2F0C7D80B
:10548800A3EC36F095D8A3EC36F0ABD8A3EC36F005
:105498007AC0CBF07BC0CCF07CC0CDF07DC0CEF024
:1054A800C2C47AF0C3C47BF0C4C47CF0C5C47DF028
:1054B800DFC07EF0E0C07FF0E1C080F0E2C081F0A4
:1054C800A3EC36F07AC0BFF07BC0C0F07CC0C1F05E
:1054D8007DC0C2F0DBC098F0DCC099F0DDC09AF066
:1054E800DEC09BF07E6B7F6B806B400E816FCBC004
:1054F8007AF0CCC07BF0CDC07CF0CEC07DF0A3ECC0
:1055080036F07AC09CF07BC09DF07CC09EF07DC0D8
:105518009FF0E8EC3EF098C0C3F099C0C4F09AC080
:10552800C5F09BC0C6F0C3C089F0C4C08AF0C5C02E
:105538008BF0C6C08CF0BFC08DF0C0C08EF0C1C06B
:105548008FF0C2C090F025EC38F089C0C7F08AC04F
:10555800C8F08BC0C9F08CC0CAF0DFC07AF0E0C0D8
:105568007BF0E1C07CF0E2C07DF07E6B7F6B806BEE
:10557800400E816FA3EC36F07AC0D7F07BC0D8F02C
:105588007CC0D9F07DC0DAF0C7C089F0C8C08AF005
:10559800C9C08BF0CAC08CF0D70E29EC3DF0D7C03B
:1055A800B7F0D8C0B8F0D9C0B9F0DAC0BAF0120074
:1055B8007AC0CFF07BC0D0F07CC0D1F07DC0D2F0F3
:1055C800DFC07EF0E0C07FF0E1C080F0E2C081F093
:1055D800CFC07AF0D0C07BF0D1C07CF0D2C07DF0D3
:1055E80012007AC0D3F07BC0D4F07CC0D5F07DC067
:1055F800D6F0D3C07AF0D4C07BF0D5C07CF0D6C04A
:105608007DF07E6B7F6B806B3F0E816F3F0CDFC040
:105618007EF0E0C07FF0E1C080F0E2C081F0C2C45B
:105628007AF0C3C47BF0C4C47CF0C5C47DF012001A
:105638003FAF13D03CC16BF03DC16CF03EC16DF083
:105648003FC16EF083EC40F06BC0C8F06CC0C9F08D
:105658006DC0CAF06EC0CBF008D03CC1C8F03DC1E7
:10566800C9F03EC1CAF03FC1CBF001013BAF22D027
:1056780038C1DCF039C1DDF03AC1DEF03BC1DFF002
:1056880003D01ED929EC3DF0DCC089F0DDC08AF0DA
:10569800DEC08BF0DFC08CF000018D6B8E6BB40E1A
:1056A8008F6FC30E906F93EC3CF0EBE309D929ECB4
:1056B8003DF027D038C1DCF039C1DDF03AC1DEF069
:1056C8003BC1DFF00CD0000EA16FDC0EA06FA26B07
:1056D800A36BB40EA46F430EA56F98EC3DF00001C8
:1056E800896B8A6BB40E8B6F430E8C6FDCC08DF0A8
:1056F800DDC08EF0DEC08FF0DFC090F093EC3CF0A0
:10570800E2E34DEC35F0A6C0D8F0A7C0D9F0A8C0A8
:10571800DAF0A9C0DBF0D8C089F0D9C08AF0DAC0C5
:105728008BF0DBC08CF0DCC08DF0DDC08EF0DEC00D
:105738008FF0DFC090F093EC3CF039E2DCC098F0D9
:10574800DDC099F0DEC09AF0DFC09BF0D8C09CF0B5
:10575800D9C09DF0DAC09EF0DBC09FF0E8EC3EF0C7
:1057680098C0CCF099C0CDF09AC0CEF09BC0CFF0D5
:10577800DCC09CF0DDC09DF0DEC09EF0DFC09FF075
:10578800A7D8E8EC3EF08BD8D8C079F0D9C07AF029
:10579800DAC07BF0DBC07CF067EC32F075C0D0F08B
:1057A80076C0D1F077C0D2F078C0D3F038D0D8C066
:1057B8009CF0D9C09DF0DAC09EF0DBC09FF088D87D
:1057C800E8EC3EF06CD8DCC079F0DDC07AF0DEC0E1
:1057D8007BF0DFC07CF067EC32F075C0CCF076C0AF
:1057E800CDF077C0CEF078C0CFF0D8C098F0D9C04F
:1057F80099F0DAC09AF0DBC09BF0DCC09CF0DDC009
:105808009DF0DEC09EF0DFC09FF0E8EC3EF098C04F
:10581800D0F099C0D1F09AC0D2F09BC0D3F0CCC0E0
:1058280089F0CDC08AF0CEC08BF0CFC08CF0D0C04C
:105838008DF0D1C08EF0D2C08FF0D3C090F093EC31
:105848003CF009E2CCC030F1CDC031F1CEC032F12C
:10585800CFC033F11AD0D0C06BF0D1C06CF0D2C039
:105868006DF0D3C06EF083EC40F06BC0C4F06CC038
:10587800C5F06DC0C6F06EC0C7F0C4C030F1C5C079
:1058880031F1C6C032F1C7C033F1C8C034F1C9C064
:1058980035F1CAC036F1CBC037F11FEF3FF098C0E1
:1058A800D4F099C0D5F09AC0D6F09BC0D7F0D4C038
:1058B80075F0D5C076F0D6C077F0D7C078F0120072
:1058C800896B8A6BB40E8B6F430E8C6FDC0E1200E3
:1058D800986B996BB40E9A6F430E9B6F430CBAAFDB
:1058E80008D0B7C07AF023D9BF0E816FA3EC36F089
:1058F80007D0B7C07AF01BD93F0E816FA3EC36F002
:105908007AC0CFF07BC0D0F07CC0D1F07DC0D2F09F
:10591800BEAF08D0BBC07AF000D9BF0E816FA3EC30
:1059280036F007D0BBC07AF0F8D83F0E816FA3ECF1
:1059380036F07AC0D3F07BC0D4F07CC0D5F07DC0FF
:10594800D6F0896B8A6B800E8B6F450E8C6FD3C037
:105958008DF0D4C08EF0D5C08FF0D6C090F093EC07
:105968003CF01BE2CFC089F0D0C08AF0D1C08BF0E8
:10597800D2C08CF0D3C08DF0D4C08EF0D5C08FF0DB
:10598800D6C090F025EC38F089C0B7F08AC0B8F0DE
:105998008BC0B9F08CC0BAF01200D3C07EF0D4C06E
:1059A8007FF0D5C080F0D6C081F0D3C07AF0D4C0E3
:1059B8007BF0D5C07CF0D6C07DF0A3EC36F07AC081
:1059C80098F07BC099F07CC09AF07DC09BF0C2C46F
:1059D8008DF0C3C48EF0C4C48FF0C5C490F07E6B44
:1059E8007F6B806B400E816FCFC07AF0D0C07BF0A8
:1059F800D1C07CF0D2C07DF0A3EC36F07AC089F03B
:105A08007BC08AF07CC08BF07DC08CF025EC38F030
:105A180089C09CF08AC09DF08BC09EF08CC09FF01E
:105A2800E8EC3EF098C0C7F099C0C8F09AC0C9F039
:105A38009BC0CAF0CAAF08D0000EB76FB86F800E0F
:105A4800B96FBF0EBA6FBF0CC7C0A6F0C8C0A7F029
:105A5800C9C0A8F0CAC0A9F015EC33F0A6C0C3F0BD
:105A6800A7C0C4F0A8C0C5F0A9C0C6F0D3C098F0BC
:105A7800D4C099F0D5C09AF0D6C09BF0C3C09CF0B2
:105A8800C4C09DF0C5C09EF0C6C09FF0E8EC3EF0D3
:105A980098C0BFF099C0C0F09AC0C1F09BC0C2F0D6
:105AA800C2C47AF0C3C47BF0C4C47CF0C5C47DF022
:105AB800BFC07EF0C0C07FF0C1C080F0C2C081F01E
:105AC800A3EC36F07AC0CBF07BC0CCF07CC0CDF034
:105AD8007DC0CEF0C6C489F0C7C48AF0C8C48BF0B4
:105AE800C9C48CF0CBC08DF0CCC08EF0CDC08FF087
:105AF800CEC090F093EC3CF007E2000EB76FB86FA1
:105B0800B96FC00EBA6FC00CCBC0B7F0CCC0B8F03C
:105B1800CDC0B9F0CEC0BAF01200BCC07BF0BDC099
:105B28007CF0BEC07DF07E6B7F6B806B1200B8C0CE
:105B38007BF0B9C07CF0BAC07DF07E6B7F6B806B68
:105B480012000101E76BE66BACEC3EF08B908A909B
:105B5800476A486A496A4A6A0201C86BC96BCA6BD4
:105B6800CB6BCC6BCD6BCE6BCF6B0101E86B280E8A
:105B78000101E825D96EDA6A040EDA22DF68E82B1B
:105B88000F0EE865F4D753EC3FF015EC3BF06DECE5
:105B98003CF01FEC3AF01B0E776FEA0E766F39EC8B
:105BA8003FF0756B010E4DEC3BF01C0E776FE70E66
:105BB800766F39EC3FF0070E916FD00E906FB7EC0F
:105BC80040F01D0E0101CB6F3D0ECA6F1C0ECD6F4C
:105BD800360ECC6F1D0ECF6F490ECE6F1C0ED16FD7
:105BE800270ED06F1B0ED36F990ED26F1C0ED56F78
:105BF800F40ED46F1A0ED76F860ED66FCAC1D8F1BD
:105C0800CBC1D9F1CCC1DAF1CDC1DBF1D0C1DCF126
:105C1800D1C1DDF1CEC1DEF1CFC1DFF1D2C1E0F1FA
:105C2800D3C1E1F1D4C1E2F1D5C1E3F1D6C1E4F1C8
:105C3800D7C1E5F100015A8A1FEC3AF0190E776FC7
:105C4800CC0E766F39EC3FF0756B010E4DEC3BF0E6
:105C58001C0E776F180E766F39EC3FF096EC40F01B
:105C68005A8602D0E1EC1BF000015AB6FBD70001BE
:105C7800916B0A0E906FB7EC40F000015A9A1FEC36
:105C88003AF0010E0101F66F010E0001926FD80E75
:105C9800916F060E936FE7C194F0ACEC31F00101FF
:105CA800E96F5ED0E76BE0EC0EF0E96FE951FE0AB0
:105CB800D8B48BEC22F00101E929D8B48BEC22F09E
:105CC8000101E951800A820F4BE3DBD7010EE76F30
:105CD800D9EC15F00101E96FE951800A820F40E320
:105CE800E9AFCFD78BEC22F038D0030EE76F0AEC80
:105CF80037F00101E96FE929C4E0E951FE0AC1E082
:105D0800E951800A820F2CE3E9C1E6F1E6519CECE7
:105D18003AF023D0E76B8BEC22F01FD0E76B58ECFE
:105D280039F01BD0E76BC8EC34F0ABD7E76B8FECDE
:105D380012F013D0010E9CEC3AF00FD0020E9CEC3E
:105D48003AF00BD0030E9CEC3AF007D0040E9CEC12
:105D58003AF003D0050E9CEC3AF00101E96FB1D797
:105D6800E951A0E0010AB2E0030AD4E0010ABDE06B
:105D7800070AD4E0010AD6E0030AD8E0C30AD2E051
:105D8800030AD4E0010AC6E00F0AA0E0010A8AE08B
:105D9800030AE0E0010ADAE0070AD4E0010ACEE0EB
:105DA800030AC8E06ED7B8C0AEF0B9C0AFF0BAC049
:105DB800B0F0BBC0B1F080EC38F0AEC0BFF0AFC0FF
:105DC800C0F0B0C0C1F0B1C0C2F0BE5119E0C251BC
:105DD800BF11C011C11114E1BBAF04D02D0EDDEC11
:105DE80039F003D02B0EDDEC39F0000E796B7A6BAD
:105DF8007B6B7C6BBCC07DF07E6B33EC28F00ED0E7
:105E0800BFC079F0C0C07AF0C1C07BF0C2C07CF0DE
:105E1800BCC07DF0BEC07EF033EC28F0000EA16F50
:105E2800B80EA06FBFC075F0C0C076F0C1C077F0E3
:105E3800C2C078F0BDEC3DF075C0A2F076C0A3F00A
:105E480077C0A4F078C0A5F098EC3DF0BBAF17D0B0
:105E5800000E986B996B9A6B9B6BB8C09CF0B9C09D
:105E68009DF0BAC09EF0BBC09FF0E8EC3EF098C031
:105E7800B8F099C0B9F09AC0BAF09BC0BBF0000E58
:105E88008A6FB80E896F8B6B500E8C6FC30E8D6F37
:105E9800470E8E6F73EC3DF0B8C0AEF0B9C0AFF0EE
:105EA800BAC0B0F0BBC0B1F080EC38F0AEC0C3F0FF
:105EB800AFC0C4F0B0C0C5F0B1C0C6F0BD51D8B4D1
:105EC80012002E0EDDEC39F0BD0514E1C3C06BF0F5
:105ED800C4C06CF0C5C06DF0C6C06EF0100E6F6F18
:105EE800270E706F000E716B726B69EC37F056D825
:105EF800010E50D0BD51020A14E1C3C06BF0C4C0FA
:105F08006CF0C5C06DF0C6C06EF0E80E6F6F030E82
:105F1800706F000E716B726B69EC37F03FD8020E30
:105F280039D0BD51030A13E1C3C06BF0C4C06CF093
:105F3800C5C06DF0C6C06EF0640E6F6F000E706B5A
:105F4800716B726B69EC37F029D8030E23D0BD5101
:105F5800040A13E1C3C06BF0C4C06CF0C5C06DF097
:105F6800C6C06EF00A0E6F6F000E706B716B726BAD
:105F780069EC37F013D8040E0DD0BD51050AD8A42A
:105F88001200C3C079F0C4C07AF0C5C07BF0C6C0A7
:105F98007CF0050E7D6F7E6B33EF28F06BC0C3F08D
:105FA8006CC0C4F06DC0C5F06EC0C6F0C3C079F057
:105FB800C4C07AF0C5C07BF0C6C07CF01200F7CF31
:105FC80067F0F8CF68F0F5CF69F0FE0ED76E830E54
:105FD800D66EF294ACA201D001D015D00001ED51DB
:105FE800D8B401D001D00FD00501000E0101F5256C
:105FF800D96EDA6A0501050EDA22DF50AD6E0101AD
:10600800F52B0001ED07AB30E832010B0001606FA2
:10601800AB30010B60110009D8B401D001D00DD00C
:10602800AB9800F0AB88AECF6AF0AECF6AF0000153
:10603800EB6B0001599E0001599C9EAA01D001D02A
:1060480032D0AECF6AF000016A51400AD8A401D01C
:1060580001D005D0EB6B0001599E0001598C00015D
:106068006A51230AD8A401D001D004D00001598E66
:106078000001599C0001EB29D8A401D001D001D01E
:10608800EB6B000159AC01D001D00DD00601000E18
:106098000001EB25D96EDA6A0601060EDA22000144
:1060A8006AC0DFFFEB2B0001EF51D8B401D001D05B
:1060B80002D0EF0702D0070EEF6F000159AA01D0F6
:1060C80001D009D00401BF510001EF6101D001D016
:1060D80002D08A8201D08A920001F00700010001F3
:1060E8005C760001F06701D001D012D0E64BE72BB7
:1060F800E705910ED8B4E619D8A401D001D005D08F
:106108004F0EF06FE66BE76B02D0500EF06F9E807B
:10611800D890E837D890E8378050030BE8130F0E73
:10612800E817BC0EE825F66EF76A190EF722F86A2A
:10613800000EF8220800F550606F000E60BFFF0ED9
:10614800616F626F636F60510301EE5F000161511F
:106158000301EF5B000162510301F05B0001635131
:106168000301F15B00015AA601D001D007D000015C
:106178005A960301EE6BEF6BF06BF16B00015BB0AD
:1061880001D001D008D0EEC3EAF1EFC3EBF1F0C3C0
:10619800ECF1F1C3EDF169C0F5FF68C0F8FF67C025
:1061A800F7FF66C0F6FF65C0DAFF64C0D9FF1100CB
:1061B800B8C0CCF0B9C0CDF0BAC0CEF0BBC0CFF0FB
:1061C800CCC07AF0CDC07BF0CEC07CF0CFC07DF0E3
:1061D800BB0E7E6FA20E7F6F910E806F390E816F9E
:1061E800A3EC36F088D880EC38F0AE51BCC0D9FFAB
:1061F800BDC0DAFFDF6EBCC0D9FFBDC0DAFFDF501B
:1062080083EC3FF089D8610E8D6F450E8E6F73EC6D
:106218003DF091D898EC3DF0CCC07AF0CDC07BF041
:10622800CEC07CF0CFC07DF0890E7E6F880E7F6F68
:10623800806F3C0E816FA3EC36F05DD880EC38F0AF
:10624800AE51BEC0D9FFBFC0DAFFDF6EBEC0D9FFF6
:10625800BFC0DAFFDF5083EC3FF05ED8700E8D6F61
:10626800420E8E6F73EC3DF066D898EC3DF0CCC0D2
:10627800AEF0CDC0AFF0CEC0B0F0CFC0B1F080EC82
:1062880038F0AE51C0C0D9FFC1C0DAFFDF6E000ED2
:10629800A16FCC0EA06FC0C0D9FFC1C0DAFFDF501C
:1062A80083EC3FF075C0A2F076C0A3F077C0A4F0ED
:1062B80078C0A5F098EC3DF0000E8A6FCC0E896F7F
:1062C8008B6B8C6B7A0E8D6F440E8E6F73EC3DF07A
:1062D800CCC0AEF0CDC0AFF0CEC0B0F0CFC0B1F002
:1062E80080EC38F0C2C0D9FFC3C0DAFFAEC0DEFF11
:1062F800AFC0DDFF12007AC0C4F07BC0C5F07CC01F
:10630800C6F07DC0C7F0C4C0AEF0C5C0AFF0C6C00F
:10631800B0F0C7C0B1F0120075C0C8F076C0C9F0BF
:1063280077C0CAF078C0CBF0000E8A6FC80E896FAC
:106338008B6B8C6B1200000EA16FCC0EA06FC8C0C7
:10634800A2F0C9C0A3F0CAC0A4F0CBC0A5F0120047
:10635800986B9A6B94C09AF0756B010E766FB6ECD9
:106368003BF01FEC3AF098512DE0010E756F000ECE
:106378004DEC3BF09A670FD09351020DF3509125E5
:10638800D96E000E9221DA6EDECF76F0DDCF77F08F
:1063980039EC3FF008D09A51020DF3CF95F0FE0E7C
:1063A80077D839EC3FF0756B010E4DEC3BF02A0EB7
:1063B800DDEC39F05AD839EC3FF0756B010E4DEC35
:1063C8003BF023D02A0EDDEC39F04FD839EC3FF002
:1063D800010E756F4DEC3BF06DD80BE191C0D9FF04
:1063E80092C0DAFFDECF76F0DDCF77F039EC3FF000
:1063F80008D09A51020DF3CF95F0020E49D839EC26
:106408003FF0000E756B4DEC3BF09AEC3FF0996F46
:1064180099AF18D099C09AF021D09A691FD0FE0E72
:106428009A6F1CD0010E986F45D803E193C09AF07B
:1064380098D79A2B96D7986B9A6702D09A6B91D770
:106448009A078FD79951010A09E0030AE6E0010A81
:10645800E6E0070AE7E0010AEEE083D7756B766BA2
:10646800010EB6EC3BF09A5112009A51020DF3500E
:106478009125956FE86AF3BEE8689221966F95C0FA
:10648800D9FF96C0DAFFDECF76F0DDCF77F01200C5
:10649800952795519125966FE86A95BFE8689221EE
:1064A800976F96C0D9FF97C0DAFFDECF76F0DDCFC1
:1064B80077F0120093519AC095F0966B95BF9607A6
:1064C800951996111200000177357835806F7B3564
:1064D8007C357F6F805109E07F5180610FD08051FA
:1064E8007F5D7D6F210E7D5D09E379C075F07AC00F
:1064F80076F07BC077F07CC078F012007F5109E01D
:1065080080517F610FD07F51805D7D6F210E7D5D51
:1065180009E375C075F076C076F077C077F078C07B
:1065280078F01200060E7E6F78BF7E8F7CBF7E8D5E
:10653800778F786B7B8F7C6B7F51806119D0D89077
:1065480079377A377B377C377F077F5180190CE0A2
:106558007E0700017E51070B07E0F1D7D89078330A
:10656800773376337533802B7F518063F7D71BD011
:1065780080517F6118D0D89075377637773778375C
:1065880080077F5180190CE07E0700017E51070BC0
:1065980007E0F1D7D8907C337B337A3379337F2B7C
:1065A8007F518063F7D77EAF09D0751F761F771F9D
:1065B800781F752B000E7623772378237EAD02D0C3
:1065C800791F26D87E6B7551792776517A237751B2
:1065D8007B2378517C237CAF04D0791F19D8010E16
:1065E8007E6F79C06BF07AC06CF07BC06DF07CC0B8
:1065F8006EF080C06FF07EC070F0C7EC37F06BC0F3
:1066080075F06CC076F06DC077F06EC078F012004F
:106618007A1F7B1F7C1F792B000E7A237B237C2318
:10662800000C000E896B8A6B8B6B8C6BA6C08DF08F
:10663800A7C08EF0A8C08FF0A9C090F093EC3CF0F2
:1066480005E3A66BA76BA86BA96B1200A6C0AAF0FE
:10665800A7C0ABF0A8C0ACF0A9C0ADF0A6515E08C9
:10666800B36FC80EA755B46F6E0EA855B56FBE0EA2
:10667800A955B66FD890B633B533B433B333D88091
:10668800000EAB5B800EAC5B000EAD5B040EAE6F14
:10669800B3C07AF0B4C07BF0B5C07CF0B6C07DF072
:1066A800AAC07EF0ABC07FF0ACC080F0ADC081F076
:1066B800A3EC36F07AC0AFF07BC0B0F07CC0B1F08C
:1066C8007DC0B2F03CD873EC3DF039D873EC3DF0A6
:1066D800000E8A6FB30E896F8B6B8C6BC00E8D6F3B
:1066E8003F0E8E6F73EC3DF0000EA16FB30EA06FDE
:1066F800AFC0A2F0B0C0A3F0B1C0A4F0B2C0A5F082
:1067080098EC3DF0AE2FC4D7B3C07AF0B4C07BF09C
:10671800B5C07CF0B6C07DF0A6C07EF0A7C07FF003
:10672800A8C080F0A9C081F0A3EC36F07AC0A6F02A
:106738007BC0A7F07CC0A8F07DC0A9F01200000EB5
:106748008A6FAF0E896FB3C08BF0B4C08CF0B5C040
:106758008DF0B6C08EF01200E8CF93F093517ED83A
:10676800100E6F6F0E0E706F000E716B726B47EC30
:106778003CF063D8BDEC3DF075C089F076C08AF076
:1067880077C08BF078C08CF09C0E29EC3DF08F51CF
:1067980065D83C0E6F6F000E706B716B726B47ECB7
:1067A8003CF04BD8BDEC3DF075C089F076C08AF05E
:1067B80077C08BF078C08CF09C0E29EC3DF090519E
:1067C80083EC3FF075C089F076C08AF077C08BF013
:1067D80078C08CF09C0E29EC3DF091C075F092C009
:1067E80076F0CAEC3EF075C094F076C095F077C0AC
:1067F80096F078C097F0000E8A6F940E896F6F0E2E
:106808008B6F120E8C6F830E8D6F3A0E8E6F73EC3A
:106818003DF094C089F095C08AF096C08BF097C07F
:106828008CF09C0E29EC3DF09CC08FF09DC090F040
:106838009EC091F09FC092F012006BC098F06CC09F
:1068480099F06DC09AF06EC09BF098C075F099C031
:1068580076F09AC077F09BC078F01200986F996B29
:106868009A6B9B6B98C06BF099C06CF09AC06DF0F6
:106878009BC06EF01200D0C0B8F0D1C0B9F0D2C041
:10688800BAF0D3C0BBF0000EBD6FD60EBC6F000EC1
:10689800BF6FD70EBE6F000EC16FD80EC06F000E4F
:1068A800C36FD90EC26FDCEC30F0D9C06BF0DAC020
:1068B8006CF06E6B640E6D6FD9EC3AF06BC0D9F06A
:1068C8006CC0DAF0D4A70ED0D5A703D03C0EDDEC0F
:1068D80039F0D65151D833EC28F0D5A703D03E0E65
:1068E800DDEC39F0D4A513D0D4A703D03A0EDDECF3
:1068F80039F0D5A503D03C0EDDEC39F0D7513CD8A2
:1069080033EC28F0D5A503D03E0EDDEC39F0D4A346
:1069180013D0D4A503D03A0EDDEC39F0D5A303D0BB
:106928003C0EDDEC39F0D85127D833EC28F0D5A34C
:1069380003D03E0EDDEC39F0D4A11200D4A303D06D
:106948002E0EDDEC39F0D5A103D03C0EDDEC39F08C
:10695800D9C079F0DAC07AF0000E7ABFFF0E7B6FEB
:106968007C6F010E7D6F000E7E6B33EC28F0D5A195
:1069780012003E0EDDEF39F0796F7A6B7B6B7C6B22
:10698800020E7D6F7E6B000C070EF66F1FEC3AF05F
:106998001C0E776FFA0E766F39EC3FF0000E756BB0
:1069A800766BB6EC3BF05C825986000159B6FDD790
:1069B800E1EC1BF0A8EC40F09D6F9D51800A820F1E
:1069C80018E25FD019EC3CF089C099F08AC09AF0BF
:1069D8008BC09BF08CC09CF0896B400E8A6F9C0E1C
:1069E8008B6F450E8C6F990E29EC3DF0966B976B6B
:1069F80009D09D51030AE6E0986998070001982993
:106A0800D7E0FBD7E1EC1BF0A8EC40F09D6F9D515F
:106A1800800A820F36E319EC3CF089C091F08AC0F5
:106A280092F08BC093F08CC094F099C089F09AC012
:106A38008AF09BC08BF09CC08CF091C08DF092C006
:106A48008EF093C08FF094C090F093EC3CF0ACE3E0
:106A58000DD0964B972B9751800A800F090ED8B40A
:106A6800965D0FE208D0966B976B05D09D51040A8E
:106A7800F0E0010AF8E09869980700019829C2E057
:106A8800FBD7756B766B010EB6EC3BF000015C92A0
:106A980012000EEC3CF0BDEC3DF075C0AAF076C0DB
:106AA800ABF077C0ACF078C0ADF05B900001000EA1
:106AB8008A6FAA0E896FD4C48BF0D5C48CF0D6C463
:106AC8008DF0D7C48EF073EC3DF0000E896B8A6BA5
:106AD8008B6B8C6BAAC08DF0ABC08EF0ACC08FF006
